:100000000C94D1000C94F0000C94F0000C94F000CF
:100010000C94F0000C94F0000C94481D0C94F0002B
:100020000C94F0000C94F0000C94F0000C94F00090
:100030000C94F0000C94F0000C94F0000C94F00080
:100040000C94F0000C94F0000C94F0000C94F00070
:100050000C94F0000C94F0000C94F0000C94F00060
:100060000C94F0000C94B3160C94F0000C94DF1672
:100070000C94F0000C94F0000C94F0000C94F00040
:100080000C94F0000C94F0000C94F0000C94F00030
:100090000C94F0000C94F0000C94F0000C94F00020
:1000A0000C94F0000C94F0000C94F0000C94F00010
:1000B0000C94F0000C94F0000C94F0000C94F00000
:1000C0000C94F0000C94F0000C94F0000C94F000F0
:1000D0000C94F0000C94F0000C94F0000C94F000E0
:1000E0000C94F0000C94F4170C94FE170C94C917A0
:1000F0000C9469170C9494170C9408180C943E17E0
:100100000C94BF170C94DA1C0C94031D0C94F00093
:100110000C94F0000C94F0000C941C180C94121821
:1001200004030302020100FFFEFDFCFBF9F7F4EFFC
:10013000832D21264627DE364C388E32B33C3E3A9C
:100140005B3AAE39CE405C430000CB44273D000013
:10015000D52A6F2AE72A042BF52AC12B872B1B2BC4
:1001600000000000E92B242C372B612CD82B462CC7
:100170000A2C172C542CFD2B010401010102010152
:100180000101010101010101040108020101010154
:100190000201010201020101020102020101010149
:1001A000080011241FBECFEFD1E4DEBFCDBF1DE09C
:1001B000A0E0B2E0EAEFF9EB00E00BBF02C007906D
:1001C0000D92AA31B107D9F728E1AAE1BDE001C03B
:1001D0001D92A33FB207E1F70E94BE520C94FB5C54
:1001E0000C940000EF92FF920F931F9362E080E067
:1001F00090E00E94211DE12CF12C02EF10E020E0A4
:1002000040E251EA67E070E085E00E945A1B1F91CE
:100210000F91FF90EF90089585E00E94A71A61E08A
:1002200080E090E00C94211DEF92FF920F931F93BA
:10023000CF93DF9300D0CDB7DEB790910E1281112E
:1002400041C0992321F088EF94E00E94BD5980912C
:1002500027029091280220910E12892B99F42223D3
:1002600041F084E095E09F938F930E94A5590F90F1
:100270000F9019821A82BE016F5F7F4F83E50E9443
:1002800098482DC0222341F085E395E09F938F93FA
:100290000E94A5590F900F9000E024E040E058EF35
:1002A0006FEF77E081E00E940C49E12CF12C02EF26
:1002B00010E020E040E251EA67E070E085E00E9453
:1002C0005A1B0DC0992341F086E595E09F938F93CB
:1002D0000E94A5590F900F9081E00E946A480F90EC
:1002E0000F90DF91CF911F910F91FF90EF900895A4
:1002F000CF92DF92EF920F93CF93DF9390910D12F5
:100300009F5F90930D1290910E128111DFC099237F
:1003100021F084E795E00E94BD59E60120E0BAC0D3
:100320003B85343109F0B4C08C858111B1C089811D
:100330009A818E3B9A4509F0ABC08D859E8597FFCB
:10034000A7C080910E128823B1F01F921F921F92B6
:100350003F938AE58F938EEB8F9384E895E09F938C
:100360008F930E94A5598DB79EB708960FB6F89443
:100370009EBF0FBE8DBF988180910E129230C9F43E
:10038000882381F0809100128F938091FF118F93C9
:1003900081EB95E09F938F930E94A5590F900F904A
:1003A0000F900F908B819C81909300128093FF118E
:1003B00057C0933009F041C0882331F18091081271
:1003C0008F93809107128F93809106128F93809163
:1003D00005128F93809104128F93809103128F9353
:1003E000809102128F93809101128F9381ED95E09D
:1003F0009F938F930E94A5598DB79EB70A960FB60B
:10040000F8949EBF0FBE8DBF7B816C815D814E8154
:100410003F81288599858A85709301126093021225
:100420005093031240930412309305122093061246
:10043000909307128093081213C0882341F086E539
:1004400095E09F938F930E94A5590F900F9081E0A4
:10045000DF91CF910F91EF90DF90CF900C946A488D
:1004600080910E12882341F082EE95E09F938F9346
:100470000E94A5590F900F9020E8AE016C858B85E6
:10048000DF91CF910F91EF90DF90CF900C945A476E
:1004900065962F5F2E1144CF90910D1280910E1210
:1004A000933058F6882341F08DEF95E09F938F931A
:1004B0000E94A5590F900F9000E024E040E058EF13
:1004C0006FEF77E081E00E940C4917C08A3E89F403
:1004D000992341F088E396E09F938F930E94A5595A
:1004E0000F900F9080910D12833030F380910E1297
:1004F000A4CF992309F4ABCFA2CFDF91CF910F9175
:10050000EF90DF90CF90089580910E12611115C089
:10051000882321F085E796E00E94BD5985E00E947E
:10052000A71A60E080E090E00E94211D83E090E047
:100530009093101280930F120895882341F086E55E
:1005400095E09F938F930E94A5590F900F9081E0A3
:100550000C946A480895611110C080910E1288238E
:1005600021F08EE996E00E94BD5981E080936016EB
:1005700061E080E090E00C94211D0895AF92CF924D
:10058000EF920F93CF93DF931F92CDB7DEB7811118
:1005900043C080910E12633589F4882341F086EBC5
:1005A00096E09F938F930E94A5590F900F9081E042
:1005B0008983BE016F5F7F4F81E412C0613499F47B
:1005C000882341F089EF96E09F938F930E94A5596D
:1005D0000F900F9081E08983BE016F5F7F4F82E5AE
:1005E0000E94984828C06235B9F4882341F08AE314
:1005F00097E09F938F930E94A5590F900F90A12C85
:10060000C12CEE24E3940FE02FE040E064E18EEB98
:100610009AE50E9444490FC080910E12882341F050
:1006200086E595E09F938F930E94A5590F900F90B8
:1006300081E00E946A480F90DF91CF910F91EF9077
:10064000CF90AF90089590910E1281112AC09923F6
:10065000C9F01F921F921F921F921F9284E18F93E5
:100660008AE58F938EEB8F9382E797E09F938F932A
:100670000E94A5598DB79EB70A960FB6F8949EBFF3
:100680000FBE8DBF85E00E94A71A60E080E090E079
:100690000E94211D82E090E09093101280930F122F
:1006A0000895992341F086E595E09F938F930E94EA
:1006B000A5590F900F9081E00C946A482F923F92B9
:1006C0004F925F926F927F928F929F92AF92BF9262
:1006D000CF92DF92EF92FF920F931F93CF93DF930E
:1006E000922E832E742E652E562E472E382E292EAE
:1006F00080910E12882341F083ED97E09F938F93B2
:100700000E94A5590F900F90A9E1B2E1FD01C081AF
:10071000D1812097A1F02281338144815581668166
:10072000778180859185A92CB82CC72CD62CE52CF7
:10073000F42C032D122D0E943E5709F443C03A9623
:1007400086E1E130F80719F780E090E02D913C91C7
:100750001197EC012196232BA9F42AE0289FD001C0
:10076000299FB00D1124A75EBD4EFD01C193D19309
:1007700012969C9281827282638254824582368272
:10078000278220C0CE011A96C436D105F9F61FC0C3
:1007900084EF97E00E94BD59E12C8E0108C08DE0E6
:1007A00098E00E94BD59EE24E3940FEF1FEF292D2E
:1007B000382D472D562D652D742D832D922D0E9499
:1007C0009E470AC080910E12882331F3E1CF8091B9
:1007D0000E12882341F3E3CFDF91CF911F910F9148
:1007E000FF90EF90DF90CF90BF90AF909F908F9051
:1007F0007F906F905F904F903F902F9008957F92E1
:100800008F929F92AF92BF92CF92DF92EF92FF9220
:100810000F931F93CF93DF93CDB7DEB72F970FB60C
:10082000F894DEBF0FBECDBF142F4901AC86BD8644
:10083000CE86DF8660E080E090E00E94211DCE0140
:100840000C960E94131ACC84DD84EE84FF84809180
:10085000111290911212A0911312B0911412C09221
:100860001112D0921212E0921312F0921412C81ABE
:10087000D90AEA0AFB0AC114D10421E0E206F10414
:1008800028F0CC24CA94DC2CE12CF12CF4019181C9
:1008900080910E12913F09F46DC0923F09F4D1C0CE
:1008A000903F09F035C1882331F063E278E0CE0152
:1008B00001960E945359BD2D80E090E0412F50E0F9
:1008C0005A01F4E0AF1AB1089A012350310942509D
:1008D000510947C060916416A0918A1670918B16D9
:1008E0008A159B0569F4EA2FF72FE60FF11DE60F35
:1008F000F11D0190F081E02DE80FF91FC08230C09A
:100900008217930769F4EA2FF72FE60FF11DE60F20
:10091000F11D0190F081E02DE80FF91FB08320C098
:100920008417950769F4EA2FF72FE60FF11DE60FFC
:10093000F11D0190F081E02DE80FF91F008310C038
:10094000F401E80FF91F7080EA2FF72FE60FF11D71
:10095000E60FF11D0190F081E02DE80FF91F708284
:100960000196811708F4B6CF809164168F5F80934B
:100970006416D6C0882331F06DE278E0CE0101968E
:100980000E945359BD2D80E090E0412F50E05A0164
:1009900024E0A21AB1089A012350310942505109AA
:1009A00047C060918816A0916116709162168A15F1
:1009B0009B0569F4EA2FF72FE60FF11DE60FF11DF5
:1009C0000190F081E02DE80FF91FC08230C082173E
:1009D000930769F4EA2FF72FE60FF11DE60FF11DDB
:1009E0000190F081E02DE80FF91FB08320C084173B
:1009F000950769F4EA2FF72FE60FF11DE60FF11DB9
:100A00000190F081E02DE80FF91F008310C0F40180
:100A1000E80FF91F7080EA2FF72FE60FF11DE60FA0
:100A2000F11D0190F081E02DE80FF91F7082019611
:100A3000811708F4B6CF809188168F5F809388164F
:100A40006FC0882331F068E378E0CE0101960E9400
:100A50005359BD2D80E090E0412F50E05A01E4E071
:100A6000AE1AB1089A01235031094250510947C0CA
:100A700060918D16A0915616709157168A159B0598
:100A800069F4EA2FF72FE60FF11DE60FF11D019033
:100A9000F081E02DE80FF91FC08230C08217930764
:100AA00069F4EA2FF72FE60FF11DE60FF11D019013
:100AB000F081E02DE80FF91FB08320C0841795075F
:100AC00069F4EA2FF72FE60FF11DE60FF11D0190F3
:100AD000F081E02DE80FF91F008310C0F401E80F4A
:100AE000F91F7080EA2FF72FE60FF11DE60FF11DB9
:100AF0000190F081E02DE80FF91F708201968117B7
:100B000008F4B6CF80918D168F5F80938D1608C044
:100B1000882331F060E478E0CE0101960E945359B9
:100B200080910E12882309F454C0FF92EF92DF9255
:100B3000CF921F920F931F921F93CE0101969F9306
:100B40008F93F40181811F928F9388E498E09F93A3
:100B50008F930E94A559B82C0FB6F894DEBF0FBE34
:100B6000CDBF740148EAC42E48E0D42E17C0F70167
:100B700081917F011F928F93DF92CF920E94A5599E
:100B800007700F900F900F900F90073019F48AE0C4
:100B900090E002C080E290E00E94B7590E2D0B1940
:100BA000011728F380918D161F928F9380918816DC
:100BB0001F928F93809164161F928F938FEA98E013
:100BC0009F938F930E94A5590FB6F894DEBF0FBE76
:100BD000CDBFE12CF12C0CE011E020E048EE53E019
:100BE00060E070E085E00E945A1B2F960FB6F894E3
:100BF000DEBF0FBECDBFDF91CF911F910F91FF9050
:100C0000EF90DF90CF90BF90AF909F908F907F90AC
:100C10000895EF92FF920F931F93CF93DF93CDB779
:100C2000DEB72C970FB6F894DEBF0FBECDBF182FDE
:100C300086E00E94A71A80910E128823E1F011111C
:100C400003C067ED78E007C0113019F460EE78E07A
:100C500002C06CEE78E0CE0101960E9453599F933A
:100C60008F9323EF38E03F932F930E94A5590F9065
:100C70000F900F900F90111131C00E94D913609303
:100C80008A1770938B1780938C1790938D172091F0
:100C90000E12222381F09F938F937F936F938EE1A7
:100CA00099E09F938F930E94A5590F900F900F90FA
:100CB0000F900F900F9060E074E081E00E94A0130D
:100CC000EE24E394F12C09E016E020E04CE150E240
:100CD00060E070E086E00E945A1B2FC0113029F5B9
:100CE0000E94D91360938E1770938F17809390177B
:100CF0009093911720910E12222381F09F938F934E
:100D00007F936F938FE299E09F938F930E94A559F1
:100D10000F900F900F900F900F900F908BE090E03E
:100D20009093101280930F1208C080910E128823A6
:100D300021F08FE399E00E94BD592C960FB6F894EC
:100D4000DEBF0FBECDBFDF91CF911F910F91FF90FE
:100D5000EF9008955498EDE7F0E080818160808302
:100D60000895A2E2B6E1E1E9F6E180E090E021E059
:100D70008D939D9321938A569F4F803639E0930738
:100D8000B9F70895BF92CF92DF92EF92FF920F933F
:100D90001F93CF93DF9380910E12882341F081E55A
:100DA00099E09F938F930E94A5590F900F9091E91E
:100DB000E92E96E1F92EC2E2D6E100E010E0BB2474
:100DC000B394CC24C394D12CF7018081882371F093
:100DD000888199818F3FF3E09F0710F4019603C04B
:100DE000F701108201979983888309C088819981CE
:100DF000009709F0F7CFF701B082D982C8828091BD
:100E0000270290912802029759F4F801EE5FF94EFB
:100E100088819981918380838EE190E00E942C1AD1
:100E20008091270290912802019739F4F801EA593C
:100E3000F94E8881998191838083FFEFEF1AFF0A31
:100E400022960E5F1F4F0032110509F0BDCF87E0DB
:100E500090E09093101280930F1280910E128823CD
:100E600069F08EEF94E0DF91CF911F910F91FF9089
:100E7000EF90DF90CF90BF900C94BD59DF91CF9150
:100E80001F910F91FF90EF90DF90CF90BF9008954A
:100E900080910E12882341F082E699E09F938F9310
:100EA0000E94A5590F900F9081E0089586EA0E9454
:100EB0002C18882321F00E94771880E008958DE295
:100EC0000E947F188111F7CF88E00E947F1881115E
:100ED000F2CF0E94771881E008951F93CF93DF939C
:100EE00080910E12882341F087E799E09F938F93BA
:100EF0000E94A5590F900F9084B1876084B9239800
:100F000085B1896085B982E58CBD8DB581608DBD67
:100F10000E94511380EF9AE00E942C1AC4E9D7E195
:100F200011E0812F0E945B1389939993019649F4F4
:100F300080910E12882389F080E999E00E94BD59C2
:100F40000CC01F5F183069F780910E12882339F0AA
:100F50008EEF94E00E94BD5902C080E001C081E0A4
:100F6000DF91CF911F910895EF92FF920F931F93FE
:100F7000CF93DF93CDB7DEB72C970FB6F894DEBFD3
:100F80000FBECDBFE82E8B0180910E128823D9F0C1
:100F9000E11003C067ED78E002C060EE78E0CE01BA
:100FA00001960E9453591F930F939F938F932CEA9E
:100FB00039E03F932F930E94A5590F900F900F9007
:100FC0000F900F900F90B8018E2D0E94A013F12C5E
:100FD00009E016E020E04CE150E260E070E086E0DD
:100FE0000E945A1B2C960FB6F894DEBF0FBECDBFE1
:100FF000DF91CF911F910F91FF90EF900895809115
:101000000E12882341F087EE99E09F938F930E9400
:10101000A5590F900F90E1EAF6E1119287E1E936C8
:10102000F807D9F710928E16809880917E00816023
:1010300080937E0081E880937A0080910E1288234D
:1010400021F08EEF94E00C94BD5908950F931F93F7
:10105000CF93DF9300D000D0CDB7DEB780910E12D2
:10106000882341F084E19AE09F938F930E94A559D1
:101070000F900F9080E480937C0080917A008064D0
:1010800080937A0080917A0084FFFCCF80917A006F
:10109000806180937A0080917800909179009C83A0
:1010A0008B838B819C81883E9340A0F58B819C81B2
:1010B0008D35934090F16B817C816C55734080E05D
:1010C00090E00E94AE5020E030E04CE053E40E94FB
:1010D000314F20E030E048EC52E40E944C4E0E9438
:1010E000674C162F6B817C816C55734080E090E0DB
:1010F0000E94AE5020E030E04CE053E40E94314FBB
:1011000020E030E040E751E40E944C4E0E94674CE2
:10111000062F05C00FE014E602C000E010E02091A9
:101120008E16822F90E0FC01EF55F94E1083873C1C
:1011300091051CF010928E1603C02F5F20938E161F
:101140001A821982E1EAF6E189819A812191820F5E
:10115000911D9A83898387E1E936F807A9F76981A8
:101160007A8180E090E00E94AE5020E030E44CE9CB
:1011700056E40E94314F20E030E040E751E40E9405
:101180004C4E0E94674C6093691780910E12882321
:1011900099F08B819C811F920F931F921F939F93B5
:1011A0008F938FE29AE09F938F930E94A5590FB679
:1011B000F894DEBF0FBECDBF0F900F900F900F9031
:1011C000DF91CF911F910F910895CF93DF93EC01A1
:1011D00080910E12882341F088E59AE09F938F93C7
:1011E0000E94A5590F900F902097A1F58CE30E94C3
:1011F0002C18882321F00E94771880E034C080E00A
:101200000E947F188111F7CF80E70E947F1881111B
:10121000F2CF8CE30E9475188111EDCF81E00E941E
:101220007F188111E8CF80EE0E947F188111E3CFF3
:101230008CE30E9475188111DECF82E00E947F1836
:101240008111D9CF82E00E947F188111D4CF0E94F2
:10125000771802C0219719F481E080932A0D10922B
:10126000631680912A0DDF91CF9108958CE30E943F
:101270002C18882321F00E94771880E0089582E0DE
:101280000E947F188111F7CF0E947F188111F3CF40
:101290000E94771881E008950F931F93CF93DF93F7
:1012A000EC0180910E12882321F080E69AE00E94E2
:1012B000BD59C230D10509F4DEC0C330D10509F4EF
:1012C00014C2219709F08DC2E0918A16F0918B1615
:1012D0000190F081E02D81E48083E0918A16F09105
:1012E0008B160190F081E02D80EF8183E0918A16CA
:1012F000F0918B160190F081E02D8AE5868BA6E6B1
:10130000B6E182E090E02C911296E0918A16F0917D
:101310008B160190F081E02DE80FF91F20830196D4
:101320008F30910581F7E0918A16F0918B16A0819C
:10133000B18180916D1690E0837099272091671696
:101340002295220F220F207C282B8091691690E095
:10135000837099278295807F282B80916B1690E06F
:1013600083709927880F880F282B1F962C93A081B4
:10137000B1818091751690E08370992720916F1646
:101380002295220F220F207C282B8091711690E04D
:10139000837099278295807F282B8091731690E027
:1013A00083709927880F880F282B50962C93A08143
:1013B000B18180917D1690E08370992720917716F6
:1013C0002295220F220F207C282B8091791690E005
:1013D000837099278295807F282B80917B1690E0DF
:1013E00083709927880F880F282B51962C93019092
:1013F000F081E02D80917F168295880F880F807C88
:10140000489902C098E001C090E0892B828B8091BE
:101410000E12882349F1C0E0D0E00BEC14E0E0911B
:101420008A16F0918B160190F081E02DEC0FFD1FD4
:1014300080811F928F931F930F930E94A559CE0115
:10144000877099270F900F900F900F90873021F49D
:101450008AE090E00E94B7592196C731D105F9F68C
:101460008AE090E00E94B75983E090E090931012D8
:1014700080930F12B6C1E0916116F091621601904F
:10148000F081E02D81E48083E0916116F091621695
:101490000190F081E02D81EF8183E0916116F09160
:1014A00062160190F081E02D8AE581A7A2E0B6E105
:1014B00082E090E02C911296E0916116F091621614
:1014C0000190F081E02DE80FF91F208301968E3006
:1014D000910581F7E0916116F0916216A081B181CA
:1014E0008091091690E08370992720910316229528
:1014F000220F220F207C282B8091051690E083700C
:1015000099278295807F282B8091071690E0837021
:101510009927880F880F282B1E962C93A081B181C4
:101520008091111690E08370992720910B162295D7
:10153000220F220F207C282B80910D1690E08370C3
:1015400099278295807F282B80910F1690E08370D9
:101550009927880F880F282B1F962C93A081B18183
:101560008091191690E08370992720911316229587
:10157000220F220F207C282B8091151690E083707B
:1015800099278295807F282B8091171690E0837091
:101590009927880F880F282B50962C93A081B18112
:1015A000809142163091431651968C93A081B1815F
:1015B000809144162091451652968C93A081B1815A
:1015C000809146169091471653968C93A081B181D5
:1015D000409148168091491654964C93A081B18150
:1015E00055963C93A081B18156962C93A081B181F0
:1015F00057969C93A081B18158968C93A081B1811C
:1016000080914A1620914B1659968C93A081B181F6
:1016100080914C1690914D165A968C93A081B18171
:1016200030914E1680914F165B963C93A081B1810C
:101630005C962C93A081B1815D969C93A081B18131
:101640005E968C93A081B1818091501620915116A5
:101650005F968C93A081B181809152169091531620
:1016600090968C93A081B18130915416809155163B
:1016700091963C93A081B18192962C93A081B181E7
:1016800093969C930190F081E02D84A380910E129B
:10169000882309F4A6C0C0E0D0E00BEC14E0E09190
:1016A0006116F09162160190F081E02DEC0FFD1FA4
:1016B00080811F928F931F930F930E94A559CE0193
:1016C000877099270F900F900F900F90873021F41B
:1016D0008AE090E00E94B7592196CA32D105F9F606
:1016E0008AE090E00E94B7597CC0E0915616F091D4
:1016F00057160190F081E02D81E48083E091561629
:10170000F09157160190F081E02D82EF8183E091F6
:101710005616F0915716A081B1818AE51E968C93DA
:10172000A081B1818091581612968C93A081B181CD
:101730008091591613968C93A081B18190915A167D
:1017400080915B1614969C93A081B18115968C9321
:10175000A081B18180915C1616968C93A081B18195
:1017600080915D1617968C93A081B18190915E1641
:1017700080915F1618969C93A081B18119968C93E5
:101780000190F081E02D809169178F7082878091A0
:101790000E12882331F1C0E0D0E00BEC14E0E091B0
:1017A0005616F09157160190F081E02DEC0FFD1FB9
:1017B00080811F928F931F930F930E94A559CE0192
:1017C000877099270F900F900F900F90873021F41A
:1017D0008AE090E00E94B7592196CF30D105F9F602
:1017E0007FCF80910E12882341F089E89AE0DF9143
:1017F000CF911F910F910C94BD59DF91CF911F9103
:101800000F910895CF92DF92EF92FF920F931F9363
:10181000CF93DF93CDB7DEB72F970FB6F894DEBF27
:101820000FBECDBF8C01CE010C960E94F6196C85BF
:101830007D858E859F85C0901512D0901612E09000
:101840001712F09018126C197D098E099F09613DDD
:1018500027E072078105910508F478C020910E12E7
:101860002223B9F028EE33E040E050E00E94895690
:101870007F936F935F934F933F932F9380E99AE009
:101880009F938F930E94A5590FB6F894DEBF0FBEA9
:10189000CDBF8C859D85AE85BF85809315129093B5
:1018A0001612A0931712B093181282E089838EEB60
:1018B0009AE59B838A838091FF11909100129D830A
:1018C0008C8310926016E12CF12C80E005C00E9400
:1018D0006E4A9FEFE91AF90A811104C02FEFE21650
:1018E000F206A9F760E080E090E00E94211D02303E
:1018F000110589F003301105C9F00130110531F5EA
:10190000E0918A16F0918B1620813181EE24E394C8
:1019100000E047E115C0E0916116F0916216208168
:101920003181EE24E39400E04AE20AC0E0915616C9
:10193000F091571620813181EE24E39400E04FE0CE
:10194000BE016F5F7F4F82E00E94DD462F960FB68B
:10195000F894DEBF0FBECDBFDF91CF911F910F91E5
:10196000FF90EF90DF90CF90089580ED0E942C18AB
:10197000882321F00E94771880E008958EE30E946A
:101980007F188111F7CF81E00E947F188111F2CF7B
:101990000E94771881E00895BF92CF92DF92EF9274
:1019A000FF920F931F93CF93DF93182F062FB42E20
:1019B000842F90E00E94B157EC01009789F1812FAC
:1019C0000E942C18882329F00E947718C0E0D0E0EC
:1019D00027C0802F0E947F188111F6CF812F816050
:1019E0000E9475188111F0CF7E0100E010E0CB2C31
:1019F000D12C81E0C81AD1080FC00C151D051CF0B0
:101A00000E949A1802C00E949018F70180830F5F0D
:101A10001F4FFFEFEF1AFF0A0B1578F30E9477189C
:101A2000CE01DF91CF911F910F91FF90EF90DF904A
:101A3000CF90BF9008950F931F93CF93DF938C01A6
:101A400080910E12882321F08BEB9AE00E94BD5901
:101A50000115110509F045C080ED0E942C18813058
:101A600019F40E9477184DC08BE10E947F188130D5
:101A7000C1F381ED0E947518813099F31092360DF3
:101A800028C0833039F40E9490188093370D0E944B
:101A90009A1806C00E9490188093370D0E949018E3
:101AA0008093380D4091370DD42F50E0C52F2091F1
:101AB000360DE22FF0E0EE0FFF1FEE5BF94E809146
:101AC000380DAE01482BCA01918380832F5F20938C
:101AD000360D8091360D8430A0F281E08093390D6F
:101AE00048C00130110509F044C046E063E480EDD0
:101AF0000E94CC0CFC0190933B0D80933A0D009713
:101B000011F480E038C0908180E02181822B909395
:101B1000471680934616928180E02381822B909312
:101B2000451680934416948180E02581822B909302
:101B3000491680934816CF010E944C58C1E0C093CB
:101B4000390D42E061E480ED0E94CC0C90933B0D96
:101B500080933A0D0097A9F2FC01308120E0418189
:101B6000242B30934316209342160E944C58C09366
:101B7000390D8091390DDF91CF911F910F9108950B
:101B80000F931F93CF93DF938C0180910E128823C4
:101B900021F087ED9AE00E94BD590115110509F069
:101BA00046C08CE30E942C18882319F00E947718F5
:101BB0006EC083E00E947F188111F8CF8DE30E94F0
:101BC00075188111F3CF10922B0D2CC0823039F48F
:101BD0000E94901880932C0D0E949A1806C00E94B3
:101BE000901880932C0D0E94901880932D0D2091B9
:101BF0002C0DD22F30E0C32F80912D0D9E01282B6C
:101C0000C90190932F0D80932E0D20912B0DE22F63
:101C1000F0E0EE0FFF1FE65BF94E918380832F5FAC
:101C200020932B0D80912B0D833080F22AC0013040
:101C3000110551F546E064E088E10E94CC0CFC01FE
:101C40009093320D8093310D009709F1908180E0DF
:101C50002181822B90934B1680934A16928180E0CB
:101C60002381822B90934D1680934C16948180E0B3
:101C70002581822B90934F1680934E16CF010E94A0
:101C80004C5881E08093300D8091300D01C080E090
:101C9000DF91CF911F910F9108950F931F93CF93D1
:101CA000DF938C0180910E12882341F081EF9AE03E
:101CB0009F938F930E94A5590F900F9001151105C6
:101CC00009F046C086EA0E942C18882319F00E9469
:101CD00077186EC082E30E947F188111F8CF87EADF
:101CE0000E9475188111F3CF1092220D2CC0823002
:101CF00039F40E9490188093230D0E949A1806C010
:101D00000E9490188093230D0E9490188093240DB8
:101D10002091240DD22F30E0C32F8091230D9E01FE
:101D2000282BC9019093260D8093250D2091220D1B
:101D3000E22FF0E0EE0FFF1FE05BF94E918380830E
:101D40002F5F2093220D8091220D833080F22AC0D4
:101D50000130110551F546E06BE380ED0E94CC0C9B
:101D6000FC019093290D8093280D009709F1908133
:101D700080E02181822B909353168093521692819A
:101D800080E02381822B909351168093501694818A
:101D900080E02581822B9093551680935416CF01B5
:101DA0000E944C5881E08093270D8091270D01C03F
:101DB00080E0DF91CF911F910F910895CF92DF9234
:101DC000FF920F931F93CF93DF931F92CDB7DEB790
:101DD000142FF52E022F69830E942C18698181111E
:101DE0000FC0862F0E947F1881110AC0C12EDF2CE0
:101DF0000BC0F60181916F010E947F18882321F0AA
:101E00000E94771880E007C08C2D811B801788F313
:101E10000E94771881E00F90DF91CF911F910F9171
:101E2000FF90DF90CF900895CF93DF93EC018091E6
:101E30000E12882341F082E19BE09F938F930E94D2
:101E4000A5590F900F90209799F580ED0E942C18BE
:101E5000882319F00E94771843C085E10E947F18FB
:101E60008111F8CF82E30E947F188111F3CF80EDBA
:101E70000E9475188111EECF86E10E947F188111B2
:101E8000E9CF8CE10E947F188111E4CF80ED0E94A0
:101E900075188111DFCF8EE30E947F188111DACF90
:101EA00080E40E947F188111D5CF0E94771810C05E
:101EB000219789F44091340D5091350D88E1FA0154
:101EC000808321E06BE180ED0E94DE0E882341F0EB
:101ED00081E08093330D109265168091330D01C01F
:101EE00080E0DF91CF9108951F93CF93DF93EC01B2
:101EF00080910E12882341F08EE19BE09F938F9397
:101F00000E94A5590F900F90209721F586EA0E9414
:101F10002C18882319F00E9477182CC08CE20E949C
:101F20007F188111F8CF8BE00E947F188111F3CFC9
:101F300086EA0E9475188111EECF81E30E947F1816
:101F40008111E9CF89E00E947F188111E4CF0E94BE
:101F500077181BC02197E1F4C091200DD091210D7D
:101F600018E0188321E0AE0169E180ED0E94DE0EE9
:101F7000811102C080E010C0188321E0AE016CE145
:101F800080ED0E94DE0E8823A9F381E080931F0D6F
:101F90001092891680911F0DDF91CF911F910895A6
:101FA000CF93DF93EC0180910E12882361F0DF93D1
:101FB000CF938EE29BE09F938F930E94A5590F9041
:101FC0000F900F900F90C130D10591F020F1229722
:101FD00081F58FEF9FEF90934B1680934A16909365
:101FE0004D1680934C1690934F1680934E1621C039
:101FF0008FEF9FEF90934316809342169093451670
:1020000080934416909347168093461690934916F2
:10201000809348160EC08FEF9FEF909351168093D8
:1020200050169093531680935216909355168093A2
:102030005416DF91CF910895CF93DF93EC018091F7
:102040000E12882341F020E53BE03F932F930E943E
:10205000A5590F900F90CD2B71F40E945607811156
:1020600002C080E009C00E94B50C8823D1F3DF9143
:10207000CF910C94360981E0DF91CF910895992793
:102080008130910599F082309105E1F0892B29F595
:1020900080918F16909190160E94140F811102C0AA
:1020A0000C94771881E080936516089580918F16BF
:1020B000909190160E94E508882391F381E0809327
:1020C0006316089580918F16909190160E94740F58
:1020D000882331F381E080938916089580910E1250
:1020E000882341F081E69BE09F938F930E94A5593E
:1020F0000F900F9084B3887F84BB5E9883B3876012
:1021000083BB569A819880917E00826080937E0086
:1021100082E880937A0080910E12882321F08EEF5E
:1021200094E00C94BD5908950F931F93CF93DF93C0
:1021300080910E12882341F081E599E09F938F935F
:102140000E94A5590F900F9084B3887F84BB5E983E
:10215000CAE6D7E1FE0120E031E4283018F424BBC0
:102160005E9804C0822F877084BB5E9A30937C0097
:1021700080917A00806480937A0080917A0084FF55
:10218000FCCF80917A00806180937A008091780002
:1021900090917900819391932F5F2031F1F6809196
:1021A0000E128823D9F08CE79BE00E94BD590DECFC
:1021B00014E08881998122969F938F931F930F93A8
:1021C0000E94A5590F900F900F900F9087E1CA3889
:1021D000D80779F78AE090E00E94B75985E090E04F
:1021E0009093101280930F12DF91CF911F910F9156
:1021F0000895CF93DF93EC0180910E12882341F074
:1022000086E99BE09F938F930E94A5590F900F90B2
:10221000C130D10519F0229781F518C0A7E1B2E0CD
:10222000C6E6D6E1ED91F0E0EE0FFF1FE659F84E5D
:10223000808191818993999382E0A732B80791F7C1
:10224000809164168F5F8093641617C0A7E0B2E098
:10225000C2E0D6E1ED91F0E0EE0FFF1FE659F84E37
:10226000808191818993999382E0A731B80791F792
:10227000809188168F5F8093881680910E12882334
:1022800031F08EEF94E0DF91CF910C94BD59DF9146
:10229000CF910895CF93DF93EC0180910F1290912D
:1022A00010128330910508F4E1C087309105E1F107
:1022B00038F48330910561F0059709F0D2C028C049
:1022C0008B30910509F4AEC00D9709F0CAC0B5C0B6
:1022D000CE010197029760F41092011684E090E01D
:1022E0009093101280930F12CE010E949410B9C0E7
:1022F000C330D10509F0B5C08AE090E09093101288
:1023000080930F1260E074E080E00E94B407A9C0DF
:1023100086E090E09093101280930F12CE010E94FD
:10232000F91087E090E099C0C130D10529F0C230A2
:10233000D10509F096C009C08EE090E0909310128C
:1023400080930F1281E090E084C080918C168823E6
:1023500009F45AC080911D0D909105028917A8F0CB
:1023600088E090E09093101280930F1280918F1666
:10237000909190160E941B0D811104C081E090E0A5
:102380000E94D00F10921D0D03C08F5F80931D0D12
:1023900080911C0D909104028917A8F088E090E0CC
:1023A0009093101280930F1280918F169091901637
:1023B0000E94C00D811104C082E090E00E94D00F05
:1023C00010921C0D03C08F5F80931C0D80911E0D19
:1023D000909106028917A8F088E090E0909310127F
:1023E00080930F1280918F16909190160E944D0E3F
:1023F000811104C080E090E00E94D00F10921E0D69
:1024000003C08F5F80931E0D8EE090E090931012BA
:1024100080930F128091601681110E94260882E03D
:1024200090E017C08CE090E09093101280930F1210
:102430000E9407148DE090E010C08EE090E0909331
:10244000101280930F128091601681110E9426084D
:10245000CE010E944C0983E090E09093101280938B
:102460000F12CE01DF91CF910C94020CDF91CF912E
:102470000895CF93DF9380910E12882341F087EA6D
:102480009BE09F938F930E94A5590F900F90C0914E
:102490003C0DD0913D0D81E0888321E0AE016BE6DB
:1024A00080ED0E94DE0E882309F472C080910E1226
:1024B000882341F086EC9BE09F938F930E94A5595F
:1024C0000F900F908EE0888321E0AE016CE180EDEB
:1024D0000E94DE0E882309F45BC044E06DE080EDCD
:1024E0000E94CC0C90933F0D80933E0D009709F411
:1024F0004FC00E944C5880910E12882341F080EE0C
:102500009BE09F938F930E94A5590F900F9082E0BC
:10251000888321E0AE0167E380ED0E94DE0E882310
:10252000B9F1188221E0AE016AE088E10E94DE0E76
:10253000882371F180E4888321E0AE016CE088E1BA
:102540000E94DE0E882321F18FE0888321E0AE0116
:102550006AE088E10E94DE0E8823D1F084EF91E0EA
:102560000E942C1A46E063E088E10E94CC0C909314
:102570003F0D80933E0D009759F00E944C581882F1
:1025800021E0AE016CE088E1DF91CF910C94DE0E8A
:1025900080E0DF91CF910895CF93DF93EC0180919C
:1025A0000E12882361F0DF93CF9380E19CE09F932C
:1025B0008F930E94A5590F900F900F900F90E2E417
:1025C000F6E11192119286E1E635F807D1F70E9403
:1025D0002618209731F580918F16909190160E94C1
:1025E000740F811103C00E9477182DC080918F163F
:1025F000909190160E94140F8823A9F380918F1652
:10260000909190160E94E508882369F380910E123C
:10261000811101C004C08EEF94E00E94BD5981E099
:1026200026C02197E1F780910E12882341F080E3C4
:102630009CE09F938F930E94A5590F900F900E944A
:102640003912811102C080E012C081E090E00E9446
:10265000740F8823C1F381E090E00E94140F882357
:1026600091F381E090E0DF91CF910C94E508DF9148
:10267000CF91089580910E12882341F085E49CE06B
:102680009F938F930E94A5590F900F905098589840
:1026900080910E12882321F08EEF94E00C94BD59A6
:1026A000089528988EE18EBD0DB407FEFDCF289ABF
:1026B00080E090E008951092410D1092400D84301A
:1026C00099F030F4823061F068F48130A9F506C0E9
:1026D000863071F058F0873079F50CC082EA0BC073
:1026E00084EA09C086EA07C088EA05C08AEA03C00E
:1026F0008CEA01C08EEA8093420D28988091420DA9
:102700008EBD0DB407FEFDCF1EBC0DB407FEFDCF80
:102710002EB5922F80E09093410D8093400D1EBC0A
:102720000DB407FEFDCF2EB5822B9093410D809303
:10273000400D289A9C0102C02FEF3FEFC901089578
:102740002898611594E07907E9F040F4611591E06B
:10275000790761F06115724039F50EC0611598E096
:102760007907B1F061157041F9F418C0811102C008
:1027700080E419C080E517C0811102C082E413C053
:1027800082E511C0811102C084E40DC084E50BC054
:10279000811102C086E407C086E505C0811102C030
:1027A00088E401C088E58EBD0DB407FEFDCF289AF0
:1027B00008950F931F9328981EBC0DB407FEFDCFFC
:1027C0001EBC0DB407FEFDCF0EB510E020E030E0DA
:1027D0009801112700271EBC0DB407FEFDCF8EB552
:1027E00090E0A0E0B0E0BA2FA92F982F88271EBC58
:1027F0000DB407FEFDCF4EB5042B289A082B192BDC
:102800002A2B3B2BB801C9011F910F9108952F92DC
:102810003F924F925F926F927F928F929F92AF9270
:10282000BF92CF92DF92EF92FF920F931F93CF93BD
:10283000DF93CDB7DEB76C970FB6F894DEBF0FBE4F
:10284000CDBF80910E12882309F447C08091911763
:102850008F93809190178F9380918F178F93809192
:102860008E178F9380918D178F9380918C178F93F4
:1028700080918B178F9380918A178F9380919F17E8
:102880008F9380919E178F9380919D178F93809146
:102890009C178F9380919B178F9380919A178F939A
:1028A000809199178F93809198178F9380919717A4
:1028B0008F93809196178F93809195178F93809126
:1028C00094178F938FE59CE09F938F930E94A55957
:1028D0000FB6F894DEBF0FBECDBF80919C179091CC
:1028E0009D179C0140E050E060E070E080E090E0E7
:1028F00008E00E94025749015A0140908E175090FB
:102900008F176090901770909117481859086A08AF
:102910007B0840924B0D50924C0D60924D0D709281
:102920004E0D53014201BB0C8808982C540189823A
:102930009A82AB82BC8280919E1790919F174C0126
:10294000A12CB12CC12CD12C76018B8B9C8AAD8A09
:10295000BE8ACF8AD88EE98EFA8E52016301E98051
:10296000FE2C0E2D1E2D9C0140E050E060E070E03A
:1029700080E090E00E94AB5607E10E9411574901A8
:102980005A01950184010053184F2F4F3F4F0D837B
:102990001E832F83388700935C1610935D16209357
:1029A0005E1630935F1680919617909197179C0151
:1029B00040E050E060E070E080E090E000E10E94E4
:1029C00002572C873B87942E852E362E272E8987FB
:1029D0009A8740919A1750919B1752016301E980A1
:1029E000FE2C0E2D1E2D9A0140E050E060E070E0BC
:1029F00080E090E00E94AB5607E00E941157590119
:102A00006A017B018C012C853B85492D582D632D56
:102A1000722D89859A850E94205729873A874B878E
:102A20005C871B018B8F9C8F20935F0D3093600D13
:102A30004093610D5093620D6093630D3092640D6D
:102A40008093650D9093660D8091941790919517E2
:102A50009C0140E050E060E070E080E090E00FE03A
:102A60000E940257922E832E4D875E876F87788B48
:102A7000898B9A8B40919817509199175201630155
:102A8000E980FE2C0E2D1E2D9A0140E050E060E002
:102A900070E080E090E00E94AB5608E00E94115781
:102AA00059016A017B018C012093570DB092580D9A
:102AB0004093590DD0925A0D60935B0DF0925C0DCE
:102AC00080935D0D10935E0D292D382D4D855E850B
:102AD0006F85788989899A890E9420578C01209373
:102AE000670D3093680D4093690D50936A0D6093A4
:102AF0006B0D70936C0D80936D0D10936E0D809126
:102B00008A1790918B17A0918C17B0918D174C015B
:102B10005D01C12CD12C76018B8B9C8AAD8ABE8A3B
:102B2000CF8AD88EE98EFA8E59016A017B01940111
:102B30004D895E8960E070E080E090E00E94AB56D5
:102B400005E10E9411572093430D3093440D4093AB
:102B5000450D5093460D6093470D7093480D80933B
:102B6000490D90934A0DA984BA84CB84DC84710109
:102B70000B8D1C8D0E94355720934F0D3093500DB7
:102B80004093510D5093520D6093530D7093540D1B
:102B90008093550D9093560D0FE00E941157C90177
:102BA000209358169093591640935A1650935B16DB
:102BB00020910E122223B9F05F934F939F938F932E
:102BC00098849F92AF80AF92BE80BF92CD80CF920B
:102BD00087EF9CE09F938F930E94A5590FB6F894BE
:102BE000DEBF0FBECDBF6C960FB6F894DEBF0FBE32
:102BF000CDBFDF91CF911F910F91FF90EF90DF90AC
:102C0000CF90BF90AF909F908F907F906F905F908C
:102C10004F903F902F9008950F931F938B019C012D
:102C2000775F824C9F4F42E0660F771F881F991F86
:102C30004A95D1F7A9019801E3E0220F331F441F01
:102C4000551FEA95D1F70E948956215031093093DA
:102C5000C5002093C40082E08093C00086E080938A
:102C6000C20088ED8093C1001F910F9108952091BB
:102C7000C1002F7B2093C1003091B6174091B71748
:102C8000232F431710F0275F01C02150241B621728
:102C900008F4262FFC01822F11C09091B7174191A3
:102CA000A92FB0E0AE55B84E4C93993019F410925C
:102CB000B71703C09F5F9093B71781508111EDCF75
:102CC0008091BA1781110AC0E32FF0E0EE55F84E5B
:102CD00080818093C60081E08093BA178091C10003
:102CE00080648093C100822F0895DC018091BB171E
:102CF0008823B9F19091C1009F779093C1008A30E9
:102D000050F08091B9178093B8178AE08093BB1771
:102D10006A3028F405C0861718F4682F01C06AE0ED
:102D2000962F16C0E091B817F0E0EE55F84E828568
:102D30008D938091B8178F5F8093B8172091BB1740
:102D400021502093BB1791508A3011F41092B8177C
:102D50009111E8CF8091C10080688093C100862FD7
:102D6000089580E008951F920F920FB60F921124DC
:102D70000BB60F928F939F93EF93FF938091B917A8
:102D80009091BB179F5F9093BB179091C600E82F5F
:102D9000F0E0EE55F84E9287893019F41092B91789
:102DA00003C08F5F8093B917FF91EF919F918F912F
:102DB0000F900BBE0F900FBE0F901F9018951F9293
:102DC0000F920FB60F9211240BB60F928F93EF93C1
:102DD000FF938091B617893019F41092B61703C08B
:102DE0008F5F8093B617E091B6178091B717E817F9
:102DF00039F0F0E0EE55F84E80818093C60002C0B5
:102E00001092BA17FF91EF918F910F900BBE0F9018
:102E10000FBE0F901F901895811108C060E074E8F4
:102E200083E090E00E940C1680E0089585E8089504
:102E30009B01811104C0642FC9010C94371680E0F6
:102E400008959B01811104C0642FC9010C9475166B
:102E500080E008959093700D80936F0D0895909386
:102E6000720D8093710D08959093740D8093730D7E
:102E700008959093760D8093750D08951F920F928B
:102E80000FB60F9211240BB60F922F933F934F93CF
:102E90005F936F937F938F939F93AF93BF93EF93C2
:102EA000FF93E0916F0DF091700D0995FF91EF91F7
:102EB000BF91AF919F918F917F916F915F914F9152
:102EC0003F912F910F900BBE0F900FBE0F901F9050
:102ED00018951F920F920FB60F9211240BB60F92F6
:102EE0002F933F934F935F936F937F938F939F9312
:102EF000AF93BF93EF93FF93E091710DF091720D3B
:102F00000995FF91EF91BF91AF919F918F917F9123
:102F10006F915F914F913F912F910F900BBE0F904A
:102F20000FBE0F901F9018951F920F920FB60F9221
:102F300011240BB60F922F933F934F935F936F9390
:102F40007F938F939F93AF93BF93EF93FF93E09102
:102F5000730DF091740D0995FF91EF91BF91AF91B1
:102F60009F918F917F916F915F914F913F912F91A1
:102F70000F900BBE0F900FBE0F901F9018951F92D1
:102F80000F920FB60F9211240F900FBE0F901F904B
:102F900018951F920F920FB60F9211240BB60F9235
:102FA0002F933F934F935F936F937F938F939F9351
:102FB000AF93BF93EF93FF93E091750DF091760D72
:102FC0000995FF91EF91BF91AF919F918F917F9163
:102FD0006F915F914F913F912F910F900BBE0F908A
:102FE0000FBE0F901F9018951F920F920FB60F9261
:102FF00011240F900FBE0F901F9018951F920F92E3
:103000000FB60F9211240F900FBE0F901F901895BE
:103010001F920F920FB60F9211240F900FBE0F90B8
:103020001F9018951F920F920FB60F9211240F90B8
:103030000FBE0F901F9018951F920F920FB60F9210
:1030400011240F900FBE0F901F9018951092B90089
:1030500088E48093B800089594EA9093BC0090911E
:10306000BC0097FFFCCF9091B900987F983021F079
:10307000903111F081E008958093BB0084E8809343
:10308000BC008091BC0087FFFCCF8091B900887F95
:10309000883111F0803471F780E0089524EA34E833
:1030A00044E92093BC009091BC0097FFFCCF909125
:1030B000B900987F983011F0903199F78093BB0058
:1030C0003093BC009091BC0097FFFCCF9091B90069
:1030D000987F903211F0983539F44093BC0090916C
:1030E000BC0094FDFCCFDDCF08950C942C1884E92E
:1030F0008093BC008091BC0084FDFCCF0895809338
:10310000BB0084E88093BC008091BC0087FFFCCFAB
:103110009091B900987F81E0983209F480E0089599
:1031200084EC8093BC008091BC0087FFFCCF809131
:10313000BB00089584E88093BC008091BC0087FFA9
:10314000FCCF8091BB00089584B714BEA89588E198
:103150000FB6F89480936000109260000FBE0E943A
:1031600019190E94C4190E94381D80E008950C941A
:10317000A31CEF92FF920F931F93CF93DF938111C4
:1031800019C0CA01860F971F81309041A8F48901A8
:10319000040F151FE9017B01E21AF30A06C0CE01F4
:1031A0008E0D9F1D0E94F15B8993C017D107B9F75F
:1031B00080E003C088EE01C085E8DF91CF911F91C8
:1031C0000F91FF90EF900895EF92FF920F931F934E
:1031D000CF93DF93EC017B01E80EF91E81E0E81646
:1031E00080E1F80698F48A010CC0CE010E94F15BE0
:1031F000F80161918F01861719F0CE010E94F95BE9
:103200002196CE15DF0589F780E001C085E8DF91C2
:10321000CF911F910F91FF90EF90089514BA8FEF07
:1032200083BB8FEF9FEF0E942C1A84B3809584BBE1
:10323000F8CF8FB7F894E0E0F0E099E09093570072
:10324000E4918FBFEF70E23011F48FE001C080E0B5
:1032500090E020E80FB6F89420936100809361001D
:103260000FBE80E180933501809334018093330158
:103270008093320108950F931F93E091790D89E0B7
:10328000E89FF0011124E454F84E80819181A281DD
:10329000B38120917A0D222309F465C0B093F80020
:1032A000A093F7009093F6008093F5002091DF0043
:1032B00020FD08C021E02093E0002091DF00216084
:1032C0002093DF00F091E100E091E2003091E30013
:1032D0002091E4004F2F5E2F632F722F4F5F5F4FBF
:1032E0006F4F7F4F8A019B01082719272A273B2709
:1032F000002711272227387F012B022B032B31F4C3
:1033000084179507A607B707A0F137C08C019D0168
:1033100037707770401751076207730750F12DC05F
:1033200040917B0D50917C0D60917D0D70917E0DD3
:103330004F5F5F4F6F4F7F4F481759076A077B07F3
:1033400001F5F091E100E091E2003091E30020917D
:10335000E4008F2F9E2FA32FB22F84179507A60767
:10336000B70779F706C08091DF008E7F8093DF007A
:1033700008C081E08093161804C020915D012830B8
:1033800078F21F910F91089510927A0D10921618ED
:103390008FEF8093790D8093770D8093780DE4EC17
:1033A000F7E19FEF8FEF9083DF0114971D921C923E
:1033B000399628E1EE31F207A9F790E29093B60032
:1033C00098EA9093DC009FE09093F4008093F300E0
:1033D0008093F2008093F10082E08093E00080917E
:1033E000DF0082608093DF00089508952091DE0061
:1033F00020FDFCCFF091E100E091E2003091E3008C
:103400002091E4004F2F5E2F632F722F24E0440F92
:10341000551F661F771F2A95D1F7FC014083518302
:10342000628373830895F091E900E091EA0030919E
:10343000EB002091EC004F2F5E2F632F722F34E0B2
:10344000440F551F661F771F3A95D1F7FC01408343
:1034500051836283738308958436910520F44FB7B6
:10346000F89451E01CC040E050E019C097FF03C041
:103470002FEF3FE701C09C01821B930B220F331FEC
:1034800031952195310930932501209324016ABBA0
:1034900070932101D09BFECF1092210102C061E008
:1034A00072E0009719F751114FBF089599E0899F75
:1034B000F0011124E454F84E81E024813581232B5E
:1034C00009F480E00895CF93CFB7F894809116184F
:1034D0008823D1F11092161890917A0D9923A1F1B9
:1034E0002091770D8091790D2F3F49F42091780D2F
:1034F0002F3F29F48093780D8093770D0BC0E091D6
:10350000780D29E0E29FF0011124E454F84E808701
:103510008093780DA091790D89E08A9FD0011124C4
:10352000A454B84E18962C912093790DE091780D03
:103530008E9FF0011124E454F84E8FEF8087915054
:1035400090937A0D0E943B19CFBFCF9108950F93AE
:103550001F93CF93DF93082F8A3008F092C01FB7D4
:10356000F8940E94631A80917A0D882309F48DC023
:103570004091790D542F942F39E001C0922F0913F7
:1035800032C0202F30E004130FC089E0829FD001A9
:10359000839FB00D1124A454B84E18968C9180933B
:1035A000790D0E943B1910C0A9E0A29FE001A39FE2
:1035B000D00D1124C454D84E8885A59FD001112464
:1035C000A454B84E18968C9389E0089FD00111241A
:1035D000A454B84E8FEF18968C9380917A0D815039
:1035E00080937A0D58C0399FD0011124A454B84E4D
:1035F00018962C918150592F09F0C0CF46C008135E
:1036000030C0202F30E0091315C08091780D0813C9
:1036100004C08FEF8093780D0AC089E0829FD001AB
:10362000839FB00D1124A454B84E18968C918093AA
:10363000770D31C0A9E0A29FE001A39FD00D112416
:10364000C454D84E8885A49FD0011124A454B84EE8
:1036500018968C938091780D08131DC04093780DB7
:103660001AC0289FD0011124A454B84E482F189690
:103670008C918F3F21F680E01FBF882321F080E0EE
:1036800014C08AE812C089E810C09091770D492FC4
:10369000892F29E0EECF89E0089FF0011124E4543E
:1036A000F84E1582148281E0E7CFDF91CF911F9110
:1036B0000F9108952F923F924F925F926F927F9257
:1036C0008F929F92AF92BF92CF92DF92EF92FF9232
:1036D0000F931F93CF93DF93CDB7DEB727970FB626
:1036E000F894DEBF0FBECDBF17018A3008F0EFC0DF
:1036F0000115110509F4EFC0482E512C5F824E824E
:1037000039E0839FF0011124E454F84E0480F581E0
:10371000E02DEF2B09F0DDC06A017B01A4E0F694F7
:10372000E794D794C794AA95D1F7222321F02130AA
:1037300009F0D1C020C0B701A60148505109610964
:103740007109483F5F4F6F4F774010F08BE8E2C040
:10375000E091E1003091E2002091E3009091E400DB
:103760004E2F532F622F792FC40ED51EE61EF71E43
:10377000EFE0FE221EC0E091E1003091E2002091D6
:10378000E3009091E4004E2F532F622F792F2601F2
:103790003701441A550A660A770AB301A2017F70FD
:1037A0004850510961097109483F5F4F6F4F774099
:1037B00068F6BFB6F8948D830E94631AA091790DC4
:1037C0008D81AF3F79F080907A0DBA2F9A2FA12C7E
:1037D000F9E09F2EA7019601577029833A834B8306
:1037E0005C8356C08093790D89E04E815F81849F10
:1037F000F001859FF00D1124E454F84EA0874BC0D2
:103800009F3F09F444C0292F30E0929EF001939E1F
:10381000F00D1124E454F84E40815181628173818E
:10382000260137014426552666267726442455244A
:103830006624E8EF7E22452846284728A1F44C1547
:103840005D056E057F0508F448C029E04E805F8065
:10385000249DF001259DF00D1124E454F84E90872D
:10386000A9130FC00BC0777049805A806B807C8091
:10387000441655066606770680F1E7CF8093790DEA
:103880000AC02B9FF0011124E454F84E41C0A394C8
:10389000A810B6CF2CC089E06E807F80869DF00195
:1038A000879DF00D1124E454F84EC082D182E2824B
:1038B000F382158304833782268280917A0D8F5F8D
:1038C00080937A0D0E943B19BFBE80E023C08AE836
:1038D00021C088E81FC088EE1DC0929EF001939E13
:1038E000F00D1124E454F84EB92F9085D0CF99E013
:1038F0009B9FF0011124E454F84E80878E809F80B6
:10390000989DF001999DF00D1124E454F84E8FEF2D
:103910008087C1CF27960FB6F894DEBF0FBECDBF0C
:10392000DF91CF911F910F91FF90EF90DF90CF909B
:10393000BF90AF909F908F907F906F905F904F90CF
:103940003F902F900895CF93DF930E94631AC9E0B0
:10395000DFEF29C03FB7F894A091770DCA9FD0013F
:103960001124A454B84E18962C9118971496ED91E2
:10397000FC91159716968D919C9117971896DC934C
:10398000189715961C921E92149717961C921E92C9
:1039900016972093770D2F3F11F42093780D3FBF9A
:1039A000309709F009958091770D8F3F99F6DF9157
:1039B000CF9108951F920F920FB60F9211242F935B
:1039C0003F938F939F933091E1002091E20090917B
:1039D000E3008091E40030937B0D20937C0D909365
:1039E0007D0D80937E0D80917A0D882319F081E002
:1039F000809316189F918F913F912F910F900FBE3A
:103A00000F901F9018951F920F920FB60F921124CE
:103A10008F938FEF8093E4008093E3008093E20024
:103A20008093E1008F910F900FBE0F901F9018951B
:103A300081E00895A09A989AA09A989AA09A989A44
:103A40000895613021F028F0623049F404C0A09854
:103A50000895A09A089584B391E0892784BB0895BE
:103A6000759A6D9808958CB185FB882780F9089523
:103A7000089590E29CBBED9A93B7917F982B93BFEA
:103A800083B7816083BF889583B78E7F83BF089596
:103A90001F920F920FB60F921124ED980F900FBE48
:103AA0000F901F901895EF92FF920F931F93CF9353
:103AB000DF938FE79DE00E94011E94E8E92E9DE0D0
:103AC000F92E0AEB11E1C0E0D0E0F801F182E082CA
:103AD000BE01660F771F660F771F66547E4E8FE715
:103AE0009DE00E94081E2196FAE9EF0EF11C0C5F82
:103AF0001F4FC730D10549F7DF91CF911F910F912B
:103B0000FF90EF90089560E070E08FE79DE00C94E7
:103B1000231E009729F0BC018FE79DE00C94081E3E
:103B200008959F92AF92BF92CF92DF92EF92FF9251
:103B30000F931F93CF93DF938C015B016A019FB6B4
:103B4000F894DC0114968C91811103C0C0E0D0E0A0
:103B50004AC0F801C081D18141155105B1F07E0103
:103B600011C0D60112966D917C911397ED91FC9145
:103B700088819981099581110BC09A818B817E0181
:103B8000C92FD82F209769F7E1CF2097F9F27E014E
:103B9000AB2849F5F801208131818A819B81C217C8
:103BA000D30719F49183808305C0D70113969C93A2
:103BB0008E931297F80182819381C817D90711F467
:103BC000F382E282D80114968C9114978150149656
:103BD0008C9314978D919C911197892B21F41396B6
:103BE0001C921E9212979FBECE01DF91CF911F9122
:103BF0000F91FF90EF90DF90CF90BF90AF909F908C
:103C00000895FC0111821082138212821482089599
:103C1000FC019FB7F8948481811103C07183608394
:103C200006C0A281B38113967C936E93129773831F
:103C30006283DB0113961C921E92129784818F5F20
:103C400084839FBF0895AB0160E070E00C94911DE8
:103C5000AB0161E070E00C94911DCF93DF93EC0118
:103C60000BC060E070E0CE010E94231E009711F4AB
:103C70001C8205C00E94891D8C818111F2CFDF91C9
:103C8000CF910895CF93809141018F71883089F44D
:103C900081E080934F0189E080934201C3E08091ED
:103CA0004F0180FD06C08EE690E00E942C1AC150A4
:103CB000B1F7CF910895DF92EF92FF920F931F9388
:103CC000CF93DF93CDB7DEB728970FB6F894DEBF5A
:103CD0000FBECDBFF82E809140188F3009F04BC039
:103CE000809139018D7F809339018E010B5F1F4FC9
:103CF000C8010E94F619D02EE12E209141012F71AA
:103D0000283021F1CE0101960E94F61949815A818D
:103D10006B817C810D811E812F813885401B510B69
:103D2000620B730B493E53406105710530F32091DE
:103D300039012260209339018D2D9E2D0E94F619A4
:103D4000209139012D7F20933901D7CF8FEF8093B8
:103D50004F018CE480934E0180914D0184608093EB
:103D60004D0188E0F81619F083E0F81204C088E0ED
:103D70008093401803C188E0F81609F458C08F15E5
:103D800060F084E0F81609F468C086E0F81609F4DB
:103D900071C083E0F812EBC04AC08FE0F81671F0F2
:103DA0008F1520F089E0F812E2C047C086E1F816CE
:103DB00009F470C089E1F812DAC099C083E08093F9
:103DC000420180914D018B7F80934D010E943B59B0
:103DD00080936D0180916E01292F30E02770332789
:103DE000887F822B80936E018FEF80934F0180E854
:103DF00080934E0100000000000000000000000061
:103E000000000000000000000000000000000000B2
:103E1000000000008091390182608093390183E2C3
:103E200090E00E942C1AF09240188FE0A7C0809179
:103E30004018883009F49BC088C0809140188830B1
:103E400099F020F4863009F092C005C0863119F04F
:103E5000893109F08CC089E073C0809140188830A6
:103E600019F0893021F483C00E94421E80C0F09274
:103E700042017DC080914018893051F020F4883093
:103E800009F075C060C0863119F0893109F06FC042
:103E900086E056C080914018883009F454C020F460
:103EA000863009F064C007C0893019F0893109F003
:103EB0005EC086E145C089E08093420100000000B9
:103EC00000000000000000000000000000000000F2
:103ED000000000000000000000000000809141018F
:103EE0008F7180934018893009F048C02EC08091AE
:103EF0004018883041F120F4863009F038C005C000
:103F0000893019F1863109F032C089E0809342018D
:103F100000000000000000000000000000000000A1
:103F20000000000000000000000000000000000091
:103F3000809141018F71809340188930F9F489E1B3
:103F40008093420104C00E94421EF0924201000090
:103F50000000000000000000000000000000000061
:103F60000000000000000000000000000000809140
:103F700041018F71809340188F31C9F328960FB695
:103F8000F894DEBF0FBECDBFDF91CF911F910F918F
:103F9000FF90EF90DF900895809117188823E1F04B
:103FA00080914418811118C08091D6119091D71139
:103FB000892B39F48AE90E94831D9093D71180934D
:103FC000D6118091D6119091D711892B29F010929A
:103FD000171886E10E945B1E80911C18882351F0FF
:103FE00060E070E088E198E10E94231E009711F0E4
:103FF0000E94772080914418823019F0853029F48E
:1040000002C00C94AE200C9428220895CF92DF9227
:10401000EF92FF920F931F93CF93DF93E091D6110E
:10402000F091D711309709F459C000811181C090E7
:104030004701D0907B01D7FC51C08D2D8E5FCAE91E
:10404000D0E0C81BD109C00FD11FED2CF12CC70146
:104050000196AC0160E871E0CE010E944A59DA9203
:10406000F801D487C387CE0DDF1DCA8280914C0131
:104070008F7780934C0182E090E00E942C1A80910F
:104080004C01806880934C0183E880935C018091AF
:104090001F1890912018A0912118B0912218F801B2
:1040A00087839087A187B2876091D6117091D711CD
:1040B00088E198E10E94081E8AE90E94831D90937E
:1040C000D7118093D611892B31F489E00E945B1EB1
:1040D00081E08093171880E480934F01DF91CF91A6
:1040E0001F910F91FF90EF90DF90CF900895CF93A5
:1040F000DF939C01FC01C081D181AB85BC85EC9133
:10410000E0934118F0E03196EA0FFB1F4081618196
:104110006D3318F4662319F003C06CE301C061E04D
:1041200042954695469543708FEF489FA001112414
:10413000649FC001659F900D112464EB70E00E94A4
:1041400061566F3F710511F008F06FEF60833A839D
:104150002983CE01DF91CF910C94BB2F109244188C
:10416000E0914218F0914318208130E0275F3F4FE3
:1041700085E0220F331F8A95E1F7E0911D18F09139
:104180001E18A385B48511968C9185FF02C0205E10
:104190003D4F87819085A185B285821B930BA10934
:1041A000B10987839087A187B287A091D811A830E1
:1041B00028F4B0E0AD5CBD4F8C9101C085E8BF0133
:1041C0000C946E3FCF93DF93EC01662381F0209136
:1041D0006C0180913F1830E1839FC00111242F7042
:1041E000282B20936C01C230D105F0F409C08091D6
:1041F0006C018F7080936C01C230D105A8F410C09F
:1042000080916C012091371830E0220F331F2E70FF
:104210003327817F822B80936C0110926F011CC029
:1042200080916C018E6016C080913E1820E1829FC3
:10423000C001112490913818982B90936F018091B0
:104240006C012091371830E0220F331F2E70332776
:10425000817F822B80936C0183E880935C0189E1EC
:104260000E945B1E8931D9F7219751F48091411842
:10427000833118F080E492E005C080E890E002C04D
:1042800089E090E00E942C1ACFB7F8948091390110
:10429000826080933901809139018D7F809339014B
:1042A000E0914218F0914318808190E00197AC01B1
:1042B000BF0180E891E00E944A5981E08093441850
:1042C000CFBFDF91CF910895FC01CB01209144181D
:1042D000211111C0F0931E18E0931D182385348519
:1042E0003093431820934218232B39F0642F0E94F7
:1042F000E22080E0089586E8089588EE0895CF933F
:10430000C0914418C13009F580911D1890911E1874
:1043100007960E94131A80914201829586958770B4
:104320008093D81182E0809344188091D6119091A7
:10433000D711892B31F489E00E945B1EC0931718B6
:1043400004C086E1CF910C945B1ECF9108958091BB
:1043500047019091D911981710F48093D911809149
:10436000DA119091DB11A091DC11B091DD11019770
:10437000A109B1098093DA119093DB11A093DC11AC
:10438000B093DD11892B8A2B8B2B21F08FEF80933B
:104390004701089585E0809344180895CF93DF93F3
:1043A000D82F80914418882339F0809140188F309D
:1043B00009F04AC081E849C084E00E945B1E9091E8
:1043C0005501906890935501C0E1C0934F0187EA71
:1043D00091E20E943417C0934E0186E00E945B1E5A
:1043E000863051F0809155018F77809355018CE490
:1043F00080934E0185E829C084E080934418109290
:10440000D91140EC53E060E070E004C0440F551F48
:10441000661F771FDA95D2F740545C4F6F4F7F4F7E
:1044200083E076956795579547958A95D1F74093A0
:10443000DA115093DB116093DC117093DD118FEF73
:104440008093470180E001C086E8DF91CF91089515
:10445000809155018F77809355018CE480934E01B4
:104460001092441886E10E945B1E8091D911883316
:1044700020F08FEF8093D9110AC02FEF829FC001E7
:10448000112467E370E00E9461566093D911809116
:10449000D9110C943344982F85FD02C09F7303C03B
:1044A00091959F719195E0E2F1E0E491E9170CF4A8
:1044B00005C0EFE2F1E0E4919E176CF4E03E44F0B9
:1044C000E03244F48E2FE7FF06C08F71806203C094
:1044D00080E201C08FE180680895982F85FD02C0B9
:1044E0009F7303C091959F71919520E030E0822FDA
:1044F000F901E05EFE4FE4919E1724F0E91744F4C1
:10450000815008952F5F3F4F2031310581F780E0C2
:10451000089584E08093371823E0209338188FEFB4
:104520009FEF9093321880933118909330188093B6
:104530002F188BE08093361810923B1880E098EF8C
:10454000AFEFB7E080932B1890932C18A0932D1801
:10455000B0932E188AE091E090933418809333182A
:104560008AE080933C1882E080933D1885E0809338
:104570003E1820933F1884E80E944B2280933A18FB
:1045800081E0809335181092391808958091311880
:10459000809362018091321880936301E4E6F1E038
:1045A000A3E2B8E18D918193EC3631E0F307D1F7C6
:1045B00080912F1880936001809130188093610161
:1045C000209148018091351830E2839FC001112469
:1045D000807699272F79282B2093480190916F019D
:1045E000809138188F70907F892B80936F01809114
:1045F0006E019091391890FB83F980936E012091A0
:104600006F0180913E1830E1839FC00111242F700B
:10461000282B20936F0190914801809136188F715B
:10462000907E892B8093480180913A180E946D22D8
:10463000909145018F70907F892B8093450183E88D
:1046400080935C010895CF93DF93EB019091441820
:10465000943009F4E7C08E3431F0893541F4888113
:1046600080933F18D6C0888180933718D2C020919C
:1046700040182F3009F4D2C08B3009F4C1C070F457
:10468000823009F47BC018F48823C9F1C9C0833093
:1046900009F483C0843009F0C3C05CC0833521F1C4
:1046A00030F48F3459F0803509F0BAC012C0873524
:1046B00009F456C0803F09F0B3C07FC08881809361
:1046C000381890916F018F70907F892B80936F01C4
:1046D000A0C098818981909331188093321890936B
:1046E00062018093630195C09881898190932F180E
:1046F0008093301890936001809361018AC091117A
:1047000091C080E098EFAFEFB7E0088004C0B695A5
:10471000A795979587950A94D2F780FF85C0283092
:1047200039F088E00E945B1E8830D9F726E101C08D
:1047300028E0888180933618909148018F71907E8F
:10474000892B80934801283009F463C086E10E94D8
:104750005B1E5FC0911166C08881811165C059C020
:10476000888180933E1820916F0130E1839FC001C2
:1047700011242F70282B20936F014BC088810E9439
:104780004B2280933A180E946D22909145018F70C0
:10479000907F892B809345013CC088818093351898
:1047A0002091480130E2839FC0011124807699272F
:1047B0002F79282B209348012CC0888180932318BF
:1047C0008981809324188A81809325188B81809316
:1047D00026188C81809327188D81809328188E81CC
:1047E000809329188F8180932A18E4E6F1E0A3E2F0
:1047F000B8E18D918193EC3681E0F807D1F709C0DB
:1048000098819093391880916E0190FB83F9809381
:104810006E0183E880935C0180E007C081E805C0F9
:1048200084EF03C086E801C088EEDF91CF91089540
:10483000CF93809139018D7F8093390180EF90E093
:104840000E942C1A809139018E7F8093390181E07A
:1048500090E00E942C1A8091390181608093390187
:10486000CBE084E690E00E942C1A809141018F7188
:10487000C15031F08830A9F78093401880E001C022
:1048800085E8CF910895CF93DF930E943B598093A1
:104890006D01CEE6D1E08881292F30E027703327E3
:1048A000887F822B888380E00E9497250E94B5250F
:1048B000888180628883ECE4F1E080818068808375
:1048C0008CE480934E01EDE4F1E080818C7F808365
:1048D000AAE4B1E08C91807F83608C9380818860B2
:1048E0008083808184608083DF91CF910895CF930E
:1048F000DF9386E00E945B1E8630D9F780915501D8
:104900008F778093550110924E0128E0C0E0D0E0EF
:1049100030914601CE01880F991F880F991F30767C
:10492000C32FD0E055E0D595C7955A95E1F7C82B30
:10493000D92B000000000000000000000000000073
:104940000000000000000000000000000000000067
:1049500000002150E9F683E00E945B1E8FEF8093F8
:104960004F018CE480934E01CE01DF91CF910C94E6
:104970003F59CF93C82F0E94182481112DC00E9447
:1049800077240E944324C1110E9489220E94C622DA
:1049900010924418109217180AC060E070E088E185
:1049A00098E10E94231E009711F00E94891D8091BA
:1049B0001C188111F2CF8C2F0E94644A88E08093EA
:1049C0004F0180E480934F0184E080934F0180E8A1
:1049D00080934F0180E001C085E8CF910895CF9387
:1049E000DF930E94A41881118AC0809139018160EF
:1049F00080933901809139018D7F809339018CE753
:104A000091E00E942C1A809139018E7F80933901A8
:104A100081E090E00E942C1A80913901816080939E
:104A20003901CBE084E690E00E942C1A809141018C
:104A30008F71C15009F463C08830A1F7809340188A
:104A400080915C01833809F05AC04BC00E947724E2
:104A50000E9443240E9489220E94C6221092441878
:104A60001092171809C0C3E2D8E10E943B598993FC
:104A700088E1CB32D807C9F7209123183091241848
:104A80004091251850912618609127187091281888
:104A90008091291890912A18AFEF0E942957ADEF05
:104AA0000E94475709F0F8F683E895E20E942F1715
:104AB0008BE895E20E942A1783E995E20E94391754
:104AC0000E94531D8AE90E94831D9093D711809301
:104AD000D61188E198E10E94011E0E945A4A80E0A6
:104AE0000FC023E238E148E050E060E070E080E091
:104AF0000E94B9180E941824811101C0A7CF85E82F
:104B0000DF91CF910895CF93CFB7F8940E940620FC
:104B1000CFBFCF910895CF93CFB7F8940E947F2154
:104B2000CFBFCF9108958FE198E10C94131A8111B2
:104B300016C0809140188F30A1F0809144188111E7
:104B400012C01092171888E00E945B1E8830D9F7B7
:104B50008FE00E945B1E8F3031F480E0089588EE74
:104B6000089581E8089586E80895809140188F306F
:104B700039F488E00E945B1E883021F480E00895BB
:104B800082E8089585E8089590914418911117C01E
:104B9000883031F40E945B1E1092171888E0089547
:104BA0008091D6119091D711892B21F086E10E9436
:104BB0005B1E03C081E08093171886E0089586E8A5
:104BC0000895DC01ED91FC9124E1208363835283FD
:104BD0004183BC0184EE98E10C94081E0F931F934F
:104BE000CF93DF9300D0CDB7DEB74FEF5FEF6BEE23
:104BF00080915D1890915E180E94E12510925418E2
:104C00000FEF1FEF1A830983BE016F5F7F4F80E5AF
:104C10000E94D03C10939E1800939D18E3E9F8E1A0
:104C200010821182128213821482158216821782D8
:104C30000E9478390F900F90DF91CF911F910F91C3
:104C40000895DF92EF92FF920F931F93CF93DF931C
:104C5000CDB7DEB72F970FB6F894DEBF0FBECDBF2E
:104C60007C01DC01ED91FC918FE0DE011196019059
:104C70000D928A95E1F7F0925E18E0925D188C81B2
:104C8000823019F48F8198851AC08F818093931890
:104C90008885809394188985809395188A85809358
:104CA00096188B85809397188C85809398188D859E
:104CB000809399188E8580939A188EEF9FEF90932A
:104CC0009E1880939D18BE016B5F7F4F80E50E9408
:104CD000D03C0E94A039F7010081118181E0D80108
:104CE0008C931296FC92EE921197F801EA56FF4FC0
:104CF0008083F801E956FF4F8F858083F801E257E2
:104D0000FF4F8091231880838091241881838091A4
:104D100025188283809126188383809127188483A5
:104D200080912818858380912918868380912A187C
:104D30008783F801E457FF4F8FEF9FEF91838083C4
:104D40008C81F801823061F4E657FF4F80919D1805
:104D500090919E189183808383E298EC45E11DC079
:104D6000EC57FF4F80919318808380919418818332
:104D700080919518828380919618838380919718EB
:104D80008483809198188583809199188683809177
:104D90009A18878383E29CEC4BE120913118309183
:104DA0003218DF0112972D933C932091A918DF014F
:104DB00013972C932F5F2093A918DF0115978D93DC
:104DC0009C9336974083D8011C96FC93EE931B97D7
:104DD000BE016D5F7F4F84E00E94D03CD82EBE01A3
:104DE0006E5F7F4F80E00E94D03CD1100EC08111D9
:104DF0000CC041E062E070E0C8010E9464218111B2
:104E000004C081E08093E21808C04FEF5FEF61EECD
:104E1000C7010E94E1250E9478392F960FB6F894B9
:104E2000DEBF0FBECDBFDF91CF911F910F91FF90DD
:104E3000EF90DF900895DC01ED91FC912091A31893
:104E4000211102C00C94891DB091C918A091CA18F3
:104E50007091CB186091CC185091CD184091CE181C
:104E60003091CF182091D018B183A28373836483CB
:104E700055834683378320872091D818218723E1E3
:104E80002083BC0184EE98E10C94081EEF92FF92FF
:104E90000F931F93CF93DF93FC01C081D181F980E1
:104EA0000A811B81BC81AD817E816F8158852985F6
:104EB0003A85EB844091E1184250423040F0DF9156
:104EC000CF911F910F91FF90EF900C94891D42E0BC
:104ED0004883FE01EC56FF4F4083FE01EB56FF4F27
:104EE00031832083FE01E956FF4FE082FE01E45743
:104EF000FF4F209123182083209124182183209193
:104F00002518228320912618238320912718248393
:104F100020912818258320912918268320912A186A
:104F20002783FE01EC57FF4FF08201831283B38386
:104F3000A483758366835783FE01EE57FF4F20914C
:104F4000311830913218318320832091A918FE0145
:104F5000EF57FF4F20832F5F2093A918FE01E158E0
:104F6000FF4F23E63CEC31832083FE01E258FF4FE4
:104F70002BE12083FC87EB871E82BC0186E498E14D
:104F80000E94081E80919B1890919C189D838C8391
:104F900081E00E94561A811108C0DF91CF911F91C4
:104FA0000F91FF90EF900C946E36DF91CF911F918F
:104FB0000F91FF90EF900895FF920F931F93CF935F
:104FC000DF9300D0CDB7DEB7F090DA180E94891DCC
:104FD000F11036C068ED78E183E50E94D03C409145
:104FE000D8185091D9188091C9188093931880913E
:104FF000CA18809394188091CB188093951880914B
:10500000CC18809396188091CD1880939718809132
:10501000CE18809398188091CF188093991880911A
:10502000D01880939A1881E08093E1181092541858
:1050300080915B18833031F582E080935B1822C049
:10504000109254180FEF1FEF1A830983BE016F5F90
:105050007F4F80E50E94D03C10939E1800939D18CE
:105060001092931810929418109295181092961806
:1050700010929718109298181092991810929A18E6
:105080004FEF5FEF6F2D80915D1890915E180E9439
:10509000E1250E9478390F900F90DF91CF911F91F9
:1050A0000F91FF900895EF92FF920F931F93CF936C
:1050B000DF93C091A118D091A21800E010E020E089
:1050C00030E040E061E080E00E94273081110FC0B5
:1050D0004FEF5FEF61EE80915D1890915E18DF9168
:1050E000CF911F910F91FF90EF900C94E125AE01AD
:1050F00060E070E084E0440F551F661F771F8A95BB
:10510000D1F7E12CF12C0EEE15E220E080E00E94B8
:105110005A1B882351F080E090E0DF91CF911F91DE
:105120000F91FF90EF900C94EE25DF91CF911F919E
:105130000F91FF90EF900895CF93FC012091B61846
:105140004091B718542F52955695569553704695E1
:105150004695437009F441C0808191819093BD18B8
:105160008093BC184230C9F41092BE181092BF1838
:105170001092C0181092C1181092C2181092C31841
:105180001092C4181092C518828193819093BF1811
:105190008093BE18349684E021C0433019F03296D3
:1051A00082E01CC0C281B381A48175816681378190
:1051B00090858185C093BE18B093BF18A093C01886
:1051C0007093C1186093C2183093C3189093C41899
:1051D0008093C5183A968AE001C080E0552309F40F
:1051E00047C026FD08C0219131913093C818209303
:1051F000C7188E5F08C02091BC183091BD1830933D
:10520000C8182093C7185230C1F41092C9181092D0
:10521000CA181092CB181092CC181092CD18109278
:10522000CE181092CF181092D0182081318130936F
:10523000CA182093C9188E5F1BC05330C9F4C081AF
:10524000B181A28173816481358126819781C09368
:10525000C918B093CA18A093CB187093CC18609358
:10526000CD183093CE182093CF189093D018885F24
:105270009091B9189550981B9093D7185093C618D1
:105280004093BB18CF9108952091E0112730E8F4A6
:10529000FC01A385B48512968C911297869586950C
:1052A0008370823091F4E091DE11F091DF1132973A
:1052B000F093DF11E093DE1116968D919C91179774
:1052C000918380832F5F2093E01180E008952091E7
:1052D000E0112730E8F4DC011B96ED91FC911C975E
:1052E0008281869586958370833091F4A091DE113A
:1052F000B091DF111897B093DF11A093DE113696AD
:1053000088E001900D928A95E1F72F5F2093E011DC
:1053100080E00895DF92EF92FF920F931F93CF9357
:10532000DF9300D000D01F92CDB7DEB7DB01ED9048
:10533000FC90F701728361838AE0808387010856BD
:105340001F4F4091A418442371F0041B1109242F0E
:10535000235F8FE598E150E0BC01C8012D830E94D6
:105360004A592D8101C02DE080914A18882309F403
:1053700041C01093DF110093DE111092E01187E617
:1053800099E29A838983BE016F5F7F4F86E498E13B
:105390002D830E94281ED090E0111092E01144E469
:1053A00059E25A834983BE016F5F7F4F86E498E1DB
:1053B0000E94281EE091E011A091DE11B091DF1152
:1053C00011978D2D90E0AC0194E0440F551F9A95F4
:1053D000E1F74E2B4C93F4E0DF9EE00D1124EE0F2D
:1053E000E093E0112D812E0FF0E0E095F095E00FB5
:1053F000F11F02C0F8011292DF0111971C928091F7
:10540000E118833019F08FEF9FE002C08FEF9FE427
:105410003091A31831119068DF0113978D939C93FD
:1054200080912F18909130188E3F3FEF9307E9F449
:105430003B972A5FA091231870912418609125183A
:1054400050912618409127183091281890912918CA
:1054500080912A18A08371836283538344833583A8
:105460009683878380E090EC05C035979183808395
:1054700080E090E84091311850913218DF01129786
:105480004D935C933091A518DF0113973C933F5FD8
:105490003093A518DF0115978D939C933697208341
:1054A000D7011C96FC93EE931B9740E062E070E0FE
:1054B000C7010E94642181E08093E2180F900F9051
:1054C0000F900F900F90DF91CF911F910F91FF9050
:1054D000EF90DF900895BC0180E00C948A298F92B0
:1054E0009F92AF92BF92CF92DF92EF920F93CF93A2
:1054F000DF93CDB7DEB766970FB6F894DEBF0FBE69
:10550000CDBF4C01DC01ED91FC9181818C878281C2
:1055100093819E878D87748165815681478130850F
:105520002185928583857F87688B598B4A8B3B8B3E
:105530002C8B9D8B8E8B84858983858596859B831B
:105540008A8387858C8380898D8381898E838289F4
:105550008F83838988878489898785898A878689D3
:105560008B87A18CB28CC38CD48C268D378DE08C2C
:105570000789458DBE016F5F7F4FCE010C960E945B
:10558000FF03C4010E94891D66960FB6F894DEBF22
:105590000FBECDBFDF91CF910F91EF90DF90CF90F5
:1055A000BF90AF909F908F900895CF93DF93EC01C1
:1055B000E881F9812381348145815681628181812D
:1055C0000E94AB02CE01DF91CF910C94891DCF9345
:1055D000DF93EC01E881F981628181810E94B34906
:1055E000CE01DF91CF910C94891DCF93DF93EC0115
:1055F000E881F9816381818192810E948402CE01D8
:10560000DF91CF910C94891D0F93CF93DF93EC0121
:10561000E881F981218132814381548165817681DC
:105620000185878190850E945E03CE01DF91CF9135
:105630000F910C94891DEF92FF920F93CF93DF93FC
:10564000EC01E881F981E38CF48C208D318DBF0170
:105650006E5F7F4F028D478981810E94B449CE01E0
:10566000DF91CF910F91FF90EF900C94891D0F93D4
:105670001F93CF93DF93CDB7DEB766970FB6F8943D
:10568000DEBF0FBECDBF8C01DC01ED91FC918181AD
:1056900092819E878D8723812C87B481A581768115
:1056A00067815085418532852385BF87A88B798B9B
:1056B0006A8B5B8B4C8B3D8B2E8B9B838A83848583
:1056C000898385858C8386858D8387858E83808974
:1056D0008F83818988878289898783898A8784895A
:1056E0008B874589BE016F5F7F4FCE010C960E946C
:1056F000AA02C8010E94891D66960FB6F894DEBF03
:105700000FBECDBFDF91CF911F910F9108950F93E1
:105710001F93CF93DF93CDB7DEB72B970FB6F894D7
:10572000DEBF0FBECDBF8C01DC01ED91FC9182810B
:105730008983838194819B838A8375816681578164
:10574000408531852285938584857C836D835E8346
:105750004F83388729879A878B87BE016F5F7F4F7A
:1057600081810E94B549C8010E94891D2B960FB600
:10577000F894DEBF0FBECDBFDF91CF911F910F9187
:1057800008950F93CF93DF93EC01E881F981218194
:10579000328143815481658176810185878190853D
:1057A0000E94B649CE01DF91CF910F910C94891DD3
:1057B000CF93DF93EC01E881F981AF014D5F5F4F3B
:1057C000628181810E94B749CE01DF91CF910C9413
:1057D000891DCF93DF93EC01E881F981218132812A
:1057E0004381548165817681878190850E94B84983
:1057F000CE01DF91CF910C94891DCF93DF93EC0103
:10580000E881F98181810E94B949CE01DF91CF9170
:105810000C94891DCF93DF93EC01E881F98181819C
:105820000E941401CE01DF91CF910C94891DCF937A
:10583000DF93EC01E881F98181810E94BA49CE01B0
:10584000DF91CF910C94891DCF92DF92EF920F934D
:105850001F93CF93DF93EC01E881F9816F0189E019
:10586000C80ED11C0481158126813781E0844381D3
:10587000628181810E947801CE01DF91CF911F91D9
:105880000F91EF90DF90CF900C94891DCF93DF9311
:10589000EC01E881F981628181810E94BE02CE0122
:1058A000DF91CF910C94891DCF93DF93EC01E881B8
:1058B000F98181810E942303CE01DF91CF910C9465
:1058C000891DDC01ED91FC91628173812581448108
:1058D00081810C94BB492091D8183091D91836FF9A
:1058E00017C02091C7183091C818811107C0809146
:1058F0003118909132182817390739F08091AD1876
:105900009091AE182817390719F48EEE0C94734550
:105910000895AF92BF92CF92DF92EF92FF920F93D2
:105920001F93CF93DF932091D8183091D91836FF69
:10593000DFC02091C7183091C818811107C080912D
:105940003118909132182817390741F08091AD181D
:105950009091AE182817390709F0CAC02091C918CC
:105960003091CA1880919D1890919E182817390778
:1059700009F4BEC02091C9183091CA184091CB18C3
:105980005091CC186091CD187091CE18A0909318BA
:10599000B0909418C0909518D0909618E0909718F1
:1059A000F09098180091991810919A188091CF183A
:1059B0009091D0180E943E5709F49AC08AE90E943B
:1059C000831DEC01009709F493C0E881F98185E01B
:1059D0008083D283C183DF01A956BF4F8C93DF013F
:1059E000A157BF4F809123188C9380912418119652
:1059F0008C9311978091251812968C931297809111
:105A0000261813968C9313978091271814968C93CD
:105A100014978091281815968C93159780912918C2
:105A200016968C93169780912A1817968C93DF01FF
:105A3000A957BF4F809193188C9380919418119619
:105A40008C9311978091951812968C931297809150
:105A5000961813968C9313978091971814968C939D
:105A600014978091981815968C9315978091991892
:105A700016968C93169780919A1817968C93DF013F
:105A8000AB57BF4F80913118909132188D939C93F2
:105A90008091A918DF01AC57BF4F8C938F5F809323
:105AA000A918DF01AE57BF4F83E69CEC8D939C9302
:105AB000DF01AF57BF4F88E18C93B487A38741E0E4
:105AC00062E070E0CF010E946421811104C081E096
:105AD0008093E2180DC0CE01DF91CF911F910F91FD
