S02B0000416C6C5F5365635F53746B3630305F41746D656761313238726661315F384D687A5F4763632F457849
S2840000000C94BA040C94FF1F0C942C200C9459200C9486200C94B3200C94E0200C940D210C943A210C94F2040C94F2040C94F2040C94F2040C941F1D0C94F2040C94681D0C94F2040C94F2040C94F2040C94F2040C94F2040C94F2040C94F2040C94F2040C9477270C943F1F0C94E31E0C94111F0C94F2040C9411270C9475210C94F204B2
S2840000800C94F2040C94F2040C94F2040C94F2040C94CD1F0C94711F0C949F1F0C94A4260C94F2040C94F2040C94641E0C94E9D80C94F2040C94F2040C94F2040C94F2040C94F2040C94F2040C94F2040C94F2040C94F2040C94F2040C94F2040C94F2040C94F2040C94F2040C94F2040C94F2040C9446D90C94F2040C94F2040C946ED93E
S2840001000C94F2040C94F2040C94F2040C94F2040C94F2040C94F2040C94F2040C94F2044D1208000000681201000100951208000200FD11040003001713010004000E13010005007812010006007912010007007A1201000800841211000900691202000A006F1201000B00191302000C00111301000D002F1301000E009F1201000F00D0
S284000180F21108001000FA1102001100A11201001200A21202001300AB12010014001D13080015006E1201001600DF09D8001700320F030018006A1116001900271308001A00350F14001B00880413001E00AE0404001F00B60402002000BA041C002100F204170022002005160023002A463B456F466F466F4641454B456F466F465445B2
S2840002005A4583458C456F4692459B45A6456F46AF45B5456F46BE45FB4510466F4601460A462A462A462A461C461C461C461C461C461C461C461C461C461C461C461C461C461C461C461C461C46D2451C466F466F466F466F466F466F466F466F466F466F466F466F466F466F461C4616462A461C46CD45E1474147314831483148474731
S2840002804C47F84731484F4752476B477047314873477647794731487E478147F8478647D547EA473148D847DB474547DE47DE47F847F847F847F847F847F847F847F847F847F847F847F847F847F847F847F847F847BB47F84731483148314831483148314831483148314831483148314831483148F847ED47F047F847B447785D805DD3
S2840003000C5DCD5DCD5D535D605DCD5DCD5DCD5D8A5D995D2C5D385DCD5D095D6B5DC362C36250625762576263626362746274629A629A629A621363C36280738D73BA73CC73D373E073ED73F87300741E7448740A7485A12EA2F2A20CA325A348A475A44CA84CA84CA84CA84CA84CA84CA84CA84CA8CEA3DCA34CA817A100A4DFA2A3A8A1
S284000380B0A8CFA8CFA8C9A8CFA8D2A8DAAADAAADAAADAAADAAADAAADAAADAAADAAACFA8CFA8DAAAA0A8CCA8C0A8C6B0CBB0D0B0D5B0DAB0DFB0E4B0E4B0F2B0F5B00EB1F8B0FBB0FEB001B10EB104B107B10EB10AB104B540B540B540B50AB523B516B51CB550B510B529B529B52FB540B547B54BB59BB59EB5A1B5A1B5A4B5B0B5AAB5EE
S284000400ADB5C0B5A7B5B3B5B6B5B9B5BCB57FB783B7ABB787B78BB7ABB78FB7ABB79DB7A1B7A8B7E8BBA7BCB9BCA2BBFFBCFFBCB4BCB9BCBCBCEABCD3BCFFBCFFBCEABCD6BBEDBC1DCC89CC46CC79CC14CD89CCE5CC1DCD99CCE5CC18CD32CD17D01FD031D03AD03CD03ED040D043D014D18DD18DD13CD142D151D157D15AD15DD160D1E2
S28400048066D1012D07103A0700000100020003000400050006000700080009000A000B000C000D000E000F0010001100120013001400150016001A001B0000000100020003000400050006000700080009000A000B000C000D000E000F0010001100120013001400150016001700180019001A001B00000001000200030004000500060079
S2840005000700080009000A000B000C000D000E000F00100011001200130014001500160000000100020003000400050006000700080009000A000B000C000D000E000F0010001100120018001A001B000000000000000000000000000000000000000000000000000000000000000000000000000000000000000000000000000000000096
S28400058000000000000000000000000000000000000000000000000000000000000000000000000000000000000000000000000000000000000000000102010002020505080000FFFF34120000000000000000020600050101350F490F010040000000000000000000000000000000000000000000000000000000000000000000000000AC
S284000600000000000500FF000002AAAAAAAAAAAAAAAAFFFF00401F000003341201030300008813000010270000010001E803000004E80300001041746D656C202020202020202020202000000000000000000303000100850000000805080802050204020A0308010803020801004D0035000E01141001102700004D12080057120100645B
S2840006801204006812010015130100161301001D13080019130200A2120200AB120100111301002F130100171301006B1201006C1201006D1201006E120100691202006F1201001313010012130100271201002912010095120800FD1104007B120400701204007412040078120100791201007A120100841211000E1301007F1201008003
S2840007001204009D1201002A1202009F1201009E12010035021000A01201002813010029130100A1120100F2110800FA11020000000000530602005706010055060200590601005A0601005B0601005C0601005D0601005E0601005F06010060060100580601006106010062060100700602006506010066060100670601006C06040063D4
S2840007800601006406010068060100690601006A0602007306040072060100AA080000DF0900002F090000B70A000000000000E70A0000EA10000042110000570E0000D30E00009D0E00000A0F00004B0F0000801000000000000000000000320F00006A11000027130000350F0000490F00008011000000000000C9110000D516C417D9DA
S28400080016DD16C017E1168738D53C0000EE2E000000000000442A000000000000000000009D33C03176310000453100000000000000003E34CE6003612F6F2782FE54B88144600E5AF550D15DE96CFC5373789F50F36B105000000000000000000000E14F020203020202010101010101010202010101020202020202020202020202026E
S284000880030302020302F057CD53010742765C63010142765C630101A657D35A01012E57917901012E576A790107E656AD6001018D56287901010000000001070000000001010000000001030000714C01040000714C010500000000010600000000010C00000000010142760000000100000000010D000000000107000000000109000003
S2840009000000010000000000010100000000010100000000000000008151000700008151000B0000815100000000815100DF48B44D8E49684987490000E648F4488049ED48AA4DC048284C2F4CA14C1A4C95490000744E4B7C857B7F6FAF7900003171075B705500000000138D1D8E00040810AACE0E920011248091961B823141F084B70F
S2840009808F718093961B80FF05C081E001C081E18093961B14BE809160008861809360001092600011241FBECFEFD1E4DEBFCDBF12E0A0E0B2E0EAECF5EB01E00BBF02C007900D92A63DB107D9F71BE1A6EDB2E001C01D92A639B107E1F70E94C8910E948A91FDCF0C9400007F937FB7F8949D9AA5988AEF0E9453058AEF0E9453059D9804
S284000A0086E40E94530581E0959980E08F9380EF0E9453058F917FBF7F9108957F937FB7F8949D9AA59886E00E9453059D988AE00E945305889495990894881F8F9384E60E9453058F917FBF7F9108959F937F9398E00E940E05879577959A959923C9F7872F7F919F9108957F937FB7F894A5989D9A8F9386E00E9453058F91879508F450
S284000A809D988F9384E60E9453058F919D987FBF7F9108959F9398E00E9434059A959923D9F79F91089500000000000000008A958823C9F708955F937F937FB7F894CF93DF93C0E0D0E07F935091B2007091B2007517E1F3739521965091B2005717D9F77F91CE01DF91CF917FBF7F915F9108950F93DF93CF93CDB7DEB760970FB6F8942F
S284000B00DEBF0FBECDBF002309F459C029833A834B835C836D837E838F839887E0E2E01B29813A814B815C811E16BCF019861A861B861C868E2F992787FD9095909581959F4F04C0220F331F441F551F8A95D2F72D873E874F87588B2AC0CA01B901002E04C0660F771F881F991F0A94D2F769877A878B879C87DA01C90104C0B695A7950D
S284000B8097958795EA95D2F72D813E814F81588504C0220F331F441F551F0A95D2F7822B932BA42BB52B8D879E87AF87B88B29853A854B855C856D857E858F85988960960FB6F894DEBF0FBECDBFCF91DF910F910895AA2797FDA095BA2F80931C0290931D02A0931E02B0931F02E091D602F091D70209950895882369F0882777FD80959B
S284000C00982F6093200270932102809322029093230208C01092200210922102109222021092230287E196E00E94E2130895882369F0882777FD8095982F6093240270932502809326029093270208C01092240210922502109226021092270289EE95E00E94061408950E94BA130E94DE130E94021408950E94BC130E94E0130E940414E7
S284000C8008959093D7028093D6028BEF95E00E94BE1308950E946A14089580E00E948C1481E00E947F1482E00E947F14089580E00E94721481E00E947F1482E00E947F14089582E00E947F14089582E00E947F14089582E00E947214089582E00E947F14089581E00E948C14089582E00E948C1408950E946A1480E00E947214089580E008
S284000D000E948C1408951092D80208951092D8020E94BD0B089582E08093D8020E94BD0B0895A2E0B0E0E7E9F6E00C9406DA1091D802123071F0133030F4112379F1113009F04CC00FC0143009F1153009F046C022C00E94A30B0E94330682EF96E00E9441063CC01A821982CE0101960E947609882351F0E981FA811193A0E0B2E085E325
S284000D800D9001928150E1F784E024C089ED92E00E94CB1523C01092D8021EC00E944E0D89ED92E00E94F71588EE93E0A0E0B0E08093DF029093E002A093E102B093E20281E08093E3028BE896E09093E5028093E40282E08093D8020E94BD0B2296E3E00C9422DA81E08093D8020E943A060E94BD0B0895FC0186A5803171F581E186A74A
S284000E00DF01AD57BF4F8C9187A7DF01A359BF4F8C9180AB11968C91119781AB12968C91129782AB13968C91139783AB14968C91149784AB15968C91159785AB16968C91169786AB17968C9187ABCF018E966AE00E94A50D0E9475060895CF93DF93EC010E947506CE0166E30E94A50D81E0DF91CF910895A4E0B0E0E0E4F7E00C9407DAB1
S284000E809C838B83FC01918180910102981709F04FC0928180910202981709F049C0938180910302981709F043C09481809104029817F1F59581809105029817C9F59681809106029817A1F5978180910702981779F5908580910802981751F563857485818592850E940F0CEB81FC8181E180831182809101028283809102028383809112
S284000F0003028483809104028583809105028683809106028783809107028087809108028187CF016AE00E94A50D0E9475064CC01A821982CE010196BE016D5F7F4F4AEF56E00E94C908882309F440C0E981FA8180E2DF011D928A95E9F7E981FA8181E090E09787868723E02283AB81BC8111962C911197258312962C91129726831396C7
S284000F802C911397278314962C911497208715962C911597218716962C911697228717962C911797238718962C911897248721E02587918B808B228B8DE090E0948B838B87898C60878B108E81E001C080E02496E2E00C9423DAFC0182E894E09187808786E0828783E896E09383828381E996E09183808386E896E09583848317821682BE
S2840010000895DC01ED91FC911197E617F70781F40E944F8B682F792F0FC08617970739F4DB018D919C9111979183808305C0FC0180819181009789F7CB010895CF93DF93BC0165587040FC018081882321F41092EF0282E00FC08091EF028F5F8093EF02843028F41092EE02C8EED2E007C01092EF0283E08093EE02CCEED2E08AEE92E04D
S2840010800E940108BC01CE010E94968B0E94E90BDF91CF910895CF93DF931092EE021092E9021092E8021092E7021092E6021092EB021092EA021092ED021092EC02C6EED2E0CE0160EF72E00E94968BCE016CE773E00E94968BDF91CF910895CF93DF938091EE02882329F08250823008F04EC03BC0C091E802D091E902209709F446C07F
S2840011000E946906FE01ED57FF4F8EE198E091838083FE01E158FF4FCE01C09691838083CE0186599F4F0E943A3688EE92E00E944F8BBC018AEE92E00E94968B25C0EC012297FC01E857FF4F0190F081E02D309709F009958CEE92E0BE010E940108BC0186EE92E00E94968B8091EC029091ED02009711F0029602C080E090E00097F9F6F7
S2840011800E946D061092EE020E94E90BDF91CF910895A2E0B0E0EFECF8E00C9401DA7C018B016A012091E6023091E70221153105D9F186EE92E029833A830E944F8BBC0188EE92E00E94968BD801ED91FC91119729813A81309739F0D901D09686E301900D928150E1F7D701ED91FC911197309741F0D901A659BF4F80E201900D928150B0
S284001200E1F7C901C096F80191838083C90186599F4FD70111969C938E9326573F4FF901D182C08281E001C080E089830E94E90B89812296E8E00C941DDA0F931F93CF93DF9310920B0410920A041092090410920804C0E0D0E008E310E0C09FB001C19F700DD09F700D1124645F7B4F88E094E00E94968B2196C430D10579F7DF91CF9110
S2840012801F910F910895A3E0B0E0E9E4F9E00C9405DAE0910A04F0910B04309719F18F010E5F1F4FCE01019662810E94380C882331F0EA81FB81C8010995882341F08AE094E00E944F8BBC0188E094E007C08AE094E00E944F8BBC018AE094E00E94968B0E94D30B2396E4E00C9421DAA1E0B0E0ECE7F9E00C9403DA8C01E0900804F09087
S2840013000904E114F104E9F088E094E00E944F8BBC018AE094E00E94968BD801ED91FC911197309739F0D701129686E301900D928150E1F7C7010296F8019183808381E001C080E089830E94D30B89812196E6E00C941FDA2FB7F8948091360890913708946090933708809336082FBF0895FC018285882321F484E08093060508950E942E
S284001380AA090895882361F480911505882381F488E095E00E94CB1581E0809315050895813031F41092150588E095E00E94F71508950E947F066091F7047091F8042091FF04309100054091010550910205CB01A0E0B0E0281739074A075B0710F4DA01C9019B01281B390BC9013093F8042093F704009731F40E94790689EF94E00E9444
S284001400F7150895CF93DF93EC0181E00E94C2098F85882311F582E0809306050E945706E091F004F091F104309709F009958B819C81909314028093130289819A8190930A02809309028D859E85909317028093160288818093150202C00E94AA09DF91CF9108950E944D060895A2E0B0E0EBE3FAE00C9407DAFC0182A193A19A83898319
S2840014800E947106CE0101960E9476092296E2E00C9423DAA9E0B0E0E0E5FAE00C9405DA80910605813009F4A4C0813038F0823009F47EC0833009F0E4C0ABC00E944A068CEE94E00E94EB07198280E2BE016F5F7F4F0E945D1589818093000281E08093060681E090E0909308068093070690930A068093090680910B06807F816080933F
S2840015000B0686E096E0909316068093150685E39AE0909318068093170682E196E00E942D3984EF91E0A0E0B0E080930E0590930F05A0931005B09311051092120582E39AE090931405809313058E010E5F1F4F8CE2B8010E94421580E0B8010E945D1580E0B8010E944215E1E0F2E08A81809301028B8181838C8182838D8183838E8125
S28400158084838F8185838885868389858783E091EE04F091EF04309709F009950E944B080E941D0981E0809306050E94AA0969C08091070580FF0AC08E7F80930705E091EC04F091ED04309709F009958091070582FF05C08B7F809307050E946E088091070581FF4EC08D7F809307050E94430948C00E944D0680E00E94C20982E09AE0D9
S284001600909329058093280586E195E00E94D29D38C00E94610687EB99E09093B5058093B40584E390E0909331058093300581E0809332051092330510923405109235051092360510923705109238051092390510923A0510926A0510926B0510926C0510926D0510926E0510926F05109270051092710580E4809372058AE295E00E942E
S284001680C89E2996E4E00C9421DAFC018081803509F450C0803951F0813920F48E3808F449C010C0813909F045C004C084E08093060508950E94650681E0809306050E94AA0908958681978190930A028093090283819481909314028093130281819281909317028093160285818093150281E00E94C2090E94570680910605813039F4CC
S284001700E091F004F091F104309709F0099580910605843061F482E080930605E091F004F091F104309709F009950E94AA0982E0809306050895E091F204F091F304309709F009950895A4E0B0E0E9EAFBE00C9407DA80911602909117029A838983CE0101960E94EB998B81809318028C81809319022496E2E00C9423DA8091060582304B
S28400178089F4809107058160809307052FB7F8948091360890913708946090933708809336082FBF089580910605823089F4809107058260809307052FB7F8948091360890913708946090933708809336082FBF089580910605823089F4809107058460809307052FB7F8948091360890913708946090933708809336082FBF0895A2E0FB
S284001800B0E0E5E0FCE00C9407DA9A838983CE0101960E9476092296E2E00C9423DACF93DF93EB01009709F12097F9F09093F8048093F70489EF94E00E94F715CE01A0E0B0E08093FF0490930005A0930105B09302051092030589ED99E0909305058093040589EF94E00E94CB15DF91CF910895EF92FF920F931F93CF93DF93EC01062F79
S2840018808091F4049091F5040097D1F010E014C023E0129FC00111242091F4043091F504280F391FCE01B90143E050E00E9492DA8881081761F01F5F8091F604181740F383E0DE011D928A95E9F780E001C081E0CDB7DEB7E6E00C941FDA08950895809198068823E9F02091960630E08CE790E0289FB001299F700D389F700D1124665E19
S284001900794FFB01E558FF4F408189E996E050E00E9436182FEF8F3F920711F410929806089580919806882369F081508093980680919606982F9F5F90939606992311F0809396060E946F0C089589E797E00E94F7151092BA068DEF96E09093BC068093BB061092780708950E94A50C0895A1E0B0E0EDEBFCE00C94FED98C017E01089423
S284001980E11CF11C33E0D32EAA24A39422E0B22E95E0C92E84E0982E71C08091BA06853009F478C089E996E0B70141E050E00E94D3171816190624F085E08093BA066AC08091BA068230A1F0833028F4882341F08130D1F51CC08330A1F08430A9F525C08981803189F510927807B092BA062CC08981823019F4D092BA0626C01092BA0613
S284001A0023C08981803111F5A092BA061DC08981803119F4D092BA0619C0833019F49092BA0612C0C092BA060FC0909178078981981739F48DEF96E06091BB06681B0E94FF0B0E94A50C26C080E001C081E0298190917807920F90937807882369F0E091BB06F091BC0687E0E837F80728F42193F093BC06E093BB06015010400115110521
S284001A8009F08BCF89E797E00E94F71589E797E00E94CB152196EBE00C941ADA88EC8093A4061092A5061092B90689E190E09093A7068093A60686E08093A8061092A9061092AA068DEB96E09093AE068093AD0680E490E09093B0068093AF061092B2061092B1061092B4061092B30687EB9CE09093B6068093B50681E99CE09093B8069C
S284001B008093B70689E996E00E94B41881E08093830784E690E0A0E0B0E080937F0790938007A0938107B093820784EB9CE090938507809384070E94A50C8FE7EAE1F6E0DF011D928A95E9F70895CF93DF9320919806222309F053C06C3308F050C021E02093980640919706242F30E0542F5F5F50939706552311F040939706DC018CE783
S284001B8090E0289FF001299FF00D389FF00D1124EF01C65ED94F80E1888382E08983E45EF94FCD01860F911D40E008C05C91503111F45193405F5D91450F5193A817B907A9F7DF0180E18D9383E081834B5D11964C9311974CE750E0249FC001259F900D349F900D1124865E994FFC01E558FF4F1296A81BA0830E946F0C81E001C080E00A
S284001C00DF91CF9108950895A6E0B0E0EAE0FEE00C9405DA8E010F5F1F4F26E0F80111922A95E9F7FC0123E0F695E7952A95E1F7E00FF11F8770907021E030E002C0220F331F8A95E2F72083C8010E943012D801E8E8F8E0CE0107963D912081232B2193A817B907C9F78091A30884608093A3082696E4E00C9421DA02C00E94C5910E94C8
S284001C80D6198823D1F708950F931F93CF93DF938C01EB010E943C0EC801BE010E94FD182FEF8F3F920739F08EE0C330D80729F40E943C0E02C081E001C080E0DF91CF911F910F9108950F931F93CF93DF938C01EB010E943C0EC801BE010E9461192FEF8F3F920739F08EE0C330D80729F40E943C0E02C081E001C080E0DF91CF911F9130
S284001D000F9108952F923F924F925F926F927F929F92AF92BF92CF92DF92EF92FF920F931F93DF93CF93CDB7DEB762970FB6F894DEBF0FBECDBF8091A30882608093A30882FF94C086E897E068E878E00E94E1128091A3088B7F8093A30888C0E0908C07F0908D07F70103E0F695E7950A95E1F7EA58F74FC70187709070960102C0220F23
S284001D80331F8A95E2F7C901809592898923828B69857A854B855C8580E00E940113982E588A4F863A8A298A8F81988505979E878D87C50163E07EE00E94440E8A819816A1F58D819E81E816F90679F52B853C858B819C812817390741F581E090E08C0F9D1F988B8F87DA8AC98A00E010E017C08F819885800F911F9E878D87C50163E039
S284001E007EE00E94440EAF85B889E985FA85E00FF11F9C918081981741F40F5F1F4F8B859C850817190720F336C09A82FE82ED828B859C859C838B83CE010296988B8F8785E090E09A8B898B8F81988505979E878D87CE010D9663E07EE00E94630ECE01079662E87EE00E94630E27C017E0612E712C6C0E7D1EB1E0CB2ED12CA2E04A2E3D
S284001E80512C4C0E5D1EF5E02F2E312CEDE0AE2EB12CAC0EBD1E86E897E0B3010E94D011882309F05BCF8091A3088D7F8093A3088FE060E070E00E94B39062960FB6F894DEBF0FBECDBFCF91DF911F910F91FF90EF90DF90CF90BF90AF909F907F906F905F904F903F902F900895282F392FF90180E09191992329F48F5F8630D1F780E0AE
S284001F00089581E008959C01CB0146E0DB011D924A95E9F7F90143E0F695E7954A95E1F7E60FF71F2770307041E050E002C0440F551F2A95E2F72081242B20830E9430120895972F882319F08130A1F40EC0AEE8B8E0E62FF72F9D9180818923819388E0A439B807C1F791E006C0862F0E94731391E0811190E0892F08950E94040E809102
S284001F80A30881FD02C00E94820E81E00895A6E0B0E0EDECFFE00C9405DA8E010F5F1F4FB8010E94830F80E0B8010E94A10FC8010E94750F882381F0A2E8B8E0F8019D9180818923819388E0A838B807C1F7CE0101960E94750F01C080E02696E4E00C9421DAA8E1B0E0E7EFFFE00C94FBD900E211E0109377080093760888EC91E09093C5
S28400200079088093780888EC91E0801B910B26E030E0B9010E94C1D980917A0890917B08682B792B70937B0860937A088CEE91E0885C9140B9010E94C1D980917C0890917D08682B792B70937D0860937C0810927E0810927F08109280081092810886E0EEE8F8E0DF011D928A95E9F7AA2483E1882E912C8C0E9D1EB1E0CB2ED12C38C0EE
S284002080C401B80146E050E00E9492DA8D899E890596A0E0B0E020917E0830917F084091800850918108820F931FA41FB51F80937E0890937F08A0938008B09381088F89988DFC01A3E0F695E795AA95E1F7EA58F74F87709070960102C0220F331F8A95E2F7C901208D282B208F0A5F1F4FA39420917A0830917B088A2D90E082179307A5
S28400210008F4BECFC901880F991F820F931F880F991F04966C01EE24FF24CE010D969A87898786E090E09C878B87AA24BB2400E010E067E0862E912C8C0E9D1E53E1652E712C6C0E7D1EF80143E0F695E7954A95E1F7EA58F74F808D90E098012770307002C0969587952A95E2F780FF3DC0C501880F991F8A0D9B1D880F991F0496988701
S2840021808F83C40163E07EE00E94440E89899A898017910749F48D859E85AF85B8898C159D05AE05BF0559F01A8B098BCD86DE86EF86F88AC40163E07EE00E94630EC8010E941411BC01C30146E050E00E9492DA8D899E890596A0E0B0E0C80ED91EEA1EFB1E0894A11CB11C0F5F1F4F0D32110509F0A9CF0E940B11CE0101960E94731361
S2840022006896EEE00C9417DA8091A1089091A2080E94BD0F089510929E0884E091E19093A00880939F080895A2E0B0E0EAE1F1E10C94FDD94C010091760810917708EE24FF245E010894A11CB11C13C06801B8016C5F7F4FC50142E050E00E9492DA0A5F1F4F89819A818815990561F00894E11CF11C80917A0890917B08E816F90630F398
S284002280CC24DD24C6012296ECE00C9419DAA2E1B0E0EDE4F1E10C9404DA8B01BC0153E0769567955A95E1F7FB01EA58F74F208D30E0AC014770507002C0369527954A95E2F720FF4AC0DE011D96EEE8F8E026E001900D922150E1F7FF2420E030E0FE013D961BC0DF01A40FB51F4C91542F569555754575540F452F46954695437353731F
S284002300450F4C93A42FA295AF7050E04F7050704A0F511D240F351FF3944F2D50E04617570700F3A0E087709070FE013D96E60FF71F0DC0408150E00A2E02C0569547950A94E2F741705070240F351FAF5F4A2F50E04817590770F302C02FEF3FEFCE0107969C838B83C901880F991F820F931F880F991F04969A83898386E090E09E83F7
S2840023808D83CE01019663E07EE00E94440E8F819885F801918380836296E5E00C9420DAA6E0B0E0E6EDF1E10C9403DA7C018B0180E090E0FC0163E0F695E7956A95E1F7EE0DFF1D6081AC0147705070262F30E0042E02C0369527950A94E2F720FF10C021E030E002C0220F331F4A95E2F72095262320830E941411BC01009731F426C0D3
S28400240001968D329105B1F621C0CE01019646E050E00E9492DA89819A81F801938382838D819E81B8010E944711F801808191810596918380838B819C81958384838D819E81F7019783868381E006C08FEF9FEFF7019783868380E02696E6E00C941FDA4F925F926F927F929F92AF92BF92CF92DF92EF92FF920F931F93DF93CF93CDB7B2
S284002480DEB728970FB6F894DEBF0FBECDBF8C013091780820917908FC01858186FD12C0C901E92EF82ECC24DD2483E0482E512C4C0E5D1EB1E0AB2EB12C3E010894611C711C61C0C8016FEF70E046E050E00E94C3DA61C0C201B70146E050E00E9492DA2F813885F901A3E0F695E795AA95E1F7E00FF11F408127703070842F90E0022E16
S28400250002C0969587950A94E2F780FF35C0C50102C0880F991F2A95E2F79C01209524232083992422C0880F991F6B817C81680F791FC30142E050E00E9492DA89819A81FC0173E0F695E7957A95E1F7E00FF11F87709070950102C0220F331F8A95E2F7C9012081282B20839394892D90E02D813E8182179307B8F20894C11CD11C86E0BD
S28400258090E0E80EF91E80917C0890917D08C816D90608F49FCF28960FB6F894DEBF0FBECDBFCF91DF911F910F91FF90EF90DF90CF90BF90AF909F907F906F905F904F900895CF93DF93EC018FEF9FEF9F838E83DE01862F972FFC0186E001900D928150E1F7CE010E943012EEE8F8E0919188818923899388E0E439F807C1F7DF91CF91CA
S2840026000895262F372FF90120E030E004C09191890F2F5F3F4F24173507C8F30895ACE0B0E0E5E1F3E10C9400DA7C018B01CE0102969A87898785E090E09C878B87FB0180819181059798878F8387E0C82ED12CCC0EDD1EC60163E07EE00E94440E8D819E81E816F906C1F5F801248135818B819C812817390781F5CE0101969A8789875F
S28400268081E090E09C878B87EE24FF24BB24C601DC2CC92E18C0F801808191818E0D9F1D98878F838D2D9C2D63E07EE00E94440E69857A858B2D41E050E00E940113B82E0894E11CF11CF80184819581E816F90610F38A81B81611F082E001C080E02C96E9E00C941CDAAEE0B0E0E9E7F3E10C94FFD98C0147E0E42EF12CEC0EFD1EC701AD
S284002700B8010E94E11286E0D8011D928A95E9F7BE2CAF2C7E010894E11CF11C31E0C32ED12C1DC08D859E85B7010E940F138823B1F48D859E85FC0123E0F695E7952A95E1F7E00FF11F87709070960102C0220F331F8A95E2F7C9012081282B20838B2D9A2DB7010E94D0118823E1F62E96EAE00C941BDA80E0089580E008959093A70829
S2840027808093A6088091A80782608093A8072FB7F8948091360890913708916090933708809336082FBF80E00895E091A608F091A70881E060E070E00995089580E0089580E008959093A9088093A8088091A80784608093A8072FB7F8948091360890913708916090933708809336082FBF80E00895E091A808F091A90881E060E070E099
S2840028000995089580E0089580E008959093A5088093A4088091A80788608093A8072FB7F8948091360890913708916090933708809336082FBF80E00895E091A408F091A50880E090E0099508950F931F93CF93DF930EE817E0C0E0D0E0FE01A3E0EE0FFF1FAA95E1F7EC1BFD0BE157F84F808180FF0CC080818E7F8083E091A307F0917F
S284002880A407309719F0D8018C910995FE0173E0EE0FFF1F7A95E1F7EC1BFD0BE157F84F808181FF0CC080818D7F8083E091A507F091A607309719F0D8018C9109952196095F1F4FC330D10541F6DF91CF911F910F9108956A9A729A6B9A739A6C9A749A80E00895813039F0813018F0823031F404C0729808957398089574980895813082
S28400290039F0813018F0823031F404C0729A0895739A0895749A0895813041F0813018F0823069F408C08EB194E002C08EB198E089278EB908958EB190E189278EB908958091A80780FF07C08091A8078E7F8093A8070E9425148091A80781FF07C08091A8078D7F8093A8070E94D5138091A80782FF07C08091A8078B7F8093A8070E949C
S284002980F9138091A80783FF07C08091A807877F8093A8070E941D148091A807882361F02FB7F8948091360890913708916090933708809336082FBF0895ECE2F2E188E3DF011D928A95E9F7B19681E080934D128DE0818380EC82838EEB83838AE5848315821682178285E08093571282EA92E16CE475E04EE850E00E9492DA8DEF91E13C
S284002A006AED75E04FE250E00E9492DA81EF91E169E076E04CE050E00E9492DA84E692E165E176E04EE350E00E9492DA87E499E0EAEAF8E0DF019C011D9221503040E1F70895A4E0B0E0E7E2F5E10C9407DA682F70E0660F771F660F771F6958794FCE01019644E050E00E9492DA69817A818B819C812496E2E00C9423DA0E94DD140E9473
S284002A80F10F0895EF92FF921F93CF93DF93182FEB01209761F00E942115AC011F3220F0CE010E9492DA03C0CE010E94A8DADF91CF911F91FF90EF900895EF92FF92CF93DF93EB01209771F08F3260F406C0CB01BE01A9010E94A8DA05C00E9421159C010097A9F7DF91CF91FF90EF900895CF93DF93EB010E942115009711F47983688398
S284002B00DF91CF9108950E9453050895EF92FF920F931F93CF93DF9318C089EA97E060E070E0AE010E94C51B8A85882359F4EA82FB820C831D8389EA97E0BE01A80197010E940D1AEB85FC8509958091A9079091AA070097D9F00E94591E7B018C01C091A907D091AA078A819B81AC81BD81A8019701281B390B4A0B5B0B8E819F81A88595
S284002B80B985281739074A075B0738F6CDB7DEB7E6E00C941FDACF93DF93EC01009771F0E091A907F091AA0706C0EC17FD0749F00190F081E02D3097C1F709C02FEF3FEF02C020E030E0C901DF91CF9108950E94591E9B01AC01198218826A837B838C839D8389EA97E0BE010E940D1AEACFCF93DF93EC010097D1F08091A9079091AA0774
S284002C008C179D0749F089EA97E0BE010E94E41BBC01009719F40AC060E070E089EA97E0AE010E94C51B20E030E002C02FEF3FEFC901DF91CF9108958F929F92AF92BF92CF92DF92EF92FF920F930E948B1C4B015C012091B40730E040E050E060E070E080E090E000E20E947805282939294A295B290F91FF90EF90DF90CF90BF90AF901D
S284002C809F908F900895CF93DF93E82FF0E0DF01A05CB04093E0B595A7959A95E1F7B0E0AA0FBB1FA555B84F6D917C9111976115710599F14FB7F894EB012A813B81888199814FBF2817390729F12D913C911197E901288D398D280F391FE9013881019620812064208336830D90BC91A02D5A962D913C915B978217930711F480E090E053
S284002D002181206221832FB7F894FB01918380832FBF03C0818180648183DF91CF91089590E0805C904033E0959587953A95E1F7E82FF0E0EE0FFF1FE555F84FA081B1811097B9F090968C919097887191F42FB7F89418968D919C9119972FBF009749F00190F081E02D048CF58DE02D309709F009950895FC0193898385992349F4803CF7
S284002D8019F0883C89F402C06A9A0895559A0895803C19F0883C41F404C06A987298729A089555985D985D9A089580EC0E944316089580EC0E949016089588EC0E944316089588EC0E9490160895A3E0B0E0EBEEF6E10C9402DA81E0898306E010E0DD2452E0E52EF12CEC0EFD1E9091B20789818923B9F09FB7F8942091B20789818227FC
S284002E008093B2079FBF6D2D70E0660F771F6550784FC70142E050E00E9492DAEA81FB810995D3948981880F898301501040E9F62396E7E00C941EDA9091B20721E030E002C0220F331F8A95E2F7922B9093B2078091D90780688093D9072FB7F8948091360890913708826090933708809336082FBF0895CF93DF93C82FD0E0DE01A05C35
S284002E80B040E3E0B595A795EA95E1F7B0E0AA0FBB1FA555B84FED91FC911197309721F489818F77898335C080A183FD32C0C489D58984FF0AC06883ED91FC911197848995890196958B848B24C0209711F1268137818681978101969783868346815781868997894817590711F41782168246815781848195814817590719F437832683DE
S284002F0008C0C20FD31F688380859185019691878087DF91CF91089590E0805C904033E0959587953A95E1F790E0DC01AA0FBB1FA555B84FED91FC911197309701F16FB7F89442815381208131816FBF4217530711F421E02287FC01EE0FFF1FE555F84F0190F081E02D828D938D009711F4118E108E068CF78DE02D309709F00995089535
S284002F8088EC0E948C17089580EC0E948C170895805C893030F4E82FF0E0EB5BFD4F8081089580E00895A0E0B0E0E9EDF7E10C9402DAEC018B017A01009709F44FC0DB848D2D0E94C817882309F448C00115110509F444C0E114F10409F440C0ED2DF0E0E05CF04073E0F595E7957A95E1F7F0E0EE0FFF1FE555F84F80819181C817D90758
S28400300069F52FB7F8944E815F818C819D812FBFD80120E030E010C0EC89FD89E80FF91F60816D9301966E897F898617970711F480E090E02F5F3F4F8417950719F02E153F0550F34FB7F8949D838C8388859985821B930B998788874FBF02C02FEF3FEFC901CDB7DEB7E7E00C941EDAA0E0B0E0ECE3F8E10C94FFD9EC018B017A010097D4
S28400308009F46AC0CB848C2D0E94C817882309F463C00115110509F45FC0E114F10409F45BC0EC2DF0E0E05CF040B3E0F595E795BA95E1F7F0E0EE0FFF1FE555F84F80819181C817D90709F047C08A8D9B8D009779F42A813B818881998128173907E1F5198F088FFB82EA8219821882C7012CC08FB7F894CA80DB80A880B9808FBFD80181
S284003100960180E090E015C0A9014F5F5F4F6A8D7B8D4617570711F440E050E04A155B0559F06D91E88DF98DE20FF31F608301969A018E159F0540F34FB7F8943B832A834FBFCA14DB0431F41A86EB85F0E02181206221839C0102C02FEF3FEFC901CDB7DEB7EAE00C941BDA1F93CF93DF93EC010097E1F11B85812F0E94C8178823B1F1EA
S284003180E12FF0E0E05CF04033E0F595E7953A95E1F7F0E0EE0FFF1FE555F84F80819181009721F5D183C0838C85803419F4CE010E94BA16198218821B821A828C899D89009711F41F8A1E8A888D998D009711F41B8E1A8E1D821C821F821E8281E08A87CE010E948A1E2B8530E002C02FEF3FEFC901DF91CF911F910895FC018091B307A4
S284003200882309F057C0309709F457C08481958120813181820F931F20E18130920708F04CC081E08093B3077093371360933613A0E3B3E186E001900D928150E1F7F999FECF80E090E017C0E0913213F0913313E80FF91F2091301330913113A9014F5F5F4F509331134093301332BD21BDF89A20B52083019620913413309135138217D0
S284003280930710F310923513109234138091DA0784608093DA072FB7F8948091360890913708826090933708809336082FBF20E030E005C02EEF3FEF02C02FEF3FEFC9010895CF93DF93FC019B018091B307882309F063C0309709F463C06081718184819581860F971F40E18130940708F058C081E08093B307A0E3B3E186E001900D92DF
S2840033008150E1F730933713209336132115310519F4C0E0D0E033C0CB0101969093311380933013E0913213F09133134191F0933313E09332138CE00E94672180913413909135130197909335138093341322C06091301370913113CB0101969093311380933013E0913213F09133134191F0933313E093321384E00E9467212196809195
S284003380341390913513C817D90710F3F999FECF1092B30720E030E005C02EEF3FEF02C02FEF3FEFC901DF91CF91089581E09091B307913009F080E008958091341390913513009751F41092B307E0913613F0913713309709F1099508956091301370913113CB0101969093311380933013E0913213F09133134191F0933313E093321360
S2840034008CE00E9467218091341390913513019790933513809334130895A2E1B0E0E3E1FAE10C94F7D99A878987DB012B873C874D875E87FC01E080F180E114F10409F497C1222433244B855C856D857E859A01AB0160E070E0CB0129833A834B835C836D837E838F839887F88AEF86F701BA8BA98B02C01F01FC01E280F3800481158137
S28400348026813781408551856B857C858D859E856E157F058007910708F48FC060E070E0CB0157016801EE24FF248701622E6A0C77247394621608F07724932E9B0C88248394931608F08824790C55245394791408F055248528542E5C0C99249394541608F09924850C44244394851408F044249428052F0D0D11E0051708F010E0900E4E
S284003500EE24E394901608F0EE241E2944244394161608F0442401E0171608F000E055245394181608F05524A62C7981A71A21E06A1408F020E0972D8A81981B81E0791608F080E0492F421B21E0941708F020E0822B282D9B81291B91E0821608F090E0522F581B81E0251708F080E0982B292DAC812A1B81E0921608F080E0E22EE91A14
S28400358091E02E1508F090E0892BB12FB81B8B2F91E01B1708F090E0242D291B922F21E0491608F020E0302F321B232F31E0021708F030E0142F052F95C039014A01AA24BB24650110950095F094E094E11CF11C011D111D722F7E1961E0271708F060E0872D8F1991E0781608F090E0A82FA61B6A2F552453948A1708F055249529582C1D
S284003600501A81E0851408F080E0B52DB91B9B2F442443945B1608F044248429292D211B31E0921608F030E0E22EE81A81E02E1508F080E0832B819551E0181608F050E0519541E0151608F040E0419521E0141608F020E0522E5194A72E2981A21A11E07A1508F010E0262F3A81231B31E0621708F030E0622F611B162F61E0211708F0B2
S28400368060E0362B692F7B81671B21E0961708F020E0062F031B91E0601708F090E0292B3E2D9C81391B91E0E31608F090E0E32EE21A21E03E1508F020E0922B682F691B91E0861708F090E0A52FA91B9A2F81E05A1708F080E0242F281B31E0421708F030E0862F531A69F5222359F5992349F5882339F5A989BA8916962D913D914D9118
S2840037005C91199760E070E0CB01992321F51816C0F0882301F51716A0F07723E1F4161680F06623C1F4E51660F05E15A1F4041740F0401781F4131720F0311761F4A21650F480819181009709F094CE8F01A989BA891F0111C0EF84F8888F01A989BA89EE15FF0541F41196FC93EE93E985FA85B183A08306C0CF01F101B183A0838D938E
S2840037809C936296E2E10C9413DACF93DF93FC01DB01EA01808191814817590739F48881998119821882808391830BC08881998111969C938E93198218828C9111969C911197DF91CF910895DC01ED91FC91119706C0808191818617970719F0FC013097C1F7CF0108958FB7F8941092B7071092B6071092B5078FBF08958091EF0780FF31
S2840038000FC081E00E949721809170008D7F809370000E94F31B8091EF078B7F8093EF070895809170008C7F809370008091B60080628093B6001092B2001092B0001092B1001092B3008091B60090E08F7190700097C9F783E087BB87E08093B1008091700081608093700008958091B60090E08F7190700097C9F7809170008C7F809366
S28400388070008091B100887F8093B10083B5826083BD8091B60090E08F7190700097C9F78091B6008F7D8093B60008959B01AC016091B200862F90E080959095AA2797FDA095BA2F9070A070B07082179307A407B50778F4281B390B4A0B5B0BBB27A52F942F832F9093B6078093B5072093B7070895260F8091B60090E08F719070009774
S284003900C9F72093B30082E087BB809170008260809370000895EF92FF920F931F938FB7F8949091B8072091B20034E43093B4004091B60050E04F71507041155105C1F7B89904C030E040E050E009C02091B20030E040E050E021503F4F4F4F5F4F8FBF8FEF989FC0011124AA2797FDA095BA2F820F931FA41FB51F9C01AD0175E0220FDD
S284003980331F441F551F7A95D1F77C018D0162E016950795F794E7946A95D1F72E0D3F1D401F511FE090B907F090BA070091BB071091BC072E0D3F1D401F511F281B390B4A0B5B0BB901CA011F910F91FF90EF90089560E270E080E090E008958FB7F8946091B8071092B8078FBF70E080E090E020E43FE140E050E00E9496D99B01AC018D
S284003A008091B9079091BA07A091BB07B091BC07820F931FA41FB51F8093B9079093BA07A093BB07B093BC0782179307A407B50728F48091B4078F5F8093B40708951F920F920FB60F920BB60F9211242F933F934F935F936F937F938F939F93AF93BF93EF93FF93809170008D7F809370001092B7078091EF0780FF03C080E00E949721F6
S284003A808091EF0782FF11C08091D70781608093D7072FB7F8948091360890913708826090933708809336082FBFFF91EF91BF91AF919F918F917F916F915F914F913F912F910F900BBE0F900FBE0F901F9018951F920F920FB60F920BB60F9211242F933F934F935F936F937F938F939F93AF93BF93EF93FF938091B5079091B6070097CB
S284003B00A1F58091B7078823E9F48091EF0780FF03C080E00E9497218091EF0782FF34C08091D70781608093D7072FB7F8948091360890913708826090933708809336082FBF22C08091B60090E08F7190700097C9F78091B7078093B30082E087BB8091700082608093700009C08091B5079091B60701979093B6078093B5078091EF071E
S284003B8080FF02C00E9403228091B8078F5F8093B8078091D70782608093D7072FB7F8948091360890913708826090933708809336082FBFFF91EF91BF91AF919F918F917F916F915F914F913F912F910F900BBE0F900FBE0F901F90189580E197E29093A9008093A800E1EAF0E088E08083808182608083E2E7F0E080818260808308952A
S284003C009B01AC018091BF079091C007A091C107B091C207820F931FA41FB51F8093BF079093C007A093C107B093C2078091DB0784608093DB072FB7F8948091360890913708826090933708809336082FBF08958FB7F8946091BE071092BE078FBF70E080E090E02AE030E040E050E00E9496D99B01AC018091BF079091C007A091C107AA
S284003C80B091C207820F931FA41FB51F8093BF079093C007A093C107B093C20782179307A407B50728F48091BD078F5F8093BD0708950E94281E6091BF077091C0078091C1079091C20708951F920F920FB60F9211242F938F939F938091BE078F5F8093BE078091DB0784608093DB072FB7F894809136089091370882609093370880937A
S284003D0036082FBF9F918F912F910F900FBE0F901F901895FC01A385B0E011961C92A385B0E08585968515969C938E9314978485A385882349F4B0E082E08C93A385B0E012961C92129707C0B0E01C92A385B0E0828912968C93A385B0E012968C9112979485892B12968C93A385B0E012968C9112979785892B12968C93A385B0E01296C7
S284003D808C9112979089892B12968C93A385B0E012968C9112979189892B12968C93A385B0E08C9180688C93A385B0E011968C911197886111968C931197E385F0E081818068818308951F920F920FB60F920BB60F9211242F933F934F935F936F937F938F939F93AF93BF93EF93FF93E1ECF0E080818F7D808380E00E941C17FF91EF91D6
S284003E00BF91AF919F918F917F916F915F914F913F912F910F900BBE0F900FBE0F901F9018951F920F920FB60F920BB60F9211242F933F934F935F936F937F938F939F93AF93BF93EF93FF93E1ECF0E080818F7B808381E00E941C17FF91EF91BF91AF919F918F917F916F915F914F913F912F910F900BBE0F900FBE0F901F9018951F9296
S284003E800F920FB60F920BB60F9211242F933F934F935F936F937F938F939F93AF93BF93EF93FF938091C0006091C6008C7131F480EC0E943A1782E00E941C17FF91EF91BF91AF919F918F917F916F915F914F913F912F910F900BBE0F900FBE0F901F9018951F920F920FB60F920BB60F9211242F933F934F935F936F937F938F939F9319
S284003F00AF93BF93EF93FF93E9ECF0E080818F7D808383E00E941C17FF91EF91BF91AF919F918F917F916F915F914F913F912F910F900BBE0F900FBE0F901F9018951F920F920FB60F920BB60F9211242F933F934F935F936F937F938F939F93AF93BF93EF93FF93E9ECF0E080818F7B808384E00E941C17FF91EF91BF91AF919F918F91D5
S284003F807F916F915F914F913F912F910F900BBE0F900FBE0F901F9018951F920F920FB60F920BB60F9211242F933F934F935F936F937F938F939F93AF93BF93EF93FF938091C8006091CE008C7131F488EC0E943A1785E00E941C17FF91EF91BF91AF919F918F917F916F915F914F913F912F910F900BBE0F900FBE0F901F9018951F927B
S2840040000F920FB60F920BB60F9211242F933F934F935F936F937F938F939F93AF93BF93EF93FF930E94FD1BE091C307F091C4070995FF91EF91BF91AF919F918F917F916F915F914F913F912F910F900BBE0F900FBE0F901F9018951F920F920FB60F920BB60F9211242F933F934F935F936F937F938F939F93AF93BF93EF93FF930E94AE
S284004080FD1BE091C507F091C6070995FF91EF91BF91AF919F918F917F916F915F914F913F912F910F900BBE0F900FBE0F901F9018951F920F920FB60F920BB60F9211242F933F934F935F936F937F938F939F93AF93BF93EF93FF930E94FD1BE091C707F091C8070995FF91EF91BF91AF919F918F917F916F915F914F913F912F910F909E
S2840041000BBE0F900FBE0F901F9018951F920F920FB60F920BB60F9211242F933F934F935F936F937F938F939F93AF93BF93EF93FF930E94FD1BE091C907F091CA070995FF91EF91BF91AF919F918F917F916F915F914F913F912F910F900BBE0F900FBE0F901F9018951F920F920FB60F920BB60F9211242F933F934F935F936F937F935E
S2840041808F939F93AF93BF93EF93FF930E94FD1BE091CB07F091CC070995FF91EF91BF91AF919F918F917F916F915F914F913F912F910F900BBE0F900FBE0F901F9018951F920F920FB60F920BB60F9211242F933F934F935F936F937F938F939F93AF93BF93EF93FF930E94FD1BE091CD07F091CE070995FF91EF91BF91AF919F918F91F6
S2840042007F916F915F914F913F912F910F900BBE0F900FBE0F901F9018951F920F920FB60F920BB60F9211242F933F934F935F936F937F938F939F93AF93BF93EF93FF930E94FD1BE091CF07F091D0070995FF91EF91BF91AF919F918F917F916F915F914F913F912F910F900BBE0F900FBE0F901F9018951F920F920FB60F920BB60F92F3
S28400428011242F933F934F935F936F937F938F939F93AF93BF93EF93FF930E94FD1BE091D107F091D2070995FF91EF91BF91AF919F918F917F916F915F914F913F912F910F900BBE0F900FBE0F901F901895F999FECF07B600FCFDCF72BD61BD40BD9FB7F8948FBBF99A9FBF08951F920F920FB60F9211242F938F939F93FB988091DA0772
S28400430084608093DA072FB7F8948091360890913708826090933708809336082FBF9F918F912F910F900FBE0F901F9018959091EF078170880F9C7F982B9093EF07E9E3F1E080818D7F80838091DB0781608093DB072FB7F8948091360890913708826090933708809336082FBF08958091EF0780FF48C08091A1008D7F8093A1008091E7
S284004380D3079091D407A091D507B091D6070097A105B10551F40E948B1C6093D3077093D4078093D5079093D6078091EF0783FD02C00E944B8BF999FECF8091EF0788608093EF079091390192609093390182FF05C087E083BF889513BE0AC00E94351C85E083BF889513BE0E94111C0E94CC2284E48093B4008091B60090E08F719070E6
S2840044000097C9F708958091EF0781608093EF078091B60090E08F7190700097C9F78091DB0788608093DB072FB7F8948091360890913708826090933708809336082FBF80E090E008950E948B1C2091D3073091D4074091D5075091D607621B730B840B950B1092D3071092D4071092D5071092D6070E94001E8091A10082608093A100E0
S284004480809141018F718830D9F78091EF07877F8093EF070E94478B8091EF0781FD07C0E091E007F091E107309709F009950895A0E0B0E0EEE5F2E20C94F7D910E0C2E8DBE800E892E8692E9BE8792E812C912C82E8A82E8BE8B82E0E945B052BE88338920718F16E01EE24FF249C0140E050E022583B4840405040C216D306E406F506FA
S2840045004CF4123039F480916600815080936600000036C0209166002150209366000000EC01C258DB4811E028C02BE88238920739F16E01EE24FF249C0140E050E013012401221A330A440A550AC214D304E404F5044CF4113039F4809166008F5F8093660000000DC0209166002F5F209366000000E501C81BD90B12E0015009F0ACCFA3
S284004580CDB7DEB7E2E10C9413DA0E94A126882311F40E9458220895CF93DF93C8E8D3E188EC0E9453052197D9F70E94C522DF91CF9108958091DB0782FF0BC09FB7F8948091DB078B7F8093DB079FBF0E948615A9C08091D70780FF0BC09FB7F8948091D7078E7F8093D7079FBF0E94F6279AC08091D70781FF0BC09FB7F8948091D707B6
S2840046008D7F8093D7079FBF0E94EE1C8BC08091DB0780FF0BC09FB7F8948091DB078E7F8093DB079FBF0E9423227CC08091DB0783FF0BC09FB7F8948091DB07877F8093DB079FBF0E94B6216DC08091D90786FF0BC09FB7F8948091D9078F7B8093D9079FBF0E9457255EC08091D90787FF0BC09FB7F8948091D9078F778093D9079FBF23
S2840046800E94E5164FC08091DA0781FF0BC09FB7F8948091DA078D7F8093DA079FBF0E94032540C08091DA0782FF0BC09FB7F8948091DA078B7F8093DA079FBF0E94DD1931C08091DA0780FF0BC09FB7F8948091DA078E7F8093DA079FBF0E94BD2522C08091DB0781FF0BC09FB7F8948091DB078D7F8093DB079FBF0E94E02413C0809108
S284004700DB0784FF0FC09FB7F8948091DB078F7E8093DB079FBFE0913813F0913913309709F009958091D707882381F48091D807882361F48091D907882341F48091DA07882321F48091DB07882361F02FB7F8948091360890913708826090933708809336082FBF0895E091DC07F091DD0787E0828380E98093BC008091DB0782608093ED
S284004780DB072FB7F8948091360890913708826090933708809336082FBF0895E091DC07F091DD078281823031F08281833019F08281843019F48581880F06C08281853049F48581880F8F5F8093BB0085E88093BC0008950E94B3230895E091DC07F091DD0720813181868197812817390780F480819181A085B185A80FB91F2C91019671
S284004800918380832093BB0085E88093BC00089586E0828384E98093BC008091DB0782608093DB072FB7F8948091360890913708826090933708809336082FBF0895E091DC07F091DD0783859485A585B6852081318121503040318320832081318143E0220F331F4A95E1F704C0B695A795979587952A95D2F78093BB0085E88093BC0084
S28400488080819181009741F48281823019F484E08283089585E082830895E091DC07F091DD078281843019F40E94ED2308958281823019F08281833019F40E941F2408958281853021F485EA8093BC0008950E94B3230895E091DC07F091DD0782818530A1F4868197818130910521F48091BC008F7B03C08091BC0080648093BC008091CD
S284004900BC0085688093BC0008950E94B3230895E091DC07F091DD079281953011F520813181A085B185A20FB31F8C932F5F3F4F31832083208131818681978101972817390720F48091BC00806403C08091BC008F7B8093BC008091BC0085688093BC0008950E94B3230895E091DC07F091DD079281953011F520813181A085B185A20FC6
S284004980B31F8C932F5F3F4F3183208386E0828384E98093BC008091DB0782608093DB072FB7F8948091360890913708826090933708809336082FBF08950E94B3230895A091DC07B091DD071F96ED91FC9150973097A1F012968C911297863049F48091BC0084FDFCCF81E012968C93129704C081E012968C9380E00995089581E0129674
S284004A008C9312970895E091DE07F091DF070284F385E02D309709F00995089523982B981CBC0895E091F307F091F40726813781848195812817390769F0A48DB58D8481958101969583848384819581A80FB91F8C918EBD0895E091F307F091F407309719F40E940E25089542855385228533852F5F3F4F33872287228533852A30310551
S284004A8011F41386128662857385208531856217730719F4538742870895465C5C4EDA018C938485958501969587848708952FB7F894E091F307F091F407848595852FBF009731F005A0F6A1E02D309709F009950895ADE0B0E0EFE6F5E20C9407DAFC01009739F1848195819093E1078093E00780819181A281B3818F839887A987BA87A3
S284004B0081E08B871D861C86CE0101960E94BD272FEF8F3F920781F02FEF8D3F920761F00E9403222FEF8F3F920749F42DEF3FEF08C02FEF3FEF05C02EEF3FEF02C020E030E0C9012D96E2E00C9423DABC0180EF97E00E94968B8091DA0781608093DA072FB7F8948091360890913708826090933708809336082FBF0895A0E1B0E0E3ECBF
S284004B80F5E20C9404DA0091F0071091F107D80112968C911297823029F08430C9F0882331F074C070E060E088E0F82E6BC080E090E0D8011396ED91FC911497E80FF91F208120933F0101968031910591F75EC010923C0180E010923E018F5F8031D9F780913C01806880933C0180913D0180FFFCCFFE013196CE014196DF0120913F0158
S284004C002D93A817B907D1F7219120933F01E817F907D1F7C7CFF8018281823019F410923C0102C0F0923C01872F90E0AC01405F5F4F9C01D8011396ED91FC911497E20FF31FE081E0933E012F5F3F4F2417350789F720913C01206820933C0120913D0120FFFCCF20913E01D8011396ED91FC911497E80FF91F208301968417950791F77E
S284004C80705F6F5FF8018581681728F280EF97E00E944F8B8091F0079091F107009789F08091DA0781608093DA072FB7F8948091360890913708826090933708809336082FBFD8011696ED91FC91179709956096E5E00C9420DA8FB390E0FC01E270F07081FDF9CF8FB7F89499E090935700E4918FBFEF70E23019F41092F20703C081E0DF
S284004D008093F2078FB7F8949091F207992349F45F9350E85093610050E0509361005F9108C05F9350E85093610051E0509361005F918FBF8091F207882311F40E94CC2208958091F20708951F920F920FB60F920BB60F9211242F933F934F935F936F937F938F939F93AF93BF93EF93FF938091B90090E0887F90708832910569F1893287
S284004D8091059CF48031910521F18131910534F4009729F18830910589F51BC088319105D9F08032910551F51AC088349105B9F0893491053CF48033910589F080349105E9F410C08035910581F088359105B1F411C00E94CE2312C00E944D240FC00E94B3230CC00E946A2409C08091BB000E94882404C08091BB000E94B424FF91EF9173
S284004E00BF91AF919F918F917F916F915F914F913F912F910F900BBE0F900FBE0F901F9018951F920F920FB60F920BB60F9211242F933F934F935F938F939F93AF93BF93EF93FF93E091DE07F091DF07838126813781882349F48081918140917900280F391FD9014C930EC0808191814091780050917900DC01AA0FBB1FA20FB31F119690
S284004E805C934E93019691838083E091DE07F091DF07208131818085918528173907B1F480917A00877F80937A008091DA0782608093DA072FB7F8948091360890913708826090933708809336082FBFFF91EF91BF91AF919F918F915F914F913F912F910F900BBE0F900FBE0F901F9018951F920F920FB60F920BB60F9211242F933F9354
S284004F004F935F936F937F938F939F93AF93BF93EF93FF93DF93CF930F92CDB7DEB78EB589830E94122589810E942B258091D90780648093D9072FB7F8948091360890913708826090933708809336082FBF0F90CF91DF91FF91EF91BF91AF919F918F917F916F915F914F913F912F910F900BBE0F900FBE0F901F901895CF93DF93EC01CB
S284004F80009741F10E94E91C2E813F81488559850E9496D928EE33E040E050E00E94D5D92115310541055105C1F08091EF0782FD17C084608093EF07E2EEF7E08DE0099001928150E1F7CA01B9010E94561C20E030E008C02FEF3FEF05C02EEF3FEF02C02DEF3FEFC901DF91CF9108958091EF0782FF24C09091EC079923B1F4E091ED0706
S284005000F091EE07309709F009958091EF0782FF15C06091E8077091E9078091EA079091EB070E94561C08958B7F8093EF07E091ED07F091EE07309709F0099508950F931F93CF93DF93EC01299709851A8581E39CE29C878B87EC89FD89CE010995F801EB5BFF4F89898083EB85FC85CE010995DF91CF911F910F9108958091FA07982F63
S2840050809F5F9093FA070895DC01ED91FC911197909318148093171410920414109205148091FE0780930914209154133091551383899489B9010E94C1D9462F6093071483899489B9010E94C1D9009719F04F5F409307148FEF90E00090FC1102C0880F991F0A94E2F780958E7F809306140E943D28809308140895FC01878983FF0AC048
S28400510081E090E0238934892E34310528F480E090E0089580E090E00895CF93DF93409144132091491330914A1390E058C0F90129593F4F578150FD51C0DF01A15BBF4F11961C921E928230C1F0823018F0833009F048C09091481320914613921708F041C09F5F90934813138214821582168290859F709087128228C0209147139091D2
S2840051804513291778F530914B13A0914C13B0914D1390E014C0ED014C91D596442371F42F5F2093471321E02883DF01A15BBF4FA6961196DC93CE93228303C09F5F931750F320914B13291769F09085907F9087880F816087831182108206C09F5F941708F4A5CFE0E0F0E0CF01DF91CF9108952091491330914A13821B930B67E670E09F
S2840052000E94C1D9E7E66E9FF0011124E20FF31F8781869590E08230910571F0833091051CF08330910539F580914813882319F18150809348131FC080914713882319F081508093471320914C1330914D13DF01A15BBF4F8D919C91821B930B65E370E00E94C1D9A5E36A9FD0011124A20FB31F8C9181111C9287818E7F878308950F93FC
S2840052801F93CF93DF938C01DC011996ED91FC911A97EA5BFF4FC081D18181E088830E943D28898389E08A83F80180A18B83DF91CF911F910F910895FC0161A322A133A18196F9010995089521E030E002C0220F331F8A95E2F78091F907822B8093F9072FB7F8948091360890913708806290933708809336082FBF0895CF93DF93EC0149
S284005300009729F16B8F4115510551F0FA0180819181A281B3818C8F9D8FAE8FBF8F04C01C8E1D8E1E8E1F8EE98DFA8D309719F0CE014B960995CE010E947C28882339F0109218141092171481E00E946429DF91CF910895FC0163A724A535A58B96F90109950895CF93DF93FC0188E1EF0119928A95E9F781E0858716861786DF91CF9101
S2840053800895BC0187EF97E00E94968B83E00E9464290895FC0165AF81E0808F8BEF97E0BF010E94968B87E00E9464290895BC0180910F08815080930F088DE098E00E94968B81E00E9464290895CF93DF93BC01C0912908D0912A0889E298E00E94968B209719F480E00E946429DF91CF9108950F931F93CF93DF938C01DC011996ED91C7
S284005400FC911A97EA5BFF4FC081D18181E088830E943D28898386E08A83DE011396F801B09688E001900D928150E1F7F80181A592A59C878B8780A58D87DF91CF911F910F9108950F931F93CF93DF938C01DC011996ED91FC911A97EA5BFF4FC081D18181E088830E943D28898387E08A832396F801B09688E0019009928150E1F7DF918D
S284005480CF911F910F910895EF92FF92CF93DF938BEF97E00E944F8BE82EE7017E01F92EE701888D8823B1F4E9A1E63078F4F0E0EE0FFF1FEA5AFD4F0190F081E02D309729F082E0888FC701099504C084E08DAF81E0888F888D813029F4EEADFFADCE01CD9609958091FB079091FC07009719F087E00E946429DF91CF91FF90EF90089503
S284005500A1E0B0E0E6E8FAE20C9405DA8C0189E298E069830E944F8B6981D80117966C9317971596ED91FC911697C801079609958091290890912A08009719F080E00E9464292196E4E00C9421DAEF92FF920F931F93CF93DF93EC018C017E019F2D0E94B22980E18E8782E08F878BA9882321F09E012C5C3F4F03C09E01275E3F4F3B8B6C
S2840055802A8B21EE3AE23D8B2C8B2AEC39E23F8B2E8B95E2998B882361F00E94407E882341F08CAD882329F08989855F898B81E0888BC8010E94C129CDB7DEB7E6E00C941FDAFF920F931F93CF93DF938C01DC011996ED91FC911A97EA5BFF4FC081D1819196FC9081E088830E943D28898385E08A83FB82DE011496F801B39680E10190E6
S2840056000D928150E1F7F80182A18C8B22813381CE014596FFEF283F3F0738F0FC0188E0DF011D928A95E9F708C0DC01F801799688E001900D928150E1F78091F2118F3FE1F48091F3118F3FC1F48091F4118F3FA1F48091F5118F3F81F48091F6118F3F61F48091F7118F3F41F48091F8118F3F21F48091F9118F3F71F00E9436480E9483
S28400568036486D96282F392FF90188E0019009928150E1F708C08D8F8E8F8F8F88A389A38AA38BA38CA3F80183A98823D1F00E94407E8823B1F0D801DC968C91DC97882381F085E251968C93519785E69CE21C969C938E931B97C801499653969C938E935297CDB7DEB7E5E00C9420DA8F929F92BF92CF92DF92EF92FF920F931F93DF9379
S284005700CF930F92CDB7DEB76B01B42E790180901108909012080091100826E1029F80011124080D191D009719F126E1822E912C880E991E1DC0F4012589243A11F02A3A99F4F4018085B81679F481859285C816D90651F4C401B70148E050E029830E949BDA29810097B9F026E130E0820E931E8016910600F388249924C4010F90CF91DE
S284005780DF911F910F91FF90EF90DF90CF90BF909F908F900895243A39F7EFCFA0E0B0E0E4EDFBE20C9400DA8C01B62EC0911108D09112089091100886E1989F70011124EC0EFD1E3CE0C32ED12CC00ED11E35C0F8012185328590858D89843A11F08A3A59F58885981741F589859A852817390719F5CE01B80148E050E00E949BDA00971A
S284005800D9F429C0813049F4F801248535858C859D852817390781F417C0F80194898C89981751F4BE01645F7F4FC60148E050E00E949BDA009741F06696CE15DF0540F2F801B58AC0E0D0E07E01CE01CDB7DEB7E9E00C941CDAF80183859B85891761F7D1CFFC0181859285DC01A05BBF4F21E63EE22D933C93DC01AE5BBF4F22E02C9351
S284005880DC01AD5BBF4F228133812D933C93DC01A85BBF4FED93FC93DC01A35BBF4F25852C93FC01E45BFF4F21E02083FC01E65BFF4F1082FC01E25BFF4F1082FC01E15BFF4F20830E94898808950F931F93CF93DF93EC0109851A85F801EB5BFF4F8081855F80830A5B1F4FF80160817181CB010B9646E350E00E94B1DAF8010081118146
S28400590081E0F80180830E943D28F80181838EE0828383858F7D8083D80113963A892B89832F922FFC0188E001900D928150E1F7CE010E94312CDF91CF911F910F91089520910F082F5F20930F080E9489880895AF92BF92DF92EF92FF920F931F93DF93CF930F92CDB7DEB78C015B01FB01E75AFF4F87ED99E291838083FB01E55BFF4F97
S28400598082E08083FB01E45BFF4FD80113968D919C91149791838083FB01ED5AFF4F58968C9158978083FB01EC5AFF4F1082FB01EB5AFF4F81E08083FB01EA5AFF4F8083FB01E95AFF4F808357968C91579786FD0DC081E090E013962D913C911497BFEF283F3B0728F080E090E002C081E090E0F501E85AFF4F8083E0905413F09055134F
S284005A00C8010E947C288823E9F120910414422F50E08091071490E001974817590711F0DE2C06C02E9D802D1124F801D388D81A4091191450911A14425D5F4F30E02E9DC0012F9D900D3E9D900D1124D80155962D913C915697280F391FCA01B9014D2D50E00E94A8DAF501E25BFF4F8D2D865F8083F501E15BFF4F8091191490911A1412
S284005A80849611C0F501E25BFF4FD80153968C915397885F8083F501E15BFF4F55968D919C915697089791838083F501E15BFF4FE080F180F7012081822F8C7E8083D80113968D919C911497207EBFEF873F9B0710F02860F7012083D7019C91892F8F7D8C93F801278922FD03C09F799C9321C08064D7018C93F5012085207F216020875A
S284005B00C80129830E947C2829812F70882351F0809109148295807F822BD50118968C93189707C08091FE078295807F822BF5018087C8010E947C28D7019C918823E1F090689C939091041418968C911897992359F48C7F816018968C9318978091071419968C9319970BC08C7F8260F701808780910414818703C09F77D7019C93F8010A
S284005B808585D70111968C9311978089918913969C938E9312978685978515969C938E931497828916968C93C8010E947C28882329F080910814F701878305C00E943D28D70117968C93C50109960E94A02C80E00F90CF91DF911F910F91FF90EF90DF90BF90AF9008956091171470911814FB01808191810E94A82C0895E5EBF3E1DF01ED
S284005C00DE96B093B613A093B51392E09093B11320915D1330915E133093B3132093B2139BE09093B4131092B9131092BA1391E09093BB139093BC131092BD132EE13FE23093C0132093BF139093BE1392E89C939091641397AF20916013309161133093F6132093F51320916213309163133093F8132093F71390915F139093F91390917E
S284005C8065139093FA1392E09093FB1390915B139093FC1390915C139093FD13909102149093CE131092561310925713109258131092591380934E138FE693E10E94A02C0895CF93DF93DC0113968D919C911497FC01C185D2852689378912966C91F9010995CE010E94B67DDF91CF910895CF93DF93EC01788169815A814B813C812D819E
S284005D009E818F817F3F81F46F3F09F03FC05F3FE9F54F3FD9F53F3FC9F52F3FB9F59F3FA9F58F3F99F548C07D3F79F46F3F71F55F3F61F54F3F51F53F3F41F52F3F31F59F3F21F58F3F11F53AC07C3F79F46F3FE9F45F3FD9F44F3FC9F43F3FB9F42F3FA9F49F3F99F48F3F89F42CC07B3F71F46F3F61F45F3F51F44F3F41F43F3F31F44B
S284005D802F3F21F49F3F11F48F3FF9F08091FA119091FB112FEF883F920748F4CE0162EF71E148E050E00E949BDA009789F0CE010E944D7A9C010EC02EE432E00BC020E532E008C022E532E005C024E532E002C02AEF31E1C901DF91CF910895EF92FF92CF93DF9387EF97E00E944F8BE82EE7017E01F92EE7018A899B890E94772E00970F
S284005E0079F0FC01808191819B838A838FE198E298878F8389898E83C70104960E94A37D8091F7079091F807009719F083E00E946429DF91CF91FF90EF9008951F9380910F08815080930F0880914E138330C9F1109103141123A9F181E080934E136091FC1170E061507040882777FD8095982F2AE030E040E050E00E9496D92091230827
S284005E80309124084091250850912608620F731F841F951F2091FE0730E040E050E00E9496D9609356137093571380935813909359131150109303148FEF97E00E945D910AC010924E13109256131092571310925813109259131F910895A3E0B0E0E3E7FFE20C9401DA8C01675F7F4F7B836A838DE0BE016F5F7F4F0E9442158981D80177
S284005F0053964C915397882309F449C08A819B81FC01EE5BFF4F21E02083FC01ED5BFF4F13962D913C91149731832083FC01EB5BFF4F485F40835596ED90FC905697E8EFFFEFEE0EFF1E56E4C52ED12CC80ED91ED601ED92FC928FEFF7018183D80150968D919C915197938382831E968D919C911F979583848352968C9186830E943D288E
S284005F80F7018783D601ED91FC91119788E08083EA81FB81E05BFF4F87ED99E246C08A819B81FC01EE5BFF4F22E02083FC01ED5BFF4F2DEF3FEF31832083FC01EB5BFF4F475F4083F801E588F68827EF3FEFE20EF31E46E4C42ED12CC80ED91ED601ED92FC9283819481F70192838183D80150968D919C915197948383831E968D919C9187
S2840060001F979683858352968C9187830E943D28F7018087D601ED91FC918CE08083EA81FB81E05BFF4F83ED90E391838083EA81FB81E65BFF4FD80158968C918083EA81FB81E55BFF4F8091F1118083EA81FB81E45BFF4F81E08083EA81FB81E35BFF4F8083EA81FB81E25BFF4F8083EA81FB81E15BFF4F80838A819B810E94A02C80E060
S2840060802396E8E00C941DDAA1E0B0E0EAE4F0E30C94FDD94C017B010E9436486C01F701EB59FF4F0081118158EA5F0129C0F50111830083F80183858330A9F4C8010C960E94772E0097D9F0F8012489F4012587FC0180819181F40194838383C401B7010E94A82C0AC0F80184859585F40194838383C401B7010E946D2F582F0EC059EAC6
S284006100F40160897189C8014289960159830E94762B8C015981009751F6852F2196ECE00C9419DA1F93CF93DF93EB01FB01EB59FF4F118210820E944430182F882319F0CE010E94F828812FDF91CF911F910895A4E0B0E0EEEAF0E30C9406DA182F89E1BE016F5F7F4F0E944215612F70E080E090E02091130830911408409115085091E9
S28400618016080E9496D99B01AC0189819A81AB81BC81280F391F4A1F5B1FB901CA012496E3E00C9422DA0F931F93CF93DF93EC018C0102551040FC013C970190F081E02D818192816FEF0E942169882349F0229787ED99E299838883C8010E94E36B03C0CE010E94D729DF91CF911F910F910895CF93DF930E9482DAEC0164E0CC0FDD1F86
S2840062006A95E1F7C0700E9482DA282F30E02C2B3D2BC901DF91CF9108952FEF883F920738F42091FA113091FB112817390721F00E9462759C0102C022EF31E1C9010895CF93DF93FC01EC01C255D04082818823B1F4DF011A970D90BC91A02D8C91853071F43F9714962D913C911597808191812817390721F4CD0108960E94979DCE016C
S2840062800E94B67DDF91CF910895A9E0B0E0EBE4F1E30C9407DAFC01A281B38119968C9119978430F1F41A960D90BC91A02D0190F081E02D8081898381818A8382818B8383818C8384818D8385818E8386818F838781888713968C918987CE0101960E94BF9B81E02996E2E00C9423DAA0E1B0E0ECE7F1E30C9407DADC011296ED91FC911F
S284006300139781858B30B9F50284F385E02D0D90BC91A02D8C91898311968C9111978A8312968C9112978B8313968C9113978C8314968C9114978D8315968C9115978E8316968C9116978F8317968C9188878381898784818A8785818B8786818C8787818D8780858E8781858F878285888BCE0101960E94119C81E06096E2E00C9423DA05
S284006380A3E1B0E0E6ECF1E30C9405DADC011296ED91FC91139781858E3009F042C00284F385E02D0D90BC91A02D8C91898311968C9111978A8312968C9112978B8313968C9113978C8314968C9114978D8315968C9115978E8316968C9116978F8317968C91179788870381148125813681478150856185728509871A872B873C874D8787
S2840064005E876F87788B838594859B8B8A8BE585E98BE23011F00E947D7ACE0101960E94D99181E06396E4E00C9421DA8FE36BE473E10E94421586E56CE473E10E94771520914C1330914D1360E085E390E00DC0462F50E0489FF001499FF00D589FF00D1124E20FF31F10826F5F40914B13641778F38EE364E473E10E94421585E569E407
S28400648073E10E94771580914413E0914913F0914A1390E006C027812E7F27839F5FE959FF4F9817C0F390914B1390934513823008F0815080934613109247131092481386E464E573E10E94421585E463E573E10E94421580915313882351F087E56FE473E10E94771588E569E174E10E9477154091531350E08091541390915513489FD8
S2840065009001499F300D589F300D112480914F1390915013820F931F909352138093511310924E130895A1E0B0E0E9E9F2E30C9403DA10E001E027E67FEFE72EF12C42C0129FC0011124E0914913F0914A13E80FF91F378130FF35C080858F70823089F53E7F323011F0363061F583819481A581B6818A309105A105B10548F00A97A10977
S284006580B10983839483A583B68300E01AC08085807F846080871382148215821682363059F4C7010090FC1102C0880F991F0A94E2F780958093061481E029830E94642929811F5F80914413181708F4B9CF8091561390915713A0915813B09159130097A105B10591F08B309105A105B10550F00A97A109B109E4E4F3E1828B938BA48B50
S284006600B58B09C082E00E94FD2D002321F08FEF97E00E9467912196E6E00C941FDAEF92FF921F93CF93DF93162FE82EE7017E01F92EE701662399F428A139A14AA15BA16CA17DA18EA19FA10E943F78009719F060E00E94436BCE0180960E94AC6618A7E9A5FAA5CE0188960995DF91CF911F91FF90EF900895A1E0B0E0E1E4F3E30C9452
S28400668003DA7C01FB01208131814281538164817581868197810E943F788C01009709F447C0DC018C91813019F0853009F040C021E0853009F420E0F70180819181622F29830E94BB7DFC01E05BFF4F40E251E351834083FC01EE5BFF4F32E03083FC01ED5BFF4FD80114964D915C91159751834083FC01E85BFF4F11830083FC01E45BD2
S284006700FF4F1082FC01E65BFF4F31E03083FC01E25BFF4F1082FC01E15BFF4F1082FC01E35BFF4F298120830E94898880E001C081E02196E6E00C941FDAA5E2B0E0E3EAF3E30C9401DA7C01DC011296ED91FC911397028513858185853008F48AC0D80113969C911397913019F0953009F081C0853209F07EC0A5E1CA2ED12CC00ED11E3C
S284006780D60180E09D91992321F48F5F8830D1F701C091E081E08927D80113969C911397953069F49389992339F4F7019481923B19F0913B09F05DC0882319F05AC0882361F40E943648BC01C801459648E050E00E949BDA009709F040C0D80113968C9113978B875D968C915D9789835E968C915E978A835F968C915F978B8390968C9143
S28400680090978C8391968C9191978D8392968C9192978E8393968C9193978F8394968C918887D7011296ED91FC911397858196819A87898714968C918DA3F80184898C87DE011D96349680E101900D928150E1F7CE0101960E94AB9C0CC0D80113968C911397813031F4C7010296B6010E943B3301C081E0A596E8E00C941DDA0F931F9370
S284006880CF93DF938C01FC01C281D38189858134E1F5808191812091F2112F3FE1F42091F3112F3FC1F42091F4112F3FA1F42091F5112F3F81F42091F6112F3F61F42091F7112F3F41F42091F8112F3F21F42091F9112F3F41F062EF71E148E050E00E949BDA009791F48A89882379F06A857B8586E38987CB010B969B878A876D5F7F4F6B
S284006900C80102960E943B3301C081E0DF91CF911F910F910895A1E0B0E0E1E9F4E30C94FFD98C01DC011A96CD90DC901B97F601808186FFEBC08370813011F441E001C047E0F0904413E0914913F0914A13E45BFF4F50E0842F90E09601280F391F20C0DF01AC54B04017966C9117976530A9F4D8011596AD90BC90169760817181A6161E
S284006980B70659F4A380B480A80EB91ED9017C91D5016C91761709F4B9C05F5FE959FF4F5F15F0F282E049830E948D284981009709F4ACC0FC01E15BFF4F0190F081E02DDF0196972FEA11962C93119713961C930E931297DC01A55BBF4F62E06C932CE4E22EF12CE80EF91ED80115962D913C911697D7012D933C93DC01AD5ABF4F1C924F
S284006A00DC01AC5ABF4F1C92DC01AB5ABF4F51E05C93DC01AA5ABF4F5C93DC01A95ABF4F1C92DC01A75ABF4F27ED39E22D933C93DC01A85ABF4F5C9320812C7F22602083D6013C913C70237F232B20833C9130712F7E232B322F3F7930833C9130782F71232B20832C9150E0BEE4EB2EF12CE80EF91E24FF0DC0D8011A962D913C911B974B
S284006A80240F351FD9012C912183F701608339C028E0D7012C93D60116962C911697218312962D913C9113973383228314962D913C9115973583248311962C912683D8011A962D913C911B97240F351FD9012C912783D6012C9127FF14C018962C911897237031F41086F70120812F5F208309C0D7012C912D5F2C93D60118962C9123707A
S284006B00208709960E94A02C81E001C080E02196EAE00C941BDA0F931F93CF93DF938C01FC01C081D1816E3C11F0603F11F423E001C022E0F801E05AFF4F80819181A281B3818C8F9D8FAE8FBF8F6B8F233049F08A81882331F4CE01B8010E944430883A61F4AE01445E5F4FF801808191816B8D0E947D29C8010E94F828DF91CF911F9141
S284006B800F910895CF93DF93EC01009709F44AC086EA8D8B8885882309F444C08F3F09F441C08B85833031F48C898823D9F18F3F19F438C08130B1F51D8ACE0160E00E94CE2B009709F530911008809111089091120820E00BC0FC0145894696483A29F484EA858B309739F41DC02F5F231798F38EEA8D8B17C0DF0186E109900D928150BD
S284006C00E1F784EA858B09C0CE0166EA0E94CE2B24EAFC01258B009729F080E160E070E00E94B390DF91CF910895FC01009709F186EA858B80858823E1F08F3FD1F08385833031F484898823A1F08F3F19F40895813079F4158ACF0164EA0E94CE2B009741F028EAFC01258B80E160E070E00E94B3900895BC0187E298E00E94968B81E097
S284006C800E9464290895BC0181E298E00E94968B81E00E9464290895AAE0B0E0E2E5F6E30C9401DAE090571285E3BE016F5F7F4F0E9442158E01095F1F4F89E1B8010E9442158F819885A985BA852E2D30E040E050E0281739074A075B0760F0880F991FAA1FBB1F8F839887A987BA8789E1B8010E945D152E2D30E02B503F4F442737FD3B
S284006D004095542F20931308309314084093150850931608E980FF2400E010E0C801B701660F771F881F991F6E0D7F1D801F911F0E9496D92F81388549855A85620F731F841F951F609323087093240880932508909326088FEF97E060E02AE030E040E050E003E912E30E94709181E08B8385E3BE016E5F7F4F0E9442158A8190E0A0E0C0
S284006D80B0E0880F991FAA1FBB1F8F3F9105A105B10529F020F08FEF90E0A0E0B0E00E94A8306B017C0183E2BE016D5F7F4F0E9442152B8180E090E0DC018C0D9D1DAE1DBF1D81509E4FAF4FBF4FCC0CDD1CEE1CFF1C215091F71B827C018D0169E016950795F794E7946A95D1F70894E11CF11C011D111D1E821D821C8280E4BE016C5F3D
S284006E007F4F0E94421580E5BE016B5F7F4F0E9477156D817E818FEFE816F1040105110531F028F05FEFE52EF12C012D112D87E198E04C8120E032E00E2DEE24E3940E94818F2A96E8E00C941DDA882359F00E94F8308093FA0710920F0883E26EEF77E00E9442151092280810922708109222081092210810920E0810920D0810922C084F
S284006E8010922B088AE090E0A0E0B0E08093101490931114A0931214B093131483EF9DE2909316148093151481E08093141486E26CEF71E10E94421510925C131092651310925A13109261131092601310925B1310925F13109263131092621310925E1310925D131092641310924E131092561310925713109258131092591387E6E6E604
S284006F00F3E1DF011D928A95E9F785E3EDECF3E1DF011D928A95E9F74091531350E080915413909155130196489F9001499F300D589F300D112480914F139091501360E070E0A9010E94C3DA83EF93E19093B6138093B5130E944C360895A0E0B0E0E3EBF7E30C9401DA7C01EC0129978091F5079091F60727E08030920709F061C00AC068
S284006F8087E298E00E944F8BC80163EA40E050E00E947D2900912708109128080115110579F72DC08DE098E0B8010E94608B2091491330914A13C801821B930BB6010E94C1D987E6689FF0011124E20FF31F808191812781269530E02115310521F02130310581F406C0A8014B5F5F4FF801628103C067EA40E050E00E947D2903C037E64F
S284007000C32ED12C00910D0810910E080115110549F610E007E610C0109F900111248091491390914A13820F931FFC01278120FF02C00E94F8281F5F80914413181760F31092F9071092FD0781E00E9425370E9416328A850E94916A8A858370833041F01092F8071092F7071092FC071092FB078A850E9459920A85102F117006950170B1
S2840070808AE561E178E00E94771584E460E178E00E944215000F012B033099F0E0911108F09112089091100886E1989FC00111248E0F9F1F28EA02C0258B7696E817F907D8F38A8581FF03C08FE394E002C080E393E09093F6078093F507F70180818E8789E298E00E944F8BEC85FD85CE010E9609958091290890912A08009719F080E0B7
S2840071000E946429CDB7DEB7E8E00C941DDACF93DF93C0912908D0912A088A818A3821F1853C09F44AC0893109F065C08091F5079091F60721E08031920719F480E092E002C080E097E09093F6078093F5078A858D838B858E838DEA97E398878F83CE0103960E94067E47C08091F5079091F60723E08033920721F026E08031920751F4C7
S2840071808FE394E09093F6078093F5070E944C361D8202C083EA8D8389E298E00E944F8BEB81FC81CE01059609958091290890912A08009701F180E017C08091F5079091F60724E08F33920791F480E095E09093F6078093F50782E090E09C838B838FEF97E00E94679181E00E94642904C0CE0163EA0E94802ADF91CF9108959C018FEFE9
S2840072006F3F780731F4832F8095881F8827881F089581E02617370709F080E00895FC01009729F480912D0890912E0808958081918108951F93182FE0E0F0E005C0A381B4818C91181731F0CF010E940F39FC010097A9F7CF011F910895CF93DF93EC010097E1F086EA8F83EB81FC813097B1F08081982F9150903F88F40E941A3900974E
S28400728069F421E08D819E81009709F020E02A838DE298E0BE010E94968B1F82DF91CF910895A0E0B0E0E7E5F9E30C9402DAEC0100E010E026C0D80112968C911297882301F51396ED90FC9014976C8D7D8DF701818192810E94FE38882399F0D701DC908B8D8D1539F4EF84F8880E94A466E816F90639F08B819C816D2D0E942169882388
S28400730039F4C8010E940F398C010097A1F609C0DD86D8011596ED91FC911697CE010995F0CFCDB7DEB7E7E00C941EDAADE2B0E0ECE9F9E30C94FDD98C01C62EDC011A96ED90FC901B9715962D913C91169787E198E0B901F70147810E94EF8F882309F42AC1D70111968C911197982F91509E3F30F40E941A395C01009719F41CC1AA24D4
S284007380BB24F801228183819481213009F022E02B839D838C83D70111968C918E87F801858196810E940D31FC01009799F083E08F8780818A8B81818B8B82818C8B83818D8B84818E8B85818F8B8681888F8781898F02C082E08F87D80115968D919C911697998B888B17968D919C9118979B8F8A8FF70186818C8F848195819E8F8D8F59
S2840074008281938198A38F8F19968C91199790E09C012A5030403AA329A31DA2208127FD04C09C012850304009C0D70118962C911897237029F49C01295030403AA329A329A13AA1821B930BF80122853385280F391F3CA32BA3CEA282898FA3848588A786859785A089B18989A79AA7ABA7BCA785858DA7D7018C9187FF53C018968C9174
S28400748018978370823009F04CC0E0915113F0915213808189A31AA28080992441E0C42ED12C33C080914F1390915013DC01A80DB91DE0915113F0915213EC0DFD1D40816091541370915513C69E9001C79E300DD69E300D1124280F391FCD01B90150E00E94A8DAE0915113F0915213EC0DFD1D208189A19AA1820F911D9AA389A38081B6
S284007500880E911C0894C11CD11C80915A1390E0C816D9063CF280914F13909150139CA38BA3A114B10449F0D5011596ED91FC911697CE01019609953EC0F8018281813029F4CE0101960E94513935C0D70111968C9111978F3F59F5EE24FF246E010894C11CD11C1DC0D7011396ED91FC911497A080AA20A9F012968C911297882381F462
S2840075806D8D7E8D818192810E94FE38882341F0AE86D7011596ED91FC911697C6010995C7010E940F397C010097E9F604C0CE0101960E94189EF801168A0488F589E02DC80146960995AD96ECE00C9419DAA0E0B0E0EDEEFAE30C9402DA8C01DC011A96CD91DC911B978981982F91509E3F98F40E941A397C01009799F1DC011396ED919B
S284007600FC9114976C817D81818192810E94FE38882331F102C0EE24FF24888187FF03C098859370E9F486FF19C08C708830C1F0F80185819681FFEF873F9F0788F4E114F10431F0D70112968C911297882341F4C8010E948B3491E09827A1C181E001C080E0988197FF92C1F8849F2D937009F48DC1F8018185E98440915313442309F425
