S02B0000436F6F7264696E61746F725F53746B3630305F41746D656761313238726661315F384D687A5F4763A7
S2840000000C943D040C942D150C945A150C9487150C94B4150C94E1150C940E160C943B160C9468160C9475040C9475040C9475040C9475040C945A130C9475040C94A3130C9475040C9475040C9475040C9475040C9475040C9475040C9475040C9475040C94141F0C94811D0C94251D0C94531D0C9475040C94AE1E0C94A3160C947504F9
S2840000800C9475040C9475040C9475040C9475040C940F1E0C94B31D0C94E11D0C94411E0C9475040C9475040C949F140C94FEAA0C9475040C9475040C9475040C9475040C9475040C9475040C9475040C9475040C9475040C9475040C9475040C9475040C9475040C9475040C9475040C9475040C945BAB0C9475040C9475040C9483ABBA
S2840001000C9475040C9475040C9475040C9475040C9475040C9475040C9475040C947504BC0B08000000D70B01000100040C080002006C0B04000300840C010004007B0C01000500E70B01000600E80B01000700E90B01000800F30B11000900D80B02000A00DE0B01000B00860C02000C007E0C01000D00940C01000E000E0C01000F0047
S2840001800F0C02001300180C010014008A0C08001500DD0B01001600CB04BD0017003F09030018002C0B160019002A0410001E004A0404001F00520402002000560417002100840414002200AC0411002300632B0C2CD02CEA2C032D262E532E143214321432143214321432143214321432AC2DBA2D1432F52ADE2DBD2C6B3278329A327B
S284000200943291329A32A4329D349D349D349D349D349D349D349D349D3494329A329D34683297328832E74DF84C2C4E2C4E2C4EFE4C084D2C4E2C4E114D174D404D494D2C4E4F4D584D634D2C4E6C4D724D2C4E7B4DB84DCD4D2C4EBE4DC74DE74DE74DE74DD94DD94DD94DD94DD94DD94DD94DD94DD94DD94DD94DD94DD94DD94DD94DEA
S284000280D94DD94D8F4DD94D2C4E2C4E2C4E2C4E2C4E2C4E2C4E2C4E2C4E2C4E2C4E2C4E2C4E2C4ED94DD34DE74DD94D8A4D9E4FFE4EEE4FEE4FEE4F044F094FB54FEE4F0C4F0F4F284F2D4FEE4F304F334F364FEE4F3B4F3E4FB54F434F924FA74FEE4F954F984F024F9B4F9B4FB54FB54FB54FB54FB54FB54FB54FB54FB54FB54FB54F23
S284000300B54FB54FB54FB54FB54FB54F784FB54FEE4FEE4FEE4FEE4FEE4FEE4FEE4FEE4FEE4FEE4FEE4FEE4FEE4FEE4FB54FAA4FAD4FB54F714F0C51115116511B51205125512A512A5138513B5154513E5141514451475154514A514D51545150514A55865586558655505569555C556255965556556F556F55755586558D559155E1552B
S284000380E455E755E755EA55F655F055F3550656ED55F955FC55FF550256B357B757DF57BB57BF57DF57C357DF57D157D557DC571C5CDB5CED5CD65B335D335DE85CED5CF05C1E5D075D335D335D1E5D0A5C215D60786078FA77017801780D780D781E781E78447844784478B0786078BB8DC88DF58D078E0E8E1B8E288E338E3B8E598EA7
S284000400838E458E2CA234A246A24FA251A253A255A258A229A3A2A3A2A351A357A366A36CA36FA372A375A37BA300000100020003000400050006000700080009000A000B000C000D000E000F0013001400150016001A001B0000000100020003000400050006000700080009000A000B000C000D000E000F0013001400150016001700A4
S2840004801800190000000100020003000400050006000700080009000A000B000C000D000E000F00130014001500160000000100020003000400050006000700080009000A000B000C000D000E000F00180000000000000000000000000000000000000000000000000000000000000000000000000000000000000000000000000000006C
S284000500000000000000000000000000000000000000000000000000000000000000000000000000000000000000000000000000000000000000000000000002010002020508080000FFFF341200000000000000000202010040000000000000000000000000000000000000000000000000000000000000000000000000000000000500CC
S284000580FF00000200001E000003341201030300001027000010270000010001E803000004E80300001041746D656C2020202020202020202020000000000000000003010085000000070507040205020402040308010803020A01005F0035000E011410BC0B0800C60B0100D30B0400D70B0100820C0100830C01008A0C0800860C020085
S2840006000F0C0200180C01007E0C0100940C0100840C0100DA0B0100DB0B0100DC0B0100DD0B0100D80B0200DE0B0100800C01007F0C0100960B0100980B0100040C08006C0B0400EA0B0400DF0B0400E30B0400E70B0100E80B0100E90B0100F30B11007B0C0100EE0B0100EF0B04000C0C0100990B02000E0C01000D0C010000000000DF
S284000680C1050200C5050100C3050200C7050100C8050100C9050100CA050100CB050100CC050100CD050100CE050100C6050100CF050100D0050100DE050200D3050100D4050100D5050100DA050400D1050100D2050100D6050100D7050100D8050200AC030000CB040000310400008805000000000000B2050000A20A0000FA0A000059
S2840007008E080000E0080000AA08000017090000420900005C0A000000000000000000003F0900002C0B0000420B00005819471A5C196019431A64193C40664500000000000000000000000063770000938A7B962D70077E0000A372D879297900002E6FAE92156D0F87A46C0000000000000000000000000202030202020101010101019C
S284000780010202010101020202020202020202020202020303020203023475FF6E01077D907B7A01017D907B7A0101000000000101BC74CC930101BC74A59301077474427701011B746393010100000000010700000000010100000000010300009569010400009569010500000000010600000000010C0000000001017D90000000010037
S284000800000000010D0000000001070000000001090000000001000000000001010000000001010000000000000000996D00070000996D000B0000996D00000000996D00B0660000EB66CC66E4660000B766C5660000BE66000091664C695369C5693E69F2660000826B9B95D594E38AEA930000898C000025760000000011248091CC12FC
S284000880823141F084B78F718093CC1280FF05C081E001C081E18093CC1214BE809160008861809360001092600011241FBECFEFD1E4DEBFCDBF12E0A0E0B2E0E4EFF9E501E00BBF02C007900D92A237B107D9F712E1A2E7B2E001C01D92AC3CB107E1F70E942E210E94F020FDCF0C9400007F937FB7F8949D9AA5988AEF0E94D6048AEF67
S2840009000E94D6049D9886E40E94D60481E0959980E08F9380EF0E94D6048F917FBF7F9108957F937FB7F8949D9AA59886E00E94D6049D988AE00E94D604889495990894881F8F9384E60E94D6048F917FBF7F9108959F937F9398E00E949104879577959A959923C9F7872F7F919F9108957F937FB7F894A5989D9A8F9386E00E94D6044A
S2840009808F91879508F49D988F9384E60E94D6048F919D987FBF7F9108959F9398E00E94B7049A959923D9F79F91089500000000000000008A958823C9F708955F937F937FB7F894CF93DF93C0E0D0E07F935091B2007091B2007517E1F3739521965091B2005717D9F77F91CE01DF91CF917FBF7F915F9108950F93DF93CF93CDB7DEB73C
S284000A0060970FB6F894DEBF0FBECDBF002309F459C029833A834B835C836D837E838F839887E0E2E01B29813A814B815C811E16BCF019861A861B861C868E2F992787FD9095909581959F4F04C0220F331F441F551F8A95D2F72D873E874F87588B2AC0CA01B901002E04C0660F771F881F991F0A94D2F769877A878B879C87DA01C90111
S284000A8004C0B695A79597958795EA95D2F72D813E814F81588504C0220F331F441F551F0A95D2F7822B932BA42BB52B8D879E87AF87B88B29853A854B855C856D857E858F85988960960FB6F894DEBF0FBECDBFCF91DF910F91089580E00E94450D81E00E94450D82E00E94450D08951F93182F8FE792E00E94A10E1130F1F4809185028C
S284000B0090918602A0918702B0918802B695A795979587958093850290938602A0938702B093880282339105A105B10578F582E390E0A0E0B0E022C0123041F58091850290918602A0918702B0918802880F991FAA1FBB1F8093850290938602A0938702B0938802893823E1920720E0A20720E0B20760F088E893E1A0E0B0E0809385022E
S284000B8090938602A0938702B09388020E946C058FE792E00E94750E1F910895809100020E94760580910002813011F482E001C081E08093000208950E94300D80E00E94380D81E00E94380D82E00E94380D80E090E066E775E00E94750C80E197E2A0E0B0E08093780290937902A0937A02B0937B0210927C028EEC95E090937E0280938B
S284000C007D0282E792E00E94750E84EF91E0A0E0B0E08093850290938602A0938702B0938802109289028CE695E090938B0280938A028FE792E00E94750E089508950895089508950895A6E0B0E0E9E2F6E00C941AAC8E010F5F1F4F26E0F80111922A95E9F7FC0123E0F695E7952A95E1F7E00FF11F8770907021E030E002C0220F331F5D
S284000C808A95E2F72083C8010E944F0AD801EAE8F3E0CE0107963D912081232B2193A817B907C9F78091A50384608093A5032696E4E00C9436AC02C00E942B210E9411108823D1F708950F931F93CF93DF938C01EB010E945B06C801BE010E94380F2FEF8F3F920739F086E0C232D80729F40E945B0602C081E001C080E0DF91CF911F9139
S284000D000F9108950F931F93CF93DF938C01EB010E945B06C801BE010E949C0F2FEF8F3F920739F086E0C232D80729F40E945B0602C081E001C080E0DF91CF911F910F9108952F923F924F925F926F927F929F92AF92BF92CF92DF92EF92FF920F931F93DF93CF93CDB7DEB762970FB6F894DEBF0FBECDBF8091A50382608093A50382FF3B
S284000D8094C08CE892E06AE873E00E94000B8091A5038B7F8093A50388C0E0909202F0909302F70103E0F695E7950A95E1F7E858FC4FC70187709070960102C0220F331F8A95E2F7C901809592898923828B69857A854B855C8580E00E94200B982E588A4F863A8A298A8F81988505979E878D87C50162E276E00E9463068A819816A1F5DE
S284000E008D819E81E816F90679F52B853C858B819C812817390741F581E090E08C0F9D1F988B8F87DA8AC98A00E010E017C08F819885800F911F9E878D87C50162E276E00E946306AF85B889E985FA85E00FF11F9C918081981741F40F5F1F4F8B859C850817190720F336C09A82FE82ED828B859C859C838B83CE010296988B8F8785E081
S284000E8090E09A8B898B8F81988505979E878D87CE010D9662E276E00E948206CE01079661EA76E00E94820627C017E0612E712C6C0E7D1EB1E0CB2ED12CA2E04A2E512C4C0E5D1EF5E02F2E312CEDE0AE2EB12CAC0EBD1E8CE892E0B3010E94EF09882309F05BCF8091A5038D7F8093A5038FE060E070E00E94462062960FB6F894DEBFCA
S284000F000FBECDBFCF91DF911F910F91FF90EF90DF90CF90BF90AF909F907F906F905F904F903F902F900895282F392FF90180E09191992329F48F5F8630D1F780E0089581E008959C01CB0146E0DB011D924A95E9F7F90143E0F695E7954A95E1F7E60FF71F2770307041E050E002C0440F551F2A95E2F72081242B20830E944F0A089545
S284000F80972F882319F08130A1F40EC0A0E9B3E0E62FF72F9D9180818923819383E0A639B807C1F791E006C0862F0E94920B91E0811190E0892F08950E9423068091A50381FD02C00E94A10681E00895A6E0B0E0ECEEF7E00C941AAC8E010F5F1F4FB8010E94A20780E0B8010E94C007C8010E949407882381F0A4E8B3E0F8019D918081DA
S2840010008923819383E0AA38B807C1F7CE0101960E94940701C080E02696E4E00C9436ACA8E1B0E0E6E1F8E00C9410AC00E211E010937903009378038AEA91E090937B0380937A038AEA91E0801B910B26E030E0B9010E94D6AB80917C0390917D03682B792B70937D0360937C038EEC91E08A5A9140B9010E94D6AB80917E0390917F03E1
S284001080682B792B70937F0360937E031092800310928103109282031092830386E0E0E9F3E0DF011D928A95E9F7AA2483E1882E912C8C0E9D1EB1E0CB2ED12C38C0C401B80146E050E00E94A7AC8D899E890596A0E0B0E020918003309181034091820350918303820F931FA41FB51F8093800390938103A0938203B09383038F89988D5C
S284001100FC01A3E0F695E795AA95E1F7E858FC4F87709070960102C0220F331F8A95E2F7C901208D282B208F0A5F1F4FA39420917C0330917D038A2D90E08217930708F4BECFC901880F991F820F931F880F991F04966C01EE24FF24CE010D969A87898786E090E09C878B87AA24BB2400E010E067E0862E912C8C0E9D1E53E1652E712C18
S2840011806C0E7D1EF80143E0F695E7954A95E1F7E858FC4F808D90E098012770307002C0969587952A95E2F780FF3DC0C501880F991F8A0D9B1D880F991F049698878F83C40162E276E00E94630689899A898017910749F48D859E85AF85B8898C159D05AE05BF0559F01A8B098BCD86DE86EF86F88AC40162E276E00E948206C8010E94F5
S2840012003309BC01C30146E050E00E94A7AC8D899E890596A0E0B0E0C80ED91EEA1EFB1E0894A11CB11C0F5F1F4F0D32110509F0A9CF0E942A09CE0101960E94920B6896EEE00C942CAC8091A3039091A4030E94DC0708951092A00383E299E09093A2038093A1030895A2E0B0E0E9E3F9E00C9412AC4C010091780310917903EE24FF2465
S2840012805E010894A11CB11C13C06801B8016C5F7F4FC50142E050E00E94A7AC0A5F1F4F89819A818815990561F00894E11CF11C80917C0390917D03E816F90630F3CC24DD24C6012296ECE00C942EACA2E1B0E0ECE6F9E00C9419AC8B01BC0153E0769567955A95E1F7FB01E858FC4F208D30E0AC014770507002C0369527954A95E2F7BE
S28400130020FF4AC0DE011D96E0E9F3E026E001900D922150E1F7FF2420E030E0FE013D961BC0DF01A40FB51F4C91542F569555754575540F452F4695469543735373450F4C93A42FA295AF7050E04F7050704A0F511D240F351FF3944F2D50E04617570700F3A0E087709070FE013D96E60FF71F0DC0408150E00A2E02C0569547950A94C8
S284001380E2F741705070240F351FAF5F4A2F50E04817590770F302C02FEF3FEFCE0107969C838B83C901880F991F820F931F880F991F04969A83898386E090E09E838D83CE01019662E276E00E9463068F819885F801918380836296E5E00C9435ACA6E0B0E0E5EFF9E00C9418AC7C018B0180E090E0FC0163E0F695E7956A95E1F7EE0D83
S284001400FF1D6081AC0147705070262F30E0042E02C0369527950A94E2F720FF10C021E030E002C0220F331F4A95E2F72095262320830E943309BC01009731F426C001968D329105B1F621C0CE01019646E050E00E94A7AC89819A81F801938382838D819E81B8010E946609F801808191810596918380838B819C81958384838D819E818C
S284001480F7019783868381E006C08FEF9FEFF7019783868380E02696E6E00C9434AC4F925F926F927F929F92AF92BF92CF92DF92EF92FF920F931F93DF93CF93CDB7DEB728970FB6F894DEBF0FBECDBF8C0130917A0320917B03FC01858186FD12C0C901E92EF82ECC24DD2483E0482E512C4C0E5D1EB1E0AB2EB12C3E010894611C711CA9
S28400150061C0C8016FEF70E046E050E00E94D8AC61C0C201B70146E050E00E94A7AC2F813885F901A3E0F695E795AA95E1F7E00FF11F408127703070842F90E0022E02C0969587950A94E2F780FF35C0C50102C0880F991F2A95E2F79C01209524232083992422C0880F991F6B817C81680F791FC30142E050E00E94A7AC89819A81FC0167
S28400158073E0F695E7957A95E1F7E00FF11F87709070950102C0220F331F8A95E2F7C9012081282B20839394892D90E02D813E8182179307B8F20894C11CD11C86E090E0E80EF91E80917E0390917F03C816D90608F49FCF28960FB6F894DEBF0FBECDBFCF91DF911F910F91FF90EF90DF90CF90BF90AF909F907F906F905F904F90089508
S284001600CF93DF93EC018FEF9FEF9F838E83DE01862F972FFC0186E001900D928150E1F7CE010E944F0AE0E9F3E0919188818923899383E0E639F807C1F7DF91CF910895262F372FF90120E030E004C09191890F2F5F3F4F24173507C8F30895ACE0B0E0E4E3FBE00C9415AC7C018B01CE0102969A87898785E090E09C878B87FB018081DB
S2840016809181059798878F8387E0C82ED12CCC0EDD1EC60162E276E00E9463068D819E81E816F906C1F5F801248135818B819C812817390781F5CE0101969A87898781E090E09C878B87EE24FF24BB24C601DC2CC92E18C0F801808191818E0D9F1D98878F838D2D9C2D62E276E00E94630669857A858B2D41E050E00E94200BB82E0894C9
S284001700E11CF11CF80184819581E816F90610F38A81B81611F082E001C080E02C96E9E00C9431ACAEE0B0E0E8E9FBE00C9414AC8C0147E0E42EF12CEC0EFD1EC701B8010E94000B86E0D8011D928A95E9F7BE2CAF2C7E010894E11CF11C31E0C32ED12C1DC08D859E85B7010E942E0B8823B1F48D859E85FC0123E0F695E7952A95E1F7F3
S284001780E00FF11F87709070960102C0220F331F8A95E2F7C9012081282B20838B2D9A2DB7010E94EF098823E1F62E96EAE00C9430ACE091A803F091A90381E060E070E009950895E091AA03F091AB0381E060E070E009950895E091A603F091A70380E090E00995089589B181700895589A089581E0499B80E00895599A089581E04D9BAC
S28400180080E008955D9A089590919A02992351F09091A102992341F09091A8029923B9F422E003C020E001C021E030E0F90193E0EE0FFF1F9A95E1F7E21BF30BEC56FD4F8083738362835583448381E0868308950F931F93CF93DF9308E912E0C0E0D0E0D801ED91FC9109959E0143E0220F331F4A95E1F7882371F0F901EC1BFD0BEB56D1
S284001880FD4F808182FF25C080818B7F8083808182600DC0F901EC1BFD0BEB56FD4F808182FD17C08081846080838081816080838091AE0281608093AE022FB7F8948091020390910303916090930303809302032FBF2196095F1F4FC330D10509F0C0CFDF91CF911F910F9108950F931F93CF93DF932091AD02222309F067C021E0209348
S284001900AD029093AA028093A9027093AC026093AB0280E062E048E25CE00E94ED0E81E062E048E25CE00E94ED0E85E062E048E25CE00E94ED0E80E00E941A0F81E00E941A0F85E00E941A0F81E066EF7BE043EF5BE00E94040C82E06CEF7BE048EF5BE00E94040C80E262E07CE04EEF5BE00E94040C06E912E0C0E0D0E0D801ED91FC91AE
S284001980099581E00E942D0ED8011296ED91FC911397099591E0811190E0FE0153E0EE0FFF1F5A95E1F7EC1BFD0BEB56FD4F990F990F80818B7F892B80832196095F1F4FC330D105D1F680E001C081E0DF91CF911F910F9108950F931F93CF93DF9304E912E0C0E0D0E0FE01A3E0EE0FFF1FAA95E1F7EC1BFD0BEB56FD4F808180FF0CC0AE
S284001A0080818E7F8083E091A902F091AA02309719F0D8018C910995FE0173E0EE0FFF1F7A95E1F7EC1BFD0BEB56FD4F808181FF0CC080818D7F8083E091AB02F091AC02309719F0D8018C9109952196095F1F4FC330D10541F6DF91CF911F910F9108956A9A729A6B9A739A6C9A749A80E00895813039F0813018F0823031F404C07298F0
S284001A8008957398089574980895813041F0813018F0823069F408C08EB194E002C08EB198E089278EB908958EB190E189278EB908958091AE0280FF07C08091AE028E7F8093AE020E94EB0C8091AE0281FF07C08091AE028D7F8093AE020E94D90B8091AE0282FF07C08091AE028B7F8093AE020E94E20B8091AE0283FF07C08091AE023D
S284001B00877F8093AE020E94EB0B8091AE02882361F02FB7F8948091020390910303916090930303809302032FBF089588E3EBE9FBE0DF011D928A95E9F785E08093C60B8FE09CE06EEC74E046E850E00E94A7AC8CE69BE064E575E04FE250E00E94A7AC8AE69BE063E875E042E050E00E94A7AC83ED9BE065E875E04CE350E00E94A7AC65
S284001B808EEB97E0ECEAF3E0DF019C011D9221503040E1F70895A4E0B0E0E1EDFDE00C941CAC682F70E0660F771F660F771F60527A4FCE01019644E050E00E94A7AC69817A818B819C812496E2E00C9438AC0E94960D0E9410080895EF92FF921F93CF93DF93182FEB01209761F00E94CB0DAC01183220F0CE010E94A7AC03C0CE010E9481
S284001C00BDACDF91CF911F91FF90EF900895EF92FF92CF93DF93EB01209771F0883260F406C0CB01BE01A9010E94BDAC05C00E94CB0D9C010097A9F7DF91CF91FF90EF900895CF93DF93EB010E94CB0D009711F479836883DF91CF9108950E94D6040895EF92FF920F931F93CF93DF9318C08FEA92E060E070E0AE010E9400128A85882352
S284001C8059F4EA82FB820C831D838FEA92E0BE01A80197010E944810EB85FC8509958091AF029091B0020097D9F00E9494147B018C01C091AF02D091B0028A819B81AC81BD81A8019701281B390B4A0B5B0B8E819F81A885B985281739074A075B0738F6CDB7DEB7E6E00C9434ACCF93DF93EC01009771F0E091AF02F091B00206C0EC1764
S284001D00FD0749F00190F081E02D3097C1F709C02FEF3FEF02C020E030E0C901DF91CF9108950E9494149B01AC01198218826A837B838C839D838FEA92E0BE010E944810EACFCF93DF93EC010097D1F08091AF029091B0028C179D0749F08FEA92E0BE010E941F12BC01009719F40AC060E070E08FEA92E0AE010E94001220E030E002C0B0
S284001D802FEF3FEFC901DF91CF9108958F929F92AF92BF92CF92DF92EF92FF920F930E94C6124B015C012091B20230E040E050E060E070E080E090E000E20E94FB04282939294A295B290F91FF90EF90DF90CF90BF90AF909F908F9008950F931F93CF93DF93EA018830F0F4082F10E0F801EE0FFF1FEF53FD4F208131812115310591F4CB
S284001E00613081F0209771F0611161500E94C514F801EE0FFF1FEF53FD4FD183C08320E030E002C02FEF3FEFC901DF91CF911F910F9108958830C0F4E82FF0E0EE0FFF1FEF53FD4F208131812115310569F09DB321E030E002C0220F331F8A95E2F7922B9DBB20E030E002C02FEF3FEFC9010895FC018091B102882309F057C0309709F43B
S284001E8057C08481958120813181820F931F20E18130920708F04CC081E08093B10270939C0C60939B0CA5E9BCE086E001900D928150E1F7F999FECF80E090E017C0E091970CF091980CE80FF91F2091950C3091960CA9014F5F5F4F5093960C4093950C32BD21BDF89A20B5208301962091990C30919A0C8217930710F310929A0C1092A4
S284001F00990C8091D80284608093D8022FB7F8948091020390910303826090930303809302032FBF20E030E005C02EEF3FEF02C02FEF3FEFC9010895CF93DF93FC019B018091B102882309F063C0309709F463C06081718184819581860F971F40E18130940708F058C081E08093B102A5E9BCE086E001900D928150E1F730939C0C209363
S284001F809B0C2115310519F4C0E0D0E033C0CB0101969093960C8093950CE091970CF091980C4191F093980CE093970C8CE00E9495168091990C90919A0C019790939A0C8093990C22C06091950C7091960CCB0101969093960C8093950CE091970CF091980C4191F093980CE093970C84E00E94951621968091990C90919A0CC817D90727
S28400200010F3F999FECF1092B10220E030E005C02EEF3FEF02C02FEF3FEFC901DF91CF91089581E09091B102913009F080E008958091990C90919A0C009751F41092B102E0919B0CF0919C0C309709F1099508956091950C7091960CCB0101969093960C8093950CE091970CF091980C4191F093980CE093970C8CE00E9495168091990CA0
S28400208090919A0C019790939A0C8093990C0895A2E1B0E0EEE4F0E10C940CAC9A878987DB012B873C874D875E87FC01E080F180E114F10409F497C1222433244B855C856D857E859A01AB0160E070E0CB0129833A834B835C836D837E838F839887F88AEF86F701BA8BA98B02C01F01FC01E280F3800481158126813781408551856B85C9
S2840021007C858D859E856E157F058007910708F48FC060E070E0CB0157016801EE24FF248701622E6A0C77247394621608F07724932E9B0C88248394931608F08824790C55245394791408F055248528542E5C0C99249394541608F09924850C44244394851408F044249428052F0D0D11E0051708F010E0900EEE24E394901608F0EE2492
S2840021801E2944244394161608F0442401E0171608F000E055245394181608F05524A62C7981A71A21E06A1408F020E0972D8A81981B81E0791608F080E0492F421B21E0941708F020E0822B282D9B81291B91E0821608F090E0522F581B81E0251708F080E0982B292DAC812A1B81E0921608F080E0E22EE91A91E02E1508F090E0892B11
S284002200B12FB81B8B2F91E01B1708F090E0242D291B922F21E0491608F020E0302F321B232F31E0021708F030E0142F052F95C039014A01AA24BB24650110950095F094E094E11CF11C011D111D722F7E1961E0271708F060E0872D8F1991E0781608F090E0A82FA61B6A2F552453948A1708F055249529582C501A81E0851408F080E0C4
S284002280B52DB91B9B2F442443945B1608F044248429292D211B31E0921608F030E0E22EE81A81E02E1508F080E0832B819551E0181608F050E0519541E0151608F040E0419521E0141608F020E0522E5194A72E2981A21A11E07A1508F010E0262F3A81231B31E0621708F030E0622F611B162F61E0211708F060E0362B692F7B81671B4B
S28400230021E0961708F020E0062F031B91E0601708F090E0292B3E2D9C81391B91E0E31608F090E0E32EE21A21E03E1508F020E0922B682F691B91E0861708F090E0A52FA91B9A2F81E05A1708F080E0242F281B31E0421708F030E0862F531A69F5222359F5992349F5882339F5A989BA8916962D913D914D915C91199760E070E0CB0169
S284002380992321F51816C0F0882301F51716A0F07723E1F4161680F06623C1F4E51660F05E15A1F4041740F0401781F4131720F0311761F4A21650F480819181009709F094CE8F01A989BA891F0111C0EF84F8888F01A989BA89EE15FF0541F41196FC93EE93E985FA85B183A08306C0CF01F101B183A0838D939C936296E2E10C9428ACBD
S284002400CF93DF93FC01DB01EA01808191814817590739F48881998119821882808391830BC08881998111969C938E93198218828C9111969C911197DF91CF910895DC01ED91FC91119706C0808191818617970719F0FC013097C1F7CF0108958FB7F8941092B5021092B4021092B3028FBF08958091F50280FF0FC081E00E94C516809191
S28400248070008D7F809370000E942E128091F5028B7F8093F5020895809170008C7F809370008091B60080628093B6001092B2001092B0001092B1001092B3008091B60090E08F7190700097C9F783E087BB87E08093B1008091700081608093700008958091B60090E08F7190700097C9F7809170008C7F809370008091B100887F809315
S284002500B10083B5826083BD8091B60090E08F7190700097C9F78091B6008F7D8093B60008959B01AC016091B200862F90E080959095AA2797FDA095BA2F9070A070B07082179307A407B50778F4281B390B4A0B5B0BBB27A52F942F832F9093B4028093B3022093B5020895260F8091B60090E08F7190700097C9F72093B30082E087BB9E
S284002580809170008260809370000895EF92FF920F931F938FB7F8949091B6022091B20034E43093B4004091B60050E04F71507041155105C1F7B89904C030E040E050E009C02091B20030E040E050E021503F4F4F4F5F4F8FBF8FEF989FC0011124AA2797FDA095BA2F820F931FA41FB51F9C01AD0175E0220F331F441F551F7A95D1F742
S2840026007C018D0162E016950795F794E7946A95D1F72E0D3F1D401F511FE090B702F090B8020091B9021091BA022E0D3F1D401F511F281B390B4A0B5B0BB901CA011F910F91FF90EF90089560E270E080E090E008958FB7F8946091B6021092B6028FBF70E080E090E020E43FE140E050E00E94ABAB9B01AC018091B7029091B802A0918D
S284002680B902B091BA02820F931FA41FB51F8093B7029093B802A093B902B093BA0282179307A407B50728F48091B2028F5F8093B20208951F920F920FB60F920BB60F9211242F933F934F935F936F937F938F939F93AF93BF93EF93FF93809170008D7F809370001092B5028091F50280FF03C080E00E94C5168091F50282FF11C080911E
S284002700D50281608093D5022FB7F8948091020390910303826090930303809302032FBFFF91EF91BF91AF919F918F917F916F915F914F913F912F910F900BBE0F900FBE0F901F9018951F920F920FB60F920BB60F9211242F933F934F935F936F937F938F939F93AF93BF93EF93FF938091B3029091B4020097A1F58091B5028823E9F4E2
S2840027808091F50280FF03C080E00E94C5168091F50282FF34C08091D50281608093D5022FB7F8948091020390910303826090930303809302032FBF22C08091B60090E08F7190700097C9F78091B5028093B30082E087BB8091700082608093700009C08091B3029091B40201979093B4028093B3028091F50280FF02C00E943117809152
S284002800B6028F5F8093B6028091D50282608093D5022FB7F8948091020390910303826090930303809302032FBFFF91EF91BF91AF919F918F917F916F915F914F913F912F910F900BBE0F900FBE0F901F90189580E197E29093A9008093A800E1EAF0E088E08083808182608083E2E7F0E080818260808308959B01AC018091BD0290919C
S284002880BE02A091BF02B091C002820F931FA41FB51F8093BD029093BE02A093BF02B093C0028091D90284608093D9022FB7F8948091020390910303826090930303809302032FBF08958FB7F8946091BC021092BC028FBF70E080E090E02AE030E040E050E00E94ABAB9B01AC018091BD029091BE02A091BF02B091C002820F931FA41FD5
S284002900B51F8093BD029093BE02A093BF02B093C00282179307A407B50728F48091BB028F5F8093BB0208950E9463146091BD027091BE028091BF029091C00208951F920F920FB60F9211242F938F939F938091BC028F5F8093BC028091D90284608093D9022FB7F8948091020390910303826090930303809302032FBF9F918F912F91F6
S2840029800F900FBE0F901F90189570E0843068F54AB121E030E0082E02C0220F331F0A94E2F7922F909594239AB99BB1922B9BB990916900482F440F23E030E0042E02C0220F331F0A94E2F72095292320936900909169006370707002C0660F771F4A95E2F7962B909369002DC04DB121E030E0082E02C0220F331F0A94E2F7922F90956A
S284002A0094239DB99EB1922B9EB940916A00982F9450990F23E030E0092E02C0220F331F0A94E2F72095242320936A0020916A006370707002C0660F771F9A95E2F7262B20936A009CB321E030E002C0220F331F8A95E2F7922B9CBB08951F920F920FB60F920BB60F9211242F933F934F935F936F937F938F939F93AF93BF93EF93FF930E
S284002A800E943812E091C102F091C2020995FF91EF91BF91AF919F918F917F916F915F914F913F912F910F900BBE0F900FBE0F901F9018951F920F920FB60F920BB60F9211242F933F934F935F936F937F938F939F93AF93BF93EF93FF930E943812E091C302F091C4020995FF91EF91BF91AF919F918F917F916F915F914F913F912F9171
S284002B000F900BBE0F900FBE0F901F9018951F920F920FB60F920BB60F9211242F933F934F935F936F937F938F939F93AF93BF93EF93FF930E943812E091C502F091C6020995FF91EF91BF91AF919F918F917F916F915F914F913F912F910F900BBE0F900FBE0F901F9018951F920F920FB60F920BB60F9211242F933F934F935F936F93C7
S284002B807F938F939F93AF93BF93EF93FF930E943812E091C702F091C8020995FF91EF91BF91AF919F918F917F916F915F914F913F912F910F900BBE0F900FBE0F901F9018951F920F920FB60F920BB60F9211242F933F934F935F936F937F938F939F93AF93BF93EF93FF930E943812E091C902F091CA020995FF91EF91BF91AF919F91DA
S284002C008F917F916F915F914F913F912F910F900BBE0F900FBE0F901F9018951F920F920FB60F920BB60F9211242F933F934F935F936F937F938F939F93AF93BF93EF93FF930E943812E091CB02F091CC020995FF91EF91BF91AF919F918F917F916F915F914F913F912F910F900BBE0F900FBE0F901F9018951F920F920FB60F920BB66A
S284002C800F9211242F933F934F935F936F937F938F939F93AF93BF93EF93FF930E943812E091CD02F091CE020995FF91EF91BF91AF919F918F917F916F915F914F913F912F910F900BBE0F900FBE0F901F9018951F920F920FB60F920BB60F9211242F933F934F935F936F937F938F939F93AF93BF93EF93FF930E943812E091CF02F091C1
S284002D00D0020995FF91EF91BF91AF919F918F917F916F915F914F913F912F910F900BBE0F900FBE0F901F901895F999FECF07B600FCFDCF72BD61BD40BD9FB7F8948FBBF99A9FBF08951F920F920FB60F9211242F938F939F93FB988091D80284608093D8022FB7F8948091020390910303826090930303809302032FBF9F918F912F91A5
S284002D800F900FBE0F901F9018959091F5028170880F9C7F982B9093F502E9E3F1E080818D7F80838091D90281608093D9022FB7F8948091020390910303826090930303809302032FBF08958091F50280FF48C08091A1008D7F8093A1008091D1029091D202A091D302B091D4020097A105B10551F40E94C6126093D1027093D2028093B1
S284002E00D3029093D4028091F50283FD02C00E94DB1FF999FECF8091F50288608093F5029091390192609093390182FF05C087E083BF889513BE0AC00E94701285E083BF889513BE0E944C120E94FA1784E48093B4008091B60090E08F7190700097C9F708958091F50281608093F5028091B60090E08F7190700097C9F78091D9028860D4
S284002E808093D9022FB7F8948091020390910303826090930303809302032FBF80E090E008950E94C6122091D1023091D2024091D3025091D402621B730B840B950B1092D1021092D2021092D3021092D4020E943B148091A10082608093A100809141018F718830D9F78091F502877F8093F5020E94D71F8091F50281FD07C0E091E60254
S284002F00F091E702309709F009950895A0E0B0E0ECE8F7E10C940CAC10E0C2E8DBE800E892E8692E9BE8792E812C912C82E8A82E8BE8B82E0E94DE042BE88338920718F16E01EE24FF249C0140E050E022583B4840405040C216D306E406F5064CF4123039F480916600815080936600000036C0209166002150209366000000EC01C2581A
S284002F80DB4811E028C02BE88238920739F16E01EE24FF249C0140E050E013012401221A330A440A550AC214D304E404F5044CF4113039F4809166008F5F8093660000000DC0209166002F5F209366000000E501C81BD90B12E0015009F0ACCFCDB7DEB7E2E10C9428AC0E94221D882311F40E9486170895CF93DF93C8E8D3E188EC0E943C
S284003000D6042197D9F70E94F317DF91CF9108958091D90282FF0BC09FB7F8948091D9028B7F8093D9029FBF0E94300EA9C08091D50280FF0BC09FB7F8948091D5028E7F8093D5029FBF0E94931F9AC08091D50281FF0BC09FB7F8948091D5028D7F8093D5029FBF0E9429138BC08091D90280FF0BC09FB7F8948091D9028E7F8093D902B3
S2840030809FBF0E9451177CC08091D90283FF0BC09FB7F8948091D902877F8093D9029FBF0E94E4166DC08091D70286FF0BC09FB7F8948091D7028F7B8093D7029FBF0E94EF1B5EC08091D70287FF0BC09FB7F8948091D7028F778093D7029FBF0E9468194FC08091D80281FF0BC09FB7F8948091D8028D7F8093D8029FBF0E949B1B40C0A6
S2840031008091D80282FF0BC09FB7F8948091D8028B7F8093D8029FBF0E94181031C08091D80280FF0BC09FB7F8948091D8028E7F8093D8029FBF0E943E1C22C08091D90281FF0BC09FB7F8948091D9028D7F8093D9029FBF0E94781B13C08091D90284FF0FC09FB7F8948091D9028F7E8093D9029FBFE0919D0CF0919E0C309709F0099591
S2840031808091D502882381F48091D602882361F48091D702882341F48091D802882321F48091D902882361F02FB7F8948091020390910303826090930303809302032FBF0895CF93DF93E82FF0E0DF01A05CB04093E0B595A7959A95E1F7B0E0AA0FBB1FA652BD4F6D917C9111976115710599F14FB7F894EB012A813B81888199814FBF32
S2840032002817390729F12D913C911197E901288D398D280F391FE9013881019620812064208336830D90BC91A02D5A962D913C915B978217930711F480E090E02181206221832FB7F894FB01918380832FBF03C0818180648183DF91CF91089590E0805C904033E0959587953A95E1F7E82FF0E0EE0FFF1FE652FD4FA081B1811097B9F008
S28400328090968C919097887191F42FB7F89418968D919C9119972FBF009749F00190F081E02D048CF58DE02D309709F00995089580EC0E94E118089580EC0E942E19089588EC0E94E118089588EC0E942E190895A3E0B0E0EEE6F9E10C9417AC81E0898306E010E0DD2452E0E52EF12CEC0EFD1E9091E10289818923B9F09FB7F8942091CE
S284003300E102898182278093E1029FBF6D2D70E0660F771F645D784FC70142E050E00E94A7ACEA81FB810995D3948981880F898301501040E9F62396E7E00C9433AC9091E10221E030E002C0220F331F8A95E2F7922B9093E1028091D70280688093D7022FB7F8948091020390910303826090930303809302032FBF0895CF93DF93C82FBF
S284003380D0E0DE01A05CB040E3E0B595A795EA95E1F7B0E0AA0FBB1FA652BD4FED91FC911197309721F489818F77898335C080A183FD32C0C489D58984FF0AC06883ED91FC911197848995890196958B848B24C0209711F1268137818681978101969783868346815781868997894817590711F417821682468157818481958148175907BB
S28400340019F43783268308C0C20FD31F688380859185019691878087DF91CF91089590E0805C904033E0959587953A95E1F790E0DC01AA0FBB1FA652BD4FED91FC911197309701F16FB7F89442815381208131816FBF4217530711F421E02287FC01EE0FFF1FE652FD4F0190F081E02D828D938D009711F4118E108E068CF78DE02D3097EE
S28400348009F00995089588EC0E940F1A089580EC0E940F1A0895E091E202F091E30287E0828380E98093BC008091D90282608093D9022FB7F8948091020390910303826090930303809302032FBF0895E091E202F091E3028281823031F08281833019F08281843019F48581880F06C08281853049F48581880F8F5F8093BB0085E8809326
S284003500BC0008950E944B1A0895E091E202F091E30220813181868197812817390780F480819181A085B185A80FB91F2C910196918380832093BB0085E88093BC00089586E0828384E98093BC008091D90282608093D9022FB7F8948091020390910303826090930303809302032FBF0895E091E202F091E30283859485A585B6852081D8
S284003580318121503040318320832081318143E0220F331F4A95E1F704C0B695A795979587952A95D2F78093BB0085E88093BC0080819181009741F48281823019F484E08283089585E082830895E091E202F091E3028281843019F40E94851A08958281823019F08281833019F40E94B71A08958281853021F485EA8093BC0008950E9421
S2840036004B1A0895E091E202F091E30282818530A1F4868197818130910521F48091BC008F7B03C08091BC0080648093BC008091BC0085688093BC0008950E944B1A0895E091E202F091E3029281953011F520813181A085B185A20FB31F8C932F5F3F4F31832083208131818681978101972817390720F48091BC00806403C08091BC00A2
S2840036808F7B8093BC008091BC0085688093BC0008950E944B1A0895E091E202F091E3029281953011F520813181A085B185A20FB31F8C932F5F3F4F3183208386E0828384E98093BC008091D90282608093D9022FB7F8948091020390910303826090930303809302032FBF08950E944B1A0895A091E202B091E3021F96ED91FC91509780
S2840037003097A1F012968C911297863049F48091BC0084FDFCCF81E012968C93129704C081E012968C9380E00995089581E012968C9312970895E091E402F091E5020284F385E02D309709F00995089523982B981CBC0895E091F902F091FA0226813781848195812817390769F0A48DB58D8481958101969583848384819581A80FB91FCB
S2840037808C918EBD0895E091F902F091FA02309719F40E94A61B089542855385228533852F5F3F4F33872287228533852A30310511F41386128662857385208531856217730719F45387428708954156534FDA018C938485958501969587848708952FB7F894E091F902F091FA02848595852FBF009731F005A0F6A1E02D309709F009956A
S2840038000895ADE0B0E0E7E0FCE10C941CACFC01009739F1848195819093E7028093E60280819181A281B3818F839887A987BA8781E08B871D861C86CE0101960E945A1F2FEF8F3F920781F02FEF8D3F920761F00E9431172FEF8F3F920749F42DEF3FEF08C02FEF3FEF05C02EEF3FEF02C020E030E0C9012D96E2E00C9438ACA0E1B0E0BE
S284003880E4E4FCE10C9419AC0091F6021091F702D80112968C911297823029F08430C9F0882331F074C070E060E088E0F82E6BC080E090E0D8011396ED91FC911497E80FF91F208120933F0101968031910591F75EC010923C0180E010923E018F5F8031D9F780913C01806880933C0180913D0180FFFCCFFE013196CE014196DF012091F4
S2840039003F012D93A817B907D1F7219120933F01E817F907D1F7C7CFF8018281823019F410923C0102C0F0923C01872F90E0AC01405F5F4F9C01D8011396ED91FC911497E20FF31FE081E0933E012F5F3F4F2417350789F720913C01206820933C0120913D0120FFFCCF20913E01D8011396ED91FC911497E80FF91F2083019684179507D9
S28400398091F7705F6F5FF8018581681728F286EF92E00E94DF1F8091F6029091F702009789F08091D80281608093D8022FB7F8948091020390910303826090930303809302032FBFD8011696ED91FC91179709956096E5E00C9435AC8FB390E0FC01E270F07081FDF9CF8FB7F89499E090935700E4918FBFEF70E23019F41092F80203C0AE
S284003A0081E08093F8028FB7F8949091F802992349F45F9350E85093610050E0509361005F9108C05F9350E85093610051E0509361005F918FBF8091F802882311F40E94FA1708958091F80208951F920F920FB60F920BB60F9211242F933F934F935F936F937F938F939F93AF93BF93EF93FF93E1ECF0E080818F7D808380E00E949F1951
S284003A80FF91EF91BF91AF919F918F917F916F915F914F913F912F910F900BBE0F900FBE0F901F9018951F920F920FB60F920BB60F9211242F933F934F935F936F937F938F939F93AF93BF93EF93FF93E1ECF0E080818F7B808381E00E949F19FF91EF91BF91AF919F918F917F916F915F914F913F912F910F900BBE0F900FBE0F901F90E3
S284003B0018951F920F920FB60F920BB60F9211242F933F934F935F936F937F938F939F93AF93BF93EF93FF938091C0006091C6008C7131F480EC0E94BD1982E00E949F19FF91EF91BF91AF919F918F917F916F915F914F913F912F910F900BBE0F900FBE0F901F9018951F920F920FB60F920BB60F9211242F933F934F935F936F937F9388
S284003B808F939F93AF93BF93EF93FF93E9ECF0E080818F7D808383E00E949F19FF91EF91BF91AF919F918F917F916F915F914F913F912F910F900BBE0F900FBE0F901F9018951F920F920FB60F920BB60F9211242F933F934F935F936F937F938F939F93AF93BF93EF93FF93E9ECF0E080818F7B808384E00E949F19FF91EF91BF91AF914B
S284003C009F918F917F916F915F914F913F912F910F900BBE0F900FBE0F901F9018951F920F920FB60F920BB60F9211242F933F934F935F936F937F938F939F93AF93BF93EF93FF938091C8006091CE008C7131F488EC0E94BD1985E00E949F19FF91EF91BF91AF919F918F917F916F915F914F913F912F910F900BBE0F900FBE0F901F9002
S284003C8018951F920F920FB60F920BB60F9211242F933F934F935F936F937F938F939F93AF93BF93EF93FF938091B90090E0887F90708832910569F1893291059CF48031910521F18131910534F4009729F18830910589F51BC088319105D9F08032910551F51AC088349105B9F0893491053CF48033910589F080349105E9F410C08035F2
S284003D00910581F088359105B1F411C00E94661A12C00E94E51A0FC00E944B1A0CC00E94021B09C08091BB000E94201B04C08091BB000E944C1BFF91EF91BF91AF919F918F917F916F915F914F913F912F910F900BBE0F900FBE0F901F9018951F920F920FB60F920BB60F9211242F933F934F935F938F939F93AF93BF93EF93FF93E0911A
S284003D80E402F091E502838126813781882349F48081918140917900280F391FD9014C930EC0808191814091780050917900DC01AA0FBB1FA20FB31F11965C934E93019691838083E091E402F091E502208131818085918528173907B1F480917A00877F80937A008091D80282608093D8022FB7F894809102039091030382609093030301
S284003E00809302032FBFFF91EF91BF91AF919F918F915F914F913F912F910F900BBE0F900FBE0F901F9018951F920F920FB60F920BB60F9211242F933F934F935F936F937F938F939F93AF93BF93EF93FF93DF93CF930F92CDB7DEB78EB589830E94AA1B89810E94C31B8091D70280648093D7022FB7F89480910203909103038260909315
S284003E800303809302032FBF0F90CF91DF91FF91EF91BF91AF919F918F917F916F915F914F913F912F910F900BBE0F900FBE0F901F901895CF93DF93EC01009741F10E9424132E813F81488559850E94ABAB28EE33E040E050E00E94EAAB2115310541055105C1F08091F50282FD17C084608093F502E8EEF2E08DE0099001928150E1F7FF
S284003F00CA01B9010E94911220E030E008C02FEF3FEF05C02EEF3FEF02C02DEF3FEFC901DF91CF9108958091F50282FF24C09091F2029923B1F4E091F302F091F402309709F009958091F50282FF15C06091EE027091EF028091F0029091F1020E94911208958B7F8093F502E091F302F091F402309709F00995089590919511913011F43A
S284003F809093FB0290919511992379F491E0803809F090E0979599279795809144018F77892B8093440180E0089581E0089580E80E94BC1F089580E00E94BC1F0895FC01208131812115310539F0D9018D919C9111979183808302C020E030E0C9010895FC0161157105A9F0A081B181A617B70739F48D919C9111979183808314C0DC0169
S284004000109749F08D919C91119786179707B9F704C080E0089580E00895FB018081918111969C938E9381E00895DC01ED91FC91119706C0E617F70739F00190F081E02D3097C1F780E0089581E008950F931F93CF93DF93EC018B010E941520F80111821082A881B981109721F41983088309C0DC018D919C9111970097D1F71196FC93AE
S284004080EE93DF91CF911F910F910895A0E0B0E0ECE4F0E20C9414ACD82E7B0190E08C0123E0169507952A95E1F78770907021E030E002C0220F331F8A95E2F7C22EF801E450FD4F80818223C9F0C0910003D091010312C0FE01E00FF11F82818C2129F0EE81FF818D2DB701099598818981A92EE5015E01B82EE501209761F7CDB7DEB77A
S284004100EAE00C9430AC90E0FC0133E0F695E7953A95E1F7E450FD4F208130E08770907041E050E002C0440F551F8A95E2F72423352381E02115310509F480E0089590E09C0143E0369527954A95E1F7620F731F8770907021E030E002C0220F331F8A95E2F7FB019281922381E009F480E008951F93CF93DF93182FEB010E949F208823CC
S28400418059F580E093E0BE010E941520882349F41A821B821C821D8280E093E0BE010E942620812F90E0FC0163E0F695E7956A95E1F78770907021E030E002C0220F331F8A95E2F7CE0FDF1F8A81822B8A83E450FD4F8081822B8083DF91CF911F91089580E090E061E070E09B01082E02C0220F331F0A94E2F740910203509103034223A9
S284004200532341155105C9F06FB7F8944091020350910303209530952423352330930303209302036FBFFC01EE0FFF1FEF5FFD4F0190F081E02D099504C001968B30910599F6209102033091030381E02115310509F480E008950E94F02008950E94CFA90E94A89A2FB7F8948091020390910303806190930303809302032FBF0895FC01A3
S28400428080811092E10CE091E20CF091E30C099508951092E10C089580911F0E807180931F0E1092120F089523E830E130933C1020933B10E091E50CF091E60CDC018C9109950895089521E030E002C0220F331F8A95E2F78091170290911802822B932B90931802809317022FB7F8948091020390910303806190930303809302032FBF0E
S28400430008958091DA0C9091DB0C009799F08091DE0C9091DF0C009779F48DE991E29093DF0C8093DE0C81E08093DC0C84E00E94632108951092DC0C0895E091DA0CF091DB0C882319F42EEF3FE302C023E830E130933C1020933B10818B8BE08093DC0C84E00E9463210895E091EA0CF091EB0C80831092EB0C1092EA0C21813281CF0161
S284004380F901099583E00E9463210895E091EC0CF091ED0C80831092ED0C1092EC0C21813281CF01F901099583E00E946321089521E030E002C0220F331F8A95E2F7209530958091170290911802822393239093180280931702089580938D0F882361F48091140F9091150F009719F082E00E94632181E00E946321089580E00E94EC21EB
S284004400089580E00E94EC21089580E00E94EC210895FC0180818093440F82E00E94EC2181E00E946321089580E00E94EC210895CF93DF93DC01E0918B0FF0918C0FEF01CC57DF4F8C9188838481833049F08630D1F08230F9F48C918823D1F484E019C08C918823A9F4868197818833910581F4818592852FEF883F920750F086A98E3FCA
S28400448039F488E006C08C91882311F485E001C087E0848310928C0F10928B0F80E00E94EC21DF91CF9108958093AE0F882319F481E00E9463210895EF92FF920F931F93CF93DF93C091140FD091150F07E01DE025C02C818A819B81009799F42430B9F48E819F81FE01EC57FF4F8630910511F4108302C082E080830C8382E00E94632184
S28400450006C02250233018F401979B838A8398818981E92EE7017E01F82EE7012097C9F6CDB7DEB7E6E00C9434ACCF93DF9382E00E94D8211092150F1092140F81E00E94D82110928C0F10928B0F10928D0F8DE2EFEAFFE0DF011D928A95E9F7ECEDFFE08FE5DF011D928A95E9F7F093D20FE093D10F1092AE0F8FEF80934F0DC6E1DFE071
S284004580CE010E94A10E1092200F8CE592E29093220F8093210F80E890E0A0E0B0E080931C0F90931D0FA0931E0FB0931F0FCE010E94750EDF91CF9108950E9495220E944C210895EF92FF92CF93DF930E94C60EE22EE7017E01F32E0E94F34FFC012081318182819381282739272E253F2584819581282739278681978128273927C90196
S284004600DF91CF91FF90EF900895FC0182819381009711F40E94E2220E949CAC87E490E10E94750E089580913B1090913C1095FF05C08DE390E10E94935008950E94E2220E949CAC87E490E10E94750E08957093E60C6093E50C8093B30C8091890B8093B40C84E591E29093B60C8093B50C89EA9CE00E940D4B089588E08093DC0C8091D7
S284004680980B8093AB0C8CE09AE29093AD0C8093AC0C89EA9CE00E942B9608951F93182F1092DC0CE091DE0CF091DF0C0995112329F48EE060E070E00E9446201F91089580E00E944E230895882341F48EEF9FE390933C1080933B1085E007C083E890E190933C1080933B1084E060E070E00E9446201092DF0C1092DE0C0E9481210895B7
S28400470083E08093DC0C80916C0B90916D0BA0916E0BB0916F0B8093D20C9093D30CA093D40CB093D50C8091960B8093D60C8DE596E39093D80C8093D70C89EA9CE00E94D18008950E944C210E9495228091E40C8823F1F08091DE0C9091DF0C0097C1F484E693E29093DF0C8093DE0C8091870B8770D9F480E094E090933C1080933B10DE
S28400478084E060E070E00E9446200E9480230DC00E94DD2283E890E190933C1080933B1084E060E070E00E9446201092E10C1092E30C1092E20C08958FEF9FEFAFEFB0E08093F20C9093F30CA093F40CB093F50C87E794E29093F70C8093F60C8FEE9CE00E944F5608958091EA0C9091EB0C009761F180913B1087FF0FC00E949F56882338
S28400480059F40E947499882339F40E941F4B882319F481E090E002C080E090E02091EE0C222311F080E803C0009721F484E00E94B42108951092F20C1092F30C1092F40C1092F50C8AE494E218C08091EC0C9091ED0C0097F1F08091EE0C8823B9F08FEF9FEFAFEFB0E08093F20C9093F30CA093F40CB093F50C87E794E29093F70C8093BB
S284004880F60C8FEE9CE00E944F56089580E80E94C6210895A6E0B0E0E0E5F4E20C941CACFC0180818823E9F40E94A79980E00E94B42181E08093EE0C8091FA0CBE016F5F7F4F823011F48AE101C08BE10E94EC0D8CED93E29E838D83CE0101960E94974B02C00E94B4212696E2E00C9438ACFC0180818823C1F48091FA0C823031F00E94F6
S284004900B099882311F00E949E991092EE0C8091EC0C9091ED0C009721F080E00E94C62108950E941F060895A0E0B0E0EAE9F4E20C9416ACC091140FD091150F62E0E62E54E0F52E17E001E0D2C08C81873028F4853058F5882339F0C3C08730C9F1883009F0BEC01DC080913B1090913C1092FF0EC080918B0F90918C0F009709F0B0C0A3
S2840049800C83D0938C0FC0938B0F81E006C01C83FE01EC57FF4F108382E00E946321A0C0D0931E0EC0931D0E9BC0853011F4FC8201C0EC82FE01E858FF4F0190F081E02D309709F48DC0CE0186589F4F099588C084E19FE0BE010E94F01F8E819F8181309105C1F4FE01EC57FF4F8081882391F4DE01A357BF4FFE01EB57FF4F00811181A1
S284004A002281338144815581668177818D919C910E946994FE01E858FF4F80819181009709F454C08E819F818430910509F044C0CE0188579F4FFE01E257FF4F2081FE01EF55FF4F1081293088F4622F70E0660F771F695F7F4F680F791FFB0110811A3008F019E0412F440F4F5F1EC0BC01675E7F4F2930C1F0223170F4622F70E0660FEF
S284004A80771F695F7F4F680F791F12E1121B412F440F4F5F02C040E010E0FE01E257FF4F29E0208301C040E0499650E00E94C6ACFE01EF55FF4F1083FE01E858FF4F0190F081E02DCE0186589F4F09958091140F9091150F009771F082E00E9463210AC098818981C92EE6016E01D82EE601209709F02BCFCDB7DEB7E8E00C9432ACAAE22F
S284004B00B0E0E5E8F5E20C941CAC843061F0853018F4882331F026C0853039F0863011F506C080E905C081E903C08FE801C08EE889838091830B9091840B9B838A838091780B9091790B98878F8380917A0B8E838091850B9091860B9D838C83CE0101960E941E06AA96E2E00C9438ACAAE2B0E0ECEBF5E20C941CAC813019F0883061F4EF
S284004B8003C080E6898304C085E989837B836A83CE0101960E941E06AA96E2E00C9438ACE091D10FF091D20FDF011196CF0109962D91222321F4A817B907D1F766C08091E10C882309F05DC083E08093E10CABEABCE081818093AB0C828111968C931197838112968C931297848113968C931397858114968C931497868115968C93159700
S284004C00878116968C931697808517968C931797818582958695869581708093B30C8185881F8827881F8093B40C89E491E29093B60C8093B50CCD0121C082EA93E29093E30C8093E20C3093E40C81E08093E10CEBEAFCE01092AB0C11821282138214821582168217822093B30C3093B40C82E896E29093B60C8093B50CCF0102970E9435
S284004C80EF8680E00E94EC2108953185232F2295269526952170331F3327331F8091E20C9091E30C009769F7C8CFA8E0B0E0EBE5F6E20C941CAC19821A821B821C821D821E821F821886CE0101960E9407868091E00C8D7F8093E00C2896E2E00C9438AC8093E40C82E08093E10C0E9455268FE391E29093AF0C8093AE0C89EA9CE00E94D1
S284004D00194B08951092E10C8091E40C0E94702608956093140D7093150D8093160D9093170D4093180D8091120F813011F410924E0D89EE94E390931A0D8093190D8BEF9CE00E94C180089580914E0D882381F0815080934E0D6091140D7091150D8091160D9091170D4091180D0E94892608951092120F08951092340D80914F0D809332
S284004D80350D8CEC96E290933E0D80933D0D81E39DE00E945B560895CF93DF93EC018881882399F48091500D0E943D8680E16FE47DE00E94070E80914F0D0E94278680914F0D80937A0B0E94103E0E9433862091780B3091790B8217930779F4E0911D0EF0911E0E818592852FEF883F920728F087E0848382E00E9463218FEF80934F0D3F
S284004E008881882329F486E060E070E00E944620DF91CF910895EF92FF920F93DF93CF93CDB7DEB7AA970FB6F894DEBF0FBECDBF7B01823019F08330B1F519C0FB012281338144815581668177818085918501E00E941896882339F582E98983DE011296F7018BE001900D928150E1F718C0FB012281338144815581668177818085918573
S284004E8000E00E941896882371F083E98983DE011296F7018BE001900D928150E1F7CE0101960E941E06AA960FB6F894DEBF0FBECDBFCF91DF910F91FF90EF900895CF93DF93C5E3D2E080E0BE010E94B82084E0BE010E94B82085E0BE010E94B82086E0BE010E94B820CDE2D2E082E0BE010E94B82083E0BE010E94B82087E0BE010E9467
S284004F00B820C5E2D2E081E0BE010E94B82088E0BE010E94B82089E0BE010E94B8208CE0BE010E94B820DF91CF910895A8E0B0E0ECE9F7E20C941AAC10923C1010923B100E94E70D0E94F34FFC017081818162815381448135812681978179838A836B835C834D833E832F839887872B862B852B842B832B822B892B49F48E010F5F1F4FF9
S284004F80C8010E9495AAC8010E94F64F1092E60C1092E50C1092DC0C1092DB0C1092DA0C1092E70C1092E10C1092E30C1092E20C1092EB0C1092EA0C1092ED0C1092EC0C1092EE0C0E945F270E94F64A83E890E190933C1080933B102FB7F8948091020390910303946090930303809302032FBF87E490E10E94A10E81E08093511088EE4C
S28400500093E0A0E0B0E080934D1090934E10A0934F10B093501083E193E2909353108093521085E093E290934610809345100E9413232896E4E00C9436ACABE0B0E0E3E2F8E20C941CACFC01808191819A83898382818B8383818C8384818D8385818E8386818F83878188878085898781858A8782858B8782E0BE016F5F7F4F0E94462032
S2840050802B96E2E00C9438ACABE0B0E0EAE4F8E20C941CACFC0180913B1086FF34C0B081A1817281638154814581368127818B2F8A2B872B862B852B842B832B822B89F480852091E20C3091E30C21153105D9F422EA33E23093E30C2093E20C0E94702612C08EEF9FEF9A838983BB83AC837D836E835F83488739872A8783E0BE016F5FCB
S2840051007F4F0E9446202B96E2E00C9438AC409117025091180241155105B1F180E090E061E070E09B01082E02C0220F331F0A94E2F7F901E423F523309711F1242735273093180220931702FC01EE0FFF1FE75EFD4F0190F081E02D09958091170290911802009789F02FB7F8948091020390910303806190930303809302032FBF0895D2
S28400518001968630910571F608950F931F93CF93DF93EC018E8D9F8D97FF7DC020E88833920709F478C0E091140FF091150F6FC0AAA1BBA19C918581981709F064C08481823041F4868197818630910509F484C083E00AC0843009F056C0868197818630910509F47BC087E084838E85823069F4DF01A658BF4F1C92DF01A558BF4F8F85A1
S284005200988911969C938E9327C0833029F5DF01A658BF4F81E08C93DF01A558BF4F89898C938A8911968C9311978B8912968C9312978C8913968C9313978D8914968C9314978E8915968C9315978F8916968C931697888D17968C93AF014D575F4F87E4DA011D928A95E9F728A139A12834310510F027E430E06AA17BA1CA01A9010E9439
S284005280BDAC82E026C090818181E92FF82F309709F08ECF25C08091AE0F882309F50CED1FE06AA17BA148A159A1C8010E94BDACF801BD978DE2099001928150E1F78CED9FE09093D20F8093D10F81E00E94542281E00E94632104C086E086CF85E084CFDF91CF911F910F910895EF92FF920F931F93CF93DF93EC016091990B70919A0B81
S2840053006115710559F40E942A867B018C010E94739A6E0D7F1D801F911F02C080E090E0E7E09695879577956795EA95D1F77B836A831C8284E19FE0BE010E94262082E00E946321CDB7DEB7E6E00C9434ACCF93DF9320911F0E25FF08C0206120931F0E9093ED0E8093EC0E3FC09093EB0E8093EA0E80E39AE29093990E8093980E83E17F
S28400538090E09093270E8093260E8DEF9FEF90932A0E8093290E0E94F34FFC01C4E5DEE080818093540E8181898382818A8383818B8384818C8385818D8386818E8387818F838091890B80935C0E0E94837E9093530E8093520E80911F0E806280931F0ECE01C4970E947529DF91CF910895FC018081882371F48091870B877049F08091BB
S284005400E00C81FD05C080E693E20E94A729089580E00E944E230895FC0180818823E9F48091870B8770D9F489E08093DC0C8091E00C81FF07C01092AE0C8EEA9CE00E94F729089587EF99E29093AD0C8093AC0C89EA9CE00E94134B08950E944E23089520911F0E2F7D20931F0EE091EA0EF091EB0E309709F0099580911F0E84FF09C0B1
S2840054808F7E80931F0E8091EC0E9091ED0E0E94A72908951F93182F28E330E830935A0D2093590D82E080935B0D0E94338690935D0D80935C0D24EA36E23093CC0D2093CB0D1093850D83E59DE00E9475291F910895ACE4B0E0EFE6FAE20C940EAC80918D0F823049F483E00E94EC218EE89FE00E94FE3D0C94E434882311F00C94E434C9
S2840055008091AE0F813009F098C70E94EC21EEE8FFE080E2DF011D928A95E9F78091CD0F9091CE0F9C013F772F31310508F066C4A091D10FB091D20F4091BD0F4330D9F435962091C00F2093930F2091C10F21832091C20F22832091C30F23832091C40F24832091C50F25832091C60F26832091C70F278308C02091BE0F3091BF0F309390
S284005580920F2093910F4093900F906890939F0F80939E0F23E43FE03093A40F2093A30F8DEF91E29093A80F8093A70F8091A50F84628093A50F87E4F90111928A95E9F78C918093430F82E00E94EC2180E00E945422E091CD0FF091CE0FE631F10508F023C7E951FF4F0C9443ACE090D10FF090D20F2091BE0F3091BF0F8091C80F909128
S284005600C90F2817390759F1D70113962C91139714963C91149715964C91159716965C91169717966C91179718967C91189719968C9119971A969C910E947A92009779F0FC012081213011F0253049F4DC0111962C911197223019F460E00E945F868BE00E948320882309F1F7012381348145815681678170858185928529833A834B8332
S2840056805C836D837E838F8398870E947A92009761F0DC018C91813011F0853031F48BE0BE016F5F7F4F0E944620F70103811481258136814781508561857285818192810E946994B1C60091D10F1091D20F0E94F34FBC01C801019648E050E00E94B0AC009749F1D80111962C91119712963C91129713964C91139714965C91149715966C
S2840057006C91159716967C91169717968C91179718969C910E947A92FC01009709F484C68081813009F080C684819581BFEF883F9B0728F079C68091780B9091790B90934E0F80934D0FF80181818093450F82818093460F83818093470F84818093480F85818093490F868180934A0F878180934B0F808580934C0F8CE090E09093A20F72
S2840057808093A10F8185813009F051C60E94F6952091A10F3091A20F2E5F3F4F3093A20F2093A10F10924F0FD8011A961C911A971093500F60E00BE11FC0609FA0011124FC01A081B181A40FB51F4C91413099F4611788F0E72FF0E0EE0FFF1FEF5AF04F14964D915C911597518340837F5F70934F0F2E5F3F4F6F5FDC0116964C91169741
S284005800641708F0B5C02F35310508F0B1C070914F0F7A3090F2ACC00091D10F1091D20FF801818192812091780B3091790B8217930769F10E944788FC01009709F4F4C58081813009F0F0C5A08571856285538544853585268597858A2F872B862B852B842B832B822B892B09F4DEC5A093450F7093460F6093470F5093480F4093490F44
S28400588030934A0F20934B0F90934C0F1BC00E94F34FFC0180818093450F81818093460F82818093470F83818093480F84818093490F858180934A0F868180934B0F878180934C0FD80111968D919C91129790934E0F80934D0F8CE090E09093A20F8093A10F13968C911397813009F0A0C50E94F6952091A10F3091A20F2E5F3F4F309395
S284005900A20F2093A10F10924F0FF80114811093500F60E00BE11FC0609FA0011124FC01A081B181A40FB51F4C91413099F4611788F0E72FF0E0EE0FFF1FEF5AF04F14964D915C911597518340837F5F70934F0F2E5F3F4F6F5FDC0116964C911697641738F42F35310520F470914F0F7A30A0F23093A20F2093A10F5AC5E091D10FF091C8
S284005980D20F84E090E09093A20F8093A10F80918F0B9091900B21813281822393237EC1E091D10FF091D20F81E190E09093A20F8093A10F818192819093460F8093450FA7E4BFE0E7E8FBE08DE001900D928150E1F72DC5E091D10FF091D20F86E090E09093A20F8093A10F818192819093460F8093450F8091940B8093470F8091950B06
S284005A008093480F14C5E090D10FF090D20F00E010E00AC0D8011396ED91FC9114979081F7018381981731F0C8010E94C4408C01009781F785E090E09093A20F8093A10FD70111968D919C9112979093460F8093450F1092470F0115110509F47BC0D8011396ED91FC91149780818093480F1396ED91FC9114978181928190934A0F8093B3
S284005A80490F1396ED91FC9114978381948190934C0F80934B0F1396ED91FC91149795819F7080914D0F807F892B80934D0F1396ED91FC9114979581907F8F70892B80934D0F86E08093470F1396ED91FC911497868180934E0F1396ED91FC911497C680CC0CEC2CFF242FE43FE067817085C9014C2D50E00E94BDAC8C2D895F8093470F39
S284005B00D8011396ED91FC91149781859701215B304FF901819313960D90BC91A02D19960C911997000F1A966C911A971B967C91CF01402F50E00E94BDAC2091470F2F5F200F2093470F8091A10F9091A20F820F911D77C082E82FC084E88093440F0E94837E9093460F8093450F1092470F86E090E067C0E091D10FF091D20F8091870B72
S284005B8084FF12C085E190E09093A20F8093A10F818192819093460F8093450F8FE167E47FE00E94EC0D43C482E090E09093A20F8093A10F84E88093440F39C49091D10F8091D20F2091870B24FF36C0092F182F84E090E09093A20F8093A10FD80111968D919C9112979093460F8093450F13968C911397813118F080E113968C93F8011E
S284005C00838190E020E130E0281B390BA8014C5F5F4F480F591FCA0160E270E0A9010E94D8ACB8016D5F7F4F8FE10E94070E84E98F8FCE014F96F5C384E88093440F82E090E09093A20F8093A10FF1C30091D10F1091D20F1092470F80E090E00FC0E22FF0E0E85BF04FDC0113964D915C911497DA013C9130832F5F2093470F0E94C44034
S284005C802091470F009759F7822F90E005969093A20F8093A10FF801818192819093460F8093450FC4C3A090D10FB090D20F8091780B9091790B9093460F8093450FD50115969C90159716E0E12EF12CEA0CFB1C892D90E0880F991FE80EF91EF701C1907F011092470F00E010E0A6E06A2E712C6A0C7B1CDD24CC0CDD1CCE0CDF1C6FC068
S284005D00D8011396ED91FC911497D50113966D917C911497818192810E94B340882309F45EC09301882429C0F901619171919F01D8011396ED91FC911497468080E090E0552418C0A781B085A80FB91F4D915C91119702964617570761F48091470FA82FB0E0A85BB04F90819C938F5F8093470F36C05394541430F383948914A8F227011F
S284005D802BC0F201419151912F01F801A381B48119967C91199780E090E060E01BC01A962D913C911B97280F391FF9012081318102962417350769F42091470F822F90E0885B904F3C91DC013C932F5F2093470F03C06F5F671718F34C145D0491F6C8010E94C4408C01009709F08ACF8091470F882309F41AC390E0059623CFA901415297
S284005E0050404230510508F0B2C00091D10F1091D20FEE24E3948132910509F0EE2482E00E94EC2180E00E945422F8018181898782818A8783818B8784818C8785818D8786818E8787818F878085888B8185898B828593859B8B8A8B84858C8B813029F4858596859E8B8D8B25C0D80155968C9155978D8F1D968C911D978D8B1E968C9146
S284005E801E978E8B1F968C911F978F8B50968C915097888F51968C915197898F52968C9152978A8F53968C9153978B8F54968C9154978C8FCE010996EE2019F00E94863D02C00E94D93D8E8D843A59F0853A18F4882359F0ACC2863AA1F08E3A09F0A7C202C088E80FC08CE80DC0C80101961092440FEE2019F00E94200606C00E942106D7
S284005F0003C080E88093440F82E08093900F8091BE0F9091BF0F9093920F8093910F8091CD0F9091CE0F906890939F0F80939E0F83E49FE09093A40F8093A30F82E090E09093A20F8093A10FE091D10FF091D20F80818093430F81E092E29093A80F8093A70F8091A50F84608093A50F60C2205330402930310508F05AC2A091D10FB091DA
S284005F80D20F4091BD0F4330D9F435962091C00F2093930F2091C10F21832091C20F22832091C30F23832091C40F24832091C50F25832091C60F26832091C70F278308C02091BE0F3091BF0F3093920F2093910F4093900F906890939F0F80939E0F23E43FE03093A40F2093A30F8091A50F84628093A50F87E4F90111928A95E9F78C91F3
S2840060008093430F82E00E94EC2180E00E9454228091CD0F9091CE0F8633910509F44BC18733910540F48133910579F08433910509F0FAC133C18833910509F461C1F0E888339F0709F0F0C1E2C1E090D10FF090D20F8091870B8770823008F01CC10E94F6958C01D70111968C9111978093460F40E050E0EE24EBE16E2E76E1872E912CFD
S284006080F5C0B62D5B9FC0011124D801ED91FC911197E80FF91F2081223018F0233009F0E4C02091460FE21608F4DEC0433008F0DBC0A42EBB24A89C6001A99CD00CB89CD00C112496012755334FD901A156BD4F60896C93618911966C931197628912966C931297638913966C931397648914966C931497658915966C93159766891696E8
S2840061006C931697678917966C9367EA462E62E0562E420E531ED801ED91FC91E80FF91F6085D2016C93618511966C931197628512966C931297638513966C931397648514966C931497658515966C931597668516966C931697678517966C93BFEA4B2EB2E05B2E420E531ED801ED91FC911197E80FF91F64817581F20171836083F601AA
S284006180E65AF04F6D917C91680F791FDB0111967C91737060816C7F672B6083D801CD90DC90C80ED91ED6015A967C917170770F770F637F672B6083D801CD90DC90C80ED91ED6017C9177707295707F6770672B60830894A11CB11CA89C6001A99CD00CB89CD00C1124E5E4FFE0CE0EDF1EF801A081B181A80FB91F5A966C9166956170E4
S284006200D6016C93A3EBCA2EA2E0DA2EC20ED31E0190F081E02DE80FF91F608DF6016083D8016D917C91860F971F2C962FAF2C972D963FAF2D972B964FAF2B972A965FAF2A970E94F9952C962FAD2C972D963FAD2D972C543D4FF90180832B964FAD2B974F5F2A965FAD2A97E3945F5FD80116968C911697581708F404CFE092450F409354
S284006280470F86E1489FA00111244B5F5F4F5093A20F4093A10F85E092E208C082E090E09093A20F8093A10F80ED95E29093A80F8093A70FBCC082E090E09093A20F8093A10F84E192E29093A80F8093A70F8091870B8770823008F0AAC0E091D10FF091D20F81818093AB0C89E092E29093AD0C8093AC0C89EA9CE00E942B9681E095C005
S2840063000091D10F1091D20FF801C180D280E380F48080E00E94EC21E091D10FF091D20F80818093130FD80116968C9116978093500D15968C9115978630E0F416968C911697882309F45CC09091120F992309F06EC0815080934E0D82E08093120F11966D917D918D919C91149715964C910E9489265DC08E3F81F580914F0D8F3F09F0C3
S28400638056C020E001C0232F322F3F5FD701C601022E04C0B695A795979587950A94D2F780FFF1CF20934F0D0E942A866093470D7093480D8093490D90934A0D81E080934B0D8BEB96E290934D0D80934C0D81E49DE00E94750E2BC08F3F91F4F80181819281A381B48180936C0B90936D0BA0936E0BB0936F0B878190850E94388617C054
S28400640083E08093120F80E80E944A2A10C00091D10F1091D20F0F5F1F4F80E00E94EC21C8010E941E0603C080E00E94EC2180918D0F823009F0C8C2C4C280918B0F90918C0F009709F4C0C281E00E94EC21FEE8EF2EFFE0FF2E80E2D7011D928A95E9F788E192E29093A80F8093A70FE0918B0FF0918C0F268137813F7782E02C962FAF49
S2840064802C972D963FAF2D970E94EC2100918B0F10918C0FF801EC57FF4F10822C962FAD2C972D963FAD2D972F31310508F07BC082E08093900FD8011696ED91FC911797E631F10508F039C2E350FF4F0C9443AC8BE090E05FC18AE090E09093A20F8093A10F8DEF9FEF9093920F8093910F7FC184E090E09093A20F8093A10FD801D29655
S2840065008D919C91D3979093920F8093910F15C282E090E09093A20F8093A10F8DEF9FEFF2CF83E090E008C082E090E0E3CF83E190E0E0CF82E090E09093A20F8093A10FF80182A993A9DFCFF801F296D801D6968C91D697880FA75BBF4F4C91440F90E050E09C01240F351F2A5F3F4F3093A20F2093A10FD801D2962D913C91D3973093F4
S284006580920F2093910F2091A50F20642093A50F0596BF01695E7F4F4F5F5F4F8E0F9F1F0E94C6ACCAC1C90181978230910508F046C085E190E09093A20F8093A10FF8018085882351F482E08093900F818592859093920F8093910F27C083E08093900FF7013596D80119968C9119978093930F1A968C911A9781831B968C911B97828311
S2840066001C968C911C9783831D968C911D9784831E968C911E9785831F968C911F97868350968C9150978783F80185AD813009F07FC18091A10F9091A20F0797D0C0205330402930310508F078C182E08093900FD80116968D919C9117978633910509F497C08733910540F48133910579F08433910509F062C10DC08833910509F492C034
S284006680B0E888339B0709F058C1B5C081E090E081C0B8016E5C7F4FC801099648E050E00E94B0AC0097C1F4D801D2961C92D297D3961C92D397D4961C92D497D5961C92D597D6961C92D697D7961C92D797D8961C92D897D9961C9289E090E09093A20F8093A10F83E08093900FD8011996EC9119971A967C911A971B966C911B971C9659
S2840067005C911C971D964C911D971E963C911E971F962C911F9750969C9150978E2F872B862B852B842B832B822B892B03E91FE059F0E093930FF8017183628353834483358326839783F9C00E94F34FFC0180818093930F8181D80111968C931197828112968C931297838113968C931397848114968C931497858115968C931597868199
S28400678016968C931697878117968C931797D5C082E090E09093A20F8093A10FF80181859285B1CED801D7968C91D7978F5FD7968C93D79719968D919C911A979093920F8093910F86E090E09093A20F8093A10FD6968C91D6978F3F39F489E090E09093A20F8093A10FA4C08E3F09F0A6C08091A50F8064A0C0E090510DF090520D0E9476
S2840068004286F80190AF87AB0E944C86D801DA969C938E93D9970E945686F80182A98823A9F5F70181819281A381B48180959095A095B0952091140D3091150D4091160D5091170D82239323A423B523F80183AB94ABA5ABB6ABD70115968C91159783AF20E00DC0822F90E0F801E80FF91F8E0D9F1DDC0116968C91169784AF2F5FF701C9
S2840068808581281778F3282F265F0BC0D801D3961D921D921D921C92D697DB961C92DB972AE08091120F813041F482E08093900F80915C0D90915D0D33C08250823028F48091130FF80181AB2FC08091BD0F8093900F833009F58091C00F8093930F8091C10F8093940F8091C20F8093950F8091C30F8093960F8091C40F8093970F8091DE
S284006900C50F8093980F8091C60F8093990F8091C70F80939A0F08C08091BE0F9091BF0F9093920F8093910F2093A10F1092A20F8091A50F84608093A50FE0918B0FF0918C0F8681978190939F0F80939E0F8331910559F08833910541F020E88833920721F060E88032960711F423E001C022E024832091A10F3091A20F2115310551F428
S28400698087E0848310928C0F10928B0F80E00E94EC2117C02F5F3F4F3093A20F2093A10F9F012F5C3F4F97FD08C080918A0F81AB8F5F80938A0F81A985833093A40F2093A30F81E00E946321C45BDF4FE0E10C942AAC9093520D8093510D80E00E944A2A0895A5E0B0E0E7EFF4E30C941BAC0E942186182F81E08B8386E3BE016C5F7F4F46
S284006A000E94EC0D87E160E77BE00E94EC0D8DE1BE016F5F7F4F0E94EC0D8EE1BE016E5F7F4F0E94EC0D8CE1BE016D5F7F4F0E94EC0D2C813D8130938B0B20938A0B212F277089818170880F880F880F88701092930B90E49093880B9A8191709295907F822B892B8093870B8BE680938C0B2FE530E030938E0B20938D0B3093920B209342
S284006A80910B1092900B10928F0B8091950B8F70806C8093950B2B81222311F091E001C094E08091950B807F892B8093950B8091940B8F7080678093940B8091890B8E7F8093890B81E0123009F480E0982F990F8091890B8D7F892B9091950B9F70913011F4846001C08B7F8093890B123019F4822F817001C081E0982F990F990F990F4B
S284006B008091890B8778892B80688093890B112331F480E490E09093900B80938F0B2596E3E00C9437ACCF93DF93C091DA0CD091DB0C8091DC0C813021F08B3009F078C03BC080913B1080FF35C00E94F1348091700B9091710B892B9091720B892B9091730B892B9091740B892B9091750B892B9091760B892B9091770B892B21F40E9475
S284006B80887E882321F082E08093DD0C02C01092DD0C0E94CB998093E00C9091890B9F7B9093890B92E09093DC0C6FE376E30E9427233EC080E8898B80917A0B8A838091780B9091790B9C838B838091850B9091860B9E838D838091700B8F838091710B88878091720B89878091730B8A878091740B8B878091750B8C878091760B8D8719
S284006C008091770B8E878091830B9091840B988B8F878AED9CE00E94DF1FEA89FB89CE01029609951092DF0C1092DE0C0E948121DF91CF9108950E94F1859093860B8093850B0E94248680937A0B0E94F685E5E8FBE07597208331834283538364837583868397830E94837E9093790B8093780B0E94EC859093840B8093830B089580E02B
S284006C8094E090933C1080933B100E94DD228091E00C81FF0BC00E941B360E949E998091870B877049F40E943C2308958091870B877011F40E9480230895FC018081882329F40E941B360E943C2308950E944E23089580911903982F9F5F909319030895DC01ED91FC91119790930D1180930C111092F9101092FA10809108038093FE1039
S284006D00209164103091651083899489B9010E94D6AB462F6093FC1083899489B9010E94D6AB009719F04F5F4093FC108FEF90E000906B0B02C0880F991F0A94E2F780958E7F8093FB100E9469368093FD100895FC01878983FF0AC081E090E0238934892036310528F480E090E0089580E090E00895CF93DF934091541020915910309153
S284006D805A1090E058C0F901225A3F4F578150FD51C0DF01AA5BBF4F11961C921E928230C1F0823018F0833009F048C09091581020915610921708F041C09F5F90935810138214821582168290859F709087128228C02091571090915510291778F530915B10A0915C10B0915D1090E014C0ED014C919396442371F42F5F2093571021E04E
S284006E002883DF01AA5BBF4F68961196DC93CE93228303C09F5F931750F320915B10291769F09085907F9087880F816087831182108206C09F5F941708F4A5CFE0E0F0E0CF01DF91CF9108952091591030915A10821B930B6EE570E00E94D6ABEEE56E9FF0011124E20FF31F8781869590E08230910571F0833091051CF08330910539F50D
S284006E8080915810882319F18150809358101FC080915710882319F081508093571020915C1030915D10DF01AA5BBF4F8D919C91821B930B63E270E00E94D6ABA3E26A9FD0011124A20FB31F8C9181111C9287818E7F8783089521E030E002C0220F331F8A95E2F780910703822B809307032FB7F894809102039091030380629093030324
S284006F00809302032FBF0895CF93DF93EC01009729F16B8F4115510551F0FA0180819181A281B3818C8F9D8FAE8FBF8F04C01C8E1D8E1E8E1F8EE98DFA8D309719F0CE014B960995CE010E94A836882339F010920D1110920C1181E00E946B37DF91CF9108951F9380911A03815080931A0380915E108330C9F11091F8101123A9F181E0F3
S284006F8080935E1060916B0B70E061507040882777FD8095982F2AE030E040E050E00E94ABAB20912E0330912F034091300350913103620F731F841F951F2091080330E040E050E00E94ABAB6093661070936710809368109093691011501093F81089E093E00E94D5A00AC010925E10109266101092671010926810109269101F910895A0
S284007000A1E0B0E0E6E0F8E30C941AAC8C0184E393E069830E94DF1F6981D80117966C9317971596ED91FC911697C801079609958091340390913503009719F080E00E946B372196E4E00C9436AC20911A032F5F20931A030E943C870895AF92BF92DF92EF92FF920F931F93DF93CF930F92CDB7DEB78C015B01FB01E05BFF4F89EE99E314
S28400708091838083FB01EE5BFF4F82E08083FB01ED5BFF4FD80113968D919C91149791838083FB01E65BFF4F58968C9158978083FB01E55BFF4F1082FB01E45BFF4F81E08083FB01E35BFF4F8083FB01E25BFF4F808357968C91579786FD0DC081E090E013962D913C911497BFEF283F3B0728F080E090E002C081E090E0F501E15BFF4F6B
S2840071008083E0906410F0906510C8010E94A8368823E9F12091F910422F50E08091FC1090E001974817590711F0DE2C06C02E9D802D1124F801D388D81A40910E1150910F11405E5F4F30E02E9DC0012F9D900D3E9D900D1124D80155962D913C915697280F391FCA01B9014D2D50E00E94BDACF501EB5BFF4F8D2D865F8083F501EA5B02
S284007180FF4F80910E1190910F11469611C0F501EB5BFF4FD80153968C915397885F8083F501EA5BFF4F55968D919C915697089791838083F501EA5BFF4FE080F180F7012081822F8C7E8083D80113968D919C911497207EBFEF873F9B0710F02860F7012083D7019C91892F8F7D8C93F801278922FD03C09F799C9321C08064D7018C9309
S284007200F5012085207F21602087C80129830E94A83629812F70882351F08091FE108295807F822BD50118968C93189707C0809108038295807F822BF5018087C8010E94A836D7019C918823E1F090689C939091F91018968C911897992359F48C7F816018968C9318978091FC1019968C9319970BC08C7F8260F70180878091F91081872C
S28400728003C09F77D7019C93F8018585D70111968C9311978089918913969C938E9312978685978515969C938E931497828916968C93C8010E94A836882329F08091FD10F701878305C00E946936D70117968C93C50109960E94253880E00F90CF91DF911F910F91FF90EF90DF90BF90AF90089560910C1170910D11FB01808191810E9418
S2840073002D3808952CEB30E1A901405D5F4F5093BD104093BC1092E09093B81040916D1050916E105093BA104093B9109BE09093BB101092C0101092C11091E09093C2109093C3101092C41041EB57E35093C7104093C6109093C51092E89093EC10909174109093ED1040917010509171105093EF104093EE104091721050917310509308
S284007380F1104093F01090916F109093F210909175109093F31092E09093F41090916B109093F51090916C109093F6109091F7109093D5101092661010926710109268101092691080935E10C901CD970E9425380895BC0180911A03815080931A0387E193E00E94262081E00E946B370895CF93DF93BC01C0913403D091350384E393E0A2
S2840074000E942620209719F480E00E946B37DF91CF910895A3E0B0E0E0E1FAE30C9416AC8C01675F7F4F7B836A838DE0BE016F5F7F4F0E94EC0D8981D80153962C915397882309F43FC0CA80DB8081E0F60181AF13968D919C91149793AF82AF285F24AF5596ED90FC90569788EF9FEFE80EF91EF6AEE5AE8FEFD70111968C931197F8012E
S2840074808089918913969C938E9312978685978515969C938E931497828916968C930E946936D70117968C93D601DD96ED91FC91DE9788E08083EA81FB81E95BFF4F89EE99E341C0CA80DB8082E0F60181AF8DEF9FEF93AF82AF275F24AFD8015596ED90FC905697E7EFFFEFEE0EFF1ED601DE96FC92EE92DD97F80183819481D70112969E
S2840075009C938E9311978089918914969C938E9313978685978516969C938E931597828917968C930E946936F7018087D601DD96ED91FC91DE978CE08083EA81FB81E95BFF4F8DEF9AE391838083EA81FB81EF5BFF4FD80158968C918083EA81FB81EE5BFF4F80916A0B8083EA81FB81ED5BFF4F81E08083EA81FB81EC5BFF4F8083EA8167
S284007580FB81EB5BFF4F8083EA81FB81EA5BFF4F80838A819B810E94253880E02396E8E00C9432ACA4E0B0E0E8EDFAE30C941BAC182F89E1BE016F5F7F4F0E94EC0D612F70E080E090E020911E0330911F0340912003509121030E94ABAB9B01AC0189819A81AB81BC81280F391F4A1F5B1FB901CA012496E3E00C9437AC0F931F93CF93C3
S284007600DF93EC018C0109541040D801DD96ED91FC91DE97818192816FEF0E94E180882349F0229789EE99E399838883C8010E94FF8603C0CE010E94E939DF91CF911F910F9108958F929F92BF92CF92DF92EF92FF920F931F93DF93CF930F92CDB7DEB76B01B42E790180901C0390901D0300911B0326E1029F80011124080D191D0097E1
