S02B0000436F6F7264696E61746F725F53746B3630305F41746D656761313238726661315F384D687A5F4763A7
S2840000000C9440040C947C1F0C94A91F0C94D61F0C9403200C9430200C945D200C948A200C94B7200C9478040C9478040C9478040C9478040C949C1C0C9478040C94E51C0C9478040C9478040C9478040C9478040C9478040C9478040C9478040C9478040C94DD260C94BC1E0C94601E0C948E1E0C9478040C9477260C94F2200C947804BB
S2840000800C9478040C9478040C9478040C9478040C944A1F0C94EE1E0C941C1F0C940A260C9478040C9478040C94E11D0C942DB30C9478040C9478040C9478040C9478040C9478040C9478040C9478040C9478040C9478040C9478040C9478040C9478040C9478040C9478040C9478040C9478040C948AB30C9478040C9478040C94B2B3FB
S2840001000C9478040C9478040C9478040C9478040C9478040C9478040C9478040C947804B11008000000CC1001000100F91008000200611004000300791101000400701101000500DC1001000600DD1001000700DE1001000800E81011000900CD1002000A00D31001000B007B1102000C00731101000D00891101000E00031101000F0090
S2840001800411020013000D11010014007F1108001500D210010016007F09D80017003E0E03001800211016001900300410001E00500404001F005804020020005C04170021008A0414002200B20411002300243F353E693F693F693F3B3E453E693F693F4E3E543E7D3E863E693F8C3E953EA03E693FA93EAF3E693FB83EF53E0A3F693F04
S284000200FB3E043F243F243F243F163F163F163F163F163F163F163F163F163F163F163F163F163F163F163F163F163FCC3E163F693F693F693F693F693F693F693F693F693F693F693F693F693F693F163F103F243F163FC73EDB403B402B412B412B4141404640F2402B4149404C4065406A402B416D40704073402B4178407B40F240CF
S2840002808040CF40E4402B41D240D5403F40D840D840F240F240F240F240F240F240F240F240F240F240F240F240F240F240F240F240F240B540F2402B412B412B412B412B412B412B412B412B412B412B412B412B412B41F240E740EA40F240AE408953895323532A532A5336533653475347536D536D536D53D9538953E468F1681E69DE
S28400030030693769446951695C6964698269AC696E691983C2838684A084B984DC850986CA89CA89CA89CA89CA89CA89CA89CA89CA8962857085CA89AB8294857384218A2E8A508A4A8A478A508A5A8A538C538C538C538C538C538C538C538C538C4A8A508A538C1E8A4D8A3E8AE18EE68EEB8EF08EF58EFA8EFF8EFF8E0D8F108F298F9F
S284000380138F168F198F1C8F298F1F8F228F298F258F1F935B935B935B9325933E93319337936B932B93449344934A935B9362936693B693B993BC93BC93BF93CB93C593C893DB93C293CE93D193D493D79388958C95B49590959495B4959895B495A695AA95B195F199B09AC29AAB99089B089BBD9AC29AC59AF39ADC9A089B089BF39A40
S284000400DF99F69A5BAA63AA75AA7EAA80AA82AA84AA87AA58ABD1ABD1AB80AB86AB95AB9BAB9EABA1ABA4ABAAAB01B30610C00600000100020003000400050006000700080009000A000B000C000D000E000F0013001400150016001A001B0000000100020003000400050006000700080009000A000B000C000D000E000F00130014001D
S2840004801500160017001800190000000100020003000400050006000700080009000A000B000C000D000E000F00130014001500160000000100020003000400050006000700080009000A000B000C000D000E000F00180000000000000000000000000000000000000000000000000000000000000000000000000000000000000000002A
S284000500000000000000000000000000000000000000000000000000000000000000000000000000000000000000000000000000000000000000000000000000000000000102010002020505080000FFFF341200000000000000000206010040000000000000000000000000000000000000000000000000000000000000000000000000CF
S284000580000000000500FF00000200401F000003341201030300008813000010270000010001E803000004E80300001041746D656C20202020202020202020200000000000000000030300850000000805080802050204020A0308010803020801005F0035000E011410B1100800BB100100C8100400CC10010077110100781101007F1195
S28400060008007B110200041102000D110100731101008911010079110100CF100100D0100100D1100100D2100100CD100200D310010075110100741101008B1001008D100100F910080061100400DF100400D4100400D8100400DC100100DD100100DE100100E810110070110100E3100100E4100400011101008E10020003110100021105
S284000680010000000000C7050200CB050100C9050200CD050100CE050100CF050100D0050100D1050100D2050100D3050100D4050100CC050100D5050100D6050100E4050200D9050100DA050100DB050100E0050400D7050100D8050100DC050100DD050100DE0502004A0800007F090000CF080000570A000000000000870A0000A10F1C
S2840007000000F90F0000630D0000DF0D0000A90D0000160E0000410E00005B0F000000000000000000003E0E000021100000371000005216411756165A163D175E165831A6360000000000000000000000008C520000BC65C371564B30590000CC4D015552540000574AD76D3E483862CD4700000000000000000000000002020302020258
S284000780010101010101010202010101020202020202020202020202020303020203025D50284A0107A66BA4550101A66BA4550101000000000101E54FF56E0101E54FCE6E01079D4F6B520101444F8C6E01010000000001070000000001010000000001030000BE4401040000BE44010500000000010600000000010C000000000101A658
S2840008006B0000000100000000010D0000000001070000000001090000000001000000000001010000000001010000000000000000C24800070000C248000B0000C24800000000C24800D94100001442F5410D420000E041EE410000E7410000BA4175447C44EE4467441B420000AB46C470FE6F0C66136F0000B26700004E51000000004F
S28400088011248091C117823141F084B78F718093C11780FF05C081E001C081E18093C11714BE809160008861809360001092600011241FBECFEFD1E4DEBFCDBF12E0A0E0B2E0E2E5FAE601E00BBF02C007900D92A03BB107D9F717E1A0EBB2E001C01D92A13CB107E1F70E94C1780E948378FDCF0C9400007F937FB7F8949D9AA5988AEF81
S2840009000E94D9048AEF0E94D9049D9886E40E94D90481E0959980E08F9380EF0E94D9048F917FBF7F9108957F937FB7F8949D9AA59886E00E94D9049D988AE00E94D904889495990894881F8F9384E60E94D9048F917FBF7F9108959F937F9398E00E949404879577959A959923C9F7872F7F919F9108957F937FB7F894A5989D9A8F931F
S28400098086E00E94D9048F91879508F49D988F9384E60E94D9048F919D987FBF7F9108959F9398E00E94BA049A959923D9F79F91089500000000000000008A958823C9F708955F937F937FB7F894CF93DF93C0E0D0E07F935091B2007091B2007517E1F3739521965091B2005717D9F77F91CE01DF91CF917FBF7F915F9108950F93DF93CC
S284000A00CF93CDB7DEB760970FB6F894DEBF0FBECDBF002309F459C029833A834B835C836D837E838F839887E0E2E01B29813A814B815C811E16BCF019861A861B861C868E2F992787FD9095909581959F4F04C0220F331F441F551F8A95D2F72D873E874F87588B2AC0CA01B901002E04C0660F771F881F991F0A94D2F769877A878B875E
S284000A809C87DA01C90104C0B695A79597958795EA95D2F72D813E814F81588504C0220F331F441F551F0A95D2F7822B932BA42BB52B8D879E87AF87B88B29853A854B855C856D857E858F85988960960FB6F894DEBF0FBECDBFCF91DF910F910895AA2797FDA095BA2F80931C0290931D02A0931E02B0931F02E091B002F091B1020995AE
S284000B000895882369F0882777FD8095982F6093200270932102809322029093230208C0109220021092210210922202109223028DE995E00E945F130895882369F0882777FD8095982F6093240270932502809326029093270208C0109224021092250210922602109227028FE695E00E94831308950E9437130E945B130E947F13089555
S284000B800E9439130E945D130E94811308959093B1028093B00281E895E00E943B1308950E94E713089580E00E94091481E00E94FC1382E00E94FC13089580E00E94EF1381E00E94FC1382E00E94FC13089582E00E94FC13089582E00E94FC13089582E00E94EF13089582E00E94FC13089581E00E940914089582E00E94091408950E9467
S284000C00E71380E00E94EF13089580E00E94091408951092B20208951092B2020E943A0B089582E08093B2020E943A0B0895A2E0B0E0EDE1F6E00C944AB41091B202123071F0133030F4112379F1113009F04CC00FC0143009F1153009F046C022C00E94200B0E94B90588E796E00E94C7053CC01A821982CE0101960E94FC08882351F029
S284000C80E981FA811193A0E0B2E085E30D9001928150E1F784E024C083EB92E00E94481523C01092B2021EC00E94CB0C83EB92E00E94741588EE93E0A0E0B0E08093B9029093BA02A093BB02B093BC0281E08093BD0281E196E09093BF028093BE0282E08093B2020E943A0B2296E3E00C9466B481E08093B2020E94C0050E943A0B0895A0
S284000D00FC0180A1803171F581E180A3DF01AF58BF4F8C9181A3DF01A55ABF4F8C9182A311968C91119783A312968C91129784A313968C91139785A314968C91149786A315968C91159787A316968C91169780A717968C9181A7CF0180966AE00E94220D0E94FB050895CF93DF93EC010E94FB05CE0166E30E94220D81E0DF91CF9108956E
S284000D80A4E0B0E0E6ECF6E00C944BB49C838B83FC01918180910102981709F04FC0928180910202981709F049C0938180910302981709F043C09481809104029817F1F59581809105029817C9F59681809106029817A1F5978180910702981779F5908580910802981751F563857485818592850E948C0BEB81FC8181E180831182809170
S284000E0001028283809102028383809103028483809104028583809105028683809106028783809107028087809108028187CF016AE00E94220D0E94FB054CC01A821982CE010196BE016D5F7F4F40E856E00E944F08882309F440C0E981FA8180E2DF011D928A95E9F7E981FA8181E090E09787868723E02283AB81BC8111962C91119725
S284000E80258312962C911297268313962C911397278314962C911497208715962C911597218716962C911697228717962C911797238718962C911897248721E02587918B808B228B8DE090E0948B838B87898C60878B108E81E001C080E02496E2E00C9467B4FC018AE294E09187808786E0828789E096E09383828387E196E091838083CF
S284000F008CE096E095838483178216820895DC01ED91FC911197E617F70781F40E941376682F792F0FC08617970739F4DB018D919C9111979183808305C0FC0180819181009789F7CB010895CF93DF93BC0163577040FC018081882321F41092C90282E00FC08091C9028F5F8093C902843028F41092C802C2ECD2E007C01092C90283E08F
S284000F808093C802C6ECD2E084EC92E00E948707BC01CE010E945A760E94660BDF91CF910895CF93DF931092C8021092C3021092C2021092C1021092C0021092C5021092C4021092C7021092C602C0ECD2E0CE016AEC72E00E945A76CE0164E473E00E945A76DF91CF910895CF93DF938091C802882329F08250823008F04EC03BC0C091C6
S284001000C202D091C302209709F446C00E94EF05FE01EF58FF4F84EA97E091838083FE01E359FF4FCE01829691838083CE01885A9F4F0E941A2F82EC92E00E941376BC0184EC92E00E945A7625C0EC012297FC01EA58FF4F0190F081E02D309709F0099586EC92E0BE010E948707BC0180EC92E00E945A768091C6029091C702009711F0B4
S284001080029602C080E090E00097F9F60E94F3051092C8020E94660BDF91CF910895A2E0B0E0E5E5F8E00C9445B47C018B016A012091C0023091C10221153105D9F180EC92E029833A830E941376BC0182EC92E00E945A76D801ED91FC91119729813A81309739F0D901929686E301900D928150E1F7D701ED91FC911197309741F0D901C4
S284001100A85ABF4F80E201900D928150E1F7C9018296F80191838083C901885A9F4FD70111969C938E9328583F4FF901D182C08281E001C080E089830E94660B89812296E8E00C9461B40F931F93CF93DF931092C1031092C0031092BF031092BE03C0E0D0E008E310E0C09FB001C19F700DD09F700D11246E537C4F8EEB93E00E945A766A
S2840011802196C430D10579F7DF91CF911F910F910895A3E0B0E0EFECF8E00C9449B4E091C003F091C103309719F18F010E5F1F4FCE01019662810E94B50B882331F0EA81FB81C8010995882341F080EC93E00E941376BC018EEB93E007C080EC93E00E941376BC0180EC93E00E945A760E94500B2396E4E00C9465B4A1E0B0E0E2E0F9E012
S2840012000C9447B48C01E090BE03F090BF03E114F104E9F08EEB93E00E941376BC0180EC93E00E945A76D801ED91FC911197309739F0D701129686E301900D928150E1F7C7010296F8019183808381E001C080E089830E94500B89812196E6E00C9463B42FB7F8948091D6079091D70794609093D7078093D6072FBF0895FC0182858823F1
S28400128021F484E08093BC0408950E9430090895882361F48091CB04882381F48EEB94E00E94481581E08093CB040895813031F41092CB048EEB94E00E94741508950E9405066091AD047091AE042091B5043091B6044091B7045091B804CB01A0E0B0E0281739074A075B0710F4DA01C9019B01281B390BC9013093AE042093AD0400979C
S28400130031F40E94FF058FEA94E00E9474150895CF93DF93EC0181E00E9448098F85882311F582E08093BC040E94DD05E091A604F091A704309709F009958B819C81909314028093130289819A8190930A02809309028D859E85909317028093160288818093150202C00E943009DF91CF9108950E94D3050895A2E0B0E0E1ECF9E00C946C
S2840013804BB4FC0182A193A19A8389830E94F705CE0101960E94FC082296E2E00C9467B4A9E0B0E0E6EDF9E00C944BB48091BC04813009F49BC0813038F0823009F475C0833009F0DBC0A2C00E94D00582EA94E00E947107198280E2BE016F5F7F4F0E94DA1489818093000281E08093AA0581E090E09093AC058093AB059093AE058093FD
S284001400AD058091AF05807F81608093AF058AEA95E09093BA058093B9058BEB99E09093BC058093BB0586EB95E00E94FE3184EF91E0A0E0B0E08093C4049093C504A093C604B093C7041092C80488EB99E09093CA048093C90480E0BE016E5F7F4F0E94BF14E1E0F2E08A81809301028B8181838C8182838D8183838E8184838F81858318
S2840014808885868389858783E091A404F091A504309709F009950E94D1070E94A30881E08093BC040E94300969C08091BD0480FF0AC08E7F8093BD04E091A204F091A304309709F009958091BD0482FF05C08B7F8093BD040E94F4078091BD0481FF4EC08D7F8093BD040E94C90848C00E94D30580E00E94480988E899E09093DF04809363
S284001500DE048CEC94E00E94358038C00E94E7058DE399E0909359058093580584E390E09093E7048093E60481E08093E8041092E9041092EA041092EB041092EC041092ED041092EE041092EF041092F004109212051092130510921405109215051092160510921705109218051092190580E480931A0580EE94E00E942B812996E2E0E0
S2840015800C9467B4FC018081803509F450C0803951F0813920F48E3808F449C010C0813909F045C004C084E08093BC0408950E94EB0581E08093BC040E94300908958681978190930A028093090283819481909314028093130281819281909317028093160285818093150281E00E9448090E94DD058091BC04813039F4E091A604F091C5
S284001600A704309709F009958091BC04843061F482E08093BC04E091A604F091A704309709F009950E94300982E08093BC040895E091A804F091A904309709F009950895A4E0B0E0E6E2FBE00C944BB480911602909117029A838983CE0101960E941A808B81809318028C81809319022496E2E00C9467B48091BC04823089F48091BD04B4
S28400168081608093BD042FB7F8948091D6079091D70794609093D7078093D6072FBF08958091BC04823089F48091BD0482608093BD042FB7F8948091D6079091D70794609093D7078093D6072FBF08958091BC04823089F48091BD0484608093BD042FB7F8948091D6079091D70794609093D7078093D6072FBF0895A2E0B0E0E2E8FBE0FA
S2840017000C944BB49A838983CE0101960E94FC082296E2E00C9467B4CF93DF93EB01009709F12097F9F09093AE048093AD048FEA94E00E947415CE01A0E0B0E08093B5049093B604A093B704B093B8041092B9048FE599E09093BB048093BA048FEA94E00E944815DF91CF910895EF92FF920F931F93CF93DF93EC01062F8091AA049091B0
S284001780AB040097D1F010E014C023E0129FC00111242091AA043091AB04280F391FCE01B90143E050E00E94D6B48881081761F01F5F8091AC04181740F383E0DE011D928A95E9F780E001C081E0CDB7DEB7E6E00C9463B40895089580913C068823E9F020913A0630E08CE790E0289FB001299F700D389F700D112462547A4FFB01E558F4
S284001800FF4F40818DE396E050E00E94B3172FEF8F3F920711F410923C06089580913C06882369F0815080933C0680913A06982F9F5F90933A06992311F080933A060E94EC0B08958DE197E00E94741510925E0681EA96E09093600680935F0610921C0708950E94220C0895A1E0B0E0EAE3FCE00C9442B48C017E010894E11CF11C33E0AF
S284001880D32EAA24A39422E0B22E95E0C92E84E0982E71C080915E06853009F478C08DE396E0B70141E050E00E9450171816190624F085E080935E066AC080915E068230A1F0833028F4882341F08130D1F51CC08330A1F08430A9F525C08981803189F510921C07B0925E062CC08981823019F4D0925E0626C010925E0623C0898180319C
S28400190011F5A0925E061DC08981803119F4D0925E0619C0833019F490925E0612C0C0925E060FC090911C078981981739F481EA96E060915F06681B0E947C0B0E94220C26C080E001C081E0298190911C07920F90931C07882369F0E0915F06F091600687E0EC31F80728F42193F0936006E0935F06015010400115110509F08BCF8DE168
S28400198097E00E9474158DE197E00E9448152196EBE00C945EB488EC809348061092490610925D0689E190E090934B0680934A0686E080934C0610924D0610924E0681E696E0909352068093510680E490E090935406809353061092560610925506109258061092570684E39CE090935A06809359068EE09CE090935C0680935B068DE352
S284001A0096E00E94311881E08093270784E690E0A0E0B0E08093230790932407A0932507B093260781E39CE090932907809328070E94220C8FE7EEEBF5E0DF011D928A95E9F70895CF93DF9320913C06222309F053C06C3308F050C021E020933C0640913B06242F30E0542F5F5F50933B06552311F040933B06DC018CE790E0289FF001F2
S284001A80299FF00D389FF00D1124EF01C254DA4F80E1888382E08983E054FA4FCD01860F911D40E008C05C91503111F45193405F5D91450F5193A817B907A9F7DF0180E18D9383E081834B5D11964C9311974CE750E0249FC001259F900D349F900D112482549A4FFC01E558FF4F1296A81BA0830E94EC0B81E001C080E0DF91CF91089571
S284001B000895A6E0B0E0E7E8FDE00C9449B48E010F5F1F4F26E0F80111922A95E9F7FC0123E0F695E7952A95E1F7E00FF11F8770907021E030E002C0220F331F8A95E2F72083C8010E94AD11D801E8E2F8E0CE0107963D912081232B2193A817B907C9F7809143088460809343082696E4E00C9465B402C00E94BE780E9453198823D1F781
S284001B8008950F931F93CF93DF938C01EB010E94B90DC801BE010E947A182FEF8F3F920739F08DE0C038D80729F40E94B90D02C081E001C080E0DF91CF911F910F9108950F931F93CF93DF938C01EB010E94B90DC801BE010E94DE182FEF8F3F920739F08DE0C038D80729F40E94B90D02C081E001C080E0DF91CF911F910F9108952F92A4
S284001C003F924F925F926F927F929F92AF92BF92CF92DF92EF92FF920F931F93DF93CF93CDB7DEB762970FB6F894DEBF0FBECDBF8091430882608093430882FF94C08AE297E068E278E00E945E12809143088B7F8093430888C0E0903007F0903107F70103E0F695E7950A95E1F7EA5EF74FC70187709070960102C0220F331F8A95E2F795
S284001C80C901809592898923828B69857A854B855C8580E00E947E12982E588A4F863A8A298A8F81988505979E878D87C50160E87DE00E94C10D8A819816A1F58D819E81E816F90679F52B853C858B819C812817390741F581E090E08C0F9D1F988B8F87DA8AC98A00E010E017C08F819885800F911F9E878D87C50160E87DE00E94C10DB6
S284001D00AF85B889E985FA85E00FF11F9C918081981741F40F5F1F4F8B859C850817190720F336C09A82FE82ED828B859C859C838B83CE010296988B8F8785E090E09A8B898B8F81988505979E878D87CE010D9660E87DE00E94E00DCE0107966FEF7DE00E94E00D27C017E0612E712C6C0E7D1EB1E0CB2ED12CA2E04A2E512C4C0E5D1E2F
S284001D80F5E02F2E312CEDE0AE2EB12CAC0EBD1E8AE297E0B3010E944D11882309F05BCF809143088D7F809343088FE060E070E00E94AC7762960FB6F894DEBF0FBECDBFCF91DF911F910F91FF90EF90DF90CF90BF90AF909F907F906F905F904F903F902F900895282F392FF90180E09191992329F48F5F8630D1F780E0089581E00895CB
S284001E009C01CB0146E0DB011D924A95E9F7F90143E0F695E7954A95E1F7E60FF71F2770307041E050E002C0440F551F2A95E2F72081242B20830E94AD110895972F882319F08130A1F40EC0AEE2B8E0E62FF72F9D9180818923819388E0A433B807C1F791E006C0862F0E94F01291E0811190E0892F08950E94810D8091430881FD02C0AB
S284001E800E94FF0D81E00895A6E0B0E0EAE4FFE00C9449B48E010F5F1F4FB8010E94000F80E0B8010E941E0FC8010E94F20E882381F0A2E2B8E0F8019D9180818923819388E0A832B807C1F7CE0101960E94F20E01C080E02696E4E00C9465B4A8E1B0E0E4E7FFE00C943FB400E211E010931708009316088AEA91E0909319088093180876
S284001F008AEA91E0801B910B26E030E0B9010E9405B480911A0890911B08682B792B70931B0860931A088EEC91E08A5A9140B9010E9405B480911C0890911D08682B792B70931D0860931C0810921E0810921F08109220081092210886E0EEE2F8E0DF011D928A95E9F7AA2483E1882E912C8C0E9D1EB1E0CB2ED12C38C0C401B80146E0A7
S284001F8050E00E94D6B48D899E890596A0E0B0E020911E0830911F084091200850912108820F931FA41FB51F80931E0890931F08A0932008B09321088F89988DFC01A3E0F695E795AA95E1F7EA5EF74F87709070960102C0220F331F8A95E2F7C901208D282B208F0A5F1F4FA39420911A0830911B088A2D90E08217930708F4BECFC90193
S284002000880F991F820F931F880F991F04966C01EE24FF24CE010D969A87898786E090E09C878B87AA24BB2400E010E067E0862E912C8C0E9D1E53E1652E712C6C0E7D1EF80143E0F695E7954A95E1F7EA5EF74F808D90E098012770307002C0969587952A95E2F780FF3DC0C501880F991F8A0D9B1D880F991F049698878F83C40160E830
S2840020807DE00E94C10D89899A898017910749F48D859E85AF85B8898C159D05AE05BF0559F01A8B098BCD86DE86EF86F88AC40160E87DE00E94E00DC8010E949110BC01C30146E050E00E94D6B48D899E890596A0E0B0E0C80ED91EEA1EFB1E0894A11CB11C0F5F1F4F0D32110509F0A9CF0E948810CE0101960E94F0126896EEE00C9483
S2840021005BB480914108909142080E943A0F089510923E0881E890E19093400880933F080895A2E0B0E0E7E9F0E10C9441B44C010091160810911708EE24FF245E010894A11CB11C13C06801B8016C5F7F4FC50142E050E00E94D6B40A5F1F4F89819A818815990561F00894E11CF11C80911A0890911B08E816F90630F3CC24DD24C601CD
S2840021802296ECE00C945DB4A2E1B0E0EAECF0E10C9448B48B01BC0153E0769567955A95E1F7FB01EA5EF74F208D30E0AC014770507002C0369527954A95E2F720FF4AC0DE011D96EEE2F8E026E001900D922150E1F7FF2420E030E0FE013D961BC0DF01A40FB51F4C91542F569555754575540F452F4695469543735373450F4C93A42F92
S284002200A295AF7050E04F7050704A0F511D240F351FF3944F2D50E04617570700F3A0E087709070FE013D96E60FF71F0DC0408150E00A2E02C0569547950A94E2F741705070240F351FAF5F4A2F50E04817590770F302C02FEF3FEFCE0107969C838B83C901880F991F820F931F880F991F04969A83898386E090E09E838D83CE01019688
S28400228060E87DE00E94C10D8F819885F801918380836296E5E00C9464B4A6E0B0E0E3E5F1E10C9447B47C018B0180E090E0FC0163E0F695E7956A95E1F7EE0DFF1D6081AC0147705070262F30E0042E02C0369527950A94E2F720FF10C021E030E002C0220F331F4A95E2F72095262320830E949110BC01009731F426C001968D32910531
S284002300B1F621C0CE01019646E050E00E94D6B489819A81F801938382838D819E81B8010E94C410F801808191810596918380838B819C81958384838D819E81F7019783868381E006C08FEF9FEFF7019783868380E02696E6E00C9463B44F925F926F927F929F92AF92BF92CF92DF92EF92FF920F931F93DF93CF93CDB7DEB728970FB6CE
S284002380F894DEBF0FBECDBF8C013091180820911908FC01858186FD12C0C901E92EF82ECC24DD2483E0482E512C4C0E5D1EB1E0AB2EB12C3E010894611C711C61C0C8016FEF70E046E050E00E9407B561C0C201B70146E050E00E94D6B42F813885F901A3E0F695E795AA95E1F7E00FF11F408127703070842F90E0022E02C096958795AA
S2840024000A94E2F780FF35C0C50102C0880F991F2A95E2F79C01209524232083992422C0880F991F6B817C81680F791FC30142E050E00E94D6B489819A81FC0173E0F695E7957A95E1F7E00FF11F87709070950102C0220F331F8A95E2F7C9012081282B20839394892D90E02D813E8182179307B8F20894C11CD11C86E090E0E80EF91E2C
S28400248080911C0890911D08C816D90608F49FCF28960FB6F894DEBF0FBECDBFCF91DF911F910F91FF90EF90DF90CF90BF90AF909F907F906F905F904F900895CF93DF93EC018FEF9FEF9F838E83DE01862F972FFC0186E001900D928150E1F7CE010E94AD11EEE2F8E0919188818923899388E0E433F807C1F7DF91CF910895262F372F40
S284002500F90120E030E004C09191890F2F5F3F4F24173507C8F30895ACE0B0E0E2E9F2E10C9444B47C018B01CE0102969A87898785E090E09C878B87FB0180819181059798878F8387E0C82ED12CCC0EDD1EC60160E87DE00E94C10D8D819E81E816F906C1F5F801248135818B819C812817390781F5CE0101969A87898781E090E09C8722
S2840025808B87EE24FF24BB24C601DC2CC92E18C0F801808191818E0D9F1D98878F838D2D9C2D60E87DE00E94C10D69857A858B2D41E050E00E947E12B82E0894E11CF11CF80184819581E816F90610F38A81B81611F082E001C080E02C96E9E00C9460B4AEE0B0E0E6EFF2E10C9443B48C0147E0E42EF12CEC0EFD1EC701B8010E945E129A
S28400260086E0D8011D928A95E9F7BE2CAF2C7E010894E11CF11C31E0C32ED12C1DC08D859E85B7010E948C128823B1F48D859E85FC0123E0F695E7952A95E1F7E00FF11F87709070960102C0220F331F8A95E2F7C9012081282B20838B2D9A2DB7010E944D118823E1F62E96EAE00C945FB480E0089580E00895909347088093460880914F
S2840026804C07826080934C072FB7F8948091D6079091D70791609093D7078093D6072FBF80E00895E0914608F091470881E060E070E00995089580E0089580E00895909349088093480880914C07846080934C072FB7F8948091D6079091D70791609093D7078093D6072FBF80E00895E0914808F091490881E060E070E00995089580E089
S284002700089580E00895909345088093440880914C07886080934C072FB7F8948091D6079091D70791609093D7078093D6072FBF80E00895E0914408F091450880E090E0099508950F931F93CF93DF9302E317E0C0E0D0E0FE01A3E0EE0FFF1FAA95E1F7EC1BFD0BED5CF84F808180FF0CC080818E7F8083E0914707F0914807309719F014
S284002780D8018C910995FE0173E0EE0FFF1F7A95E1F7EC1BFD0BED5CF84F808181FF0CC080818D7F8083E0914907F0914A07309719F0D8018C9109952196095F1F4FC330D10541F6DF91CF911F910F9108956A9A729A6B9A739A6C9A749A80E00895813039F0813018F0823031F404C0729808957398089574980895813039F0813018F0C3
S284002800823031F404C0729A0895739A0895749A0895813041F0813018F0823069F408C08EB194E002C08EB198E089278EB908958EB190E189278EB9089580914C0780FF07C080914C078E7F80934C070E94A21380914C0781FF07C080914C078D7F80934C070E94521380914C0782FF07C080914C078B7F80934C070E94761380914C07D5
S28400288083FF07C080914C07877F80934C070E949A1380914C07882361F02FB7F8948091D6079091D70791609093D7078093D6072FBF0895E0E9F0E188E3DF011D928A95E9F7B19681E08093B1108DE0818380EC82838EEB83838AE5848315821682178285E08093BB1084E091E164ED74E046E850E00E94D6B481E690E16AE575E04FE29C
S28400290050E00E94D6B48FE590E169E875E042E050E00E94D6B488EC90E16BE875E04CE350E00E94D6B485E198E0EAE4F8E0DF019C011D9221503040E1F70895A4E0B0E0E4EAF4E10C944BB4682F70E0660F771F660F771F6A517A4FCE01019644E050E00E94D6B469817A818B819C812496E2E00C9467B40E945A140E946E0F0895EF9280
S284002980FF921F93CF93DF93182FEB01209761F00E949E14AC01183220F0CE010E94D6B403C0CE010E94ECB4DF91CF911F91FF90EF900895EF92FF92CF93DF93EB01209771F0883260F406C0CB01BE01A9010E94ECB405C00E949E149C010097A9F7DF91CF91FF90EF900895CF93DF93EB010E949E14009711F479836883DF91CF9108958A
S284002A000E94D9040895EF92FF920F931F93CF93DF9318C08DE497E060E070E0AE010E94421B8A85882359F4EA82FB820C831D838DE497E0BE01A80197010E948A19EB85FC85099580914D0790914E070097D9F00E94D61D7B018C01C0914D07D0914E078A819B81AC81BD81A8019701281B390B4A0B5B0B8E819F81A885B98528173907C0
S284002A804A075B0738F6CDB7DEB7E6E00C9463B4CF93DF93EC01009771F0E0914D07F0914E0706C0EC17FD0749F00190F081E02D3097C1F709C02FEF3FEF02C020E030E0C901DF91CF9108950E94D61D9B01AC01198218826A837B838C839D838DE497E0BE010E948A19EACFCF93DF93EC010097D1F080914D0790914E078C179D0749F00E
S284002B008DE497E0BE010E94611BBC01009719F40AC060E070E08DE497E0AE010E94421B20E030E002C02FEF3FEFC901DF91CF9108958F929F92AF92BF92CF92DF92EF92FF920F930E94081C4B015C012091580730E040E050E060E070E080E090E000E20E94FE04282939294A295B290F91FF90EF90DF90CF90BF90AF909F908F90089517
S284002B80CF93DF93E82FF0E0DF01A05CB04093E0B595A7959A95E1F7B0E0AA0FBB1FA15BB84F6D917C9111976115710599F14FB7F894EB012A813B81888199814FBF2817390729F12D913C911197E901288D398D280F391FE9013881019620812064208336830D90BC91A02D5A962D913C915B978217930711F480E090E021812062218375
S284002C002FB7F894FB01918380832FBF03C0818180648183DF91CF91089590E0805C904033E0959587953A95E1F7E82FF0E0EE0FFF1FE15BF84FA081B1811097B9F090968C919097887191F42FB7F89418968D919C9119972FBF009749F00190F081E02D048CF58DE02D309709F009950895FC0193898385992349F4803C19F0883C89F474
S284002C8002C06A9A0895559A0895803C19F0883C41F404C06A987298729A089555985D985D9A089580EC0E94C015089580EC0E940D16089588EC0E94C015089588EC0E940D160895A3E0B0E0E8E6F6E10C9446B481E0898306E010E0DD2452E0E52EF12CEC0EFD1E9091560789818923B9F09FB7F8942091560789818227809356079FBF2C
S284002D006D2D70E0660F771F6E5C784FC70142E050E00E94D6B4EA81FB810995D3948981880F898301501040E9F62396E7E00C9462B49091560721E030E002C0220F331F8A95E2F7922B9093560780917D07806880937D072FB7F8948091D6079091D70782609093D7078093D6072FBF0895CF93DF93C82FD0E0DE01A05CB040E3E0B59506
S284002D80A795EA95E1F7B0E0AA0FBB1FA15BB84FED91FC911197309721F489818F77898335C080A183FD32C0C489D58984FF0AC06883ED91FC911197848995890196958B848B24C0209711F1268137818681978101969783868346815781868997894817590711F41782168246815781848195814817590719F43783268308C0C20FD31F4F
S284002E00688380859185019691878087DF91CF91089590E0805C904033E0959587953A95E1F790E0DC01AA0FBB1FA15BB84FED91FC911197309701F16FB7F89442815381208131816FBF4217530711F421E02287FC01EE0FFF1FE15BF84F0190F081E02D828D938D009711F4118E108E068CF78DE02D309709F00995089588EC0E94091787
S284002E80089580EC0E9409170895805C893030F4E82FF0E0EB5CFD4F8081089580E00895A0E0B0E0E6E5F7E10C9446B4EC018B017A01009709F44FC0DB848D2D0E944517882309F448C00115110509F444C0E114F10409F440C0ED2DF0E0E05CF04073E0F595E7957A95E1F7F0E0EE0FFF1FE15BF84F80819181C817D90769F52FB7F89432
S284002F004E815F818C819D812FBFD80120E030E010C0EC89FD89E80FF91F60816D9301966E897F898617970711F480E090E02F5F3F4F8417950719F02E153F0550F34FB7F8949D838C8388859985821B930B998788874FBF02C02FEF3FEFC901CDB7DEB7E7E00C9462B4A0E0B0E0E9EBF7E10C9443B4EC018B017A01009709F46AC0CB84EE
S284002F808C2D0E944517882309F463C00115110509F45FC0E114F10409F45BC0EC2DF0E0E05CF040B3E0F595E795BA95E1F7F0E0EE0FFF1FE15BF84F80819181C817D90709F047C08A8D9B8D009779F42A813B818881998128173907E1F5198F088FFB82EA8219821882C7012CC08FB7F894CA80DB80A880B9808FBFD801960180E090E012
S28400300015C0A9014F5F5F4F6A8D7B8D4617570711F440E050E04A155B0559F06D91E88DF98DE20FF31F608301969A018E159F0540F34FB7F8943B832A834FBFCA14DB0431F41A86EB85F0E02181206221839C0102C02FEF3FEFC901CDB7DEB7EAE00C945FB41F93CF93DF93EC010097E1F11B85812F0E9445178823B1F1E12FF0E0E05C9B
S284003080F04033E0F595E7953A95E1F7F0E0EE0FFF1FE15BF84F80819181009721F5D183C0838C85803419F4CE010E943716198218821B821A828C899D89009711F41F8A1E8A888D998D009711F41B8E1A8E1D821C821F821E8281E08A87CE010E94071E2B8530E002C02FEF3FEFC901DF91CF911F910895FC0180915707882309F057C066
S284003100309709F457C08481958120813181820F931F20E18130920708F04CC081E0809357077093911160939011AAE8B1E186E001900D928150E1F7F999FECF80E090E017C0E0918C11F0918D11E80FF91F20918A1130918B11A9014F5F5F4F50938B1140938A1132BD21BDF89A20B52083019620918E1130918F118217930710F310922C
S2840031808F1110928E1180917E07846080937E072FB7F8948091D6079091D70782609093D7078093D6072FBF20E030E005C02EEF3FEF02C02FEF3FEFC9010895CF93DF93FC019B0180915707882309F063C0309709F463C06081718184819581860F971F40E18130940708F058C081E080935707AAE8B1E186E001900D928150E1F73093EA
S2840032009111209390112115310519F4C0E0D0E033C0CB01019690938B1180938A11E0918C11F0918D114191F0938D11E0938C118CE00E94E42080918E1190918F11019790938F1180938E1122C060918A1170918B11CB01019690938B1180938A11E0918C11F0918D114191F0938D11E0938C1184E00E94E420219680918E1190918F11CA
S284003280C817D90710F3F999FECF1092570720E030E005C02EEF3FEF02C02FEF3FEFC901DF91CF91089581E090915707913009F080E0089580918E1190918F11009751F410925707E0919011F0919111309709F10995089560918A1170918B11CB01019690938B1180938A11E0918C11F0918D114191F0938D11E0938C118CE00E94E420F3
S28400330080918E1190918F11019790938F1180938E110895A2E1B0E0E0E9F9E10C943BB49A878987DB012B873C874D875E87FC01E080F180E114F10409F497C1222433244B855C856D857E859A01AB0160E070E0CB0129833A834B835C836D837E838F839887F88AEF86F701BA8BA98B02C01F01FC01E280F3800481158126813781408527
S28400338051856B857C858D859E856E157F058007910708F48FC060E070E0CB0157016801EE24FF248701622E6A0C77247394621608F07724932E9B0C88248394931608F08824790C55245394791408F055248528542E5C0C99249394541608F09924850C44244394851408F044249428052F0D0D11E0051708F010E0900EEE24E394901644
S28400340008F0EE241E2944244394161608F0442401E0171608F000E055245394181608F05524A62C7981A71A21E06A1408F020E0972D8A81981B81E0791608F080E0492F421B21E0941708F020E0822B282D9B81291B91E0821608F090E0522F581B81E0251708F080E0982B292DAC812A1B81E0921608F080E0E22EE91A91E02E1508F098
S28400348090E0892BB12FB81B8B2F91E01B1708F090E0242D291B922F21E0491608F020E0302F321B232F31E0021708F030E0142F052F95C039014A01AA24BB24650110950095F094E094E11CF11C011D111D722F7E1961E0271708F060E0872D8F1991E0781608F090E0A82FA61B6A2F552453948A1708F055249529582C501A81E0851466
S28400350008F080E0B52DB91B9B2F442443945B1608F044248429292D211B31E0921608F030E0E22EE81A81E02E1508F080E0832B819551E0181608F050E0519541E0151608F040E0419521E0141608F020E0522E5194A72E2981A21A11E07A1508F010E0262F3A81231B31E0621708F030E0622F611B162F61E0211708F060E0362B692FDE
S2840035807B81671B21E0961708F020E0062F031B91E0601708F090E0292B3E2D9C81391B91E0E31608F090E0E32EE21A21E03E1508F020E0922B682F691B91E0861708F090E0A52FA91B9A2F81E05A1708F080E0242F281B31E0421708F030E0862F531A69F5222359F5992349F5882339F5A989BA8916962D913D914D915C91199760E075
S28400360070E0CB01992321F51816C0F0882301F51716A0F07723E1F4161680F06623C1F4E51660F05E15A1F4041740F0401781F4131720F0311761F4A21650F480819181009709F094CE8F01A989BA891F0111C0EF84F8888F01A989BA89EE15FF0541F41196FC93EE93E985FA85B183A08306C0CF01F101B183A0838D939C936296E2E182
S2840036800C9457B4CF93DF93FC01DB01EA01808191814817590739F48881998119821882808391830BC08881998111969C938E93198218828C9111969C911197DF91CF910895DC01ED91FC91119706C0808191818617970719F0FC013097C1F7CF0108958FB7F89410925B0710925A07109259078FBF08958091930780FF0FC081E00E949C
S2840037001421809170008D7F809370000E94701B809193078B7F809393070895809170008C7F809370008091B60080628093B6001092B2001092B0001092B1001092B3008091B60090E08F7190700097C9F783E087BB87E08093B1008091700081608093700008958091B60090E08F7190700097C9F7809170008C7F809370008091B100C5
S284003780887F8093B10083B5826083BD8091B60090E08F7190700097C9F78091B6008F7D8093B60008959B01AC016091B200862F90E080959095AA2797FDA095BA2F9070A070B07082179307A407B50778F4281B390B4A0B5B0BBB27A52F942F832F90935A078093590720935B070895260F8091B60090E08F7190700097C9F72093B30095
S28400380082E087BB809170008260809370000895EF92FF920F931F938FB7F89490915C072091B20034E43093B4004091B60050E04F71507041155105C1F7B89904C030E040E050E009C02091B20030E040E050E021503F4F4F4F5F4F8FBF8FEF989FC0011124AA2797FDA095BA2F820F931FA41FB51F9C01AD0175E0220F331F441F551F37
S2840038807A95D1F77C018D0162E016950795F794E7946A95D1F72E0D3F1D401F511FE0905D07F0905E0700915F07109160072E0D3F1D401F511F281B390B4A0B5B0BB901CA011F910F91FF90EF90089560E270E080E090E008958FB7F89460915C0710925C078FBF70E080E090E020E43FE140E050E00E94DAB39B01AC0180915D0790912B
S2840039005E07A0915F07B0916007820F931FA41FB51F80935D0790935E07A0935F07B093600782179307A407B50728F4809158078F5F8093580708951F920F920FB60F920BB60F9211242F933F934F935F936F937F938F939F93AF93BF93EF93FF93809170008D7F8093700010925B078091930780FF03C080E00E9414218091930782FF34
S28400398011C080917B07816080937B072FB7F8948091D6079091D70782609093D7078093D6072FBFFF91EF91BF91AF919F918F917F916F915F914F913F912F910F900BBE0F900FBE0F901F9018951F920F920FB60F920BB60F9211242F933F934F935F936F937F938F939F93AF93BF93EF93FF938091590790915A070097A1F580915B073F
S284003A008823E9F48091930780FF03C080E00E9414218091930782FF34C080917B07816080937B072FB7F8948091D6079091D70782609093D7078093D6072FBF22C08091B60090E08F7190700097C9F780915B078093B30082E087BB8091700082608093700009C08091590790915A07019790935A07809359078091930780FF02C00E9440
S284003A80802180915C078F5F80935C0780917B07826080937B072FB7F8948091D6079091D70782609093D7078093D6072FBFFF91EF91BF91AF919F918F917F916F915F914F913F912F910F900BBE0F900FBE0F901F90189580E197E29093A9008093A800E1EAF0E088E08083808182608083E2E7F0E080818260808308959B01AC0180912C
S284003B00630790916407A0916507B0916607820F931FA41FB51F8093630790936407A0936507B093660780917F07846080937F072FB7F8948091D6079091D70782609093D7078093D6072FBF08958FB7F89460916207109262078FBF70E080E090E02AE030E040E050E00E94DAB39B01AC018091630790916407A0916507B0916607820F90
S284003B80931FA41FB51F8093630790936407A0936507B093660782179307A407B50728F4809161078F5F8093610708950E94A51D6091630770916407809165079091660708951F920F920FB60F9211242F938F939F93809162078F5F8093620780917F07846080937F072FB7F8948091D6079091D70782609093D7078093D6072FBF9F91CA
S284003C008F912F910F900FBE0F901F901895FC01A385B0E011961C92A385B0E08585968515969C938E9314978485A385882349F4B0E082E08C93A385B0E012961C92129707C0B0E01C92A385B0E0828912968C93A385B0E012968C9112979485892B12968C93A385B0E012968C9112979785892B12968C93A385B0E012968C911297908945
S284003C80892B12968C93A385B0E012968C9112979189892B12968C93A385B0E08C9180688C93A385B0E011968C911197886111968C931197E385F0E081818068818308951F920F920FB60F920BB60F9211242F933F934F935F936F937F938F939F93AF93BF93EF93FF93E1ECF0E080818F7D808380E00E949916FF91EF91BF91AF919F917A
S284003D008F917F916F915F914F913F912F910F900BBE0F900FBE0F901F9018951F920F920FB60F920BB60F9211242F933F934F935F936F937F938F939F93AF93BF93EF93FF93E1ECF0E080818F7B808381E00E949916FF91EF91BF91AF919F918F917F916F915F914F913F912F910F900BBE0F900FBE0F901F9018951F920F920FB60F92D4
S284003D800BB60F9211242F933F934F935F936F937F938F939F93AF93BF93EF93FF938091C0006091C6008C7131F480EC0E94B71682E00E949916FF91EF91BF91AF919F918F917F916F915F914F913F912F910F900BBE0F900FBE0F901F9018951F920F920FB60F920BB60F9211242F933F934F935F936F937F938F939F93AF93BF93EF9313
S284003E00FF93E9ECF0E080818F7D808383E00E949916FF91EF91BF91AF919F918F917F916F915F914F913F912F910F900BBE0F900FBE0F901F9018951F920F920FB60F920BB60F9211242F933F934F935F936F937F938F939F93AF93BF93EF93FF93E9ECF0E080818F7B808384E00E949916FF91EF91BF91AF919F918F917F916F915F91F4
S284003E804F913F912F910F900BBE0F900FBE0F901F9018951F920F920FB60F920BB60F9211242F933F934F935F936F937F938F939F93AF93BF93EF93FF938091C8006091CE008C7131F488EC0E94B71685E00E949916FF91EF91BF91AF919F918F917F916F915F914F913F912F910F900BBE0F900FBE0F901F9018951F920F920FB60F927D
S284003F000BB60F9211242F933F934F935F936F937F938F939F93AF93BF93EF93FF930E947A1BE0916707F09168070995FF91EF91BF91AF919F918F917F916F915F914F913F912F910F900BBE0F900FBE0F901F9018951F920F920FB60F920BB60F9211242F933F934F935F936F937F938F939F93AF93BF93EF93FF930E947A1BE09169077B
S284003F80F0916A070995FF91EF91BF91AF919F918F917F916F915F914F913F912F910F900BBE0F900FBE0F901F9018951F920F920FB60F920BB60F9211242F933F934F935F936F937F938F939F93AF93BF93EF93FF930E947A1BE0916B07F0916C070995FF91EF91BF91AF919F918F917F916F915F914F913F912F910F900BBE0F900FBE56
S2840040000F901F9018951F920F920FB60F920BB60F9211242F933F934F935F936F937F938F939F93AF93BF93EF93FF930E947A1BE0916D07F0916E070995FF91EF91BF91AF919F918F917F916F915F914F913F912F910F900BBE0F900FBE0F901F9018951F920F920FB60F920BB60F9211242F933F934F935F936F937F938F939F93AF9339
S284004080BF93EF93FF930E947A1BE0916F07F09170070995FF91EF91BF91AF919F918F917F916F915F914F913F912F910F900BBE0F900FBE0F901F9018951F920F920FB60F920BB60F9211242F933F934F935F936F937F938F939F93AF93BF93EF93FF930E947A1BE0917107F09172070995FF91EF91BF91AF919F918F917F916F915F9103
S2840041004F913F912F910F900BBE0F900FBE0F901F9018951F920F920FB60F920BB60F9211242F933F934F935F936F937F938F939F93AF93BF93EF93FF930E947A1BE0917307F09174070995FF91EF91BF91AF919F918F917F916F915F914F913F912F910F900BBE0F900FBE0F901F9018951F920F920FB60F920BB60F9211242F933F9366
S2840041804F935F936F937F938F939F93AF93BF93EF93FF930E947A1BE0917507F09176070995FF91EF91BF91AF919F918F917F916F915F914F913F912F910F900BBE0F900FBE0F901F901895F999FECF07B600FCFDCF72BD61BD40BD9FB7F8948FBBF99A9FBF08951F920F920FB60F9211242F938F939F93FB9880917E07846080937E0757
S2840042002FB7F8948091D6079091D70782609093D7078093D6072FBF9F918F912F910F900FBE0F901F901895909193078170880F9C7F982B90939307E9E3F1E080818D7F808380917F07816080937F072FB7F8948091D6079091D70782609093D7078093D6072FBF08958091930780FF48C08091A1008D7F8093A100809177079091780776
S284004280A0917907B0917A070097A105B10551F40E94081C60937707709378078093790790937A078091930783FD02C00E940F76F999FECF809193078860809393079091390192609093390182FF05C087E083BF889513BE0AC00E94B21B85E083BF889513BE0E948E1B0E94492284E48093B4008091B60090E08F7190700097C9F7089564
S284004300809193078160809393078091B60090E08F7190700097C9F780917F07886080937F072FB7F8948091D6079091D70782609093D7078093D6072FBF80E090E008950E94081C20917707309178074091790750917A07621B730B840B950B10927707109278071092790710927A070E947D1D8091A10082608093A100809141018F715D
S2840043808830D9F780919307877F809393070E940B768091930781FD07C0E0918407F0918507309709F009950895A0E0B0E0EBEDF1E20C943BB410E0C2E8DBE800E892E8692E9BE8792E812C912C82E8A82E8BE8B82E0E94E1042BE88338920718F16E01EE24FF249C0140E050E022583B4840405040C216D306E406F5064CF4123039F414
S28400440080916600815080936600000036C0209166002150209366000000EC01C258DB4811E028C02BE88238920739F16E01EE24FF249C0140E050E013012401221A330A440A550AC214D304E404F5044CF4113039F4809166008F5F8093660000000DC0209166002F5F209366000000E501C81BD90B12E0015009F0ACCFCDB7DEB7E2E177
S2840044800C9457B40E940726882311F40E94D5210895CF93DF93C8E8D3E188EC0E94D9042197D9F70E944222DF91CF91089580917F0782FF0BC09FB7F89480917F078B7F80937F079FBF0E940315A9C080917B0780FF0BC09FB7F89480917B078E7F80937B079FBF0E945C279AC080917B0781FF0BC09FB7F89480917B078D7F80937B07ED
S2840045009FBF0E946B1C8BC080917F0780FF0BC09FB7F89480917F078E7F80937F079FBF0E94A0217CC080917F0783FF0BC09FB7F89480917F07877F80937F079FBF0E9433216DC080917D0786FF0BC09FB7F89480917D078F7B80937D079FBF0E94D4245EC080917D0787FF0BC09FB7F89480917D078F7780937D079FBF0E9462164FC056
S28400458080917E0781FF0BC09FB7F89480917E078D7F80937E079FBF0E94802440C080917E0782FF0BC09FB7F89480917E078B7F80937E079FBF0E945A1931C080917E0780FF0BC09FB7F89480917E078E7F80937E079FBF0E94232522C080917F0781FF0BC09FB7F89480917F078D7F80937F079FBF0E945D2413C080917F0784FF0FC051
S2840046009FB7F89480917F078F7E80937F079FBFE0919211F0919311309709F0099580917B07882381F480917C07882361F480917D07882341F480917E07882321F480917F07882361F02FB7F8948091D6079091D70782609093D7078093D6072FBF0895E0918007F091810787E0828380E98093BC0080917F07826080937F072FB7F89496
S2840046808091D6079091D70782609093D7078093D6072FBF0895E0918007F09181078281823031F08281833019F08281843019F48581880F06C08281853049F48581880F8F5F8093BB0085E88093BC0008950E9430230895E0918007F091810720813181868197812817390780F480819181A085B185A80FB91F2C91019691838083209373
S284004700BB0085E88093BC00089586E0828384E98093BC0080917F07826080937F072FB7F8948091D6079091D70782609093D7078093D6072FBF0895E0918007F091810783859485A585B6852081318121503040318320832081318143E0220F331F4A95E1F704C0B695A795979587952A95D2F78093BB0085E88093BC0080819181009799
S28400478041F48281823019F484E08283089585E082830895E0918007F09181078281843019F40E946A2308958281823019F08281833019F40E949C2308958281853021F485EA8093BC0008950E9430230895E0918007F091810782818530A1F4868197818130910521F48091BC008F7B03C08091BC0080648093BC008091BC0085688093B6
S284004800BC0008950E9430230895E0918007F09181079281953011F520813181A085B185A20FB31F8C932F5F3F4F31832083208131818681978101972817390720F48091BC00806403C08091BC008F7B8093BC008091BC0085688093BC0008950E9430230895E0918007F09181079281953011F520813181A085B185A20FB31F8C932F5F7A
S2840048803F4F3183208386E0828384E98093BC0080917F07826080937F072FB7F8948091D6079091D70782609093D7078093D6072FBF08950E9430230895A0918007B09181071F96ED91FC9150973097A1F012968C911297863049F48091BC0084FDFCCF81E012968C93129704C081E012968C9380E00995089581E012968C931297089506
S284004900E0918207F09183070284F385E02D309709F00995089523982B981CBC0895E0919707F091980726813781848195812817390769F0A48DB58D8481958101969583848384819581A80FB91F8C918EBD0895E0919707F0919807309719F40E948B24089542855385228533852F5F3F4F33872287228533852A30310511F4138612862D
S28400498062857385208531856217730719F45387428708954C565E4EDA018C938485958501969587848708952FB7F894E0919707F0919807848595852FBF009731F005A0F6A1E02D309709F009950895ADE0B0E0ECEEF4E20C944BB4FC01009739F184819581909385078093840780819181A281B3818F839887A987BA8781E08B871D8610
S284004A001C86CE0101960E9423272FEF8F3F920781F02FEF8D3F920761F00E9480212FEF8F3F920749F42DEF3FEF08C02FEF3FEF05C02EEF3FEF02C020E030E0C9012D96E2E00C9467B4A0E1B0E0E9E2F5E20C9448B40091940710919507D80112968C911297823029F08430C9F0882331F074C070E060E088E0F82E6BC080E090E0D801FB
S284004A801396ED91FC911497E80FF91F208120933F0101968031910591F75EC010923C0180E010923E018F5F8031D9F780913C01806880933C0180913D0180FFFCCFFE013196CE014196DF0120913F012D93A817B907D1F7219120933F01E817F907D1F7C7CFF8018281823019F410923C0102C0F0923C01872F90E0AC01405F5F4F9C015F
S284004B00D8011396ED91FC911497E20FF31FE081E0933E012F5F3F4F2417350789F720913C01206820933C0120913D0120FFFCCF20913E01D8011396ED91FC911497E80FF91F208301968417950791F7705F6F5FF8018581681728F284E997E00E9413768091940790919507009789F080917E07816080937E072FB7F8948091D607909113
S284004B80D70782609093D7078093D6072FBFD8011696ED91FC91179709956096E5E00C9464B48FB390E0FC01E270F07081FDF9CF8FB7F89499E090935700E4918FBFEF70E23019F41092960703C081E0809396078FB7F89490919607992349F45F9350E85093610050E0509361005F9108C05F9350E85093610051E0509361005F918FBFBE
S284004C0080919607882311F40E94492208958091960708951F920F920FB60F920BB60F9211242F933F934F935F936F937F938F939F93AF93BF93EF93FF938091B90090E0887F90708832910569F1893291059CF48031910521F18131910534F4009729F18830910589F51BC088319105D9F08032910551F51AC088349105B9F0893491055A
S284004C803CF48033910589F080349105E9F410C08035910581F088359105B1F411C00E944B2312C00E94CA230FC00E9430230CC00E94E72309C08091BB000E94052404C08091BB000E943124FF91EF91BF91AF919F918F917F916F915F914F913F912F910F900BBE0F900FBE0F901F9018951F920F920FB60F920BB60F9211242F933F939B
S284004D004F935F938F939F93AF93BF93EF93FF93E0918207F0918307838126813781882349F48081918140917900280F391FD9014C930EC0808191814091780050917900DC01AA0FBB1FA20FB31F11965C934E93019691838083E0918207F0918307208131818085918528173907B1F480917A00877F80937A0080917E07826080937E0708
S284004D802FB7F8948091D6079091D70782609093D7078093D6072FBFFF91EF91BF91AF919F918F915F914F913F912F910F900BBE0F900FBE0F901F9018951F920F920FB60F920BB60F9211242F933F934F935F936F937F938F939F93AF93BF93EF93FF93DF93CF930F92CDB7DEB78EB589830E948F2489810E94A82480917D078064809372
S284004E007D072FB7F8948091D6079091D70782609093D7078093D6072FBF0F90CF91DF91FF91EF91BF91AF919F918F917F916F915F914F913F912F910F900BBE0F900FBE0F901F901895CF93DF93EC01009741F10E94661C2E813F81488559850E94DAB328EE33E040E050E00E9419B42115310541055105C1F08091930782FD17C084606E
S284004E8080939307E6E8F7E08DE0099001928150E1F7CA01B9010E94D31B20E030E008C02FEF3FEF05C02EEF3FEF02C02DEF3FEFC901DF91CF9108958091930782FF24C0909190079923B1F4E0919107F0919207309709F009958091930782FF15C060918C0770918D0780918E0790918F070E94D31B08958B7F80939307E0919107F091FE
S284004F009207309709F0099508958091AE07982F9F5F9093AE070895DC01ED91FC9111979093571280935612109243121092441280919D07809348122091AE113091AF1183899489B9010E9405B4462F6093461283899489B9010E9405B4009719F04F5F409346128FEF90E00090601002C0880F991F0A94E2F780958E7F809345120E94A6
S284004F808527809347120895FC01878983FF0AC081E090E0238934892036310528F480E090E0089580E090E00895CF93DF9340919E112091A3113091A41190E058C0F901225A3F4F578150FD51C0DF01AA5BBF4F11961C921E928230C1F0823018F0833009F048C09091A2112091A011921708F041C09F5F9093A211138214821582168222
S28400500090859F709087128228C02091A11190919F11291778F53091A511A091A611B091A71190E014C0ED014C919396442371F42F5F2093A11121E02883DF01AA5BBF4F68961196DC93CE93228303C09F5F931750F32091A511291769F09085907F9087880F816087831182108206C09F5F941708F4A5CFE0E0F0E0CF01DF91CF9108954F
S2840050802091A3113091A411821B930B6EE570E00E9405B4EEE56E9FF0011124E20FF31F8781869590E08230910571F0833091051CF08330910539F58091A211882319F181508093A2111FC08091A111882319F081508093A1112091A6113091A711DF01AA5BBF4F8D919C91821B930B63E270E00E9405B4A3E26A9FD0011124A20FB31F29
S2840051008C9181111C9287818E7F8783089521E030E002C0220F331F8A95E2F780919C07822B80939C072FB7F8948091D6079091D70780629093D7078093D6072FBF0895CF93DF93EC01009729F16B8F4115510551F0FA0180819181A281B3818C8F9D8FAE8FBF8F04C01C8E1D8E1E8E1F8EE98DFA8D309719F0CE014B960995CE010E9461
S284005180C427882339F0109257121092561281E00E948728DF91CF9108951F938091AF0781508093AF078091A8118330C9F1109142121123A9F181E08093A8116091601070E061507040882777FD8095982F2AE030E040E050E00E94DAB32091C3073091C4074091C5075091C607620F731F841F951F20919D0730E040E050E00E94DAB343
S2840052006093B0117093B1118093B2119093B3111150109342128EE997E00E9456780AC01092A8111092B0111092B1111092B2111092B3111F910895A1E0B0E0E2E2F9E20C9449B48C0189EC97E069830E9413766981D80117966C9317971596ED91FC911697C801079609958091C9079091CA07009719F080E00E9487282196E4E00C9499
S28400528065B42091AF072F5F2093AF070E9465620895AF92BF92DF92EF92FF920F931F93DF93CF930F92CDB7DEB78C015B01FB01E05BFF4F85E09BE291838083FB01EE5BFF4F82E08083FB01ED5BFF4FD80113968D919C91149791838083FB01E65BFF4F58968C9158978083FB01E55BFF4F1082FB01E45BFF4F81E08083FB01E35BFF4F9C
S2840053008083FB01E25BFF4F808357968C91579786FD0DC081E090E013962D913C911497BFEF283F3B0728F080E090E002C081E090E0F501E15BFF4F8083E090AE11F090AF11C8010E94C4278823E9F120914312422F50E08091461290E001974817590711F0DE2C06C02E9D802D1124F801D388D81A4091581250915912405E5F4F30E086
S2840053802E9DC0012F9D900D3E9D900D1124D80155962D913C915697280F391FCA01B9014D2D50E00E94ECB4F501EB5BFF4F8D2D865F8083F501EA5BFF4F8091581290915912469611C0F501EB5BFF4FD80153968C915397885F8083F501EA5BFF4F55968D919C915697089791838083F501EA5BFF4FE080F180F7012081822F8C7E808311
S284005400D80113968D919C911497207EBFEF873F9B0710F02860F7012083D7019C91892F8F7D8C93F801278922FD03C09F799C9321C08064D7018C93F5012085207F21602087C80129830E94C42729812F70882351F0809148128295807F822BD50118968C93189707C080919D078295807F822BF5018087C8010E94C427D7019C91882307
S284005480E1F090689C939091431218968C911897992359F48C7F816018968C9318978091461219968C9319970BC08C7F8260F701808780914312818703C09F77D7019C93F8018585D70111968C9311978089918913969C938E9312978685978515969C938E931497828916968C93C8010E94C427882329F080914712F701878305C00E94C4
S2840055008527D70117968C93C50109960E94412980E00F90CF91DF911F910F91FF90EF90DF90BF90AF9008956091561270915712FB01808191810E944929089526E032E1A901405D5F4F509307124093061292E0909302124091B7115091B81150930412409303129BE09093051210920A1210920B1291E090930C1290930D1210920E1271
S2840055804DEC58E2509311124093101290930F1292E8909336129091BE11909337124091BA115091BB1150933912409338124091BC115091BD1150933B1240933A129091B91190933C129091BF1190933D1292E090933E129091B51190933F129091B611909340129091411290931F121092B0111092B1111092B2111092B3118093A81101
S284005600C901CD970E9441290895BC018091AF0781508093AF078CEA97E00E945A7681E00E9487280895CF93DF93BC01C091C907D091CA0789EC97E00E945A76209719F480E00E948728DF91CF910895A3E0B0E0ECE2FBE20C9445B48C01675F7F4F7B836A838DE0BE016F5F7F4F0E94BF148981D80153962C915397882309F43FC0CA805A
S284005680DB8081E0F60181AF13968D919C91149793AF82AF285F24AF5596ED90FC90569788EF9FEFE80EF91EF6AEE5AE8FEFD70111968C931197F8018089918913969C938E9312978685978515969C938E931497828916968C930E948527D70117968C93D601DD96ED91FC91DE9788E08083EA81FB81E95BFF4F85E09BE241C0CA80DB80DF
S28400570082E0F60181AF8DEF9FEF93AF82AF275F24AFD8015596ED90FC905697E7EFFFEFEE0EFF1ED601DE96FC92EE92DD97F80183819481D70112969C938E9311978089918914969C938E9313978685978516969C938E931597828917968C930E948527F7018087D601DD96ED91FC91DE978CE08083EA81FB81E95BFF4F89E19CE291836F
S2840057808083EA81FB81EF5BFF4FD80158968C918083EA81FB81EE5BFF4F80915F108083EA81FB81ED5BFF4F81E08083EA81FB81EC5BFF4F8083EA81FB81EB5BFF4F8083EA81FB81EA5BFF4F80838A819B810E94412980E02396E8E00C9461B4A4E0B0E0E4EFFBE20C944AB4182F89E1BE016F5F7F4F0E94BF14612F70E080E090E02091D2
S284005800B3073091B4074091B5075091B6070E94DAB39B01AC0189819A81AB81BC81280F391F4A1F5B1FB901CA012496E3E00C9466B40F931F93CF93DF93EC018C0109541040D801DD96ED91FC91DE97818192816FEF0E940A5C882349F0229785E09BE299838883C8010E94286203C0CE010E94052BDF91CF911F910F9108958F929F92EA
S284005880BF92CF92DF92EF92FF920F931F93DF93CF930F92CDB7DEB76B01B42E79018090B1079090B2070091B00726E1029F80011124080D191D009719F126E1822E912C880E991E1DC0F4012589243A11F02A3A99F4F4018085B81679F481859285C816D90651F4C401B70148E050E029830E94DFB429810097B9F026E130E0820E931EB4
S2840059008016910600F388249924C4010F90CF91DF911F910F91FF90EF90DF90CF90BF909F908F900895243A39F7EFCFA1E0B0E0ECE9FCE20C9441B44C017B010E9430416C01F701E45AFF4F0081118158EA5F0129C0F50111830083F80183858330A9F4C8010C960E94626F0097D9F0F8012489F4012587FC0180819181F40194838383EA
S284005980C401B7010E9449290AC0F80184859585F40194838383C401B7010E94262B582F0EC059EAF40160897189C8014289960159830E943E2C8C015981009751F6852F2196ECE00C945DB41F93CF93DF93EB01FB01E45AFF4F118210820E94962C182F882319F0CE010E944028812FDF91CF911F910895A0E0B0E0E0E0FDE20C9444B48E
S284005A008C01B62EC091B107D091B2079091B00786E1989F70011124EC0EFD1E3CE0C32ED12CC00ED11E35C0F8012185328590858D89843A11F08A3A59F58885981741F589859A852817390719F5CE01B80148E050E00E94DFB40097D9F429C0813049F4F801248535858C859D852817390781F417C0F80194898C89981751F4BE01645F57
S284005A807F4FC60148E050E00E94DFB4009741F06696CE15DF0540F2F801B58AC0E0D0E07E01CE01CDB7DEB7E9E00C9460B4F80183859B85891761F7D1CFCF93DF930E94C6B4EC0144E0CC0FDD1F4A95E1F7C0700E94C6B4282F30E02C2B3D2BC901DF91CF91089588E365EA71E10E94BF148DE466EA71E10E94F4142091A6113091A71146
S284005B0060E083E290E00DC0462F50E0489FF001499FF00D589FF00D1124E20FF31F10826F5F4091A511641778F387E36EE971E10E94BF148CE463EA71E10E94F41480919E11E091A311F091A41190E006C027812E7F27839F5FE25AFF4F9817C0F39091A51190939F11823008F081508093A0111092A1111092A2118FE36EEA71E10E9418
S284005B80BF148EE36DEA71E10E94BF148091AD11882351F08EE469EA71E10E94F4148FE468E572E10E94F4144091AD1150E08091AE119091AF11489F9001499F300D589F300D11248091A9119091AA11820F931F9093AC118093AB111092A8110895A1E0B0E0E5EFFDE20C9447B410E001E02EE55FEFE52EF12C42C0129FC0011124E09123
S284005C00A311F091A411E80FF91F378130FF35C080858F70823089F53E7F323011F0363061F583819481A581B6818A309105A105B10548F00A97A109B10983839483A583B68300E01AC08085807F846080871382148215821682363059F4C7010090601002C0880F991F0A94E2F780958093451281E029830E94872829811F5F80919E1192
S284005C80181708F4B9CF8091B0119091B111A091B211B091B3110097A105B10591F08B309105A105B10550F00A97A109B109EEE9F1E1828B938BA48BB58B09C082E00E949E2A002321F08EE997E00E9460782196E6E00C9463B40F931F93CF93DF938C01FC01C081D1816E3C11F0603F11F423E001C022E0F801E95AFF4F80819181A28116
S284005D00B3818C8F9D8FAE8FBF8F6B8F233049F08A81882331F4CE01B8010E94962C883A61F4AE01445E5F4FF801808191816B8D0E94A028C8010E944028DF91CF911F910F910895CF93DF93EC01009709F44AC086EA8D8B8885882309F444C08F3F09F441C08B85833031F48C898823D9F18F3F19F438C08130B1F51D8ACE0160E00E9457
S284005D80FA2C009709F53091B0078091B1079091B20720E00BC0FC0145894696483A29F484EA858B309739F41DC02F5F231798F38EEA8D8B17C0DF0186E109900D928150E1F784EA858B09C0CE0166EA0E94FA2C24EAFC01258B009729F080E160E070E00E94AC77DF91CF910895FC01009709F186EA858B80858823E1F08F3FD1F08385A4
S284005E00833031F484898823A1F08F3F19F40895813079F4158ACF0164EA0E94FA2C009741F028EAFC01258B80E160E070E00E94AC770895BC0187EC97E00E945A7681E00E9487280895BC0181EC97E00E945A7681E00E9487280895AAE0B0E0E2E3FFE20C9445B4E090BB108EE2BE016F5F7F4F0E94BF148E01095F1F4F89E1B8010E943F
S284005E80BF148F819885A985BA852E2D30E040E050E0281739074A075B0760F0880F991FAA1FBB1F8F839887A987BA8789E1B8010E94DA142E2D30E0295F3F4F442737FD4095542F2093B3073093B4074093B5075093B607E980FF2400E010E0C801B701660F771F881F991F6E0D7F1D801F911F0E94DAB32F81388549855A85620F731F21
S284005F00841F951F6093C3077093C4078093C5079093C6078EE997E060E02AE030E040E050E00FEE1DE20E94697881E08B838EE2BE016E5F7F4F0E94BF148A8190E0A0E0B0E0880F991FAA1FBB1F8F3F9105A105B10529F020F08FEF90E0A0E0B0E00E94EE2B6B017C0183E2BE016D5F7F4F0E94BF142B8180E090E0DC018C0D9D1DAE1DF4
S284005F80BF1D81509E4FAF4FBF4FCC0CDD1CEE1CFF1C215091F71B827C018D01F9E016950795F794E794FA95D1F70894E11CF11C011D111D1E821D821C8289E3BE016C5F7F4F0E94BF1487E4BE016B5F7F4F0E94F4146D817E818FEFE816F1040105110531F028F0EFEFEE2EF12C012D112D87EB97E04C8120E032E00E2DEE24E3940E940A
S2840060007A762A96E8E00C9461B4882359F00E945D2D8093AE071092AF0783E26DE977E00E94BF141092C8071092C7071092C2071092C1071092AD071092AC071092CC071092CB078AE090E0A0E0B0E080934F1290935012A0935112B093521284E99AE2909355128093541281E08093531286E260E670E10E94BF141092B6111092BF11A9
S2840060801092B4111092BB111092BA111092B5111092B9111092BD111092BC111092B8111092B7111092BE111092A8111092B0111092B1111092B2111092B3118EE5E0ECF1E1DF011D928A95E9F783E2EEE1F2E1DF011D928A95E9F74091AD1150E08091AE119091AF110196489F9001499F300D589F300D11248091A9119091AA1160E04B
S28400610070E0A9010E9407B586E392E190930712809306120E942C2F0895A0E0B0E0E3E9F0E30C9445B47C01EC0129978091990790919A0727E08030920709F061C00AC087EC97E00E941376C80163EA40E050E00E94A0280091C7071091C8070115110579F72DC08CEA97E0B8010E9424762091A3113091A411C801821B930BB6010E9475
S28400618005B48EE5689FF0011124E20FF31F808191812781269530E02115310521F02130310581F406C0A8014B5F5F4FF801628103C067EA40E050E00E94A02803C0AEE5CA2ED12C0091AC071091AD070115110549F610E00EE510C0109F900111248091A3119091A411820F931FFC01278120FF02C00E9440281F5F80919E11181760F329
S28400620010929C0710929B0781E00E9405300E94722D8A850E94345E0A85102F11700695017081E561EB77E00E94F4148DE360EB77E00E94BF14000F012B033099F0E091B107F091B2079091B00786E1989FC00111248E0F9F1F28EA02C0258B7696E817F907D8F38A8581FF03C08FE394E002C080E393E090939A0780939907F701808184
S2840062808E8789EC97E00E941376EC85FD85CE010E9609958091C9079091CA07009719F080E00E948728CDB7DEB7E8E00C9461B4CF93DF93C091C907D091CA078A818A3821F1853C09F44AC0893109F065C08091990790919A0721E08031920719F480E092E002C080E097E090939A07809399078A858D838B858E838DE890E398878F8303
S284006300CE0103960E94897147C08091990790919A0723E08033920721F026E08031920751F48FE394E090939A07809399070E942C2F1D8202C083EA8D8389EC97E00E941376EB81FC81CE01059609958091C9079091CA07009701F180E017C08091990790919A0724E08F33920791F480E095E090939A078093990782E090E09C838B8330
S2840063808EE997E00E94607881E00E94872804C0CE0163EA0E941C29DF91CF9108959C018FEF6F3F780731F4832F8095881F8827881F089581E02617370709F080E00895FC01009729F48091CD079091CE0708958081918108951F93182FE0E0F0E005C0A381B4818C91181731F0CF010E94E031FC010097A9F7CF011F910895CF93DF9315
S284006400EC010097E1F086EA8F83EB81FC813097B1F08081982F9150903F88F40E94EB31009769F421E08D819E81009709F020E02A838DEC97E0BE010E945A761F82DF91CF910895A0E0B0E0E8E2F2E30C9446B4EC0100E010E026C0D80112968C911297882301F51396ED90FC9014976C8D7D8DF701818192810E94CF31882399F0D701C0
S284006480DC908B8D8D1539F4EF84F8880E94AC59E816F90639F08B819C816D2D0E940A5C882339F4C8010E94E0318C010097A1F609C0DD86D8011596ED91FC911697CE010995F0CFCDB7DEB7E7E00C9462B4ADE2B0E0EDE6F2E30C9441B48C01C62EDC011A96ED90FC901B9715962D913C91169787EB97E0B901F70147810E94E87688236A
S28400650009F42AC1D70111968C911197982F91509E3F30F40E94EB315C01009719F41CC1AA24BB24F801228183819481213009F022E02B839D838C83D70111968C918E87F801858196810E94C66AFC01009799F083E08F8780818A8B81818B8B82818C8B83818D8B84818E8B85818F8B8681888F8781898F02C082E08F87D80115968D912F
S2840065809C911697998B888B17968D919C9118979B8F8A8FF70186818C8F848195819E8F8D8F8281938198A38F8F19968C91199790E09C012A5030403AA329A31DA2208127FD04C09C012850304009C0D70118962C911897237029F49C01295030403AA329A329A13AA1821B930BF80122853385280F391F3CA32BA3CEA282898FA3848500
S28400660088A786859785A089B18989A79AA7ABA7BCA785858DA7D7018C9187FF53C018968C9118978370823009F04CC0E091AB11F091AC11808189A31AA280809924B1E0CB2ED12C33C08091A9119091AA11DC01A80DB91DE091AB11F091AC11EC0DFD1D40816091AE117091AF11C69E9001C79E300DD69E300D1124280F391FCD01B90168
S28400668050E00E94ECB4E091AB11F091AC11EC0DFD1D208189A19AA1820F911D9AA389A38081880E911C0894C11CD11C8091B41190E0C816D9063CF28091A9119091AA119CA38BA3A114B10449F0D5011596ED91FC911697CE01019609953EC0F8018281813029F4CE0101960E94223235C0D70111968C9111978F3F59F5EE24FF246E010B
S2840067000894C11CD11C1DC0D7011396ED91FC911497A080AA20A9F012968C911297882381F46D8D7E8D818192810E94CF31882341F0AE86D7011596ED91FC911697C6010995C7010E94E0317C010097E9F604C0CE0101960E947B80F801168A0488F589E02DC80146960995AD96ECE00C945DB4A1E0B0E0EEEBF3E30C9443B48C01DC0174
S2840067801A96AD90BC901B97F5018181982F91509E3FC0F40E94EB317C01009709F423C1DC011396ED91FC911497D50114966D917C911597818192810E94CF31882309F412C102C0EE24FF24F501808187FF04C09085937009F007C186FF03C18C70883009F401C1D80115962D913C911697BFEF273F3B0708F0F7C0E114F10429F0F70197
S2840068008281882309F0EFC0D5018C9186FFE5C08370813011F441E001C047E0F0909E11E091A311F091A411ED5BFF4F50E0842F90E0B501680F791F1AC0DF01A354B0401796AC91A53081F4A081B1812A173B0759F4C380D480C80ED91EDB01EC90D601DC90ED1409F4B9C05F5FE25AFF4F5F1520F382E049830E94D5274981009709F44F
S284006880ACC0FC01EA5BFF4F0190F081E02DDF0158972FEA11962C93119713961C930E931297DC01AE5BBF4F62E06C9353E4E52EF12CE80EF91ED80115962D913C911697D7012D933C93DC01A65BBF4F1C92DC01A55BBF4F1C92DC01A45BBF4F51E05C93DC01A35BBF4F5C93DC01A25BBF4F1C92DC01A05BBF4F25E03BE22D933C93DC0105
S284006900A15BBF4F5C9320812C7F22602083D5013C913C70237F232B20833C9130712F7E232B322F3F7930833C9130782F71232B20832C9150E035E4E32EF12CE80EF91E24FF0DC0D8011A962D913C911B97240F351FD9012C912183F701608339C028E0D7012C93D50116962C911697218312962D913C9113973383228314962D913C9162
S28400698015973583248311962C912683D8011A962D913C911B97240F351FD9012C912783D5012C9127FF14C018962C911897237031F41086F70120812F5F208309C0D7012C912D5F2C93D50118962C912370208709960E94412991E001C090E081E08927B1C181E001C080E0F501908197FFA1C1F0849F2D937009F49CC1D80119968C9176
S284006A001997E1844091AD11442309F49AC196EFD92ED80E8091A811882321F0813009F090C158C0BF2DB13009F08BC14E1508F488C18091AE119091AF112D2D30E08217930708F47EC150E00196489F9001499F300D589F300D11248091A9119091AA1160E070E0A9010E9407B58FEA80934112F092A811E092B411F801858196819093CA
S284006A80B8118093B711D50111968C9111978093B91112968D919C9113979093BB118093BA1114968D919C9115979093BD118093BC1116968C9116978093BE1117968C9117978093BF1180919D07809342121092B511EE24F5018085982F9370923019F0EE2009F02EC18C7F09F02BC18091B4118E1508F426C12091B7113091B811D801FB
S284006B0015968D919C9116972817390709F019C19091B911F5018181981709F012C12091BA113091BB11828193812817390709F008C12091BC113091BD11848195812817390709F0FEC09091BE118681981709F0F8C09091BF118781981709F0F2C05091B511409160102E2D30E0852F90E0840F911D281739070CF0E4C08E2D642F0E948D
S284006B80F9B3F92EE51670F48E2D891B8093B51181E090E002C0880F991F4A95E2F781958093B611AE2CBB242091AE113091AF11A29EC001A39E900DB29E900D11244091A9115091AA11480F591FD8011A962D913C911B97265F3F4FCA01B9014D2D50E00E94ECB4E091AB11F091AC11EA0DFB1DD0825091B5115E1591F42091B4118091BF
S284006C0060102E19821708F4282F81E090E002C0880F991F2A95E2F781958093B61181E090E00F2C02C0880F991F0A94E2F74091B611482B4093B6114F3F79F4252F2150E090B411FF248091601090E0E51AF1088E159F050CF47C01E20E2E2D30E08091B41190E001972817390751F44F3F21F483E00E949E2A5FC082E00E949E2A61C08B
S284006C806091601070E061507040CB01850F911D2817390711F04F3F11F582E00E949E2A8091B6118F3F09F04CC0809160109091B511980F9093B511E0949091B411E90E8E1508F4E82E81E090E00E2C02C0880F991F0A94E2F781958093B61132C0882777FD8095982F2AE030E040E050E00E94DAB32091C3073091C4074091C507509154
S284006D00C607620F731F841F951F20919D0730E040E050E00E94DAB36093B0117093B1118093B2119093B3118EE997E00E94567808C0882331F0C8016FEA0E94673280E001C081E02196EAE00C945FB4A3E3B0E0ECEAF6E30C943BB44090990750909A0720E1421621E0520609F472C330E3431633E0530609F07EC16BC32091A31130913B
S284006D80A411C701821B930B6EE570E00E9405B44EE5649F80011124020F131F50E1451656E0550629F080E0481685E0580689F5D80117968C9117978E7F843001F52091A6113091A711F801EA5BFF4F80819181821B930B63E270E00E9405B4B3E26B9FF0011124E20FF31F6181D70112968C911297882321F4828193810E946732A70117
S284006E004B5F5F4FF8018081918163EA0E94A0282DC1D8011796CC901797C694DD24B1E0CB16D104D1F0E2E0CE16D10424F4C114D10461F022C1F2E0CF16D10409F4FCC023E0C216D10409F018C17DC0C801D70112966C910E946B2E10C1F80180858F70813009F00AC1D70119968C910E94EE2B6EA77FA788AB99AB60909D077724F8019F
S284006E80808582958F70681A7108D70112966C911297662351F50E945D2D4C01AA24BB242FEF31E040E050E082229322A422B522062C02C0CC0CDD1C0A94E2F79601442737FD4095542F6EA57FA588A999A90E94DAB3860E971EA81EB91ED80113968D929D92AD92BC92169724C06E3C11F0603F61F4A7014B5F5F4FF801808191810E9423
S284006F00A028C7010E944028A3C20E945D2D917028EE33E002C0220F331F6A94E2F73901820F931FA0E0B0E0F80183839483A583B683D80118968C911897807F826018968C93189774C0F80180858F70813009F094C02091431230E08091461290E001972817390759F1E091601070914512272F30E080E090E01FC00196A901062E02C0E3
S284006F80559547950A94E2F740FF15C0C101062E02C0880F991F0A94E2F7809587238093451280914412860F8093431289E492E10E94481562C0682F8E17F0F2D70119968C910E94EE2B20919D0730E0F801408542954F70241B3109A10102C0440F551F2A95E2F79A01442737FD4095542F0E94DAB37B018C01C0905612D09057120E94D0
S2840070005D2DA0E0B0E09170A070B0708E0D9F1DA01FB11FF60183839483A583B683E0915612F09157128085807F826080878EE997E00E94567821C02091A6113091A711F801EA5BFF4F80819181821B930B63E270E00E9405B443E2649FF0011124E20FF31F8281938161810E946732C7010E94402803C081E0282E312C8CEA97E00E948E
S28400708013767C01009709F078CEE2C181EC97E00E9413765FE3E51654E0F50651F0D8011A96ED91FC911B9780818370813009F0C3C1F80162855385E62FF52F4081A42FA07446FF14C07091A11120919E1130E0B091A211872F90E08B0F911D821793070CF0AAC180919F11781708F0A5C1242F2C70243009F4A0C1AA2359F0842F83700C
S284007100823009F499C1283009F496C12C3009F493C145FD91C1D80112966C90B62DB13079F0B23009F088C18081837090E0009729F08230910509F07FC180C02C3039F0C8010E94B833882309F492C175C1E62EF52EF8016581768187EB97E0D70118964C910E94E876882309F466C1F8018185893008F461C12B82D70111968D919C91F0
S28400718012979D838C83858196810E94C66AFC01009791F0AF8680818A8B81818B8B82818C8B83818D8B84818E8B85818F8B8681888F8781898F06C06F86F80185819681998B888BD80117968D919C9118979B8F8A8FF70187818C8F858196819E8F8D8F8381948198A38F8F19968C91199790E009979AA389A31A968D919C911B9709969A
S2840072009CA38BA31DA2BEA252968C9152978FA31C968C911C9788A71E968D919D910D90BC91A02D89A79AA7ABA7BCA7D8011D968C918DA7C4010E942232FEC0E62FF52FE090A311F090A41180919E11BEE58B9FC00111248E0D9F1DEBC0D70117966C91179760FFE1C018962C9118972F70223009F0DAC0AA5BBF4F7C9111966C90D701F9
S2840072802D913C91D80115964D915C911697D90113962D913C9114974217530709F0C4C0A72FB62D378117962C911797321709F0BBC04481558114962D913C9115974217530709F0B1C04281538112962D913C9113974217530709F0A7C0318116962C911697321709F0A0C0368111962C911197321709F099C06E7F623031F4F70180854A
S284007300807F836080873EC0663009F08DC0918580914412981709F08FC060916010262F30E0C601062E02C0880F991F0A94E2F781959285982B9287D70118968C911897807F836018968C931897E285EF3FE1F54091461250E070914412E72FE150CA01871B9109281739070CF4C9018E0F8093431290E0415050408417950741F4C70153
S2840073800E948C27C70160E00E946B2E55C0760F7093441280919D078093481270934312F20102C0EE0FFF1F6A95E2F7BF0160956E7F609345126091561270915712DB018D919C9111972DC0E095E093451280E090E02E2F30E01BC00196A901072E02C0559547950A94E2F740FF11C0C601072E02C0880F991F0A94E2F780958E23809337
S284007400451280914412870F8093431203C0782F861710F36091561270915712FB01808191810E94492908C02EE530E0E20EF31EE816F90608F411CFD80156961C9256975496ED91FC915597C8014696099510C0222423940FEAB02E4E010894811C911C13E0A12EB1E0CB2ED12CAFEF4A2E512C0091C1071091C207E0909907F0909A0769
S2840074800115110509F002CEE1FE0CC006C187EC97E0B8010E942476C80163EA40E050E00E94A0280091C7071091C8070115110571F7FDC080915612909157120097A1F0C8010E94C427882351F40EC0F80190818181092F182F0115110509F4E8C0C8010E94C427882391F7D8015796EC905797E7FC62C0C8010E94C427882349F08091AD
S284007500581290915912009709F456C0E2FE54C0F801838994898036910510F0E3FE4EC0D8015296CC905297CC2031F08C2D0E94EB31009709F48AC02E2D2470E2FE0EC0F8018281823039F483819481FFEF883F9F0720F07BC0813009F478C0D80112968C911297982F9250923040F41D968C911D97815F8E3008F064C168C0882309F09F
S28400758060C1222309F45DC1F801E088F1880E9430414C0180E090E007C0DC011B962C911B97213009F452C0B7014C2D94010E943E2C009791F745C12AEA49C020EA47C0C8010E94C427882311F083E007C0F801878982FF02C081E001C080E00E94D5277C01F4EECF2EFCE2DF2E18C180E00E94D5277C01E6E2CE2EEBE2DE2E0FC1C80149
S28400760005960E94626F0097F9F0DC018D919C91F801948383836282C8010E94C427882311F083E009C0D80157968C91579782FF02C081E001C080E00E94D5277C0179E4C72E79E2D72EEAC029EA01C026EACC24DD24EE24FF2487EC97E0B8012BAB0E9424762BA9222391F4F70111830083C8010E94C427882319F0C7010E948C27C801BE
