:100000000C94A7000C94C6000C94C6000C94C60077
:100010000C94C6000C94C6000C9454140C94C600A6
:100020000C94C6000C94C6000C94C6000C94C60038
:100030000C94C6000C94C6000C94C6000C94C60028
:100040000C94C6000C9442190C94C6000C94C60083
:100050000C9411190C94C6000C94C6000C94C600A4
:100060000C94C6000C94D1130C94C6000C94FD1390
:100070000C94C6000C94C6000C94C6000C94C600E8
:100080000C94C6000C94C6000C94C6000C94C600D8
:100090000C94C6000C94C6000C94C6000C94C600C8
:1000A0000C94C6000C94C6000C94C6000C94C600B8
:1000B0000C94C6000C94C6000C94C6000C94C600A8
:1000C0000C94C6000C94C6000C94C60003020201F6
:1000D000010000FFFEFDFCFBF9F7F4EF1E2BBC2333
:1000E000E1247B34E9352830503ADB37F8374B3799
:1000F0006B3EF24000006142C43A000070280A28BA
:1001000082289F2890285C292229B6280000000018
:100110008429BF29D228FC297329E129A529B229DC
:10012000EF299829010401010102010101010101E6
:1001300001010101040108020101010102010102A2
:100140000102010102010202010101010800112462
:100150001FBECFEFD1E2DEBFCDBF1CE0A0E0B2E01A
:10016000E4EBF0EB00E00BBF02C007900D92A43669
:10017000B107D9F728E1A4E6BCE001C01D92A7327F
:10018000B207E1F70E943E4E0C9458580C940000C0
:10019000EF92FF920F931F9362E081E00E94001A9A
:1001A000E12CF12C08EC10E020E040E251EA67E09D
:1001B00070E087E00E94C8171F910F91FF90EF90A9
:1001C000089587E00E94151761E082E00C94001A00
:1001D000EF92FF920F931F93CF93DF9300D0CDB791
:1001E000DEB790913311811141C0992321F082EF44
:1001F00094E00E941A558091270290912802209144
:100200003311892B99F4222341F08EEF94E09F93D0
:100210008F930E9402550F900F9019821A82BE018F
:100220006F5F7F4F83E50E942E462DC0222341F051
:100230008FE295E09F938F930E9402550F900F904D
:1002400000E024E040E058EF6FEF77E081E00E94AB
:10025000A246E12CF12C08EC10E020E040E251EA4B
:1002600067E070E087E00E94C8170DC0992341F055
:1002700080E595E09F938F930E9402550F900F9019
:1002800081E00E9400460F900F90DF91CF911F9167
:100290000F91FF90EF900895CF92DF92EF920F931E
:1002A000CF93DF93909132119F5F90933211909191
:1002B00033118111DFC0992321F08EE695E00E9471
:1002C0001A55E60120E0BAC03B85343109F0B4C0CC
:1002D0008C858111B1C089819A818E3B9A4509F044
:1002E000ABC08D859E8597FFA7C080913311882371
:1002F000B1F01F921F921F923F938AE58F938EEB6E
:100300008F938EE795E09F938F930E9402558DB750
:100310009EB708960FB6F8949EBF0FBE8DBF98810A
:10032000809133119230C9F4882381F08091251196
:100330008F93809124118F938BEA95E09F938F93F5
:100340000E9402550F900F900F900F908B819C810F
:10035000909325118093241157C0933009F041C028
:10036000882331F180912D118F9380912C118F93DF
:1003700080912B118F9380912A118F938091291155
:100380008F93809128118F93809127118F93809163
:1003900026118F938BEC95E09F938F930E940255CB
:1003A0008DB79EB70A960FB6F8949EBF0FBE8DBF4D
:1003B0007B816C815D814E813F81288599858A850D
:1003C000709326116093271150932811409329119F
:1003D00030932A1120932B1190932C1180932D117F
:1003E00013C0882341F080E595E09F938F930E948E
:1003F00002550F900F9081E0DF91CF910F91EF9018
:10040000DF90CF900C94004680913311882341F007
:100410008CED95E09F938F930E9402550F900F9063
:1004200020E8AE016C858B85DF91CF910F91EF9025
:10043000DF90CF900C94F04465962F5F2E1144CF3F
:100440009091321180913311933058F6882341F006
:1004500087EF95E09F938F930E9402550F900F9026
:1004600000E024E040E058EF6FEF77E081E00E9489
:10047000A24617C08A3E89F4992341F082E396E0B0
:100480009F938F930E9402550F900F90809132118D
:10049000833030F380913311A4CF992309F4ABCF8B
:1004A000A2CFDF91CF910F91EF90DF90CF90089581
:1004B00080913311611114C0882321F08FE696E0FA
:1004C0000E941A5587E00E94151760E081E00E94A3
:1004D000001A83E090E090933511809334110895D1
:1004E000882341F080E595E09F938F930E94025509
:1004F0000F900F9081E00C940046089561110FC099
:1005000080913311882321F088E996E00E941A55E2
:1005100081E08093851561E082E00C94001A0895D3
:10052000AF92CF92EF920F93CF93DF931F92CDB7FD
:10053000DEB7811143C080913311633589F488237C
:1005400041F080EB96E09F938F930E9402550F90AD
:100550000F9081E08983BE016F5F7F4F81E412C0FD
:10056000613499F4882341F083EF96E09F938F9351
:100570000E9402550F900F9081E08983BE016F5F4A
:100580007F4F82E50E942E4628C06235B9F4882349
:1005900041F084E397E09F938F930E9402550F9060
:1005A0000F90A12CC12CEE24E3940FE02FE040E04B
:1005B00064E18EEB9AE50E94DA460FC08091331118
:1005C000882341F080E595E09F938F930E94025528
:1005D0000F900F9081E00E9400460F90DF91CF9125
:1005E0000F91EF90CF90AF900895909133118111BA
:1005F00029C09923C9F01F921F921F921F921F9228
:1006000084E18F938AE58F938EEB8F938CE697E04E
:100610009F938F930E9402558DB79EB70A960FB68F
:10062000F8949EBF0FBE8DBF87E00E94151760E053
:1006300081E00E94001A82E090E09093351180934F
:1006400034110895992341F080E595E09F938F93AD
:100650000E9402550F900F9081E00C9400462F925B
:100660003F924F925F926F927F928F929F92AF9242
:10067000BF92CF92DF92EF92FF920F931F93CF938F
:10068000DF93922E832E742E652E562E472E382EF3
:10069000292E80913311882341F08DEC97E09F93B0
:1006A0008F930E9402550F900F90AEE3B1E1FD01D0
:1006B000C081D1812097A1F022813381448155816D
:1006C0006681778180859185A92CB82CC72CD62C82
:1006D000E52CF42C032D122D0E949B5209F443C0EB
:1006E0003A9685E1E632F80719F780E090E02D911F
:1006F0003C911197EC012196232BA9F42AE0289F25
:10070000D001299FB00D1124A25CBE4EFD01C19302
:10071000D19312969C928182728263825482458226
:100720003682278220C0CE011A96C436D105F9F64A
:100730001FC08EEE97E00E941A55E12C8E0108C072
:1007400087E098E00E941A55EE24E3940FEF1FEF24
:10075000292D382D472D562D652D742D832D922D45
:100760000E9434450AC080913311882331F3E1CFD0
:1007700080913311882341F3E3CFDF91CF911F9113
:100780000F91FF90EF90DF90CF90BF90AF909F9030
:100790008F907F906F905F904F903F902F90089533
:1007A0007F928F929F92AF92BF92CF92DF92EF9201
:1007B000FF920F931F93CF93DF93CDB7DEB72F97A1
:1007C0000FB6F894DEBF0FBECDBF142F4901AC8623
:1007D000BD86CE86DF8660E082E00E94001ACE01F0
:1007E0000C960E945519CC84DD84EE84FF848091A0
:1007F000361190913711A0913811B0913911C092F2
:100800003611D0923711E0923811F0923911C81A8E
:10081000D90AEA0AFB0AC114D10421E0E206F10474
:1008200028F0CC24CA94DC2CE12CF12CF401918129
:1008300080913311913F09F46DC0923F09F4D1C00A
:10084000903F09F035C1882331F06DE178E0CE01A9
:1008500001960E94B054BD2D80E090E0412F50E001
:100860005A01F4E0AF1AB1089A01235031094250FD
:10087000510947C060918915A091AF157091B015CD
:100880008A159B0569F4EA2FF72FE60FF11DE60F95
:10089000F11D0190F081E02DE80FF91FC08230C0FA
:1008A0008217930769F4EA2FF72FE60FF11DE60F81
:1008B000F11D0190F081E02DE80FF91FB08320C0F9
:1008C0008417950769F4EA2FF72FE60FF11DE60F5D
:1008D000F11D0190F081E02DE80FF91F008310C099
:1008E000F401E80FF91F7080EA2FF72FE60FF11DD2
:1008F000E60FF11D0190F081E02DE80FF91F7082E5
:100900000196811708F4B6CF809189158F5F809387
:100910008915D6C0882331F067E278E0CE010196D0
:100920000E94B054BD2D80E090E0412F50E05A016C
:1009300024E0A21AB1089A0123503109425051090A
:1009400047C06091AD15A0918615709187158A15E5
:100950009B0569F4EA2FF72FE60FF11DE60FF11D55
:100960000190F081E02DE80FF91FC08230C082179E
:10097000930769F4EA2FF72FE60FF11DE60FF11D3B
:100980000190F081E02DE80FF91FB08320C084179B
:10099000950769F4EA2FF72FE60FF11DE60FF11D19
:1009A0000190F081E02DE80FF91F008310C0F401E1
:1009B000E80FF91F7080EA2FF72FE60FF11DE60F01
:1009C000F11D0190F081E02DE80FF91F7082019672
:1009D000811708F4B6CF8091AD158F5F8093AD1568
:1009E0006FC0882331F062E378E0CE0101960E9467
:1009F000B054BD2D80E090E0412F50E05A01E4E07A
:100A0000AE1AB1089A01235031094250510947C02A
:100A10006091B215A0917B1570917C158A159B058C
:100A200069F4EA2FF72FE60FF11DE60FF11D019093
:100A3000F081E02DE80FF91FC08230C082179307C4
:100A400069F4EA2FF72FE60FF11DE60FF11D019073
:100A5000F081E02DE80FF91FB08320C084179507BF
:100A600069F4EA2FF72FE60FF11DE60FF11D019053
:100A7000F081E02DE80FF91F008310C0F401E80FAA
:100A8000F91F7080EA2FF72FE60FF11DE60FF11D19
:100A90000190F081E02DE80FF91F70820196811717
:100AA00008F4B6CF8091B2158F5F8093B21508C05D
:100AB000882331F06AE378E0CE0101960E94B054B9
:100AC00080913311882309F454C0FF92EF92DF9292
:100AD000CF921F920F931F921F93CE0101969F9367
:100AE0008F93F40181811F928F9382E498E09F930A
:100AF0008F930E940255B82C0FB6F894DEBF0FBE3C
:100B0000CDBF740142EAC42E48E0D42E17C0F701CD
:100B100081917F011F928F93DF92CF920E940255A5
:100B200007700F900F900F900F90073019F48AE024
:100B300090E002C080E290E00E9414550E2D0B1947
:100B4000011728F38091B2151F928F938091AD15F4
:100B50001F928F93809189151F928F9389EA98E055
:100B60009F938F930E9402550FB6F894DEBF0FBE7D
:100B7000CDBFE12CF12C01EE10E020E048EE53E077
:100B800060E070E087E00E94C8172F960FB6F894D7
:100B9000DEBF0FBECDBFDF91CF911F910F91FF90B0
:100BA000EF90DF90CF90BF90AF909F908F907F900D
:100BB0000895EF92FF920F931F93CF93DF93CDB7DA
:100BC000DEB72C970FB6F894DEBF0FBECDBF182F3F
:100BD00088E00E941517809133118823E1F01111EC
:100BE00003C061ED78E007C0113019F46AED78E0D8
:100BF00002C066EE78E0CE0101960E94B0549F9349
:100C00008F932DEE38E03F932F930E9402550F9063
:100C10000F900F900F90111131C00E94F610609349
:100C2000AD167093AE168093AF169093B0162091C8
:100C30003311222381F09F938F937F936F9388E1E9
:100C400099E09F938F930E9402550F900F900F9001
:100C50000F900F900F9060E074E081E00E94BD1053
:100C6000EE24E394F12C09ED15E020E04CE150E294
:100C700060E070E088E00E94C8172FC0113029F5AD
:100C80000E94F6106093B1167093B2168093B3165B
:100C90009093B41620913311222381F09F938F9368
:100CA0007F936F9389E299E09F938F930E940255FF
:100CB0000F900F900F900F900F900F908BE090E09F
:100CC000909335118093341108C08091331188239B
:100CD00021F089E399E00E941A552C960FB6F894FA
:100CE000DEBF0FBECDBFDF91CF911F910F91FF905F
:100CF000EF9008955498EDE7F0E080818160808363
:100D00000895A7E4B5E1E4EBF5E180E090E021E0AF
:100D10008D939D9321938A569F4F803639E0930798
:100D2000B9F70895BF92CF92DF92EF92FF920F939F
:100D30001F93CF93DF9380913311882341F08BE48D
:100D400099E09F938F930E9402550F900F9094EB20
:100D5000E92E95E1F92EC7E4D5E100E010E0BB24CF
:100D6000B394CC24C394D12CF7018081882371F0F3
:100D7000888199818F3FF3E09F0710F4019603C0AB
:100D8000F701108201979983888309C0888199812E
:100D9000009709F0F7CFF701B082D982C88280911D
:100DA000270290912802029759F4F801E95DFA4E62
:100DB00088819981918380838EE190E00E949F16C3
:100DC0008091270290912802019739F4F801E557A4
:100DD000FA4E8881998191838083FFEFEF1AFF0A91
:100DE00022960E5F1F4F0032110509F0BDCF87E03C
:100DF00090E09093351180933411809133118823C2
:100E000069F088EF94E0DF91CF911F910F91FF90EF
:100E1000EF90DF90CF90BF900C941A55DF91CF9157
:100E20001F910F91FF90EF90DF90CF90BF900895AA
:100E300080913311882341F08CE599E09F938F9343
:100E40000E9402550F900F9081E008958091331118
:100E5000882341F081E799E09F938F930E94025588
:100E60000F900F9086EA0E94B414811119C08CE291
:100E70000E941D15811114C08BE00E941D15811167
:100E80000FC086EA0E941B1581110AC081E30E94EF
:100E90001D15811105C089E00E941D15882321F0D0
:100EA0000E94AC1480E008950E94AC141092AE151C
:100EB00081E00895EF92FF920F931F93CF93DF93FA
:100EC00080913311882341F081E899E09F938F93BB
:100ED0000E9402550F900F9086EA0E94B414882356
:100EE00021F00E94AC1480E026C082E30E941D1510
:100EF0008111F7CF87EA0E941B158111F2CFC5E758
:100F0000D5E1F12C82E0F81206C00E942E15E82EE1
:100F10000E945C1505C00E942E15E82E0E942E1519
:100F2000182F00E0C8018E2989939993F39483E0E8
:100F3000F812E8CF81E0DF91CF911F910F91FF90E0
:100F4000EF90089586EA0E94B414882321F00E944D
:100F5000AC1480E008958DE20E941D158111F7CF39
:100F600088E00E941D158111F2CF0E94AC1481E02F
:100F700008951F93CF93DF9380913311882341F01D
:100F800082EA99E09F938F930E9402550F900F90F1
:100F900084B1866084B984B1867F84B985B1896063
:100FA00085B982E58CBD8DB581608DBD289A209A6A
:100FB0000E946A108FED95E10197F1F700C00000E3
:100FC000C7EBD6E111E0812F0E94741089939993A9
:100FD000019649F480913311882389F08BEB99E0D5
:100FE0000E941A550CC01F5F183069F780913311A9
:100FF000882339F088EF94E00E941A5502C080E0FF
:1010000001C081E0DF91CF911F910895EF92FF928F
:101010000F931F93CF93DF93CDB7DEB72C970FB607
:10102000F894DEBF0FBECDBFE82E8B018091331147
:101030008823D9F0E11003C061ED78E002C06AEDC9
:1010400078E0CE0101960E94B0541F930F939F93B6
:101050008F9327ED39E03F932F930E9402550F9015
:101060000F900F900F900F900F90B8018E2D0E944F
:10107000BD10F12C09ED15E020E04CE150E260E0FC
:1010800070E088E00E94C8172C960FB6F894DEBF77
:101090000FBECDBFDF91CF911F910F91FF90EF90C9
:1010A000089580913311882341F082E19AE09F9363
:1010B0008F930E9402550F900F90E4ECF5E111928E
:1010C00086E1EC38F807D9F71092B3158098809133
:1010D0007E00816080937E0080913311882321F00F
:1010E00088EF94E00C941A5508950F931F93CF93B3
:1010F000DF9300D000D0CDB7DEB7809133118823C5
:1011000041F08FE39AE09F938F930E9402550F90D6
:101110000F9080E480937C0080917A0080648093BB
:101120007A0080917A0084FFFCCF80917A00806100
:1011300080937A0080917800909179009C838B83D2
:101140008B819C81883E9340A0F58B819C818D355D
:10115000934090F16B817C816C55734080E090E00E
:101160000E942E4C20E030E04CE053E40E940D4BF6
:1011700020E030E048EC52E40E94284A0E944348B4
:10118000162F6B817C816C55734080E090E00E944B
:101190002E4C20E030E04CE053E40E940D4B20E068
:1011A00030E040E751E40E94284A0E944348062F5D
:1011B00005C00FE014E602C000E010E02091B31576
:1011C000822F90E0FC01EC53FA4E1083873C91058E
:1011D0001CF01092B31503C02F5F2093B3151A8231
:1011E0001982E4ECF5E189819A812191820F911DA8
:1011F0009A83898386E1EC38F807A9F769817A81B7
:1012000080E090E00E942E4C20E030E44CE956E46F
:101210000E940D4B20E030E040E751E40E94284A54
:101220000E94434860938C1680913311882399F073
:101230008B819C811F920F931F921F939F938F937B
:101240008AE59AE09F938F930E9402550FB6F89417
:10125000DEBF0FBECDBF0F900F900F900F90DF91AC
:10126000CF911F910F91089580913311882341F000
:1012700083E89AE09F938F930E9402550F900F90FE
:101280008CE30E94B414882321F00E94AC1480E007
:10129000089580E00E941D158111F7CF80E70E941C
:1012A0001D158111F2CF8CE30E941B158111EDCF2A
:1012B00081E00E941D158111E8CF80EE0E941D156E
:1012C0008111E3CF8CE30E941B158111DECF82E0F8
:1012D0000E941D158111D9CF82E00E941D15811138
:1012E000D4CF0E94AC141092881581E00895EF923B
:1012F000FF920F931F93CF93DF9380913311882335
:1013000021F08BE89AE00E941A558CE30E94B414F5
:10131000882321F00E94AC1480E027C083E00E9463
:101320001D158111F7CF8DE30E941B158111F2CF9E
:10133000CFE6D5E1F12C22E0F21206C00E942E1574
:10134000E82E0E945C1505C00E942E15E82E0E9412
:101350002E151E2D00E09801282BC9018993999321
:10136000F39433E0F312E7CF81E0DF91CF911F9147
:101370000F91FF90EF9008958CE30E94B41488239E
:1013800021F00E94AC1480E0089582E00E941D15B7
:101390008111F7CF0E941D158111F3CF0E94AC146B
:1013A00081E008950F931F93CF93DF93EC01809119
:1013B0003311882321F085EA9AE00E941A55C23041
:1013C000D10509F4DEC0C330D10509F42CC2219740
:1013D00009F0A5C2E091AF15F091B0150190F08130
:1013E000E02D81E48083E091AF15F091B01501907C
:1013F000F081E02D80EF8183E091AF15F091B01581
:101400000190F081E02D8AE5868BABE8B5E182E0C2
:1014100090E02C911296E091AF15F091B0150190EB
:10142000F081E02DE80FF91F208301968F309105A0
:1014300081F7E091AF15F091B015A081B181809155
:10144000921590E08370992720918C152295220F98
:10145000220F207C282B80918E1590E08370992795
:101460008295807F282B8091901590E0837099273A
:10147000880F880F282B1F962C93A081B181809113
:101480009A1590E083709927209194152295220F48
:10149000220F207C282B8091961590E0837099274D
:1014A0008295807F282B8091981590E083709927F2
:1014B000880F880F282B50962C93A081B1818091A2
:1014C000A21590E08370992720919C152295220FF8
:1014D000220F207C282B80919E1590E08370992705
:1014E0008295807F282B8091A01590E083709927AA
:1014F000880F880F282B51962C930190F081E02DB6
:101500008091A4158295880F880F807C489902C02D
:1015100098E001C090E0892B828B80913311882361
:1015200049F1C0E0D0E005EC14E0E091AF15F09196
:10153000B0150190F081E02DEC0FFD1F80811F920E
:101540008F931F930F930E940255CE0187709927A6
:101550000F900F900F900F90873021F48AE090E069
:101560000E9414552196C731D105F9F68AE090E022
:101570000E94145583E090E09093351180933411CC
:10158000CEC1E0918615F09187150190F081E02D94
:1015900081E48083E0918615F09187150190F081B8
:1015A000E02D81EF8183E0918615F0918715019000
:1015B000F081E02D8AE587A3A7E2B5E182E090E023
:1015C0002C911296E0918615F09187150190F0818B
:1015D000E02DE80FF91F208301968E30910581F7E9
:1015E000E0918615F0918715A081B18180912E152B
:1015F00090E083709927209128152295220F220FC1
:10160000207C282B80912A1590E083709927829561
:10161000807F282B80912C1590E083709927880F6C
:10162000880F282B1E962C93A081B18180913615AE
:1016300090E083709927209130152295220F220F78
:10164000207C282B8091321590E083709927829519
:10165000807F282B8091341590E083709927880F24
:10166000880F282B1F962C93A081B18180913E1565
:1016700090E083709927209138152295220F220F30
:10168000207C282B80913A1590E0837099278295D1
:10169000807F282B80913C1590E083709927880FDC
:1016A000880F282B50962C93A081B18180916715CB
:1016B0003091681551968C93A081B1818091691504
:1016C00020916A1552968C93A081B18180916B15FF
:1016D00090916C1553968C93A081B18140916D15BA
:1016E00080916E1554964C93A081B18155963C9390
:1016F000A081B18156962C93A081B18157969C937D
:10170000A081B18158968C93A081B18180916F1591
:101710002091701559968C93A081B181809171159B
:10172000909172155A968C93A081B1813091731566
:10173000809174155B963C93A081B1815C962C934B
:10174000A081B1815D969C93A081B1815E968C93BE
:101750002091751530917615A081B1815F962C93FB
:101760004091771550917815A081B18190964C9356
:101770008091791590917A15A081B18191968C9381
:101780004427577066E0569547956A95E1F72227FA
:10179000377073E0369527957A95E1F7242BA08171
:1017A000B1812C7F92962C9388279770A3E0969511
:1017B0008795AA95E1F790918C169F70982B0190D0
:1017C000F081E02D9F7E93A380913311882309F44B
:1017D000A6C0C0E0D0E005EC14E0E0918615F091E1
:1017E00087150190F081E02DEC0FFD1F80811F9285
:1017F0008F931F930F930E940255CE0187709927F4
:101800000F900F900F900F90873021F48AE090E0B6
:101810000E9414552196C832D105F9F68AE090E06D
:101820000E9414557CC0E0917B15F0917C150190CD
:10183000F081E02D81E48083E0917B15F0917C15AF
:101840000190F081E02D82EF8183E0917B15F09192
:101850007C15A081B1818AE51E968C93A081B1810F
:1018600080917D1512968C93A081B18180917E1517
:1018700013968C93A081B18190917F1580918015F2
:1018800014969C93A081B18115968C93A081B1810F
:101890008091811516968C93A081B18180918215DB
:1018A00017968C93A081B1819091831580918415B6
:1018B00018969C93A081B18119968C930190F08128
:1018C000E02D80918C168F70828780913311882350
:1018D00031F1C0E0D0E005EC14E0E0917B15F0912F
:1018E0007C150190F081E02DEC0FFD1F80811F928F
:1018F0008F931F930F930E940255CE0187709927F3
:101900000F900F900F900F90873021F48AE090E0B5
:101910000E9414552196CF30D105F9F67FCF8091E2
:101920003311882341F08EEC9AE0DF91CF911F9123
:101930000F910C941A55DF91CF911F910F9108953B
:10194000CF92DF92EF92FF920F931F93CF93DF938B
:10195000CDB7DEB72F970FB6F894DEBF0FBECDBF61
:101960008C01CE010C960E9493166C857D858E8528
:101970009F85C0903A11D0903B11E0903C11F090BF
:101980003D116C197D098E099F0969392AE3720797
:101990008105910508F470C0209133112223B9F01C
:1019A00028EE33E040E050E00E94E6517F936F93D1
:1019B0005F934F933F932F9385ED9AE09F938F937F
:1019C0000E9402550FB6F894DEBF0FBECDBF8C85C6
:1019D0009D85AE85BF8580933A1190933B11A0936E
:1019E0003C11B0933D1182E089838EEB9AE59B8395
:1019F0008A8380912411909125119D838C8310926C
:101A0000851502301105A9F00330110509F10130E7
:101A1000110591F560E082E00E94001AE091AF1597
:101A2000F091B01520813181EE24E39400E047E18C
:101A30001DC060E082E00E94001AE0918615F091DE
:101A4000871520813181EE24E39400E048E20EC046
:101A500060E082E00E94001AE0917B15F0917C1515
:101A600020813181EE24E39400E04FE0BE016F5FFE
:101A70007F4F82E00E9473442F960FB6F894DEBF2A
:101A80000FBECDBFDF91CF911F910F91FF90EF90CF
:101A9000DF90CF90089580913311882341F080E04A
:101AA0009BE09F938F930E9402550F900F9080EDC3
:101AB0000E94B414811119C085E10E941D15811185
:101AC00014C082E30E941D1581110FC080ED0E9499
:101AD0001B1581110AC086E10E941D15811105C0E8
:101AE0008CE10E941D15882321F00E94AC1480E037
:101AF000089580ED0E941B158111F7CF8EE30E949F
:101B00001D158111F2CF80E40E941D158111EDCFCA
:101B10000E94AC1410928A1581E00895EF92FF9212
:101B20000F931F93CF93DF9380913311882321F07C
:101B30008CE09BE00E941A5580ED0E94B414813025
:101B400021F40E94AC1480E027C08BE10E941D1597
:101B50008130B9F381ED0E941B15813091F3C7E606
:101B6000D5E1F12C23E0F21206C00E942E15E82EDA
:101B70000E945C1505C00E942E15E82E0E942E15AD
:101B80001E2D00E09801282BC90189939993F394A5
:101B900034E0F312E7CF81E0DF91CF911F910F91F5
:101BA000FF90EF90089580ED0E94B414882321F0F7
:101BB0000E94AC1480E008958EE30E941D158111EF
:101BC000F7CF81E00E941D158111F2CF0E94AC1465
:101BD00081E00895CF93DF93EC0180913311882346
:101BE00061F0DF93CF9388E29BE09F938F930E94F5
:101BF00002550F900F900F900F90C130D10591F0CA
:101C000020F1229781F58FEF9FEF909370158093CD
:101C10006F1590937215809371159093741580933E
:101C2000731521C08FEF9FEF909368158093671510
:101C300090936A158093691590936C1580936B153A
:101C400090936E1580936D150EC08FEF9FEF90935C
:101C500076158093751590937815809377159093EA
:101C60007A1580937915DF91CF9108958091331182
:101C7000882341F08CE599E09F938F930E94025551
:101C80000F900F90E7E6F5E11192119285E1EB37A5
:101C9000F807D1F70E947F140E942607811104C023
:101CA0000E94AC1480E008950E944B0D8823C1F37C
:101CB0000E9434098823A1F380913311882321F0F5
:101CC00088EF94E00E941A5581E008950E94A207CF
:101CD000882329F00E94D30D81110C94BC0980E067
:101CE000089599278130910579F082309105A1F00E
:101CF000892BC9F40E944B0D811102C00C94AC14C5
:101D000081E080938A1508950E944B0D8823B1F3DA
:101D100081E08093881508950E942607882371F337
:101D200081E08093AE15089580913311882341F0AE
:101D30008AE49BE09F938F930E9402550F900F902F
:101D400084B3887F84BB5E9883B3876083BB569AD5
:101D5000819880917E00826080937E0082E88093EB
:101D60007A0080913311882321F088EF94E00C945D
:101D70001A5508950F931F93CF93DF9380913311DA
:101D8000882341F08BE499E09F938F930E94025542
:101D90000F900F9084B3887F84BB5E98CDE8D6E126
:101DA000FE0120E031E4283018F424BB5E9804C022
:101DB000822F877084BB5E9A30937C0080917A007A
:101DC000806480937A0080917A0084FFFCCF8091B8
:101DD0007A00806180937A008091780090917900F8
:101DE000819391932F5F2031F1F6809133118823F5
:101DF000D9F085E69BE00E941A5507EC14E0888133
:101E0000998122969F938F931F930F930E9402555F
:101E10000F900F900F900F9086E1CD3AD80779F789
:101E20008AE090E00E94145585E090E0909335118F
:101E300080933411DF91CF911F910F910895CF932B
:101E4000DF93EC0180913311882341F08FE79BE011
:101E50009F938F930E9402550F900F90C130D10530
:101E600019F0229781F518C0A7E1B2E0CBE8D5E1DF
:101E7000ED91F0E0EE0FFF1FE357F94E8081918165
:101E80008993999382E0A732B80791F780918915D9
:101E90008F5F8093891517C0A7E0B2E0C7E2D5E154
:101EA000ED91F0E0EE0FFF1FE357F94E8081918135
:101EB0008993999382E0A731B80791F78091AD1586
:101EC0008F5F8093AD1580913311882331F088EFB7
:101ED00094E0DF91CF910C941A55DF91CF91089542
:101EE000CF93DF93EC0180913411909135118330C1
:101EF000910508F4D5C08730910509F440C038F445
:101F00008330910561F0059709F0C5C02CC08B3076
:101F1000910509F4A6C00D9709F0BDC0ADC062E0FF
:101F200080E00E94001ACE010197029760F410929F
:101F3000261584E090E09093351180933411CE0102
:101F40000E94BA0EA8C0C330D10509F0A4C08AE02F
:101F500090E0909335118093341160E074E080E05C
:101F60000E94060898C086E090E090933511809317
:101F70003411CE010E941F0F87E090E088C0C1306D
:101F8000D10529F0C230D10509F085C009C08EE025
:101F900090E0909335118093341181E090E073C00C
:101FA0008091B115882309F44EC01092670C80917E
:101FB0000502811111C088E090E090933511809363
:101FC00034110E948E0D811104C081E090E00E94C6
:101FD000EA0D1092670C03C081E08093670C1092A9
:101FE000660C80910402811111C088E090E090930A
:101FF0003511809334110E947709811104C082E069
:1020000090E00E94EA0D1092660C03C081E080937C
:10201000660C8091680C90910602891788F088E020
:1020200090E090933511809334110E945A078111EA
:1020300004C080E090E00E94EA0D1092680C03C09A
:102040008F5F8093680C8EE090E0909335118093C1
:1020500034118091851581110E94750882E090E00D
:1020600012C08CE090E090933511809334110E945F
:1020700024118DE090E00BC08EE090E0909335113C
:1020800080933411CE010E94D20983E090E09093B6
:10209000351180933411CE01DF91CF910C94A00CB7
:1020A000DF91CF91089580913311882341F080E929
:1020B0009BE09F938F930E9402550F900F90509832
:1020C000589880913311882321F088EF94E00C9484
:1020D0001A55089528988EE18EBD0DB407FEFDCFE8
:1020E000289A80E090E0089510926A0C1092690C92
:1020F0008430B1F030F4823069F078F48130C9F581
:1021000006C0863099F078F0873099F512C028988B
:1021100082EA11C0289884EA0EC0289886EA0BC08B
:10212000289888EA08C028988AEA05C028988CEA86
:1021300002C028988EEA8EBD0DB407FEFDCF1EBCEE
:102140000DB407FEFDCF8EB51092690C80936A0C1A
:102150001EBC0DB407FEFDCF2EB58091690C909189
:102160006A0C822B90936A0C8093690C289A9C01CC
:1021700002C02FEF3FEFC90108952898611594E040
:102180007907E9F040F4611591E0790761F0611594
:10219000724039F50EC0611598E07907B1F061150C
:1021A0007041F9F418C0811102C080E419C080E5C3
:1021B00017C0811102C082E413C082E511C08111F1
:1021C00002C084E40DC084E50BC0811102C086E426
:1021D00007C086E505C0811102C088E401C088E51A
:1021E0008EBD0DB407FEFDCF289A08950F931F935F
:1021F00028981EBC0DB407FEFDCF1EBC0DB407FE13
:10220000FDCF0EB510E020E030E098011127002747
:102210001EBC0DB407FEFDCF8EB590E0A0E0B0E08F
:10222000BA2FA92F982F88271EBC0DB407FEFDCF0B
:102230004EB5042B289A082B192B2A2B3B2BB801BF
:10224000C9011F910F9108952F923F924F925F9273
:102250006F927F928F929F92AF92BF92CF92DF92B6
:10226000EF92FF920F931F93CF93DF93CDB7DEB71B
:102270006C970FB6F894DEBF0FBECDBF80913311BF
:10228000882309F447C08091B4168F938091B316C8
:102290008F938091B2168F938091B1168F93809116
:1022A000B0168F938091AF168F938091AE168F9357
:1022B0008091AD168F938091C2168F938091C11635
:1022C0008F938091C0168F938091BF168F938091CA
:1022D000BE168F938091BD168F938091BC168F93FD
:1022E0008091BB168F938091BA168F938091B91607
:1022F0008F938091B8168F938091B7168F938AEA47
:102300009BE09F938F930E9402550FB6F894DEBF17
:102310000FBECDBF8091BF169091C0169C0140E0CA
:1023200050E060E070E080E090E008E00E945F52E2
:1023300049015A014090B1165090B2166090B31600
:102340007090B416481859086A087B084092730CBC
:102350005092740C6092750C7092760C530142018D
:10236000BB0C8808982C540189829A82AB82BC826B
:102370008091C1169091C2164C01A12CB12CC12C98
:10238000D12C76018B8B9C8AAD8ABE8ACF8AD88E5F
:10239000E98EFA8E52016301E980FE2C0E2D1E2D6E
:1023A0009C0140E050E060E070E080E090E00E943E
:1023B000085207E10E946E5249015A0195018401B9
:1023C0000053184F2F4F3F4F0D831E832F833887A5
:1023D00000938115109382152093831530938415F3
:1023E0008091B9169091BA169C0140E050E060E0EF
:1023F00070E080E090E000E10E945F522C873B8714
:10240000942E852E362E272E89879A874091BD16C9
:102410005091BE1652016301E980FE2C0E2D1E2D37
:102420009A0140E050E060E070E080E090E00E94BF
:10243000085207E00E946E5259016A017B018C012B
:102440002C853B85492D582D632D722D89859A85C4
:102450000E947D5229873A874B875C871B018B8FAF
:102460009C8F2093870C3093880C4093890C509359
:102470008A0C60938B0C30928C0C80938D0C909313
:102480008E0C8091B7169091B8169C0140E050E0F8
:1024900060E070E080E090E00FE00E945F52922EDA
:1024A000832E4D875E876F87788B898B9A8B4091BF
:1024B000BB165091BC1652016301E980FE2C0E2D13
:1024C0001E2D9A0140E050E060E070E080E090E076
:1024D0000E94085208E00E946E5259016A017B0175
:1024E0008C0120937F0CB092800C4093810CD09291
:1024F000820C6093830CF092840C8093850C109373
:10250000860C292D382D4D855E856F8578898989C2
:102510009A890E947D528C0120938F0C3093900CED
:102520004093910C5093920C6093930C7093940C85
:102530008093950C1093960C8091AD169091AE16E9
:10254000A091AF16B091B0164C015D01C12CD12CF9
:1025500076018B8B9C8AAD8ABE8ACF8AD88EE98E13
:10256000FA8E59016A017B0194014D895E8960E010
:1025700070E080E090E00E94085205E10E946E52F7
:1025800020936B0C30936C0C40936D0C50936E0C3D
:1025900060936F0C7093700C8093710C9093720C1D
:1025A000A984BA84CB84DC8471010B8D1C8D0E94BC
:1025B00092522093770C3093780C4093790C50937F
:1025C0007A0C60937B0C70937C0C80937D0C9093C1
:1025D0007E0C0FE00E946E52C90120937D159093EE
:1025E0007E1540937F15509380152091331122233F
:1025F000B9F05F934F939F938F9398849F92AF808E
:10260000AF92BE80BF92CD80CF9282E49CE09F9338
:102610008F930E9402550FB6F894DEBF0FBECDBF58
:102620006C960FB6F894DEBF0FBECDBFDF91CF9191
:102630001F910F91FF90EF90DF90CF90BF90AF90E0
:102640009F908F907F906F905F904F903F902F90D2
:1026500008950F931F938B019C0160587B47814E17
:102660009F4F42E0660F771F881F991F4A95D1F749
:10267000A9019801E3E0220F331F441F551FEA957B
:10268000D1F70E94E651215031093093C5002093C3
:10269000C40082E08093C00088ED8093C10086E092
:1026A0008093C2001F910F9108952091C1002F7B4C
:1026B0002093C1003091D9164091DA16232F431789
:1026C00010F0275F01C02150241B621708F4262F49
:1026D000FC01822F11C09091DA164191A92FB0E030
:1026E000AB53B94E4C93993019F41092DA1603C0DB
:1026F0009F5F9093DA1681508111EDCF8091DD16A6
:1027000081110AC0E32FF0E0EB53F94E80818093F2
:10271000C60081E08093DD168091C10080648093C3
:10272000C100822F0895DC018091DE168823B9F163
:102730009091C1009F779093C1008A3050F08091B2
:10274000DC168093DB168AE08093DE166A3028F46C
:1027500005C0861718F4682F01C06AE0962F16C0CE
:10276000E091DB16F0E0EB53F94E82858D9380917A
:10277000DB168F5F8093DB162091DE1621502093AD
:10278000DE1691508A3011F41092DB169111E8CFC9
:102790008091C10080688093C100862F089580E0F9
:1027A00008951F920F920FB60F9211240BB60F923D
:1027B0008F939F93EF93FF938091DC169091DE1699
:1027C0009F5F9093DE169091C600E82FF0E0EB53E8
:1027D000F94E9287893019F41092DC1603C08F5F8E
:1027E0008093DC16FF91EF919F918F910F900BBE1C
:1027F0000F900FBE0F901F9018951F920F920FB65B
:102800000F9211240BB60F928F93EF93FF93809149
:10281000D916893019F41092D91603C08F5F8093AE
:10282000D916E091D9168091DA16E81739F0F0E060
:10283000EB53F94E80818093C60002C01092DD16E2
:10284000FF91EF918F910F900BBE0F900FBE0F90E5
:102850001F901895811108C060E074E883E090E053
:102860000E94291380E0089585E808959B01811155
:1028700004C0642FC9010C94551380E008959B0196
:10288000811104C0642FC9010C94931380E0089552
:102890009093980C8093970CEAE6F0E080818C602E
:1028A000808380E28CBB08951F920F920FB60F9227
:1028B00011240BB60F922F933F934F935F936F9317
:1028C0007F938F939F93AF93BF93EF93FF93E09189
:1028D000970CF091980C0995FF91EF91BF91AF91F2
:1028E0009F918F917F916F915F914F913F912F9128
:1028F0000F900BBE0F900FBE0F901F901895109267
:10290000B90080E28093B800089524EA34E844E9ED
:102910002093BC009091BC0097FFFCCF9091B90030
:10292000987F983011F0903199F78093BB003093E5
:10293000BC009091BC0097FFFCCF9091B900987FAC
:10294000903211F0983539F44093BC009091BC005E
:1029500094FDFCCFDDCF089584E98093BC00809185
:10296000BC0084FDFCCF089594EA9093BC001092C3
:10297000990C10929A0C10929B0C10929C0C1CC0FB
:102980004091990C50919A0C60919B0C70919C0C09
:102990004F5F5F4F6F4F7F4F4093990C50939A0C4E
:1029A00060939B0C70939C0C483251056105710536
:1029B00018F00E94AC140BC09091BC0097FFE0CFC0
:1029C0009091B900987F983021F0903111F081E01A
:1029D00008958093BB0084E88093BC001092990C0A
:1029E00010929A0C10929B0C10929C0C17C0809124
:1029F000990C90919A0CA0919B0CB0919C0C019613
:102A0000A11DB11D8093990C90939A0CA0939B0CDF
:102A1000B0939C0C8897A105B10558F68091BC0035
:102A200087FFE5CF8091B900887F883111F080342D
:102A300071F680E008950C94B4148093BB0084E890
:102A40008093BC008091BC0087FFFCCF9091B900BF
:102A5000987F81E0983209F480E0089584EC8093B7
:102A6000BC0010929D0C10929E0C10929F0C109224
:102A7000A00C1BC080919D0C90919E0CA0919F0C6E
:102A8000B091A00C0196A11DB11D80939D0C909357
:102A90009E0CA0939F0CB093A00C8897A105B10544
:102AA00020F00E94AC1480E008958091BC0087FF64
:102AB000E1CF8091BB00089584E88093BC00109220
:102AC000A10C1092A20C1092A30C1092A40C1BC08B
:102AD0008091A10C9091A20CA091A30CB091A40C98
:102AE0000196A11DB11D8093A10C9093A20CA093FF
:102AF000A30CB093A40C8897A105B10520F00E9407
:102B0000AC1480E008958091BC0087FFE1CF8091F4
:102B1000BB00089580E090E020E80FB6F894209381
:102B20006100809361000FBE0E94DE190E94361A78
:102B30000E946B1680E008950C94D718EF92FF92D4
:102B40000F931F93CF93DF93811119C0CA01860F92
:102B5000971F81309041A8F48901040F151FE901E6
:102B60007B01E21AF30A06C0CE018E0D9F1D0E9462
:102B70004E578993C017D107B9F780E003C088EE9C
:102B800001C085E8DF91CF911F910F91FF90EF90E9
:102B90000895EF92FF920F931F93CF93DF93EC0171
:102BA0007B01E80EF91E81E0E81680E1F80698F452
:102BB0008A010CC0CE010E944E57F80161918F012D
:102BC000861719F0CE010E9456572196CE15DF05C3
:102BD00089F780E001C085E8DF91CF911F910F91C7
:102BE000FF90EF90089515B88FEF84B98FEF9FEFA6
:102BF0000E949F1685B1809585B9F8CF0F931F93DA
:102C00000091DF161091E01680918400909185006C
:102C10002091DF163091E0160217130789F720E0A4
:102C200030E0980111270027A0E0B0E0082B192B15
:102C30002A2B3B2BB801C9011F910F9108950F93C7
:102C40001F93CF93CFB7F894E091A80CEF3FF1F129
:102C500029E0E29FF0011124EF51F94E808191812A
:102C6000A281B3812091DF163091E0162A173B072D
:102C700051F4909389008093880082E086BB809114
:102C80006F00826003C080916F008D7F80936F0022
:102C90000E94FE15E091A80C29E0E29FF0011124AA
:102CA000EF51F94E0081118122813381601B710B3C
:102CB000820B930B6F5F7F4F8F4F9F4F6F3F7F4F05
:102CC0008F4F9F4718F481E08093A50CCFBFCF9121
:102CD0001F910F9108951092A90C1092A50C1092BB
:102CE000E0161092DF168FEF8093A80C8093A60C4D
:102CF0008093A70CE9EEF6E18083DF0114971D9223
:102D00001C92399697E1E535F907B1F70C94E5196E
:102D10008091810087708093810080918100826022
:102D2000809381000895CF93DF93EC010E94FE15FC
:102D3000688379838A839B83DF91CF9108954FB70E
:102D4000F8948630910518F1209184003091850027
:102D5000280F391F80918400909185008217930776
:102D600040F4809184009091850082179307C8F306
:102D70000EC0809184009091850028173907C8F310
:102D8000809184009091850082179307C8F34FBF0C
:102D9000089599E0899FF0011124EF51F94E81E0E7
:102DA00024813581232B09F480E008958091A50CBE
:102DB0008823D1F11092A50C9091A90C9923A1F12F
:102DC0002091A60C8091A80C2F3F49F42091A70CCC
:102DD0002F3F29F48093A70C8093A60C0BC0E091A1
:102DE000A70C29E0E29FF0011124EF51F94E8087F2
:102DF0008093A70CA091A80C89E08A9FD001112490
:102E0000AF51B94E18962C912093A80CE091A70CC5
:102E10008E9FF0011124EF51F94E8FEF8087915072
:102E20009093A90C0C941F1608950F931F93CF93A2
:102E3000DF93082F8C3008F092C01FB7F8940E94DF
:102E4000D6168091A90C882309F48DC04091A80C56
:102E5000542F942F39E001C0922F091332C0202F34
:102E600030E004130FC089E0829FD001839FB00D32
:102E70001124AF51B94E18968C918093A80C0E94E2
:102E80001F1610C0A9E0A29FE001A39FD00D11243E
:102E9000CF51D94E8885A59FD0011124AF51B94E8D
:102EA00018968C9389E0089FD0011124AF51B94E38
:102EB0008FEF18968C938091A90C81508093A90C68
:102EC00058C0399FD0011124AF51B94E18962C919A
:102ED0008150592F09F0C0CF46C0081330C0202FB1
:102EE00030E0091315C08091A70C081304C08FEFC0
:102EF0008093A70C0AC089E0829FD001839FB00D08
:102F00001124AF51B94E18968C918093A60C31C004
:102F1000A9E0A29FE001A39FD00D1124CF51D94E6B
:102F20008885A49FD0011124AF51B94E18968C9377
:102F30008091A70C08131DC04093A70C1AC0289FAE
:102F4000D0011124AF51B94E482F18968C918F3F64
:102F500021F680E01FBF882321F080E014C08AE8BA
:102F600012C089E810C09091A60C492F892F29E042
:102F7000EECF89E0089FF0011124EF51F94E158240
:102F8000148281E0E7CFDF91CF911F910F910895D7
:102F90002F923F924F925F926F927F928F929F9269
:102FA000AF92BF92CF92DF92EF92FF920F931F9357
:102FB000CF93DF9300D01F92CDB7DEB7D82E4A0152
:102FC0005B01ABE02A2E281608F4BFC001151105DD
:102FD00009F4BFC0482E512C5B824A8239E0839F9E
:102FE000F0011124EF51F94E84819581892B09F06C
:102FF000AEC029830E94FE152981222321F02130B1
:1030000009F0A7C018C0F0E84F2E55245A94652C3B
:10301000752C480C591C6A1C7B1C40E844164FEF69
:10302000540664064FE7740608F095C0860E971E96
:10303000A81EB91E17C0E0E84E2E55245A94652CE0
:10304000752C480C591C6A1C7B1C461A570A680AC6
:10305000790A50E845165FEF550665065FE7750685
:1030600008F079C0CFB6F8940E94D6163091A80C1B
:103070003F3F41F06090A90C432F232F50E069E0BF
:10308000762E43C0D092A80C89E02A803B80829D96
:10309000F001839DF00D1124EF51F94E30872BC0C4
:1030A0002F3F91F169E0729EF0011124EF51F94E2A
:1030B00080819181A281B38114012501281A390AE6
:1030C0004A0A5B0A7FEF2716370647067FE757064F
:1030D00018F4422F208518C02A803B80629DD001C1
:1030E000639DB00D1124AF51B94E18962C93321335
:1030F00004C0D092A80C81E00BC0649FF0011124A1
:10310000EF51F94ED0863BC05F5F5611C9CF25C045
:1031100099E04A805B80949DF001959DF00D11240B
:10312000EF51F94E80829182A282B382158304838B
:10313000F782E6829091A90C9F5F9093A90C811170
:103140000E941F16CFBE80E01CC08AE81AC088E823
:1031500018C088EE16C08BE814C089E0849FF00187
:103160001124EF51F94ED0862A813B81829FF001D4
:10317000839FF00D1124EF51F94E8FEF808780E08F
:10318000C7CF0F900F900F90DF91CF911F910F91AC
:10319000FF90EF90DF90CF90BF90AF909F908F9077
:1031A0007F906F905F904F903F902F900895CF93B6
:1031B000DF93CFB7F8940E94D616CFBFC9E0DFEFF8
:1031C00029C03FB7F894A091A60CCA9FD001112442
:1031D000AF51B94E18962C9118971496ED91FC9119
:1031E000159716968D919C9117971896DC931897C2
:1031F00015961C921E92149717961C921E92169763
:103200002093A60C2F3F11F42093A70C3FBF3097BB
:1032100009F009958091A60C8F3F99F6DF91CF9127
:1032200008951F920F920FB60F9211240BB60F92B2
:103230002F933F934F935F936F937F938F939F93BE
:10324000AF93BF93EF93FF938091DF169091E016B9
:1032500001969093E0168093DF160E941F16FF914F
:10326000EF91BF91AF919F918F917F916F915F91FE
:103270004F913F912F910F900BBE0F900FBE0F906B
:103280001F9018951F920F920FB60F9211248F93D3
:103290008091A90C882319F081E08093A50C8F916F
:1032A0000F900FBE0F901F9018950F931F93409192
:1032B000DF165091E016009186001091870060E0C3
:1032C00070E0BA015527442720E030E0402B512B15
:1032D000622B732BFC0140835183628373831F91A4
:1032E0000F910895EF92FF920F931F93CF93DF9367
:1032F000DFB7F894F090B100009181001091800048
:103300001092B100109281001092800024E630E00B
:103310006FEF7FEFA0E0BFEFC1E040E2E42EE4E218
:10332000F4EFB6BBB7BB1092B200109285001092BA
:103330008400C0938100C093B100E092B600B89BB6
:10334000FECF109281001092B10080918400909184
:103350008500009711F1853244EF940720F4AF0106
:10336000481B590B03C0AC014452544F4617570732
:1033700018F4A0916600BA018532944F20F4809130
:1033800066008F5F03C08091660081508093660065
:103390002150310931F681E001C080E0F092B100A6
:1033A0000093810010938000DFBFA0936600DF913F
:1033B000CF911F910F91FF90EF900895209A219A3D
:1033C0000F9A229A249A23980895E1E8F0E08081E8
:1033D0008770808380818260808382E086BB84E006
:1033E00086BB88E086BBEFE6F0E080818160808369
:1033F00008952D98259A2E98269A2F98279A089501
:103400008150823030F4E82FF0E0ED5CFD4F2081F8
:1034100001C025E0662319F0613029F402C035B1FE
:1034200017C035B10BC085B190E0022E02C0959552
:1034300087950A94E2F735B180FD0AC081E090E0FB
:10344000022E01C0880F0A94EAF7382B35B9089587
:1034500081E090E0022E01C0880F0A94EAF780957F
:10346000832385B9089580E090E0089580E58CBDC0
:1034700081E08DBD8CB58C7F8CBD289A08959DB35D
:10348000ED98806C28988EBD0DB407FEFDCF6EBD03
:103490000DB407FEFDCF289A9DBB08959DB3ED980E
:1034A000806828988EBD0DB407FEFDCF1EBC0DB4FC
:1034B00007FEFDCF8EB5289A9DBB0895289820E27F
:1034C0002EBD0DB407FEFDCF1EBC613099F0FC018E
:1034D000362F380F0DB407FEFDCF2EB51EBC21933D
:1034E000232F2E1B2230B0F7625070E06F5F7F4FAA
:1034F000860F971F0DB407FEFDCF2EB5FC0120836C
:10350000289A0895289820E62EBD0DB407FEFDCF19
:10351000FC01860F91910DB407FEFDCF9EBD8E1369
:10352000F9CF0DB407FEFDCF289A0895CF93DF930E
:1035300000D0CDB7DEB74A8369830E944E1A6981F5
:10354000862390E04A8102C0959587954A95E2F7D7
:103550000F900F90DF91CF9108951F93CF93DF933A
:1035600000D01F92CDB7DEB7182F2B834A83698313
:103570000E944E1A2B814A8101C0220F4A95EAF718
:103580006981262360956823622B812F0F900F900D
:103590000F90DF91CF911F910C943F1AEF92FF9201
:1035A0000F931F93CF93DF938AEA9CE00E947C1BCA
:1035B0009FEAE92E9CE0F92E05EE10E1C0E0D0E094
:1035C000F801F182E082BE01660F771F660F771F58
:1035D0006B517F4E8AEA9CE00E94831B2196FAE998
:1035E000EF0EF11C0C5F1F4FC730D10549F7DF917B
:1035F000CF911F910F91FF90EF90089560E070E0E0
:103600008AEA9CE00C949E1B009729F0BC018AEA90
:103610009CE00C94831B08959F92AF92BF92CF922F
:10362000DF92EF92FF920F931F93CF93DF938C0162
:103630005B016A019FB6F894DC0114968C918111AC
:1036400003C0C0E0D0E04AC0F801C081D18141157B
:103650005105B1F07E0111C0D60112966D917C9199
:103660001397ED91FC9188819981099581110BC087
:103670009A818B817E01C92FD82F209769F7E1CFDE
:103680002097F9F27E01AB2849F5F80120813181BC
:103690008A819B81C217D30719F49183808305C067
:1036A000D70113969C938E931297F8018281938190
:1036B000C817D90711F4F382E282D80114968C91CD
:1036C0001497815014968C9314978D919C91119717
:1036D000892B21F413961C921E9212979FBECE0145
:1036E000DF91CF911F910F91FF90EF90DF90CF90DE
:1036F000BF90AF909F900895FC01118210821382B9
:10370000128214820895FC019FB7F894848181117C
:1037100003C07183608306C0A281B38113967C933A
:103720006E93129773836283DB0113961C921E9231
:10373000129784818F5F84839FBF0895AB0160E0FF
:1037400070E00C940C1BAB0161E070E00C940C1B5E
:10375000CF93DF93EC010BC060E070E0CE010E94DC
:103760009E1B009711F41C8205C00E94041B8C81D3
:103770008111F2CFDF91CF910895CF93DF93CDB731
:10378000DEB728970FB6F894DEBF0FBECDBF40E07E
:103790006FE181E00E94961A883099F5ED9861E01A
:1037A0008EE00E943F1A8FE00E944E1A69E082E08C
:1037B0000E943F1ACE0105960E9493168FE00E9448
:1037C0004E1A80FF08C080E28CBB68E08EE00E9449
:1037D0003F1AED9A16C0CE0101960E949316898178
:1037E0009A81AB81BC814D815E816F817885841B1C
:1037F000950BA60BB70B89309740A105B105F0F2E8
:10380000E2CF28960FB6F894DEBF0FBECDBFDF9192
:10381000CF9108950F931F93CF93DF931F92CDB74E
:10382000DEB78C0180917217909173170F97B9F4DE
:103830002C9840E06FE181E00E94961A8830C9F729
:103840000830110519F00330110549F488E090E0C3
:10385000909373178093721728E030E053C140E0D3
:103860006FE181E00E94961A80937217109273178D
:103870000930110509F45EC068F40630110509F439
:10388000A6C00830110509F43FC00330110509F046
:103890002BC13FC00631110509F4C6C028F40A3017
:1038A000110509F021C155C00931110509F4E9C01C
:1038B0000A31110509F018C163E082E00E943F1A45
:1038C0000E949854682F8DE299830E943F1A998133
:1038D000292F40E067E08EE20E94AD1A0000000050
:1038E0000000000000000000000000002C9A83E2AD
:1038F00090E00E949F168FE090E090937317809362
:1039000072172FE030E0FEC0883009F4EDC068E0A7
:10391000E0C0883009F4E8C063E0893109F0D9C01B
:1039200082E00E943F1A2C9A82E090E00E949F164B
:103930002C98DAC0883009F447C020F4863009F0AA
:10394000D3C005C0863119F0893109F0CDC069E0D6
:10395000C0C08830C9F140F48230E9F0863059F0B7
:10396000813009F0C1C007C0823109F1863119F0F8
:10397000813109F0B9C01DB3ED9863E082E00E9487
:103980003F1A69E082E00E943F1A8FE00E944E1ABF
:1039900080E28CBB0AC01DB3ED9863E082E00E9418
:1039A0003F1A69E082E00E943F1A1DBB95C01DB31B
:1039B000ED9863E082E00E943F1A2C9882E090E04C
:1039C0000E949F162C9AEDCF0E94BD1B8DC089309E
:1039D00049F120F4883009F087C006C0863139F0FB
:1039E000893109F081C003C00E94BD1B1BC069E082
:1039F00082E00E943F1A000000000000000000006A
:103A000000000000000040E06FE181E00E94961A93
:103A1000282F30E030937317209372172930310527
:103A200009F070C066E055C0883059F020F4863047
:103A300009F05AC009C0893011F1893109F054C028
:103A400003C00E94BD1B1BC069E082E00E943F1AB8
:103A50000000000000000000000000000000000066
:103A600040E06FE181E00E94961A282F30E0309309
:103A70007317209372172930310509F043C066E1AE
:103A800028C0883019F118F4863071F504C08930E7
:103A9000F9F0863149F569E082E00E943F1A0000A2
:103AA000000000000000000000000000000040E0F6
:103AB0006FE181E00E94961A282F30E0309373174F
:103AC0002093721729303105E9F402C00E94BD1B12
:103AD00069E182E00E943F1A00000000000000003F
:103AE000000000000000000040E06FE181E00E9463
:103AF000961A282F30E030937317209372172F31C6
:103B0000310591F3C9010F90DF91CF911F910F9172
:103B1000089580914D178823F9F08091771790913F
:103B20007817892BC9F48091011190910211892B8A
:103B300039F48AE90E94FE1A9093021180930111D0
:103B40008091011190910211892B31F010924D1743
:103B500086E190E00E940A1C80915217882351F060
:103B600060E070E08EE497E10E949E1B009711F0E8
:103B70000E94331E8091771790917817009739F043
:103B80008F7099270297029710F40C946A1E08957B
:103B9000DF92EF92FF920F931F93CF93DF9300D0AA
:103BA00000D01F92CDB7DEB7809101119091021124
:103BB000892B09F44BC0CE0101960E945519E09162
:103BC0000111F0910211E080F18087E00E944E1A0D
:103BD000D82E61E0CE0105960E945E1A6D8167FDC8
:103BE00035C0862F8D5F0AE910E0081B11090E0D04
:103BF0001F1D6E5FC8010E945E1AF70114870387BC
:103C00008D81F801E80FF11DD28289819A81AB8103
:103C1000BC81F70187839087A187B28760910111EA
:103C2000709102118EE497E10E94831B8AE90E9441
:103C3000FE1A9093021180930111892B39F489E0C7
:103C400090E00E940A1C81E080934D170F900F9026
:103C50000F900F900F90DF91CF911F910F91FF90D8
:103C6000EF90DF900895CF93DF939C01FC01C0811A
:103C7000D181AB85BC85EC91E0937417F0E031966F
:103C8000EA0FFB1F40816181603218F4662319F04E
:103C900003C06FE101C061E04295469546954370CF
:103CA0008FEF489FA0011124649FC001659F900D74
:103CB00011246DE570E00E94D2516F3F710511F043
:103CC00008F06FEF60833A832983CE01DF91CF91B3
:103CD0000C94552D2091771730917817C901807F6A
:103CE00099272F7033272230310529F023303105F1
:103CF00009F045C037C080339105B1F020F4803120
:103D0000910541F02FC080349105C1F080359105B7
:103D1000B1F51EC010927817109277176091531763
:103D20007091541787E829C010927817109277176E
:103D3000609153177091541781EE1FC0109278173D
:103D400010927717609153177091541789EE15C030
:103D5000109278171092771760915317709154173B
:103D600085E80BC0809759F4109278171092771756
:103D7000609153177091541780E00C940B3D089597
:103D8000CF93DF93EC01662319F02091711701C0E6
:103D900020E044E060EF8CE20E94AD1A229740F4EC
:103DA00020E046E060EC8EE20E94AD1A20E009C0FF
:103DB00020916A1746E060EC8EE20E94AD1A2091D5
:103DC000691741E06EE08CE20E94AD1A89E190E053
:103DD0000E940A1C4997D1F782E090E090937817EF
:103DE00080937717ED982C9A2C9880917517909165
:103DF0007617FC01608161500E94821AED9ADF9172
:103E0000CF910895FC01CB0120917717309178175D
:103E1000232B89F4F0935417E093531723853485AB
:103E20003093761720937517232B39F0642F0E9457
:103E3000C01E80E0089586E8089588EE08952091D8
:103E40007717309178172230310561F5811122C042
:103E500045E060EE82E00E94961A2091771730913B
:103E60007817833099F028F4882351F08130C1F419
:103E700005C0853069F0873099F40CC0206101C01D
:103E80002062309378172093771708952063F9CF35
:103E90002064F7CF8091771790917817806507C0DD
:103EA0002065EFCF2330310531F483E290E0909329
:103EB0007817809377170895EF92FF920F931F93CF
:103EC00060E087E00E943F1AE12CF12C07E71FE138
:103ED00020E040E950E060E070E081E00E94C81717
:103EE0008111F2CF1F910F91FF90EF90089587E01D
:103EF0000E944E1A90910311981710F480930311A9
:103F00000C945C1F81E00E9415178AE090E00E94EB
:103F10000A1C8FE00E944E1A80E28CBBED9A109230
:103F200078171092771786E190E00E940A1C809122
:103F30000311893320F08FEF809303110AC02FEF14
:103F4000829FC001112468E370E00E94D251609307
:103F50000311809103110C94C941EF92FF920F93CA
:103F60001F93CF93C82F2091771730917817211581
:103F7000310531F02430310509F045C081E844C0F5
:103F8000ED9889E090E00E940A1C0997D1F78FE034
:103F90000E944E1A86E090E00E940A1C863091052D
:103FA00011F0ED9A2EC090937817809377171092A6
:103FB000031140EC53E060E070E004C0440F551F73
:103FC000661F771FCA95D2F740545C4F6F4F7F4FE3
:103FD00084E0440F551F661F771F8A95D1F7E12CA7
:103FE000F12C02E81FE120E080E00E94C817811157
:103FF00004C00E945C1F80E007C0109278171092E6
:10400000771785E801C086E8CF911F910F91FF9047
:10401000EF900895982F85FD02C09F7303C091957E
:104020009F719195ECECF0E0E491E9170CF405C078
:10403000EBEDF0E0E4919E176CF4E03E44F0E032EA
:1040400044F48E2FE7FF06C08F71806203C080E2C8
:1040500001C08FE180680895982F85FD02C09F738D
:1040600003C091959F71919520E030E0822FF90176
:10407000E453FF4FE4919E1724F0E91744F4815074
:1040800008952F5F3F4F2031310581F780E008957B
:1040900084E08093691723E020936A178FEF9FEFE6
:1040A00090936417809363179093621780936117BE
:1040B0008BE08093681780E098EFAFEFB7E08093D4
:1040C0005D1790935E17A0935F17B09360171092DF
:1040D0006D178AE091E090936617809365178AE0E8
:1040E00080936E1782E080936F1785E0809370173E
:1040F0002093711783E80E940A2080936C1781E057
:104100008093671710926B1708951F93CF93DF93D7
:104110006091631782E20E943F1A6091641783E204
:104120000E943F1AC5E5D7E114E26991812F0E94F0
:104130003F1A1F5F1C32C9F76091611780E20E942D
:104140003F1A6091621781E20E943F1A80916C17BA
:104150000E942C20282F40E06FE085E00E94AD1ADD
:104160002091671745E060E688E00E94AD1A209133
:10417000681740E06FE188E00E94AD1A20916A174D
:1041800046E060EC8EE2DF91CF911F910C94AD1A66
:104190000F931F93CF93DF93EB012091771730910B
:1041A00078172630310509F4DBC08E3431F08935BB
:1041B00041F4888180937117CDC0888180936917FD
:1041C000C9C040917217509173174F30510509F4CF
:1041D000C3C08B3009F4B6C070F4823009F47CC0DF
:1041E00018F48823E1F1BAC0833009F481C0843027
:1041F00009F0B4C066C0833511F130F48F3459F042
:10420000803509F0ABC00DC0873509F461C0803F2F
:1042100009F0A4C074C0288120936A1746E060ECBE
:1042200096C088819981682F809363179093641753
:1042300082E20E943F1A6091641783E20DC0888178
:104240009981682F809361179093621780E20E9492
:104250003F1A6091621781E20E943F1A7BC0232BB4
:1042600009F07EC080E098EFAFEFB7E0088004C0AF
:10427000B695A795979587950A94D2F780FD02C0C9
:1042800088EE6FC04830510549F088E090E00E9408
:104290000A1C0897D1F706E110E002C008E010E020
:1042A00028812093681740E06FE188E00E94AD1AF2
:1042B0000830110509F44EC086E190E00E940A1C06
:1042C00049C0232B09F04CC088818111D9CF49C046
:1042D0008881809370173EC088810E940A20809355
:1042E0006C170E942C20282F40E06FE085E030C042
:1042F00028812093671745E060E688E029C088811F
:10430000809355178981809356178A818093571718
:104310008B81809358178C81809359178D8180935E
:104320005A178E8180935B178F8180935C17C5E548
:10433000D7E114E26991812F0E943F1A1F5F1C325E
:10434000C9F708C0288120936B1743E068E08EE22C
:104350000E94AD1A80E005C081E803C084EF01C06F
:1043600086E8DF91CF911F910F910895CF932C98FC
:1043700080E793E00E949F16179886E090E00E94E5
:104380009F16179ACBEF40E06FE181E00E94961AEA
:10439000C15051F08830B9F788E090E090937317DE
:1043A0008093721780E001C085E8CF910895CF9384
:1043B000DF931F92CDB7DEB761E083E00E943F1A22
:1043C0000E949854682F8DE299830E943F1A998128
:1043D000292F40E067E08EE20E94AD1A80E00E9443
:1043E0001E230E94452321E045E060E28EE20E9408
:1043F000AD1A21E047E060E885E00E94AD1A68E070
:104400008EE00F90DF91CF910C943F1A0E94331AE7
:104410000C949C54CF93C82F0E94B621811130C0B8
:104420000E9406220E94D721C1110E9448200E94AA
:104430008520109278171092771710924D17CFB7EA
:10444000F89480E00E94151781E00E941517CFBFF5
:104450000AC060E070E08EE497E10E949E1B009726
:1044600011F00E94041B809152178111F2CF8DEF41
:1044700092E20E94481480E28CBBED9A80E001C079
:1044800085E8CF9108951F93CF93DF930E948A15FB
:104490008111AEC0179A2C9884EF91E00E949F166C
:1044A000179886E090E00E949F16179ACFEF03C0FE
:1044B000C15009F49DC084E690E00E949F168DE1F2
:1044C0000E944E1A8230A1F78CE10E944E1A82306F
:1044D00079F768E00E943F1AC0E040E06FE181E0B8
:1044E0000E94961ACF3F09F483C0CF5F8830A9F7A6
:1044F00088E090E0909373178093721725E537E179
:1045000048E050E060E070E080E00E949E15F0918D
:104510005517E091561740915717509158176091D1
:10452000591770915A172F2F3E2F80915B1790913A
:104530005C17AFEF0E948652ADEF0E94A45259F172
:1045400050F10E94062210E0C5E5D7E109C00E94A3
:10455000985489931F5F04C010E0C5E5D7E1F7CFF9
:104560001830A8F3209155173091561740915717DE
:10457000509158176091591770915A1780915B1795
:1045800090915C17AFEF0E948652ADEF0E94A4524B
:1045900009F010F704C08F2F9E2F0E949C540E9498
:1045A000B621811125C00E9406220E94D7210E94B7
:1045B00048200E9485201092781710927717109249
:1045C0004D178FE00E944E1A8DEF92E20E94481420
:1045D000ED9A0E94CE1A8AE90E94FE1A9093021167
:1045E000809301118EE497E10E947C1B80E001C062
:1045F00085E8DF91CF911F910895CF938FE00E94BE
:104600004E1AC82F83FF18C0209177173091781762
:10461000225031092230310560F486E190E00E9499
:104620000A1CC6FF02C081E001C080E0CF910C945B
:104630001F1FCF910C94C81DCF91089581111FC0E9
:1046400080917217909173170F97D9F08091771717
:1046500090917817892BB9F410924D1788E090E06B
:104660000E940A1C0897D1F780E00E9488168AE110
:1046700090E00E940A1C0F9731F480E0089588EEC4
:10468000089581E8089586E80895809172179091C1
:1046900073170F9759F488E090E00E940A1C08975E
:1046A00039F481E00E94881680E0089582E8089538
:1046B00085E808952091771730917817232BD1F44E
:1046C000883041F488E090E00E940A1C10924D1757
:1046D00088E008958091011190910211892B29F0B1
:1046E00086E190E00E940A1C03C081E080934D1790
:1046F00086E0089586E80895DC01ED91FC9124E1BF
:104700002083638352834183BC0188E198E10C9448
:10471000831B0F931F93CF93DF9300D0CDB7DEB7EA
:104720004FEF5FEF6BEE80919117909192170E947F
:104730007C23109288170FEF1FEF1A830983BE01A5
:104740006F5F7F4F80E50E946D3A1093D217009300
:10475000D117E7ECF7E110821182128213821482E2
:104760001582168217820E9415370F900F90DF91E5
:10477000CF911F910F910895DF92EF92FF920F93C7
:104780001F93CF93DF93CDB7DEB72F970FB6F89473
:10479000DEBF0FBECDBF7C01DC01ED91FC918FE04F
:1047A000DE01119601900D928A95E1F7F092921731
:1047B000E09291178C81823019F48F8198851AC00C
:1047C0008F818093C71788858093C81789858093C8
:1047D000C9178A858093CA178B858093CB178C85E0
:1047E0008093CC178D858093CD178E858093CE17BF
:1047F0008EEF9FEF9093D2178093D117BE016B5F1E
:104800007F4F80E50E946D3A0E943D37F70100819D
:10481000118181E0D8018C931296FC92EE9211974F
:10482000F801EA56FF4F8083F801E956FF4F8F8564
:104830008083F801E257FF4F809155178083809164
:1048400056178183809157178283809158178383ED
:1048500080915917848380915A17858380915B17C3
:10486000868380915C178783F801E457FF4F8FEFB1
:104870009FEF918380838C81F801823061F4E65749
:10488000FF4F8091D1179091D2179183808383E25B
:1048900098EC45E11DC0EC57FF4F8091C71780830E
:1048A0008091C81781838091C91782838091CA172C
:1048B00083838091CB1784838091CC1785838091EB
:1048C000CD1786838091CE17878383E29CEC4BE1E2
:1048D0002091631730916417DF0112972D933C9359
:1048E0002091DD17DF0113972C932F5F2093DD17A5
:1048F000DF0115978D939C9336974083D8011C96C2
:10490000FC93EE931B97BE016D5F7F4F84E00E9486
:104910006D3AD82EBE016E5F7F4F80E00E946D3AE7
:10492000D1100EC081110CC041E062E070E0C801FE
:104930000E94021F811104C081E08093161808C0F4
:104940004FEF5FEF61EEC7010E947C230E94153795
:104950002F960FB6F894DEBF0FBECDBFDF91CF917B
:104960001F910F91FF90EF90DF900895DC01ED9182
:10497000FC912091D717211102C00C94041BB09117
:10498000FD17A091FE177091FF17609100185091CC
:104990000118409102183091031820910418B18336
:1049A000A283738364835583468337832087209152
:1049B0000C18218723E12083BC0188E198E10C9445
:1049C000831BEF92FF920F931F93CF93DF93FC0112
:1049D000C081D181F9800A811B81BC81AD817E813A
:1049E0006F81588529853A85EB844091151842508E
:1049F000423040F0DF91CF911F910F91FF90EF90E7
:104A00000C94041B42E04883FE01EC56FF4F4083A8
:104A1000FE01EB56FF4F31832083FE01E956FF4F25
:104A2000E082FE01E457FF4F20915517208320912B
:104A300056172183209157172283209158172383DB
:104A400020915917248320915A17258320915B17B1
:104A5000268320915C172783FE01EC57FF4FF082DD
:104A600001831283B383A483758366835783FE0116
:104A7000EE57FF4F209163173091641731832083E5
:104A80002091DD17FE01EF57FF4F20832F5F20930A
:104A9000DD17FE01E158FF4F23E63CEC3183208314
:104AA000FE01E258FF4F2BE12083FC87EB871E823B
:104AB000BC018AE797E10E94831B8091CF179091F8
:104AC000D0179D838C8383E00E94C916811108C092
:104AD000DF91CF911F910F91FF90EF900C940B34C9
:104AE000DF91CF911F910F91FF90EF900895FF926A
:104AF0000F931F93CF93DF9300D0CDB7DEB7F09025
:104B00000E180E94041BF11036C06CE078E183E5BA
:104B10000E946D3A40910C1850910D188091FD172C
:104B20008093C7178091FE178093C8178091FF1755
:104B30008093C917809100188093CA17809101183B
:104B40008093CB17809102188093CC178091031823
:104B50008093CD17809104188093CE1781E08093C5
:104B600015181092881780918F17833031F582E0E5
:104B700080938F1722C0109288170FEF1FEF1A83B0
:104B80000983BE016F5F7F4F80E50E946D3A1093ED
:104B9000D2170093D1171092C7171092C81710920E
:104BA000C9171092CA171092CB171092CC171092F7
:104BB000CD171092CE174FEF5FEF6F2D80919117A9
:104BC000909192170E947C230E9415370F900F90AE
:104BD000DF91CF911F910F91FF900895EF92FF9277
:104BE0000F931F93CF93DF93C091D517D091D61712
:104BF00000E010E020E030E040E061E080E00E9472
:104C0000C12D81110FC04FEF5FEF61EE80919117C1
:104C100090919217DF91CF911F910F91FF90EF909C
:104C20000C947C23AE0160E070E084E0440F551FDB
:104C3000661F771F8A95D1F7E12CF12C09E813E262
:104C400020E082E00E94C817882351F080E090E0C5
:104C5000DF91CF911F910F91FF90EF900C948923DA
:104C6000DF91CF911F910F91FF90EF900895CF9317
:104C7000FC012091EA174091EB17542F529556955D
:104C80005695537046954695437009F441C080810E
:104C900091819093F1178093F0174230C9F41092EC
:104CA000F2171092F3171092F4171092F517109252
:104CB000F6171092F7171092F8171092F9178281D1
:104CC00093819093F3178093F217349684E021C078
:104CD000433019F0329682E01CC0C281B381A481B6
:104CE00075816681378190858185C093F217B09375
:104CF000F317A093F4177093F5176093F61730939A
:104D0000F7179093F8178093F9173A968AE001C045
:104D100080E0552309F447C026FD08C02191319158
:104D20003093FC172093FB178E5F08C02091F0177B
:104D30003091F1173093FC172093FB175230C1F4D8
:104D40001092FD171092FE171092FF171092001884
:104D50001092011810920218109203181092041861
:104D6000208131813093FE172093FD178E5F1BC089
:104D70005330C9F4C081B181A281738164813581CE
:104D800026819781C093FD17B093FE17A093FF175C
:104D90007093001860930118309302182093031841
:104DA00090930418885F9091ED179550981B9093FD
:104DB0000B185093FA174093EF17CF910895209155
:104DC00006112730E8F4FC01A385B48512968C9176
:104DD0001297869586958370823091F4E091041144
:104DE000F09105113297F0930511E0930411169696
:104DF0008D919C911797918380832F5F209306114B
:104E000080E00895209106112730E8F4DC011B961C
:104E1000ED91FC911C9782818695869583708330F5
:104E200091F4A0910411B09105111897B093051158
:104E3000A0930411369688E001900D928A95E1F7CF
:104E40002F5F2093061180E00895DF92EF92FF928A
:104E50000F931F93CF93DF9300D000D01F92CDB755
:104E6000DEB7DB01ED90FC90F701728361838AE08D
:104E70008083870108561F4F4091D817442371F053
:104E8000041B1109242F235F83E997E150E0BC0143
:104E9000C8012D830E94A7542D8101C02DE080916F
:104EA0007E17882309F441C0109305110093041163
:104EB0001092061182E097E29A838983BE016F5FA8
:104EC0007F4F8AE797E12D830E94A31BD0900611A4
:104ED000109206114FED56E25A834983BE016F5F6F
:104EE0007F4F8AE797E10E94A31BE0910611A091F2
:104EF0000411B091051111978D2D90E0AC0194E053
:104F0000440F551F9A95E1F74E2B4C93F4E0DF9E2A
:104F1000E00D1124EE0FE09306112D812E0FF0E02D
:104F2000E095F095E00FF11F02C0F8011292DF0149
:104F300011971C9280911518833019F08FEF9FE024
:104F400002C08FEF9FE43091D71731119068DF01D5
:104F500013978D939C9380916117909162178E3F68
:104F60003FEF9307E9F43B972A5FA09155177091A3
:104F70005617609157175091581740915917309113
:104F80005A1790915B1780915C17A083718362839D
:104F90005383448335839683878380E090EC05C0F8
:104FA00035979183808380E090E84091631750911A
:104FB0006417DF0112974D935C933091D917DF018D
:104FC00013973C933F5F3093D917DF0115978D936B
:104FD0009C9336972083D7011C96FC93EE931B97E6
:104FE00040E062E070E0C7010E94021F81E0809310
:104FF00016180F900F900F900F900F90DF91CF9198
:105000001F910F91FF90EF90DF900895BC0180E019
:105010000C9425278F929F92AF92BF92CF92DF92EE
:10502000EF920F93CF93DF93CDB7DEB766970FB6AE
:10503000F894DEBF0FBECDBF4C01DC01ED91FC91B9
:1050400081818C87828193819E878D877481658120
:105050005681478130852185928583857F87688B3E
:10506000598B4A8B3B8B2C8B9D8B8E8B84858983B4
:10507000858596859B838A8387858C8380898D83AC
:1050800081898E8382898F838389888784898987B0
:1050900085898A8786898B87A18CB28CC38CD48CB6
:1050A000268D378DE08C0789458DBE016F5F7F4F60
:1050B000CE010C960E94D003C4010E94041B669688
:1050C0000FB6F894DEBF0FBECDBFDF91CF910F9129
:1050D000EF90DF90CF90BF90AF909F908F9008950A
:1050E000CF93DF93EC01E881F981238134814581FD
:1050F0005681628181810E947E02CE01DF91CF9133
:105100000C94041BCF93DF93EC01E881F981628159
:1051100081810E944947CE01DF91CF910C94041BFD
:10512000CF93DF93EC01E881F981638181819281E2
:105130000E945802CE01DF91CF910C94041B0F9373
:10514000CF93DF93EC01E881F981218132814381A2
:105150005481658176810185878190850E942F0326
:10516000CE01DF91CF910F910C94041BEF92FF922F
:105170000F93CF93DF93EC01E881F981E38CF48CFA
:10518000208D318DBF016E5F7F4F028D47898181F8
:105190000E944A47CE01DF91CF910F91FF90EF908F
:1051A0000C94041B0F931F93CF93DF93CDB7DEB7FF
:1051B00066970FB6F894DEBF0FBECDBF8C01DC0141
:1051C000ED91FC91818192819E878D8723812C872F
:1051D000B481A5817681678150854185328523859B
:1051E000BF87A88B798B6A8B5B8B4C8B3D8B2E8B0F
:1051F0009B838A838485898385858C8386858D833B
:1052000087858E8380898F83818988878289898732
:1052100083898A8784898B874589BE016F5F7F4F29
:10522000CE010C960E947D02C8010E94041B669666
:105230000FB6F894DEBF0FBECDBFDF91CF911F91A7
:105240000F9108950F931F93CF93DF93CDB7DEB7E0
:105250002B970FB6F894DEBF0FBECDBF8C01DC01DB
:10526000ED91FC9182818983838194819B838A83E0
:105270007581668157814085318522859385848536
:105280007C836D835E834F83388729879A878B87DA
:10529000BE016F5F7F4F81810E944B47C8010E9412
:1052A000041B2B960FB6F894DEBF0FBECDBFDF9167
:1052B000CF911F910F9108950F93CF93DF93EC013E
:1052C000E881F98121813281438154816581768130
:1052D0000185878190850E944C47CE01DF91CF9157
:1052E0000F910C94041BCF93DF93EC01E881F981BB
:1052F000AF014D5F5F4F628181810E944D47CE01BA
:10530000DF91CF910C94041BCF93DF93EC01E881E4
:10531000F981218132814381548165817681878140
:1053200090850E944E47CE01DF91CF910C94041BD3
:10533000CF93DF93EC01E881F98181810E944F478F
:10534000CE01DF91CF910C94041BCF93DF93EC013E
:10535000E881F98181810E94E800CE01DF91CF913F
:105360000C94041BCF93DF93EC01E881F9818181D8
:105370000E945047CE01DF91CF910C94041BCF9235
:10538000DF92EF920F931F93CF93DF93EC01E881AD
:10539000F9816F0189E0C80ED11C04811581268135
:1053A0003781E0844381628181810E944C01CE017A
:1053B000DF91CF911F910F91EF90DF90CF900C94E0
:1053C000041BCF93DF93EC01E881F9816281818135
:1053D0000E949002CE01DF91CF910C94041BCF93D9
:1053E000DF93EC01E881F98181810E94F502CE0111
:1053F000DF91CF910C94041BDC01ED91FC91628153
:1054000073812581448181810C94514720910C182E
:1054100030910D1836FF17C02091FB173091FC1703
:10542000811107C08091631790916417281739077D
:1054300039F08091E1179091E2172817390719F494
:105440008EEE0C9409430895AF92BF92CF92DF92F3
:10545000EF92FF920F931F93CF93DF9320910C183D
:1054600030910D1836FFDFC02091FB173091FC17EB
:10547000811107C08091631790916417281739072D
:1054800041F08091E1179091E2172817390709F050
:10549000CAC02091FD173091FE178091D1179091CD
:1054A000D2172817390709F4BEC02091FD17309193
:1054B000FE174091FF1750910018609101187091EC
:1054C0000218A090C717B090C817C090C917D09005
:1054D000CA17E090CB17F090CC170091CD17109120
:1054E000CE1780910318909104180E949B5209F4E2
:1054F0009AC08AE90E94FE1AEC01009709F493C051
:10550000E881F98185E08083D283C183DF01A956D8
:10551000BF4F8C93DF01A157BF4F809155178C93DC
:105520008091561711968C93119780915717129668
:105530008C9312978091581713968C9313978091A0
:10554000591714968C93149780915A1715968C932B
:10555000159780915B1716968C93169780915C1720
:1055600017968C93DF01A957BF4F8091C7178C9373
:105570008091C81711968C9311978091C917129634
:105580008C9312978091CA1713968C9313978091DE
:10559000CB1714968C9314978091CC1715968C93F7
:1055A00015978091CD1716968C9316978091CE17EC
:1055B00017968C93DF01AB57BF4F80916317909183
:1055C00064178D939C938091DD17DF01AC57BF4F1B
:1055D0008C938F5F8093DD17DF01AE57BF4F83E65B
:1055E0009CEC8D939C93DF01AF57BF4F88E18C9368
:1055F000B487A38741E062E070E0CF010E94021F00
:10560000811104C081E0809316180DC0CE01DF9196
:10561000CF911F910F91FF90EF90DF90CF90BF90AF
:10562000AF900C94041BDF91CF911F910F91FF90CD
:10563000EF90DF90CF90BF90AF900895EF92FF92E0
:105640000F931F93CF93DF93EC01E881F981A3853A
:10565000B4858C918093ED17A80FB11D11968C9194
:10566000809306180384F485E02D01811281109344
:10567000EB170093EA1783818093EE177F0184E094
:10568000E80EF11CC7010E94372603FDF9C1F7019E
:10569000E80FF11DC801877099278093EC178330BC
:1056A00021F480818093051858C0813009F444C0EA
:1056B00020F0833009F0E4C150C080819181909343
:1056C0000D1880930C18228120930E18277011F06A
:1056D0002C5F01C023E0DF01A20FB11D3C9130938C
:1056E0000F182F5F432F4770307732953F7041116D
:1056F00001C089F0CF01820F911D90931118809302
:105700001018442311F0440F240F332321F088E0B4
:10571000389F200D112480910B18281750F4821BFC
:1057200080931218E20FF11DF0931418E0931318F0
:10573000B0C110921218ADC180910B18882351F09E
:10574000863718F086E780930B18F0930D18E093D6
:105750000C189FC110920B189CC1809105188330C2
:10576000C1F030F48130A9F0823009F089C107C05E
:10577000883008F48EC1883009F082C10EC0818162
:10578000928190930D1880930C18838180930E184A
:1057900080C1818180930C187CC18181928190931A
:1057A0000D1880930C188381948190930F18809327
:1057B0000E18858180931018868197819093121816
:1057C0008093111814FF65C180858093131861C1FF
:1057D0008091EC17833089F480910518843011F0A2
:1057E000873059F4BE0183EE97E1DF91CF911F918D
:1057F0000F91FF90EF900C94831B8091881781305C
:1058000009F420C120F0843008F03AC1BBC0809177
:105810008E17811184C0909115189330A8F19330A0
:1058200009F02EC18091EC17813009F474C040F169
:10583000833009F025C1809105188430A1F038F437
:10584000813009F460C0833009F01AC108C0863085
:1058500009F45DC088F0873009F012C150C0CE0154
:105860000E943E311BC180917E17882309F4C8C075
:10587000CE010E94762F12C18EEE0E94094300C114
:1058800080E00E94062AFCC08091EC17813009F468
:1058900042C020F0833009F0F3C00CC08091DA17C9
:1058A000882309F4EDC0992309F4EAC080E00E943E
:1058B000242AE6C0809105188430A9F230F48130A2
:1058C00011F1833009F0DCC008C08730A9F08830BE
:1058D00079F0863009F0D4C01AC0CE010E943E3162
:1058E00080911518813009F0D9C00E948637D6C042
:1058F000CE010E944E43D2C0923009F0C1C0CE0109
:105900000E940628CBC0CE010E94B624C7C0CE019B
:105910000E94AC37C3C0CE010E94B832BFC08330F2
:1059200001F1843019F0823009F0AAC08091EC179F
:105930008111A6C080911518833019F481E00E946E
:10594000062A8091DA17882341F08091151881503A
:10595000823018F481E00E94242ACE010E94503B3C
:105960009DC08091EC17833009F08AC080910518A2
:10597000883009F085C084E00E941517CE010E948E
:1059800001428CC00E942F3B8091EC17813009F4BA
:105990006EC0833009F074C080910518843019F10D
:1059A00030F4813061F0833009F06AC011C0873073
:1059B00099F18830F1F1863009F062C024C0CE013F
:1059C000DF91CF911F910F91FF90EF900C94B6242F
:1059D000CE010E943E31DF91CF911F910F91FF9038
:1059E000EF900C94863780917E17882349F0CE0182
:1059F000DF91CF911F910F91FF90EF900C94762F34
:105A00000E94B42E3DC0CE01DF91CF911F910F9126
:105A1000FF90EF900C94AC3780911518823081F58F
:105A2000CE01DF91CF911F910F91FF90EF900C94D9
:105A30000628CE01DF91CF911F910F91FF90EF903B
:105A40000C944E438091EC17833079F480910518C3
:105A50008230B1F40E941517CE01DF91CF911F91D2
:105A60000F91FF90EF900C947725813049F4CE018F
:105A7000DF91CF911F910F91FF90EF900C94B8326E
:105A8000CE01DF91CF911F910F91FF90EF900C9479
:105A9000041B8091161881119BCEAFCEDF91CF9160
:105AA0001F910F91FF90EF900895FC01108261818A
:105AB00072816115710521F083EE97E10C94831BCF
:105AC0000895DC0116962C911697211113C01B9690
:105AD000ED91FC911C97828186958695837082302A
