S02B0000416C6C5F53746B3630305F41746D656761313238726661315F384D687A5F4763632F4578652F426C81
S2840000000C944E040C943E150C946B150C9498150C94C5150C94F2150C941F160C944C160C9479160C9486040C9486040C9486040C9486040C946B130C9486040C94B4130C9486040C9486040C9486040C9486040C9486040C9486040C9486040C9486040C94251F0C94921D0C94361D0C94641D0C9486040C94BF1E0C94B4160C948604D9
S2840000800C9486040C9486040C9486040C9486040C94201E0C94C41D0C94F21D0C94521E0C9486040C9486040C94B0140C9405B70C9486040C9486040C9486040C9486040C9486040C9486040C9486040C9486040C9486040C9486040C9486040C9486040C9486040C9486040C9486040C9486040C9462B70C9486040C9486040C948AB793
S2840001000C9486040C9486040C9486040C9486040C9486040C9486040C9486040C948604BC0B08000000D70B01000100040C080002006C0B04000300840C010004007B0C01000500E70B01000600E80B01000700E90B01000800F30B11000900D80B02000A00DE0B01000B00860C02000C007E0C01000D00940C01000E000E0C01000F00BF
S2840001800F0C02001300180C010014008A0C08001500DD0B01001600CB04BD0017003F09030018002C0B160019004C0410001E006C0404001F00740402002000780417002100A60414002200CE04110023004E2DF72DBB2ED52EEE2E11303E30153415341534153415341534153415341534972FA52F1534E02CC92FA82E6C3479349B346E
S284000200953492349B34A5349E369E369E369E369E369E369E369E369E3695349B349E36693498348934CF50E04F145114511451E64FF04F14511451F94FFF4F285031501451375040504B50145154505A5014516350A050B5501451A650AF50CF50CF50CF50C150C150C150C150C150C150C150C150C150C150C150C150C150C150C15065
S284000280C150C1507750C15014511451145114511451145114511451145114511451145114511451C150BB50CF50C15072508652E651D652D652D652EC51F1519D52D652F451F75110521552D65218521B521E52D652235226529D522B527A528F52D6527D528052EA51835283529D529D529D529D529D529D529D529D529D529D529D5268
S2840003009D529D529D529D529D529D5260529D52D652D652D652D652D652D652D652D652D652D652D652D652D652D6529D52925295529D525952F453F953FE53035408540D5412541254205423543C54265429542C542F543C54325435543C54385432586E586E586E583858515844584A587E583E58575857585D586E5875587958C9586E
S284000380CC58CF58CF58D258DE58D858DB58EE58D558E158E458E758EA58AD5AB15AD95AB55AB95AD95ABD5AD95ACB5ACF5AD65A165FD55FE75FD05E2D602D60E25FE75FEA5F186001602D602D601860045F1B60AB7DB37D3F7D007E007E867D937D007E007E007EBD7DCC7D5F7D6B7D007E3C7D9E7DB682B68243824A824A8256825682F5
S284000400678267828D828D828D820683B682539960998D999F99A699B399C099CB99D399F1991B9ADD9933AE3BAE4DAE56AE58AE5AAE5CAE5FAE30AFA9AFA9AF58AF5EAF6DAF73AF76AF79AF7CAF82AF00000100020003000400050006000700080009000A000B000C000D000E000F0013001400150016001A001B0000000100020003008E
S2840004800400050006000700080009000A000B000C000D000E000F00130014001500160017001800190000000100020003000400050006000700080009000A000B000C000D000E000F00130014001500160000000100020003000400050006000700080009000A000B000C000D000E000F0018000000000000000000000000000000000091
S28400050000000000000000000000000000000000000000000000000000000000000000000000000000000000000000000000000000000000000000000000000000000000000000000000000000000000000000000000000000000000000000000002010002020508080000FFFF3412000000000000000002020100400000000000000000D1
S28400058000000000000000000000000000000000000000000000000000000000000000000500FF00000200001E000003341201030300001027000010270000010001E803000004E80300001041746D656C2020202020202020202020000000000000000003010085000000070507040205020402040308010803020A01005F0035000E015B
S2840006001410BC0B0800C60B0100D30B0400D70B0100820C0100830C01008A0C0800860C02000F0C0200180C01007E0C0100940C0100840C0100DA0B0100DB0B0100DC0B0100DD0B0100D80B0200DE0B0100800C01007F0C0100960B0100980B0100040C08006C0B0400EA0B0400DF0B0400E30B0400E70B0100E80B0100E90B0100F30B89
S28400068011007B0C0100EE0B0100EF0B04000C0C0100990B02000E0C01000D0C010000000000E3050200E7050100E5050200E9050100EA050100EB050100EC050100ED050100EE050100EF050100F0050100E8050100F1050100F205010000060200F5050100F6050100F7050100FC050400F3050100F4050100F8050100F9050100FA054C
S2840007000200AC030000CB040000310400008805000000000000B2050000A20A0000FA0A00008E080000E0080000AA08000017090000420900005C0A000000000000000000003F0900002C0B0000420B00006919581A6D197119541A751924434E48000000000000000000000000018136810E9562A20275AA877780127AFD70047EE29293
S2840007800374469EA770E190367000000000000000000000000002020302020201010101010101020201010102020202020202020202020202030302020302F477D4730107159C4F830101159C4F830101AA77D77A01013277649F010132773D9F0107EA76E08001019176FB9E01010000000001070000000001010000000001030000D56D
S2840008006C01040000D56C010500000000010600000000010C000000000101159C0000000100000000010D00000000010700000000010900000000010000000000010100000000010100000000000000008871000700008871000B0000887100000000887100AA691E6EF269CC69EB690000B169BF69E469B869146E8B698C6C936C056DC6
S2840008807E6CF9690000DE6E82A1BCA05E95829F000004973A7B747500000000112480915513823141F084B78F718093551380FF05C081E001C081E18093551314BE809160008861809360001092600011241FBECFEFD1E4DEBFCDBF12E0A0E0B2E0E2E0F2E701E00BBF02C007900D92A237B107D9F713E1A2E7B2E001C01D92A535B10701
S284000900E1F70E943F210E940121FDCF0C9400007F937FB7F8949D9AA5988AEF0E94E7048AEF0E94E7049D9886E40E94E70481E0959980E08F9380EF0E94E7048F917FBF7F9108957F937FB7F8949D9AA59886E00E94E7049D988AE00E94E704889495990894881F8F9384E60E94E7048F917FBF7F9108959F937F9398E00E94A204879598
S28400098077959A959923C9F7872F7F919F9108957F937FB7F894A5989D9A8F9386E00E94E7048F91879508F49D988F9384E60E94E7048F919D987FBF7F9108959F9398E00E94C8049A959923D9F79F91089500000000000000008A958823C9F708955F937F937FB7F894CF93DF93C0E0D0E07F935091B2007091B2007517E1F3739521965D
S284000A005091B2005717D9F77F91CE01DF91CF917FBF7F915F9108950F93DF93CF93CDB7DEB760970FB6F894DEBF0FBECDBF002309F459C029833A834B835C836D837E838F839887E0E2E01B29813A814B815C811E16BCF019861A861B861C868E2F992787FD9095909581959F4F04C0220F331F441F551F8A95D2F72D873E874F87588B24
S284000A802AC0CA01B901002E04C0660F771F881F991F0A94D2F769877A878B879C87DA01C90104C0B695A79597958795EA95D2F72D813E814F81588504C0220F331F441F551F0A95D2F7822B932BA42BB52B8D879E87AF87B88B29853A854B855C856D857E858F85988960960FB6F894DEBF0FBECDBFCF91DF910F91089580E00E94560DB6
S284000B0081E00E94560D82E00E94560D08951F93182F8FE792E00E94B20E1130F1F48091850290918602A0918702B0918802B695A795979587958093850290938602A0938702B093880282339105A105B10578F582E390E0A0E0B0E022C0123041F58091850290918602A0918702B0918802880F991FAA1FBB1F8093850290938602A093B7
S284000B808702B0938802893823E1920720E0A20720E0B20760F088E893E1A0E0B0E08093850290938602A0938702B09388020E947D058FE792E00E94860E1F910895809100020E94870580910002813011F482E001C081E08093000208950E94410D80E00E94490D81E00E94490D82E00E94490D80E090E067E875E00E94860C80E197E27C
S284000C00A0E0B0E08093780290937902A0937A02B0937B0210927C028FED95E090937E0280937D0282E792E00E94860E84EF91E0A0E0B0E08093850290938602A0938702B0938802109289028DE795E090938B0280938A028FE792E00E94860E089508950895089508950895A6E0B0E0EAE3F6E00C9421B88E010F5F1F4F26E0F80111923C
S284000C802A95E9F7FC0123E0F695E7952A95E1F7E00FF11F8770907021E030E002C0220F331F8A95E2F72083C8010E94600AD801EAE8F3E0CE0107963D912081232B2193A817B907C9F78091A50384608093A5032696E4E00C943DB802C00E943C210E9422108823D1F708950F931F93CF93DF938C01EB010E946C06C801BE010E94490F13
S284000D002FEF8F3F920739F086E0C333D80729F40E946C0602C081E001C080E0DF91CF911F910F9108950F931F93CF93DF938C01EB010E946C06C801BE010E94AD0F2FEF8F3F920739F086E0C333D80729F40E946C0602C081E001C080E0DF91CF911F910F9108952F923F924F925F926F927F929F92AF92BF92CF92DF92EF92FF920F93DE
S284000D801F93DF93CF93CDB7DEB762970FB6F894DEBF0FBECDBF8091A50382608093A50382FF94C08CE892E06AE873E00E94110B8091A5038B7F8093A50388C0E0909202F0909302F70103E0F695E7950A95E1F7E858FC4FC70187709070960102C0220F331F8A95E2F7C901809592898923828B69857A854B855C8580E00E94310B982EF0
S284000E00588A4F863A8A298A8F81988505979E878D87C50163E376E00E9474068A819816A1F58D819E81E816F90679F52B853C858B819C812817390741F581E090E08C0F9D1F988B8F87DA8AC98A00E010E017C08F819885800F911F9E878D87C50163E376E00E947406AF85B889E985FA85E00FF11F9C918081981741F40F5F1F4F8B8548
S284000E809C850817190720F336C09A82FE82ED828B859C859C838B83CE010296988B8F8785E090E09A8B898B8F81988505979E878D87CE010D9663E376E00E949306CE01079662EB76E00E94930627C017E0612E712C6C0E7D1EB1E0CB2ED12CA2E04A2E512C4C0E5D1EF5E02F2E312CEDE0AE2EB12CAC0EBD1E8CE892E0B3010E94000AF6
S284000F00882309F05BCF8091A5038D7F8093A5038FE060E070E00E94572062960FB6F894DEBF0FBECDBFCF91DF911F910F91FF90EF90DF90CF90BF90AF909F907F906F905F904F903F902F900895282F392FF90180E09191992329F48F5F8630D1F780E0089581E008959C01CB0146E0DB011D924A95E9F7F90143E0F695E7954A95E1F7D8
S284000F80E60FF71F2770307041E050E002C0440F551F2A95E2F72081242B20830E94600A0895972F882319F08130A1F40EC0A0E9B3E0E62FF72F9D9180818923819383E0A639B807C1F791E006C0862F0E94A30B91E0811190E0892F08950E9434068091A50381FD02C00E94B20681E00895A6E0B0E0EDEFF7E00C9421B88E010F5F1F4F91
S284001000B8010E94B30780E0B8010E94D107C8010E94A507882381F0A4E8B3E0F8019D9180818923819383E0AA38B807C1F7CE0101960E94A50701C080E02696E4E00C943DB8A8E1B0E0E7E2F8E00C9417B800E211E010937903009378038AEA91E090937B0380937A038AEA91E0801B910B26E030E0B9010E94DDB780917C0390917D0351
S284001080682B792B70937D0360937C038EEC91E08A5A9140B9010E94DDB780917E0390917F03682B792B70937F0360937E031092800310928103109282031092830386E0E0E9F3E0DF011D928A95E9F7AA2483E1882E912C8C0E9D1EB1E0CB2ED12C38C0C401B80146E050E00E94AEB88D899E890596A0E0B0E02091800330918103409119
S284001100820350918303820F931FA41FB51F8093800390938103A0938203B09383038F89988DFC01A3E0F695E795AA95E1F7E858FC4F87709070960102C0220F331F8A95E2F7C901208D282B208F0A5F1F4FA39420917C0330917D038A2D90E08217930708F4BECFC901880F991F820F931F880F991F04966C01EE24FF24CE010D969A8760
S284001180898786E090E09C878B87AA24BB2400E010E067E0862E912C8C0E9D1E53E1652E712C6C0E7D1EF80143E0F695E7954A95E1F7E858FC4F808D90E098012770307002C0969587952A95E2F780FF3DC0C501880F991F8A0D9B1D880F991F049698878F83C40163E376E00E94740689899A898017910749F48D859E85AF85B8898C1516
S2840012009D05AE05BF0559F01A8B098BCD86DE86EF86F88AC40163E376E00E949306C8010E944409BC01C30146E050E00E94AEB88D899E890596A0E0B0E0C80ED91EEA1EFB1E0894A11CB11C0F5F1F4F0D32110509F0A9CF0E943B09CE0101960E94A30B6896EEE00C9433B88091A3039091A4030E94ED0708951092A00384E399E0909362
S284001280A2038093A1030895A2E0B0E0EAE4F9E00C9419B84C010091780310917903EE24FF245E010894A11CB11C13C06801B8016C5F7F4FC50142E050E00E94AEB80A5F1F4F89819A818815990561F00894E11CF11C80917C0390917D03E816F90630F3CC24DD24C6012296ECE00C9435B8A2E1B0E0EDE7F9E00C9420B88B01BC0153E0EC
S284001300769567955A95E1F7FB01E858FC4F208D30E0AC014770507002C0369527954A95E2F720FF4AC0DE011D96E0E9F3E026E001900D922150E1F7FF2420E030E0FE013D961BC0DF01A40FB51F4C91542F569555754575540F452F4695469543735373450F4C93A42FA295AF7050E04F7050704A0F511D240F351FF3944F2D50E0461753
S284001380570700F3A0E087709070FE013D96E60FF71F0DC0408150E00A2E02C0569547950A94E2F741705070240F351FAF5F4A2F50E04817590770F302C02FEF3FEFCE0107969C838B83C901880F991F820F931F880F991F04969A83898386E090E09E838D83CE01019663E376E00E9474068F819885F801918380836296E5E00C943CB8B4
S284001400A6E0B0E0E6E0FAE00C941FB87C018B0180E090E0FC0163E0F695E7956A95E1F7EE0DFF1D6081AC0147705070262F30E0042E02C0369527950A94E2F720FF10C021E030E002C0220F331F4A95E2F72095262320830E944409BC01009731F426C001968D329105B1F621C0CE01019646E050E00E94AEB889819A81F8019383828373
S2840014808D819E81B8010E947709F801808191810596918380838B819C81958384838D819E81F7019783868381E006C08FEF9FEFF7019783868380E02696E6E00C943BB84F925F926F927F929F92AF92BF92CF92DF92EF92FF920F931F93DF93CF93CDB7DEB728970FB6F894DEBF0FBECDBF8C0130917A0320917B03FC01858186FD12C0AA
S284001500C901E92EF82ECC24DD2483E0482E512C4C0E5D1EB1E0AB2EB12C3E010894611C711C61C0C8016FEF70E046E050E00E94DFB861C0C201B70146E050E00E94AEB82F813885F901A3E0F695E795AA95E1F7E00FF11F408127703070842F90E0022E02C0969587950A94E2F780FF35C0C50102C0880F991F2A95E2F79C0120952423A8
S2840015802083992422C0880F991F6B817C81680F791FC30142E050E00E94AEB889819A81FC0173E0F695E7957A95E1F7E00FF11F87709070950102C0220F331F8A95E2F7C9012081282B20839394892D90E02D813E8182179307B8F20894C11CD11C86E090E0E80EF91E80917E0390917F03C816D90608F49FCF28960FB6F894DEBF0FBEFD
S284001600CDBFCF91DF911F910F91FF90EF90DF90CF90BF90AF909F907F906F905F904F900895CF93DF93EC018FEF9FEF9F838E83DE01862F972FFC0186E001900D928150E1F7CE010E94600AE0E9F3E0919188818923899383E0E639F807C1F7DF91CF910895262F372FF90120E030E004C09191890F2F5F3F4F24173507C8F30895ACE047
S284001680B0E0E5E4FBE00C941CB87C018B01CE0102969A87898785E090E09C878B87FB0180819181059798878F8387E0C82ED12CCC0EDD1EC60163E376E00E9474068D819E81E816F906C1F5F801248135818B819C812817390781F5CE0101969A87898781E090E09C878B87EE24FF24BB24C601DC2CC92E18C0F801808191818E0D9F1D04
S28400170098878F838D2D9C2D63E376E00E94740669857A858B2D41E050E00E94310BB82E0894E11CF11CF80184819581E816F90610F38A81B81611F082E001C080E02C96E9E00C9438B8AEE0B0E0E9EAFBE00C941BB88C0147E0E42EF12CEC0EFD1EC701B8010E94110B86E0D8011D928A95E9F7BE2CAF2C7E010894E11CF11C31E0C32EBD
S284001780D12C1DC08D859E85B7010E943F0B8823B1F48D859E85FC0123E0F695E7952A95E1F7E00FF11F87709070960102C0220F331F8A95E2F7C9012081282B20838B2D9A2DB7010E94000A8823E1F62E96EAE00C9437B8E091A803F091A90381E060E070E009950895E091AA03F091AB0381E060E070E009950895E091A603F091A7032E
S28400180080E090E00995089589B181700895589A089581E0499B80E00895599A089581E04D9B80E008955D9A089590919A02992351F09091A102992341F09091A8029923B9F422E003C020E001C021E030E0F90193E0EE0FFF1F9A95E1F7E21BF30BEC56FD4F8083738362835583448381E0868308950F931F93CF93DF9308E912E0C0E0D8
S284001880D0E0D801ED91FC9109959E0143E0220F331F4A95E1F7882371F0F901EC1BFD0BEB56FD4F808182FF25C080818B7F8083808182600DC0F901EC1BFD0BEB56FD4F808182FD17C08081846080838081816080838091AE0281608093AE022FB7F8948091020390910303916090930303809302032FBF2196095F1F4FC330D10509F0B1
S284001900C0CFDF91CF911F910F9108950F931F93CF93DF932091AD02222309F067C021E02093AD029093AA028093A9027093AC026093AB0280E062E049E35CE00E94FE0E81E062E049E35CE00E94FE0E85E062E049E35CE00E94FE0E80E00E942B0F81E00E942B0F85E00E942B0F81E067E07CE044E05CE00E94150C82E06DE07CE049E0A5
S2840019805CE00E94150C80E263E17CE04FE05CE00E94150C06E912E0C0E0D0E0D801ED91FC91099581E00E943E0ED8011296ED91FC911397099591E0811190E0FE0153E0EE0FFF1F5A95E1F7EC1BFD0BEB56FD4F990F990F80818B7F892B80832196095F1F4FC330D105D1F680E001C081E0DF91CF911F910F9108950F931F93CF93DF9324
S284001A0004E912E0C0E0D0E0FE01A3E0EE0FFF1FAA95E1F7EC1BFD0BEB56FD4F808180FF0CC080818E7F8083E091A902F091AA02309719F0D8018C910995FE0173E0EE0FFF1F7A95E1F7EC1BFD0BEB56FD4F808181FF0CC080818D7F8083E091AB02F091AC02309719F0D8018C9109952196095F1F4FC330D10541F6DF91CF911F910F912D
S284001A8008956A9A729A6B9A739A6C9A749A80E00895813039F0813018F0823031F404C0729808957398089574980895813041F0813018F0823069F408C08EB194E002C08EB198E089278EB908958EB190E189278EB908958091AE0280FF07C08091AE028E7F8093AE020E94FC0C8091AE0281FF07C08091AE028D7F8093AE020E94EA0B04
S284001B008091AE0282FF07C08091AE028B7F8093AE020E94F30B8091AE0283FF07C08091AE02877F8093AE020E94FC0B8091AE02882361F02FB7F8948091020390910303916090930303809302032FBF089588E3EBE9FBE0DF011D928A95E9F785E08093C60B8FE09CE060EF74E046E850E00E94AEB88CE69BE066E775E04FE250E00E944C
S284001B80AEB88AE69BE065EA75E042E050E00E94AEB883ED9BE067EA75E04CE350E00E94AEB88EEB97E0ECEAF3E0DF019C011D9221503040E1F70895A4E0B0E0E2EEFDE00C9423B8682F70E0660F771F660F771F6E5F794FCE01019644E050E00E94AEB869817A818B819C812496E2E00C943FB80E94A70D0E9421080895EF92FF921F934B
S284001C00CF93DF93182FEB01209761F00E94DC0DAC01183220F0CE010E94AEB803C0CE010E94C4B8DF91CF911F91FF90EF900895EF92FF92CF93DF93EB01209771F0883260F406C0CB01BE01A9010E94C4B805C00E94DC0D9C010097A9F7DF91CF91FF90EF900895CF93DF93EB010E94DC0D009711F479836883DF91CF9108950E94E70494
S284001C800895EF92FF920F931F93CF93DF9318C08FEA92E060E070E0AE010E9411128A85882359F4EA82FB820C831D838FEA92E0BE01A80197010E945910EB85FC8509958091AF029091B0020097D9F00E94A5147B018C01C091AF02D091B0028A819B81AC81BD81A8019701281B390B4A0B5B0B8E819F81A885B985281739074A075B074E
S284001D0038F6CDB7DEB7E6E00C943BB8CF93DF93EC01009771F0E091AF02F091B00206C0EC17FD0749F00190F081E02D3097C1F709C02FEF3FEF02C020E030E0C901DF91CF9108950E94A5149B01AC01198218826A837B838C839D838FEA92E0BE010E945910EACFCF93DF93EC010097D1F08091AF029091B0028C179D0749F08FEA92E084
S284001D80BE010E943012BC01009719F40AC060E070E08FEA92E0AE010E94111220E030E002C02FEF3FEFC901DF91CF9108958F929F92AF92BF92CF92DF92EF92FF920F930E94D7124B015C012091B20230E040E050E060E070E080E090E000E20E940C05282939294A295B290F91FF90EF90DF90CF90BF90AF909F908F9008950F931F9381
S284001E00CF93DF93EA018830F0F4082F10E0F801EE0FFF1FEF53FD4F208131812115310591F4613081F0209771F0611161500E94D614F801EE0FFF1FEF53FD4FD183C08320E030E002C02FEF3FEFC901DF91CF911F910F9108958830C0F4E82FF0E0EE0FFF1FEF53FD4F208131812115310569F09DB321E030E002C0220F331F8A95E2F79C
S284001E80922B9DBB20E030E002C02FEF3FEFC9010895FC018091B102882309F057C0309709F457C08481958120813181820F931F20E18130920708F04CC081E08093B10270939C0C60939B0CA5E9BCE086E001900D928150E1F7F999FECF80E090E017C0E091970CF091980CE80FF91F2091950C3091960CA9014F5F5F4F5093960C4093B6
S284001F00950C32BD21BDF89A20B5208301962091990C30919A0C8217930710F310929A0C1092990C8091D80284608093D8022FB7F8948091020390910303826090930303809302032FBF20E030E005C02EEF3FEF02C02FEF3FEFC9010895CF93DF93FC019B018091B102882309F063C0309709F463C06081718184819581860F971F40E181
S284001F808130940708F058C081E08093B102A5E9BCE086E001900D928150E1F730939C0C20939B0C2115310519F4C0E0D0E033C0CB0101969093960C8093950CE091970CF091980C4191F093980CE093970C8CE00E94A6168091990C90919A0C019790939A0C8093990C22C06091950C7091960CCB0101969093960C8093950CE091970CE4
S284002000F091980C4191F093980CE093970C84E00E94A61621968091990C90919A0CC817D90710F3F999FECF1092B10220E030E005C02EEF3FEF02C02FEF3FEFC901DF91CF91089581E09091B102913009F080E008958091990C90919A0C009751F41092B102E0919B0CF0919C0C309709F1099508956091950C7091960CCB0101969093C4
S284002080960C8093950CE091970CF091980C4191F093980CE093970C8CE00E94A6168091990C90919A0C019790939A0C8093990C0895A2E1B0E0EFE5F0E10C9413B89A878987DB012B873C874D875E87FC01E080F180E114F10409F497C1222433244B855C856D857E859A01AB0160E070E0CB0129833A834B835C836D837E838F839887B7
S284002100F88AEF86F701BA8BA98B02C01F01FC01E280F3800481158126813781408551856B857C858D859E856E157F058007910708F48FC060E070E0CB0157016801EE24FF248701622E6A0C77247394621608F07724932E9B0C88248394931608F08824790C55245394791408F055248528542E5C0C99249394541608F09924850C442417
S2840021804394851408F044249428052F0D0D11E0051708F010E0900EEE24E394901608F0EE241E2944244394161608F0442401E0171608F000E055245394181608F05524A62C7981A71A21E06A1408F020E0972D8A81981B81E0791608F080E0492F421B21E0941708F020E0822B282D9B81291B91E0821608F090E0522F581B81E0251792
S28400220008F080E0982B292DAC812A1B81E0921608F080E0E22EE91A91E02E1508F090E0892BB12FB81B8B2F91E01B1708F090E0242D291B922F21E0491608F020E0302F321B232F31E0021708F030E0142F052F95C039014A01AA24BB24650110950095F094E094E11CF11C011D111D722F7E1961E0271708F060E0872D8F1991E07816A6
S28400228008F090E0A82FA61B6A2F552453948A1708F055249529582C501A81E0851408F080E0B52DB91B9B2F442443945B1608F044248429292D211B31E0921608F030E0E22EE81A81E02E1508F080E0832B819551E0181608F050E0519541E0151608F040E0419521E0141608F020E0522E5194A72E2981A21A11E07A1508F010E0262F47
S2840023003A81231B31E0621708F030E0622F611B162F61E0211708F060E0362B692F7B81671B21E0961708F020E0062F031B91E0601708F090E0292B3E2D9C81391B91E0E31608F090E0E32EE21A21E03E1508F020E0922B682F691B91E0861708F090E0A52FA91B9A2F81E05A1708F080E0242F281B31E0421708F030E0862F531A69F54E
S284002380222359F5992349F5882339F5A989BA8916962D913D914D915C91199760E070E0CB01992321F51816C0F0882301F51716A0F07723E1F4161680F06623C1F4E51660F05E15A1F4041740F0401781F4131720F0311761F4A21650F480819181009709F094CE8F01A989BA891F0111C0EF84F8888F01A989BA89EE15FF0541F4119684
S284002400FC93EE93E985FA85B183A08306C0CF01F101B183A0838D939C936296E2E10C942FB8CF93DF93FC01DB01EA01808191814817590739F48881998119821882808391830BC08881998111969C938E93198218828C9111969C911197DF91CF910895DC01ED91FC91119706C0808191818617970719F0FC013097C1F7CF0108958FB791
S284002480F8941092B5021092B4021092B3028FBF08958091F50280FF0FC081E00E94D616809170008D7F809370000E943F128091F5028B7F8093F5020895809170008C7F809370008091B60080628093B6001092B2001092B0001092B1001092B3008091B60090E08F7190700097C9F783E087BB87E08093B1008091700081608093700045
S28400250008958091B60090E08F7190700097C9F7809170008C7F809370008091B100887F8093B10083B5826083BD8091B60090E08F7190700097C9F78091B6008F7D8093B60008959B01AC016091B200862F90E080959095AA2797FDA095BA2F9070A070B07082179307A407B50778F4281B390B4A0B5B0BBB27A52F942F832F9093B40224
S2840025808093B3022093B5020895260F8091B60090E08F7190700097C9F72093B30082E087BB809170008260809370000895EF92FF920F931F938FB7F8949091B6022091B20034E43093B4004091B60050E04F71507041155105C1F7B89904C030E040E050E009C02091B20030E040E050E021503F4F4F4F5F4F8FBF8FEF989FC0011124D4
S284002600AA2797FDA095BA2F820F931FA41FB51F9C01AD0175E0220F331F441F551F7A95D1F77C018D0162E016950795F794E7946A95D1F72E0D3F1D401F511FE090B702F090B8020091B9021091BA022E0D3F1D401F511F281B390B4A0B5B0BB901CA011F910F91FF90EF90089560E270E080E090E008958FB7F8946091B6021092B60258
S2840026808FBF70E080E090E020E43FE140E050E00E94B2B79B01AC018091B7029091B802A091B902B091BA02820F931FA41FB51F8093B7029093B802A093B902B093BA0282179307A407B50728F48091B2028F5F8093B20208951F920F920FB60F920BB60F9211242F933F934F935F936F937F938F939F93AF93BF93EF93FF93809170008C
S2840027008D7F809370001092B5028091F50280FF03C080E00E94D6168091F50282FF11C08091D50281608093D5022FB7F8948091020390910303826090930303809302032FBFFF91EF91BF91AF919F918F917F916F915F914F913F912F910F900BBE0F900FBE0F901F9018951F920F920FB60F920BB60F9211242F933F934F935F936F937F
S2840027807F938F939F93AF93BF93EF93FF938091B3029091B4020097A1F58091B5028823E9F48091F50280FF03C080E00E94D6168091F50282FF34C08091D50281608093D5022FB7F8948091020390910303826090930303809302032FBF22C08091B60090E08F7190700097C9F78091B5028093B30082E087BB80917000826080937000FC
S28400280009C08091B3029091B40201979093B4028093B3028091F50280FF02C00E9442178091B6028F5F8093B6028091D50282608093D5022FB7F8948091020390910303826090930303809302032FBFFF91EF91BF91AF919F918F917F916F915F914F913F912F910F900BBE0F900FBE0F901F90189580E197E29093A9008093A800E1EA1F
S284002880F0E088E08083808182608083E2E7F0E080818260808308959B01AC018091BD029091BE02A091BF02B091C002820F931FA41FB51F8093BD029093BE02A093BF02B093C0028091D90284608093D9022FB7F8948091020390910303826090930303809302032FBF08958FB7F8946091BC021092BC028FBF70E080E090E02AE030E09B
S28400290040E050E00E94B2B79B01AC018091BD029091BE02A091BF02B091C002820F931FA41FB51F8093BD029093BE02A093BF02B093C00282179307A407B50728F48091BB028F5F8093BB0208950E9474146091BD027091BE028091BF029091C00208951F920F920FB60F9211242F938F939F938091BC028F5F8093BC028091D902846053
S2840029808093D9022FB7F8948091020390910303826090930303809302032FBF9F918F912F910F900FBE0F901F90189570E0843068F54AB121E030E0082E02C0220F331F0A94E2F7922F909594239AB99BB1922B9BB990916900482F440F23E030E0042E02C0220F331F0A94E2F72095292320936900909169006370707002C0660F771F85
S284002A004A95E2F7962B909369002DC04DB121E030E0082E02C0220F331F0A94E2F7922F909594239DB99EB1922B9EB940916A00982F9450990F23E030E0092E02C0220F331F0A94E2F72095242320936A0020916A006370707002C0660F771F9A95E2F7262B20936A009CB321E030E002C0220F331F8A95E2F7922B9CBB08951F920F92AA
S284002A800FB60F920BB60F9211242F933F934F935F936F937F938F939F93AF93BF93EF93FF930E944912E091C102F091C2020995FF91EF91BF91AF919F918F917F916F915F914F913F912F910F900BBE0F900FBE0F901F9018951F920F920FB60F920BB60F9211242F933F934F935F936F937F938F939F93AF93BF93EF93FF930E94491255
S284002B00E091C302F091C4020995FF91EF91BF91AF919F918F917F916F915F914F913F912F910F900BBE0F900FBE0F901F9018951F920F920FB60F920BB60F9211242F933F934F935F936F937F938F939F93AF93BF93EF93FF930E944912E091C502F091C6020995FF91EF91BF91AF919F918F917F916F915F914F913F912F910F900BBE5B
S284002B800F900FBE0F901F9018951F920F920FB60F920BB60F9211242F933F934F935F936F937F938F939F93AF93BF93EF93FF930E944912E091C702F091C8020995FF91EF91BF91AF919F918F917F916F915F914F913F912F910F900BBE0F900FBE0F901F9018951F920F920FB60F920BB60F9211242F933F934F935F936F937F938F9366
S284002C009F93AF93BF93EF93FF930E944912E091C902F091CA020995FF91EF91BF91AF919F918F917F916F915F914F913F912F910F900BBE0F900FBE0F901F9018951F920F920FB60F920BB60F9211242F933F934F935F936F937F938F939F93AF93BF93EF93FF930E944912E091CB02F091CC020995FF91EF91BF91AF919F918F917F9133
S284002C806F915F914F913F912F910F900BBE0F900FBE0F901F9018951F920F920FB60F920BB60F9211242F933F934F935F936F937F938F939F93AF93BF93EF93FF930E944912E091CD02F091CE020995FF91EF91BF91AF919F918F917F916F915F914F913F912F910F900BBE0F900FBE0F901F9018951F920F920FB60F920BB60F9211242F
S284002D002F933F934F935F936F937F938F939F93AF93BF93EF93FF930E944912E091CF02F091D0020995FF91EF91BF91AF919F918F917F916F915F914F913F912F910F900BBE0F900FBE0F901F901895F999FECF07B600FCFDCF72BD61BD40BD9FB7F8948FBBF99A9FBF08951F920F920FB60F9211242F938F939F93FB988091D80284602A
S284002D808093D8022FB7F8948091020390910303826090930303809302032FBF9F918F912F910F900FBE0F901F9018959091F5028170880F9C7F982B9093F502E9E3F1E080818D7F80838091D90281608093D9022FB7F8948091020390910303826090930303809302032FBF08958091F50280FF48C08091A1008D7F8093A1008091D10268
S284002E009091D202A091D302B091D4020097A105B10551F40E94D7126093D1027093D2028093D3029093D4028091F50283FD02C00E94EC1FF999FECF8091F50288608093F5029091390192609093390182FF05C087E083BF889513BE0AC00E94811285E083BF889513BE0E945D120E940B1884E48093B4008091B60090E08F7190700097BC
S284002E80C9F708958091F50281608093F5028091B60090E08F7190700097C9F78091D90288608093D9022FB7F8948091020390910303826090930303809302032FBF80E090E008950E94D7122091D1023091D2024091D3025091D402621B730B840B950B1092D1021092D2021092D3021092D4020E944C148091A10082608093A1008091A0
S284002F0041018F718830D9F78091F502877F8093F5020E94E81F8091F50281FD07C0E091E602F091E702309709F009950895A0E0B0E0EDE9F7E10C9413B810E0C2E8DBE800E892E8692E9BE8792E812C912C82E8A82E8BE8B82E0E94EF042BE88338920718F16E01EE24FF249C0140E050E022583B4840405040C216D306E406F5064CF491
S284002F80123039F480916600815080936600000036C0209166002150209366000000EC01C258DB4811E028C02BE88238920739F16E01EE24FF249C0140E050E013012401221A330A440A550AC214D304E404F5044CF4113039F4809166008F5F8093660000000DC0209166002F5F209366000000E501C81BD90B12E0015009F0ACCFCDB7F5
S284003000DEB7E2E10C942FB80E94331D882311F40E9497170895CF93DF93C8E8D3E188EC0E94E7042197D9F70E940418DF91CF9108958091D90282FF0BC09FB7F8948091D9028B7F8093D9029FBF0E94410EA9C08091D50280FF0BC09FB7F8948091D5028E7F8093D5029FBF0E94A41F9AC08091D50281FF0BC09FB7F8948091D5028D7F22
S2840030808093D5029FBF0E943A138BC08091D90280FF0BC09FB7F8948091D9028E7F8093D9029FBF0E9462177CC08091D90283FF0BC09FB7F8948091D902877F8093D9029FBF0E94F5166DC08091D70286FF0BC09FB7F8948091D7028F7B8093D7029FBF0E94001C5EC08091D70287FF0BC09FB7F8948091D7028F778093D7029FBF0E9433
S28400310079194FC08091D80281FF0BC09FB7F8948091D8028D7F8093D8029FBF0E94AC1B40C08091D80282FF0BC09FB7F8948091D8028B7F8093D8029FBF0E94291031C08091D80280FF0BC09FB7F8948091D8028E7F8093D8029FBF0E944F1C22C08091D90281FF0BC09FB7F8948091D9028D7F8093D9029FBF0E94891B13C08091D90216
S28400318084FF0FC09FB7F8948091D9028F7E8093D9029FBFE0919D0CF0919E0C309709F009958091D502882381F48091D602882361F48091D702882341F48091D802882321F48091D902882361F02FB7F8948091020390910303826090930303809302032FBF0895CF93DF93E82FF0E0DF01A05CB04093E0B595A7959A95E1F7B0E0AA0F33
S284003200BB1FA652BD4F6D917C9111976115710599F14FB7F894EB012A813B81888199814FBF2817390729F12D913C911197E901288D398D280F391FE9013881019620812064208336830D90BC91A02D5A962D913C915B978217930711F480E090E02181206221832FB7F894FB01918380832FBF03C0818180648183DF91CF91089590E0C0
S284003280805C904033E0959587953A95E1F7E82FF0E0EE0FFF1FE652FD4FA081B1811097B9F090968C919097887191F42FB7F89418968D919C9119972FBF009749F00190F081E02D048CF58DE02D309709F00995089580EC0E94F218089580EC0E943F19089588EC0E94F218089588EC0E943F190895A3E0B0E0EFE7F9E10C941EB881E0F0
S284003300898306E010E0DD2452E0E52EF12CEC0EFD1E9091E10289818923B9F09FB7F8942091E102898182278093E1029FBF6D2D70E0660F771F625B784FC70142E050E00E94AEB8EA81FB810995D3948981880F898301501040E9F62396E7E00C943AB89091E10221E030E002C0220F331F8A95E2F7922B9093E1028091D702806880934E
S284003380D7022FB7F8948091020390910303826090930303809302032FBF0895CF93DF93C82FD0E0DE01A05CB040E3E0B595A795EA95E1F7B0E0AA0FBB1FA652BD4FED91FC911197309721F489818F77898335C080A183FD32C0C489D58984FF0AC06883ED91FC911197848995890196958B848B24C0209711F12681378186819781019619
S2840034009783868346815781868997894817590711F41782168246815781848195814817590719F43783268308C0C20FD31F688380859185019691878087DF91CF91089590E0805C904033E0959587953A95E1F790E0DC01AA0FBB1FA652BD4FED91FC911197309701F16FB7F89442815381208131816FBF4217530711F421E02287FC012F
S284003480EE0FFF1FE652FD4F0190F081E02D828D938D009711F4118E108E068CF78DE02D309709F00995089588EC0E94201A089580EC0E94201A0895E091E202F091E30287E0828380E98093BC008091D90282608093D9022FB7F8948091020390910303826090930303809302032FBF0895E091E202F091E3028281823031F08281833062
S28400350019F08281843019F48581880F06C08281853049F48581880F8F5F8093BB0085E88093BC0008950E945C1A0895E091E202F091E30220813181868197812817390780F480819181A085B185A80FB91F2C910196918380832093BB0085E88093BC00089586E0828384E98093BC008091D90282608093D9022FB7F8948091020390915F
S2840035800303826090930303809302032FBF0895E091E202F091E30283859485A585B6852081318121503040318320832081318143E0220F331F4A95E1F704C0B695A795979587952A95D2F78093BB0085E88093BC0080819181009741F48281823019F484E08283089585E082830895E091E202F091E3028281843019F40E94961A089555
S2840036008281823019F08281833019F40E94C81A08958281853021F485EA8093BC0008950E945C1A0895E091E202F091E30282818530A1F4868197818130910521F48091BC008F7B03C08091BC0080648093BC008091BC0085688093BC0008950E945C1A0895E091E202F091E3029281953011F520813181A085B185A20FB31F8C932F5F57
S2840036803F4F31832083208131818681978101972817390720F48091BC00806403C08091BC008F7B8093BC008091BC0085688093BC0008950E945C1A0895E091E202F091E3029281953011F520813181A085B185A20FB31F8C932F5F3F4F3183208386E0828384E98093BC008091D90282608093D9022FB7F89480910203909103038260FE
S28400370090930303809302032FBF08950E945C1A0895A091E202B091E3021F96ED91FC9150973097A1F012968C911297863049F48091BC0084FDFCCF81E012968C93129704C081E012968C9380E00995089581E012968C9312970895E091E402F091E5020284F385E02D309709F00995089523982B981CBC0895E091F902F091FA02268101
S2840037803781848195812817390769F0A48DB58D8481958101969583848384819581A80FB91F8C918EBD0895E091F902F091FA02309719F40E94B71B089542855385228533852F5F3F4F33872287228533852A30310511F41386128662857385208531856217730719F45387428708954156534FDA018C938485958501969587848708958B
S2840038002FB7F894E091F902F091FA02848595852FBF009731F005A0F6A1E02D309709F009950895ADE0B0E0E8E1FCE10C9423B8FC01009739F1848195819093E7028093E60280819181A281B3818F839887A987BA8781E08B871D861C86CE0101960E946B1F2FEF8F3F920781F02FEF8D3F920761F00E9442172FEF8F3F920749F42DEFC4
S2840038803FEF08C02FEF3FEF05C02EEF3FEF02C020E030E0C9012D96E2E00C943FB8A0E1B0E0E5E5FCE10C9420B80091F6021091F702D80112968C911297823029F08430C9F0882331F074C070E060E088E0F82E6BC080E090E0D8011396ED91FC911497E80FF91F208120933F0101968031910591F75EC010923C0180E010923E018F5F61
S2840039008031D9F780913C01806880933C0180913D0180FFFCCFFE013196CE014196DF0120913F012D93A817B907D1F7219120933F01E817F907D1F7C7CFF8018281823019F410923C0102C0F0923C01872F90E0AC01405F5F4F9C01D8011396ED91FC911497E20FF31FE081E0933E012F5F3F4F2417350789F720913C01206820933C01BD
S28400398020913D0120FFFCCF20913E01D8011396ED91FC911497E80FF91F208301968417950791F7705F6F5FF8018581681728F286EF92E00E94F01F8091F6029091F702009789F08091D80281608093D8022FB7F8948091020390910303826090930303809302032FBFD8011696ED91FC91179709956096E5E00C943CB88FB390E0FC0166
S284003A00E270F07081FDF9CF8FB7F89499E090935700E4918FBFEF70E23019F41092F80203C081E08093F8028FB7F8949091F802992349F45F9350E85093610050E0509361005F9108C05F9350E85093610051E0509361005F918FBF8091F802882311F40E940B1808958091F80208951F920F920FB60F920BB60F9211242F933F934F934B
S284003A805F936F937F938F939F93AF93BF93EF93FF93E1ECF0E080818F7D808380E00E94B019FF91EF91BF91AF919F918F917F916F915F914F913F912F910F900BBE0F900FBE0F901F9018951F920F920FB60F920BB60F9211242F933F934F935F936F937F938F939F93AF93BF93EF93FF93E1ECF0E080818F7B808381E00E94B019FF914A
S284003B00EF91BF91AF919F918F917F916F915F914F913F912F910F900BBE0F900FBE0F901F9018951F920F920FB60F920BB60F9211242F933F934F935F936F937F938F939F93AF93BF93EF93FF938091C0006091C6008C7131F480EC0E94CE1982E00E94B019FF91EF91BF91AF919F918F917F916F915F914F913F912F910F900BBE0F9007
S284003B800FBE0F901F9018951F920F920FB60F920BB60F9211242F933F934F935F936F937F938F939F93AF93BF93EF93FF93E9ECF0E080818F7D808383E00E94B019FF91EF91BF91AF919F918F917F916F915F914F913F912F910F900BBE0F900FBE0F901F9018951F920F920FB60F920BB60F9211242F933F934F935F936F937F938F9392
S284003C009F93AF93BF93EF93FF93E9ECF0E080818F7B808384E00E94B019FF91EF91BF91AF919F918F917F916F915F914F913F912F910F900BBE0F900FBE0F901F9018951F920F920FB60F920BB60F9211242F933F934F935F936F937F938F939F93AF93BF93EF93FF938091C8006091CE008C7131F488EC0E94CE1985E00E94B019FF91D6
S284003C80EF91BF91AF919F918F917F916F915F914F913F912F910F900BBE0F900FBE0F901F9018951F920F920FB60F920BB60F9211242F933F934F935F936F937F938F939F93AF93BF93EF93FF938091B90090E0887F90708832910569F1893291059CF48031910521F18131910534F4009729F18830910589F51BC088319105D9F08032A2
S284003D00910551F51AC088349105B9F0893491053CF48033910589F080349105E9F410C08035910581F088359105B1F411C00E94771A12C00E94F61A0FC00E945C1A0CC00E94131B09C08091BB000E94311B04C08091BB000E945D1BFF91EF91BF91AF919F918F917F916F915F914F913F912F910F900BBE0F900FBE0F901F9018951F9285
S284003D800F920FB60F920BB60F9211242F933F934F935F938F939F93AF93BF93EF93FF93E091E402F091E502838126813781882349F48081918140917900280F391FD9014C930EC0808191814091780050917900DC01AA0FBB1FA20FB31F11965C934E93019691838083E091E402F091E502208131818085918528173907B1F480917A0095
S284003E00877F80937A008091D80282608093D8022FB7F8948091020390910303826090930303809302032FBFFF91EF91BF91AF919F918F915F914F913F912F910F900BBE0F900FBE0F901F9018951F920F920FB60F920BB60F9211242F933F934F935F936F937F938F939F93AF93BF93EF93FF93DF93CF930F92CDB7DEB78EB589830E94CB
S284003E80BB1B89810E94D41B8091D70280648093D7022FB7F8948091020390910303826090930303809302032FBF0F90CF91DF91FF91EF91BF91AF919F918F917F916F915F914F913F912F910F900BBE0F900FBE0F901F901895CF93DF93EC01009741F10E9435132E813F81488559850E94B2B728EE33E040E050E00E94F1B7211531056C
S284003F0041055105C1F08091F50282FD17C084608093F502E8EEF2E08DE0099001928150E1F7CA01B9010E94A21220E030E008C02FEF3FEF05C02EEF3FEF02C02DEF3FEFC901DF91CF9108958091F50282FF24C09091F2029923B1F4E091F302F091F402309709F009958091F50282FF15C06091EE027091EF028091F0029091F1020E945F
S284003F80A21208958B7F8093F502E091F302F091F402309709F0099508959091B911913011F49093FB029091B911992379F491E0803809F090E0979599279795809144018F77892B8093440180E0089581E0089580E80E94CD1F089580E00E94CD1F0895FC01208131812115310539F0D9018D919C9111979183808302C020E030E0C9010A
S2840040000895FC0161157105A9F0A081B181A617B70739F48D919C9111979183808314C0DC01109749F08D919C91119786179707B9F704C080E0089580E00895FB018081918111969C938E9381E00895DC01ED91FC91119706C0E617F70739F00190F081E02D3097C1F780E0089581E008950F931F93CF93DF93EC018B010E942620F80161
S28400408011821082A881B981109721F41983088309C0DC018D919C9111970097D1F71196FC93EE93DF91CF911F910F910895A0E0B0E0EDE5F0E20C941BB8D82E7B0190E08C0123E0169507952A95E1F78770907021E030E002C0220F331F8A95E2F7C22EF801E450FD4F80818223C9F0C0910003D091010312C0FE01E00FF11F82818C2117
S28400410029F0EE81FF818D2DB701099598818981A92EE5015E01B82EE501209761F7CDB7DEB7EAE00C9437B890E0FC0133E0F695E7953A95E1F7E450FD4F208130E08770907041E050E002C0440F551F8A95E2F72423352381E02115310509F480E0089590E09C0143E0369527954A95E1F7620F731F8770907021E030E002C0220F331F4A
S2840041808A95E2F7FB019281922381E009F480E008951F93CF93DF93182FEB010E94B020882359F580E093E0BE010E942620882349F41A821B821C821D8280E093E0BE010E943720812F90E0FC0163E0F695E7956A95E1F78770907021E030E002C0220F331F8A95E2F7CE0FDF1F8A81822B8A83E450FD4F8081822B8083DF91CF911F9148
S284004200089580E090E061E070E09B01082E02C0220F331F0A94E2F740910203509103034223532341155105C9F06FB7F8944091020350910303209530952423352330930303209302036FBFFC01EE0FFF1FEF5FFD4F0190F081E02D099504C001968B30910599F6209102033091030381E02115310509F480E008950E94012108950E9498
S284004280D6B50E94AFA62FB7F8948091020390910303806190930303809302032FBF0895FC0180811092EF0CE091F00CF091F10C099508951092EF0C08958091430E80718093430E1092360F089523E830E13093601020935F10E091F30CF091F40CDC018C9109950895089521E030E002C0220F331F8A95E2F78091170290911802822B11
S284004300932B90931802809317022FB7F8948091020390910303806190930303809302032FBF08958091DA0C9091DB0C009799F08091DE0C9091DF0C009779F485EB91E29093DF0C8093DE0C81E08093DC0C84E00E94742108951092DC0C08951092DF0C1092DE0C0E9492210895E091DA0CF091DB0C882319F42EEF3FE302C023E830E143
S2840043803093601020935F10818B8BE08093DC0C84E00E9474210895E091F80CF091F90C80831092F90C1092F80C21813281CF01F901099583E00E9474210895E091FA0CF091FB0C80831092FB0C1092FA0C21813281CF01F901099583E00E947421089521E030E002C0220F331F8A95E2F720953095809117029091180282239323909388
S28400440018028093170208958093B10F882361F48091380F9091390F009719F082E00E94742181E00E947421089580E00E940422089580E00E940422089580E00E9404220895FC0180818093680F82E00E94042281E00E947421089580E00E9404220895CF93DF93DC01E091AF0FF091B00FEF01CC57DF4F8C9188838481833049F0863027
S284004480D1F08230F9F48C918823D1F484E019C08C918823A9F4868197818833910581F4818592852FEF883F920750F086A98E3F39F488E006C08C91882311F485E001C087E084831092B00F1092AF0F80E00E940422DF91CF9108958093D20F882319F481E00E9474210895EF92FF920F931F93CF93DF93C091380FD091390F07E01DE01A
S28400450025C02C818A819B81009799F42430B9F48E819F81FE01EC57FF4F8630910511F4108302C082E080830C8382E00E94742106C02250233018F401979B838A8398818981E92EE7017E01F82EE7012097C9F6CDB7DEB7E6E00C943BB8A8E0B0E0E3EBF2E20C9423B819821A821B821C821D821E821F821886CE0101960E94C98F8091DF
S284004580E00C8D7F8093E00C2896E2E00C943FB81F93182F1092DC0CE091DE0CF091DF0C0995112329F48EE060E070E00E9457201F910895882341F48EEF9FE39093601080935F1085E007C083E890E19093601080935F1084E060E070E00E9457200E94AE21089584E08093DC0C8091E10C81508093E10C8CED9CE02091DD0C2093B30CB0
S284004600FC01F1972091700B20832091710B21832091720B22832091730B23832091740B24832091750B25832091760B26832091770B2783E0E7FBE052914291329122912093B40C3093B50C4093B60C5093B70C22A52093B80C27E438E33093BB0C2093BA0CC3970E942190089581E261EE7CE00E94FD0D85E08093DC0C82E08093DD0CD7
S2840046800E94F222089580E094E09093601080935F1080E060E070E00E9457200E94352308950E94F22208958FE09DE00E94B20E0895A4E0B0E0EFE5F3E20C9423B880911E0D882319F189E1BE016F5F7F4F0E94FD0D89819A81AB81BC818093150D9093160DA093170DB093180D81E08093190D84E894E290931B0D80931A0D8FE09DE04C
S2840047000E94B20E8FE09DE00E94860E2496E2E00C943FB8CF93DF9382E00E94F0211092390F1092380F81E00E94F0211092B00F1092AF0F1092B10F8DE2E3EDFFE0DF011D928A95E9F7E0E0F0E18FE5DF011D928A95E9F7F093F60FE093F50F1092D20F8FEF8093730DCAE3DFE0CE010E94B20E1092440F84E792E29093460F8093450F88
S28400478080E890E0A0E0B0E08093400F9093410FA093420FB093430FCE010E94860EDF91CF91089583E08093DC0C80916C0B90916D0BA0916E0BB0916F0B8093D20C9093D30CA093D40CB093D50C8091960B8093D60C84E798E39093D80C8093D70C89EA9CE00E94938A089588E08093DC0C8091980B8093AB0C87EC9BE29093AD0C8093C9
S284004800AC0C89EA9CE00E9412A20895EF92FF92CF93DF930E94D70EE22EE7017E01F32E0E94DB52FC012081318182819381282739272E253F2584819581282739278681978128273927C901DF91CF91FF90EF900895FC0182819381009711F40E9406240E94A3B88BE690E10E94860E089580915F109091601095FF05C081E690E10E9409
S2840048807B5308950E9406240E94A3B88BE690E10E94860E08957093F40C6093F30C8093B30C8091890B8093B40C85E691E29093B60C8093B50C89EA9CE00E94F54D0895A6E0B0E0E6E6F4E20C9423B880E00E94CC2181E08093FC0C8091080DBE016F5F7F4F823011F48AE101C08BE10E94FD0D89EB94E29E838D83CE0101960E947F4E7A
S2840049002696E2E00C943FB880911D0D882399F480911E0D882379F010920B0D8DEC98E390930D0D80930C0D89E09DE00E94D4A581E080931D0D0895FC0180818823C1F48091080D823031F00E94A7A5882311F00E9495A51092FC0C8091FA0C9091FB0C009721F080E00E94DE2108950E94300608958091080D823059F48091070D8823A1
S28400498039F40E9484241092FC0C0E94300608958FEF9FEFAFEFB0E08093000D9093010DA093020DB093030D8CE994E29093050D8093040D8DEF9CE00E94435908952091080D223029F480911D0D882309F071C08091F80C9091F90C0097C9F180915F1087FF0FC00E949959882359F40E946BA5882339F40E94074E882319F481E090E0A9
S284004A0002C080E090E02091FC0C222311F080E803C0009721F484E00E94CC2108958091080D823049F48091070D882329F40E9454230E94602408951092000D1092010D1092020D1092030D8AE595E226C08091FA0C9091FB0C009761F18091FC0C882329F1223061F48091070D882341F40E9484241092FC0C80E00E94DE2108958FEF0B
S284004A809FEFAFEFB0E08093000D9093010DA093020DB093030D8CE994E29093050D8093040D8DEF9CE00E944359089580E80E94DE210895FC018081882329F40E949EA50E94602408950E94CC210895A0E0B0E0ECE6F5E20C941DB8C091380FD091390F62E0E62E54E0F52E17E001E0D2C08C81873028F4853058F5882339F0C3C0873042
S284004B00C9F1883009F0BEC01DC080915F109091601092FF0EC08091AF0F9091B00F009709F0B0C00C83D093B00FC093AF0F81E006C01C83FE01EC57FF4F108382E00E947421A0C0D093420EC093410E9BC0853011F4FC8201C0EC82FE01E858FF4F0190F081E02D309709F48DC0CE0186589F4F099588C088E39FE0BE010E9401208E81E7
S284004B809F8181309105C1F4FE01EC57FF4F8081882391F4DE01A357BF4FFE01EB57FF4F008111812281338144815581668177818D919C910E9450A0FE01E858FF4F80819181009709F454C08E819F818430910509F044C0CE0188579F4FFE01E257FF4F2081FE01EF55FF4F1081293088F4622F70E0660F771F695F7F4F680F791FFB0197
S284004C0010811A3008F019E0412F440F4F5F1EC0BC01675E7F4F2930C1F0223170F4622F70E0660F771F695F7F4F680F791F12E1121B412F440F4F5F02C040E010E0FE01E257FF4F29E0208301C040E0499650E00E94CDB8FE01EF55FF4F1083FE01E858FF4F0190F081E02DCE0186589F4F09958091380F9091390F009771F082E00E9410
S284004C8074210AC098818981C92EE6016E01D82EE601209709F02BCFCDB7DEB7E8E00C9439B8AAE2B0E0E7E5F6E20C9423B8843061F0853018F4882331F026C0853039F0863011F506C080E905C081E903C08FE801C08EE889838091830B9091840B9B838A838091780B9091790B98878F8380917A0B8E838091850B9091860B9D838C83A2
S284004D00CE0101960E942F06AA96E2E00C943FB8AAE2B0E0EEE8F6E20C9423B8813019F0883061F403C080E6898304C085E989837B836A83CE0101960E942F06AA96E2E00C943FB86093380D7093390D80933A0D90933B0D40933C0D8091360F813011F41092720D8AEE96E390933E0D80933D0D8FE19DE00E94838A08958091720D882359
S284004D8081F081508093720D6091380D7091390D80913A0D90913B0D40913C0D0E94A22608951092360F08951092580D8091730D8093590D85EE96E29093620D8093610D85E59DE00E944F590895CF93DF93EC018881882399F48091740D0E94FF8F80E163E77DE00E94180E8091730D0E94E98F8091730D80937A0B0E94F8400E94F58FB2
S284004E002091780B3091790B8217930779F4E091410EF091420E818592852FEF883F920728F087E0848382E00E9474218FEF8093730D8881882329F486E060E070E00E945720DF91CF910895EF92FF920F93DF93CF93CDB7DEB7AA970FB6F894DEBF0FBECDBF7B01823019F08330B1F519C0FB0122813381448155816681778180859185F1
S284004E8001E00E94FFA1882339F582E98983DE011296F7018BE001900D928150E1F718C0FB012281338144815581668177818085918500E00E94FFA1882371F083E98983DE011296F7018BE001900D928150E1F7CE0101960E942F06AA960FB6F894DEBF0FBECDBFCF91DF910F91FF90EF900895CF93DF93C5E3D2E080E0BE010E94C92097
S284004F0084E0BE010E94C92085E0BE010E94C92086E0BE010E94C920CDE2D2E082E0BE010E94C92083E0BE010E94C92087E0BE010E94C920C5E2D2E081E0BE010E94C92088E0BE010E94C92089E0BE010E94C9208CE0BE010E94C920DF91CF910895A8E0B0E0E5EBF7E20C9421B81092601010925F100E94F80D0E94DB52FC017081818165
S284004F8062815381448135812681978179838A836B835C834D833E832F839887872B862B852B842B832B822B892B49F48E010F5F1F4FC8010E949CB6C8010E94DE521092F40C1092F30C1092DC0C1092DB0C1092DA0C1092F50C1092EF0C1092F10C1092F00C1092F90C1092F80C1092FB0C1092FA0C1092FC0C8091080D823021F4109280
S2840050001E0D10921C0D0E9478270E94DE4D83E890E19093601080935F102FB7F8948091020390910303946090930303809302032FBF8BE690E10E94B20E81E08093751088EE93E0A0E0B0E08093711090937210A0937310B093741087E394E2909377108093761089E294E290936A10809369100E9437242896E4E00C943DB8ABE0B0E01C
S284005080E4E4F8E20C9423B8FC01808191819A83898382818B8383818C8384818D8385818E8386818F83878188878085898781858A8782858B8782E0BE016F5F7F4F0E9457202B96E2E00C943FB88CE167E07DE00E94FD0D80911E0D882359F48091070D882349F481E080931E0D0E94842480E0089580E8089580E808958091870B877018
S284005100823011F40E94652880E00E94C822089580911E0D882331F010921E0D0E94542380E0089580E80895A1E0B0E0EAE9F8E20C9423B82091F00C3091F10C2115310599F523EC39E23093F10C2093F00C6093F20C91E09093EF0C9091870B9770923029F469830E94882880E069811092AB0C1092AC0C1092AD0C1092AE0C1092AF0C2C
S2840051801092B00C1092B10C1092B20C8093B30C6093B40C8DE699E29093B60C8093B50C89EA9CE00E94C1902196E2E00C943FB8A1E0B0E0EEEDF8E20C9423B889830E94AE218981882361F48EEF9FE39093601080935F1085E060E070E00E9457200AC083E890E19093601080935F1081E060E00E9494282196E2E00C943FB8E091F50F46
S284005200F091F60FDF011196CF0109962D91222321F4A817B907D1F73AC08091EF0C882391F583E08093EF0C81818093AB0C82818093AC0C83818093AD0C84818093AE0C85818093AF0C86818093B00C87818093B10C80858093B20C818582958695869581708093B30C8185881F8827881F8093B40C8AE591E29093B60C8093B50C89EA18
S2840052809CE00E94C19080E00E94042208956185862F8295869586958370661F6627661F81700E949428EFCF8093F20C82E08093EF0C8091870B8770823011F40E9488280E94AD2280E591E29093AF0C8093AE0C89EA9CE00E94014E08951092EF0C8091F20C0E9454290895ABE0B0E0EAE7F9E20C9423B8FC0180915F1086FF34C0B08190
S284005300A1817281638154814581368127818B2F8A2B872B862B852B842B832B822B89F480852091F00C3091F10C21153105D9F423EC39E23093F10C2093F00C0E94542912C08EEF9FEF9A838983BB83AC837D836E835F83488739872A8783E0BE016F5F7F4F0E9457202B96E2E00C943FB80E948A230E945D218091870B8770823011F494
S2840053800E94882808950E945D210E948A238091F20C882389F18091DE0C9091DF0C009759F58AED92E29093DF0C8093DE0C8091870B87708150823068F480E094E09093601080935F1080E060E070E00E9457200E9435238091870B8770D9F480E094E09093601080935F1084E060E070E00E9457200E94D2230DC00E94B72983E890E1B0
S2840054009093601080935F1084E060E070E00E9457201092EF0C1092F10C1092F00C0895409117025091180241155105B1F180E090E061E070E09B01082E02C0220F331F0A94E2F7F901E423F523309711F1242735273093180220931702FC01EE0FFF1FE75EFD4F0190F081E02D09958091170290911802009789F02FB7F89480910203E7
S28400548090910303806190930303809302032FBF089501968630910571F608950F931F93CF93DF93EC018E8D9F8D97FF7DC020E88833920709F478C0E091380FF091390F6FC0AAA1BBA19C918581981709F064C08481823041F4868197818630910509F484C083E00AC0843009F056C0868197818630910509F47BC087E084838E85823078
S28400550069F4DF01A658BF4F1C92DF01A558BF4F8F85988911969C938E9327C0833029F5DF01A658BF4F81E08C93DF01A558BF4F89898C938A8911968C9311978B8912968C9312978C8913968C9313978D8914968C9314978E8915968C9315978F8916968C931697888D17968C93AF014D575F4F87E4DA011D928A95E9F728A139A12834CF
S284005580310510F027E430E06AA17BA1CA01A9010E94C4B882E026C090818181E92FF82F309709F08ECF25C08091D20F882309F500E010E16AA17BA148A159A1C8010E94C4B8F801BD978DE2099001928150E1F780E090E19093F60F8093F50F81E00E946C2281E00E94742104C086E086CF85E084CFDF91CF911F910F910895EF92FF92D2
S2840056000F931F93CF93DF93EC016091990B70919A0B6115710559F40E94EC8F7B018C010E947AA66E0D7F1D801F911F02C080E090E0E7E09695879577956795EA95D1F77B836A831C8288E39FE0BE010E94372082E00E947421CDB7DEB7E6E00C943BB8CF93DF932091430E25FF08C020612093430E9093110F8093100F3FC090930F0F2D
S28400568080930E0F8BE19CE29093BD0E8093BC0E83E190E090934B0E80934A0E8DEF9FEF90934E0E80934D0E0E94DB52FC01C8E7DEE080818093780E8181898382818A8383818B8384818C8385818D8386818E8387818F838091890B8093800E0E9426889093770E8093760E8091430E80628093430ECE01C4970E94FE2ADF91CF910895D1
S284005700A0E5B0E0E6E8FBE20C9423B8FC018081882369F48091870B877061F08091E00C81FD08C08DE798E20E94302B08C00E94C82205C01B86CE0101960E947D28C05BDF4FE2E00C943FB889E08093DC0C8091E00C81FF07C01092AE0C8EEA9CE00E94802B089580E89BE29093AD0C8093AC0C89EA9CE00E94FB4D0895FC018081882334
S28400578019F40E94A42B08950E94C8220895A1E0B0E0EDECFBE20C9423B8FC018081882309F58091870B877019F40E94A42B1CC08130D1F487E08093DC0C8091E00C81FF06C01982CE0101960E94BD2B0DC08DEB9BE29093B80C8093B70C89EA9CE00E945BA502C00E94C8222196E2E00C943FB8A1E0B0E0EEEFFBE20C9423B8883069F414
S2840058008091870B8770823019F40E94A42B0BC0813049F40E94F42306C089830E94AD2289810E94C8222196E2E00C943FB888E00E94F82B08952091430E2F7D2093430EE0910E0FF0910F0F309709F009958091430E84FF09C08F7E8093430E8091100F9091110F0E94302B08951F93182F28E330E830937E0D20937D0D82E080937F0D25
S2840058800E94F58F9093810D8093800D2DEB36E23093F00D2093EF0D1093A90D87E79DE00E94FE2A1F910895ACE4B0E0EAE5FCE20C9415B88091B10F823049F483E00E94042282EB9FE00E94E6400C94E536882311F00C94E5368091D20F813009F0AEC70E940422E2EBFFE080E2DF011D928A95E9F78091F10F9091F20F9C013F772F31DC
S284005900310508F066C4A091F50FB091F60F4091E10F4330D9F435962091E40F2093B70F2091E50F21832091E60F22832091E70F23832091E80F24832091E90F25832091EA0F26832091EB0F278308C02091E20F3091E30F3093B60F2093B50F4093B40F90689093C30F8093C20F27E63FE03093C80F2093C70F85E192E29093CC0F809380
S284005980CB0F8091C90F84628093C90F87E4F90111928A95E9F78C918093670F82E00E94042280E00E946C22E091F10FF091F20FE631F10508F039C7E951FF4F0C944AB8E090F50FF090F60F2091E20F3091E30F8091EC0F9091ED0F2817390759F1D70113962C91139714963C91149715964C91159716965C91169717966C9117971896BB
S284005A007C91189719968C9119971A969C910E94129E009779F0FC012081213011F0253049F4DC0111962C911197223019F460E00E9431908BE00E949420882309F1F7012381348145815681678170858185928529833A834B835C836D837E838F8398870E94129E009761F0DC018C91813011F0853031F48BE0BE016F5F7F4F0E94572028
S284005A80F70103811481258136814781508561857285818192810E9450A0C7C60091F50F1091F60F0E94DB52BC01C801019648E050E00E94B7B8009749F1D80111962C91119712963C91129713964C91139714965C91149715966C91159716967C91169717968C91179718969C910E94129EFC01009709F49AC68081813009F096C6848153
S284005B009581BFEF883F9B0728F08FC68091780B9091790B9093720F8093710FF80181818093690F828180936A0F838180936B0F848180936C0F858180936D0F868180936E0F878180936F0F80858093700F8CE090E09093C60F8093C50F8185813009F067C60E94DDA12091C50F3091C60F2E5F3F4F3093C60F2093C50F1092730FD80177
S284005B801A961C911A971093740F60E00BE11FC0609FA0011124FC01A081B181A40FB51F4C91413099F4611788F0E72FF0E0EE0FFF1FEB58F04F14964D915C911597518340837F5F7093730F2E5F3F4F6F5FDC0116964C911697641708F0B5C02F35310508F0B1C07091730F7A3090F2ACC00091F50F1091F60FF801818192812091780BCD
S284005C003091790B8217930769F10E941992FC01009709F40AC68081813009F006C6A08571856285538544853585268597858A2F872B862B852B842B832B822B892B09F4F4C5A093690F70936A0F60936B0F50936C0F40936D0F30936E0F20936F0F9093700F1BC00E94DB52FC0180818093690F818180936A0F828180936B0F8381809308
S284005C806C0F848180936D0F858180936E0F868180936F0F87818093700FD80111968D919C9112979093720F8093710F8CE090E09093C60F8093C50F13968C911397813009F0B6C50E94DDA12091C50F3091C60F2E5F3F4F3093C60F2093C50F1092730FF80114811093740F60E00BE11FC0609FA0011124FC01A081B181A40FB51F4C91EC
S284005D00413099F4611788F0E72FF0E0EE0FFF1FEB58F04F14964D915C911597518340837F5F7093730F2E5F3F4F6F5FDC0116964C911697641738F42F35310520F47091730F7A30A0F23093C60F2093C50F70C5E091F50FF091F60F84E090E09093C60F8093C50F80918F0B9091900B21813281822393237EC1E091F50FF091F60F81E1CD
S284005D8090E09093C60F8093C50F8181928190936A0F8093690FABE6BFE0E7E8FBE08DE001900D928150E1F743C5E091F50FF091F60F86E090E09093C60F8093C50F8181928190936A0F8093690F8091940B80936B0F8091950B80936C0F2AC5E090F50FF090F60F00E010E00AC0D8011396ED91FC9114979081F7018381981731F0C80123
S284005E000E94AC438C01009781F785E090E09093C60F8093C50FD70111968D919C91129790936A0F8093690F10926B0F0115110509F47BC0D8011396ED91FC911497808180936C0F1396ED91FC9114978181928190936E0F80936D0F1396ED91FC911497838194819093700F80936F0F1396ED91FC91149795819F708091710F807F892B45
S284005E808093710F1396ED91FC9114979581907F8F70892B8093710F86E080936B0F1396ED91FC91149786818093720F1396ED91FC911497C680CC0CEC2CFF2423E73FE067817085C9014C2D50E00E94C4B88C2D895F80936B0FD8011396ED91FC911497818597012D58304FF901819313960D90BC91A02D19960C911997000F1A966C91D6
S284005F001A971B967C91CF01402F50E00E94C4B820916B0F2F5F200F20936B0F8091C50F9091C60F820F911D77C082E82FC084E88093680F0E94268890936A0F8093690F10926B0F86E090E067C0E091F50FF091F60F8091870B84FF12C085E190E09093C60F8093C50F8181928190936A0F8093690F8FE16BE67FE00E94FD0D59C482E0AC
S284005F8090E09093C60F8093C50F84E88093680F4FC49091F50F8091F60F2091870B24FF36C0092F182F84E090E09093C60F8093C50FD80111968D919C91129790936A0F8093690F13968C911397813118F080E113968C93F801838190E020E130E0281B390BA8014C5F5F4F480F591FCA0160E270E0A9010E94DFB8B8016D5F7F4F8FE1B4
S2840060000E94180E84E98F8FCE014F960BC484E88093680F82E090E09093C60F8093C50F07C40091F50F1091F60F10926B0F80E090E00FC0E22FF0E0E459F04FDC0113964D915C911497DA013C9130832F5F20936B0F0E94AC4320916B0F009759F7822F90E005969093C60F8093C50FF8018181928190936A0F8093690FDAC3A090F50F2A
S284006080B090F60F8091780B9091790B90936A0F8093690FD50115969C90159716E0E12EF12CEA0CFB1C892D90E0880F991FE80EF91EF701C1907F0110926B0F00E010E0A6E06A2E712C6A0C7B1CDD24CC0CDD1CCE0CDF1C6FC0D8011396ED91FC911497D50113966D917C911497818192810E949B43882309F45EC09301882429C0F901AE
S284006100619171919F01D8011396ED91FC911497468080E090E0552418C0A781B085A80FB91F4D915C91119702964617570761F480916B0FA82FB0E0A459B04F90819C938F5F80936B0F36C05394541430F383948914A8F227012BC0F201419151912F01F801A381B48119967C91199780E090E060E01BC01A962D913C911B97280F391FF2
S284006180F9012081318102962417350769F420916B0F822F90E08459904F3C91DC013C932F5F20936B0F03C06F5F671718F34C145D0491F6C8010E94AC438C01009709F08ACF80916B0F882309F430C390E0059623CFA901415250404230510508F0B2C00091F50F1091F60FEE24E3948132910509F0EE2482E00E94042280E00E946C227F
S284006200F8018181898782818A8783818B8784818C8785818D8786818E8787818F878085888B8185898B828593859B8B8A8B84858C8B813029F4858596859E8B8D8B25C0D80155968C9155978D8F1D968C911D978D8B1E968C911E978E8B1F968C911F978F8B50968C915097888F51968C915197898F52968C9152978A8F53968C915397F1
S2840062808B8F54968C9154978C8FCE010996EE2019F00E946E4002C00E94C1408E8D843A59F0853A18F4882359F0C2C2863AA1F08E3A09F0BDC202C088E80FC08CE80DC0C80101961092680FEE2019F00E94310606C00E94320603C080E88093680F82E08093B40F8091E20F9091E30F9093B60F8093B50F8091F10F9091F20F90689093E8
S284006300C30F8093C20F87E69FE09093C80F8093C70F82E090E09093C60F8093C50FE091F50FF091F60F80818093670F89E192E29093CC0F8093CB0F8091C90F84608093C90F76C2205330402930310508F070C2A091F50FB091F60F4091E10F4330D9F435962091E40F2093B70F2091E50F21832091E60F22832091E70F23832091E80F1B
S28400638024832091E90F25832091EA0F26832091EB0F278308C02091E20F3091E30F3093B60F2093B50F4093B40F90689093C30F8093C20F27E63FE03093C80F2093C70F8091C90F84628093C90F87E4F90111928A95E9F78C918093670F82E00E94042280E00E946C228091F10F9091F20F8633910509F459C18733910540F4813391059E
S28400640079F08433910509F010C241C18833910509F477C1F0E888339F0709F006C2F8C1E090F50FF090F60F8091870B8770823008F01CC10E94DDA18C01D70111968C91119780936A0F40E050E0EE24EBE16E2E76E1872E912CF5C0B62D5B9FC0011124D801ED91FC911197E80FF91F2081223018F0233009F0E4C020916A0FE21608F405
S284006480DEC0433008F0DBC0A42EBB24A89C6001A99CD00CB89CD00C112496012755334FD901AD53BD4F60896C93618911966C931197628912966C931297638913966C931397648914966C931497658915966C931597668916966C931697678917966C936BEC462E62E0562E420E531ED801ED91FC91E80FF91F6085D2016C936185119612
S2840065006C931197628512966C931297638513966C931397648514966C931497658515966C931597668516966C931697678517966C93B3ED4B2EB2E05B2E420E531ED801ED91FC911197E80FF91F64817581F20171836083F601E258F04F6D917C91680F791FDB0111967C91737060816C7F672B6083D801CD90DC90C80ED91ED6015A96FD
S2840065807C917170770F770F637F672B6083D801CD90DC90C80ED91ED6017C9177707295707F6770672B60830894A11CB11CA89C6001A99CD00CB89CD00C1124E9E6FFE0CE0EDF1EF801A081B181A80FB91F5A966C9166956170D6016C93A7EDCA2EA2E0DA2EC20ED31E0190F081E02DE80FF91F608DF6016083D8016D917C91860F971F9C
S2840066002C962FAF2C972D963FAF2D972B964FAF2B972A965FAF2A970E94E0A12C962FAD2C972D963FAD2D9728523D4FF90180832B964FAD2B974F5F2A965FAD2A97E3945F5FD80116968C911697581708F404CFE092690F40936B0F86E1489FA00111244B5F5F4F5093C60F4093C50F8091870B8770823049F482E090E09093C60F80933F
S284006680C50F84E88093680F8DE192E208C082E090E09093C60F8093C50F8EEF98E29093CC0F8093CB0FC4C082E090E09093C60F8093C50F8CE292E29093CC0F8093CB0F8091870B87708230A0F4E091F50FF091F60F81818093AB0C81E292E29093AD0C8093AC0C89EA9CE00E9412A281E00E9404228091870B8770823009F099C080E8F3
S28400670045CC0091F50F1091F60FF801C180D280E380F48080E00E940422E091F50FF091F60F80818093370FD80116968C9116978093740D15968C9115978630E0F416968C911697882309F45CC09091360F992309F06EC081508093720D82E08093360F11966D917D918D919C91149715964C910E94A2265DC08E3F81F58091730D8F3F0D
S28400678009F056C020E001C0232F322F3F5FD701C601022E04C0B695A795979587950A94D2F780FFF1CF2093730D0E94EC8F60936B0D70936C0D80936D0D90936E0D81E080936F0D84ED96E29093710D8093700D85E69DE00E94860E2BC08F3F91F4F80181819281A381B48180936C0B90936D0BA0936E0BB0936F0B878190850E94FA8F66
S28400680017C083E08093360F80E80E94352C10C00091F50F1091F60F0F5F1F4F80E00E940422C8010E942F0603C080E00E9404228091B10F823009F0C8C2C4C28091AF0F9091B00F009709F4C0C281E00E940422F2EBEF2EFFE0FF2E80E2D7011D928A95E9F780E392E29093CC0F8093CB0FE091AF0FF091B00F268137813F7782E02C96AA
S2840068802FAF2C972D963FAF2D970E9404220091AF0F1091B00FF801EC57FF4F10822C962FAD2C972D963FAD2D972F31310508F07BC082E08093B40FD8011696ED91FC911797E631F10508F039C2E350FF4F0C944AB88BE090E05FC18AE090E09093C60F8093C50F8DEF9FEF9093B60F8093B50F7FC184E090E09093C60F8093C50FD8016B
S284006900D2968D919C91D3979093B60F8093B50F15C282E090E09093C60F8093C50F8DEF9FEFF2CF83E090E008C082E090E0E3CF83E190E0E0CF82E090E09093C60F8093C50FF80182A993A9DFCFF801F296D801D6968C91D697880FA75BBF4F4C91440F90E050E09C01240F351F2A5F3F4F3093C60F2093C50FD801D2962D913C91D3972B
S2840069803093B60F2093B50F2091C90F20642093C90F0596BF01695E7F4F4F5F5F4F8E0F9F1F0E94CDB8CAC1C90181978230910508F046C085E190E09093C60F8093C50FF8018085882351F482E08093B40F818592859093B60F8093B50F27C083E08093B40FF7013596D80119968C9119978093B70F1A968C911A9781831B968C911B97B0
S284006A0082831C968C911C9783831D968C911D9784831E968C911E9785831F968C911F97868350968C9150978783F80185AD813009F07FC18091C50F9091C60F0797D0C0205330402930310508F078C182E08093B40FD80116968D919C9117978633910509F497C08733910540F48133910579F08433910509F062C10DC08833910509F411
S284006A8092C0B0E888339B0709F058C1B5C081E090E081C0B8016E5C7F4FC801099648E050E00E94B7B80097C1F4D801D2961C92D297D3961C92D397D4961C92D497D5961C92D597D6961C92D697D7961C92D797D8961C92D897D9961C9289E090E09093C60F8093C50F83E08093B40FD8011996EC9119971A967C911A971B966C911B9736
S284006B001C965C911C971D964C911D971E963C911E971F962C911F9750969C9150978E2F872B862B852B842B832B822B892B07EB1FE059F0E093B70FF8017183628353834483358326839783F9C00E94DB52FC0180818093B70F8181D80111968C931197828112968C931297838113968C931397848114968C931497858115968C931597B1
S284006B80868116968C931697878117968C931797D5C082E090E09093C60F8093C50FF80181859285B1CED801D7968C91D7978F5FD7968C93D79719968D919C911A979093B60F8093B50F86E090E09093C60F8093C50FD6968C91D6978F3F39F489E090E09093C60F8093C50FA4C08E3F09F0A6C08091C90F8064A0C0E090750DF090760D81
S284006C000E940490F80190AF87AB0E940E90D801DA969C938E93D9970E941890F80182A98823A9F5F70181819281A381B48180959095A095B0952091380D3091390D40913A0D50913B0D82239323A423B523F80183AB94ABA5ABB6ABD70115968C91159783AF20E00DC0822F90E0F801E80FF91F8E0D9F1DDC0116968C91169784AF2F5F27
S284006C80F7018581281778F3282F265F0BC0D801D3961D921D921D921C92D697DB961C92DB972AE08091360F813041F482E08093B40F8091800D9091810D33C08250823028F48091370FF80181AB2FC08091E10F8093B40F833009F58091E40F8093B70F8091E50F8093B80F8091E60F8093B90F8091E70F8093BA0F8091E80F8093BB0F8F
S284006D008091E90F8093BC0F8091EA0F8093BD0F8091EB0F8093BE0F08C08091E20F9091E30F9093B60F8093B50F2093C50F1092C60F8091C90F84608093C90FE091AF0FF091B00F868197819093C30F8093C20F8331910559F08833910541F020E88833920721F060E88032960711F423E001C022E024832091C50F3091C60F2115310588
S284006D8051F487E084831092B00F1092AF0F80E00E94042217C02F5F3F4F3093C60F2093C50F9F012F5C3F4F97FD08C08091AE0F81AB8F5F8093AE0F81A985833093C80F2093C70F81E00E947421C45BDF4FE0E10C9431B89093760D8093750D80E00E94352C0895A5E0B0E0E8EFF6E30C9422B80E94E38F182F81E08B8386E3BE016C5F58
S284006E007F4F0E94FD0D87E160E77BE00E94FD0D8DE1BE016F5F7F4F0E94FD0D8EE1BE016E5F7F4F0E94FD0D8CE1BE016D5F7F4F0E94FD0D2C813D8130938B0B20938A0B212F277089818170880F880F880F88701092930B90E49093880B9A8191709295907F822B892B8093870B8BE680938C0B2FE530E030938E0B20938D0B3093920BCE
S284006E802093910B1092900B10928F0B8091950B8F70806C8093950B2B81222311F091E001C094E08091950B807F892B8093950B8091940B8F7080678093940B8091890B8E7F8093890B81E0123009F480E0982F990F8091890B8D7F892B9091950B9F70913011F4846001C08B7F8093890B123019F4822F817001C081E0982F990F990F3C
S284006F00990F8091890B8778892B80688093890B112331F480E490E09093900B80938F0B2596E3E00C943EB8CF93DF93C091DA0CD091DB0C8091DC0C813021F08B3009F07FC046C080915F1080FF40C00E94F2368091700B9091710B892B9091720B892B9091730B892B9091740B892B9091750B892B9091760B892B9091770B892B21F414
S284006F800E942B88882321F082E08093DD0C02C01092DD0C8091870B87708150823028F481E261EE7CE00E94FD0D0E94C2A58093E00C9091890B9F7B9093890B92E09093DC0C60E878E30E944B243AC080E8898B80917A0B8A838091780B9091790B9C838B838091850B9091860B9E838D838091700B8F838091710B88878091720B898743
S2840070008091730B8A878091740B8B878091750B8C878091760B8D878091770B8E878091830B9091840B988B8F878AED9CE00E94F01FEA89FB89CE01029609950E94AE21DF91CF9108950E94B38F9093860B8093850B0E94E68F80937A0B0E94B88FE5E8FBE07597208331834283538364837583868397830E9426889093790B8093780BC9
S2840070800E94AE8F9093840B8093830B0895CF93DF93EC018881882341F40E94233886E08093DC0C0E94172C1CC08091E10C882399F082E268EE7CE00E94FD0D81E08093EC0C81E593E29093EE0C8093ED0C82EE9CE00E94860E05C00E94AD2288810E94C822DF91CF910895FC018081882329F40E9423380E94F42308950E94C8220895F3
S28400710080E094E09093601080935F100E94B7298091E00C81FF14C00E9423380E9495A58091870B877019F40E94F42308958150823090F486E08093DC0C0E94172C08958091870B877019F40E94D22308958150823010F40E94F22208958091DE0C9091DF0C0097C9F488ED98E29093DF0C8093DE0C8091870B8770823011F40E948828E1
S2840071800E94AD2283E493E29093AF0C8093AE0C89EA9CE00E94014E089510921D0DFC018081882329F410921C0D0E9484241CC08B3E19F410921C0D07C080911C0D8F5F80931C0D833018F40E9459230DC08091F80C9091F90C009719F084E00E94CC2110921C0D0E94AD3883E00E9474210895CF93DF93EC0180915F1086FF4FC08A81E5
S284007200803109F1813130F4893051F08F3009F045C02FC0833139F1853109F03FC039C08091430E982F9F5F9F70807F892B8093430E982F9F70933089F5807F8093430E0E94AD382BC0888199819093790B8093780B86E060E070E00E94572080E090E00E94302B1BC08091430E807F8093430E15C00E94B38F9093860B8093850B88812F
S28400728099819093790B8093780B86E060E070E003C06881798188E00E945720DF91CF91089580911903982F9F5F909319030895DC01ED91FC911197909331118093301110921D1110921E118091080380932211209188103091891083899489B9010E94DDB7462F6093201183899489B9010E94DDB7009719F04F5F409320118FEF90E0E0
S28400730000906B0B02C0880F991F0A94E2F780958E7F80931F110E945139809321110895FC01878983FF0AC081E090E0238934892036310528F480E090E0089580E090E00895CF93DF934091781020917D1030917E1090E058C0F901225A3F4F578150FD51C0DF01AA5BBF4F11961C921E928230C1F0823018F0833009F048C090917C1000
S28400738020917A10921708F041C09F5F90937C10138214821582168290859F709087128228C020917B1090917910291778F530917F10A0918010B091811090E014C0ED014C919396442371F42F5F20937B1021E02883DF01AA5BBF4F68961196DC93CE93228303C09F5F931750F320917F10291769F09085907F9087880F81608783118217
S284007400108206C09F5F941708F4A5CFE0E0F0E0CF01DF91CF91089520917D1030917E10821B930B6EE570E00E94DDB7EEE56E9FF0011124E20FF31F8781869590E08230910571F0833091051CF08330910539F580917C10882319F1815080937C101FC080917B10882319F0815080937B102091801030918110DF01AA5BBF4F8D919C91E6
S284007480821B930B63E270E00E94DDB7A3E26A9FD0011124A20FB31F8C9181111C9287818E7F8783089521E030E002C0220F331F8A95E2F780910703822B809307032FB7F8948091020390910303806290930303809302032FBF0895CF93DF93EC01009729F16B8F4115510551F0FA0180819181A281B3818C8F9D8FAE8FBF8F04C01C8EC3
S2840075001D8E1E8E1F8EE98DFA8D309719F0CE014B960995CE010E949039882339F0109231111092301181E00E94533ADF91CF9108951F9380911A03815080931A03809182108330C9F110911C111123A9F181E08093821060916B0B70E061507040882777FD8095982F2AE030E040E050E00E94B2B720912E0330912F034091300350913C
S2840075803103620F731F841F951F2091080330E040E050E00E94B2B760938A1070938B1080938C1090938D10115010931C1189E093E00E94DCAC0AC01092821010928A1010928B1010928C1010928D101F910895A1E0B0E0EEEEFAE30C9421B88C0184E393E069830E94F01F6981D80117966C9317971596ED91FC911697C80107960995F4
S2840076008091340390913503009719F080E00E94533A2196E4E00C943DB820911A032F5F20931A030E940E910895AF92BF92DF92EF92FF920F931F93DF93CF930F92CDB7DEB78C015B01FB01E05BFF4F81ED9CE391838083FB01EE5BFF4F82E08083FB01ED5BFF4FD80113968D919C91149791838083FB01E65BFF4F58968C915897808311
