:100000000C94F5000C9414010C9414010C9414013C
:100010000C9414010C9414010C94860C0C9414018F
:100020000C9414010C9414010C9414010C941401FC
:100030000C9414010C9414010C9414010C941401EC
:100040000C9414010C9414010C9414010C941401DC
:100050000C9414010C9414010C9414010C941401CC
:100060000C9414010C947C060C9414010C94A806B6
:100070000C9414010C9414010C9414010C941401AC
:100080000C9414010C9414010C9414010C9414019C
:100090000C9414010C9414010C9414010C9414018C
:1000A0000C9414010C9414010C9414010C9414017C
:1000B0000C9414010C9414010C9414010C9414016C
:1000C0000C9414010C9414010C9414010C9414015C
:1000D0000C9414010C9414010C9414010C9414014C
:1000E0000C9414010C94E3070C94ED070C94B807DE
:1000F0000C9437070C9462070C94F7070C940C07C8
:100100000C948D070C940F0C0C94220C0C9414017D
:100110000C9414010C9414010C940B080C94010819
:10012000F20D090E940E170E940EEB0DF90D940EB0
:10013000940E940E940E940EBA0D940E940E940E8A
:10014000940E940E940E290E940E940E570E5B3757
:10015000D83741378C37E837F537F537F037E2379E
:10016000F5378C373C37243704030302020100FFC4
:10017000FEFDFCFBF9F7F4EF1122081A381BD92C0D
:10018000EA2EA9287C33EF300C3181309838293C95
:100190000000A43DEF33213F571FF11E691F861F4A
:1001A000771F432009209D1F000000006B20A62020
:1001B000B91FE3205A20C8208C209920D6207F2008
:1001C000080101010101010101040108020101010D
:1001D0000102010102010201010201020201010109
:1001E0000101040101010201010011241FBECFEF32
:1001F000D1E4DEBFCDBF12E0A0E0B2E0ECEBF0E96D
:1002000000E00BBF02C007900D92A831B107D9F7EB
:100210002CE0A8E1B2E001C01D92A839B207E1F7D5
:100220000E9493430C945C480C940000EF92FF9260
:100230000F931F93CF93DF9300D0CDB7DEB79A8390
:10024000898385309105B4F401969A83898362E0AD
:1002500081E090E00E94400CCE0101967C0106E115
:1002600011E020E040E553EC60E070E08CE00E949B
:10027000200A08C060E081E090E00E94400C8CE021
:100280000E945D0B0F900F90DF91CF911F910F9106
:10029000FF90EF90089510925D0210925C02109210
:1002A000590210925A0210925B02EFE3F2E01192AF
:1002B000119222E0E935F207D1F7E5E2F2E08FEFA3
:1002C0009FEF8193919322E0EF33F207D1F78FEF05
:1002D0009FEFAFEFBFE780931D0290931E02A093A4
:1002E0001F02B09320028093210290932202A093D8
:1002F0002302B09324020895CF92DF92EF92FF92EF
:100300000F931F93CF93DF9380915D02873031F479
:1003100086E080935D021092040211C0811106C034
:1003200081E080935D028093040209C090910402F1
:10033000992311F08F5F01C0815080935D028091FD
:10034000030290E031E04EEF9330B8F4E92FF0E093
:10035000E75AFD4F20812F3F19F4408380E00BC006
:10036000211103C0308381E006C0882311F02F5F84
:1003700001C0215020839F5FE7CF80930302A091AB
:100380000202B0E041E050E06EEF73E0BD3030F5C6
:100390008B2F90E0880F991FFC01E15CFD4F2081BD
:1003A00031812F3FC3E03C0721F471836083A0E0DB
:1003B00013C02115310521F451834083A1E00CC005
:1003C000AA2319F02F5F3F4F02C021503109FC01D1
:1003D000E15CFD4F31832083BF5FD8CFA093020241
:1003E0006091010270E04EEF5FE77D3038F5872FB6
:1003F00090E0880F991FFC01EB5DFD4F208131815A
:100400002F3FAFE73A0721F45183408360E014C0E7
:100410002F3FCFEF3C0721F41182108261E00CC026
:10042000662319F02F5F3F4F02C021503109FC01B4
:10043000EB5DFD4F318320837F5FD7CF6093010257
:10044000E0900002F12C40E050E060E070E80EEF38
:100450001FEF2FEF3FEF81E08F15B8F1E4E0FE9E34
:1004600060011124E601C35EDD4F88819981AA8174
:10047000BB818F3FEFEF9E07AE07BE0731F40883C5
:1004800019832A833B83E12C1EC08F3FEFEF9E0729
:10049000AE07EFE7BE0739F4488359836A837B834D
:1004A000EE24E39410C0EE2021F00196A11DB11DB1
:1004B00003C00197A109B109F601E35EFD4F8083F6
:1004C0009183A283B383F394C6CFF0921C02E0928F
:1004D0000002DF91CF911F910F91FF90EF90DF907D
:1004E000CF9008958F929F92AF92BF92CF92DF925A
:1004F000EF92FF920F931F93CF93DF93EEE5F2E01D
:10050000119202E0E538F007D9F791E490935E028A
:10051000813009F492C0E8F0823009F064C182EFC2
:1005200080935F0280901D0290901E02A0901F0297
:10053000B09020024091210250912202609123024A
:1005400070912402C0E6D2E0E4E6F2E020E030E080
:100550001BC180EF80935F02EFE3F2E0A0E6B2E020
:10056000808132968D9312E0E935F107C9F78091C9
:1005700046028370909140029295990F990F907C5A
:10058000892B9091420293709295907F892B909144
:1005900044029370990F990F892B80936D0280917B
:1005A0004E028370909148029295990F990F907C1A
:1005B000892B90914A0293709295907F892B90910C
:1005C0004C029370990F990F892B80936E02809142
:1005D00056028370909150029295990F990F907CDA
:1005E000892B9091520293709295907F892B9091D4
:1005F00054029370990F990F892B80936F02809109
:1006000058028295880F880F807C90915D02990F27
:10061000990F990F892B80937002909139028091E4
:100620003A029093710280937202809159028093F2
:1006300073028AE580937402D6C081EF80935F02D3
:10064000EFE3F2E0A0E6B2E0808132968D9382E0A3
:10065000E735F807C9F78091460283709091400210
:100660009295990F990F907C892B909142029370EB
:100670009295907F892B909144029370990F990FD6
:10068000892B80936C0280914E0283709091480276
:100690009295990F990F907C892B90914A029370B3
:1006A0009295907F892B90914C029370990F990F9E
:1006B000892B80936D028091560283709091500235
:1006C0009295990F990F907C892B9091520293707B
:1006D0009295907F892B909154029370990F990F66
:1006E000892B80936E02E5E2F2E0CFE6D2E0A3E749
:1006F000B2E090818181329699938D9392E0ED32B0
:10070000F907B9F790912D0280912E02909377020C
:1007100080937A0290912F02809130029093780218
:1007200080937B0290913102809132029093790202
:1007300080937C02909133028091340290937D02E9
:1007400080938002909135028091360290937E02D0
:1007500080938102909137028091380290937F02BA
:1007600080938202809159028093830220913B0200
:1007700090913C022093840290938502809386029C
:100780008AE5809387022FC075016401022E04C0A0
:10079000F594E794D794C7940A94D2F7C9927A0152
:1007A0008B01022E04C015950795F794E7940A94DF
:1007B000D2F7E192285F3F4F2032310529F780912F
:1007C0005C028F708093680290913D0280913E029E
:1007D0009093690280936A0280915A0280936B021F
:1007E0008AE580936C02DF91CF911F910F91FF906A
:1007F000EF90DF90CF90BF90AF909F908F90089533
:10080000813039F020F0823031F48FE005C087E18B
:1008100003C08AE201C08FEF80931B0280911B020C
:100820008F3FC9F010921A02E0911A0280911B02C8
:10083000E81788F46091900C7091910CF0E0E25A06
:10084000FD4F808190E00E94A34680911A028F5F45
:1008500080931A02E9CF0895CF93DF9300D0CDB7EC
:10086000DEB7811109C019821A82BE016F5F7F4F06
:1008700083E50E94504203C081E00E9422420F9013
:100880000F90DF91CF9108950F93CF93DF931F9235
:10089000CDB7DEB7811135C0633539F481E0898386
:1008A000BE016F5F7F4F81E417C0613439F481E08E
:1008B0008983BE016F5F7F4F82E50EC0623539F4D8
:1008C00081E08983BE016F5F7F4F86E405C0663497
:1008D00031F465E072E085E40E94504215C0653451
:1008E00081F48091880290918902892B69F400E05B
:1008F00021E040E058EF6FEF77E081E00E94BC42DA
:1009000003C081E00E9422420F90DF91CF910F91AE
:100910000895AF92CF92EF920F93A12CC12CEE24A9
:10092000E39404E024E040E064E18EEB9AEB0E9463
:10093000F4420F91EF90CF90AF90089581110EC0C7
:1009400081E090E090938902809388028CE00E947D
:100950005D0B60E081E090E00C94400C81E00C9431
:1009600022422F923F924F925F926F927F928F928C
:100970009F92AF92BF92CF92DF92EF92FF920F932E
:100980001F93CF93DF9329013A014B01D82FC92F31
:10099000EAE8F2E0208031802114310481F02281E4
:1009A00033814481558166817781808591855201AB
:1009B000630174010D2F1C2F0E944D44B9F13A962A
:1009C00086E0E237F80731F7EAE8F2E080E090E00D
:1009D00020813181DC011196232BB9F41D014AE0FD
:1009E000489F9001499F300D112426573D4FF90132
:1009F000A193B193D90112964C9251826282738273
:100A000084829582D683C78311C0CD013A96A436DD
:100A1000B105F1F6EE24E3940FEF1FEF9201A3016D
:100A2000B4018D2F9C2F0E9456411AC0E12C8101E8
:100A30009201A301B4018D2F9C2F0E94564160E0CA
:100A400081E090E00E94400CE12CF12C06E111E0E5
:100A500020E040E553EC60E070E08CE00E94200A6A
:100A6000DF91CF911F910F91FF90EF90DF90CF908A
:100A7000BF90AF909F908F907F906F905F904F90BE
:100A80003F902F90089508951F93CF93DF93142FD5
:100A9000E90162E082E090E00E94400C10921802AE
:100AA00080911802811788F46091900C7091910CDC
:100AB000FE01E80FF11D808190E00E94A346809125
:100AC00018028F5F80931802EBCF62E082E090E023
:100AD000DF91CF911F910C94400C08950895CF930E
:100AE000DF931F92CDB7DEB78A3061F48DE0898342
:100AF00041E0BE016F5F7F4F80E00E94E1068823E6
:100B0000B9F38AE0898341E0BE016F5F7F4F80E0E7
:100B10000E94E1068823B9F380E090E00F90DF9116
:100B2000CF910895CF93DF931F92CDB7DEB741E009
:100B3000BE016F5F7F4F80E00E94EA068823B9F311
:100B4000898190E00F90DF91CF910895CF93DF934B
:100B50001F92CDB7DEB741E0BE016F5F7F4F80E0EF
:100B60000E94EA06813019F4898190E002C08FEF7B
:100B70009FEF0F90DF91CF9108950F931F93CF9325
:100B8000DF938C01EB011C161D065CF44C2FB801A1
:100B900080E00E94E10690E0C81BD90B080F191FE6
:100BA000F2CFDF91CF911F910F9108950F931F9373
:100BB0008B019C01775F824C9F4F42E0660F771F4D
:100BC000881F991F4A95D1F7A9019801E3E0220FE8
:100BD000331F441F551FEA95D1F70E940E44215040
:100BE00031093093C5002093C40082E08093C00097
:100BF00086E08093C20088ED8093C1001F910F9121
:100C000008952091C1002F7B2093C10030911B0BD0
:100C100040911C0B431710F029E001C02FEF230F68
:100C2000241B621708F4262FFC01822F882391F0E1
:100C300090911C0B4191A92FB0E0A95FB44F4C9348
:100C4000993019F410921C0B03C09F5F90931C0BFA
:100C50008150ECCF80911F0B81110AC0E32FF0E08F
:100C6000E95FF44F80818093C60081E080931F0B81
:100C70008091C10080648093C100822F0895DC01BF
:100C80008091200B8823B1F19091C1009F779093C0
:100C9000C1008A3058F080911E0B80931D0B8AE0B2
:100CA0008093200B6A3028F06AE003C0861708F4AE
:100CB000682F962F9923B9F0E0911D0BF0E0E95FC2
:100CC000F44F82858D9380911D0B8F5F80931D0B58
:100CD0002091200B21502093200B91508A3051F706
:100CE00010921D0BE7CF8091C10080688093C100F6
:100CF000862F089580E008951F920F920FB60F92ED
:100D000011240BB60F928F939F93EF93FF938091D3
:100D10001E0B9091200B9F5F9093200B9091C6002B
:100D2000E82FF0E0E95FF44F9287893019F41092D0
:100D30001E0B03C08F5F80931E0BFF91EF919F915D
:100D40008F910F900BBE0F900FBE0F901F901895B4
:100D50001F920F920FB60F9211240BB60F928F9322
:100D6000EF93FF9380911B0B893019F410921B0BAA
:100D700003C08F5F80931B0BE0911B0B80911C0BBA
:100D8000E81739F0F0E0E95FF44F80818093C60006
:100D900002C010921F0BFF91EF918F910F900BBE2D
:100DA0000F900FBE0F901F901895811108C060E042
:100DB00074E883E090E00E94D60580E0089585E81D
:100DC00008959B01811104C0642FC9010C94010690
:100DD00080E008959B01811104C0642FC9010C9427
:100DE0003F0680E0089590937B0680937A060895ED
:100DF0009093790680937806089590937706809370
:100E000076060895909373068093720608959093E2
:100E100075068093740608951F920F920FB60F9275
:100E200011240BB60F922F933F934F935F936F93C1
:100E30007F938F939F93AF93BF93EF93FF93E09133
:100E40007A06F0917B060995FF91EF91BF91AF91E2
:100E50009F918F917F916F915F914F913F912F91D2
:100E60000F900BBE0F900FBE0F901F9018951F9202
:100E70000F920FB60F9211240BB60F922F933F9340
:100E80004F935F936F937F938F939F93AF93BF9392
:100E9000EF93FF93E0917806F09179060995FF9121
:100EA000EF91BF91AF919F918F917F916F915F91E2
:100EB0004F913F912F910F900BBE0F900FBE0F904F
:100EC0001F9018951F920F920FB60F9211240BB618
:100ED0000F922F933F934F935F936F937F938F93D3
:100EE0009F93AF93BF93EF93FF93E0917606F091BA
:100EF00077060995FF91EF91BF91AF919F918F91E7
:100F00007F916F915F914F913F912F910F900BBE09
:100F10000F900FBE0F901F9018951F920F920FB653
:100F20000F9211240BB60F922F933F934F935F9321
:100F30006F937F938F939F93AF93BF93EF93FF93A1
:100F4000E0917406F09175060995FF91EF91BF91BC
:100F5000AF919F918F917F916F915F914F913F9151
:100F60002F910F900BBE0F900FBE0F901F901895F2
:100F70001F920F920FB60F9211240BB60F922F9360
:100F80003F934F935F936F937F938F939F93AF9311
:100F9000BF93EF93FF93E0917206F091730609956A
:100FA000FF91EF91BF91AF919F918F917F916F9141
:100FB0005F914F913F912F910F900BBE0F900FBEFD
:100FC0000F901F9018951F920F920FB60F92112439
:100FD0000F900FBE0F901F9018951F920F920FB693
:100FE0000F9211240F900FBE0F901F9018951F9213
:100FF0000F920FB60F9211240F900FBE0F901F90FB
:1010000018951F920F920FB60F9211240F900FBEDA
:101010000F901F9018951F920F920FB60F921124E8
:101020000F900FBE0F901F90189584B714BEA8950F
:1010300088E10FB6F89480936000109260000FBEB4
:101040000E948A080E940B090E94760C80E0089595
:101050000C94E909EF92FF920F931F93CF93DF93C4
:10106000811119C0CB01840F951F81309041A8F4E4
:101070008901040F151FE9017B01E21AF30AC01769
:10108000D10739F0CE018E0D9F1D0E94D546899360
:10109000F6CF80E003C088EE01C085E8DF91CF91F4
:1010A0001F910F91FF90EF900895EF92FF920F9391
:1010B0001F93CF93DF93EC017B01E80EF91E81E0D3
:1010C000E81680E1F80698F48A01CE15DF0569F08C
:1010D000CE010E94D546F80161918F01861719F063
:1010E000CE010E94DD462196F0CF80E001C085E868
:1010F000DF91CF911F910F91FF90EF90089515B858
:101100008FEF84B98FEF9FEF0E94730985B18095AF
:1011100085B9F8CF8FB7F894E0E0F0E099E09093CC
:101120005700E4918FBFEF70E23011F48FE001C0FF
:1011300080E090E020E80FB6F8942093610080935F
:1011400061000FBE80E1809335018093340180936C
:1011500033018093320108950F931F93E0917E062F
:1011600089E0E89FF0011124EF5DF44F80819181C7
:10117000A281B38120917F06222309F440C0B0935D
:10118000F800A093F7009093F6008093F50020916B
:10119000DF0020FD08C021E02093E0002091DF0067
:1011A00021602093DF00F091E100E091E2003091B6
:1011B000E3002091E4004F2F5E2F632F722F4F5FCB
:1011C0005F4F6F4F7F4F8A019B01082719272A27FE
:1011D0003B27002711272227387F012B022B032BC7
:1011E00031F484179507A607B70778F011C0B770D8
:1011F0007770481759076A077B0738F009C0809154
:10120000DF008E7F8093DF0003C081E08093A80B16
:101210001F910F91089510927F061092A80B8FEFE7
:1012200080937E0680937D0680937C06E9E2FBE056
:101230009FEF8FEF9083DF0114971D921C923996D8
:101240002BE0E03BF207A9F790E29093B60098EA12
:101250009093DC009FE09093F4008093F3008093E0
:10126000F2008093F10082E08093E0008091DF0043
:1012700082608093DF00089508952091DE0020FDB4
:10128000FCCFF091E100E091E2003091E300209189
:10129000E4004F2F5E2F632F722F24E0440F551F61
:1012A000661F771F2A95D1F7FC0140835183628323
:1012B00073830895F091E900E091EA003091EB002A
:1012C0002091EC004F2F5E2F632F722F34E0440FDC
:1012D000551F661F771F3A95D1F7FC014083518354
:1012E0006283738308958436910520F44FB7F89490
:1012F00051E002C040E050E061E072E00097C9F0C8
:1013000097FF03C02FEF3FE701C09C01821B930BA7
:10131000220F331F319521953109309325012093F8
:1013200024016ABB70932101D09BFECF1092210152
:10133000E5CF51114FBF089599E0899FF001112425
:10134000EF5DF44F81E024813581232B09F480E0A7
:101350000895CF93CFB7F8948091A80B8823B1F16B
:101360001092A80B80917F06882381F190917D06D1
:10137000E0917C06A0917E069F3F39F4EF3F29F46F
:10138000A0937C06A0937D0609C099E0E99FF00137
:101390001124EF5DF44FA087A0937C0699E09A9FFB
:1013A000D0011124AF5DB44F18962C9120937E0686
:1013B000E0917C069E9FF0011124EF5DF44F9FEFBA
:1013C0009087815080937F060E94AC08CFBFCF9159
:1013D0000895CF93DF930E94A909C9E0DFEF8091C0
:1013E0007D068F3F51F13FB7F894A0917D06CA9FCB
:1013F000D0011124AF5DB44F18962C911897149614
:10140000ED91FC91159716968D919C9117971896D2
:10141000DC93189715961C921E92149717961C929F
:101420001E92169720937D062F3F11F420937C0681
:101430003FBF3097A1F20995D2CFDF91CF910895A8
:101440002F923F924F925F926F927F928F929F92D4
:10145000AF92BF92CF92DF92EF92FF920F931F93C2
:10146000CF93DF9300D000D000D0CDB7DEB7180106
:10147000FB82EA828F3008F0DDC00115110509F406
:10148000DDC0082F10E01E830D8319E0819FF0015D
:101490001124EF5DF44F0480F581E02DEF2B09F06E
:1014A000CBC06A017B01F4E0F694E794D794C7942B
:1014B000FA95D1F7222319F0213009F1BFC0B70105
:1014C000A6014850510961097109483F5F4F6F4FAC
:1014D000774010F08BE8D8C0E091E1003091E20055
:1014E0002091E3009091E4004E2F532F622F792F2B
:1014F000C40ED51EE61EF71E3FE0F3221EC0E0918B
:10150000E1003091E2002091E3009091E4004E2F41
:10151000532F622F792F97018601041B150B260B81
:10152000370BB901A8017F70485051096109710951
:10153000483F5F4F6F4F774068F62FB72983F89485
:101540008C830E94A909A0917E0660907F068C8101
:10155000AF3F41F0BA2F9A2F712C4601570137E067
:10156000B32211C080937E0689E04D815E81849F05
:10157000F001859FF00D1124EF5DF44FA0873DC071
:101580009F3F21F473947610FBCF6BC0492E512CF2
:1015900059E0549DF001559DF00D1124EF5DF44F7D
:1015A000408151816281738197018601042715274B
:1015B00026273727002711272227387F012B022BC8
:1015C000032B31F44C155D056E057F05C8F106C08F
:1015D000777084169506A606B70690F129E00D816E
:1015E0001E81209FF001219FF00D1124EF5DF44F2B
:1015F0009087A91330C080937E0689E00D811E81FB
:10160000809FF001819FF00D1124EF5DF44FC082A7
:10161000D182E282F382358224822A813B81378320
:101620002683639460927F060E94AC0839813FBF95
:1016300080E02AC08AE828C088E826C088EE24C056
:1016400049E0449DF001459DF00D1124EF5DF44FFC
:10165000B92F908597CF2B9FF0011124EF5DF44FA8
:1016600011C099E09B9FF0011124EF5DF44F80873A
:101670002D813E81929FF001939FF00D1124EF5D2B
:10168000F44F8FEF8087B9CF26960FB6F894DEBF60
:101690000FBECDBFDF91CF911F910F91FF90EF90C3
:1016A000DF90CF90BF90AF909F908F907F906F9082
:1016B0005F904F903F902F900895FF920F931F934C
:1016C000CF93DF93082F8F3008F04FC01FB7F894E7
:1016D0000E94A909F0907F06FF2009F448C090916C
:1016E0007E062F2D392F892F59E0081332C0C02FC5
:1016F000D0E009130FC089E08C9FD0018D9FB00D01
:101700001124AF5DB44F18968C9180937E060E9491
:10171000AC0810C0A9E0AC9FF001AD9FF00D112402
:10172000EF5DF44F8085A39FD0011124AF5DB44FCE
:1017300018968C9389E08C9FD0018D9FB00D112459
:10174000AF5DB44F8FEF18968C93FA94F0927F06AA
:1017500056C0589FD0011124AF5DB44F18964C91DC
:10176000215029F0382F842FC0CF8AE852C09091A1
:101770007D06492F892F29E08F3FC9F108132EC01C
:10178000202F30E080917C06091313C0081304C099
:101790008FEF80937C060AC089E0829FD001839FEF
:1017A000B00D1124AF5DB44F18968C9180937D06D7
:1017B00026C0A9E0A29FE001A39FD00D1124CF5D18
:1017C000D44F9885A49FD0011124AF5DB44F1896D3
:1017D0009C93081314C040937C0611C0289FD0012D
:1017E0001124AF5DB44F482F18968C91C5CF80E07F
:1017F0001FBF882311F080E00CC089E80AC089E08F
:10180000089FF0011124EF5DF44F1582148281E0EE
:10181000EFCFDF91CF911F910F91FF9008951F920D
:101820000F920FB60F9211248F9380917F06882319
:1018300019F081E08093A80B8F910F900FBE0F904D
:101840001F9018951F920F920FB60F9211248F932D
:101850008FEF8093E4008093E3008093E200809315
:10186000E1008F910F900FBE0F901F90189581E0AF
:1018700008952D9A259A2C9A249A2E9A269A08959C
:101880008130910579F00297D1F0613021F028F094
:10189000623029F008952D9808952D9A089585B104
:1018A00090E219C0613021F028F0623029F00895EB
:1018B0002C9808952C9A089585B190E10CC0613060
:1018C00021F028F0623029F008952E9808952E9A7C
:1018D000089585B190E4892785B90895759A6D9822
:1018E00008958CB185FB882780F90895089590E2CA
:1018F0009CBBED9A93B7917F982B93BF83B7816080
:1019000083BF889583B78E7F83BF08951F920F9200
:101910000FB60F921124ED980F900FBE0F901F90ED
:1019200018950F931F93CF93DF9380E896E00E9462
:101930002F0DCDE9D6E005E816E0F801D183C0838C
:10194000B80180E896E00E94360DC656DF4F0C5F66
:101950001F4FFAE0C933DF0781F7DF91CF911F9165
:101960000F91089560E070E080E896E00C94510DCE
:10197000009729F0BC0180E896E00C94360D08959C
:101980009F92AF92BF92CF92DF92EF92FF920F930E
:101990001F93CF93DF938C015B016A019FB6F8948C
:1019A000DC0114968C91811103C0C0E0D0E049C0E5
:1019B000F801E080F18041155105A1F0E701209781
:1019C000A1F3D60112966D917C911397ED91FC9144
:1019D000888199810995811109C07E010A80DB8186
:1019E000C02DEDCFE114F10401F3E701AB2849F577
:1019F000F801208131818A819B81C217D30719F4B4
:101A00009183808305C0D70113969C938E93129780
:101A1000F80182819381C817D90711F4F382E28219
:101A2000D80114968C911497815014968C93149726
:101A30008D919C911197892B21F413961C921E92E3
:101A400012979FBECE01DF91CF911F910F91FF9012
:101A5000EF90DF90CF90BF90AF909F900895FC01E2
:101A6000118210821382128214820895FC019FB7A2
:101A7000F8948481811103C07183608306C0A281C0
:101A8000B38113967C936E93129773836283DB0109
:101A900013961C921E92129784818F5F84839FBF3E
:101AA0000895AB0160E070E00C94C00CAB0161E004
:101AB00070E00C94C00CCF93DF93EC018C818823F1
:101AC00061F060E070E0CE010E94510D009711F4CA
:101AD0001C8203C00E94B80CF1CFDF91CF91089512
:101AE000CF93809141018F71883089F481E0809398
:101AF0004F0189E080934201C3E080914F0180FD56
:101B000006C08EE690E00E947309C150B1F7CF91F4
:101B10000895CF93C82F8091DC0B8F30F9F4109289
:101B2000E00B88E799E10E9407079FB7F894789443
:101B3000809139018D7F809339018091E00B88235A
:101B4000E1F39FBF8FEF80934F018CE480934E01B0
:101B5000C83011F0C33011F488E03AC08C2F90E007
:101B6000FC013397E731F10508F0DEC0E057FF4F85
:101B70000C94304483E0809342010E94404680935D
:101B80006D0180916E019770887F982B90936E0104
:101B90008FEF80934F0180E880934E01000000009A
:101BA0000000000000000000000000000000000035
:101BB00000000000000000000000000080913901DA
:101BC00082608093390183E290E00E9473098FE084
:101BD0008093DC0BB0C08091DC0B883009F4A4C08A
:101BE00088E090C08091DC0B883009F49DC083E0D0
:101BF00089C08091DC0B8830B9F020F4863009F080
:101C000093C005C0863119F0893109F08DC089E093
:101C100079C08091DC0B883039F0893009F484C0B8
:101C200084E08093420180C00E94700D7DC080914D
:101C3000DC0B893061F030F4883009F075C00E9407
:101C4000700D05C0863119F0893109F06DC086E04C
:101C500059C08091DC0B883051F018F4863051F077
:101C600063C0893011F1893109F05EC01EC00E9445
:101C7000700D1BC089E0809342010000000000004D
:101C80000000000000000000000000000000000054
:101C900000000000000000000000809141018F71F1
:101CA0008093DC0B893009F046C086E12BC080911F
:101CB000DC0B883021F118F4863031F035C08930E2
:101CC00001F1863109F030C089E0809342010000C3
:101CD0000000000000000000000000000000000004
:101CE00000000000000000000000000000008091E3
:101CF00041018F718093DC0B8930E9F402C00E94AE
:101D0000700D89E180934201000000000000000096
:101D100000000000000000000000000000000000C3
:101D20000000000000000000809141018F7180934D
:101D3000DC0B8F31C9F3CF9108958091A90B8823D3
:101D4000E1F08091E10B811118C08091390A9091E6
:101D50003A0A892B39F48AE90E94B20C90933A0A24
:101D60008093390A8091390A90913A0A892B29F097
:101D70001092A90B86E10E94890D8091AE0B8823F9
:101D800051F060E070E08AEA9BE00E94510D0097FC
:101D900011F00E94480F8091E10B833031F08530C3
:101DA00031F0823031F40C94A50F0C949E150C94F4
:101DB00006120895CF92DF92EF92FF920F931F9336
:101DC000CF93DF93E091390AF0913A0A309709F402
:101DD00056C000811181C0904701D0907B01D7FC93
:101DE0004EC082E08D0DCAE9D0E0C81BD109C00FFA
:101DF000D11FED2CF12CA7014F5F5F4F60E871E020
:101E0000CE010E944F46DA92F801D487C387CE0DE7
:101E1000DF1DCA8280914C018F7780934C0182E054
:101E200090E00E94730980914C01806880934C017E
:101E30008091B40B9091B50BA091B60BB091B70BFC
:101E4000F80187839087A187B2876091390A7091E2
:101E50003A0A8AEA9BE00E94360D8AE90E94B20C97
:101E600090933A0A8093390A892B31F489E00E94D1
:101E7000890D81E08093A90B80E480934F01DF916D
:101E8000CF911F910F91FF90EF90DF90CF90089529
:101E9000EF92FF920F931F93CF93DF938C01FC017E
:101EA000C081D181EB85FC85E080E092DD0B8181F2
:101EB0008770F9F48091B20B9091B30B0297C9F43B
:101EC0004F81588569857A8584E076956795579521
:101ED00047958A95D1F74093C40B5093C50B6093F7
:101EE000C60B7093C70B89E090E09093B30B80937F
:101EF000B20BF12C8FEFE81AF80AEE0EFF1EF70175
:101F000061816435A0F470E080E090E00E940445B7
:101F100025E239E442E450E40E94904520E030E0BC
:101F200040E05FE30E9472440E94D64401C06FEF1C
:101F3000F70160831A830983CE01DF91CF911F914E
:101F40000F91FF90EF900C9412251092E10BE0910D
:101F5000DE0BF091DF0B208130E0275F3F4F85E003
:101F6000220F331F8A95E1F7E091B00BF091B10B8E
:101F7000A385B48511968C9185FF02C0205E3D4FEC
:101F800087819085A185B285821B930BA109B10938
:101F900087839087A187B287A0913B0AA83028F455
:101FA000B0E0A05FBD4F8C9101C085E8BF010C94EB
:101FB000FA36CF93DF93EC016623E1F020916C01B8
:101FC0008091DB0B30E1839FC00111242F70282BFF
:101FD00020936C01C230D105C8F490916C018091BE
:101FE000D00B880F8E70917F892B80936C0110929B
:101FF0006F0121C080916C018F7080936C01C230A1
:10200000D10520F480916C018E6013C08091DA0BB1
:10201000E0E18E9FC00111249091D10B982B9093F9
:102020006F0190916C018091D00B880F8E70917F21
:10203000892B80936C0189E10E94890D8931D9F740
:10204000219751F48091DD0B833118F080E492E008
:1020500005C080E890E002C089E090E00E9473092A
:10206000CFB7F894809139018260809339018091D3
:1020700039018D7F809339016091DE0B7091DF0B08
:10208000FB01408150E04150510980E891E00E94FD
:102090004F4681E08093E10BCFBFDF91CF91089550
:1020A0004F925F926F927F92AF92BF92CF92DF92E8
:1020B000EF92FF920F931F93CF93DF9300D000D046
:1020C0001F92CDB7DEB75B012091E10B211180C0DB
:1020D0009093B10B8093B00BFC0183859485909312
:1020E000DF0B8093DE0B892B09F474C0633071051C
:1020F00039F4842F0E94EE14882309F462C06CC066
:102100008091D50B8F3008F05EC06130710509F009
:102110005AC0411158C04D830E94C11490ECC92E81
:1021200093E0D92EE12CF12C0090D50B04C0CC0CFF
:10213000DD1CEE1CFF1C0A94D2F78091C40B909119
:10214000C50BA091C60BB091C70BC80ED91EEA1ED5
:10215000FB1EEFE0FE22CE0101960E943D09498060
:102160005A806B807C8024E07694679457944794DF
:102170002A95D1F749825A826B827C824D819701E0
:10218000860104191509260937094C145D046E04EB
:102190007F0420F0015011092109304F3F704C1489
:1021A0005D046E047F0468F4C090E20BF4E1CF9EFE
:1021B00060011124E12CF12C0C151D052E053F05A5
:1021C00010F481EE0AC0642FC5010E94D90F04C02B
:1021D00086E803C088EE01C080E00F900F900F905A
:1021E0000F900F90DF91CF911F910F91FF90EF9083
:1021F000DF90CF90BF90AF907F906F905F904F90A7
:1022000008959091E10B8091AF0B913019F08823E4
:1022100009F44EC0882359F01092AF0B8091B20B95
:102220009091B30B0297A1F589E090E029C08091CD
:10223000B00B9091B10B07960E945A092091420170
:1022400022952695277020933B0A8091B20B90919E
:10225000B30B0497D1F483E08093E10B213041F07C
:1022600050F0233059F0253049F487E090E008C061
:1022700086E090E005C085E090E002C083E090E059
:102280009093B30B8093B20B03C082E08093E10B79
:102290008091390A90913A0A892B39F489E00E9499
:1022A000890D81E08093A90B089586E10C94890D36
:1022B00008951F93CF93DF93FC01C385D48580914C
:1022C000E10B8130F1F089E00E94890D8930D9F766
:1022D0001FB7F89480913901826080933901809111
:1022E00039018D7F80933901488150E04150510977
:1022F000BE0180E891E00E944F4681E08093AF0BE1
:102300001FBFDF91CF911F91089580914701909158
:10231000400A981710F48093400A80913C0A9091EB
:102320003D0AA0913E0AB0913F0A0197A109B10967
:1023300080933C0A90933D0AA0933E0AB0933F0AD3
:10234000892B8A2B8B2B21F08FEF809347010895E7
:1023500085E08093E10B0895CF93DF93D82F809190
:10236000E10B882339F08091DC0B8F3009F04AC0F3
:1023700081E849C084E00E94890D909155019068E0
:1023800090935501C0E1C0934F0185E891E10E940F
:10239000FD06C0934E0186E00E94890D863051F003
:1023A000809155018F77809355018CE480934E0185
:1023B00085E829C084E08093E10B1092400A40EC4C
:1023C00053E060E070E004C0440F551F661F771FA4
:1023D000DA95D2F740545C4F6F4F7F4F83E076958C
:1023E0006795579547958A95D1F740933C0A509346
:1023F0003D0A60933E0A70933F0A8FEF8093470136
:1024000080E001C086E8DF91CF9108958091550169
:102410008F77809355018CE480934E011092E10BED
:1024200086E10E94890D8091400A883320F08FEF69
:102430008093400A0AC02FEF829FC001112467E3F6
:1024400070E00E94E6436093400A8091400A0C9439
:102450000C3D88E090E09093B30B8093B20B08950D
:10246000EF92FF920F931F9340EC53E060E070E017
:102470000090D50B04C0440F551F661F771F0A94A8
:10248000D2F786E0440F551F661F771F8A95D1F754
:102490004053584F6F4F7F4FE12CF12C09E212E16E
:1024A00020E081E00E94200A1F910F91FF90EF90A1
:1024B00008951F93CF93DF9300D000D0CDB7DEB740
:1024C000CE0101960E943D0989819A81AB81BC8130
:1024D0008E5D9E4FAF4FBF4F4091410A5091420ACF
:1024E0006091430A7091440A84179507A607B707BD
:1024F00038F38091AF0B8111A3C08091DC0B8F303A
:1025000019F488E00E94890DCE0101960E943D09D0
:1025100089819A81AB81BC8180569F4FAF4FBF4F5D
:102520004091410A5091420A6091430A7091440AD5
:1025300084179507A607B70738F389E00E94890D2D
:10254000893009F07DC080915501806880935501E4
:1025500012E0CE0101960E943D0989819A81AB81EA
:10256000BC814496A11DB11D4091410A5091420A7F
:102570006091430A7091440A84179507A607B7072C
:1025800040F386E00E94890D809148018068809325
:10259000480180E990E00E9473098091410187FF22
:1025A000FCCF89E00E94890D8091410186FF19C00E
:1025B0008091410A9091420AA091430AB091440A45
:1025C000805C9E4FAF4FBF4F8093410A9093420A69
:1025D000A093430AB093440A115009F0BACF94E093
:1025E00004C086E10E94890D90E0809155018F77AB
:1025F00080935501943021F5CE0101960E943D094A
:1026000089819A81AB81BC818096A11DB11D4091C9
:10261000410A5091420A6091430A7091440A84171A
:102620009507A607B70740F384E090E09093B30BBB
:102630008093B20B60E080E090E00E94D90F06C06A
:1026400083E090E09093B30B8093B20B0F900F90C8
:102650000F900F90DF91CF911F9108951092E10B91
:102660001092B30B1092B20B6091B00B7091B10B42
:102670000C94FA364F925F926F927F928F929F9254
:10268000AF92BF92CF92DF92EF92FF920F931F9380
:10269000CF93DF93CDB7DEB728970FB6F894DEBFA0
:1026A0000FBECDBF80ECC82E83E0D82EE12CF12CDC
:1026B0000090D60B04C0CC0CDD1CEE1CFF1C0A9451
:1026C000D2F78091C40B9091C50BA091C60BB0912D
:1026D000C70BC80ED91EEA1EFB1E2FE0F222209166
:1026E000D50B2E5F8FE090E002C0880F991F2A95CE
:1026F000E2F7AA2797FDA095BA2FCE96A11DB11D8E
:102700008C159D05AE05BF0538F4C81AD90AEA0A2A
:10271000FB0A3FE0F3220CC041E0C41AD108E108F3
:1027200040EFF40AC81AD90AEA0AFB0A5FE0F52268
:10273000CE0101960E943D0989809A80AB80BC80C1
:1027400004E0B694A794979487940A95D1F7898268
:102750009A82AB82BC828091C40B9091C50BA091F0
:10276000C60BB091C70B8D839E83AF83B887D5010D
:10277000C4012D813E814F815885821B930BA40B90
:10278000B50BBC01CD01281539054A055B0520F0C4
:10279000615071098109904F9F7024E130E040E061
:1027A00050E00E940E44672B682B692B21F02F5FAD
:1027B0003F4F4F4F5F4FA4E1B0E00E9436442B01E2
:1027C0003C018D819E81AF81B885480E591E6A1EDD
:1027D0007B1EA4E0440C551C661C771CAA95D1F7FF
:1027E000D701C60114E0880F991FAA1FBB1F1A95B5
:1027F000D1F7481659066A067B0608F0A3C0C70140
:10280000B601681979098A099B098C149D04AE04E4
:10281000BF0420F0615071098109904F9F7024E13D
:1028200030E040E050E00E940E44E091460A8E2FD6
:1028300090E0A0E0B0E0281739074A075B0720F4D2
:10284000E21BE093460A7EC02091E20BB301A20195
:10285000F4E07695679557954795FA95D1F794E109
:10286000299F90011124235B3F4F420F531F611D8D
:10287000711D7F704C155D056E057F0508F051C018
:10288000A4E1EA9FC0011124A0E0B0E024E0880F99
:10289000991FAA1FBB1F2A95D1F734E0880C991CF9
:1028A000AA1CBB1C3A95D1F7840D951DA61DB71D1A
:1028B000AC01BD01481959096A097B09483D5440DA
:1028C0006105710528F4805C9E4FAF4FBF4FF0CF7C
:1028D0008093410A9093420AA093430AB093440A1A
:1028E000AC01BD014252514061097109E12CF12C4A
:1028F00009E512E121E080E00E94200A811103C075
:1029000081E090E009C08B3829F480E090E00E94DB
:10291000591220C083E090E09093B30B8093B20BE8
:1029200019C01092480A0E94404621E030E0009011
:10293000470A02C0220F331F0A94E2F721502823CE
:102940002093460A82E090E09093B30B8093B20B01
:102950000E94301228960FB6F894DEBF0FBECDBF8E
:10296000DF91CF911F910F91FF90EF90DF90CF906B
:10297000BF90AF909F908F907F906F905F904F909F
:102980000895E091DE0BF091DF0B2081233118F0E8
:1029900088E290E002C08CE090E0E091B00BF09112
:1029A000B10B0384F485E02D318135FD02C02B5F2E
:1029B00002C0215F8096820F911D820F911D64E1FC
:1029C00070E00E94E643892B09F06F5F6093E20B91
:1029D0008091E20B8E5F8093E20B08957F928F923D
:1029E0009F92AF92BF92CF92DF92EF92FF920F939E
:1029F0001F93CF93DF9300D000D0CDB7DEB7782EF2
:102A000090EC892E93E0992EA12CB12C0090D50B3F
:102A100004C0880C991CAA1CBB1C0A94D2F7C09055
:102A2000C40BD090C50BE090C60BF090C70BC80C40
:102A3000D91CEA1CFB1C8FE0F822CE0101960E94F3
:102A40003D0949815A816B817C8124E076956795A7
:102A5000579547952A95D1F78091C40BA091C50B46
:102A6000F091C60BE091C70B94E0C416D506E606BC
:102A7000F706D0F497018601080D191D2A1D3B1D8C
:102A80003F70915051F4C092C40BD092C50BE092AC
:102A9000C60BF092C70B80E03FC08C2DAD2DFE2DF4
:102AA000EF2D68017901E1CF8093C40BA093C50B92
:102AB000F093C60BE093C70B83E08093E10B109279
:102AC000480A8091D40B9091D10B882331F0933038
:102AD00020F082E08093470A02C09093470A772053
:102AE00019F01092450A04C08091DB0B8093450ACF
:102AF0000E94C1140E94404621E030E00090470A45
:102B000002C0220F331F0A94E2F72150282320939A
:102B1000460A0E943A1381E00F900F900F900F9099
:102B2000DF91CF911F910F91FF90EF90DF90CF90A9
:102B3000BF90AF909F908F907F9008958091B20B3F
:102B40009091B30B8630910541F130F483309105BB
:102B500071F0059701F1089588309105D1F0F8F0F2
:102B6000099709F049C081E00E945D0B40C0809147
:102B7000480A8F5F8093480A9091470A9F5F90931D
:102B8000470A2091DA0B291710F42093470A8F3453
:102B900070F181EE2FC080E02DC087E82BC08091BE
:102BA000450A9091DB0B891720F58F5F8093450ACA
:102BB00086E10E94890D8091470A8F5F8093470AC2
:102BC0009091DA0B981710F49093470A1092480AE4
:102BD0000E94404621E030E00090470A02C0220FE8
:102BE000331F0A94E2F7215028232093460A0C94BD
:102BF0003A1389EE0C942E130895982F85FD02C088
:102C00009F7303C091959F719195E8E6F1E024913F
:102C100029172CF0E7E7F1E0249192176CF48491E6
:102C2000803E3CF080323CF487FF06C08F718062AA
:102C300003C080E201C08FE18068089585FD02C075
:102C40008F7303C081958F718195E8E6F1E090E084
:102C5000249182172CF028174CF48FEF890F0895D8
:102C60009F5F31969031A1F780E00895892F0895F4
:102C700084E08093D00B23E02093D10B8FEF9FEF64
:102C80009093CB0B8093CA0B9093C90B8093C80B86
:102C90008BE08093CF0B1092D70B80E098EFAFEFD3
:102CA000B7E08093C00B9093C10BA093C20BB0937D
:102CB000C30B8AE091E09093CD0B8093CC0B8AE01C
:102CC0008093D80B82E08093D90B85E08093DA0B58
:102CD0002093DB0B84E80E94FD158093D30B81E0E9
:102CE0008093CE0B1092D20B1092D40B8FE0809376
:102CF000D50B8093D60B08958091CA0B8093620107
:102D00008091CB0B80936301E4E6F1E0A8EBBBE09C
:102D10008D918193EC3631E0F307D1F78091C80BA8
:102D2000809360018091C90B8093610120914801DB
:102D30008091CE0B30E2839FC001112480762F79E1
:102D4000822B8093480190916F018091D10B8F70FD
:102D5000907F892B80936F0180916E019091D20BAF
:102D600090FB83F980936E0120916F018091DA0BC3
:102D700030E1839FC00111242F70282B20936F0115
:102D8000909148018091CF0B8F71907E892B809319
:102D900048018091D30B0E941E16909145018F70BF
:102DA000907F892B809345010895CF93DF93EB01AA
:102DB0009091E10B943009F419C18834F9F040F492
:102DC0008334A1F0873439F588818093D50B08C10D
:102DD000843581F0893531F08E34E9F4888180932F
:102DE000D00BFEC088818093DB0BFAC08881809372
:102DF000D40BF6C088818093D60BF2C0888199816C
:102E0000AA81BB818093C40B9093C50BA093C60B82
:102E1000B093C70BE5C02091DC0B2F3009F4E2C062
:102E20008B3009F4D4C078F4823009F4A9C020F4BE
:102E3000882309F45DC0D8C0833009F4B2C084305F
:102E400009F484C0D1C0833509F447C080F48F34BD
:102E500089F1803509F0C8C0988189819093CA0BA7
:102E60008093CB0B9093620180936301B9C0873547
:102E700009F472C0803F09F0B7C088818093B80B15
:102E800089818093B90B8A818093BA0B8B8180935F
:102E9000BB0B8C818093BC0B8D818093BD0B8E818D
:102EA0008093BE0B8F818093BF0BE4E6F1E0A8EB2B
:102EB000BBE086C098819093D10B8091DA0B891783
:102EC00010F48093D10B90916F018091D10B8F7092
:102ED000907F892B80936F0183C098818981909323
:102EE000C80B8093C90B909360018093610178C0F7
:102EF00091117CC080E098EFAFEFB7E0088004C08C
:102F0000B695A795979587950A94D2F780FD02C04C
:102F100088EE6DC0283031F088E00E94890D88303D
:102F2000D9F702C028E001C026E188818093CF0B49
:102F3000909148018F71907E892B809348012830B1
:102F400009F44EC086E10E94890D4AC091114EC01D
:102F500088818111DDCF4BC088818093DA0B9091FD
:102F6000D10B891710F48093D10B20916F0130E1C0
:102F7000839FC00111242F70282B20936F0130C034
:102F800088818093D30B0E94FD158093D30B0E9400
:102F90001E16909145018F70907F892B809345017B
:102FA0001FC088818093CE0B2091480130E2839F1F
:102FB000C001112480762F79822B8093480110C0A4
:102FC0008D918193EC3681E0F807D1F709C09881A3
:102FD0009093D20B80916E0190FB83F980936E01E8
:102FE00080E005C081E803C084EF01C086E8DF917E
:102FF000CF910895CF93809139018D7F80933901CE
:1030000080EF90E00E947309809139018E7F809358
:10301000390181E090E00E9473098091390181605B
:1030200080933901CBE084E690E00E94730980919F
:1030300041018F71C15031F08830A9F78093DC0BCA
:1030400080E001C085E8CF910895CF93DF9386E0BB
:103050000E94890D8630D9F7809155018F77809332
:10306000550110924E0128E0C0E0D0E030914601B9
:10307000CE01880F991F880F991F3076C32FD0E09B
:1030800055E0D595C7955A95E1F7C82BD92B000087
:103090000000000000000000000000000000000030
:1030A00000000000000000000000000000002150AF
:1030B000E9F683E00E94890D8FEF80934F018CE445
:1030C00080934E01CE01DF91CF910C944446CF9373
:1030D000C82F0E9425180E94404680936D012091C0
:1030E0006E019770287F922B90936E0190916E01E4
:1030F000906290936E0190914C01906890934C0176
:103100008CE480934E018FEF80935601C1110E9491
:1031100038160E947C161092E10B1092B30B10929D
:10312000B20B1092AF0B1092A90B80E0CF910895D3
:103130001F93CF93DF930E941508811183C0809164
:103140003901816080933901809139018D7F8093AD
:1031500039018CE791E00E947309809139018E7FDB
:103160008093390181E090E00E94730980913901D8
:10317000816080933901CBE084E690E00E9473097E
:10318000809141018F71C15009F45CC08830A1F772
:103190008093DC0B80915C01843909F053C028EBEB
:1031A0003BE048E050E060E070E080E00E942A08E8
:1031B0000E94FA17811146C081E00E946718182FFB
:1031C000811140C02091B80B3091B90B4091BA0BDE
:1031D0005091BB0B6091BC0B7091BD0B8091BE0BED
:1031E0009091BF0BAFEF0E944144ADEF0E94564457
:1031F00059F050F0C8EBDBE00E94404689938BE029
:10320000C03CD807C9F7DECF84E699E10E94F806F2
:103210008CE699E10E94F30688E799E10E9407078E
:1032200084E799E10E9402070E94910C8AE90E94BA
:10323000B20C90933A0A8093390A8AEA9BE00E9482
:103240002F0D01C015E8812FDF91CF911F910895B7
:10325000CF93DF93C82F0E94FA17882311F0C5E897
:103260002FC08C2F0E946718C82F8111F8CFDFB7AD
:10327000F89480E00E945D0B81E00E945D0BDFBF4F
:103280008091AE0B882359F060E070E08AEA9BE001
:103290000E94510D0097A1F30E94B80CF1CF88E075
:1032A00080934F0180E480934F0184E080934F012D
:1032B00080E880934F0180E00E947C190E949A1957
:1032C0008C2FDF91CF910895CF93CFB7F8940E94C0
:1032D000DA0ECFBFCF910895CF93CFB7F8940E9465
:1032E0000111CFBFCF91089584EB9BE00C945A0954
:1032F00081E08093E00B0895811116C08091DC0B72
:103300008F30A1F08091E10B811112C01092A90BB6
:1033100088E00E94890D8830D9F78FE00E94890DDE
:103320008F3031F480E0089588EE089581E80895A3
:1033300086E808958091DC0B8F3039F488E00E9494
:10334000890D883021F480E0089582E8089585E8A9
:1033500008959091E10B992311F09330B9F48830DE
:1033600031F40E94890D1092A90B88E00895809194
:10337000390A90913A0A892B21F086E10E94890D41
:1033800003C081E08093A90B86E0089586E8089544
:10339000DC01ED91FC9124E120836383528341831E
:1033A000BC0189E89CE00C94360D0F931F93CF93DA
:1033B000DF9300D0CDB7DEB74FEF5FEF6BEE8091BC
:1033C000010C9091020C0E94C8191092F20B0FEFA1
:1033D0001FEF1A830983BE016F5F7F4F80E50E9454
:1033E00099331093420C0093410CE7E3FCE0108208
:1033F00011821282138214821582168217820E9411
:1034000018300F900F90DF91CF911F910F91089579
:10341000DF92EF92FF920F931F93CF93DF93CDB77D
:10342000DEB72F970FB6F894DEBF0FBECDBF7C017D
:10343000DC01ED91FC918FE0DE01119601900D927F
:103440008A95E1F7F092020CE092010C8C819EEFDC
:10345000980F923038F04FEF5FEF68EEC7010E948F
:10346000C819CDC0823019F48F8198851AC08F8118
:103470008093370C88858093380C89858093390C2C
:103480008A8580933A0C8B8580933B0C8C85809346
:103490003C0C8D8580933D0C8E8580933E0C8EEF89
:1034A0009FEF9093420C8093410CBE016B5F7F4F66
:1034B00080E50E9499330E944D30F701008111810F
:1034C00081E0D8018C931296FC92EE921197F8014C
:1034D000EA56FF4F808331968F858083399780919C
:1034E000B80B80838091B90B81838091BA0B828362
:1034F0008091BB0B83838091BC0B84838091BD0B37
:1035000085838091BE0B86838091BF0B8783329722
:103510008FEF9FEF918380838C81823059F43297B3
:103520008091410C9091420C9183808383E298ECCE
:1035300045E11EC0F801EC57FF4F8091370C8083A6
:103540008091380C81838091390C828380913A0C70
:10355000838380913B0C848380913C0C8583809194
:103560003D0C868380913E0C878383E29CEC4BE18B
:103570002091CA0B3091CB0BDF01129711963C932F
:103580002E9320914D0C31E0320F30934D0C11975A
:103590002C9312978D939C9336974083D8011C9659
:1035A000FC93EE931B97BE016D5F7F4F84E00E94FA
:1035B0009933D82EBE016E5F7F4F80E00E94993311
:1035C000D11015C0811113C08091FE0B833019F406
:1035D00063E070E002C062E070E041E0C8010E9478
:1035E0005010811104C081E08093870C08C04FEF18
:1035F0005FEF61EEC7010E94C8190E9418302F9634
:103600000FB6F894DEBF0FBECDBFDF91CF911F91F3
:103610000F91FF90EF90DF900895DC01ED91FC9108
:103620002091470C211102C00C94B80CB0916E0C83
:10363000A0916F0C7091700C6091710C5091720C94
:103640004091730C3091740C2091750CB183A2835E
:1036500073836483558346833783208720917D0C51
:10366000218723E12083BC0189E89CE00C94360D7E
:10367000EF92FF920F931F93CF93DF93FC01C081D2
:10368000D181F9800A811B81BC81AD817E816F81EE
:10369000588529853A85EB844091860C425042300A
:1036A00040F0DF91CF911F910F91FF90EF900C941C
:1036B000B80C42E04883FE01EC56FF4F4083319640
:1036C000318320833296E0823B972091B80B208390
:1036D0002091B90B21832091BA0B22832091BB0B3F
:1036E00023832091BC0B24832091BD0B2583209143
:1036F000BE0B26832091BF0B27833897F08201836E
:103700001283B383A4837583668357833297209192
:10371000CA0B3091CB0B3183208320914D0C31E0CB
:10372000320F30934D0C31972083329723E63CECD7
:103730003183208331972BE12083FC87EB871E8226
:10374000BC0184EE9BE00E94360D80913F0C90916D
:10375000400C9D838C8388E00E949C09811108C0E5
:10376000DF91CF911F910F91FF90EF900C94AE2CB1
:10377000DF91CF911F910F91FF90EF900895FF92ED
:103780000F931F93CF93DF9300D0CDB7DEB7F090A8
:103790007F0C0E94B80CF11036C06DE77CE083E529
:1037A0000E94993340917D0C50917E0C80916E0C5B
:1037B0008093370C80916F0C8093380C8091700C43
:1037C0008093390C8091710C80933A0C8091720C2B
:1037D00080933B0C8091730C80933C0C8091740C13
:1037E00080933D0C8091750C80933E0C81E080931A
:1037F000860C1092F20B8091FE0B833031F582E043
:103800008093FE0B22C01092F20B0FEF1FEF1A8372
:103810000983BE016F5F7F4F80E50E94993310934B
:10382000420C0093410C1092370C1092380C1092FD
:10383000390C10923A0C10923B0C10923C0C1092E6
:103840003D0C10923E0C4FEF5FEF6F2D8091010CFD
:103850009091020C0E94C8190E9418300F900F908E
:10386000DF91CF911F910F91FF900895EF92FF92FA
:103870000F931F93CF93DF93C091450CD091460CCB
:1038800000E010E020E030E040E061E080E00E94F5
:103890007E2581110FC04FEF5FEF61EE8091010C2B
:1038A0009091020CDF91CF911F910F91FF90EF90BB
:1038B0000C94C819AE0160E070E084E0440F551F1D
:1038C000661F771F8A95D1F7E12CF12C05ED19E1E0
:1038D00020E087E00E94200A882351F080E090E0F9
:1038E000DF91CF911F910F91FF90EF900C94D5191C
:1038F000DF91CF911F910F91FF90EF90089520914C
:10390000490A2730E8F4FC01A385B48512968C910E
:103910001297869586958370823091F4E0914A0AD9
:10392000F0914B0A3297F0934B0AE0934A0A1696AD
:103930008D919C911797918380832F5F2093490AE3
:1039400080E008952091490A2730E8F4DC011B96B5
:10395000ED91FC911C9782818695869583708330CA
:1039600091F4A0914A0AB0914B0A1897B0934B0A70
:10397000A0934A0A369688E001900D928A95E1F765
:103980002F5F2093490A80E00895DF92EF92FF9223
:103990000F931F93CF93DF9300D000D0CDB7DEB746
:1039A000F82E10924E0A10924D0A8AE080934C0A2B
:1039B0008091480C882379F0482F50E004EE1AE0FB
:1039C000041B150B3DE0E32EE80E63E07CE0C8012C
:1039D0000E944F4604C004EE1AE02DE0E22E8091D2
:1039E000E80B882309F43FC010934B0A00934A0A5E
:1039F0001092490A82EA9CE19A838983BE016F5F33
:103A00007F4F84EE9BE00E94560DD090490A1092A1
:103A1000490A2FE73CE13A832983BE016F5F7F4F5C
:103A200084EE9BE00E94560DE091490AA0914A0A5B
:103A3000B0914B0A11978D2D90E09C0194E0220FDC
:103A4000331F9A95E1F72E2B2C9324E0D29EE00DA4
:103A50001124EE0FE093490AEE0EF0E0E095F095A8
:103A6000E00FF11F02C0F8011292DF0111971C92C2
:103A70004091D50B2091D60B80E1289F9001112415
:103A80008091FF0B382B242B8091D40B8111306156
:103A90005091860C533009F430648091470C8111A9
:103AA0003068DF0113972D933C938091C80B909160
:103AB000C90B8E3F2FEF9207F1F43B9786E0E80E9B
:103AC0008091B80B80838091B90B81838091BA0B70
:103AD00082838091BB0B83838091BC0B8483809114
:103AE000BD0B85838091BE0B86838091BF0B87833E
:103AF00020E030EC05C035979183808320E030E8EA
:103B00008091CA0B9091CB0BDF01129711969C9379
:103B10008E938091490C91E0980F9093490C1197E6
:103B20008C935250523030F44F3020F48091F70B88
:103B300081112061DF0115972D933C933697E08228
:103B4000F093580AE093570AF1100EC010924E0AF3
:103B500010924D0A40E062E070E08CE49AE00E942E
:103B6000501081E08093870C0F900F900F900F9072
:103B7000DF91CF911F910F91FF90EF90DF9008950B
:103B80000E944D3081E00C94C51C0E94B80C8091BD
:103B9000D50B8F3019F480E00C94C51C08950F9359
:103BA0001F93CF93DF9360E070E083EF9BE00E9470
:103BB000510D0097D1F0FC01C081D1819A83898396
:103BC00040E061E070E0CE010E945010811104C01D
:103BD00081E08093870C09C000E010E098014B81E0
:103BE00061EE89819A810E943B2BDF91CF911F91D9
:103BF0000F9108954F925F926F927F928F929F9252
:103C0000AF92BF92EF92FF920F931F93CF93DF93E8
:103C1000CDB7DEB728970FB6F894DEBF0FBECDBF85
:103C20008091D50B8F3008F080C08091FD0B811101
:103C300004C08CE49AE00E94591150EC852E53E0A8
:103C4000952EA12CB12C0090D50B04C0880C991C8A
:103C5000AA1CBB1C0A94D2F764E0880C991CAA1C0D
:103C6000BB1C6A95D1F74090C40B5090C50B609077
:103C7000C60B7090C70B74E0440C551C661C771C77
:103C80007A95D1F7480C591C6A1C7B1CD301C201E0
:103C9000880D991DAA1DBB1D8D839E83AF83B88798
:103CA000E12CF12C0AEF1DE121E0AC01BD0185E022
:103CB0000E94200A882329F04D805E806F807884DE
:103CC000E5CF44E076946794579447944A95D1F7AA
:103CD00049825A826B827C82BE016F5F7F4F88E48B
:103CE0000E9499334D805E806F80788490E2491AFB
:103CF00093E0590A61087108E12CF12C00EC1DE1F8
:103D000021E0B301A20186E00E94200A480C591C60
:103D10006A1C7B1C8111F0CF8091FD0B811105C0C5
:103D20008091F70B81110E94CF1D28960FB6F89451
:103D3000DEBF0FBECDBFDF91CF911F910F91FF90DE
:103D4000EF90BF90AF909F908F907F906F905F901B
:103D50004F900895CF93DF9300D000D0CDB7DEB75A
:103D600081E00E94C51CCE0101960E943D09898117
:103D70009A81AB81BC81E4E0B695A795979587952C
:103D8000EA95D1F740EC53E060E070E00090D50B8D
:103D900004C0440F551F661F771F0A94D2F74817B7
:103DA00059076A077B0718F00197A109B04F841BD8
:103DB000950BA60BB70BBF7089839A83AB83BC832B
:103DC000BE016F5F7F4F88E40E94993380E090E0EE
:103DD0000E94FA1D0F900F900F900F90DF91CF91DE
:103DE00008958F929F92AF92BF92CF92DF92EF92FF
:103DF0000F93CF93DF93CDB7DEB766970FB6F894E6
:103E0000DEBF0FBECDBF4C01DC01ED91FC91818185
:103E10008C87828193819E878D877481658156818D
:103E2000478130852185928583857F87688B598B73
:103E30004A8B3B8B2C8B9D8B8E8B848589838585D0
:103E400096859B838A8387858C8380898D838189EE
:103E50008E8382898F8383898887848989878589EE
:103E60008A8786898B87A18CB28CC38CD48C268D53
:103E7000378DE08C0789458DBE016F5F7F4FCE0186
:103E80000C960E944405C4010E94B80C66960FB6B9
:103E9000F894DEBF0FBECDBFDF91CF910F91EF90B1
:103EA000DF90CF90BF90AF909F908F900895CF9369
:103EB000DF93EC01E881F9812381348145815681CA
:103EC000628181810E946E05CE01DF91CF910C94B9
:103ED000B80CCF93DF93EC01E881F9816281818195
:103EE0000E948A43CE01DF91CF910C94B80CCF93FE
:103EF000DF93EC01E881F9816381818192810E94E5
:103F00006D05CE01DF91CF910C94B80C0F93CF9338
:103F1000DF93EC01E881F981218132814381548171
:103F2000658176810185878190850E94B104CE01EB
:103F3000DF91CF910F910C94B80CEF92FF920F93F9
:103F4000CF93DF93EC01E881F981E38CF48C208D31
:103F5000318DBF016E5F7F4F028D478981810E9445
:103F60008B43CE01DF91CF910F91FF90EF900C9496
:103F7000B80C0F931F93CF93DF93CDB7DEB766973F
:103F80000FB6F894DEBF0FBECDBF8C01DC01ED9102
:103F9000FC91818192819E878D8723812C87B481BA
:103FA000A581768167815085418532852385BF87CC
:103FB000A88B798B6A8B5B8B4C8B3D8B2E8B9B8379
:103FC0008A838485898385858C8386858D8387858F
:103FD0008E8380898F838189888782898987838975
:103FE0008A8784898B874589BE016F5F7F4FCE01A9
:103FF0000C960E944305C8010E94B80C66960FB645
:10400000F894DEBF0FBECDBFDF91CF911F910F910E
:1040100008950F931F93CF93DF93CDB7DEB72B9700
:104020000FB6F894DEBF0FBECDBF8C01DC01ED9161
:10403000FC9182818983838194819B838A837581AA
:1040400066815781408531852285938584857C836F
:104050006D835E834F83388729879A878B87BE015C
:104060006F5F7F4F81810E948C43C8010E94B80C12
:104070002B960FB6F894DEBF0FBECDBFDF91CF9168
:104080001F910F9108950F93CF93DF93EC01E88177
:10409000F981218132814381548165817681018555
:1040A000878190850E948D43CE01DF91CF910F9142
:1040B0000C94B80CCF93DF93EC01E881F981AF0148
:1040C0004D5F5F4F628181810E948E43CE01DF91FF
:1040D000CF910C94B80CCF93DF93EC01E881F98178
:1040E00021813281438154816581768187819085E8
:1040F0000E948F43CE01DF91CF910C94B80CCF93E7
:10410000DF93EC01E881F98181810E949043CE0127
:10411000DF91CF910C94B80CCF93DF93EC01E88141
:10412000F98181810E942C04CE01DF91CF910C9402
:10413000B80CCF93DF93EC01E881F98181810E9473
:104140009143CE01DF91CF910C94B80CCF92DF92C6
:10415000EF920F931F93CF93DF93EC01E881F981E6
:104160006F0189E0C80ED11C048115812681378139
:10417000E0844381628181810E948904CE01DF91C4
:10418000CF911F910F91EF90DF90CF900C94B80CCE
:10419000CF93DF93EC01E881F981628181810E94F4
:1041A0004404CE01DF91CF910C94B80CCF93DF93F0
:1041B000EC01E881F98181810E949E04CE01DF91AA
:1041C000CF910C94B80CDC01ED91FC91628173816C
:1041D0002581448181810C94924320917D0C309102
:1041E0007E0C36FF17C020916C0C30916D0C811144
:1041F00007C08091CA0B9091CB0B2817390739F073
:104200008091520C9091530C2817390719F48EEEB7
:104210000C94A23E0895AF92BF92CF92DF92EF929C
:10422000FF920F931F93CF93DF9320917D0C3091DA
:104230007E0C36FFEBC020916C0C30916D0C81111F
:1042400007C08091CA0B9091CB0B2817390741F01A
:104250008091520C9091530C2817390709F0D6C061
:1042600020916E0C30916F0C8091410C9091420C1A
:104270002817390709F4CAC020916E0C30916F0CD1
:104280004091700C5091710C6091720C7091730C94
:10429000A090370CB090380CC090390CD0903A0CEC
:1042A000E0903B0CF0903C0C00913D0C10913E0CCA
:1042B0008091740C9091750C0E944D4409F4A6C035
:1042C0008AE90E94B20CEC01009709F49FC0E881D2
:1042D000F98185E08083D283C183DF01A956BF4F76
:1042E0008C9318978091B80B8C938091B90B119691
:1042F0008C9311978091BA0B12968C9312978091A0
:10430000BB0B13968C9313978091BC0B14968C93D4
:1043100014978091BD0B15968C9315978091BE0BC9
:1043200016968C9316978091BF0B17968C931797C0
:1043300018978091370C8C938091380C11968C9340
:1043400011978091390C12968C93129780913A0CA8
:1043500013968C93139780913B0C14968C9314971F
:1043600080913C0C15968C93159780913D0C169678
:104370008C93169780913E0C17968C9317971297F3
:104380008091CA0B9091CB0B11969C938E93809148
:104390004D0C91E0980F90934D0C11978C931297C0
:1043A00083E69CEC11969C938E93119788E18C93F5
:1043B000B487A3878091D50B8F3061F08091860CF4
:1043C000811105C08091FE0B833021F406C081501D
:1043D000823018F062E070E002C063E070E041E01B
:1043E000CF010E945010811104C081E08093870C9E
:1043F0000DC0CE01DF91CF911F910F91FF90EF90F3
:10440000DF90CF90BF90AF900C94B80CDF91CF911C
:104410001F910F91FF90EF90DF90CF90BF90AF90E2
:1044200008954F925F926F927F928F929F92AF9278
:10443000BF92CF92DF92EF92FF920F931F93CF9391
:10444000DF9300D000D0CDB7DEB74C01DC016D901A
:104450007C90D3011B96ED91FC911C9780818093F9
:104460005E0CE80FF11D81818093770C1B960D90F7
:10447000BC91A02D11960D911C91129710935C0C7C
:1044800000935B0C6D01E4E0CE0ED11C13968C9171
:1044900080935F0CC6010E94B42703FDC5C0F601DE
:1044A000E80FF11D202F2770F22E20935D0C33E0D2
:1044B000231303C080818093760CD30117964D910E
:1044C0005D916D917C911A974093780C5093790C83
:1044D00060937A0C70937B0CB1E0FB1609F44DC02D
:1044E000FB1628F023E0F21609F458C09DC0808125
:1044F000918190937E0C80937D0C828180937F0CC0
:10450000877011F08C5F01C083E041E0480FDF014C
:10451000A80FB11D8C918093800C582F5770807715
:1045200090E064E0959587956A95E1F7682F5111C1
:1045300002C0882389F09F01240F311D3093820C23
:104540002093810C552311F0550F450F662321F060
:10455000B8E08B9F400D112480917C0C481750F4DB
:10456000841B8093830CE40FF11DF093850CE09382
:10457000840C4AC01092830C47C080917C0C882325
:1045800051F0863718F086E780937C0CF0937E0C10
:10459000E0937D0C39C010927C0C36C08091760C73
:1045A0008330A1F070F4813089F08230E9F58181A7
:1045B000928190937E0C80937D0C838180937F0CFD
:1045C00023C0883008F1883029F02EC08181809383
:1045D0007D0C1AC08181928190937E0C80937D0C1A
:1045E000838194819093800C80937F0C858180934C
:1045F000810C868197819093830C8093820C14FFA9
:1046000003C080858093840C8091870C882319F0E7
:10461000E3E0FE1669F08091F20B813009F4D8C115
:1046200098F0843008F491C1C4010E94B80CE5C12F
:104630008091760C843011F0873069F7B40184E5FD
:104640009CE00E94360DD9C18091FD0B81114EC1B5
:104650009091860C933050F1933031F7F1E0FF16D2
:1046600009F4C8C1FF16F0F003E0F012DDCF80912D
:10467000760C843009F490C148F4813009F485C186
:10468000833091F6C4010E94D629B7C1863009F45F
:104690008EC120F0873009F493C1C6CF8EEE0E9400
:1046A000A23EC2CF80E00E94ED20BECF11E0F11605
:1046B00009F4A0C1F11628F023E0F21609F4F9C0BC
:1046C000B3CF80914A0C882329F0992319F080E018
:1046D0000E940B2120916C0C30916D0C8091CA0BC3
:1046E0009091CB0B2817390709F09ECF80916B0C66
:1046F000823069F420916E0C30916F0C8091410CE6
:104700009091420C2817390709F08ECF27C08330CB
:1047100009F08ACF20916E0C30916F0C4091700C93
:104720005091710C6091720C7091730CA090370CC9
:10473000B090380CC090390CD0903A0CE0903B0C03
:10474000F0903C0C00913D0C10913E0C8091740C4B
:104750009091750C0E944D4409F066CFF30187815A
:104760009085A185B28554E0B695A79597958795D4
:104770005A95D1F789839A83AB83BC83BE016F5F5F
:104780007F4F88E40E9499338091FE0B9EEF980F33
:10479000923008F085C0C4010E948C348091D50B02
:1047A0008F3070F440EC842E43E0942EA12CB12C79
:1047B00004C0880C991CAA1CBB1C8A95D2F705C0A2
:1047C000812C3EE1932EA12CB12C82E00E945D0B46
:1047D0009FE0C92ED12C44244A94542C642C2FE001
:1047E000722E49815A816B817C81480D591D6A1D49
:1047F0007B1D7F7049835A836B837C838091D50BAB
:104800008E5F860102C0000F111F8A95E2F7C80172
:10481000AA2797FDA095BA2F84179507A607B70773
:1048200048F48A019B01081B190B2A0B3B0BD90189
:10483000C8010CC093018201081B190B2A0B3B0B0A
:10484000D901C801840F951FA61FB71FBF70AC0107
:10485000BD0184E0440F551F661F771F8A95D1F76D
:10486000E12CF12C0BE91EE321E082E00E94200AFA
:104870008111B7CF0E94E73E8091860C823009F407
:10488000BCC08091FD0B8111B8C08091F20B8111E9
:10489000B4C08091500C8111B0C00E941830ADC0DE
:1048A000813009F0C1CEC4010E948C341092FE0BFD
:1048B000E3CF8091760C843009F46EC030F48130FF
:1048C00009F463C0833029F0AFCE873009F057C0B8
:1048D00009C0C4010E94D6298091860C813009F05C
:1048E0008CC057C0923009F09FCE6AC08330F1F07F
:1048F000843019F0823009F097CEF11095CE809176
:10490000860C833019F481E00E94ED2080914A0CDE
:10491000882341F08091860C8150823018F481E028
:104920000E940B21C4010E948C3467C013E0F11275
:104930007BCE8091760C883009F076CE89E00E949B
:104940005D0BC4010E94443D58C00E945A348091BE
:104950005D0C813009F44EC0833009F065CE809142
:10496000760C8430C9F048F4813079F0833009F056
:104970005BCEC4010E94D6290CC08730E1F088309C
:1049800019F1863009F050CE12C0C4010E940D1BEF
:1049900034C00E945B3031C08091E80B882321F045
:1049A000C4010E94462729C00E9484263DCEC4012E
:1049B0000E94C03022C08091860C823009F034CE33
:1049C000C4010E94C51D19C0C4010E94723F15C0D8
:1049D00023E0F2120CC08091760C823009F024CED4
:1049E00087E00E945D0BC4010E94BF1B06C031E03E
:1049F000F3121ACEC4010E944F2B0F900F900F900C
:104A00000F90DF91CF911F910F91FF90EF90DF906A
:104A1000CF90BF90AF909F908F907F906F905F905E
:104A20004F900895FC0110826181728161157105BA
:104A300021F084E59CE00C94360D0895DC01169677
:104A40002C911697211113C01B96ED91FC911C9788
:104A50008281869586958370823049F481E0DB01FE
:104A60004D915C91268137814217530709F080E010
:104A70000895AF92BF92CF92DF92EF92FF920F9381
:104A80001F93CF93DF93DB01EC012E81211129C00D
:104A9000EB85FC858281869586958370833009F548
:104AA000C1E02C9111963C91119712964C9112975E
:104AB00013965C91139714966C91149715967C91AC
:104AC0001597A680B780C084D184E284F3840485DE
:104AD000158516968C91169717969C910E944D44B9
:104AE00009F0C0E08C2FDF91CF911F910F91FF90C3
:104AF000EF90DF90CF90BF90AF9008958F929F92EC
:104B0000AF92BF92CF92DF92EF92FF920F931F93DB
:104B1000CF93DF9300D0CDB7DEB7982E59018AE945
:104B20004A8369830E94B20C6C014A8169810097B3
:104B300009F4DAC0FC01E080F180992011F084E0F2
:104B400001C08BE0F7018083F701D282C18284E04B
:104B5000E956FF4F80838091C80B9091C90B9C014F
:104B60002E5F3F4FF7012230310510F06623F1F040
:104B7000E157FF4F8091B80B80838091B90B8183FF
:104B80008091BA0B82838091BB0B83838091BC0B95
:104B900084838091BD0B85838091BE0B8683809139
:104BA000BF0B878363E270EC22E107C0EB56FF4F37
:104BB0009183808363E270E82CE0442361F080916C
:104BC000CA0B9091CB0B0817190729F02E5F92930F
:104BD000829330E002C0606431E0423031F47860AA
:104BE0004F01F501808191811AC0433071F47C60DE
:104BF0004F0148E0841A91082A5F88E0F501D4014A
:104C000001900D928A95E1F72EC08091410C909110
:104C1000420C8E3F4FEF940739F078604F01F4015A
:104C2000929382934F011FC07C604F0148E0841A29
:104C300091082A5FB091370CA091380CB090390CD4
:104C4000A0903A0C50913B0C40913C0C90913D0C43
:104C500080913E0CF401B083A183B282A38254837D
:104C6000458396838783F4013297332339F080910B
:104C7000CA0B9091CB0B9183808302C01183008378
:104C800080914D0C91E0980F90934D0CF401339767
:104C90008083329771836083D40116972C93F70138
:104CA000B487A3878091D50B8F3061F08091860CFB
:104CB000811105C08091FE0B833021F406C0815024
:104CC000823018F062E070E002C063E070E041E022
:104CD000C7010E945010811104C081E08093870CAD
:104CE00004C0C6010E94B80C80E00F900F90DF91C5
:104CF000CF911F910F91FF90EF90DF90CF90BF90D9
:104D0000AF909F908F900895CF92DF92FF920F9374
:104D10001F93CF93DF938AE90E94B20CEC010097B6
:104D200009F4ACC0C880D9808CE0D6018C9312966F
:104D3000DC93CE93119716961C928091C80B90919C
:104D4000C90B9C012E5F3F4FF60122303105F0F474
:104D5000E057FF4F8091B80B80838091B90B81831E
:104D60008091BA0B82838091BB0B83838091BC0BB3
:104D700084838091BD0B85838091BE0B8683809157
:104D8000BF0B878380E090EC61E107C0EA56FF4FDC
:104D90009183808380E090E86BE02091CA0B309192
:104DA000CB0B40916C0C50916D0C2417350711F40E
:104DB000806403C06E5F3293229320916B0C23308A
:104DC000E9F438976A5FF0906E0C00916F0C1091C7
:104DD000700C7091710C5091720C4091730C309169
:104DE000740C2091750CF0820183128373835483B9
:104DF00045833683278381609C6008C020916E0CB8
:104E000030916F0C329322938160986040916C0CCA
:104E100050916D0C9F0122503109D9014D935C9343
:104E200040914D0C21E0240F20934D0C9F01235005
:104E30003109D9014C9322503109D9018D939C93AA
:104E400036976083D6011C96FC93EE931B9740E047
:104E500061E070E0888199810E945010811104C046
:104E600081E08093870C0AC0CE01DF91CF911F9122
:104E70000F91FF90DF90CF900C94B80CDF91CF9101
:104E80001F910F91FF90DF90CF9008950F931F9384
:104E9000CF93DF9300D000D0CDB7DEB70E94B80C1F
:104EA0008091860C823008F456C080916B0C823061
:104EB00019F48EE195E205C0833009F04CC089E316
:104EC00095E29A8389838EE69CE09C838B83BE0166
:104ED0006F5F7F4F84EE9BE00E94560D009719F4A0
:104EE0000E94842638C0DC010D911C91D8011B96CC
:104EF000ED91FC911C9740916C0C50916D0C2481AC
:104F000035814217530761F721E016962C931697C7
:104F100012969C938E931197BE016F5F7F4F84EE24
:104F20009BE00E94560D892B41F0D8011B96ED9114
:104F3000FC911C9781818061818340E061E070E099
:104F4000C8010E945010811104C081E08093870C39
:104F500002C0F80116820F900F900F900F90DF9112
:104F6000CF911F910F9108950F931F93CF93DF93CC
:104F7000FC0120915B0C30915C0CA90144E0549F32
:104F8000412D55271124742F632F66956695637004
:104F900009F441C0808191819093620C8093610CEF
:104FA0006230C9F41092630C1092640C1092650C7C
:104FB0001092660C1092670C1092680C1092690C9B
:104FC00010926A0C828193819093640C8093630C9D
:104FD000349684E021C0633019F0329682E01CC020
:104FE00002811381D481C581B681A7819085818595
:104FF0000093630C1093640CD093650CC093660C03
:10500000B093670CA093680C9093690C80936A0C22
:105010003A968AE001C080E0772309F447C026FD74
:1050200008C02191319130936D0C20936C0C8E5FF0
:1050300008C02091610C3091620C30936D0C20936C
:105040006C0C7230C1F410926E0C10926F0C1092B6
:10505000700C1092710C1092720C1092730C1092D2
:10506000740C1092750C2081318130936F0C209359
:105070006E0C8E5F1BC07330C9F4D081C181B281C8
:10508000A3817481358126819781D0936E0CC09362
:105090006F0CB093700CA093710C7093720C3093E2
:1050A000730C2093740C9093750C885F90915E0C38
:1050B0009550981B90937C0C40936B0C6093600C04
:1050C000DF91CF911F910F9108950F931F93CF936D
:1050D000DF93F801EC01A881B98156E15C93119648
:1050E0006C93119712964C93129714963C932E93AF
:1050F00013974230F9F415961C92159716961C9248
:10510000169717961C92179718961C92189719962F
:105110001C9219971A961C921A971B961C921B9711
:105120001C961C921C972081318116963C932E93DD
:10513000159706C0159628E001900D922A95E1F783
:10514000BC0189E89CE0DF91CF911F910F910C94F5
:10515000360D6F927F928F929F92AF92BF92CF92B5
:10516000DF92EF92FF920F931F93CF93DF93CDB710
:10517000DEB72E970FB6F894DEBF0FBECDBF3C0151
:10518000FC01808091808EE0F401DE011196019097
:105190000D928A95E1F72B813C818091CA0B909109
:1051A000CB0B2817390729F08E010B5F1F4F4A815F
:1051B000C0C0F4017282618283E08083EA56FF4FAF
:1051C00080838D85319680838091B80B3997808359
:1051D0008091B90B81838091BA0B82838091BB0B44
:1051E00083838091BC0B84838091BD0B85838091E8
:1051F000BE0B86838091BF0B87838A81D401823066
:1052000049F4A457BF4F8D819E8111969C938E9334
:1052100043E121C0AA57BF4F8D818C938E81119697
:105220008C9311978F8112968C9312978885139681
:105230008C931397898514968C9314978A85159669
:105240008C9315978B8516968C9316978C8517964D
:105250008C93179749E1FD01329731832083809128
:105260004D0C91E0980F90934D0C319780833297BD
:105270008A8190E0982F8827990F990F8366906C08
:105280009183808316974C93F401B487A387168289
:105290008091860C8250823008F050C08E85882321
:1052A00009F44CC0EA81E23069F42D813E814F81DE
:1052B000588569857A858B859C85ABE40E94564428
:1052C000F1F431C0E33079F52D813E814F8158856D
:1052D00069857A85A090370CB090380CC090390C55
:1052E000D0903A0CE0903B0CF0903C0C00913D0CBF
:1052F00010913E0C8B859C850E944D44A1F0B3011A
:1053000084EE9BE00E94360D80913F0C9091400C02
:10531000F4019583848388E00E949C09811131C047
:105320000E94AE2C2EC02B813C818E010B5F1F4F43
:105330004E2F68EEC3010E94652823C00E944D30A5
:10534000F301808191812091D50B2F3019F462E017
:1053500070E002C063E070E041E00E9450108111F3
:1053600004C081E08093870C0CC02B813C818E01AE
:105370000B5F1F4F4A8161EEC3010E9465280E94A6
:1053800018302E960FB6F894DEBF0FBECDBFDF915A
:10539000CF911F910F91FF90EF90DF90CF90BF9032
:1053A000AF909F908F907F906F900895CF93DF93F1
:1053B000DC01ED91FC9125E12083ABE5BCE0539647
:1053C000DC9153975496CC91549755967C91559770
:1053D00056966C91569757965C91579758964C9164
:1053E000589759963C9159975A962C91D183C283DC
:1053F00073836483558346833783208720917D0C94
:105400002187BC0189E89CE00E94360DE7E3FCE0BF
:1054100010821182128213821482158216821782E0
:105420008FEF9FEF9093420C8093410CDF91CF91CF
:1054300008956F927F928F929F92AF92BF92CF9278
:10544000DF92EF92FF920F931F93CF93DF93CDB72D
:10545000DEB728970FB6F894DEBF0FBECDBFDC01D4
:10546000762EED91FC91119719821A821B821C8273
:105470001D821E821F8218860384F485E02D6280BF
:1054800066946694862D8370682E8EEF860D82302A
:1054900080F47681678150854185328523859485A6
:1054A000858579836A835B834C833D832E839F83C9
:1054B00088878091860C8090CA0B9090CB0B8330AC
:1054C00041F482E08E010F5F1F4F9401681242C0C9
:1054D0003BC0823051F568120AC026813781809125
:1054E000410C9091420C2817390781F51EC083E0CA
:1054F00068122CC02681378140855185628573856D
:10550000A090370CB090380CC090390CD0903A0C69
:10551000E0903B0CF0903C0C00913D0C10913E0C47
:10552000848595850E944D4489F48091C80B9091A3
:10553000C90B0296029728F408EB1BE0940143E0A4
:105540000AC008EC1BE0940142E005C08E010F5F29
:105550001F4F9401462D672DCD010E946528289686
:105560000FB6F894DEBF0FBECDBFDF91CF911F9174
:105570000F91FF90EF90DF90CF90BF90AF909F90F2
:105580008F907F906F900895DC01ED91FC91E08108
:10559000E43270F4F0E0EE0FFF1FE858FE4F259163
:1055A00034912115310511F0F90109940C94B80CCE
:1055B0000895CF938091870C882311F0C0E00FC02D
:1055C0008091FC0B8823D1F360E070E088EF9BE0D2
:1055D0000E94510D009791F30E94C42AC1E080916E
:1055E000580C882359F060E070E084E59CE00E944C
:1055F000510D009719F00E94C42AC1E08C2FCF9161
:1056000008958091870C811115C080918D0C8111B6
:1056100011C08091FC0B81110DC08091580C81113B
:1056200009C08091AE0B811105C08091A80B91E05B
:105630008927089580E00895FC018681811105C0C5
:105640008481958101979583848380E00895FC018E
:105650008681811105C081E024813581232B09F0E9
:1056600080E0089521E0FC019381FB018081981383
:1056700020E0822F08950F931F93DC01ED91FC91A0
:1056800050E15083418362830383148325833683EF
:10569000BC0189E89CE01F910F910C94360D2F926C
:1056A0003F924F925F926F927F928F929F92AF92B2
:1056B000BF92CF92DF92EF92FF920F931F93CF93FF
:1056C000DF93CDB7DEB729970FB6F894DEBF0FBED4
:1056D000CDBFDC01ED91FC91119780917C0C811183
:1056E00004C0CD010E94B80C1EC190905F0C908E3A
:1056F0004091780C5091790C60917A0C70917B0CF0
:10570000418F528F638F748F20916B0C2183809116
:105710006C0C90916D0C938382838EEF820F82309C
:1057200050F5148215821682178210861186128611
:105730001386223039F480916E0C90916F0C958312
:10574000848323C070916E0C60916F0C5091700C2B
:105750004091710C3091720C2091730C9091740CEB
:105760008091750C748365835683478330872187C6
:10577000928783870AC0138212821482158216824E
:10578000178210861186128613868091E30B24807F
:1057900035804680578060847184828493859987A0
:1057A00098121BC0A090E90BB090EA0BC090EB0BD5
:1057B000D090EC0BE090ED0BF090EE0B0091EF0B26
:1057C0001091F00B9101A201B301882D0E944D446C
:1057D00021F4CD010E94B80C5DC09092E30B2092A1
:1057E000E90B3092EA0B4092EB0B5092EC0B60927B
:1057F000ED0B7092EE0B8092EF0B89858093F00B8E
:105800002091600C24871786108A118A128A138AC5
:10581000148A158A168A8091610C9091620C968781
:1058200085872330C9F47091630C6091640C5091AA
:10583000650C4091660C3091670C2091680C90913A
:10584000690C80916A0C7787608B518B428B338B0C
:10585000248B958B868B0BC0223039F48091630C9E
:105860009091640C908B878702C016861586809174
:10587000770C878B80917C0C858F80917D0C90912B
:105880007E0C978F868F81E18083BD0189E89CE043
:105890000E94360D80915B0C84FF45C08091860C80
:1058A000833009F442C080916B0C823079F480918E
:1058B0006E0C90916F0C9A83898300916C0C1091FF
:1058C0006D0C9E012F5F3F4F42E028C0833009F5E9
:1058D00080916E0C898380916F0C8A838091700C0B
:1058E0008B838091710C8C838091720C8D8380915D
:1058F000730C8E838091740C8F838091750C8887D4
:1059000000916C0C10916D0C9E012F5F3F4F43E096
:1059100005C000E010E020E030E040E060E080E022
:105920000E947E2502C00E94183029960FB6F89476
:10593000DEBF0FBECDBFDF91CF911F910F91FF90C2
:10594000EF90DF90CF90BF90AF909F908F907F901F
:105950006F905F904F903F902F900895EF92FF923D
:105960000F931F938091D50B8F3009F483E040E0B3
:105970005CE360E070E004C0440F551F661F771FB2
:105980008A95D2F7E12CF12C01EA1EE220E088E0B2
:105990000E94200A882341F080E090E01F910F913F
:1059A000FF90EF900C94A12E1F910F91FF90EF901C
:1059B00008955F926F927F928F929F92AF92BF9263
:1059C000CF92DF92EF92FF920F931F93CF93DF93CB
:1059D000CDB7DEB762970FB6F894DEBF0FBECDBF6E
:1059E0007C01FC010081118182E1F801DE01119648
:1059F00001900D928A95E1F7F801C180B280638130
:105A00007481D5848685A784F82FF4708F2E82FD4B
:105A10000EC09091F20B911104C09091FD0B99234F
:105A200031F000E010E098014D2D61EE48C12E816B
:105A30003F81582F5170952E80FF08C082E0B81228
:105A400005C02F3F9FEF390759F412C0C1100AC09B
:105A5000B1100BC000E010E098014D2D65EF2FC193
:105A6000CC2061F0E1E0CE1619F0F1E0BF1206C0E3
:105A700000E010E098014D2D68EE21C18DE0F801A5
:105A80008083D3821682A8E9B0E0AA19B109A00FD9
:105A9000B11FF2E0CF1209C047E04A0D8091C80B58
:105AA0009091C90B9E938E932FC053E0C51619F0A9
:105AB00045E04A0D29C018974DE04A0D5090B80BAB
:105AC0006090B90B7090BA0BF091BB0BE091BC0BDE
:105AD0005091BD0B9091BE0B8091BF0B5C921196C3
