:100000000C94DE020C94FD020C94FD020C94FD0293
:100010000C94FD020C94FD020C94CF220C94FD0272
:100020000C94FD020C94FD020C94FD020C94FD0254
:100030000C94FD020C94FD020C94FD020C94FD0244
:100040000C94FD020C94FD020C94FD020C94FD0234
:100050000C94FD020C94FD020C94FD020C94FD0224
:100060000C94FD020C947E1B0C94FD020C94AA1BB4
:100070000C94FD020C94FD020C94FD020C94FD0204
:100080000C94FD020C94FD020C94FD020C94FD02F4
:100090000C94FD020C94FD020C94FD020C94FD02E4
:1000A0000C94FD020C94FD020C94FD020C94FD02D4
:1000B0000C94FD020C94FD020C94FD020C94FD02C4
:1000C0000C94FD020C94FD020C94FD020C94FD02B4
:1000D0000C94FD020C94FD020C94FD020C94FD02A4
:1000E0000C94FD020C94BE1C0C94C81C0C94931C24
:1000F0000C94331C0C945E1C0C94D21C0C94081CA5
:100100000C94891C0C943F220C9468220C94FD02E0
:100110000C94FD020C94FD020C94E61C0C94DC1C67
:10012000741878187C188018491870188418592485
:100130004D24F0233B24F02388247A24F023F02359
:10014000F023F023F0238F24F023F023F023F02377
:10015000F023F0232D24F023F023052461425342A1
:100160004E42494244423C42374232427C417C4109
:100170007C417C417C417C417C417C417C417C4197
:100180007C417C417C417C417C417C417C417C4187
:100190007C417C417C417C417C417C417C417C4177
:1001A0007C417C417C417C417C417C417C417C4167
:1001B0007C417C417C417C417C417C417C417C4157
:1001C0007C417C417C417C417C417C417C417C4147
:1001D0007C417C417C417C417C417C417C412D4285
:1001E00028427C417C411D4218427C417C411342A3
:1001F0000242FA41F5417C41F041EB41E3417C414F
:10020000DE41D6417C41CE41C941C441BC41B741E8
:10021000AF417C417C41AA417C417C417C417C4195
:100220007C417C417C417C417C417C417C417C41E6
:100230007C417C417C417C417C417C417C417C41D6
:100240007C417C417C417C417C417C417C417C41C6
:100250007C417C417C417C417C417C417C417C41B6
:100260007C417C417C417C417C417C417C417C41A6
:100270007C417C417C417C417C417C417C417C4196
:100280007C417C417C417C417C417C417C417C4186
:100290007C417C417C417C417C417C417C417C4176
:1002A0007C417C417C417C417C417C417C417C4166
:1002B0007C417C417C417C417C417C417C417C4156
:1002C0007C417C417C417C417C417C417C417C4146
:1002D0007C417C417C417C417C417C417C417C4136
:1002E0007C417C417C417C417C417C417C417C4126
:1002F0007C417C417C417C417C417C417C417C4116
:100300007C417C417C417C417C417C417C417C4105
:100310007C417C417C417C417C417C417C417C41F5
:100320007C417C417C417C417C417C417C417C41E5
:100330007C417C417C417C417C417C4190419042AC
:1003400074429042904290427442744274427442A9
:1003500074427442744274427442744274427442ED
:1003600074427442744274427442744274427442DD
:1003700074427442744274427442744274427442CD
:1003800074427442744274427442744274427442BD
:1003900074427442744274427442744274427442AD
:1003A000744274427442744274427442744274429D
:1003B000744274427442744274427442744274428D
:1003C000E142E6429042EB42F042F94290427442EE
:1003D000FE4203431D4325437442904290429042A3
:1003E00074422A43904290423943514390424143E0
:1003F000904249437442744274427442744274425B
:10040000744274427442744274427442744274423C
:10041000744274427442744274427442744274422C
:10042000744274427442744274427442744274421C
:10043000744274427442744274427442744274420C
:1004400074427442744274427442744274427442FC
:1004500074427442744274427442744274427442EC
:1004600074427442744274427442744274427442DC
:1004700074427442744274427442744274427442CC
:1004800074427442744274427442744274427442BC
:1004900074427442744274427442744274427442AC
:1004A000744274427442744274427442744274429C
:1004B000744274427442744274427442744274428C
:1004C000744274427442744274427442744274427C
:1004D000744274427442744274427442744274426C
:1004E000744274427442744274427442744274425C
:1004F000744274427442744274427442744274424C
:10050000744274427442744274427442744274423B
:10051000744274427442744274427442744290420F
:1005200031471147F946B946AE464F464F46A346B6
:1005300098466746B94667466F46040303020201C0
:1005400000FFFEFDFCFBF9F7F4EF4933D92B072D33
:10055000213D553FD6386C4350416D41E640DD4763
:10056000AB4A00001A4CE0430000BE305830D03097
:10057000ED30DE30AA317031043100000000D2319C
:100580000D3220314A32C1312F32F33100323D3247
:10059000E631080101010101010101040108020124
:1005A0000101010201010201020101020102020135
:1005B00001010101040101010201010011241FBE1A
:1005C000CFEFD1E4DEBFCDBF1DE0A0E0B2E0E6EDAD
:1005D000F1EC00E00BBF02C007900D92A23BB10707
:1005E000D9F729E1A2EBBDE001C01D92AD38B207F9
:1005F000E1F70E9425540C94E9600C940000EF92FE
:10060000FF920F931F9362E081E00E948622E12C0B
:10061000F12C0FEF12E020E040E251EA67E070E0D9
:1006200085E00E9400201F910F91FF90EF900895A8
:10063000EF92FF920F931F93CF93DF9300D0CDB72C
:10064000DEB7811113C08091A81281111FC0809163
:10065000B70D9091B80D892B79F519821A82BE01D8
:100660006F5F7F4F83E50E942E5007C08091A812D4
:10067000811138C081E00E94FE4F0F900F90DF91F2
:10068000CF911F910F91FF90EF9008958AE095E030
:100690000E94A75D8091B70D9091B80D892B59F1FB
:1006A0008091A812882341F087E495E09F938F936F
:1006B0000E948D5D0F900F9000E024E040E058EF25
:1006C0006FEF77E081E00E949F50E12CF12C0FEF5B
:1006D00012E020E040E251EA67E070E085E00E942D
:1006E0000020CBCF88E695E09F938F930E948D5D8D
:1006F0000F900F90BFCF8091A812882309F4ADCF3F
:1007000086E195E09F938F930E948D5D0F900F90EF
:10071000A4CFCF92DF92EF920F939091A7129F5F99
:100720009093A712811171C04091A8124111CCC0C1
:10073000EE2009F478C0F6013C9680E008C025E17F
:10074000C20ED11C8F5F75968E1509F46CC0DF0147
:1007500011979C91943199F720812111F0CFD60106
:1007600011962D913C9112972E3B3A4541F7D601B7
:100770001D962D913C911E9737FFE1CF411168C026
:10078000D6018C91823009F4DBC0833009F044C07B
:10079000D6011396EC91139714967C9114971596A5
:1007A0006C91159716965C91169717963C91179732
:1007B00018962C91189719969C9119971A968C91C6
:1007C000E0939B1270939C1260939D1250939E1223
:1007D00030939F122093A0129093A1128093A212A3
:1007E000442341F084EF95E09F938F930E948D5DA9
:1007F0000F900F9020E8A601F601648583850F9184
:10080000EF90DF90CF900C94EE4E8A3E09F465C0D5
:100810008091A812811140C081E00F91EF90DF908C
:10082000CF900C94FE4F8091A712833008F043C004
:1008300041115BC000E024E040E058EF6FEF77E04B
:1008400081E00E949F500F91EF90DF90CF9008952C
:100850001F921F921F929F938AE58F938EEB8F9327
:1008600086E995E09F938F930E948D5DF6018081CC
:100870002DB73EB7285F3F4F0FB6F8943EBF0FBE6F
:100880002DBF4091A812823009F446C0833009F48C
:1008900061C0442309F4C0CF88E695E09F938F930D
:1008A0000E948D5D0F900F9081E00F91EF90DF908F
:1008B000CF900C94FE4F4111EFCF81E00F91EF905C
:1008C000DF90CF900C94FE4F86E895E00E94A75DE4
:1008D0004091A812E1102FCFA6CF8091A8128111CC
:1008E0000DC0933008F098CFA5CF8FE096E09F938E
:1008F0008F930E948D5D0F900F909CCF8AE496E0BD
:100900009F938F930E948D5D0F900F908091A712FF
:10091000833008F07DCF8ECF442391F080919A12DE
:100920008F93809199128F9383EC95E09F938F938F
:100930000E948D5D4091A8120F900F900F900F9024
:10094000D60113968D919C91149790939A1280934F
:10095000991246CF442309F41BCF8091A2128F93A2
:100960008091A1128F938091A0128F9380919F12FA
:100970008F9380919E128F9380919D128F9380917F
:100980009C128F9380919B128F9383EE95E09F939F
:100990008F930E948D5D4091A812EDB7FEB73A96F5
:1009A0000FB6F894FEBF0FBEEDBFF2CE8091A81235
:1009B000611110C0811113C085E00E946F2160E0B9
:1009C00081E00E94862283E090E09093AA128093B7
:1009D000A9120895811108C081E00C94FE4F87E8A8
:1009E00096E00E94A75DE8CF88E695E09F938F93FD
:1009F0000E948D5D0F900F9081E00C94FE4F089542
:100A000061110BC08091A812811108C081E0809310
:100A1000FA1661E082E00C948622089580EB96E05D
:100A20000E94A75D81E08093FA1661E082E00C9459
:100A30008622AF92CF92EF920F93CF93DF931F92C4
:100A4000CDB7DEB7811107C06335E9F0613409F431
:100A500056C06235A1F18091A81281110BC081E0CE
:100A60000E94FE4F0F90DF91CF910F91EF90CF90AA
:100A7000AF90089588E695E09F938F930E948D5DD7
:100A80000F900F90ECCF8091A812882341F088EC52
:100A900096E09F938F930E948D5D0F900F9081E061
:100AA0008983BE016F5F7F4F81E40E942E500F90BB
:100AB000DF91CF910F91EF90CF90AF9008958091FB
:100AC000A812882341F08CE497E09F938F930E94B3
:100AD0008D5D0F900F90A12CC12CEE24E3940FE0BC
:100AE0002FE040E064E18EEB9AE50E94D7500F9032
:100AF000DF91CF910F91EF90CF90AF9008958091BB
:100B0000A812882341F08BE097E09F938F930E9477
:100B10008D5D0F900F9081E08983BE016F5F7F4FE5
:100B200082E50E942E500F90DF91CF910F91EF90B0
:100B3000CF90AF900895811112C08091A8128111B9
:100B400015C085E00E946F2160E081E00E9486224E
:100B500082E090E09093AA128093A9120895809168
:100B6000A81281111DC081E00C94FE4F1F921F92AC
:100B70001F921F921F9284E18F938AE58F938EEBD1
:100B80008F9384E897E09F938F930E948D5D8DB73C
:100B90009EB70A960FB6F8949EBF0FBE8DBFD1CFF9
:100BA00088E695E09F938F930E948D5D0F900F9044
:100BB00081E00C94FE4F2F923F924F925F926F9282
:100BC0007F928F929F92AF92BF92CF92DF92EF92DD
:100BD000FF920F931F93CF93DF9300D000D000D0EC
:100BE000CDB7DEB7922E832E4983352E2B01782E7A
:100BF000692E2090A8122110B9C0E3EBF2E1FC832A
:100C0000EB8300E010E02A821E830D8329800AC056
:100C1000AD81BE811196BE83AD833A96A436B105EF
:100C200009F463C0A081B181109791F3A280B380D1
:100C3000C480D580E680F78000851185292D382D68
:100C4000A101B201872D962D0E94805909F72A80B3
:100C50000D811E81211024C08D01E12C292D382DFC
:100C60004981532DB201872D962D0E94324F269631
:100C70000FB6F894DEBF0FBECDBFDF91CF911F91AD
:100C80000F91FF90EF90DF90CF90BF90AF909F902B
:100C90008F907F906F905F904F903F902F9008952E
:100CA0008CE698E00E94A75DC801880F991F000F8D
:100CB000111F000F111F000F111F800F911F8D5466
:100CC0009D4E2090A812DC010D911C91222029F24A
:100CD0001F930F9384E898E09F938F930E948D5DFC
:100CE0000F900F900F900F90B8CF2A8020E030E047
:100CF0008901EB80FC800EC0F70180819181892BF6
:100D0000B1F00F5F1F4F9AE0E90EF11C0436110598
:100D100009F4D0C0222081F388E798E00E94A75D03
:100D20002090A812F70180819181892B51F79801B9
:100D30000F5F1F4FC901880F991F220F331F220F0A
:100D4000331F220F331F820F931FDC01AD54BD4EA2
:100D5000FD010193119312969C9281828981828375
:100D600033824482558276826782B0CF3F932F933D
:100D7000498100E10E9446593F932F93292D382D38
:100D80004981532DB201872D962D00E20E944659CC
:100D90003F932F93292D382D4981532DB201872D53
:100DA000962D00E30E9446593F932F9385EE97E0DE
:100DB0009F938F930E948D5D2090A8120FB6F89498
:100DC000DEBF0FBECDBF222009F417CF87E298E027
:100DD0000E94A75D03EB12E1E12CF12CECE3CE2E97
:100DE000E8E0DE2E1C830B83AB81BC811296FC9164
:100DF00012971396EC91139714962C9014971596BE
:100E0000AC9015971696BC90169717961C9117974D
:100E10001896BC91BA83AB81BC811996BC91BD83F5
:100E2000EF93FF932F2F3E2F422D5A2D6B2D712FB5
:100E30008A819D8100E10E9446593F932F932F2F75
:100E40003E2F422D5A2D6B2D712F8A819D8100E2FC
:100E50000E9446593F932F932F2F3E2F422D5A2DFC
:100E60006B2D712F8A819D8100E30E9446593F932B
:100E70002F93EB81FC8181818F9380818F93FF92EF
:100E8000EF92DF92CF920E948D5DFFEFEF1AFF0A83
:100E90008B819C810A969C838B830FB6F894DEBF6E
:100EA0000FBECDBFB4E6EB16F10409F09DCF209044
:100EB000A812A3CE211005C0EE24E3940FEF1FEF7C
:100EC000CDCE85EA98E00E94A75DEE24E3940FEF73
:100ED0001FEFC4CE6F927F928F929F92AF92BF927C
:100EE000CF92DF92EF92FF920F931F93CF93DF93F6
:100EF000CDB7DEB72F970FB6F894DEBF0FBECDBFCC
:100F0000142F7901AC86BD86CE86DF8660E082E054
:100F10000E948622CE010C960E94111F4C855D8591
:100F20006E857F858091AB129091AC12A091AD122D
:100F3000B091AE124093AB125093AC126093AD12CD
:100F40007093AE12481B590B6A0B7B0B4115510570
:100F500021E06207710520F04FEF5FEF60E070E085
:100F6000D70111968C91813F09F473C1823F09F436
:100F7000FEC0803FE9F08091A812811100C261E0BB
:100F800082E00E9486222F960FB6F894DEBF0FBE35
:100F9000CDBFDF91CF911F910F91FF90EF90DF9028
:100FA000CF90BF90AF909F908F907F906F9008955B
:100FB0008091A8128111D7C1112309F449C0A12E33
:100FC000B12CF5013497852E80E090E03501B3E037
:100FD0006B1A710822E0A21AB10820C068167906BF
:100FE00009F4A3C0A816B90609F4B0C06701C80E79
:100FF000D91ED6019C9030E0220F331FC0902417D9
:10100000D09025172C0D3D1DD9012D913C91280F15
:10101000391FD9019C9201968117C0F42091FE16C8
:101020008E179F07D9F630E0220F331FC090241788
:10103000D09025172C0D3D1DD9012D913C91280FE5
:10104000391FD9014C930196811740F38091A81262
:101050009091FE169F5F9093FE16882309F48FCF20
:101060009E012F5F3F4F7F936F935F934F931F922C
:101070000F931F921F933F932F93F70181811F922C
:101080008F9385ED98E09F938F930E948D5D0FB6AF
:10109000F894DEBF0FBECDBF112379F1BE2C1150E5
:1010A000012F10E00F5F1F4F0E0D1F1D67018DE513
:1010B000882E89E0982E07C080E290E00E94A15D12
:1010C000C016D106D1F0FC2CFB18F60181916F01FE
:1010D0001F928F939F928F920E948D5D8F2D8770AC
:1010E0000F900F900F900F90873031F78AE090E0CB
:1010F0000E94A15DC016D10631F7809127171F927B
:101100008F93809122171F928F938091FE161F92CA
:101110008F9385E399E09F938F930E948D5D0FB627
:10112000F894DEBF0FBECDBF2ACF30E0220F331FB1
:10113000C0902417D09025172C0D3D1DD9012D915D
:101140003C91260D371DD9018C9265CF30E0220FDE
:10115000331FC0902417D09025172C0D3D1DD901A9
:101160002D913C912A0D3B1DD9010C9354CF8091B8
:10117000A8128111ECC0112309F445C0A12EB12C95
:10118000F5013497852E80E090E06501A3E0CA1A4E
:10119000D108B2E0AB1AB1081DC08C159D05C9F18C
:1011A0008A159B0509F445C0D701A80FB91F9C906B
:1011B00030E0220F331FA091F016B091F116A20F6C
:1011C000B31F0D90BC91A02DA80FB91F9C92019642
:1011D0008117B8F4209127178E179F07F1F630E09A
:1011E000220F331FA091F016B091F116A20FB31F7A
:1011F0000D90BC91A02DA80FB91F4C93019681179B
:1012000048F38091A812909127179F5F909327171A
:1012100024CF30E0220F331FA091F016B091F116C9
:10122000A20FB31F0D90BC91A02DA80FB91F8C92D7
:10123000CECF30E0220F331FA091F016B091F116FF
:10124000A20FB31F0D90BC91A02DA80FB91F0C9336
:10125000BECF8091A81281116EC0112309F445C040
:10126000A12EB12CF5013497852E80E090E0650128
:10127000B3E0CB1AD10822E0A21AB1081DC08C1528
:101280009D05C9F18A159B0509F445C0D701A80F32
:10129000B91F9C9030E0220F331FA091FB16B09134
:1012A000FC16A20FB31F0D90BC91A02DA80FB91F63
:1012B0009C9201968117B8F4209122178E179F07F0
:1012C000F1F630E0220F331FA091FB16B091FC160F
:1012D000A20FB31F0D90BC91A02DA80FB91F4C9366
:1012E0000196811748F38091A812909122179F5F71
:1012F00090932217B2CE30E0220F331FA091FB163D
:10130000B091FC16A20FB31F0D90BC91A02DA80F99
:10131000B91F8C92CECF30E0220F331FA091FB1665
:10132000B091FC16A20FB31F0D90BC91A02DA80F79
:10133000B91F0C93BECF9BE0E4E6F9E09E012F5F5E
:101340003F4FD90101900D929A95E1F786CF98E031
:10135000E5ECF8E09E012F5F3F4FD90101900D921F
:101360009A95E1F708CF9AE0EBEBF8E09E012F5F4A
:101370003F4FD90101900D929A95E1F71DCE88E07B
:10138000EDECF8E09E012F5F3F4FD90101900D92E7
:101390008A95E1F768CEEF92FF920F931F93CF9358
:1013A000DF93CDB7DEB72C970FB6F894DEBF0FBE34
:1013B000CDBF182F86E00E946F218091A81288234C
:1013C000E1F0112309F460C0113009F452C027E0A4
:1013D000E8E7F9E0CE010196DC0101900D922A9533
:1013E000E1F79F938F938FE799E09F938F930E94EC
:1013F0008D5D0F900F900F900F901123C9F0113059
:1014000009F45EC08091A81281110DC02C960FB610
:10141000F894DEBF0FBECDBFDF91CF911F910F912A
:10142000FF90EF9008958BEC99E00E94A75DEECFBE
:101430000E94C8186093241870932518809326186A
:10144000909327182091A812211129C060E074E020
:1014500081E00E948818EE24E394F12C0BEC19E053
:1014600020E04CE150E260E070E086E00E94002065
:10147000CDCF2CE0EDEDF9E0CE010196DC0101903D
:101480000D922A95E1F7ADCF29E0EFE6F9E0CE0124
:101490000196DC0101900D922A95E1F7A2CF9F936E
:1014A0008F937F936F938AEA99E09F938F930E9423
:1014B0008D5D0F900F900F900F900F900F90C6CFF3
:1014C0000E94C818609328187093291880932A18CE
:1014D00090932B182091A812222381F09F938F9331
:1014E0007F936F938BEB99E09F938F930E948D5D19
:1014F0000F900F900F900F900F900F908BE090E057
:101500009093AA128093A91281CFACEBB6E1EBE2E3
:10151000F7E180E090E021E08D939D9321938A563E
:101520009F4F803639E09307B9F70895BF92CF9265
:10153000DF92EF92FF920F931F93CF93DF938091EF
:10154000A812811180C0CBE2D7E10CEB16E1E12CAF
:10155000F12C2091B70D3091B80DBB24B394CC245D
:10156000C394D12C1AC0808191818F3FF3E09F07F3
:10157000F0F50196F8019183808322303105D9F08E
:101580002130310559F121960E5F1F4FF2E0EF0E29
:10159000F11C47E1CB33D407A9F18881F80181110F
:1015A000E2CF80819181009741F1019791838083FF
:1015B0002230310529F7F80180819181F701E45645
:1015C000F94E918380838EE190E00E94331F209139
:1015D000B70D3091B80D21303105A9F6F8018081A1
:1015E0009181F701E050F94E91838083CCCF18822E
:1015F0000197F80191838083C0CFB882F801D1822E
:10160000C082BBCF87E090E09093AA128093A9128A
:101610008091A81281110AC0DF91CF911F910F9183
:10162000FF90EF90DF90CF90BF90089580E195E01C
:10163000DF91CF911F910F91FF90EF90DF90CF90AE
:10164000BF900C94A75D89EE99E09F938F930E94C1
:101650008D5D0F900F9077CF8091A812882341F075
:101660008AEF99E09F938F930E948D5D0F900F906A
:1016700081E0089586EA0E94F61C81110EC08DE279
:101680000E94491D811109C088E00E94491D8111F5
:1016900004C00E94411D81E008950E94411D80E028
:1016A00008950F931F93CF938091A812811134C096
:1016B00084B1876084B9239885B1896085B982E552
:1016C0008CBD8DB581608DBD0E942E1880EF9AE093
:1016D0000E94331F0EE218E1C1E08C2F0E943818DF
:1016E000F801819391938F010196F9F0CF5FC83093
:1016F000A1F7C091A812C11106C0C1E08C2FCF91F3
:101700001F910F91089580E195E00E94A75D8C2FB5
:10171000CF911F910F9108958FE09AE09F938F933F
:101720000E948D5D0F900F90C3CFC091A812CC2363
:1017300029F388E29AE00E94A75DC0E0DFCFEF9234
:10174000FF920F931F93CF93DF93CDB7DEB72E9702
:101750000FB6F894DEBF0FBECDBFE82E8091A81261
:10176000882301F1EE20C9F12CE0EDEDF9E0CE0186
:101770000196DC0101900D922A95E1F77F936F931A
:101780009F938F9384E49AE09F938F936D877E87D6
:101790000E948D5D0F900F900F900F900F900F9003
:1017A0007E856D858E2D0E948818F12C0BEC19E03A
:1017B00020E04CE150E260E070E086E00E94002012
:1017C0002E960FB6F894DEBF0FBECDBFDF91CF913E
:1017D0001F910F91FF90EF90089529E0EFE6F9E057
:1017E000CE010196DC0101900D922A95E1F7C6CF5A
:1017F0008091A81281111BC0EBE3F7E1119288E1FF
:10180000E330F807D9F710922817809880917E006E
:10181000816080937E0081E880937A008091A81295
:10182000811101C0089580E195E00C94A75D8FE7D8
:101830009AE09F938F930E948D5D0F900F90DCCF65
:101840000F931F93CF93DF9300D000D0CDB7DEB7B7
:101850008091A8128111B0C080E480937C008091B7
:101860007A00806480937A0080917A0084FFFCCFB4
:1018700080917A00806180937A00809178009091C5
:1018800079009C838B838B819C81883E934050F4AC
:101890008B819C81893F924008F049C060E000E064
:1018A00010E003C06FEF0FE014E680912817282F97
:1018B00030E0F901E55CF84E6083273C31059CF18E
:1018C000109228171A821982EBE3F7E1219189819E
:1018D0009A81820F911D9A83898388E1E330F8070A
:1018E000A9F7609303188091A812882399F08B813F
:1018F0009C811F920F931F921F939F938F9387EC4E
:101900009AE09F938F930E948D5D0FB6F894DEBF8F
:101910000FBECDBF0F900F900F900F90DF91CF9122
:101920001F910F9108958F5F80932817CBCF6B8104
:101930007C81685F724080E090E00E94B75A20E0AE
:1019400030E040E753E40E94165A20E030E048ECD3
:1019500052E40E94455B0E94885A162F6B817C815D
:10196000685F724080E090E00E94B75A20E030E06B
:1019700040E753E40E94165A20E030E040E751E48B
:101980000E94455B0E94885A062F6B817C81685FAC
:10199000724080E090E00E94B75A20E030E040E7DB
:1019A00053E40E94165A20E030E04FE753E40E94CF
:1019B000455B0E94885A79CF8CEA9AE09F938F9377
:1019C0000E948D5D0F900F9047CFCF93DF93EC0176
:1019D0008091A81281110CC02097A1F0219709F4E1
:1019E0004AC08091CE0D1092FD16DF91CF910895DF
:1019F00080EF9AE09F938F930E948D5D0F900F90E0
:101A0000209761F78CE30E94F61C81112EC080E0C4
:101A10000E94491D811129C080E70E94491D811142
:101A200024C08CE30E943F1D81111FC081E00E94F1
:101A3000491D81111AC080EE0E94491D811115C0F7
:101A40008CE30E943F1D811110C082E00E94491D5D
:101A500081110BC082E00E94491D811106C00E94C5
:101A6000411D81E08093CE0DBECF0E94411D80E0DC
:101A7000DF91CF91089581E08093CE0DB4CF8CE3B8
:101A80000E94F61C81110DC082E00E94491D811147
:101A900008C00E94491D811104C00E94411D81E0BF
:101AA00008950E94411D80E008950F931F93CF93E6
:101AB000DF93EC018091A81281110FC0C230D105D3
:101AC00009F480C1C330D105A1F0219709F4A1C068
:101AD000DF91CF911F910F91089588EF9AE00E94B6
:101AE000A75DC230D10509F46DC1C330D10509F03D
:101AF000A2C2E091F016F091F1160190F081E02D74
:101B000081E48083E091F016F091F1160190F0816C
:101B1000E02D82EF8183E091F016F091F116A08123
:101B2000B1818AE51E968C93A081B1818091F216D5
:101B300012968C93A081B1818091F31613968C93A9
:101B4000A081B1818091F41614968C93A081B1810B
:101B50008091F51615968C93A081B1818091F6162F
:101B600016968C93A081B1818091F71617968C936D
:101B7000A081B1818091F81618968C93A081B181D3
:101B80008091F91619968C93A081B18180910318E8
:101B90008F701A968C938091A812882309F498CF9D
:101BA0000190F081E02D80811F928F9382E095E07B
:101BB0009F938F930E948D5D0F900F900F900F90C9
:101BC000C1E0D0E002E015E0CF30D105E9F0E091CE
:101BD000F016F091F1160190F081E02DEC0FFD1F51
:101BE00080811F928F931F930F930E948D5D0F90A2
:101BF0000F900F900F908C2F8770873009F42BC2B5
:101C00002196CF30D10519F78AE090E00E94A15DBE
:101C100015C2E0912417F09125170190F081E02D75
:101C200081E48083E0912417F09125170190F081E1
:101C3000E02D80EF8183A0912417B0912517ED91BD
:101C4000FC9111978AE5868BE0E0F7E182E090E075
:101C500004C0A0912417B0912517208132960D90D1
:101C6000BC91A02DA80FB91F2C93019627E1EA3152
:101C7000F20779F7E0912417F0912517A081B1813F
:101C800080910717982F9370809101178295880F84
:101C9000880F807C892B9091031793709295907F89
:101CA000892B909105179370990F990F892B1F9687
:101CB0008C93A081B18180910F17982F93708091A0
:101CC00009178295880F880F807C892B90910B17BC
:101CD00093709295907F892B90910D179370990F27
:101CE000990F892B50968C93A081B1818091171701
:101CF000982F9370809111178295880F880F807CA0
:101D0000892B9091131793709295907F892B9091C6
:101D100015179370990F990F892B51968C93A08169
:101D2000B181809119178295880F880F807C489B1C
:101D3000A4C190E0892B52968C938091A81288239D
:101D4000D1F10190F081E02D80811F928F9382E08C
:101D500095E09F938F930E948D5D0F900F900F9051
:101D60000F90C1E0D0E002E015E0C731D105E9F005
:101D7000E0912417F09125170190F081E02DEC0FF0
:101D8000FD1F80811F928F931F930F930E948D5D83
:101D90000F900F900F900F908C2F8770873009F461
:101DA00066C12196C731D10519F78AE090E00E94FB
:101DB000A15D8091A81223E030E03093AA12209315
:101DC000A9123EC1E091FB16F091FC160190F08142
:101DD000E02D81E48083E091FB16F091FC160190E8
:101DE000F081E02D81EF8183A091FB16B091FC166C
:101DF000ED91FC9111978AE581A7ECE9F6E182E08B
:101E000090E004C0A091FB16B091FC1620813296A0
:101E10000D90BC91A02DA80FB91F2C93019626E11F
:101E2000E43BF20779F7E091FB16F091FC16A081F4
:101E3000B1818091A316982F937080919D16829501
:101E4000880F880F807C892B90919F1693709295B4
:101E5000907F892B9091A1169370990F990F892BE0
:101E60001E968C93A081B1818091AB16982F9370B0
:101E70008091A5168295880F880F807C892B909180
:101E8000A71693709295907F892B9091A9169370C5
:101E9000990F990F892B1F968C93A081B181809106
:101EA000B316982F93708091AD168295880F880F86
:101EB000807C892B9091AF1693709295907F892B9F
:101EC0009091B1169370990F990F892B50968C931E
:101ED000A081B1818091DC163091DD1651968C93F2
:101EE000A081B1818091DE162091DF1652968C93ED
:101EF000A081B1818091E0169091E11653968C9368
:101F0000A081B1814091E2168091E31654964C93E2
:101F1000A081B18155963C93A081B18156962C93B6
:101F2000A081B18157969C93A081B18158968C93E2
:101F3000A081B1818091E4162091E51659968C9389
:101F4000A081B1818091E6169091E7165A968C9304
:101F5000A081B1813091E8168091E9165B963C939F
:101F6000A081B1815C962C93A081B1815D969C93F8
:101F7000A081B1815E968C93A081B1818091EA1697
:101F80002091EB165F968C93A081B1818091EC1625
:101F90009091ED1690968C93A081B1813091EE16C0
:101FA0008091EF1691963C93A081B18192962C93EB
:101FB000A081B18193969C93A081B18194968C93DA
:101FC000A081B18195961C928091A812882309F472
:101FD0007FCD0190F081E02D80811F928F9382E070
:101FE00095E09F938F930E948D5D0F900F900F90BF
:101FF0000F90C1E0D0E002E015E0CA32D10509F44B
:1020000003CEE091FB16F091FC160190F081E02DDB
:10201000EC0FFD1F80811F928F931F930F930E94DF
:102020008D5D0F900F900F900F908C2F87708730E1
:10203000C1F02196E2CF219709F4EBCD8091A8124F
:10204000882309F445CD81E29BE0DF91CF911F9178
:102050000F910C94A75D8AE090E00E94A15D21960B
:10206000D0CD8AE090E00E94A15D2196C6CF8AE0A3
:1020700090E00E94A15D219695CE98E05BCECF9234
:10208000DF92EF92FF920F931F93CF93DF93CDB721
:10209000DEB72F970FB6F894DEBF0FBECDBF8C0111
:1020A000CE010C960E94EB1E4C855D856E857F856A
:1020B0008091AF129091B012A091B112B091B21272
:1020C0006A017B01C81AD90AEA0AFB0A29E8C21682
:1020D00023E1D206E104F10408F450C02091A812D3
:1020E00021115BC04093AF125093B0126093B112B4
:1020F0007093B21282E089838EEB9AE59B838A8388
:102100008091991290919A129D838C830E940D5216
:10211000882311F11092FA1660E082E00E94862274
:102120000230110509F468C00330110509F453C0E9
:102130000130110519F5E0912417F0912517208140
:102140003181EE24E39400E047E1BE016F5F7F4FF1
:1021500082E00E947B4E12C00000000000000000E0
:10216000000000000000000000000000000000006F
:1021700000000000000000001092FA162F960FB623
:10218000F894DEBF0FBECDBFDF91CF911F910F91AD
:10219000FF90EF90DF90CF900895C701B60128EE31
:1021A00033E040E050E00E945E587F936F935F936E
:1021B0004F933F932F9388E29BE09F938F930E94CE
:1021C0008D5D4C855D856E857F850FB6F894DEBF8D
:1021D0000FBECDBF87CFE091F016F091F1162081B0
:1021E0003181EE24E39400E04FE0BE016F5F7F4F4A
:1021F00082E00E947B4EC2CFE091FB16F091FC166C
:1022000020813181EE24E39400E04AE2BE016F5F59
:102210007F4F82E00E947B4EB1CF80ED0E94F61C82
:1022200081110EC08EE30E94491D811109C081E019
:102230000E94491D811104C00E94411D81E0089542
:102240000E94411D80E00895AF92BF92CF92DF922D
:10225000EF92FF920F931F93CF93DF93C82FD62F48
:10226000E42EC42ED12CC6010E94B25B5C01892BE6
:1022700009F443C08C2F0E94F61C811141C08D2FA0
:102280000E94491D81113CC08C2F81600E943F1D1E
:10229000811136C0EE2019F181E0C81AD1088501FC
:1022A000EA94F12CEFEFEE1AFE0AC0E0D0E00AC08B
:1022B0000E94651DF801808321960F5F1F4FCE1588
:1022C000DF0569F0CC15DD059CF70E945B1DF80168
:1022D000808321960F5F1F4FCE15DF0599F70E946F
:1022E000411DC501DF91CF911F910F91FF90EF909C
:1022F000DF90CF90BF90AF90089580E090E0F2CF54
:102300000E94411D80E090E0EDCFCF93DF93EC0180
:102310008091A81281110AC0209791F0219709F4A9
:1023200054C08091D10DDF91CF91089583E59BE05A
:102330009F938F930E948D5D0F900F90209771F760
:1023400086EA0E94F61C81113AC082E30E94491D70
:10235000811135C087EA0E943F1D811130C0109263
:10236000D60D22C00E945B1D8093D50D0E945B1D7F
:102370008093D40D282F30E0322F22278091D50D65
:10238000282B3093D30D2093D20D8091D60DE82FBA
:10239000F0E0EE0FFF1FE651F94E318320838F5F8F
:1023A0008093D60D8330F0F58230E1F60E945B1DFC
:1023B0008093D50D0E94651D8093D40DDBCF0E94C4
:1023C000411D80E0DF91CF91089546E06BE380ED01
:1023D0000E942411FC019093D00D8093CF0D892B86
:1023E00039F1808190E0982F88272181822B90936A
:1023F000ED168093EC16828190E0982F8827238138
:10240000822B9093EB168093EA16848190E0982FAC
:1024100088272581822B9093EF168093EE16CF01AB
:102420000E94475C81E08093D10DDF91CF910895A8
:1024300080E079CFCF93DF93EC018091A8128111D6
:102440000AC0209771F0219709F44EC08091C80D01
:10245000DF91CF91089584E79BE00E94A75D2097CC
:1024600091F78CE30E94F61C811138C083E00E9432
:10247000491D811133C08DE30E943F1D81112EC083
:102480001092CD0D20C00E945B1D8093CC0D0E9448
:102490005B1D8093CB0D9091CC0D282F30E0392B14
:1024A0003093CA0D2093C90D8091CD0DE82FF0E037
:1024B000EE0FFF1FEC51F94E318320838F5F809325
:1024C000CD0D8330F0F58230F1F60E945B1D8093D4
:1024D000CC0D0E94651D8093CB0DDDCF0E94411D68
:1024E00080E0DF91CF91089546E064E088E10E94AA
:1024F0002411FC019093C70D8093C60D892B39F1EF
:10250000808190E0982F88272181822B9093E51677
:102510008093E416828190E0982F88272381822B74
:102520009093E7168093E616848190E0982F882791
:102530002581822B9093E9168093E816CF010E94A3
:10254000475C81E08093C80DDF91CF91089580E0D2
:102550007FCFCF93DF93EC018091A81281110AC045
:10256000209771F0219709F451C08091BF0DDF9140
:10257000CF9108958EE89BE00E94A75D209791F788
:1025800080ED0E94F61C8130A9F18BE10E94491D6B
:10259000813081F181ED0E943F1D813059F110920F
:1025A000C20D80E01CC00E945B1D8093C10D0E9483
:1025B0005B1D8093C00D9091C10D282F30E080915C
:1025C000C20DE82FF0E0EE0FFF1FE452F94E392B59
:1025D000318320838F5F8093C20D843088F48330F1
:1025E00011F70E945B1D8093C10D0E94651D8093B1
:1025F000C00DE1CF0E94411D80E0DF91CF91089591
:1026000081E08093BF0DDF91CF91089546E063E4B0
:1026100080ED0E942411FC019093BE0D8093BD0DAE
:10262000892B09F440C0808190E0982F8827218170
:10263000822B9093E1168093E016828190E0982F90
:1026400088272381822B9093DF168093DE16848166
:1026500090E0982F88272581822B9093E316809312
:10266000E216CF010E94475CC1E0C093BF0D42E07B
:1026700061E480ED0E9424119093BE0D8093BD0D06
:10268000009789F0FC01208130E0322F2227418120
:10269000242B3093DD162093DC160E94475CC093F8
:1026A000BF0D81E064CF80E062CFCF92DF92FF92D6
:1026B0000F931F93CF93DF931F92CDB7DEB7F42E06
:1026C000152F022F69830E94F61C698181111AC09F
:1026D000862F0E94491D811115C00023F9F0CF2CCF
:1026E000D12E015010E00F5F1F4F0C0D1D1D03C0B8
:1026F000C016D10699F0F60181916F010E94491D23
:102700008823B1F30E94411D80E00F90DF91CF91AB
:102710001F910F91FF90DF90CF9008950E94411D6F
:1027200081E0F3CF1F93CF93DF93EC018091A81248
:1027300081110CC02097A1F02197E9F18091D90D6A
:1027400010922317DF91CF911F9108958AEA9BE0A1
:102750009F938F930E948D5D0F900F90209761F74C
:1027600086EA0E94F61C81111FC08CE20E94491D5E
:1027700081111AC08BE00E94491D811115C086EAA3
:102780000E943F1D811110C081E30E94491D8111EB
:102790000BC089E00E94491D811106C00E94411DA5
:1027A00081E08093D90DCCCF0E94411D80E0DF9164
:1027B000CF911F910895C091D70DD091D80D18E0F9
:1027C000188321E0AE0169E180ED0E94551381116B
:1027D00002C080E0B7CF188321E0AE016CE180ED4C
:1027E0000E9455138823A9F391E09093D90DA8CFA7
:1027F000CF93DF93EC018091A81281110CC0209738
:10280000A1F0219709F44AC08091C50D1092FF16DE
:10281000DF91CF9108958AEB9BE09F938F930E9465
:102820008D5D0F900F90209761F780ED0E94F61C50
:1028300081112EC085E10E94491D811129C082E3CA
:102840000E94491D811124C080ED0E943F1D81110D
:102850001FC086E10E94491D81111AC08CE10E94AF
:10286000491D811115C080ED0E943F1D811110C0CE
:102870008EE30E94491D81110BC080E40E94491D16
:10288000811106C00E94411D81E08093C50DBECF1D
:102890000E94411D80E0DF91CF9108954091C30DCA
:1028A0005091C40D88E1FA01808321E06BE180ED55
:1028B0000E945513882309F4ABCF91E09093C50D86
:1028C000A5CFCF93DF93EC018091A812811119C09D
:1028D000C130D10529F1C130D105B8F1229771F489
:1028E0008FEF9FEF9093E5168093E4169093E71691
:1028F0008093E6169093E9168093E816DF91CF91C6
:102900000895DF93CF9386EC9BE09F938F930E9473
:102910008D5D0F900F900F900F90C130D105D9F6BB
:102920008FEF9FEF9093DD168093DC169093DF1668
:102930008093DE169093E1168093E0169093E31651
:102940008093E216DF91CF9108958FEF9FEF9093E0
:10295000EB168093EA169093ED168093EC16909305
:10296000EF168093EE16DF91CF910895CF93DF930A
:10297000EC018091A81281110EC0CD2B21F081E0D5
:10298000DF91CF9108950E943A0B81110DC080E034
:10299000DF91CF91089588EE9BE09F938F930E94E3
:1029A0008D5D0F900F90E9CF0E940D11882379F370
:1029B000DF91CF910C943F0D992781309105F1F073
:1029C0008230910579F0892B09F0089580912917BB
:1029D00090912A170E94F8138823E1F081E08093F8
:1029E000FF1608958091291790912A170E9492133B
:1029F000882381F081E0809323170895809129171F
:102A000090912A170E94E50C882321F081E08093A1
:102A1000FD1608950C94411D8091A81281111AC0D1
:102A200084B3887F84BB5E9883B3876083BB569AE8
:102A3000819880917E00826080937E0082E88093FE
:102A40007A008091A812811101C0089580E195E07B
:102A50000C94A75D89EF9BE09F938F930E948D5DFF
:102A60000F900F90DDCF0F931F93CF93DF93809143
:102A7000A812811156C084B3887F84BB5E98C4E0DD
:102A8000D8E1FE0190E041E4983050F594BB5E98A7
:102A900040937C0080917A00806480937A008091DA
:102AA0007A0084FFFCCF80917A00806180937A0065
:102AB0002091780030917900219331939F5F90317C
:102AC00019F78091A812811110C085E090E09093D1
:102AD000AA128093A912DF91CF911F910F910895AF
:102AE000892F877084BB5E9AD3CF84E19CE00E94DB
:102AF000A75D04E015E08881998122969F938F93CA
:102B00001F930F930E948D5D0F900F900F900F9069
:102B100088E1C432D80779F78AE090E00E94A15D8D
:102B2000D4CF89EE99E09F938F930E948D5D0F9093
:102B30000F90A1CFCF93DF932091A812211121C034
:102B40008130910561F10297C9F4C7E0D2E0ACE9A8
:102B5000B6E1E991F0E0EE0FFF1FEC5FF74E8081E8
:102B600091818D939D9386E1AC3BB80791F780915D
:102B700022178F5F8093221721112AC0DF91CF91F6
:102B80000895EC018EE29CE09F938F930E948D5DEF
:102B90000F900F902091A812C130D105F9F4C7E130
:102BA000D2E0A0E0B7E1E991F0E0EE0FFF1FEC5FAB
:102BB000F74E808191818D939D9387E1A032B80774
:102BC00091F78091FE168F5F8093FE162223B1F25B
:102BD00080E195E0DF91CF910C94A75D229709F4F5
:102BE000B4CFCACFCF93DF932091A9123091AA120C
:102BF0002330310508F43EC0EC012730310509F4DB
:102C000067C0D0F423303105C1F12530310579F4A6
:102C100086E090E09093AA128093A912CE010E94C0
:102C20009A1587E090E09093AA128093A912CE01A2
:102C3000DF91CF910C943F102B303105B1F12D3045
:102C40003105A9F78EE090E09093AA128093A91223
:102C50008091FA16811189C0CE010E94550D83E042
:102C600090E09093AA128093A912CE01DF91CF91A8
:102C70000C943F10DF91CF91089562E081E00E94B3
:102C80008622CE010197029708F472C0C330D105A5
:102C900071F68AE090E09093AA128093A91260E006
:102CA00074E080E00E949F0BC2CF8CE090E0909394
:102CB000AA128093A9120E94F3188DE090E09093DD
:102CC000AA128093A912CE01DF91CF910C943F10EC
:102CD00081309105C9F1029709F0A9CF809126179B
:102CE0008823E9F08091B50D90910502891708F0CD
:102CF00070C08F5F8093B50D8091B40D90910402E8
:102D0000891708F055C08F5F8093B40D8091B60D80
:102D1000909106028917D8F58F5F8093B60D8EE0EB
:102D200090E09093AA128093A9128091FA168111D3
:102D30002BC082E090E00E94550D83E090E09093DC
:102D4000AA128093A91273CF8EE090E09093AA12FA
:102D50008093A91281E090E00E94550D83E090E0FD
:102D60009093AA128093A91262CF0E94200C74CF74
:102D700010929B1684E090E09093AA128093A9127F
:102D8000CE010E94331553CF0E94200CD2CF88E091
:102D900090E09093AA128093A912809129179091A4
:102DA0002A170E948511882329F11092B60DB7CFFA
:102DB00088E090E09093AA128093A912809129173D
:102DC00090912A170E941A128823C9F01092B40D0C
:102DD0009DCF88E090E09093AA128093A9128091F1
:102DE000291790912A170E94A912882369F010923E
:102DF000B50D82CF80E090E00E946114D6CF82E0D2
:102E000090E00E946114E2CF81E090E00E946114A2
:102E1000EECFCF93DF938091A812811173C0C09140
:102E2000BB0DD091BC0D81E0888321E0AE016BE643
:102E300080ED0E945513882371F08091A8128111B2
:102E40006AC08EE0888321E0AE016CE180ED0E94D3
:102E50005513811104C080E0DF91CF91089544E0C3
:102E60006DE080ED0E9424119093BA0D8093B90D0E
:102E7000009789F30E94475C8091A812811154C089
:102E800082E0888321E0AE0167E380ED0E94551364
:102E9000882309F3188221E0AE016AE088E10E94EC
:102EA00055138823C1F280E4888321E0AE016CE0F1
:102EB00088E10E945513882371F28FE0888321E016
:102EC000AE016AE088E10E945513882321F284EF65
:102ED00091E00E94331F46E063E088E10E942411E4
:102EE0009093BA0D8093B90D009709F4B4CF0E9466
:102EF000475C188221E0AE016CE088E1DF91CF9160
:102F00000C9455138FE39CE09F938F930E948D5DEB
:102F10000F900F9084CF8EE59CE09F938F930E943B
:102F20008D5D0F900F908DCF88E79CE09F938F93DE
:102F30000E948D5D0F900F90A3CFCF93DF93EC0194
:102F40008091A812811148C0ECEDF6E11192119226
:102F500086E1E03FF807D1F70E94F01C2097A1F02E
:102F6000219729F0C1E08C2FDF91CF9108958091B6
:102F7000A812811152C00E94091781113AC0C0E005
:102F80008C2FDF91CF9108958091291790912A1766
:102F90000E9492138823C9F08091291790912A17D3
:102FA0000E94F813882389F08091291790912A179D
:102FB0000E94E50C882349F0C091A812CC2391F21D
:102FC00080E195E00E94A75DCECF0E94411DC0E048
:102FD0008C2FDF91CF910895DF93CF9388EA9CE007
:102FE0009F938F930E948D5D0F900F900F900F9085
:102FF000ABCF81E090E00E949213882309F4BFCF09
:1030000081E090E00E94F813882309F4B8CF81E0B2
:1030100090E0DF91CF910C94E50C88EC9CE09F93BD
:103020008F930E948D5D0F900F90A5CF8091A81275
:1030300081110BC0509858988091A812811101C03D
:10304000089580E195E00C94A75D8DED9CE09F9341
:103050008F930E948D5D0F900F90ECCF28988EE19A
:103060008EBD0DB407FEFDCF289A80E090E0089554
:103070001092080E1092070E90E0FC013197E73095
:10308000F10518F08FEF9FEF0895E057FF4F0C9474
:1030900080588AEA8093060E28988091060E8EBD8D
:1030A0000DB407FEFDCF1EBC0DB407FEFDCF8EB5DF
:1030B0001092070E8093080E1EBC0DB407FEFDCFC4
:1030C0002EB58091070E9091080E822B9093080EDA
:1030D0008093070E289A8091070E9091080E08950C
:1030E0008CEA8093060ED8CF82EA8093060ED4CF66
:1030F00084EA8093060ED0CF86EA8093060ECCCF6A
:1031000088EA8093060EC8CF8EEA8093060EC4CF5D
:103110002898611594E0790739F180F4611591E000
:103120007907C1F06115724021F4811125C082E454
:103130008EBD0DB407FEFDCF289A0895611598E065
:10314000790769F061157041A1F7811112C088E417
:103150008EBDEFCF811116C080E48EBDEACF811104
:103160000EC086E48EBDE5CF81110FC084E48EBD14
:10317000E0CF88E58EBDDDCF82E58EBDDACF86E576
:103180008EBDD7CF80E58EBDD4CF84E58EBDD1CFA7
:1031900028981EBC0DB407FEFDCF1EBC0DB407FE63
:1031A000FDCF6EB5862F90E0A0E0B0E0BC015527C2
:1031B00044271EBC0DB407FEFDCF8EB590E0A0E005
:1031C000B0E0BA2FA92F982F88271EBC0DB407FE98
:1031D000FDCF2EB5289A842B952BA62BB72BBC019F
:1031E000CD01622B08952F923F924F925F926F9282
:1031F0007F928F929F92AF92BF92CF92DF92EF9287
:10320000FF920F931F93CF93DF93CDB7DEB76897ED
:103210000FB6F894DEBF0FBECDBFA090A812AD864A
:10322000A11065C180913618909137189C0140E03B
:1032300050E060E070E080E090E008E00E942B59F0
:1032400049015A01409028185090291860902A1876
:1032500070902B18481859086A087B084092FA0D9C
:103260005092FB0D6092FC0D7092FD0D209138186C
:103270003091391840E050E0C301B2010E94F1588A
:1032800007E10E94445949015A01D501C401805304
:10329000984FAF4FBF4F89879A87AB87BC87809382
:1032A000F6169093F716A093F816B093F916E091DE
:1032B0003418F0913518809030189090311894019E
:1032C00040E050E060E070E080E090E000E10E94CB
:1032D0002B5979011A014B018E8799839F0140E098
:1032E00050E0C301B2010E94F15807E00E94445926
:1032F00059016A01F62FE72F8C019701A101B40152
:103300008E859981EF2EFE2E0E946259922E388F63
:103310004F8B5E876F87272E382E892E2093E20DE4
:103320003093E30D4093E40D5093E50D6093E60D6B
:103330002092E70D3092E80D8092E90D40912E1811
:1033400050912F189A0140E050E060E070E080E07A
:1033500090E00FE00E942B592983388B498B5A8BC0
:103360006B8B7C8B8D8B9E8BE0913218F091331898
:103370009F0140E050E0C301B2010E94F15808E013
:103380000E94445959016A017B018C012093EA0D86
:10339000B092EB0D4093EC0DD092ED0D6093EE0DDD
:1033A000F092EF0D8093F00D1093F10D2981388983
:1033B00049895A896B897C898D899E890E946259C5
:1033C0002093DA0D3093DB0D4093DC0D5093DD0D2F
:1033D0006093DE0D7093DF0D8093E00D9093E10D0F
:1033E0004090241850902518609026187090271847
:1033F00063015201E12CF12C87014982BA82CB8210
:10340000DC82ED82FE820F831887E12CF12C00E034
:1034100010E00E94985805E10E9444592093FE0D47
:103420003093FF0D4093000E5093010E6093020EF7
:103430007093030E8093040E9093050EA92CB88C04
:10344000CF88DE84EF84F22C032D182D0E9477594B
:103450002093F20D3093F30D4093F40D5093F50D3E
:103460006093F60D7093F70D8093F80D9093F90D1E
:103470000FE00E944459C9012093F2169093F3166D
:103480004093F4165093F516BD84BB20B9F05F93BA
:103490004F939F932F93CC84CF92DB84DF92EA8467
:1034A000EF92F984FF928FE89DE09F938F930E94A3
:1034B0008D5D0FB6F894DEBF0FBECDBF68960FB618
:1034C000F894DEBF0FBECDBFDF91CF911F910F915A
:1034D000FF90EF90DF90CF90BF90AF909F908F9034
:1034E0007F906F905F904F903F902F9008958091C4
:1034F0002B188F9380912A188F93809129188F937E
:10350000809128188F93809127188F938091261887
:103510008F93809125188F93809124188F93809199
:1035200039188F93809138188F93809137188F9323
:10353000809136188F93809135188F93809134182D
:103540008F93809133188F93809132188F9380914D
:1035500031188F93809130188F9380912F188F930B
:1035600080912E188F9387EF9CE09F938F930E94FA
:103570008D5DB090A812BD860FB6F894DEBF0FBE69
:10358000CDBF50CE0F931F938B019C01DC01CB016B
:10359000975FA24CBF4FBC01CD01660F771F881FFC
:1035A000991F660F771F881F991F000F111F221F79
:1035B000331F000F111F221F331FA9019801220F73
:1035C000331F441F551F0E945E582150310930930C
:1035D000C5002093C40082E08093C00086E0809301
:1035E000C20088ED8093C1001F910F910895582F5C
:1035F0002091C1002F7B2093C10040915018209151
:1036000051182417A8F139E0340F321B832F6317A8
:1036100008F4862F8823C1F0A52FB92F922F282FC9
:1036200007C09F5F90935118215071F090915118ED
:103630003D91E92FF0E0E45CF74E3083993089F753
:1036400010925118215091F79091541891110AC07D
:10365000E42FF0E0E45CF74E90819093C60091E097
:10366000909354189091C10090649093C100089574
:103670003FEF340F321BCACFDC01809155188823ED
:10368000B1F19091C1009F779093C1008A3080F191
:10369000E0915318E09352188AE0809355186A30ED
:1036A00058F56623F1F0E0915218362F04C0332309
:1036B000C1F0E0915218F0E0E45CF74E82858D9302
:1036C000909152189F5F9093521820915518215055
:1036D0002093551831509A3051F7109252183111E9
:1036E000E8CF8091C10080688093C100862F089543
:1036F0008617B8F6682FD5CF6AE0D7CF1F920F9202
:103700000FB60F9211240BB60F928F939F93EF93E6
:10371000FF9380915318909155189F5F909355187F
:103720009091C600E82FF0E0E45CF74E9287893074
:1037300071F08F5F80935318FF91EF919F918F915C
:103740000F900BBE0F900FBE0F901F901895109208
:103750005318F2CF1F920F920FB60F9211240BB68F
:103760000F928F93EF93FF93E0915018E930D1F0CF
:10377000EF5FE0935018809151188E1781F0F0E0C0
:10378000E45CF74E80818093C600FF91EF918F91AA
:103790000F900BBE0F900FBE0F901F9018951092B8
:1037A0005418F3CF10925018E0E0E5CF882311F0C1
:1037B00085E8089560E074E883E090E00E94C21A12
:1037C00080E008959B01882311F080E00895642F24
:1037D000C9010C94F71A9B01882311F080E0089529
:1037E000642FC9010C943C1B9093100E80930F0E14
:1037F000089590930E0E80930D0E089590930C0EE5
:1038000080930B0E089590930A0E8093090E0895ED
:103810001F920F920FB60F9211240BB60F922F9397
:103820003F934F935F936F937F938F939F93AF9348
:10383000BF93EF93FF93E0910F0EF091100E099557
:10384000FF91EF91BF91AF919F918F917F916F9178
:103850005F914F913F912F910F900BBE0F900FBE34
:103860000F901F9018951F920F920FB60F92112470
:103870000BB60F922F933F934F935F936F937F936A
:103880008F939F93AF93BF93EF93FF93E0910D0EB0
:10389000F0910E0E0995FF91EF91BF91AF919F911D
:1038A0008F917F916F915F914F913F912F910F90E9
:1038B0000BBE0F900FBE0F901F9018951F920F9286
:1038C0000FB60F9211240BB60F922F933F934F9385
:1038D0005F936F937F938F939F93AF93BF93EF9378
:1038E000FF93E0910B0EF0910C0E0995FF91EF9173
:1038F000BF91AF919F918F917F916F915F914F9108
:103900003F912F910F900BBE0F900FBE0F901F9005
:1039100018951F920F920FB60F9211240F900FBEA1
:103920000F901F9018951F920F920FB60F921124AF
:103930000BB60F922F933F934F935F936F937F93A9
:103940008F939F93AF93BF93EF93FF93E091090EF3
:10395000F0910A0E0995FF91EF91BF91AF919F9160
:103960008F917F916F915F914F913F912F910F9028
:103970000BBE0F900FBE0F901F9018951F920F92C5
:103980000FB60F9211240F900FBE0F901F90189535
:103990001F920F920FB60F9211240F900FBE0F902F
:1039A0001F9018951F920F920FB60F9211240F902F
:1039B0000FBE0F901F9018951F920F920FB60F9287
:1039C00011240F900FBE0F901F9018951F920F9209
:1039D0000FB60F9211240F900FBE0F901F901895E5
:1039E0001092B90088E48093B800089594EA909307
:1039F000BC009091BC0097FFFCCF9091B900987FDC
:103A0000983021F0903111F081E008958093BB004F
:103A100084E88093BC008091BC0087FFFCCF80913C
:103A2000B900887F883111F0803471F780E0089503
:103A300024EA34E844E92093BC009091BC0097FF4D
:103A4000FCCF9091B900987F983011F0903199F7A0
:103A50008093BB003093BC009091BC0097FFFCCFDB
:103A60009091B900987F903219F0983509F0089537
:103A70004093BC009091BC0094FDFCCFDCCF0C9433
:103A8000F61C84E98093BC008091BC0084FDFCCFCF
:103A900008958093BB0084E88093BC008091BC00B3
:103AA00087FFFCCF9091B900987F81E0983209F0B0
:103AB000089580E0089584EC8093BC008091BC0060
:103AC00087FFFCCF8091BB00089584E88093BC0001
:103AD0008091BC0087FFFCCF8091BB00089584B724
:103AE00014BEA8950FB6F894A895809160008861DF
:103AF00080936000109260000FBE0E94FB1D0E9428
:103B0000B91E0E94BF2280E008950C94BD1FEF9261
:103B1000FF920F931F93CF93DF93EB0189018823CB
:103B200041F088EEDF91CF911F910F91FF90EF90C0
:103B30000895CB01840F951F8130904140F085E8B6
:103B4000DF91CF911F910F91FF90EF900895411554
:103B5000510569F07801E40EF51ECE010E94A160C6
:103B6000F80181938F012196EE15FF05B1F780E0F2
:103B7000DF91CF911F910F91FF90EF900895EF92F9
:103B8000FF920F931F93CF93DF93EC017C01E60E1E
:103B9000F71E81E0E81680E1F80640F085E8DF9145
:103BA000CF911F910F91FF90EF900895672B81F0B7
:103BB0008A01CE010E94A160F80161918F0168170E
:103BC00019F0CE010E94A9602196EC16FD0689F736
:103BD00080E0DF91CF911F910F91FF90EF900895BA
:103BE0001EB88FEF8DB98FEF9FEF0E94331F8EB1FC
:103BF00080958EB9F8CF9FB7F894E0E0F0E089E0C7
:103C00008093570084919FBF8F708230A1F020E095
:103C100030E080E80FB6F894809361002093610053
:103C20000FBE80E18093350180933401809333018E
:103C30008093320108952FE030E0EBCFCF92DF92F6
:103C4000EF92FF920F931F938091170E90E0FC016B
:103C5000EE0FFF1FEE0FFF1FEE0FFF1F8E0F9F1FB8
:103C6000FC01EA5AF74E4081518162817381809153
:103C7000180E882309F440C07093F8006093F70091
:103C80005093F6004093F5008091DF0080FD08C05E
:103C900081E08093E0008091DF0081608093DF000D
:103CA000F091E100E091E2003091E3002091E40026
:103CB0008F2F9E2FA32FB22F0196A11DB11D8C0116
:103CC0009D0104271527262737270027112722279C
:103CD000387F012B022B032BD9F4481759076A07A9
:103CE0007B07F8F481E08093B0181F910F91FF904B
:103CF000EF90DF90CF9008958091DF008E7F8093CA
:103D0000DF001F910F91FF90EF90DF90CF9008950B
:103D1000B7708A019B01377080179107A207B3071C
:103D200008F380915D01883060F7C090110ED0904B
:103D3000120EE090130EF090140E8FEFC81AD80AEE
:103D4000E80AF80AC416D506E606F706D1F6509139
:103D5000E1004091E2003091E3002091E400852FE2
:103D6000942FA32FB22FC816D906EA06FB0679F7BF
:103D7000B9CF1092180E1092B0188FEF8093170ED3
:103D80008093160E8093150EEEE5F8E19FEF8FEF0E
:103D90009083DF0114971D921C92399628E1E83B2D
:103DA000F207A9F790E29093B60098EA9093DC00AE
:103DB0009FE09093F4008093F3008093F20080934F
:103DC000F10082E08093E0008091DF0082608093C8
:103DD000DF0008950895FC019091DE0090FDFCCF76
:103DE0003091E1002091E2009091E3008091E400A5
:103DF000432F522F692F782F440F551F661F771FAF
:103E0000440F551F661F771F440F551F661F771FEE
:103E1000440F551F661F771F40835183628373834E
:103E20000895F091E900E091EA003091EB002091D3
:103E3000EC004F2F5E2F632F722F440F551F661F0C
:103E4000771F440F551F661F771F440F551F661FAE
:103E5000771F440F551F661F771FFC014083518356
:103E60006283738308958436910530F47FB7F894A4
:103E70000097F1F061E002C060E070E051E042E0E4
:103E800097FD18C0880F991F22273327281B390B4D
:103E900080E090E030932501209324015ABB4093A9
:103EA0002101D09BFECF10922101009749F76111AB
:103EB0007FBF08958F5F9F4722E030E0EBCF90E017
:103EC000FC01EE0FFF1FEE0FFF1FEE0FFF1F8E0F07
:103ED0009F1FFC01EA5AF74E81E024813581232B94
:103EE00009F480E00895CF93CFB7F8948091B0188B
:103EF0008823A9F11092B0182091180E222379F18D
:103F00008091160E8F3F71F18091150EE091170E82
:103F100090E0DC01AA0FBB1FAA0FBB1FAA0FBB1F9B
:103F20008A0F9B1FDC01AA5AB74E1896EC93E093B8
:103F3000150EF0E0CF01880F991F880F991F880F89
:103F4000991FE80FF91FEA5AF74E80858093170EE4
:103F50008FEF808721502093180E0E941E1ECFBF26
:103F6000CF9108958091150E8F3F81F6E091170E45
:103F7000E093150EE093160EDCCFCF930E94731FD3
:103F8000CFEF03C02FBF309799F58091160E8F3F6A
:103F9000A9F12FB7F894A091160EB0E0CD01880FCB
:103FA000991F880F991F880F991FA80FB91FAA5A28
:103FB000B74E18969C9118971496ED91FC91159711
:103FC00016964D915C9117971896CC931897159665
:103FD0001C921E92149717961C921E9216979093FD
:103FE000160E9F3F79F69093150E2FBF309769F20A
:103FF000CA0109958091160E8F3F59F6CF91089509
:104000002F923F924F925F926F927F928F929F92E8
:10401000AF92BF92CF92DF92EF92FF920F931F93D6
:10402000CF93DF93CDB7DEB72F970FB6F894DEBFEF
:104030000FBECDBF8A30D0F08AE82F960FB6F89425
:10404000DEBF0FBECDBFDF91CF911F910F91FF90CB
:10405000EF90DF90CF90BF90AF909F908F907F9028
:104060006F905F904F903F902F900895011511052C
:10407000B9F0482E512C5D824C826201CC0CDD1CC3
:10408000CC0CDD1CCC0CDD1CF201EC0DFD1DEA5A44
:10409000F74E0480F581E02DEF2B21F088E8CDCF9D
:1040A00088EECBCF34E076956795579547953A954E
:1040B000D1F7222339F1213099F7E091E1003091D5
:1040C000E2002091E3009091E4008E2E932EA22E28
:1040D000B92E2A013B01481859086A087B08530188
:1040E00042012FE0B22238E0831A9108A108B108FA
:1040F00098EF89169FEF9906A90697E0B90610F187
:104100008BE89BCF4A015B0128E0821A9108A10845
:10411000B10838EF83163FEF9306A30637E0B306E6
:1041200078F7E091E1003091E2002091E300909176
:10413000E4008E2E932EA22EB92E480D591D6A1D15
:104140007B1D7F70FB82EA821801E82E4FB6498200
:10415000F894488759876A877B870E94731FF0907D
:10416000170E488559856A857B8555245A94F51420
:1041700009F4A2C01091180E0F2D112309F484C068
:10418000AF2DB0E02A013B0127E07222FC86DF82DE
:10419000CE82EF8612C084169506A606B706D8F51D
:1041A000ED85FE858E0F9F1FFC01EA5AF74E0A2F00
:1041B000A085BF5FB11709F464C0AF3FD1F38A2F68
:1041C00090E0FC01EE0FFF1FEE0FFF1FEE0FFF1F31
:1041D000FE87ED877F01E80EF91E97012A5A374EB8
:1041E000F90180809180A280B3806A017B01C8249C
:1041F000D924EA24FB24CC24DD24EE24F8EFFF228A
:10420000CD28CE28CF2839F227E0B222481459040D
:104210006A047B0428F2FC84CE80DF80EF84EC818A
:10422000FD81EC0DFD1DEA5AF74EA087FA1609F440
:1042300053C0802F90E09C01220F331F220F331FA9
:10424000220F331F820F931FFC01EA5AF74EE086BC
:10425000EC81FD81EC0DFD1DEA5AF74E4083518340
:1042600062837383358224828A819B8197838683CC
:104270001F5F1093180E0E941E1E99819FBF80E041
:10428000DCCECE80DF80EF84802F90E09C01220F77
:10429000331F220F331F220F331F820F931FFC0186
:1042A000EA5AF74EE086EC81FD81EC0DFD1DEA5ADD
:1042B000F74E8FEF8087CCCFE092170E89E06C80AD
:1042C0007D80869DF001879DF00D1124EA5AF74EFE
:1042D000F0861091180EBCCFE092170EB9CFCF9296
:1042E000DF92FF920F931F93CF93DF938A3048F0B2
:1042F0008AE8DF91CF911F910F91FF90DF90CF90CF
:104300000895C82FDFB7F8940E94731FF090180E1D
:10431000FF20D1F0E091170ECE1709F48DC09F2D2C
:1043200002C0CE1789F1F0E09F01220F331F220F48
:10433000331F220F331FE20FF31FEA5AF74EDF013C
:104340001896E085915069F78091160E8F3FC9F05D
:10435000C81305C05BC0C91709F441C0892FE82FF5
:10436000F0E09F01220F331F220F331F220F331F54
:10437000E20FF31FEA5AF74EDF01189690859F3F30
:1043800051F7DFBF89E8B5CF0C2F10E06801CC0CE6
:10439000DD1CCC0CDD1CCC0CDD1CF601E00FF11F8C
:1043A000EA5AF74E80858C93F601E00FF11FEA5A26
:1043B000F74E8FEF8087FA94F092180E0C0D1D1DAA
:1043C000F801EA5AF74E15821482DFBF80E0DF91D0
:1043D000CF911F910F91FF90DF90CF9008950C2FF8
:1043E00010E06801CC0CDD1CCC0CDD1CCC0CDD1C01
:1043F000F601E00FF11FEA5AF74E90859C939091D9
:10440000150EC913DBCF8093150ED8CF8091150EF2
:10441000C81731F10C2F10E06801CC0CDD1CCC0C5E
:10442000DD1CCC0CDD1CF601E00FF11FEA5AF74E43
:1044300080858093160EC2CF0C2F10E06801CC0C43
:10444000DD1CCC0CDD1CCC0CDD1CF601E00FF11FDB
:10445000EA5AF74E80858093170E0E941E1EA4CF45
:104460008FEF8093150E8093160E0C2F10E06801CD
:10447000CC0CDD1CCC0CDD1CCC0CDD1C9FCF1F92AA
:104480000F920FB60F9211242F933F938F939F9308
:104490003091E1002091E2009091E3008091E400EE
:1044A0003093110E2093120E9093130E8093140EDE
:1044B0008091180E882319F081E08093B0189F91A5
:1044C0008F913F912F910F900FBE0F901F901895D5
:1044D0001F920F920FB60F9211248F938FEF80933C
:1044E000E4008093E3008093E2008093E1008F91E9
:1044F0000F900FBE0F901F90189581E00895729A4B
:104500006A9A739A6B9A749A6C9A0895813071F0D2
:10451000823031F46130B1F098F06230A9F0089542
:104520006130B9F058F06230E9F008956130C1F0BF
:1045300018F0623081F00895739808957298089584
:1045400074980895749A08959EB180E189278EB970
:104550000895729A08959EB188E089278EB90895CA
:10456000739A08959EB184E089278EB90895759A4B
:104570006D9808958CB185FB882780F9089508957A
:1045800090E29CBBED9A93B7917F892B83BF83B751
:10459000816083BF889583B78E7F83BF08951F9204
:1045A0000F920FB60F921124ED980F900FBE0F903F
:1045B0001F9018950F931F93CF93DF9389E19EE08F
:1045C0000E947F230AE31EE0CEE1DEE01983088328
:1045D000BE0189E19EE00E94862306561F4F249665
:1045E0008EE0CA33D80791F7DF91CF911F910F91D9
:1045F000089560E070E089E19EE00C94A1230097AB
:1046000029F0BC0189E19EE00C94862308959F92D5
:10461000AF92BF92CF92DF92EF92FF920F931F93D0
:10462000CF93DF93FC019FB6F8949481992309F40A
:104630004DC08A016B017F01C081D181452B09F4F6
:1046400048C0209709F442C05E0107C02A813B811F
:104650005E0121153105D1F1E901D80112966D9164
:104660007C911397ED91FC9188819981099588231C
:1046700069F3F501CD28E1F4D7018D919C91119753
:104680008C179D07C9F12A813B81338322839C01CA
:10469000D70114969C91D70112964D915C91139776
:1046A0004C175D0721F19150F7019483232BE1F022
:1046B0009FBECE01DF91CF911F910F91FF90EF90A0
:1046C000DF90CF90BF90AF909F900895C0E0D0E072
:1046D000EFCF2097D9F3672B59F7FE012A813B8151
:1046E000D7012D933C93D7CF13821282E1CF13963B
:1046F000FC93EE931297D7CF14969C91EFCFFC01C9
:10470000118210821382128214820895FC019FB7D5
:10471000F8948481882391F0A281B38113967C93CD
:104720006E93129773836283DB0113961C921E9221
:10473000129784818F5F84839FBF08957183608304
:10474000F1CFAB0160E070E00C940723AB0161E0B6
:1047500070E00C940723CF93DF93EC018C818111DF
:1047600006C00FC00E94FF228C81882351F040E0D8
:1047700050E060E070E0CE010E940723009791F7BF
:104780001C82DF91CF910895CF9381E080934F01F8
:1047900089E080934201C3E080914F0180FD06C013
:1047A0008EE690E00E94331FC150B1F7CF9108957B
:1047B0001F93CF93DF93CDB7DEB728970FB6F8944A
:1047C000DEBF0FBECDBF182F8091DA188F3009F4ED
:1047D000D7C0812F90E0FC013397E731F10588F0D5
:1047E000809141018F718093DA188F31C9F3289637
:1047F0000FB6F894DEBF0FBECDBFDF91CF911F91F2
:104800000895E956FF4F0C9480588091DA1888304B
:1048100009F438C108F432C18930E9F0863101F772
:1048200089E08093420100000000000000000000C9
:104830000000000000000000000000000000000078
:10484000000000000000809141018F718093DA1810
:10485000893009F0CCCF89E132C08091DA188830F4
:1048600009F402C108F4D6C0893019F0893109F081
:10487000B7CF86E124C08091DA18893061F008F062
:10488000ECC0883009F0ACCF809141018F71883045
:1048900011F40E94C42386E012C08091DA18883097
:1048A00009F4AFC0893009F49BCF84E080934201C2
:1048B00097CF8091DA18883009F492CF83E0809303
:1048C00042010000000000000000000000000000A5
:1048D00000000000000000000000000000000000D8
:1048E0000000809141018F718093DA188F3109F4B3
:1048F00077CF7DCF8091DA18883009F482C008F430
:10490000A8C0863119F0893109F06ACF89E0D7CF84
:104910008091DA18883009F463CF88E0D0CF83E043
:10492000809342010E942A5D80936D0180916E0107
:104930009770887F892B80936E018FEF80934F0152
:1049400080E880934E01000000000000000000009D
:104950000000000000000000000000000000000057
:1049600000000000000080913901826080933901CD
:1049700083E290E00E94331F8FE08093DA1837CFF4
:10498000809139018D7F80933901CE0105960E9477
:10499000EB1E809141018F71883079F48FEF809305
:1049A0004F018CE480934E01183019F0133009F058
:1049B00010CF88E08093DA181ACFCE0101960E94BA
:1049C000EB1E89819A81AB81BC814D815E816F81B3
:1049D0007885841B950BA60BB70B893E9340A105E8
:1049E000B105B8F280913901826080933901CE011E
:1049F00005960E94EB1E809139018D7F80933901CD
:104A0000C8CF809141018F71883009F0E9CE0E94B2
:104A1000C423E6CE863009F0E3CE89E080934201DC
:104A20000000000000000000000000000000000086
:104A30000000000000000000000000000000000076
:104A4000809141018F718093DA18893009F0CFCEBF
:104A500010CF863009F0C4CE59CF863109F41BCF70
:104A6000893109F0BDCE17CF809141018F71883017
:104A700009F0FFCE0E94C42386E121CF863009F4DD
:104A8000CFCEAECE809141018F71883009F0E3CE58
:104A90000E94C42389E113CF8091B118882321F0AB
:104AA0008091DE18882369F08091B618811118C0B2
:104AB0008091DE18823011F1853011F40C94D127E9
:104AC00008958091701290917112892BC9F0109203
:104AD000B11886E10E94D8238091B618882341F34B
:104AE00060E070E082EB98E10E94A123009701F35F
:104AF0000E9400268091DE188230F1F60C9449263F
:104B00008AE90E94F9229093711280937012892B86
:104B100059F2DDCFCF92DF92EF92FF920F931F9366
:104B2000CF93DF93E0917012F0917112309709F4F6
:104B300057C0E080F1800091470110917B0117FD83
:104B40004FC082E0810FEAE9F0E0E81BF109E701DC
:104B5000CE0FDF1FC12ED12CA6014F5F5F4F60E843
:104B600071E0CE010E94395DFE011293D7011C96BF
:104B7000FC93EE931B97EC0DFD1D028380914C017D
:104B80008F7780934C0182E090E00E94331F8091E8
:104B90004C01806880934C0183E880935C01809194
:104BA000B9189091BA18A091BB18B091BC18F70130
:104BB00087839087A187B28760917012709171127C
:104BC00082EB98E10E9486238AE90E94F922909361
:104BD000711280937012892B61F080E480934F01F1
:104BE000DF91CF911F910F91FF90EF90DF90CF90C9
:104BF000089589E00E94D82381E08093B118EDCF19
:104C00000F931F93CF93DF938C01FC01C081D1815F
:104C1000AB85BC859C919093DB18E92FF0E0319631
:104C2000EA0FFB1F408181818D3328F481112FC051
:104C300081E090E002C08CE390E042954695469575
:104C400043702FEF429FA0011124489F9001499F7C
:104C5000300D589F300D1124A3E8BDE20E94895801
:104C600096958795929582958F7089279F70892751
:104C70008F3F910511F008F08FEF80831A8309832D
:104C8000CE01DF91CF911F910F910C94CC3590E024
:104C9000D4CF1092DE18E091DC18F091DD188081FD
:104CA00090E00996880F991F82959295907F98279A
:104CB000807F9827A091B718B091B8181B96ED91F6
:104CC000FC911C97218125FF02C0805E9D4F1796A5
:104CD0004D915D916D917C911A97481B590B61091B
:104CE000710917964D935D936D937C931A97E0919C
:104CF0007212E83038F4F0E0EF5CFD4F8081BD01C6
:104D00000C942F4685E8BD010C942F46CF93DF937A
:104D1000EC01662309F454C020916C019091D918DC
:104D200030E1939FC0011124922F9F70892B8093B3
:104D30006C01C230D10508F460C02091D81880E120
:104D4000289F900111248091D218282B20936F0165
:104D500090916C012091D118220F2E70917F922B8F
:104D600090936C0183E880935C0189E10E94D823D1
:104D70008931D9F7219799F189E090E00E94331F9A
:104D8000CFB7F89480913901826080933901809186
:104D900039018D7F809339016091DC187091DD18A5
:104DA000FB01408150E04150510980E891E00E94B0
:104DB000395D81E08093DE18CFBFDF91CF910895F8
:104DC00080916C018F7080936C01C230D10508F026
:104DD000B4CF80916C018E6080936C01C3CF8091C1
:104DE000DB18833128F080E492E00E94331FC8CFA3
:104DF00080E890E00E94331FC3CF80916C019091B6
:104E0000D118990F9E70817F892B80936C0110922D
:104E10006F01A8CFFC019091DE18992311F086E86C
:104E20000895F093B818E093B7188385948590930C
:104E3000DD188093DC18892B31F0CB01642F0E94A0
:104E4000862680E0089588EE0895CF93C091DE18FD
:104E5000C13011F0CF9108958091B7189091B81892
:104E600007960E94111F8091420182958695877056
:104E70008093721282E08093DE188091701290917C
:104E80007112892B21F086E1CF910C94D82389E00F
:104E90000E94D823C093B118DDCF80914701909133
:104EA0007712981710F48093771280917312909173
:104EB0007412A0917512B09176120197A109B109EF
:104EC0008093731290937412A0937512B09376121C
:104ED000892B8A2B8B2B21F485E08093DE18089593
:104EE0008FEF809347010895CF93DF939091DE1861
:104EF000992341F08091DA188F3039F186E8DF91FB
:104F0000CF910895C82F84E00E94D8238091550145
:104F1000806880935501D0E1D0934F018DE497E2F2
:104F20000E94FE1BD0934E0186E00E94D82386305B
:104F300081F0809155018F77809355018CE48093A7
:104F40004E0185E8DF91CF91089581E8DF91CF91FF
:104F5000089584E08093DE181092771280EC93E03D
:104F6000A0E0B0E004C0880F991FAA1FBB1FCA951C
:104F7000D2F780549C4FAF4FBF4F23E0B695A79513
:104F8000979587952A95D1F7809373129093741211
:104F9000A0937512B09376128FEF8093470180E053
:104FA000AECF809155018F77809355018CE480932B
:104FB0004E011092DE1886E10E94D82340917712AC
:104FC0008FEF4833D8F4489FA00111249A01A5EE31
:104FD000B9E20E948958481B590B56954795480FCE
:104FE000591F56954795529542954F7045275F70CA
:104FF0004527842F409377120C948D4B8093771222
:105000000C948D4B982F85FD14C09F73EAE3F5E057
:10501000249129172CF0E9E4F5E0249192173CF44F
:105020008491803E54F0803254F487FD0AC0806839
:10503000089591959F719195E9CF80EA08958FE940
:1050400008958F71806A089585FD0DC08F73EAE31E
:10505000F5E090E02491821754F49F5F31969031EF
:10506000C9F780E0089581958F718195F0CF281759
:105070001CF48FEF890F0895892F0895CF93DF9344
:10508000CDEBD8E184E08C8B83E08D8B2FEF3FEF6D
:105090003F872E873D872C879BE09B8B188E40E0B7
:1050A00058EF6FEF77E0488759876A877B872AE058
:1050B00031E0398B288B9AE0998F92E09A8F95E0B6
:1050C0009B8F8C8F84E80E9402288F8B81E08A8BD3
:1050D0001E8ADF91CF9108958091CB188093620151
:1050E0008091CC1880936301E4E6F1E0ADEBB8E188
:1050F0008D918193EC3631E0F307D1F78091C91897
:10510000809360018091CA18809361018091480169
:105110002091CF1890E2299F9001112420768F7959
:10512000822B8093480180916F019091D2189F70DB
:10513000807F892B80936F0180916E019091D318AD
:1051400090FB83F980936E0120916F019091D818A4
:1051500030E1939FC0011124922F9F70892B80937F
:105160006F01809148019091D0189F71807E892BAA
:10517000809348018091D4180E9424289091450181
:105180008F70907F892B8093450183E880935C0129
:105190000895CF93DF939091DE18943011F18E34FF
:1051A00079F1893511F12091DA182F3071F18B30B6
:1051B00009F4DDC0C0F1833551F108F046C08F34E9
:1051C00009F4C7C0803509F0D0C0FB01908181810E
:1051D0009093CB188093CC189093620180936301D5
:1051E00008C086E8DF91CF910895FB01808180930C
:1051F000D91883E880935C0180E0DF91CF91089516
:10520000FB0180818093D118F4CF81E8EBCFFB01C3
:10521000908181819093C9188093CA1890936001FE
:1052200080936101E6CFEB01823009F461C0B8F1EF
:10523000833009F47EC0843009F097C09111D1CF3A
:1052400088818823B1F288EECDCF873509F461C01B
:10525000803F09F08AC0FB0180818093BD18818165
:105260008093BE1882818093BF1883818093C01879
:1052700084818093C11885818093C2188681809330
:10528000C31887818093C418E4E6F1E0ADEBB8E180
:105290008D918193EC3631E0F307D1F7AACF8111DC
:1052A00064C091119ECF388180E098EFAFEFB7E0F6
:1052B000032E04C0B695A795979587950A94D2F7C3
:1052C00080FFC1CF283009F45DC088E00E94D82358
:1052D0008830D9F798819093D018809148019F71B8
:1052E000807E892B8093480186E10E94D82381CF5C
:1052F00088818093D4180E9402288093D4180E9439
:105300002428909145018F70907F892B80934501CF
:1053100070CFFB0180818093D81820916F01F0E15C
:105320008F9FC0011124922F9F70892B80936F0152
:1053300060CF88818093CF182091480130E2839F0D
:10534000C00111248076922F9F79892B8093480188
:1053500050CFFB0190819093D21880916F019F7084
:10536000807F892B80936F0144CF84EF3BCFFB017B
:1053700090819093D31880916E0190FB83F9809374
:105380006E0137CF3093D018809148013F71807EF5
:10539000382B309348012DCFCF93DF9386E00E94C6
:1053A000D8238630D9F7809155018F7780935501A6
:1053B00010924E0188E0C0E0D0E090914601AE012D
:1053C000440F551F440F551F9076292F30E0359517
:1053D00027953595279535952795359527953595B5
:1053E0002795E901C42BD52B000000000000000028
:1053F00000000000000000000000000000000000AD
:1054000000000000000000008150B9F683E00E9417
:10541000D8238FEF80934F018CE480934E01CE010F
:10542000DF91CF910C942E5DCF93DF93D82F909185
:1054300039019D7F9093390180EF90E00E94331FE6
:10544000909139019E7F9093390181E090E00E9414
:10545000331F9091390191609093390184E690E077
:105460000E94331F909141019F71CAE0983069F00A
:1054700084E690E00E94331F909141019F71C150DA
:10548000A9F785E8DF91CF9108959093DA180E94EB
:10549000CC290E942A5D80936D0120916E01977046
:1054A000287F922B90936E0180E00E94482B0E94EF
:1054B000662B80916E01806280936E0180914C0119
:1054C000806880934C018CE480934E01D1110AC016
:1054D0000E946C281092DE181092B11880E0DF91C3
:1054E000CF9108950E943E28F3CF1F93CF93DF936F
:1054F0000E946F1D882331F015E8812FDF91CF9135
:105500001F910895809139018160809339018091C4
:1055100039018D7F809339018CE791E00E94331F20
:10552000809139018E7F8093390181E090E00E9463
:10553000331F8091390181608093390184E690E0C6
:105540000E94331F809141018F71CAE0883051F071
:1055500084E690E00E94331F809141018F71C15019
:10556000A9F7CACF8093DA1880915C01833821F6BD
:105570002DEB38E148E050E060E070E080E00E9410
:10558000871D81E00E94142A182F8111B5CF209128
:10559000BD183091BE184091BF185091C01860914D
:1055A000C1187091C2188091C3189091C418AFEFC0
:1055B0000E946B59ADEF0E94895959F050F0CDEB24
:1055C000D8E10E942A5D899388E1C53CD807C9F7D4
:1055D000DECF84E39BE20E94F91B8CE39BE20E94F6
:1055E000F41B84E49BE20E94031C0E94DA228AE9F5
:1055F0000E94F922909371128093701282EB98E1CD
:105600000E947F230E94FB5178CFCF93DF93D82F46
:105610000E94142AC82F882369F0C5E88C2FDF91D7
:10562000CF91089560E070E082EB98E10E94A123A1
:105630000097B9F49091B6189111F4CF8D2F0E9474
:10564000045288E080934F0180E480934F0184E00E
:1056500080934F0180E880934F018C2FDF91CF9191
:1056600008950E94FF22E6CFCF93CFB7F8940E940F
:105670008A25CFBFCF910895CF93CFB7F8940E94DA
:105680002527CFBFCF91089589EB98E10C94111F86
:10569000882311F088EE08958091DA188F3031F068
:1056A0008091DE18882321F086E8089581E8089526
:1056B0001092B11888E00E94D8238830D9F78FE083
:1056C0000E94D8238F3081F780E008958091DA1806
:1056D0008F3011F082E8089588E00E94D823883046
:1056E00011F085E8089580E008959091DE189111F9
:1056F00012C0883091F08091701290917112892BB4
:1057000029F086E10E94D82386E0089581E0809305
:10571000B11886E0089586E808950E94D823109273
:10572000B11888E008950F931F93CF93DF9300D0B3
:10573000CDB7DEB76091F7187091F818DB01ED91E5
:10574000FC9184E180838BEE83830FEF1FEF128344
:1057500001838EE799E10E9486231092EE181A8346
:105760000983BE016F5F7F4F80E50E948943EDE2B0
:10577000F9E1138702871082118212821382148248
:105780001582168217820E941E400F900F90DF91A3
:10579000CF911F910F910895DC01ED91FC9124E1CF
:1057A0002083638352834183BC018EE799E10C948B
:1057B0008623DF92EF92FF920F931F93CF93DF9395
:1057C000CDB7DEB72F970FB6F894DEBF0FBECDBFB3
:1057D0007C01DC01ED91FC918FE0DE0111960190DE
:1057E0000D928A95E1F7F092F818E092F7188C8103
:1057F000823009F4C3C08F8180932D1988858093EE
:105800002E19898580932F198A85809330198B856D
:10581000809331198C85809332198D85809333194B
:105820008E85809334198EEF9FEF90933819809373
:105830003719BE016B5F7F4F80E50E9489430E944C
:10584000B140F7010081118181E0D8018C9312965B
:10585000FC92EE921197F801EA56FF4F8083319641
:105860008F85808339978091BD1880838091BE1881
:1058700081838091BF1882838091C0188383809137
:10588000C11884838091C21885838091C318868350
:105890008091C418878332978FEF9FEF9183808325
:1058A0008C81823009F471C0F801EC57FF4F809170
:1058B0002D19808380912E19818380912F198283E5
:1058C00080913019838380913119848380913219BA
:1058D000858380913319868380913419878323E2ED
:1058E0003CEC9BE14091CB185091CC18DF01129712
:1058F00011965C934E938091431941E0480F409379
:10590000431911978C9312972D933C93369790835C
:10591000D8011C96FC93EE931B97BE016D5F7F4FE1
:1059200084E00E948943D82EBE016E5F7F4F80E0E5
:105930000E948943D11002C0882391F1D701ED91D3
:10594000FC9184E1808381EE83838FEF9FEF9283CC
:105950008183B7018EE799E10E9486230E941E4051
:105960002F960FB6F894DEBF0FBECDBFDF91CF915B
:105970001F910F91FF90EF90DF9008958F81988590
:10598000909338198093371954CF329780913719F3
:10599000909138199183808323E238EC95E1A2CF6E
:1059A00041E062E070E0C8010E940A278111C6CF81
:1059B00081E080937C19D4CFDC01ED91FC912091A2
:1059C0003D19222311F1B0916319A09164197091CE
:1059D0006519609166195091671940916819309165
:1059E000691920916A19B183A283738364835583F3
:1059F00046833783208720917219218723E12083F2
:105A0000BC018EE799E10C9486230C94FF22EF925F
:105A1000FF920F931F93CF93DF93FC01C081D1813D
:105A2000F980BA81AB815C814D813E812F8188856F
:105A300009851A85EB8490917B199250923048F039
:105A4000CF01DF91CF911F910F91FF90EF900C94B8
:105A5000FF22BF0192E09883FE01EC56FF4F908336
:105A60003196118300833296E0823B979091BD1866
:105A700090839091BE1891839091BF1892839091DA
:105A8000C01893839091C11894839091C218958304
:105A90009091C31896839091C41897833897F08299
:105AA000B183A283538344833583268387833297CC
:105AB0008091CB189091CC18918380838091431969
:105AC00091E0980F9093431931978083329783E642
:105AD0009CEC9183808331978BE18083FC87EB87FB
