:10000000ACC00000C5C00000C3C00000C1C00000FB
:10001000BFC00000BDC00000BBC00000B9C00000F0
:10002000B7C00000B5C000008DC20000C2C2000011
:10003000AFC00000ADC00000ABC00000A9C0000010
:10004000A7C00000A5C00000A3C00000A1C0000020
:100050009FC000009DC000009BC0000099C0000030
:1000600097C00000F5C0000093C0000091C00000E0
:100070008FC000008DC000008BC0000089C0000050
:1000800087C0000085C0000083C0000081C0000060
:100090007FC000007DC000007BC0000079C0000070
:1000A00077C0000075C0000073C0000000010000B0
:1000B00040011200020000FB002900220000240180
:1000C0001C002100000D010900030000F7000401DD
:1000D000030904EB000A02030904DD000C0C0353BE
:1000E00000410042005200650000000A034900433D
:1000F0000053005400000004030904090229000110
:100100000100C032090400000203000000092111AF
:10011000010001221C0007058103400001070502C0
:100120000340000806ABFF0A0001A1017508150095
:1001300026FF00954009018102954009029102C005
:100140001201000200000040571CBE5A00010102CB
:10015000000101C13201C032000011241FBECFEFE7
:10016000DAE0DEBFCDBF11E0A0E0B1E0E8EEF9E0FB
:1001700002C005900D92A630B107D9F721E0A6E0A4
:10018000B1E001C01D92AF34B207E1F702D02AC43A
:1001900037CF80E88093610010926100D2D0E8D020
:1001A0008823E9F387B1806C87B910924E011092D1
:1001B0000D0110920C012FEF83ED90E32150804050
:1001C0009040E1F700C00000D1E00FEF10E081E4C3
:1001D000D82E91EFE92E2AE5F22E80914E01882348
:1001E00091F010924E0160E08EE091E0C4D08093D7
:1001F0000801811106C0809107018F5F809307017C
:1002000002C0D093000180910001882331F3109245
:100210000601C0910601CA3270F479D3EC2FF0E0E8
:10022000E25FFE4FB80105D38083809106018F5FA6
:1002300080930601EECFD0920E01E0920F01F09272
:10024000370110920701D0934E0110920001C5CFE3
:100250001F920F920FB60F9211248F93EF93FF937B
:10026000F894E0910D018091CE00F0E0E25FFE4F46
:10027000808380910C01811116C080910D01811144
:100280000EC0E0910D01F0E0E25FFE4F808181340D
:1002900031F4479A81E080930C01479804C0109292
:1002A0000D0110920C0180910C018823E1F1E09185
:1002B0000D01F0E0E25FFE4F80818A3511F58091FB
:1002C0000E01813459F580910F01803F29F480910E
:1002D0000D01863119F50DC0813F29F480910D0182
:1002E0008932E1F406C0823FC9F480910D018E305D
:1002F000A9F4469A81E080934E0110920D01469830
:1003000012C080910D018A3248F0409A10920C017F
:1003100010920D0188B1817088B905C080910D01DE
:100320008F5F80930D017894FF91EF918F910F90E3
:100330000FBE0F901F9018958091E80080FFFCCFB2
:10034000089581E08093D70080EA8093D80082E10D
:1003500089BD09B400FEFDCF80E98093D8001092DA
:10036000E00010920B018CE08093E20078940895F5
:1003700080910B010895FC0180910B01811102C055
:100380008FEF08958FB7F8946093090191E09093EF
:10039000E9002091E80025FD0DC08FBF8091090183
:1003A000882309F4CDC080910B01882349F38FB7CE
:1003B000F894EDCF90819093F10091819093F100AA
:1003C00092819093F10093819093F10094819093A6
:1003D000F10095819093F10096819093F1009781BF
:1003E0009093F10090859093F10091859093F100A6
:1003F00092859093F10093859093F100948590936A
:10040000F10095859093F10096859093F100978582
:100410009093F10090899093F10091899093F1006D
:1004200092899093F10093899093F100948990932D
:10043000F10095899093F10096899093F100978946
:100440009093F100908D9093F100918D9093F10035
:10045000928D9093F100938D9093F100948D9093F1
:10046000F100958D9093F100968D9093F100978D0A
:100470009093F10090A19093F10091A19093F100DD
:1004800092A19093F10093A19093F10094A1909385
:10049000F10095A19093F10096A19093F10097A19E
:1004A0009093F10090A59093F10091A59093F100A5
:1004B00092A59093F10093A59093F10094A5909349
:1004C000F10095A59093F10096A59093F10097A562
:1004D0009093F10090A99093F10091A99093F1006D
:1004E00092A99093F10093A99093F10094A990930D
:1004F000F10095A99093F10096A99093F10097A926
:100500009093F10090AD9093F10091AD9093F10034
:1005100092AD9093F10093AD9093F10094AD9093D0
:10052000F10095AD9093F10096AD9093F10097ADE9
:100530009093F1009AE39093E8008FBF80E40895D0
:1005400080E008951F920F920FB60F9211248F939F
:100550009F938091E1001092E10083FF0FC0109201
:10056000E90091E09093EB001092EC0092E39093FD
:10057000ED0098E09093F00010920B0182FF12C002
:1005800080910B01882371F080910A01882319F072
:10059000815080930A0180910901882319F08150CC
:1005A000809309019F918F910F900FBE0F901F9024
:1005B00018951F920F920FB60F921124EF92FF928F
:1005C0001F932F933F934F935F936F937F938F93DB
:1005D0009F93AF93BF93CF93DF93EF93FF931092CB
:1005E000E9008091E80083FF0BC11091F100809138
:1005F000F100E090F1009091F100F12CF92AC09106
:10060000F1009091F100D0E0D92B2091F1006091A0
:10061000F10092EF9093E800863009F046C037E091
:100620008CEA90E0FC01459154914E155F0539F438
:10063000FC013296459154914C175D0721F00796C5
:10064000315081F7DDC0FC01349645915491FC0195
:100650003696849130E0362B2F3F310519F010F09B
:100660002FEF30E0281708F4822F3EEF9091E8003A
:10067000292F2570D9F392FDC6C0982F813408F038
:1006800090E4FA01292F222331F064916093F10064
:1006900021503196F8CF490F511D891B3093E80046
:1006A0008111E4CF903411F3AEC0853049F48EEF60
:1006B0008093E80041DE8E2D80688093E300A3C024
:1006C000893039F511116AC0E0920B018EEF8093E9
:1006D000E80041E082E591E04093E9009C012F5F52
:1006E0003F4FFC0154915093EB00552359F0F90111
:1006F00024912093EC009C012D5F3F4F3196849113
:100700008093ED004F5F453011F0C901E5CF8EE1D8
:1007100040C0883049F4103809F040C00DDE8091A7
:100720000B018093F10068C0811113C005DE1238FF
:1007300051F4C093E9008091EB0085FB882780F994
:100740001092E90001C080E08093F1001092F10066
:1007500053C0982F9D7F913009F51230F9F4EF289E
:1007600009F04EC0CF779FEF9C0F943008F048C03F
:100770009EEF9093E800C093E900833009F440C0F5
:1007800089E18093EB0081E090E001C0880FCA9579
:10079000EAF78093EA001092EA0035C0CD2B81F58C
:1007A000113AF1F4813061F580E43EEF9091E80078
:1007B000292F2570D9F392FD26C0982F813408F097
:1007C00090E4292F222321F01092F1002150FACF3A
:1007D000891B3093E8008111E9CF903439F313C0BD
:1007E000113271F4893061F48091E80082FFFCCF0E
:1007F0008BEF8093E800A0DD8EEF8093E80003C0CC
:1008000081E28093EB00FF91EF91DF91CF91BF9157
:10081000AF919F918F917F916F915F914F913F9198
:100820002F911F91FF90EF900F900FBE0F901F9090
:10083000189597FB072E16F4009406D077FD08D084
:100840000BD007FC05D03EF4909581959F4F0895FD
:10085000709561957F4F0895AA1BBB1B51E107C09E
:10086000AA1FBB1FA617B70710F0A61BB70B881F40
:10087000991F5A95A9F780959095BC01CD010895CF
:100880008F929F92AF92BF92CF92DF92EF92FF92A0
:10089000CF93DF93EC01688179818A819B81611517
:1008A00071058105910521F464E279ED8BE597E00E
:1008B0002DE133EF41E050E038D049015A019B016E
:1008C000AC01A7EAB1E44DD06B017C01ACEEB4EF12
:1008D000A501940152D0DC01CB018C0D9D1DAE1DF4
:1008E000BF1DB7FF03C00197A109B0488883998352
:1008F000AA83BB839F77DF91CF91FF90EF90DF902A
:10090000CF90BF90AF909F908F900895B9CF81E026
:1009100091E0B6CFA0E0B0E0809301019093020196
:10092000A0930301B09304010895052E97FB16F4DC
:1009300000940FD057FD05D024D007FC02D046F418
:1009400008C050954095309521953F4F4F4F5F4FD0
:10095000089590958095709561957F4F8F4F9F4F2B
:10096000089531D0A59F900DB49F900DA49F800D48
:10097000911D11240895B7FFF4CFF3DF821B930B71
:100980000895A1E21A2EAA1BBB1BFD010DC0AA1FD0
:10099000BB1FEE1FFF1FA217B307E407F50720F0E8
:1009A000A21BB30BE40BF50B661F771F881F991F63
:1009B0001A9469F760957095809590959B01AC01AC
:1009C000BD01CF010895A29FB001B39FC001A39FB5
:1009D000700D811D1124911DB29F700D811D112478
:0809E000911D0895F894FFCF6A
:0609E80001010000000007
:00000001FF
