:100000000C9409040C945D190C948A190C94B7197A
:100010000C94E4190C94111A0C943E1A0C946B1A5B
:100020000C94981A0C9441040C9441040C944104CF
:100030000C9441040C94F2170C9441040C943B185A
:100040000C9441040C9441040C9441040C9441041C
:100050000C9441040C9441040C9441040C9441040C
:100060000C9444230C94B1210C9455210C948321BD
:100070000C9441040C94DE220C94D31A0C94410489
:100080000C9441040C9441040C9441040C944104DC
:100090000C943F220C94E3210C9411220C947122B5
:1000A0000C9441040C9441040C9437190C942D8F3A
:1000B0000C9441040C9441040C9441040C944104AC
:1000C0000C9441040C9441040C9441040C9441049C
:1000D0000C9441040C9441040C9441040C9441048C
:1000E0000C9441040C9441040C9441040C9441047C
:1000F0000C948A8F0C9441040C9441040C94B28F9C
:100100000C9441040C9441040C9441040C9441045B
:100110000C9441040C9441040C9441040C9441044B
:10012000450E080000005F0E010001008C0E080063
:100130000200FA0D040003000C0F01000400030F7D
:10014000010005006F0E01000600700E010007009F
:10015000710E010008007B0E11000900600E020004
:100160000A00660E01000B000E0F02000C00060FC5
:1001700001000D001C0F01000E00960E01000F0083
:10018000970E02001300A00E01001400120F0800C9
:100190001500650E01001600EC07D80017002F0CA3
:1001A00003001800BA0D16001900C20310001E004B
:1001B000E20304001F00EA0302002000EE03170020
:1001C00021001C0414002200440411002300973A6B
:1001D000893ADC3ADC3ADC3A893A893ADC3ADC3A68
:1001E000893AE039093A123ADC3A183A213A2C3A7B
:1001F000DC3A353A3B3ADC3A893A6D3A823ADC3AB3
:10020000733A7C3A973A973A973A893A893A893ACF
:10021000893A893A893A893A893A893A893A893AC6
:10022000893A893A893A893A893A893A443A893AFB
:10023000DC3ADC3ADC3ADC3ADC3ADC3ADC3ADC3A0E
:10024000DC3ADC3ADC3ADC3ADC3ADC3A893A893AA4
:10025000973A763C893CC03CC03CC03C893C893CD8
:10026000893CC03C893C1E3C383C3D3CC03C403C49
:10027000433C463CC03C4B3C4E3C893C893C6B3C3F
:100280007F3CC03C6E3C713C363C743C743C893CC9
:10029000893C893C893C893C893C893C893C893C36
:1002A000893C893C893C893C893C893C893C893C26
:1002B000533C893CC03CC03CC03CC03CC03CC03C02
:1002C000C03CC03CC03CC03CC03CC03CC03CC03C4E
:1002D000893C893C823CBC446045604503451045EF
:1002E0006045604560451D452C45DC44E84460455B
:1002F000B9441045B7686069246A3E6A576A7A6BE8
:10030000A76B366E366E366E366E366E366E366E5F
:10031000366E366E006B0E6B366E4968326B116A44
:100320008D6E9A6EBC6EB66EB36EBC6EC66EBF70CE
:10033000BF70BF70BF70BF70BF70BF70BF70BF7045
:10034000B66EBC6EBF708A6EB96EAA6EDA74DF7458
:10035000E474E974EE74F374F874F874067509754E
:1003600022750C750F7512751575227518751B752C
:1003700022751E75FF780679067906790D791B7945
:100380003079147922792979607963796679667987
:1003900069796F7979796C7972797579F67DB57E3D
:1003A000C77EB07D0D7F0D7FC27EC77ECA7EF87E80
:1003B000E17E0D7F0D7FF87EE47DFB7E01940610CB
:1003C0008B06000001000200030004000500060087
:1003D0000700080009000A000B000C000D000E00C9
:1003E0000F0013001400150016001A001B00000077
:1003F00001000200030004000500060007000800D9
:1004000009000A000B000C000D000E000F00130085
:100410001400150016001700180019000000010054
:1004200002000300040005000600070008000900A0
:100430000A000B000C000D000E000F00130014004A
:100440001500160000000100020003000400050072
:1004500006000700080009000A000B000C000D0050
:100460000E000F0018000000000000000000000057
:10047000000000000000000000000000000000007C
:10048000000000000000000000000000000000006C
:10049000000000000000000000000000000000005C
:1004A000000000000000000000000000000000004C
:1004B000000000000000000000000000000000003C
:1004C000000000000000000000000000000000002C
:1004D00000000102010002020505080000FFFF34D0
:1004E00012000000000000000002060100400000B1
:1004F00000000000000000000000000000000000FC
:1005000000000000000000000000000000000000EB
:100510000000000000000500FF00000200401F0076
:1005200000033412010303000088130000102700A9
:1005300000010001E803000004E80300001041741A
:100540006D656C202020202020202020202000000D
:1005500000000000000003030085000000080508FB
:100560000802050204000000080108030208010057
:100570005F0035000E011410450E08004E0E0100FC
:100580005B0E04005F0E01000A0F01000B0F01005B
:10059000120F08000E0F0200970E0200A00E0100BD
:1005A000060F01001C0F01000C0F0100620E01007C
:1005B000630E0100640E0100650E0100600E020072
:1005C000660E0100080F0100070F0100240E010054
:1005D000260E01008C0E0800FA0D0400720E0400B5
:1005E000670E04006B0E04006F0E0100700E010018
:1005F000710E01007B0E1100030F0100760E010049
:10060000770E0400940E0100270E0200960E0100E2
:10061000950E010000000000590502005D05010073
:100620005B0502005F050100600501006105010036
:100630006205010063050100640501006505010014
:10064000660501005E0501006705010068050100FF
:10065000760502006B0501006C0501006D050100C7
:1006600072050400690501006A0501006E050100BC
:100670006F05010070050200B7060000EC070000DE
:100680003C070000C408000000000000F40800005F
:1006900000000000920D000000000000D00B0000E0
:1006A00000000000070C0000320C00004C0D0000A0
:1006B00000000000000000002F0C0000BA0D000038
:1006C000D00D0000881D771E8C1D901D731E941D7B
:1006D000BF2D0D33000000000000000000000000EE
:1006E0007F460448FC51EB49000000000000000078
:1006F000534C00001A5500009741FE4032538D4084
:1007000000000000000000000000000002020302E0
:1007100002020101010101010102020101010202C3
:1007200002020202020202020202020303020203A6
:1007300002000000000107000000000101000000AD
:10074000000101B247FE4501010000000001010067
:10075000000000010780475E460101000000000123
:10076000010000000001070000000001010000007E
:10077000000103000000000104000000000105006A
:10078000000000010600000000010C000000000154
:100790000100000000000100000000010D00000049
:1007A0000001070000000001090000000001000036
:1007B0000000000101000000000101000000000035
:1007C000000000FF4100070000FF41000B0000FF98
:1007D0004100000000FF41006D3DE63E00000000CA
:1007E00000000000743D0000183E7B3D00004E3DBF
:1007F000873E0000000000001F3E00005A3F00003E
:1008000000000000F45600000000B44600000000A4
:100810000000112480914115823141F084B78F711D
:100820008093411580FF05C081E001C081E1809384
:10083000411514BE80916000886180936000109221
:10084000600011241FBECFEFD1E4DEBFCDBF12E0A8
:10085000A0E0B2E0E2E5F2E201E00BBF02C00790E7
:100860000D92A63AB107D9F715E1A6EAB2E001C0A8
:100870001D92A134B107E1F70E94DF5D0E94A15DE6
:10088000FDCF0C9400007F937FB7F8949D9AA598B4
:100890008AEF0E94A2048AEF0E94A2049D9886E437
:1008A0000E94A20481E0959980E08F9380EF0E94DE
:1008B000A2048F917FBF7F9108957F937FB7F894B3
:1008C0009D9AA59886E00E94A2049D988AE00E94C5
:1008D000A204889495990894881F8F9384E60E94B7
:1008E000A2048F917FBF7F9108959F937F9398E09B
:1008F0000E945D04879577959A959923C9F7872F6C
:100900007F919F9108957F937FB7F894A5989D9AC2
:100910008F9386E00E94A2048F91879508F49D989A
:100920008F9384E60E94A2048F919D987FBF7F9150
:1009300008959F9398E00E9483049A959923D9F78C
:100940009F91089500000000000000008A95882310
:10095000C9F708955F937F937FB7F894CF93DF93A0
:10096000C0E0D0E07F935091B2007091B200751753
:10097000E1F3739521965091B2005717D9F77F9103
:10098000CE01DF91CF917FBF7F915F9108950F934B
:10099000DF93CF93CDB7DEB760970FB6F894DEBF85
:1009A0000FBECDBF002309F459C029833A834B837E
:1009B0005C836D837E838F839887E0E2E01B2981CF
:1009C0003A814B815C811E16BCF019861A861B8603
:1009D0001C868E2F992787FD9095909581959F4F26
:1009E00004C0220F331F441F551F8A95D2F72D874D
:1009F0003E874F87588B2AC0CA01B901002E04C018
:100A0000660F771F881F991F0A94D2F769877A8724
:100A10008B879C87DA01C90104C0B695A795979585
:100A20008795EA95D2F72D813E814F81588504C084
:100A3000220F331F441F551F0A95D2F7822B932B89
:100A4000A42BB52B8D879E87AF87B88B29853A85D8
:100A50004B855C856D857E858F85988960960FB600
:100A6000F894DEBF0FBECDBFCF91DF910F910895F7
:100A7000AA2797FDA095BA2F80931C0290931D0280
:100A8000A0931E02B0931F02E091A602F091A7026C
:100A900009950895882369F0882777FD8095982F18
:100AA000609320027093210280932202909323028C
:100AB00008C010922002109221021092220210927D
:100AC000230286E695E00E9467110895882369F065
:100AD000882777FD8095982F6093240270932502D4
:100AE000809326029093270208C01092240210924D
:100AF0002502109226021092270288E395E00E94B8
:100B00008B1108950E943F110E9463110E9487116A
:100B100008950E9441110E9465110E948911089553
:100B20009093A7028093A6028AE495E00E94431165
:100B300008950E94EF11089580E00E94191281E04B
:100B40000E940C1282E00E940C12089580E00E9424
:100B5000FF1181E00E940C1282E00E940C120895A5
:100B600082E00E940C12089582E00E940C12089507
:100B700082E00E94FF11089582E00E940C12089505
:100B800081E00E94191208950E94EF1180E00E94F6
:100B9000FF1108950E94F711089580E00E94191234
:100BA00008950E94C40582E08093A8020E94C90AA9
:100BB00008951092A8020E94C90A0895FC0180813C
:100BC000882321F483E08093A802089583E0809332
:100BD000A8020E94C90A08950E94150B882311F0EB
:100BE00083E001C084E08093A8020E94C90A0895AE
:100BF000A2E0B0E0EEEFF5E00C944A901091A8026C
:100C00001230B9F0133038F4112309F441C0113017
:100C100009F062C01AC0143061F1143078F1153057
:100C200009F05AC00E94150B882309F453C083E0D1
:100C30004FC00E94AF0A0E94820585E08093A802FF
:100C400080E796E00E94900547C01A821982CE0183
:100C500001960E948A08882351F0E981FA81119354
:100C6000A0E0B2E085E30D9001928150E1F784E0CD
:100C70002FC089EA92E00E9458132EC00E94CA0534
:100C800085E08093A80286EB92E00E94B66424C0BF
:100C900089EA92E00E94841384EF91E0A0E0B0E042
:100CA0008093AF029093B002A093B102B093B202CE
:100CB00081E08093B3028CEE95E09093B50280932F
:100CC000B4028EED95E09093B8028093B70282E073
:100CD0008093A8020E94C90A2296E3E00C946690D1
:100CE0000E94890581E08093A8020E94C90A0895A4
:100CF000A1E0B0E0EEE7F6E00C944B9019828CE1B5
:100D0000BE016F5F7F4F0E94EA121092A8022196E7
:100D1000E2E00C946790FC0163857485818592857F
:100D20000E94280B81E00895A4E0B0E0EAE9F6E033
:100D30000C944B909C838B831A821982CE0101966E
:100D4000BE016D5F7F4F40E050E00E94CB078823DB
:100D5000F1F0E981FA8180E2DF011D928A95E9F7DD
:100D6000E981FA8181E090E09787868722E02283FB
:100D70001482138221E02587918B808B228B86E35E
:100D800090E0948B838B87898C60878B108E81E0B9
:100D90002496E2E00C946790FC018CEB93E0918741
:100DA000808786E0828788E796E09383828388EF56
:100DB00095E09183808389ED95E09583848381ED2F
:100DC00095E0978386830895DC01ED91FC9111975E
:100DD000E617F70781F40E94315B682F792F0FC067
:100DE0008617970739F4DB018D919C9111979183B8
:100DF000808305C0FC0180819181009789F7CB0138
:100E00000895CF93DF93BC0163577040FC0180814C
:100E1000882321F41092C20282E00FC08091C202A6
:100E20008F5F8093C202843028F41092C102CBEB12
:100E3000D2E007C01092C20283E08093C102CFEBE0
:100E4000D2E08DEB92E00E94E406BC01CE010E944C
:100E5000785B0E94F50ADF91CF910895CF93DF93DD
:100E60001092C1021092BC021092BB021092BA0200
:100E70001092B9021092BE021092BD021092C002EE
:100E80001092BF02C9EBD2E0CE0163EC72E00E9487
:100E9000785BCE016DE373E00E94785BDF91CF91C8
:100EA0000895CF93DF938091C102823009F443C04B
:100EB000833049F1882309F050C0C091BB02D09122
:100EC000BC02209709F449C00E94B805FE01EF5802
:100ED000FF4F81E097E091838083FE01E359FF4F4C
:100EE000CE01829691838083CE01885A9F4F0E94C3
:100EF000812B8BEB92E00E94315BBC018DEB92E089
:100F00000E94785B28C00E940B0B15C0EC01229751
:100F1000FC01EA58FF4F0190F081E02D309709F075
:100F200009958FEB92E0BE010E94E406BC0189EBBB
:100F300092E00E94785B8091BF029091C00200977E
:100F400011F0029602C080E090E00097F9F60E944E
:100F5000BC051092C1020E94F50ADF91CF9108955D
:100F60008091BB029091BC02009779F48091BD0200
:100F70009091BE02009761F481E090E02091BF0261
:100F80003091C0022115310529F080E090E00895EC
:100F900080E090E00895A2E0B0E0E1EDF7E00C948D
:100FA00045907C018B016A012091B9023091BA020F
:100FB00021153105D9F189EB92E029833A830E940A
:100FC000315BBC018BEB92E00E94785BD801ED9124
:100FD000FC91119729813A81309739F0D901929685
:100FE00086E301900D928150E1F7D701ED91FC91DC
:100FF0001197309741F0D901A85ABF4F80E2019074
:101000000D928150E1F7C9018296F80191838083A6
:10101000C901885A9F4FD70111969C938E932858E7
:101020003F4FF901D182C08281E001C080E0898315
:101030000E94F50A89812296E8E00C9461900F9352
:101040001F93CF93DF931092BA031092B9031092BB
:10105000B8031092B703C0E0D0E008E310E0C09FEF
:10106000B001C19F700DD09F700D112465547C4F4D
:1010700087EB93E00E94785B2196C430D10579F725
:10108000DF91CF911F910F910895A3E0B0E0EBE4C1
:10109000F8E00C944990E091B903F091BA033097CD
:1010A00019F18F010E5F1F4FCE01019662810E94E0
:1010B000510B882331F0EA81FB81C801099588230F
:1010C00041F089EB93E00E94315BBC0187EB93E038
:1010D00007C089EB93E00E94315BBC0189EB93E090
:1010E0000E94785B0E94DF0A2396E4E00C946590EE
:1010F0002091B9033091BA032115310519F02E5F03
:101100003F4F02C020E030E081E02115310509F0B9
:1011100080E00895A1E0B0E0E0E9F8E00C944790A9
:101120008C01E090B703F090B803E114F104E9F00A
:1011300087EB93E00E94315BBC0189EB93E00E9456
:10114000785BD801ED91FC911197309739F0D70178
:10115000129686E301900D928150E1F7C701029645
:10116000F8019183808381E001C080E089830E943F
:10117000DF0A89812196E6E00C9463902FB7F894FA
:1011800080916306909164069460909364068093C6
:1011900063062FBF0895FC018285882321F484E033
:1011A0008093B50408950E94BE080895882361F4D1
:1011B0008091C404882381F487EB94E00E94581343
:1011C00081E08093C4040895813031F41092C40406
:1011D00087EB94E00E94841308950E94CD056091EE
:1011E000A6047091A7042091AE043091AF04409101
:1011F000B0045091B104CB01A0E0B0E0281739074A
:101200004A075B0710F4DA01C9019B01281B390B5F
:10121000C9013093A7042093A604009731F40E94DB
:10122000C40588EA94E00E9484130895CF93DF9365
:10123000EC0181E00E94D6088F85882311F582E0B9
:101240008093B5040E94A605E0919F04F091A0044C
:10125000309709F009958B819C81909314028093BB
:10126000130289819A8190930A02809309028D85E5
:101270009E859093170280931602888180931502B1
:1012800002C00E94BE08DF91CF9108950E949C0584
:101290000895A2E0B0E0EFE4F9E00C944B90FC017B
:1012A00082A193A19A8389830E94C005CE010196F1
:1012B0000E948A082296E2E00C946790A9E0B0E0D0
:1012C000E4E6F9E00C944B908091B504813009F488
:1012D0009CC0813038F0823009F476C0833009F048
:1012E000DCC0A3C00E9499058BE994E00E94CC0663
:1012F00082E0898380E2BE016F5F7F4F0E94EA1225
:1013000089818093000281E08093A30581E090E0D1
:101310009093A5058093A4059093A7058093A605B7
:101320008091A805807F81608093A80583EA95E07D
:101330009093B3058093B20589E499E09093B50545
:101340008093B4058FEA95E00E94652E84EF91E0CA
:10135000A0E0B0E08093BD049093BE04A093BF04CE
:10136000B093C0041092C10486E499E09093C30442
:101370008093C20480E0BE016E5F7F4F0E94CF1257
:10138000E1E0F2E08A81809301028B8181838C818C
:1013900082838D8183838E8184838F8185838885F9
:1013A000868389858783E0919D04F0919E04309720
:1013B00009F009950E942E070E941F0881E0809382
:1013C000B5040E94BE0869C08091B60480FF0AC0BF
:1013D0008E7F8093B604E0919B04F0919C0430973B
:1013E00009F009958091B60482FF05C08B7F809338
:1013F000B6040E9451078091B60481FF4EC08D7FD4
:101400008093B6040E94450848C00E949C0580E075
:101410000E94D60886E199E09093D8048093D7047F
:1014200085EC94E00E94766638C00E94B0058BEC93
:1014300098E0909352058093510584E390E0909357
:10144000E0048093DF0481E08093E1041092E204E1
:101450001092E3041092E4041092E5041092E60462
:101460001092E7041092E8041092E90410920B0520
:1014700010920C0510920D0510920E0510920F059A
:1014800010921005109211051092120580E48093BD
:10149000130589ED94E00E946C672996E2E00C94B4
:1014A0006790FC018081803509F450C0803951F08B
:1014B000813920F48E3808F449C010C0813909F010
:1014C00045C004C084E08093B50408950E94B4052B
:1014D00081E08093B5040E94BE08089586819781BB
:1014E00090930A028093090283819481909314025D
:1014F0008093130281819281909317028093160248
:1015000085818093150281E00E94D6080E94A6057D
:101510008091B504813039F4E0919F04F091A004EA
:10152000309709F009958091B504843061F482E028
:101530008093B504E0919F04F091A004309709F0E6
:1015400009950E94BE0882E08093B5040895E09159
:10155000A104F091A204309709F009950895A4E040
:10156000B0E0E5EBFAE00C944B908091160290917C
:1015700017029A838983CE0101960E949B648B8116
:10158000809318028C81809319022496E2E00C94D7
:1015900067908091B504823089F48091B6048160AF
:1015A0008093B6042FB7F8948091630690916406F7
:1015B000946090936406809363062FBF0895809192
:1015C000B504823089F48091B60482608093B604B9
:1015D0002FB7F8948091630690916406946090937D
:1015E0006406809363062FBF08958091B50482300E
:1015F00089F48091B60484608093B6042FB7F89480
:101600008091630690916406946090936406809341
:1016100063062FBF08958091B504823029F483E0DA
:101620008093B5040E94BE0808958091A60490910D
:10163000A704009739F40E947808882331F00E94AB
:10164000B007089580E090E0089580E090E008956C
:10165000CF93DF93EB01009709F12097F9F0909376
:10166000A7048093A60488EA94E00E948413CE0124
:10167000A0E0B0E08093AE049093AF04A093B004D8
:10168000B093B1041092B2048DEE98E09093B4043C
:101690008093B30488EA94E00E945813DF91CF91BD
:1016A0000895EF92FF920F931F93CF93DF93EC0176
:1016B000062F8091A3049091A4040097D1F010E02C
:1016C00014C023E0129FC00111242091A304309183
:1016D000A404280F391FCE01B90143E050E00E9455
:1016E000D6908881081761F01F5F8091A5041817B4
:1016F00040F383E0DE011D928A95E9F780E001C0A6
:1017000081E0CDB7DEB7E6E00C94639008950895CC
:101710000895A6E0B0E0EFE8FBE00C9449908E015C
:101720000F5F1F4F26E0F80111922A95E9F7FC019F
:1017300023E0F695E7952A95E1F7E00FF11F877012
:10174000907021E030E002C0220F331F8A95E2F74B
:101750002083C8010E94B50FD801E5E9F6E0CE016B
:1017600007963D912081232B2193A817B907C9F72C
:101770008091B00684608093B0062696E4E00C94D5
:10178000659002C00E94DC5D0E94A9148823D1F7F5
:1017900008950F931F93CF93DF938C01EB010E9469
:1017A000C10BC801BE010E94D0132FEF8F3F9207DB
:1017B00039F08BE0C838D80729F40E94C10B02C069
:1017C00081E001C080E0DF91CF911F910F910895DA
:1017D0000F931F93CF93DF938C01EB010E94C10BFA
:1017E000C801BE010E9434142FEF8F3F920739F0D9
:1017F0008BE0C838D80729F40E94C10B02C081E0F1
:1018000001C080E0DF91CF911F910F9108952F9239
:101810003F924F925F926F927F929F92AF92BF9250
:10182000CF92DF92EF92FF920F931F93DF93CF93AC
:10183000CDB7DEB762970FB6F894DEBF0FBECDBF4F
:101840008091B00682608093B00682FF94C087EBDF
:1018500095E065E976E00E9466108091B0068B7F86
:101860008093B00688C0E090BD05F090BE05F701FA
:1018700003E0F695E7950A95E1F7ED57F94FC701B3
:1018800087709070960102C0220F331F8A95E2F78D
:10189000C901809592898923828B69857A854B85D8
:1018A0005C8580E00E948610982E588A4F863A8A7E
:1018B000298A8F81988505979E878D87C50168E85D
:1018C0007BE00E94C90B8A819816A1F58D819E81CB
:1018D000E816F90679F52B853C858B819C812817C4
:1018E000390741F581E090E08C0F9D1F988B8F8721
:1018F000DA8AC98A00E010E017C08F819885800FCE
:10190000911F9E878D87C50168E87BE00E94C90B07
:10191000AF85B889E985FA85E00FF11F9C91808138
:10192000981741F40F5F1F4F8B859C850817190787
:1019300020F336C09A82FE82ED828B859C859C8343
:101940008B83CE010296988B8F8785E090E09A8BEF
:10195000898B8F81988505979E878D87CE010D96FF
:1019600068E87BE00E94E80BCE01079667E07CE028
:101970000E94E80B27C017E0612E712C6C0E7D1EB3
:10198000B1E0CB2ED12CA2E04A2E512C4C0E5D1E84
:10199000F5E02F2E312CEDE0AE2EB12CAC0EBD1E9D
:1019A00087EB95E0B3010E94550F882309F05BCFC8
:1019B0008091B0068D7F8093B0068FE060E070E08C
:1019C0000E94CA5C62960FB6F894DEBF0FBECDBF10
:1019D000CF91DF911F910F91FF90EF90DF90CF900B
:1019E000BF90AF909F907F906F905F904F903F908F
:1019F0002F900895282F392FF90180E09191992394
:101A000029F48F5F8630D1F780E0089581E0089552
:101A10009C01CB0146E0DB011D924A95E9F7F901F3
:101A200043E0F695E7954A95E1F7E60FF71F277033
:101A3000307041E050E002C0440F551F2A95E2F794
:101A40002081242B20830E94B50F0895972F88238F
:101A500019F08130A1F40EC0ABE9B6E0E62FF72F04
:101A60009D9180818923819386E0A13AB807C1F7CF
:101A700091E006C0862F0E94F81091E0811190E05D
:101A8000892F08950E94890B8091B00681FD02C0C4
:101A90000E94070C81E00895A6E0B0E0E2E5FDE0D9
:101AA0000C9449908E010F5F1F4FB8010E94080DE2
:101AB00080E0B8010E94260DC8010E94FA0C88231C
:101AC00081F0AFE8B6E0F8019D9180818923819390
:101AD00086E0A539B807C1F7CE0101960E94FA0C3D
:101AE00001C080E02696E4E00C946590A8E1B0E0A7
:101AF000ECE7FDE00C943F9000E211E010938406C7
:101B0000009383068AEA91E0909386068093850687
:101B10008AEA91E0801B910B26E030E0B9010E9437
:101B200005908091870690918806682B792B709399
:101B30008806609387068EEC91E08A5A9140B9013D
:101B40000E9405908091890690918A06682B792BD6
:101B500070938A066093890610928B0610928C0609
:101B600010928D0610928E0686E0EBE9F6E0DF011A
:101B70001D928A95E9F7AA2483E1882E912C8C0E78
:101B80009D1EB1E0CB2ED12C38C0C401B80146E077
:101B900050E00E94D6908D899E890596A0E0B0E025
:101BA00020918B0630918C0640918D0650918E06C7
:101BB000820F931FA41FB51F80938B0690938C06F2
:101BC000A0938D06B0938E068F89988DFC01A3E0BB
:101BD000F695E795AA95E1F7ED57F94F8770907064
:101BE000960102C0220F331F8A95E2F7C901208DAA
:101BF000282B208F0A5F1F4FA394209187063091D6
:101C000088068A2D90E08217930708F4BECFC90199
:101C1000880F991F820F931F880F991F04966C01DC
:101C2000EE24FF24CE010D969A87898786E090E006
:101C30009C878B87AA24BB2400E010E067E0862EF7
:101C4000912C8C0E9D1E53E1652E712C6C0E7D1E09
:101C5000F80143E0F695E7954A95E1F7ED57F94F1E
:101C6000808D90E098012770307002C0969587951E
:101C70002A95E2F780FF3DC0C501880F991F8A0DA4
:101C80009B1D880F991F049698878F83C40168E86D
:101C90007BE00E94C90B89899A898017910749F4D2
:101CA0008D859E85AF85B8898C159D05AE05BF05D0
:101CB00059F01A8B098BCD86DE86EF86F88AC4012F
:101CC00068E87BE00E94E80BC8010E94990EBC0105
:101CD000C30146E050E00E94D6908D899E8905960A
:101CE000A0E0B0E0C80ED91EEA1EFB1E0894A11C9D
:101CF000B11C0F5F1F4F0D32110509F0A9CF0E94D3
:101D0000900ECE0101960E94F8106896EEE00C94B9
:101D10005B908091AE069091AF060E94420D0895AF
:101D20001092AB0689E89EE09093AD068093AC06D6
:101D30000895A2E0B0E0EFE9FEE00C9441904C0180
:101D40000091830610918406EE24FF245E0108941E
:101D5000A11CB11C13C06801B8016C5F7F4FC501A5
:101D600042E050E00E94D6900A5F1F4F89819A811D
:101D70008815990561F00894E11CF11C8091870693
:101D800090918806E816F90630F3CC24DD24C601CC
:101D90002296ECE00C945D90A2E1B0E0E2EDFEE072
:101DA0000C9448908B01BC0153E0769567955A9549
:101DB000E1F7FB01ED57F94F208D30E0AC014770A2
:101DC000507002C0369527954A95E2F720FF4AC029
:101DD000DE011D96EBE9F6E026E001900D92215020
:101DE000E1F7FF2420E030E0FE013D961BC0DF015B
:101DF000A40FB51F4C91542F569555754575540F2A
:101E0000452F4695469543735373450F4C93A42F26
:101E1000A295AF7050E04F7050704A0F511D240FC3
:101E2000351FF3944F2D50E04617570700F3A0E0FD
:101E300087709070FE013D96E60FF71F0DC0408140
:101E400050E00A2E02C0569547950A94E2F7417079
:101E50005070240F351FAF5F4A2F50E048175907C5
:101E600070F302C02FEF3FEFCE0107969C838B8368
:101E7000C901880F991F820F931F880F991F04961D
:101E80009A83898386E090E09E838D83CE010196BC
:101E900068E87BE00E94C90B8F819885F8019183E7
:101EA00080836296E5E00C946490A6E0B0E0EBE5F8
:101EB000FFE00C9447907C018B0180E090E0FC01F6
:101EC00063E0F695E7956A95E1F7EE0DFF1D6081F9
:101ED000AC0147705070262F30E0042E02C03695BA
:101EE00027950A94E2F720FF10C021E030E002C0FD
:101EF000220F331F4A95E2F72095262320830E9464
:101F0000990EBC01009731F426C001968D329105DF
:101F1000B1F621C0CE01019646E050E00E94D69075
:101F200089819A81F801938382838D819E81B80192
:101F30000E94CC0EF8018081918105969183808367
:101F40008B819C81958384838D819E81F70197830A
:101F5000868381E006C08FEF9FEFF701978386832A
:101F600080E02696E6E00C9463904F925F926F9229
:101F70007F929F92AF92BF92CF92DF92EF92FF92A9
:101F80000F931F93DF93CF93CDB7DEB728970FB68C
:101F9000F894DEBF0FBECDBF8C0130918506209135
:101FA0008606FC01858186FD12C0C901E92EF82E46
:101FB000CC24DD2483E0482E512C4C0E5D1EB1E074
:101FC000AB2EB12C3E010894611C711C61C0C8018C
:101FD0006FEF70E046E050E00E94079161C0C201DF
:101FE000B70146E050E00E94D6902F813885F90174
:101FF000A3E0F695E795AA95E1F7E00FF11F408180
:1020000027703070842F90E0022E02C0969587953D
:102010000A94E2F780FF35C0C50102C0880F991FFE
:102020002A95E2F79C01209524232083992422C03D
:10203000880F991F6B817C81680F791FC30142E073
:1020400050E00E94D69089819A81FC0173E0F69558
:10205000E7957A95E1F7E00FF11F87709070950191
:1020600002C0220F331F8A95E2F7C9012081282B75
:1020700020839394892D90E02D813E8182179307D0
:10208000B8F20894C11CD11C86E090E0E80EF91E5D
:102090008091890690918A06C816D90608F49FCFC8
:1020A00028960FB6F894DEBF0FBECDBFCF91DF915B
:1020B0001F910F91FF90EF90DF90CF90BF90AF9066
:1020C0009F907F906F905F904F900895CF93DF9394
:1020D000EC018FEF9FEF9F838E83DE01862F972F7A
:1020E000FC0186E001900D928150E1F7CE010E9443
:1020F000B50FEBE9F6E0919188818923899386E019
:10210000E13AF807C1F7DF91CF910895262F372FD5
:10211000F90120E030E004C09191890F2F5F3F4F1B
:1021200024173507C8F30895ACE0B0E0EAE9F0E120
:102130000C9444907C018B01CE0102969A8789878A
:1021400085E090E09C878B87FB01808191810597DA
:1021500098878F8387E0C82ED12CCC0EDD1EC60158
:1021600068E87BE00E94C90B8D819E81E816F90624
:10217000C1F5F801248135818B819C8128173907AD
:1021800081F5CE0101969A87898781E090E09C874E
:102190008B87EE24FF24BB24C601DC2CC92E18C07B
:1021A000F801808191818E0D9F1D98878F838D2DE1
:1021B0009C2D68E87BE00E94C90B69857A858B2D90
:1021C00041E050E00E948610B82E0894E11CF11CFA
:1021D000F80184819581E816F90610F38A81B81612
:1021E00011F082E001C080E02C96E9E00C94609050
:1021F000AEE0B0E0EEEFF0E10C9443908C0147E0EC
:10220000E42EF12CEC0EFD1EC701B8010E946610F1
:1022100086E0D8011D928A95E9F7BE2CAF2C7E018D
:102220000894E11CF11C31E0C32ED12C1DC08D851A
:102230009E85B7010E9494108823B1F48D859E85F8
:10224000FC0123E0F695E7952A95E1F7E00FF11FF1
:1022500087709070960102C0220F331F8A95E2F7B3
:10226000C9012081282B20838B2D9A2DB7010E9434
:10227000550F8823E1F62E96EAE00C945F9080E0FB
:10228000089580E008959093B4068093B3068091FA
:10229000D90582608093D9052FB7F89480916306A1
:1022A00090916406916090936406809363062FBFBB
:1022B00080E00895E091B306F091B40681E060E01B
:1022C00070E00995089580E0089580E00895909366
:1022D000B6068093B5068091D90584608093D905B0
:1022E0002FB7F89480916306909164069160909363
:1022F0006406809363062FBF80E00895E091B506E1
:10230000F091B60681E060E070E00995089580E004
:10231000089580E008959093B2068093B10680916D
:10232000D90588608093D9052FB7F894809163060A
:1023300090916406916090936406809363062FBF2A
:1023400080E00895E091B106F091B20680E090E05F
:10235000099508950F931F93CF93DF930FEB15E02B
:10236000C0E0D0E0FE01A3E0EE0FFF1FAA95E1F769
:10237000EC1BFD0BE054FA4F808180FF0CC0808184
:102380008E7F8083E091D405F091D505309719F0C8
:10239000D8018C910995FE0173E0EE0FFF1F7A952D
:1023A000E1F7EC1BFD0BE054FA4F808181FF0CC07C
:1023B00080818D7F8083E091D605F091D70530979D
:1023C00019F0D8018C9109952196095F1F4FC330F0
:1023D000D10541F6DF91CF911F910F9108956A9A2F
:1023E000729A6B9A739A6C9A749A80E008956A98BC
:1023F00072986B9873986C98749880E00895813007
:1024000039F0813018F0823031F404C072980895A8
:102410007398089574980895813039F0813018F0D8
:10242000823031F404C0729A0895739A0895749AB0
:102430000895813041F0813018F0823069F408C08D
:102440008EB194E002C08EB198E089278EB90895CC
:102450008EB190E189278EB908958091D90580FFCA
:1024600007C08091D9058E7F8093D9050E94AA115B
:102470008091D90581FF07C08091D9058D7F809318
:10248000D9050E945A118091D90582FF07C0809119
:10249000D9058B7F8093D9050E947E118091D90543
:1024A00083FF07C08091D905877F8093D9050E945B
:1024B000A2118091D905882361F02FB7F8948091FB
:1024C000630690916406916090936406809363061E
:1024D0002FBF0895E9E2FEE082E3DF011D928A95B5
:1024E000E9F77C9681E08093450E8DE0818380EC56
:1024F00082838EEB83838AE584831582168217821A
:1025000085E080934E0E87E99EE066E674E046E83B
:1025100050E00E94D6908AEF9DE06CEE74E04FE2AE
:1025200050E00E94D69088EF9DE06BE175E042E0BC
:1025300050E00E94D6908BE59EE06DE175E04CE3A3
:1025400050E00E94D69081E497E0E7EBF6E0DF01EF
:102550009C011D9221503040E1F70895A4E0B0E0C5
:10256000E4EBF2E10C944B90682F70E0660F771F5C
:10257000660F771F68587A4FCE01019644E050E00D
:102580000E94D69069817A818B819C812496E2E0B9
:102590000C9467900E946A120E94760D0895EF9243
:1025A000FF921F93CF93DF93182FEB01209761F0D9
:1025B0000E94AE12AC01183220F0CE010E94D690DB
:1025C00003C0CE010E94EC90DF91CF911F91FF904C
:1025D000EF900895EF92FF92CF93DF93EB01209756
:1025E00071F0883260F406C0CB01BE01A9010E94DF
:1025F000EC9005C00E94AE129C010097A9F7DF91F4
:10260000CF91FF90EF900895CF93DF93EB010E945D
:10261000AE12009711F479836883DF91CF9108950A
:102620000E94A2040895EF92FF920F931F93CF93FD
:10263000DF9318C08AED95E060E070E0AE010E9483
:1026400098168A85882359F4EA82FB820C831D83BD
:102650008AED95E0BE01A80197010E94E014EB8588
:10266000FC8509958091DA059091DB050097D9F0FA
:102670000E942C197B018C01C091DA05D091DB05F9
:102680008A819B81AC81BD81A8019701281B390BF0
:102690004A0B5B0B8E819F81A885B9852817390766
:1026A0004A075B0738F6CDB7DEB7E6E00C946390D7
:1026B000CF93DF93EC01009771F0E091DA05F09190
:1026C000DB0506C0EC17FD0749F00190F081E02D15
:1026D0003097C1F709C02FEF3FEF02C020E030E094
:1026E000C901DF91CF9108950E942C199B01AC0183
:1026F000198218826A837B838C839D838AED95E09F
:10270000BE010E94E014EACFCF93DF93EC01009763
:10271000D1F08091DA059091DB058C179D0749F087
:102720008AED95E0BE010E94B716BC01009719F42E
:102730000AC060E070E08AED95E0AE010E94981654
:1027400020E030E002C02FEF3FEFC901DF91CF91D1
:1027500008958F929F92AF92BF92CF92DF92EF92A5
:10276000FF920F930E945E174B015C012091DD05E3
:1027700030E040E050E060E070E080E090E000E2B7
:102780000E94C704282939294A295B290F91FF9003
:10279000EF90DF90CF90BF90AF909F908F90089573
:1027A000FC018091DC05882309F057C0309709F4BB
:1027B00057C08481958120813181820F931F20E150
:1027C0008130920708F04CC081E08093DC05709363
:1027D000240F6093230FADE1BFE086E001900D92DE
:1027E0008150E1F7F999FECF80E090E017C0E091C9
:1027F0001F0FF091200FE80FF91F20911D0F30914E
:102800001E0FA9014F5F5F4F50931E0F40931D0F86
:1028100032BD21BDF89A20B5208301962091210F69
:102820003091220F8217930710F31092220F10920B
:10283000210F809103068460809303062FB7F894DC
:102840008091630690916406826090936406809301
:1028500063062FBF20E030E005C02EEF3FEF02C03F
:102860002FEF3FEFC9010895CF93DF93FC019B0148
:102870008091DC05882309F063C0309709F463C0B8
:102880006081718184819581860F971F40E181303D
:10289000940708F058C081E08093DC05ADE1BFE00B
:1028A00086E001900D928150E1F73093240F209340
:1028B000230F2115310519F4C0E0D0E033C0CB015E
:1028C000019690931E0F80931D0FE0911F0FF091C2
:1028D000200F4191F093200FE0931F0F8CE00E9496
:1028E000C51A8091210F9091220F01979093220F8A
:1028F0008093210F22C060911D0F70911E0FCB019C
:10290000019690931E0F80931D0FE0911F0FF09181
:10291000200F4191F093200FE0931F0F84E00E945D
:10292000C51A21968091210F9091220FC817D907BF
:1029300010F3F999FECF1092DC0520E030E005C0DD
:102940002EEF3FEF02C02FEF3FEFC901DF91CF9194
:10295000089581E09091DC05913009F080E00895C0
:102960008091210F9091220F009751F41092DC0575
:10297000E091230FF091240F309709F10995089504
:1029800060911D0F70911E0FCB01019690931E0F49
:1029900080931D0FE0911F0FF091200F4191F09354
:1029A000200FE0931F0F8CE00E94C51A8091210F29
:1029B0009091220F01979093220F8093210F0895F9
:1029C000A2E1B0E0E6EEF4E10C943B909A878987AF
:1029D000DB012B873C874D875E87FC01E080F1801F
:1029E000E114F10409F497C1222433244B855C855A
:1029F0006D857E859A01AB0160E070E0CB01298393
:102A00003A834B835C836D837E838F839887F88AB8
:102A1000EF86F701BA8BA98B02C01F01FC01E2808F
:102A2000F3800481158126813781408551856B852E
:102A30007C858D859E856E157F058007910708F43E
:102A40008FC060E070E0CB0157016801EE24FF24E5
:102A50008701622E6A0C77247394621608F077243B
:102A6000932E9B0C88248394931608F08824790C69
:102A700055245394791408F055248528542E5C0C61
:102A800099249394541608F09924850C4424439473
:102A9000851408F044249428052F0D0D11E0051726
:102AA00008F010E0900EEE24E394901608F0EE2467
:102AB0001E2944244394161608F0442401E01716F6
:102AC00008F000E055245394181608F05524A62C5D
:102AD0007981A71A21E06A1408F020E0972D8A81F5
:102AE000981B81E0791608F080E0492F421B21E015
:102AF000941708F020E0822B282D9B81291B91E060
:102B0000821608F090E0522F581B81E0251708F03C
:102B100080E0982B292DAC812A1B81E0921608F0C9
:102B200080E0E22EE91A91E02E1508F090E0892B62
:102B3000B12FB81B8B2F91E01B1708F090E0242DCC
:102B4000291B922F21E0491608F020E0302F321B7C
:102B5000232F31E0021708F030E0142F052F95C025
:102B600039014A01AA24BB24650110950095F0940F
:102B7000E094E11CF11C011D111D722F7E1961E012
:102B8000271708F060E0872D8F1991E0781608F07C
:102B900090E0A82FA61B6A2F552453948A1708F09B
:102BA00055249529582C501A81E0851408F080E0AE
:102BB000B52DB91B9B2F442443945B1608F0442485
:102BC0008429292D211B31E0921608F030E0E22EF5
:102BD000E81A81E02E1508F080E0832B819551E002
:102BE000181608F050E0519541E0151608F040E045
:102BF000419521E0141608F020E0522E5194A72EA2
:102C00002981A21A11E07A1508F010E0262F3A81E6
:102C1000231B31E0621708F030E0622F611B162F92
:102C200061E0211708F060E0362B692F7B81671B7C
:102C300021E0961708F020E0062F031B91E06017B3
:102C400008F090E0292B3E2D9C81391B91E0E31682
:102C500008F090E0E32EE21A21E03E1508F020E0B3
:102C6000922B682F691B91E0861708F090E0A52F42
:102C7000A91B9A2F81E05A1708F080E0242F281B07
:102C800031E0421708F030E0862F531A69F522230D
:102C900059F5992349F5882339F5A989BA891696F2
:102CA0002D913D914D915C91199760E070E0CB01C1
:102CB000992321F51816C0F0882301F51716A0F006
:102CC0007723E1F4161680F06623C1F4E51660F070
:102CD0005E15A1F4041740F0401781F4131720F09B
:102CE000311761F4A21650F480819181009709F0A8
:102CF00094CE8F01A989BA891F0111C0EF84F88889
:102D00008F01A989BA89EE15FF0541F41196FC934C
:102D1000EE93E985FA85B183A08306C0CF01F10166
:102D2000B183A0838D939C936296E2E10C945790BB
:102D3000CF93DF93FC01DB01EA0180819181481789
:102D4000590739F488819981198218828083918387
:102D50000BC08881998111969C938E931982188259
:102D60008C9111969C911197DF91CF910895DC0180
:102D7000ED91FC91119706C080819181861797078C
:102D800019F0FC013097C1F7CF0108958FB7F8947F
:102D90001092E0051092DF051092DE058FBF0895B6
:102DA0008091200680FF0FC081E00E94F51A80917B
:102DB00070008D7F809370000E94C616809120065F
:102DC0008B7F809320060895809170008C7F809384
:102DD00070008091B60080628093B6001092B200BD
:102DE0001092B0001092B1001092B3008091B60022
:102DF00090E08F7190700097C9F783E087BB87E000
:102E00008093B1008091700081608093700008957C
:102E10008091B60090E08F7190700097C9F7809113
:102E200070008C7F809370008091B100887F8093C8
:102E3000B10083B5826083BD8091B60090E08F7150
:102E400090700097C9F78091B6008F7D8093B6008F
:102E500008959B01AC016091B200862F90E08095AF
:102E60009095AA2797FDA095BA2F9070A070B0708A
:102E700082179307A407B50778F4281B390B4A0B70
:102E80005B0BBB27A52F942F832F9093DF05809397
:102E9000DE052093E0050895260F8091B60090E0AE
:102EA0008F7190700097C9F72093B30082E087BBC1
:102EB000809170008260809370000895EF92FF927D
:102EC0000F931F938FB7F8949091E1052091B20072
:102ED00034E43093B4004091B60050E04F7150702C
:102EE00041155105C1F7B89904C030E040E050E009
:102EF00009C02091B20030E040E050E021503F4F47
:102F00004F4F5F4F8FBF8FEF989FC0011124AA27AB
:102F100097FDA095BA2F820F931FA41FB51F9C0188
:102F2000AD0175E0220F331F441F551F7A95D1F76D
:102F30007C018D0162E016950795F794E7946A95F8
:102F4000D1F72E0D3F1D401F511FE090E205F0907C
:102F5000E3050091E4051091E5052E0D3F1D401F8E
:102F6000511F281B390B4A0B5B0BB901CA011F917A
:102F70000F91FF90EF90089560E270E080E090E0A4
:102F800008958FB7F8946091E1051092E1058FBF25
:102F900070E080E090E020E43FE140E050E00E94FB
:102FA000DA8F9B01AC018091E2059091E305A0913D
:102FB000E405B091E505820F931FA41FB51F809310
:102FC000E2059093E305A093E405B093E50582172D
:102FD0009307A407B50728F48091DD058F5F8093E0
:102FE000DD0508951F920F920FB60F920BB60F9248
:102FF00011242F933F934F935F936F937F938F93FE
:103000009F93AF93BF93EF93FF93809170008D7F59
:10301000809370001092E0058091200680FF03C02D
:1030200080E00E94F51A8091200682FF11C08091F5
:1030300000068160809300062FB7F89480916306A4
:1030400090916406826090936406809363062FBF1C
:10305000FF91EF91BF91AF919F918F917F916F9170
:103060005F914F913F912F910F900BBE0F900FBE2C
:103070000F901F9018951F920F920FB60F920BB6DC
:103080000F9211242F933F934F935F936F937F93EE
:103090008F939F93AF93BF93EF93FF938091DE0540
:1030A0009091DF050097A1F58091E0058823E9F470
:1030B0008091200680FF03C080E00E94F51A809175
:1030C000200682FF34C08091000681608093000654
:1030D0002FB7F89480916306909164068260909374
:1030E0006406809363062FBF22C08091B60090E0F3
:1030F0008F7190700097C9F78091E0058093B300BD
:1031000082E087BB8091700082608093700009C06C
:103110008091DE059091DF0501979093DF05809304
:10312000DE058091200680FF02C00E94611B809115
:10313000E1058F5F8093E1058091000682608093B6
:1031400000062FB7F8948091630690916406826020
:1031500090936406809363062FBFFF91EF91BF9118
:10316000AF919F918F917F916F915F914F913F911F
:103170002F910F900BBE0F900FBE0F901F901895C0
:1031800080E197E29093A9008093A800E1EAF0E043
:1031900088E08083808182608083E2E7F0E0808144
:1031A0008260808308959B01AC018091E805909135
:1031B000E905A091EA05B091EB05820F931FA41FCA
:1031C000B51F8093E8059093E905A093EA05B093B5
:1031D000EB05809104068460809304062FB7F89471
:1031E0008091630690916406826090936406809358
:1031F00063062FBF08958FB7F8946091E70510928A
:10320000E7058FBF70E080E090E02AE030E040E02A
:1032100050E00E94DA8F9B01AC018091E80590910B
:10322000E905A091EA05B091EB05820F931FA41F59
:10323000B51F8093E8059093E905A093EA05B09344
:10324000EB0582179307A407B50728F48091E605DC
:103250008F5F8093E60508950E94FB186091E80552
:103260007091E9058091EA059091EB0508951F9210
:103270000F920FB60F9211242F938F939F938091EB
:10328000E7058F5F8093E705809104068460809353
:1032900004062FB7F89480916306909164068260CB
:1032A00090936406809363062FBF9F918F912F9117
:1032B0000F900FBE0F901F9018951F920F920FB690
:1032C0000F920BB60F9211242F933F934F935F935E
:1032D0006F937F938F939F93AF93BF93EF93FF93DE
:1032E0000E94D016E091EC05F091ED050995FF9153
:1032F000EF91BF91AF919F918F917F916F915F916E
:103300004F913F912F910F900BBE0F900FBE0F90DA
:103310001F9018951F920F920FB60F920BB60F9237
:1033200011242F933F934F935F936F937F938F93CA
:103330009F93AF93BF93EF93FF930E94D016E091BA
:10334000EE05F091EF050995FF91EF91BF91AF91D7
:103350009F918F917F916F915F914F913F912F91AD
:103360000F900BBE0F900FBE0F901F9018951F92DD
:103370000F920FB60F920BB60F9211242F933F931B
:103380004F935F936F937F938F939F93AF93BF936D
:10339000EF93FF930E94D016E091F005F091F105B4
:1033A0000995FF91EF91BF91AF919F918F917F917F
:1033B0006F915F914F913F912F910F900BBE0F90A6
:1033C0000FBE0F901F9018951F920F920FB60F927D
:1033D0000BB60F9211242F933F934F935F936F93EC
:1033E0007F938F939F93AF93BF93EF93FF930E942D
:1033F000D016E091F205F091F3050995FF91EF9158
:10340000BF91AF919F918F917F916F915F914F91FC
:103410003F912F910F900BBE0F900FBE0F901F90FA
:1034200018951F920F920FB60F920BB60F921124A0
:103430002F933F934F935F936F937F938F939F93BC
:10344000AF93BF93EF93FF930E94D016E091F405E2
:10345000F091F5050995FF91EF91BF91AF919F9183
:103460008F917F916F915F914F913F912F910F902D
:103470000BBE0F900FBE0F901F9018951F920F92CA
:103480000FB60F920BB60F9211242F933F934F93C9
:103490005F936F937F938F939F93AF93BF93EF93BC
:1034A000FF930E94D016E091F605F091F70509957B
:1034B000FF91EF91BF91AF919F918F917F916F910C
:1034C0005F914F913F912F910F900BBE0F900FBEC8
:1034D0000F901F9018951F920F920FB60F920BB678
:1034E0000F9211242F933F934F935F936F937F938A
:1034F0008F939F93AF93BF93EF93FF930E94D01648
:10350000E091F805F091F9050995FF91EF91BF91D0
:10351000AF919F918F917F916F915F914F913F916B
:103520002F910F900BBE0F900FBE0F901F9018950C
:103530001F920F920FB60F920BB60F9211242F937A
:103540003F934F935F936F937F938F939F93AF932B
:10355000BF93EF93FF930E94D016E091FA05F0918C
:10356000FB050995FF91EF91BF91AF919F918F91CD
:103570007F916F915F914F913F912F910F900BBE73
:103580000F900FBE0F901F901895F999FECF07B6B8
:1035900000FCFDCF72BD61BD40BD9FB7F8948FBBED
:1035A000F99A9FBF08951F920F920FB60F921124A0
:1035B0002F938F939F93FB98809103068460809351
:1035C00003062FB7F8948091630690916406826099
:1035D00090936406809363062FBF9F918F912F91E4
:1035E0000F900FBE0F901F9018959091200681703C
:1035F000880F9C7F982B90932006E9E3F1E080816F
:103600008D7F8083809104068160809304062FB7AC
:10361000F8948091630690916406826090936406AA
:10362000809363062FBF08958091200680FF48C0D5
:103630008091A1008D7F8093A1008091FC059091E5
:10364000FD05A091FE05B091FF050097A105B1050C
:1036500051F40E945E176093FC057093FD05809302
:10366000FE059093FF058091200683FD02C00E9415
:103670002D5BF999FECF809120068860809320060B
:103680009091390192609093390182FF05C087E0E3
:1036900083BF889513BE0AC00E94081785E083BFC8
:1036A000889513BE0E94E4160E942A1C84E480932D
:1036B000B4008091B60090E08F7190700097C9F7C8
:1036C0000895809120068160809320068091B60045
:1036D00090E08F7190700097C9F780910406886020
:1036E000809304062FB7F894809163069091640646
:1036F000826090936406809363062FBF80E090E021
:1037000008950E945E172091FC053091FD054091BF
:10371000FE055091FF05621B730B840B950B1092F5
:10372000FC051092FD051092FE051092FF050E9407
:10373000D3188091A10082608093A1008091410103
:103740008F718830D9F780912006877F809320067B
:103750000E94295B8091200681FD07C0E09111063F
:10376000F0911206309709F009950895A0E0B0E0B5
:10377000ECEBFBE10C943B9010E0C2E8DBE800E8E6
:1037800092E8692E9BE8792E812C912C82E8A82E54
:103790008BE8B82E0E94AA042BE88338920718F110
:1037A0006E01EE24FF249C0140E050E022583B488B
:1037B00040405040C216D306E406F5064CF41230E1
:1037C00039F480916600815080936600000036C015
:1037D000209166002150209366000000EC01C25841
:1037E000DB4811E028C02BE88238920739F16E01DE
:1037F000EE24FF249C0140E050E013012401221A32
:10380000330A440A550AC214D304E404F5044CF400
:10381000113039F4809166008F5F8093660000005C
:103820000DC0209166002F5F209366000000E50127
:10383000C81BD90B12E0015009F0ACCFCDB7DEB7F1
:10384000E2E10C9457900E945221882311F40E94C7
:10385000B61B0895CF93DF93C8E8D3E188EC0E94AC
:10386000A2042197D9F70E94231CDF91CF910895DC
:103870008091040682FF0BC09FB7F89480910406E4
:103880008B7F809304069FBF0E941313A9C0809171
:10389000000680FF0BC09FB7F894809100068E7FD2
:1038A000809300069FBF0E94C3239AC080910006A8
:1038B00081FF0BC09FB7F894809100068D7F8093A5
:1038C00000069FBF0E94C1178BC08091040680FF35
:1038D0000BC09FB7F894809104068E7F80930406F6
:1038E0009FBF0E94811B7CC08091040683FF0BC098
:1038F0009FB7F89480910406877F809304069FBF4A
:103900000E94141B6DC08091020686FF0BC09FB7FA
:10391000F894809102068F7B809302069FBF0E94DD
:103920001F205EC08091020687FF0BC09FB7F894EE
:10393000809102068F77809302069FBF0E94981D98
:103940004FC08091030681FF0BC09FB7F894809110
:1039500003068D7F809303069FBF0E94CB1F40C04C
:103960008091030682FF0BC09FB7F89480910306F5
:103970008B7F809303069FBF0E94B01431C080915B
:10398000030680FF0BC09FB7F894809103068E7FDB
:10399000809303069FBF0E946E2022C08091040680
:1039A00081FF0BC09FB7F894809104068D7F8093B0
:1039B00004069FBF0E94A81F13C08091040684FFC5
:1039C0000FC09FB7F894809104068F7E8093040601
:1039D0009FBFE091250FF091260F309709F00995D0
:1039E00080910006882381F480910106882361F488
:1039F00080910206882341F480910306882321F4F4
:103A000080910406882361F02FB7F89480916306B3
:103A100090916406826090936406809363062FBF42
:103A20000895CF93DF93E82FF0E0DF01A05CB04072
:103A300093E0B595A7959A95E1F7B0E0AA0FBB1F63
:103A4000AB5FB94F6D917C9111976115710599F13B
:103A50004FB7F894EB012A813B81888199814FBF50
:103A60002817390729F12D913C911197E901288DEB
:103A7000398D280F391FE901388101962081206492
:103A8000208336830D90BC91A02D5A962D913C91A8
:103A90005B978217930711F480E090E02181206208
:103AA00021832FB7F894FB01918380832FBF03C03C
:103AB000818180648183DF91CF91089590E0805C63
:103AC000904033E0959587953A95E1F7E82FF0E03F
:103AD000EE0FFF1FEB5FF94FA081B1811097B9F096
:103AE00090968C919097887191F42FB7F8941896CE
:103AF0008D919C9119972FBF009749F00190F0810B
:103B0000E02D048CF58DE02D309709F0099508958E
:103B100080EC0E94111D089580EC0E945E1D0895A6
:103B200088EC0E94111D089588EC0E945E1D089586
:103B3000A3E0B0E0EEE9FDE10C94469081E08983DA
:103B400006E010E0DD2452E0E52EF12CEC0EFD1E27
:103B500090910C0689818923B9F09FB7F894209140
:103B60000C068981822780930C069FBF6D2D70E023
:103B7000660F771F6C53794FC70142E050E00E94F7
:103B8000D690EA81FB810995D3948981880F898336
:103B900001501040E9F62396E7E00C946290909172
:103BA0000C0621E030E002C0220F331F8A95E2F7B5
:103BB000922B90930C0680910206806880930206F7
:103BC0002FB7F89480916306909164068260909379
:103BD0006406809363062FBF0895CF93DF93C82FA9
:103BE000D0E0DE01A05CB040E3E0B595A795EA9592
:103BF000E1F7B0E0AA0FBB1FAB5FB94FED91FC91AD
:103C00001197309721F489818F77898335C080A1FE
:103C100083FD32C0C489D58984FF0AC06883ED91D1
:103C2000FC911197848995890196958B848B24C08A
:103C3000209711F12681378186819781019697839C
:103C4000868346815781868997894817590711F4D9
:103C500017821682468157818481958148175907BA
:103C600019F43783268308C0C20FD31F6883808569
:103C70009185019691878087DF91CF91089590E09B
:103C8000805C904033E0959587953A95E1F790E018
:103C9000DC01AA0FBB1FAB5FB94FED91FC911197EF
:103CA000309701F16FB7F8944281538120813181BF
:103CB0006FBF4217530711F421E02287FC01EE0F7A
:103CC000FF1FEB5FF94F0190F081E02D828D938D06
:103CD000009711F4118E108E068CF78DE02D309721
:103CE00009F00995089588EC0E943F1E089580EC24
:103CF0000E943F1E0895E0910D06F0910E0687E0A8
:103D0000828380E98093BC00809104068260809366
:103D100004062FB7F8948091630690916406826040
:103D200090936406809363062FBF0895E0910D067B
:103D3000F0910E068281823031F08281833019F059
:103D40008281843019F48581880F06C08281853094
:103D500049F48581880F8F5F8093BB0085E880934D
:103D6000BC0008950E947B1E0895E0910D06F0911D
:103D70000E0620813181868197812817390780F4CA
:103D800080819181A085B185A80FB91F2C910196E2
:103D9000918380832093BB0085E88093BC000895C5
:103DA00086E0828384E98093BC008091040682606F
:103DB000809304062FB7F89480916306909164066F
:103DC000826090936406809363062FBF0895E0910C
:103DD0000D06F0910E0683859485A585B685208114
:103DE000318121503040318320832081318143E073
:103DF000220F331F4A95E1F704C0B695A795979512
:103E000087952A95D2F78093BB0085E88093BC0004
:103E100080819181009741F48281823019F484E09D
:103E20008283089585E082830895E0910D06F091E4
:103E30000E068281843019F40E94B51E0895828195
:103E4000823019F08281833019F40E94E71E0895B0
:103E50008281853021F485EA8093BC0008950E9418
:103E60007B1E0895E0910D06F0910E06828185304B
:103E7000A1F4868197818130910521F48091BC0065
:103E80008F7B03C08091BC0080648093BC008091D4
:103E9000BC0085688093BC0008950E947B1E089535
:103EA000E0910D06F0910E069281953011F520817A
:103EB0003181A085B185A20FB31F8C932F5F3F4F37
:103EC0003183208320813181868197810197281752
:103ED000390720F48091BC00806403C08091BC004D
:103EE0008F7B8093BC008091BC0085688093BC0070
:103EF00008950E947B1E0895E0910D06F0910E0634
:103F00009281953011F520813181A085B185A20F74
:103F1000B31F8C932F5F3F4F3183208386E08283D2
:103F200084E98093BC00809104068260809304063B
:103F30002FB7F89480916306909164068260909305
:103F40006406809363062FBF08950E947B1E089528
:103F5000A0910D06B0910E061F96ED91FC91509721
:103F60003097A1F012968C911297863049F4809187
:103F7000BC0084FDFCCF81E012968C93129704C0A4
:103F800081E012968C9380E00995089581E0129665
:103F90008C9312970895E0910F06F0911006028419
:103FA000F385E02D309709F00995089523982B9813
:103FB0001CBC0895E0912406F091250626813781E6
:103FC000848195812817390769F0A48DB58D848186
:103FD000958101969583848384819581A80FB91F6B
:103FE0008C918EBD0895E0912406F09125063097BE
:103FF00019F40E94D61F0895428553852285338582
:104000002F5F3F4F33872287228533852A30310542
:1040100011F41386128662857385208531856217B7
:10402000730719F4538742870895495D504FDA01A9
:104030008C938485958501969587848708952FB7FD
:10404000F894E0912406F0912506848595852FBF8C
:10405000009731F005A0F6A1E02D309709F0099501
:104060000895ADE0B0E0E7E3F0E20C944B90FC0182
:10407000009739F1848195819093120680931106FF
:1040800080819181A281B3818F839887A987BA8724
:1040900081E08B871D861C86CE0101960E948A23B3
:1040A0002FEF8F3F920781F02FEF8D3F920761F046
:1040B0000E94611B2FEF8F3F920749F42DEF3FEFD6
:1040C00008C02FEF3FEF05C02EEF3FEF02C020E00A
:1040D00030E0C9012D96E2E00C946790A0E1B0E0D9
:1040E000E4E7F0E20C94489000912106109122063A
:1040F000D80112968C911297823029F08430C9F041
:10410000882331F074C070E060E088E0F82E6BC066
:1041100080E090E0D8011396ED91FC911497E80FA0
:10412000F91F208120933F0101968031910591F77D
:104130005EC010923C0180E010923E018F5F8031A2
:10414000D9F780913C01806880933C0180913D01CA
:1041500080FFFCCFFE013196CE014196DF01209118
:104160003F012D93A817B907D1F7219120933F0163
:10417000E817F907D1F7C7CFF8018281823019F427
:1041800010923C0102C0F0923C01872F90E0AC01FC
:10419000405F5F4F9C01D8011396ED91FC911497FD
:1041A000E20FF31FE081E0933E012F5F3F4F2417A2
:1041B000350789F720913C01206820933C0120912C
:1041C0003D0120FFFCCF20913E01D8011396ED91D7
:1041D000FC911497E80FF91F208301968417950727
:1041E00091F7705F6F5FF8018581681728F281E2AF
:1041F00096E00E94315B8091210690912206009703
:1042000089F0809103068160809303062FB7F894AC
:104210008091630690916406826090936406809317
:1042200063062FBFD8011696ED91FC91179709955B
:104230006096E5E00C9464908FB390E0FC01E2702E
:10424000F07081FDF9CF8FB7F89499E09093570003
:10425000E4918FBFEF70E23019F41092230603C08F
:1042600081E0809323068FB7F894909123069923D9
:1042700049F45F9350E85093610050E0509361001F
:104280005F9108C05F9350E85093610051E05093F4
:1042900061005F918FBF80912306882311F40E94F3
:1042A0002A1C08958091230608951F920F920FB63D
:1042B0000F920BB60F9211242F933F934F935F935E
:1042C0006F937F938F939F93AF93BF93EF93FF93DE
:1042D000E1ECF0E080818F7D808380E00E94CF1D43
:1042E000FF91EF91BF91AF919F918F917F916F91CE
:1042F0005F914F913F912F910F900BBE0F900FBE8A
:104300000F901F9018951F920F920FB60F920BB639
:104310000F9211242F933F934F935F936F937F934B
:104320008F939F93AF93BF93EF93FF93E1ECF0E0F4
:1043300080818F7B808381E00E94CF1DFF91EF9170
:10434000BF91AF919F918F917F916F915F914F91AD
:104350003F912F910F900BBE0F900FBE0F901F90AB
:1043600018951F920F920FB60F920BB60F92112451
:104370002F933F934F935F936F937F938F939F936D
:10438000AF93BF93EF93FF938091C0006091C600FD
:104390008C7131F480EC0E94ED1D82E00E94CF1DF3
:1043A000FF91EF91BF91AF919F918F917F916F910D
:1043B0005F914F913F912F910F900BBE0F900FBEC9
:1043C0000F901F9018951F920F920FB60F920BB679
:1043D0000F9211242F933F934F935F936F937F938B
:1043E0008F939F93AF93BF93EF93FF93E9ECF0E02C
:1043F00080818F7D808383E00E94CF1DFF91EF91AC
:10440000BF91AF919F918F917F916F915F914F91EC
:104410003F912F910F900BBE0F900FBE0F901F90EA
:1044200018951F920F920FB60F920BB60F92112490
:104430002F933F934F935F936F937F938F939F93AC
:10444000AF93BF93EF93FF93E9ECF0E080818F7B14
:10445000808384E00E94CF1DFF91EF91BF91AF91C7
:104460009F918F917F916F915F914F913F912F918C
:104470000F900BBE0F900FBE0F901F9018951F92BC
:104480000F920FB60F920BB60F9211242F933F93FA
:104490004F935F936F937F938F939F93AF93BF934C
:1044A000EF93FF938091C8006091CE008C7131F43E
:1044B00088EC0E94ED1D85E00E94CF1DFF91EF91D9
:1044C000BF91AF919F918F917F916F915F914F912C
:1044D0003F912F910F900BBE0F900FBE0F901F902A
:1044E00018951F920F920FB60F920BB60F921124D0
:1044F0002F933F934F935F936F937F938F939F93EC
:10450000AF93BF93EF93FF938091B90090E0887FC2
:1045100090708832910569F1893291059CF480315F
:10452000910521F18131910534F4009729F188300A
:10453000910589F51BC088319105D9F0803291052C
:1045400051F51AC088349105B9F0893491053CF4CD
:104550008033910589F080349105E9F410C08035ED
:10456000910581F088359105B1F411C00E94961E25
:1045700012C00E94151F0FC00E947B1E0CC00E941B
:10458000321F09C08091BB000E94501F04C080915F
:10459000BB000E947C1FFF91EF91BF91AF919F9153
:1045A0008F917F916F915F914F913F912F910F90DC
:1045B0000BBE0F900FBE0F901F9018951F920F9279
:1045C0000FB60F920BB60F9211242F933F934F9378
:1045D0005F938F939F93AF93BF93EF93FF93E0917C
:1045E0000F06F0911006838126813781882349F4D4
:1045F0008081918140917900280F391FD9014C9316
:104600000EC0808191814091780050917900DC0149
:10461000AA0FBB1FA20FB31F11965C934E93019676
:1046200091838083E0910F06F09110062081318103
:104630008085918528173907B1F480917A00877FAA
:1046400080937A00809103068260809303062FB7DF
:10465000F89480916306909164068260909364065A
:10466000809363062FBFFF91EF91BF91AF919F9110
:104670008F915F914F913F912F910F900BBE0F90B3
:104680000FBE0F901F9018951F920F920FB60F92AA
:104690000BB60F9211242F933F934F935F936F9319
:1046A0007F938F939F93AF93BF93EF93FF93DF938A
:1046B000CF930F92CDB7DEB78EB589830E94DA1FF4
:1046C00089810E94F31F8091020680648093020614
:1046D0002FB7F8948091630690916406826090935E
:1046E0006406809363062FBF0F90CF91DF91FF91F7
:1046F000EF91BF91AF919F918F917F916F915F915A
:104700004F913F912F910F900BBE0F900FBE0F90C6
:104710001F901895CF93DF93EC01009741F10E9411
:10472000BC172E813F81488559850E94DA8F28EE7B
:1047300033E040E050E00E94199021153105410519
:104740005105C1F08091200682FD17C084608093DE
:104750002006E3E1F6E08DE0099001928150E1F757
:10476000CA01B9010E94291720E030E008C02FEFEC
:104770003FEF05C02EEF3FEF02C02DEF3FEFC90125
:10478000DF91CF9108958091200682FF24C09091FF
:104790001D069923B1F4E0911E06F0911F06309793
:1047A00009F009958091200682FF15C060911906D5
:1047B00070911A0680911B0690911C060E94291781
:1047C00008958B7F80932006E0911E06F0911F06CE
:1047D000309709F00995089580913B06982F9F5FC7
:1047E00090933B060895DC01ED91FC911197909315
:1047F000EA0F8093E90F1092D60F1092D70F809195
:104800002A068093DB0F2091410F3091420F83895C
:104810009489B9010E940590462F6093D90F83892E
:104820009489B9010E940590009719F04F5F409359
:10483000D90F8FEF90E00090F90D02C0880F991FFB
:104840000A94E2F780958E7F8093D80F0E94EC2324
:104850008093DA0F0895FC01878983FF0AC081E005
:1048600090E0238934892036310528F480E090E0F7
:10487000089580E090E00895CF93DF934091310F49
:104880002091360F3091370F90E058C0F901225A2D
:104890003F4F578150FD51C0DF01AA5BBF4F1196BA
:1048A0001C921E928230C1F0823018F0833009F0E1
:1048B00048C09091350F2091330F921708F041C0F6
:1048C0009F5F9093350F1382148215821682908514
:1048D0009F709087128228C02091340F9091320FE0
:1048E000291778F53091380FA091390FB0913A0F10
:1048F00090E014C0ED014C919396442371F42F5F26
:104900002093340F21E02883DF01AA5BBF4F689614
:104910001196DC93CE93228303C09F5F931750F3CD
:104920002091380F291769F09085907F9087880F24
:10493000816087831182108206C09F5F941708F4FC
:10494000A5CFE0E0F0E0CF01DF91CF910895209175
:10495000360F3091370F821B930B6EE570E00E948B
:104960000590EEE56E9FF0011124E20FF31F8781A1
:10497000869590E08230910571F0833091051CF0AE
:104980008330910539F58091350F882319F18150D5
:104990008093350F1FC08091340F882319F0815008
:1049A0008093340F2091390F30913A0FDF01AA5BC9
:1049B000BF4F8D919C91821B930B63E270E00E942C
:1049C0000590A3E26A9FD0011124A20FB31F8C911E
:1049D00081111C9287818E7F8783089521E030E0CA
:1049E00002C0220F331F8A95E2F780912906822B9D
:1049F000809329062FB7F8948091630690916406FE
:104A0000806290936406809363062FBF0895CF93CE
:104A1000DF93EC01009729F16B8F4115510551F09F
:104A2000FA0180819181A281B3818C8F9D8FAE8F9D
:104A3000BF8F04C01C8E1D8E1E8E1F8EE98DFA8DB9
:104A4000309719F0CE014B960995CE010E942B2488
:104A5000882339F01092EA0F1092E90F81E00E944A
:104A6000EE24DF91CF9108951F9380913C068150F1
:104A700080933C0680913B0F8330C9F11091D50F94
:104A80001123A9F181E080933B0F6091F90D70E053
:104A900061507040882777FD8095982F2AE030E09C
:104AA00040E050E00E94DA8F20915006309151068C
:104AB0004091520650915306620F731F841F951F39
:104AC00020912A0630E040E050E00E94DA8F6093A7
:104AD000430F7093440F8093450F9093460F1150EE
:104AE0001093D50F8BE296E00E94745D0AC010927D
:104AF0003B0F1092430F1092440F1092450F1092EB
:104B0000460F1F910895A1E0B0E0E9E8F5E20C94AA
:104B100049908C0186E596E069830E94315B69814A
:104B2000D80117966C9317971596ED91FC911697EF
:104B3000C8010796099580915606909157060097EF
:104B400019F080E00E94EE242196E4E00C94659038
:104B500020913C062F5F20933C060E945F530895EE
:104B6000AF92BF92DF92EF92FF920F931F93DF936A
:104B7000CF930F92CDB7DEB78C015B01FB01E05BF9
:104B8000FF4F8CE697E291838083FB01EE5BFF4F42
:104B900082E08083FB01ED5BFF4FD80113968D917E
:104BA0009C91149791838083FB01E65BFF4F58969D
:104BB0008C9158978083FB01E55BFF4F1082FB01CE
:104BC000E45BFF4F81E08083FB01E35BFF4F808369
:104BD000FB01E25BFF4F808357968C91579786FDD0
:104BE0000DC081E090E013962D913C911497BFEF9A
:104BF000283F3B0728F080E090E002C081E090E091
:104C0000F501E15BFF4F8083E090410FF090420F90
:104C1000C8010E942B248823E9F12091D60F422F4E
:104C200050E08091D90F90E001974817590711F093
:104C3000DE2C06C02E9D802D1124F801D388D81AB1
:104C40004091EB0F5091EC0F405E5F4F30E02E9D96
:104C5000C0012F9D900D3E9D900D1124D8015596B9
:104C60002D913C915697280F391FCA01B9014D2D3E
:104C700050E00E94EC90F501EB5BFF4F8D2D865FBD
:104C80008083F501EA5BFF4F8091EB0F9091EC0F71
:104C9000469611C0F501EB5BFF4FD80153968C91FE
:104CA0005397885F8083F501EA5BFF4F55968D919E
:104CB0009C915697089791838083F501EA5BFF4F9B
:104CC000E080F180F7012081822F8C7E8083D801E3
:104CD00013968D919C911497207EBFEF873F9B0781
:104CE00010F02860F7012083D7019C91892F8F7DD8
:104CF0008C93F801278922FD03C09F799C9321C0E2
:104D00008064D7018C93F5012085207F2160208766
:104D1000C80129830E942B2429812F70882351F0F8
:104D20008091DB0F8295807F822BD50118968C9322
:104D3000189707C080912A068295807F822BF50103
:104D40008087C8010E942B24D7019C918823E1F021
:104D500090689C939091D60F18968C9118979923F0
:104D600059F48C7F816018968C9318978091D90F95
:104D700019968C9319970BC08C7F8260F7018087FE
:104D80008091D60F818703C09F77D7019C93F8014C
:104D90008585D70111968C931197808991891396F7
:104DA0009C938E9312978685978515969C938E93E8
:104DB0001497828916968C93C8010E942B2488230D
:104DC00029F08091DA0FF701878305C00E94EC2358
:104DD000D70117968C93C50109960E94A82580E0FB
:104DE0000F90CF91DF911F910F91FF90EF90DF9087
:104DF000BF90AF9008956091E90F7091EA0FFB01A9
:104E0000808191810E94B025089529E93FE0A901A0
:104E1000405D5F4F50939A0F4093990F92E09093AB
:104E2000950F40914A0F50914B0F5093970F40931D
:104E3000960F9BE09093980F10929D0F10929E0FEB
:104E400091E090939F0F9093A00F1092A10F44E3D5
:104E500055E25093A40F4093A30F9093A20F92E8B2
:104E60009093C90F9091510F9093CA0F40914D0F9D
:104E700050914E0F5093CC0F4093CB0F40914F0F5A
:104E80005091500F5093CE0F4093CD0F90914C0FF7
:104E90009093CF0F9091520F9093D00F92E09093F8
:104EA000D10F9091480F9093D20F9091490F90930A
:104EB000D30F9091D40F9093B20F1092430F109292
:104EC000440F1092450F1092460F80933B0FC9017B
:104ED000CD970E94A8250895BC0180913C06815081
:104EE00080933C0689E396E00E94785B81E00E9413
:104EF000EE240895CF93DF93BC01C0915606D09164
:104F0000570686E596E00E94785B209719F480E0CA
:104F10000E94EE24DF91CF910895A3E0B0E0E3E991
:104F2000F7E20C9445908C01675F7F4F7B836A8327
:104F30008DE0BE016F5F7F4F0E94CF128981D80143
:104F400053962C915397882309F43FC0CA80DB8085
:104F500081E0F60181AF13968D919C91149793AFE8
:104F600082AF285F24AF5596ED90FC90569788EF5E
:104F70009FEFE80EF91EF6AEE5AE8FEFD701119662
:104F80008C931197F8018089918913969C938E9345
:104F900012978685978515969C938E931497828990
:104FA00016968C930E94EC23D70117968C93D6010A
:104FB000DD96ED91FC91DE9788E08083EA81FB81AC
:104FC000E95BFF4F8CE697E241C0CA80DB8082E05C
:104FD000F60181AF8DEF9FEF93AF82AF275F24AFD4
:104FE000D8015596ED90FC905697E7EFFFEFEE0E47
:104FF000FF1ED601DE96FC92EE92DD97F8018381CA
:105000009481D70112969C938E93119780899189F0
:1050100014969C938E9313978685978516969C93EA
:105020008E931597828917968C930E94EC23F70133
:105030008087D601DD96ED91FC91DE978CE0808330
:10504000EA81FB81E95BFF4F80E898E291838083EE
:10505000EA81FB81EF5BFF4FD80158968C918083EA
:10506000EA81FB81EE5BFF4F8091F80D8083EA813E
:10507000FB81ED5BFF4F81E08083EA81FB81EC5B8C
:10508000FF4F8083EA81FB81EB5BFF4F8083EA81E6
:10509000FB81EA5BFF4F80838A819B810E94A82568
:1050A00080E02396E8E00C946190A4E0B0E0EBE5AA
:1050B000F8E20C944A90182F89E1BE016F5F7F4F90
:1050C0000E94CF12612F70E080E090E020914006B6
:1050D0003091410640914206509143060E94DA8F7A
:1050E0009B01AC0189819A81AB81BC81280F391F5A
:1050F0004A1F5B1FB901CA012496E3E00C94669035
:105100000F931F93CF93DF93EC018C010954104050
:10511000D801DD96ED91FC91DE97818192816FEF50
:105120000E943C4F882349F022978CE697E29983AE
:105130008883C8010E94225303C0CE010E946C27BD
:10514000DF91CF911F910F9108958F929F92BF92FF
:10515000CF92DF92EF92FF920F931F93DF93CF9343
:105160000F92CDB7DEB76B01B42E790180903E0669
:1051700090903F0600913D0626E1029F8001112498
:10518000080D191D009719F126E1822E912C880E29
:10519000991E1DC0F4012589243A11F02A3A99F488
:1051A000F4018085B81679F481859285C816D906F0
:1051B00051F4C401B70148E050E029830E94DF9018
:1051C00029810097B9F026E130E0820E931E801607
:1051D000910600F388249924C4010F90CF91DF91A8
:1051E0001F910F91FF90EF90DF90CF90BF909F9015
:1051F0008F900895243A39F7EFCFA1E0B0E0E3E0D3
:10520000F9E20C9441904C017B010E94C43C6C017A
:10521000F701E45AFF4F0081118158EA5F0129C06C
:10522000F50111830083F80183858330A9F4C80157
:105230000C960E9463570097D9F0F8012489F40175
:105240002587FC0180819181F40194838383C401CB
:10525000B7010E94B0250AC0F80184859585F40144
:1052600094838383C401B7010E948D27582F0EC0F9
:1052700059EAF40160897189C8014289960159830C
:105280000E94A5288C015981009751F6852F2196FF
:10529000ECE00C945D901F93CF93DF93EB01FB0147
:1052A000E45AFF4F118210820E94FD28182F882394
:1052B00019F0CE010E94A724812FDF91CF911F9179
:1052C0000895A0E0B0E0E7E6F9E20C9444908C0188
:1052D000B62EC0913E06D0913F0690913D0686E1E4
:1052E000989F70011124EC0EFD1E3CE0C32ED12CC2
:1052F000C00ED11E35C0F8012185328590858D897B
:10530000843A11F08A3A59F58885981741F58985CC
:105310009A852817390719F5CE01B80148E050E001
:105320000E94DF900097D9F429C0813049F4F80138
:10533000248535858C859D852817390781F417C00C
:10534000F80194898C89981751F4BE01645F7F4FEE
:10535000C60148E050E00E94DF90009741F0669659
:10536000CE15DF0540F2F801B58AC0E0D0E07E013D
:10537000CE01CDB7DEB7E9E00C946090F8018385EB
:105380009B85891761F7D1CFCF93DF930E94C69099
:10539000EC0144E0CC0FDD1F4A95E1F7C0700E949C
:1053A000C690282F30E02C2B3D2BC901DF91CF91E7
:1053B000089588E368E37FE00E94CF128DE469E3FB
:1053C0007FE00E9404132091390F30913A0F60E082
:1053D00083E290E00DC0462F50E0489FF001499FC6
:1053E000F00D589FF00D1124E20FF31F10826F5F34
:1053F0004091380F641778F387E361E37FE00E9400
:10540000CF128CE466E37FE00E9404138091310F99
:10541000E091360FF091370F90E006C027812E7F84
:1054200027839F5FE25AFF4F9817C0F39091380F80
:105430009093320F823008F081508093330F109296
:10544000340F1092350F8FE361E47FE00E94CF129A
:105450008EE360E47FE00E94CF128091400F8823AA
:1054600051F08EE46CE37FE00E9404138FE46BEE56
:105470007FE00E9404134091400F50E08091410F63
:105480009091420F489F9001499F300D589F300DD9
:10549000112480913C0F90913D0F820F931F9093A8
:1054A0003F0F80933E0F10923B0F0895A1E0B0E0B4
:1054B000ECE5FAE20C94479010E001E02EE55FEF96
:1054C000E52EF12C42C0129FC0011124E091360F4D
:1054D000F091370FE80FF91F378130FF35C0808515
:1054E0008F70823089F53E7F323011F0363061F5B1
:1054F00083819481A581B6818A309105A105B1058A
:1055000048F00A97A109B10983839483A583B683E0
:1055100000E01AC08085807F8460808713821482B7
:1055200015821682363059F4C7010090F90D02C079
:10553000880F991F0A94E2F780958093D80F81E035
:1055400029830E94EE2429811F5F8091310F181753
:1055500008F4B9CF8091430F9091440FA091450F6B
:10556000B091460F0097A105B10591F08B309105E0
:10557000A105B10550F00A97A109B109E1E3FFE0E7
:10558000828B938BA48BB58B09C082E00E94052788
:10559000002321F08BE296E00E947E5D2196E6E0FA
:1055A0000C9463900F931F93CF93DF938C01FC01B6
:1055B000C081D1816E3C11F0603F11F423E001C045
:1055C00022E0F801E95AFF4F80819181A281B381E5
:1055D0008C8F9D8FAE8FBF8F6B8F233049F08A8168
:1055E000882331F4CE01B8010E94FD28883A61F485
:1055F000AE01445E5F4FF801808191816B8D0E9406
:105600000725C8010E94A724DF91CF911F910F9118
:105610000895CF93DF93EC01009709F44AC086EA1E
:105620008D8B8885882309F444C08F3F09F441C0DD
:105630008B85833031F48C898823D9F18F3F19F41D
:1056400038C08130B1F51D8ACE0160E00E94612929
:10565000009709F530913D0680913E0690913F06F6
:1056600020E00BC0FC0145894696483A29F484EABB
:10567000858B309739F41DC02F5F231798F38EEA7E
:105680008D8B17C0DF0186E109900D928150E1F703
:1056900084EA858B09C0CE0166EA0E94612924EA6A
:1056A000FC01258B009729F080E160E070E00E940A
:1056B000CA5CDF91CF910895FC01009709F186EA59
:1056C000858B80858823E1F08F3FD1F083858330FF
:1056D00031F484898823A1F08F3F19F40895813033
:1056E00079F4158ACF0164EA0E946129009741F09C
:1056F00028EAFC01258B80E160E070E00E94CA5C32
:105700000895BC0184E596E00E94785B81E00E94E8
:10571000EE240895BC018EE496E00E94785B81E05F
:105720000E94EE240895AAE0B0E0E9E9FBE20C94BF
:105730004590E0904E0E8EE2BE016F5F7F4F0E945B
:10574000CF128E01095F1F4F89E1B8010E94CF126D
:105750008F819885A985BA852E2D30E040E050E0F4
:10576000281739074A075B0760F0880F991FAA1F9F
:10577000BB1F8F839887A987BA8789E1B8010E94E8
:10578000EA122E2D30E0295F3F4F442737FD409528
:10579000542F209340063093410640934206509385
:1057A0004306E980FF2400E010E0C801B701660F5E
:1057B000771F881F991F6E0D7F1D801F911F0E94EC
:1057C000DA8F2F81388549855A85620F731F841FB0
:1057D000951F6093500670935106809352069093E4
:1057E00053068BE296E060E02AE030E040E050E0D3
:1057F00006E51AE20E94875D81E08B838EE2BE019E
:105800006E5F7F4F0E94CF128A8190E0A0E0B0E0EF
:10581000880F991FAA1FBB1F8F3F9105A105B105D6
:1058200029F020F08FEF90E0A0E0B0E00E94552832
:105830006B017C0183E2BE016D5F7F4F0E94CF123E
:105840002B8180E090E0DC018C0D9D1DAE1DBF1D05
:1058500081509E4FAF4FBF4FCC0CDD1CEE1CFF1C88
:10586000215091F71B827C018D01F9E01695079577
:10587000F794E794FA95D1F70894E11CF11C011D07
:10588000111D1E821D821C8289E3BE016C5F7F4F49
:105890000E94CF1287E4BE016B5F7F4F0E9404130A
:1058A0006D817E818FEFE816F1040105110531F05D
:1058B00028F0EFEFEE2EF12C012D112D84E496E06F
:1058C0004C8120E032E00E2DEE24E3940E94985BA0
:1058D0002A96E8E00C946190882359F00E94C4292C
:1058E00080933B0610923C0683E26AE276E00E94D7
:1058F000CF12109255061092540610924F06109235
:105900004E0610923A0610923906109259061092DD
:1059100058068AE090E0A0E0B0E08093E20F909318
:10592000E30FA093E40FB093E50F8BEF96E2909313
:10593000E80F8093E70F81E08093E60F86E269EF3E
:105940007DE00E94CF121092490F1092520F1092D8
:10595000470F10924E0F10924D0F1092480F109259
:105960004C0F1092500F10924F0F10924B0F10923D
:105970004A0F1092510F10923B0F1092430F10924A
:10598000440F1092450F1092460F8EE5E3E5FFE0BD
:10599000DF011D928A95E9F783E2E1EBFFE0DF0189
:1059A0001D928A95E9F74091400F50E08091410F98
:1059B0009091420F0196489F9001499F300D589F4A
:1059C000300D112480913C0F90913D0F60E070E00C
:1059D000A9010E94079189EC9FE090939A0F809310
:1059E000990F0E94932B0895A0E0B0E0EAEFFCE24B
:1059F0000C9445907C01EC012997809126069091AA
:105A0000270627E08030920709F061C00AC084E5CC
:105A100096E00E94315BC80163EA40E050E00E94DA
:105A2000072500915406109155060115110579F7C7
:105A30002DC089E396E0B8010E94425B2091360FA9
:105A40003091370FC801821B930BB6010E9405905D
:105A50008EE5689FF0011124E20FF31F8081918190
:105A60002781269530E02115310521F021303105BF
:105A700081F406C0A8014B5F5F4FF801628103C04B
:105A800067EA40E050E00E94072503C0AEE5CA2E59
:105A9000D12C0091390610913A060115110549F6ED
:105AA00010E00EE510C0109F900111248091360F78
:105AB0009091370F820F931FFC01278120FF02C0B6
:105AC0000E94A7241F5F8091310F181760F3109276
:105AD00029061092280681E00E946C2C0E94D92988
