:10000000AEC00000C7C00000C5C00000C3C00000F3
:10001000C1C00000BFC00000BDC00000BBC00000E8
:10002000B9C00000B7C000003CC40000FEC400001E
:10003000B1C00000AFC00000ADC00000ABC0000008
:10004000A9C00000A7C00000A5C00000A3C0000018
:10005000A1C000009FC000009DC000009BC0000028
:1000600099C00000A3C1000095C0000093C000002B
:1000700091C000008FC000008DC000008BC0000048
:1000800089C0000087C0000085C0000083C0000058
:1000900081C000007FC000007DC000007BC0000068
:1000A00079C0000077C0000075C000007705990591
:1000B0007B0699057B06DB05FC057B064E06600684
:1000C0002E034C005500460041002000550053000F
:1000D00042002D0052005300320033003200200055
:1000E000410064006100700074006500720000004F
:1000F00018034400650061006E00200043006100A9
:100100006D0065007200610000000403090409022B
:100110003E00020100C03209040000010202010099
:100120000524001001042402060524060001070529
:1001300082030800FF09040100020A00000007050D
:1001400004021000050705830210000512011001CA
:1001500002000008EB034B2001000102DC01112426
:100160001FBECFEFDAE0DEBFCDBF11E0A0E0B1E00F
:10017000E4E9F0E102C005900D92AC31B107D9F786
:1001800022E0ACE1B1E001C01D92A234B207E1F778
:1001900056D07EC735CF9BB19F70982B9BB90895E1
:1001A000FC01A081B1816C93808191810196918342
:1001B0008083268137818217930721F4848195817A
:1001C000918380832FB7F8948285938501969387D6
:1001D00082872FBF0895FC01A281B3818D91B383E3
:1001E000A28326813781A217B30721F424813581A8
:1001F000338322839FB7F8942285338521503109B8
:10020000338722879FBF089584B7877F84BF88E1A3
:100210000FB6F89480936000109260000FBE90E0DB
:1002200080E80FB6F89480936100909361000FBE50
:100230008AB1806F8AB98BB18F708BB915C3E4DF37
:10024000EAE2F2E02FB7F8948AEA91E091838083A2
:1002500093838283958384838AE292E09783868363
:1002600080E890E091878087138612862FBFEEE9A1
:10027000F1E02FB7F8948EE191E09183808393832E
:100280008283958384838EE991E09783868380E8D7
:1002900090E091878087138612862FBF10921D01F0
:1002A00010921C0180E177DF789480911D018823F2
:1002B00009F467C080911C0181110EC02FEF83ECFF
:1002C00099E0215080409040E1F700C0000080910B
:1002D0001D0180931C0155C08FB7F8942091340202
:1002E000309135028FBF80913202909133022817EE
:1002F000390749F080E091E0BFD597FD04C0682F31
:100300008AE292E04DDF2FB7F8948091A801909196
:10031000A9012FBF009769F42FB7F8948091340298
:10032000909135022FBF892B61F18AE292E053DF71
:1003300022C0209101012F702093E9002091E80054
:1003400020FFEACF8031910510F08FE090E0182F68
:10035000C0E0D0E01C1701F3E091A001F091A101F1
:10036000608180E091E020D521968111D5CF8EE982
:1003700091E031DFEFCF9091C80095FFFCCF8093E3
:10038000CE0080E091E063D5CFD48FCF80EA03CF59
:1003900080E101CF80E091E0E2D4882311F080E693
:1003A00001C080E9F8CE80E091E09BC51F920F92DA
:1003B0000FB60F9211242F933F934F935F936F9338
:1003C0007F938F939F93AF93BF93EF93FF9360912E
:1003D000CE008EB3843019F48EE991E0E1DEFF9116
:1003E000EF91BF91AF919F918F917F916F915F91AD
:1003F0004F913F912F910F900FBE0F901F90189526
:10040000CF93FC01818D813031F0823011F0C0E05A
:1004100003C0C0E201C0C0E3808D823009F4C8602F
:10042000828D873031F0883031F0863029F4C26017
:1004300003C0C46001C0C6601092C9001092C80019
:100440001092CA002489358946895789CA01B901A1
:10045000969587957795679560587B47814E9F4F16
:10046000EFD5215031093093CD002093CC00C093BB
:10047000CA0082E08093C80088E98093C900CF91C8
:100480000895FC01808980FF04C081E080931D01F4
:10049000089510921D0110921C010895292F3327F1
:1004A0002230310559F02330310569F02130310512
:1004B000F9F482E190E02CE431E01EC08EE390E09C
:1004C0002EE031E019C099278130910541F082304A
:1004D000910541F0892B61F4EAE0F1E005C0E0EF1D
:1004E000F0E002C0E0ECF0E0849190E09F0104C0F5
:1004F00080E090E020E030E0FA013183208308952D
:1005000020914002309141022617370748F06115CB
:10051000710539F42091E8002E772093E80001C09E
:10052000B901FC0120E061157105A1F18EB38823AA
:10053000E1F18530E1F18091E80083FD34C08091E4
:10054000E80082FF06C08091E80082FF26C080E0BC
:1005500008958091E80080FFE6CF2091F30080911C
:10056000F20090E0922B6115710551F088309105F1
:1005700038F421912093F100615071090196F3CF75
:1005800021E0089709F020E08091E8008E778093C1
:10059000E800C9CF2111CACFD6CF8EB3882329F066
:1005A000853089F604C081E0089582E0089583E0F3
:1005B000089520914002309141022617370748F0F4
:1005C0006115710539F42091E8002E772093E80039
:1005D00001C0B901FC0120E061157105B9F18EB3CC
:1005E000882309F43EC0853009F43DC08091E800BD
:1005F00083FD35C08091E80082FF06C08091E8004D
:1006000082FF27C080E008958091E80080FFE4CF5A
:100610002091F3008091F20090E0922B611571051A
:1006200059F08830910540F424912093F1003196DF
:10063000615071090196F2CF21E0089709F020E09E
:100640008091E8008E778093E800C6CF2111C7CF54
:10065000D5CF8EB3882329F0853081F604C081E0A0
:10066000089582E0089583E00895982F973058F513
:100670009093E900981739F07091EC002091ED000B
:100680005091F00003C0242F762F50E021FF19C0B5
:100690003091EB003E7F3093EB003091ED003D7FD9
:1006A0003093ED003091EB0031603093EB007093AC
:1006B000EC002093ED005093F0002091EE0027FF16
:1006C00007C09F5FD3CF8F708093E90081E00895CA
:1006D00080E008950F931F93CF93DF93062FEC01D3
:1006E00010E0101771F19881992341F12C81E98173
:1006F000FA817B81892F8F70873010F080E022C0D3
:10070000223010F056E001C052E028E030E040E036
:100710002E173F0720F44F5F220F331FF9CF42956A
:10072000407F452B692F661F6627661F90E4799FDF
:1007300090011124622B99DF882301F31F5F259616
:10074000D0CF81E0DF91CF911F910F9108958091DB
:100750003A0287FD05C08091E80080FF0DC010C0FF
:100760008091E80082FD04C08EB38111F9CF089515
:100770008091E8008B7707C08EB38111ECCF08958C
:100780008091E8008E778093E80008958091E400DE
:100790009091E50045E62091EC0020FF20C02091DB
:1007A000E80020FD20C02EB3222389F0253089F0F7
:1007B0002091EB0025FD0FC02091E4003091E50071
:1007C0002817390741F3415041F0C901E4CF82E0D5
:1007D000089583E0089581E0089584E008952091CC
:1007E000E80022FFE0CF80E008950F931F93CF939E
:1007F000DF934AD051D0C8EDD0E088818F778883CD
:1008000088818068888388818F7D888319BC1EBA1F
:1008100010923602109238021092370200EE10E069
:10082000F80180818B7F808388818160888342E0AA
:1008300060E080E01ADFE1EEF0E080818E7F80836F
:10084000E2EEF0E080818160808380818860808337
:10085000F80180818E7F8083888180618883DF9129
:10086000CF911F910F910895E8EDF0E080818F7E88
:100870008083E7EDF0E080818160808384E082BF47
:1008800081E080933902B1CFE8EDF0E080818E7F86
:1008900080831092E20008951092DA001092E10035
:1008A00008951F920F920FB60F9211242F933F932A
:1008B0004F935F936F937F938F939F93AF93BF9368
:1008C000EF93FF938091E10082FF0AC08091E200E4
:1008D00082FF06C08091E1008B7F8093E10023D2EC
:1008E0008091DA0080FF1BC08091D80080FF17C084
:1008F0008091DA008E7F8093DA008091D90080FFAA
:100900000BC080E189BD82E189BD09B400FEFDCF45
:1009100081E08EBB3BDD03C019BC1EBA39DD80917E
:10092000E10080FF17C08091E20080FF13C080913A
:10093000E2008E7F8093E2008091E20080618093EC
:10094000E2008091D80080628093D80019BC85E0D5
:100950008EBBE9D18091E10084FF2CC08091E20040
:1009600084FF28C080E189BD82E189BD09B400FE11
:10097000FDCF8091D8008F7D8093D8008091E100D9
:100980008F7E8093E1008091E2008F7E8093E20071
:100990008091E20081608093E200809136028111B3
:1009A00004C08091E30087FF02C084E001C081E0C1
:1009B0008EBBB9D18091E10083FF26C08091E20017
:1009C00083FF22C08091E100877F8093E10082E075
:1009D0008EBB109236028091E1008E7F8093E10001
:1009E0008091E2008E7F8093E2008091E20080613E
:1009F0008093E20042E060E080E037DE8091F0002A
:100A000088608093F0008FD1FF91EF91BF91AF91FB
:100A10009F918F917F916F915F914F913F912F9116
:100A20000F900FBE0F901F9018951F920F920FB648
:100A30000F9211242F933F934F935F936F937F9364
:100A40008F939F93AF93BF93CF93EF93FF93C091F7
:100A5000E900CF708091EC001092E9008091F000E5
:100A6000877F8093F00078941BD01092E9008091EA
:100A7000F00088608093F000C093E900FF91EF914F
:100A8000CF91BF91AF919F918F917F916F915F9126
:100A90004F913F912F910F900FBE0F901F9018957F
:100AA0001F93CF93DF93CDB7DEB7AA970FB6F89415
:100AB000DEBF0FBECDBFEAE3F2E08091F10081938B
:100AC00022E0E234F207C9F76EDC8091E80083FF90
:100AD00012C120913A0230913B02832F90E08A307C
:100AE000910508F008C1FC01EA5AFF4FCBC220383B
:100AF00081F0223809F0FFC080913E028F70809310
:100B0000E9008091EB0085FB882780F91092E900CD
:100B100006C08091370290913802911182609091C5
:100B2000E800977F9093E8008093F1001092F10025
:100B3000C0C0822F8D7F09F0DEC0222319F0223041
:100B400061F0D9C080913C02813009F0D4C03330CB
:100B500009F080E08093380228C080913C02811126
:100B600024C020913E022F7009F4C5C02093E900F3
:100B70008091EB0080FF19C08091EB00333011F4BD
:100B8000806211C080618093EB0081E090E0022ED2
:100B900001C0880F0A94EAF78093EA001092EA00F5
:100BA0008091EB0088608093EB001092E9008091C7
:100BB000E800877F81C021119EC010913C021F7701
:100BC0008091E3008078812B8093E3008091E8009E
:100BD000877F8093E800BBDD8091E80080FFFCCF39
:100BE0008091E30080688093E300112311F083E09B
:100BF00001C082E08EBB7FC02058223008F07BC04D
:100C000080913C0290913D028C3D23E0920771F56A
:100C100083E08A838AE289834FB7F894DE011396D2
:100C200020E03EE051E2E32FF0E050935700E491E2
:100C300020FF03C0E295EF703F5FEF708E2F90E0D2
:100C4000EA3010F0C79601C0C0968D939D932F5F38
:100C5000243149F74FBF8091E800877F8093E800F7
:100C60006AE270E0CE0101964BDC12C0AE014F5F2C
:100C70005F4F60913E0212DC009709F43CC0209166
:100C8000E800277F2093E800BC0189819A8191DCEC
:100C90008091E8008B778093E8002DC0203859F5CB
:100CA0008091E800877F8093E800809136028093EE
:100CB000F1008091E8008E778093E80048DD1BC04A
:100CC000211119C090913C029230A8F48091E80063
:100CD000877F8093E8009093360239DD8091360259
:100CE000811104C08091E30087FF02C084E001C04D
:100CF00081E08EBB4FDB8091E80083FF0AC08091CA
:100D0000E800877F8093E8008091EB008062809309
:100D1000EB00AA960FB6F894DEBF0FBECDBFDF91F1
:100D2000CF911F9108950895CF938EB38823A9F092
:100D30008091E9008F709091EC0090FF02C090E8E4
:100D400001C090E0C92FC82B1092E9008091E80003
:100D500083FDA6DECF70C093E900CF910895CF93B5
:100D6000DF93EC01FC0170968BE0DF011D928A9508
:100D7000E9F782E08C83898783E08E8761E0CE018A
:100D80000196A8DC882361F061E0CE010696A2DC22
:100D9000882331F061E0CE010B96DF91CF919ACCA0
:100DA00080E0DF91CF910895CF93C62F2EB32430EA
:100DB000F1F4FC014489558966897789452B462BD6
:100DC000472BA9F081818F708093E9008091E80022
:100DD00085FF04C0C093F10080E00AC08091E80064
:100DE0008E778093E800D2DC8823A1F301C082E0F3
:100DF000CF9108952EB3243041F5FC0144895589E3
:100E000066897789452B462B472BF9F081818F70B6
:100E10008093E9002091F3008091F20090E0922B02
:100E2000892B89F09091E8008091E8008E7780937B
:100E3000E80095FD08C0AADC811108C08091E80097
:100E40008E778093E80080E0089582E008952EB3C5
:100E5000243089F4FC014489558966897789452BBA
:100E6000462B472B41F021812F702093E9002091E0
:100E7000E80020FDBFCF08952EB3243019F08FEF86
:100E80009FEF0895FC014489558966897789452B30
:100E9000462B472BA1F386818F708093E9008091C8
:100EA000E80082FFECCF2091F3008091F20090E007
:100EB000922B892B21F02091F10030E002C02FEF1E
:100EC0003FEF4091F3008091F20090E0942B892B4A
:100ED00029F48091E8008B778093E800C901089598
:100EE0000895CF93DF93EC018091E80083FFA5C0C4
:100EF000888190E020913E0230913F022817390707
:100F000009F09BC080913B02813261F020F4803275
:100F100009F43EC092C0823209F46BC0833209F4F6
:100F20007CC08BC080913A02813A09F086C08091E2
:100F3000E800877F8093E8008091E80080FFFCCF85
:100F40004C895D896E897F894093F100BB27A72F6B
:100F5000962F852F8093F100CB01AA27BB27809382
:100F6000F100472F5527662777274093F100888D9A
:100F70008093F100898D8093F1008A8D8093F10038
:100F80008091E8008E778093E800DF91CF91DFCBEE
:100F900080913A02813209F050C08091E800877F49
:100FA0008093E8008091E80082FD04C08EB3811137
:100FB000F9CF43C03091F1002091F1009091F10000
:100FC0008091F1003C8B2D8B9E8B8F8B8091F1005B
:100FD000888F8091F100898F8091F1008A8F8091B4
:100FE000E8008B778093E800B2DBCE01DF91CF91F0
:100FF00007CA80913A02813201F58091E800877F2B
:101000008093E800A4DB80913C0290913D02998B93
:10101000888BCE01DF91CF9134CA80913A02813220
:1010200061F48091E800877F8093E80090DB609115
:101030003C02CE01DF91CF9153CFDF91CF91089544
:10104000A1E21A2EAA1BBB1BFD010DC0AA1FBB1FCC
:10105000EE1FFF1FA217B307E407F50720F0A21B3E
:10106000B30BE40BF50B661F771F881F991F1A94AB
:1010700069F760957095809590959B01AC01BD01D5
:10108000CF010895EE0FFF1F0590F491E02D099414
:04109000F894FFCF02
:101094000083100000010410000001820800000118
:0C10A40000000000000000000000000040
:00000001FF
