:100000000C94D1000C94F0000C94F0000C94F000CF
:100010000C94F0000C94F0000C94F0000C94F000A0
:100020000C94F0000C94F0000C94F0000C94F00090
:100030000C94F0000C94F0000C94F0000C94F00080
:100040000C94F0000C94F0000C94F0000C94F00070
:100050000C94F0000C94F0000C94F0000C94F00060
:100060000C94F0000C94F0000C94F0000C94F00050
:100070000C94F0000C94F0000C94F0000C94F00040
:100080000C94F0000C94F0000C94F0000C94F00030
:100090000C94F0000C94F0000C94F0000C94F00020
:1000A0000C94F0000C94F0000C94F0000C94F00010
:1000B0000C94F0000C94F0000C94F0000C94F00000
:1000C0000C94F0000C94F0000C94F0000C94F000F0
:1000D0000C94F0000C94F0000C94F0000C94F000E0
:1000E0000C94F0000C9411040C941B040C94070461
:1000F0000C9486030C94B1030C9425040C945B03BC
:100100000C94DC030C9418090C9441090C94F00035
:100110000C94F0000C94F0000C9439040C942F040F
:1001200003020201010000FFFEFDFCFBF9F7F4EF02
:1001300074198C14061462227620101FBF271E2506
:100140008C259E24602BE92D00005A2F24280000C6
:100150002A183A181A18F017091830174917D21721
:10016000000000000817B91682178E161E17A91670
:10017000EA16DB169A16F9160104010101020101C3
:100180000101010101010101040108020101010154
:100190000201010201020101020102020101010149
:1001A000080011241FBECFEFD1E4DEBFCDBF12E0A7
:1001B000A0E0B2E0EAE9F9E600E00BBF02C0079078
:1001C0000D92A430B107D9F717E0A4E0B2E001C066
:1001D0001D92A731B107E1F70E9426030C94CB349E
:1001E0000C940000089582E090E061E070E00E94CD
:1001F0005F090895EF92FF920F931F93662399F47E
:1002000082E090E060E070E00E945F0985E040E2FB
:1002100051EA67E070E020E030E003EF10E0EE2408
:10022000FF240E9497071F910F91FF90EF90089570
:10023000EF92FF920F931F9382E090E060E070E0F6
:100240000E945F0985E040E251EA67E070E020E04B
:1002500030E003EF10E0EE24FF240E9497071F9187
:100260000F91FF90EF900895EF92FF920F931F93DD
:1002700081E090E062E070E00E945F0985E040E28A
:1002800051EA67E070E020E030E004E311E0EE24A2
:10029000FF240E9497071F910F91FF90EF90089500
:1002A000EF92FF920F931F936623B9F485E00E94AB
:1002B0008B0681E090E060E070E00E945F0984E0DE
:1002C00040E854E86EE170E020E030E005E811E03D
:1002D000EE24FF240E94970703C081E00E940832A9
:1002E0001F910F91FF90EF900895882351F485E0BE
:1002F0000E948B0681E090E060E070E00E945F0960
:10030000089581E00E9408320895EF92FF920F93C2
:100310001F93DF93CF93CDB7DEB72C970FB6F8942A
:10032000DEBF0FBECDBF82E08A838EEB9AEB9C834B
:100330008B8380910502909106029E838D830E949B
:1003400040348983009104020F5F0093040282E02D
:10035000BE016E5F7F4F41E09E012F5F3F4FEE2455
:10036000E3940E941C3384E040E854E86EE170E0BE
:1003700020E030E005E811E0EE24FF240E9497071A
:100380002C960FB6F894DEBF0FBECDBFCF91DF9194
:100390001F910F91FF90EF900895EF92FF920F93AE
:1003A0001F937C01E0911002F0911102309709F146
:1003B000809112028217E9F4809113028317C9F425
:1003C000809114028417A9F480911502851789F48D
:1003D00080911602861769F480911702871749F4F5
:1003E000809118028E1529F4809119028F1509F455
:1003F0005DC000911A0210911B020115110501F157
:1004000080911C028217E1F480911D028317C1F4D0
:1004100080911E028417A1F480911F02851781F438
:1004200080912002861761F480912102871741F4A0
:10043000809122028E1521F4809123028F15B9F14B
:10044000EF2B19F4A0E0B0E004C0012B49F5A1E0C6
:10045000B0E08D010F5F1F4FFD01EE0FFF1FCD01BB
:10046000880F991F880F991F880F991FE80FF91F90
:10047000E05FFD4F11830083FD01EE0FFF1FEE0FC4
:10048000FF1FEA0FFB1FEE0FFF1FEE5EFD4F2083E5
:1004900031834283538364837583E682F78207C086
:1004A000C7010FEF1FEFEE24E39403C08F01C701D4
:1004B000EE240E9490321F910F91FF90EF900895CB
:1004C000AF92CF92EF920F93DF93CF930F92CDB76E
:1004D000DEB7882301F5633521F481E0898381E467
:1004E00005C0613449F481E0898382E5BE016F5F14
:1004F0007F4F0E947F3312C0623569F48EEB9AEB16
:1005000064E140E02FE00FE0EE24E394CC24AA2441
:100510000E94583103C081E00E9408320F90CF91B1
:10052000DF910F91EF90CF90AF900895CF92DF922F
:10053000EF920F93DF93CF9300D0CDB7DEB740910A
:100540000F024F5F40930F028823C1F5F60120E0B0
:1005500032C08385843169F58485882351F5818192
:1005600092818E5B9A4B29F58585968597FF21C0F0
:100570008081823039F48381948190930602809344
:10058000050210C0833089F527E032E0AF014D5FEE
:100590005F4F88E0DA010D90AD01D9010D929D0108
:1005A0008150C1F783856485AF0120E80E94CD3278
:1005B0001FC071962F5F2E1560F202C08A3EA9F40B
:1005C000433050F481E040E058EF6FEF77E024E0F3
:1005D00000E00E948B310CC019821A8283E5BE01B3
:1005E0006F5F7F4F0E947F3303C081E00E9408321B
:1005F0000F900F90CF91DF910F91EF90DF90CF9000
:100600000895EF92FF920F931F938823B9F481E02E
:1006100040E058EF6FEF77E024E000E00E948B317C
:1006200085E040E251EA67E070E020E030E004E37A
:1006300011E0EE24FF240E94970703C081E00E948E
:1006400008321F910F91FF90EF9008950E94C133DF
:10065000882311F00E9443040E94580980E090E032
:1006600060E070E00E945F0981E090E061E070E08E
:100670000E945F0982E090E061E070E00E945F0903
:10068000789481E00E9408320E94AB33FDCF9093B2
:1006900025028093240208959093270280932602D6
:1006A00008959093290280932802089590932B0235
:1006B00080932A0208951F920F920FB60F920BB6E5
:1006C0000F9211242F933F934F935F936F937F93D8
:1006D0008F939F93AF93BF93EF93FF93E091240287
:1006E000F09125020995FF91EF91BF91AF919F91F4
:1006F0008F917F916F915F914F913F912F910F90CB
:100700000BBE0F900FBE0F901F9018951F920F9267
:100710000FB60F920BB60F9211242F933F934F9366
:100720005F936F937F938F939F93AF93BF93EF9359
:10073000FF93E0912602F09127020995FF91EF9136
:10074000BF91AF919F918F917F916F915F914F91E9
:100750003F912F910F900BBE0F900FBE0F901F90E7
:1007600018951F920F920FB60F920BB60F9211248D
:100770002F933F934F935F936F937F938F939F93A9
:10078000AF93BF93EF93FF93E0912802F09129027A
:100790000995FF91EF91BF91AF919F918F917F91BB
:1007A0006F915F914F913F912F910F900BBE0F90E2
:1007B0000FBE0F901F9018951F920F920FB60F92B9
:1007C0000BB60F9211242F933F934F935F936F9328
:1007D0007F938F939F93AF93BF93EF93FF93E0919A
:1007E0002A02F0912B020995FF91EF91BF91AF91F1
:1007F0009F918F917F916F915F914F913F912F9139
:100800000F900BBE0F900FBE0F901F9018951F9268
:100810000F920FB60F9211240F900FBE0F901F90E2
:1008200018951F920F920FB60F9211240F900FBEC2
:100830000F901F9018951F920F920FB60F921124D0
:100840000F900FBE0F901F9018951F920F920FB62A
:100850000F9211240F900FBE0F901F9018951F92AA
:100860000F920FB60F9211240F900FBE0F901F9092
:1008700018951F920F920FB60F9211240F900FBE72
:100880000F901F901895FF920F931F939D9A6B9A4C
:100890006C9AA59A739A749A80E2F82E08E010E197
:1008A0008FEF9FEF0E94590584B38F2584BB8EB1D3
:1008B00080278EB98EB181278EB9F2CFCF92DF9289
:1008C000EF92FF920F931F93CF93DF937B018A01E7
:1008D0006901892B11F088EE19C0CA01860F971F94
:1008E0008150904110F085E811C0C0E0D0E00AC00E
:1008F000CE018E0D9F1D0E945934F601EC0FFD1F95
:1009000080832196C017D10798F380E0DF91CF91C3
:100910001F910F91FF90EF90DF90CF900895CF92AD
:10092000DF92EF92FF920F931F93CF93DF938C018F
:100930007B016A01CB01800F911F8150904110F023
:1009400085E816C0C0E0D0E00FC0C8010E9459344D
:10095000F601EC0FFD1F6081861719F0C8010E9497
:1009600061340F5F1F4F2196CE15DF0570F380E0D5
:10097000DF91CF911F910F91FF90EF90DF90CF907B
:1009800008950E94610708950E94D3040E94F40410
:10099000A89588E10FB6F8948093600010926000EB
:1009A0000FBE80E008959FB7F894E0E0F0E089E0A2
:1009B0008093570084919FBF8F70823011F090E038
:1009C00001C09FE080E80FB6F89480936100909397
:1009D00061000FBE80E180933501809334018093E4
:1009E000330180933201089510922C0210924B062D
:1009F0008FEF80932D0280932E0280932F02E9E1E6
:100A0000F6E09FEF948311821082399686E0EF34EE
:100A1000F807C1F780E28093B60088EA8093DC0093
:100A20008FE08093F4009093F3009093F200909302
:100A3000F10082E08093E0008091DF00826080938B
:100A4000DF0008950895FC018091DE0080FDFCCF59
:100A50002091E100822F2091E200922F2091E3006B
:100A6000A22F2091E400B22F24E0880F991FAA1F23
:100A7000BB1F2A95D1F780839183A283B383089506
:100A8000FC012091E900822F2091EA00922F209111
:100A9000EB00A22F2091EC00B22F34E0880F991FB9
:100AA000AA1FBB1F3A95D1F780839183A283B3839A
:100AB0000895AC018436910518F060E070E01EC026
:100AC0007FB7F89461E01AC057FD02C09A0102C0D6
:100AD0002FEF3FE7C901880F991F909581959F4F90
:100AE0009093250180932401FABBE0932101D09BD0
:100AF000FECF421B530B1092210102C0F1E0E2E055
:100B00004115510509F761117FBF089520E090E07C
:100B1000FC01B3E0EE0FFF1FBA95E1F7E80FF91FF4
:100B2000EB5EF94F84819581892B09F021E0822FBA
:100B30000895AF92BF92CF92DF92EF92FF920F9300
:100B40001F9380912D0290E0FC0113E0EE0FFF1F38
:100B50001A95E1F7E80FF91FEB5EF94FA080B1801D
:100B6000C280D38080912C02882309F46BC0D0927C
:100B7000F800C092F700B092F600A092F5008091C4
:100B8000DF0080FD08C081E08093E0008091DF00FD
:100B900081608093DF002091E100822F2091E200AC
:100BA000922F2091E300A22F2091E400B22F9C010C
:100BB000AD012F5F3F4F4F4F5F4FDA01C9018A25CB
:100BC0009B25AC25BD2580709070A070B87F0097E4
:100BD000A105B10531F4A216B306C406D506C0F1CD
:100BE00009C0D601C501B7705770281739074A07E1
:100BF0005B0770F180915D01883068F5E09030020C
:100C0000F090310200913202109133020894E11CFD
:100C1000F11C011D111DEA14FB040C051D05D9F47E
:100C20008091E100282F8091E200382F8091E3002D
:100C3000482F8091E400582F2E153F05400751079B
:100C400079F706C08091DF008E7F8093DF0003C0BC
:100C500081E080934B061F910F91FF90EF90DF9002
:100C6000CF90BF90AF9008951F931FB7F8948091D5
:100C70004B06882309F44CC010924B0630912C028D
:100C8000332309F445C080912E028F3F59F480919F
:100C90002F028F3F39F480912D0280932F02809391
:100CA0002E0212C020912D0280912F0290E0FC01B3
:100CB00053E0EE0FFF1F5A95E1F7E80FF91FEB5EC7
:100CC000F94F208720932F0280912D0290E0FC01A4
:100CD00043E0EE0FFF1F4A95E1F7E80FF91FEB5EC7
:100CE000F94F808580932D0280912F0290E0FC01C6
:100CF00023E0EE0FFF1F2A95E1F7E80FF91FEB5EE7
:100D0000F94F8FEF8087315030932C020E94990564
:100D10001FBF1F910895FF920F931F93182F8630C6
:100D200010F08AE8C5C0FFB6F8940E94340600911E
:100D30002C02002309F4C0C040912D02242F842FDF
:100D4000302F1217F1F5212F30E0141781F4F9013B
:100D5000A3E0EE0FFF1FAA95E1F7E20FF31FEB5E92
:100D6000F94F808580932D020E94990518C090E06C
:100D7000DC01E3E0AA0FBB1FEA95E1F7A80FB91F5A
:100D8000AB5EB94FF90173E0EE0FFF1F7A95E1F703
:100D9000E20FF31FEB5EF94F808518968C93812F3D
:100DA00090E0FC0163E0EE0FFF1F6A95E1F7E80FAA
:100DB000F91FEB5EF94F8FEF8087015000932C02F3
:100DC00062C0822F90E0FC0153E0EE0FFF1F5A95A6
:100DD000E1F7E80FF91FEB5EF94F50853150822F94
:100DE00009F46AC0252FADCF1217D1F520912F023B
:100DF0001317B1F4121721F48FEF80932F020DC057
:100E0000812F90E0FC0143E0EE0FFF1F4A95E1F7D0
:100E1000E80FF91FEB5EF94F808580932E0233C0F7
:100E2000842F90E0DC0133E0AA0FBB1F3A95E1F775
:100E3000A80FB91FAB5EB94F812F90E0FC0103E012
:100E4000EE0FFF1F0A95E1F7E80FF91FEB5EF94F70
:100E5000808518968C931217B1F440932F0213C01B
:100E6000822F90E0FC0173E0EE0FFF1F7A95E1F70F
:100E7000E80FF91FEB5EF94F422F20852F3F09F055
:100E8000B3CF80E00FC0812F90E0FC0163E0EE0F54
:100E9000FF1F6A95E1F7E80FF91FEB5EF94F158226
:100EA000148281E0FFBE882311F489E801C080E04C
:100EB0001F910F91FF90089530912E02232F432F01
:100EC000DDCF1F930E9434061FEF25C06FB7F89443
:100ED000822F90E0FC01B3E0EE0FFF1FBA95E1F71F
:100EE000E80FF91FEB5EF94F20854481558186811B
:100EF0009781108715821482178216822F3F09F47A
:100F00003FEF6FBF4115510551F030932F022093F1
:100F10002E02FA01099530912F0220912E022F3FC7
:100F2000A9F630932F0220932E021F9108952F923D
:100F30003F924F925F926F927F928F929F92AF9269
:100F4000BF92CF92DF92EF92FF920F931F93DF93A6
:100F5000CF9300D000D00F92CDB7DEB7582E180136
:100F6000FB82EA8205E0081710F48AE820C1211408
:100F7000310409F419C190E09D838C83FC01A3E046
:100F8000EE0FFF1FAA95E1F7E80FF91FEB5EF94F8F
:100F900084819581892B11F088E809C1E4E0769578
:100FA000679557954795EA95D1F72115310529F0B1
:100FB0002130310509F0F8C026C0DB01CA010897CD
:100FC000A109B109885F9F4FAF4FB74008F0EEC04D
:100FD0002091E100822F2091E200922F2091E300E6
:100FE000A22F2091E400B22F7A018B01E80EF91EA6
:100FF0000A1F1B1F8FEF9FEFAFEFBFE0E822F92220
:101000000A231B2320C02091E100822F2091E200BF
:10101000922F2091E300A22F2091E400B22F8A01A9
:101020009B01081B190B2A0B3B0BD901C801BF7090
:101030000897A109B109885F9F4FAF4FB74008F0EB
:10104000B5C07A018B012FB72983F8946FEF862EF4
:101050006FEF962E6FEFA62E6FE0B62E8E209F209C
:10106000A022B1220E94340660902D023FEF631649
:1010700071F040902C02C62CD62C77248FEF9FEF76
:10108000AFEFB7E0E822F9220A231B2367C0509292
:101090002D02EC81FD8153E0EE0FFF1F5A95E1F721
:1010A000AC81BD81EA0FFB1FEB5EF94F60865AC031
:1010B000BFEFDB1609F44DC06D2D70E0FB0143E07E
:1010C000EE0FFF1F4A95E1F7E60FF71FEB5EF94FB2
:1010D0002081318142815381D501C4018227932728
:1010E000A427B52780709070A070B87F0097A105E5
:1010F000B10539F4281539054A055B0508F46FC0B8
:1011000007C05770E216F3060407150708F467C016
:10111000EC81FD8133E0EE0FFF1F3A95E1F70C8182
:101120001D81E00FF11FEB5EF94FD0866D1419F4AD
:1011300050922D0217C08C2D90E0FC0123E0EE0FA1
:10114000FF1F2A95E1F7E80FF91FEB5EF94F508674
:1011500009C08FEFDC2C7394CD2CD82E741408F4B6
:10116000A7CF49C0EC81FD8193E0EE0FFF1F9A9558
:10117000E1F72C813D81E20FF31FEB5EF94F808296
:101180009182A282B382358224828A819B81978355
:10119000868380912C028F5F80932C020E94990598
:1011A00099819FBF80E003C088EE01C08BE80F905B
:1011B0000F900F900F900F90CF91DF911F910F9193
:1011C000FF90EF90DF90CF90BF90AF909F908F9067
:1011D0007F906F905F904F903F902F900895FB010C
:1011E00083E0EE0FFF1F8A95E1F7E60FF71FEB5E36
:1011F000F94F8085B0CF8C2D90E0FC0103E0EE0F1D
:10120000FF1F0A95E1F7E80FF91FEB5EF94F5086D3
:10121000EC81FD8113E0EE0FFF1F1A95E1F7AC8121
:10122000BD81EA0FFB1FEB5EF94F8FEF80879ACFEE
:101230001F920F920FB60F9211242F933F938F930B
:101240009F938091E1009091E2002091E300309122
:10125000E400809330029093310220933202309365
:10126000330280912C02882319F081E080934B0691
:101270009F918F913F912F910F900FBE0F901F90D4
:1012800018951F920F920FB60F9211248F938FEF24
:101290008093E4008093E3008093E2008093E10078
:1012A0008F910F900FBE0F901F90189581E00895B9
:1012B0009D9A6B9A6C9AA59A739A749A0895813044
:1012C0009105C9F08130910518F00297C9F526C043
:1012D0006130710549F06130710520F062307105AF
:1012E00079F504C0A5980895A59A089584B390E26D
:1012F000892784BB08956130710549F0613071051B
:1013000020F062307105E1F404C073980895739A77
:1013100008958EB198E089278EB9089561307105DE
:1013200049F06130710520F06230710549F404C064
:1013300074980895749A08958EB190E189278EB9B2
:101340000895279857982F9A5F9A0895009729F043
:10135000019729F021E030E00BC083B101C089B1D1
:10136000282F332727FD30952227330F221F3327BD
:10137000C9010895BC01009721F088EE95E00E9414
:10138000EF09089588EE95E060E070E00E94840A1D
:1013900008950F931F93CF93DF9388EE95E00E94FB
:1013A000E809C0EDD5E004E312E01983088388EE74
:1013B00095E0BE010E94EF09249606561F4F85E076
:1013C000C83ED80791F7DF91CF911F910F910895F3
:1013D000FC01118210821382128214820895CF932D
:1013E000DF93DC01EB019FB7F89414968C9114976E
:1013F000882321F411967C936E9306C01296ED918A
:10140000FC911397738362831396DC93CE931297A8
:101410001B821A8214968C9114978F5F14968C936A
:101420009FBFDF91CF9108959F92AF92BF92CF92CD
:10143000DF92EF92FF920F931F93CF93DF938C0174
:101440005B016A019FB6F894DC0114968C918823A5
:1014500019F4C0E0D0E04AC0F801C081D181411543
:101460005105B1F07E0111C0D60112966D917C91AB
:101470001397ED91FC91888199810995882359F4FE
:101480007E018A819B819C01E901209769F72EC02A
:10149000209761F17E01AB2849F5F80180819181A7
:1014A0002A813B81C817D90719F43183208305C0ED
:1014B000D70113963C932E931297F8018281938162
:1014C000C817D90711F4F382E282D80114968C91DF
:1014D0001497815014968C9314978D919C91119729
:1014E000892B21F413961C921E9212979FBECE0157
:1014F000DF91CF911F910F91FF90EF90DF90CF90F0
:10150000BF90AF909F900895AB0160E070E00E94A3
:10151000140A0895AB0161E070E00E94140A089576
:10152000CF93DF93EC010BC0CE0160E070E00E942E
:10153000840A009711F41C8205C00E94BA098C81AC
:10154000882391F7DF91CF910895809141018F71A8
:101550008830F1F481E080934F0189E0809342016B
:1015600080914F0180FD14C08EE690E00E945905E5
:1015700080914F0180FD0CC08EE690E00E945905DD
:1015800080914F0180FD04C08EE690E00E945905D5
:1015900008951F93182F80916C068F30D1F49FB758
:1015A000F8947894809139018D7F809339018091EE
:1015B00075068823E1F39FBF1092750680914F0155
:1015C0008CE480934E01183011F0133011F488E050
:1015D000AFC1809141018F7180936C06183009F47E
:1015E0004BC0193050F4143009F493C0163009F48C
:1015F0009BC0133009F097C155C01F3069F01031FE
:1016000020F4193009F08FC163C0163109F4C2C04B
:10161000193109F088C122C183E0809342010E9400
:10162000403480936D0180916E019770887F982B74
:1016300090936E0180914F0180E880934E010000ED
:10164000000000000000000000000000000000009A
:101650000000000000000000000000000000809179
:10166000390182608093390183E290E00E9459053C
:1016700010936C068FE05EC1883009F454C110935A
:101680004201000000000000000000000000000017
:10169000000000000000000000000000000000004A
:1016A000000041C1883009F43EC11093420100009E
:1016B000000000000000000000000000000000002A
:1016C00000000000000000000000000000002BC12E
:1016D000883021F1893020F4863009F024C105C01A
:1016E000863119F0893109F01EC189E080934201E9
:1016F00000000000000000000000000000000000EA
:1017000000000000000000000000000000000000D9
:101710000AC1883019F0893021F405C10E94A50A58
:1017200002C110934201FFC0893059F08A3020F481
:10173000883009F0F8C019C0863119F0893109F0F4
:10174000F2C086E08093420100000000000000002B
:101750000000000000000000000000000000000089
:101760000000000000000000DEC00E94A50A1093E7
:101770004201000000000000000000000000000026
:101780000000000000000000000000000000000059
:101790000000C9C08830F9F0893020F4863009F0A3
:1017A000C2C02EC0893019F0893109F0BCC086E171
:1017B00080934201000000000000000000000000D3
:1017C0000000000000000000000000000000000019
:1017D00000000000A8C00E94A50A1093420100006A
:1017E00000000000000000000000000000000000F9
:1017F000000000000000000000000000000093C096
:1018000089E0809342010000000000000000000019
:1018100000000000000000000000000000000000C8
:10182000000000000000809141018F7180936C06E0
:10183000893009F07FC010934201000000000000D1
:101840000000000000000000000000000000000098
:101850000000000000000000000065C0883009F4AE
:101860004EC0893020F4863009F05DC019C089303F
:1018700021F0863109F057C013C0109342010000D7
:101880000000000000000000000000000000000058
:10189000000000000000000000000000000043C045
:1018A00089E0809342010000000000000000000079
:1018B0000000000000000000000000000000000028
:1018C000000000000000809141018F7180936C0640
:1018D000893009F02FC089E18093420100000000A7
:1018E00000000000000000000000000000000000F8
:1018F00000000000000000000000000014C00E9472
:10190000A50A109342010000000000000000000042
:1019100000000000000000000000000000000000C7
:10192000000000000000809141018F718F31D9F3D8
:1019300080936C061F91089580915D068823E1F0E5
:10194000809176068823C1F48091ED059091EE0593
:10195000892B39F48AE90E94C2099093EE0580939D
:10196000ED058091ED059091EE05892B29F01092FF
:101970005D0686E10E94C90A80916206882351F0C3
:101980008EE596E060E070E00E94840A009711F016
:101990000E94D70C80917606823019F0853031F4A0
:1019A00003C00E942F0E08950E94860E0895EF92A4
:1019B000FF920F931F93CF93DF937C01DC010D9176
:1019C0001C91D8011796ED91FC9118978081809316
:1019D0006E06C82FD0E02196CE0FDF1F9881298197
:1019E0002D3310F02CE303C0222309F421E092955B
:1019F0009695969593708FEF989FC001112430E0D3
:101A0000FC01E29FC001E39F900DF29F900D112415
:101A100064EB70E00E94D1336F3F710511F008F064
:101A20006FEF6883D8011296FC92EE921197C8016D
:101A30000E949218DF91CF911F910F91FF90EF902C
:101A40000895CF92DF92EF92FF920F931F93CF935F
:101A5000DF93E091ED05F091EE05309709F449C070
:101A6000C081D181C0904701D0907B01D7FC41C09B
:101A700082E0D80E0AE910E00D191109EEEFDE0E32
:101A80000C0F1D1FED2CFF2497012F5F3F4FC80146
:101A900060E871E0A9010E945034F801D292F88701
:101AA000EF83EE0EFF1EF701C28280914C018F770B
:101AB00080934C0180914C01806880934C0160912F
:101AC000ED057091EE058EE596E00E94EF098AE93A
:101AD0000E94C2099093EE058093ED05892B31F4A5
:101AE00089E00E94C90A81E080935D0680E48093CA
:101AF0004F01DF91CF911F910F91FF90EF90DF90F9
:101B0000CF9008951F93109176061130C9F48091FB
:101B100042018295869587708093EF0582E08093DD
:101B200076068091ED059091EE05892B31F489E0E0
:101B30000E94C90A10935D0603C086E10E94C90A8B
:101B40001F9108950F931F93CF93DF93EC018B01A7
:101B5000442349F090916C0180916B068295807FBF
:101B60009F70892B03C080916C018F7080936C01F2
:101B70000230110598F4442369F090916C01809132
:101B80006306880F8E70917F892B80936C01109271
:101B90006F0117C080916C018E6011C08091670643
:101BA0008295807F90916A06892B80936F01909136
:101BB0006C0180916306880F8E70917F892B8093D2
:101BC0006C0189E10E94C90A8931D9F701301105F8
:101BD00051F480916E06833118F080E492E005C0E4
:101BE00080E890E002C089E090E00E9459051FB7AC
:101BF000F894809139018260809339018091390194
:101C00008D7F80933901288130E02150304080E879
:101C100091E0BE01A9010E94503481E080937606D4
:101C20001FBFDF91CF911F910F910895FC0180910B
:101C30007606882311F086E80895F0936906E0930C
:101C40006806878190859093700680936F06009751
:101C500011F488EE08950E94A20D80E0089510927C
:101C600076068091EF058330B1F0843028F4882324
:101C700031F08130E1F409C08530C9F412C06091BF
:101C800068067091690680E017C0609168067091DF
:101C9000690687E811C0609168067091690681EE57
:101CA0000BC0609168067091690689EE05C060916D
:101CB00068067091690685E80E94E0290895909170
:101CC00047018091F005891710F49093F0058091F9
:101CD000F1059091F205A091F305B091F4050197FB
:101CE000A109B1098093F1059093F205A093F30542
:101CF000B093F4050097A105B10521F08FEF809313
:101D00004701089585E080937606089580915501F6
:101D10008F77809355018CE480934E011092760664
:101D200086E10E94C90A9091F005983320F08FEF68
:101D30008093F0050AC08FEF989FC001112467E3DC
:101D400070E00E94D1336093F0058091F0050E940D
:101D5000B32D08950F931F93082F80917606882343
:101D600041F080916C068F3011F086E846C081E822
:101D700044C08091550180688093550110E1109313
:101D80004F018FE59EE00E94510310934E0186E0C3
:101D90000E94C90A863051F0809155018F77809357
:101DA00055018CE480934E0185E827C084E0809340
:101DB00076061092F00580EC93E0A0E0B0E004C05D
:101DC000880F991FAA1FBB1F0A95D2F780549C4FFA
:101DD000AF4FBF4F23E0B695A795979587952A9566
:101DE000D1F78093F1059093F205A093F305B0939A
:101DF000F4058FEF8093470180E01F910F910895C4
:101E0000282F85FD03C0982F9F7304C0982F9195AC
:101E10009F719195E0E2F1E08491891734F03F964B
:101E20008491981714F0822F0CC0803E3CF08032D1
:101E30003CF487FF06C08F71806203C080E201C05E
:101E40008FE18068089584E08093630623E0209307
:101E50006A068FEF9FEF90935906809358069093F0
:101E60005C0680935B068BE08093650610925706B4
:101E700080E098EFAFEFB7E0809371069093720621
:101E8000A0937306B09374068AE091E0909356068F
:101E9000809355068AE080936D0682E08093640605
:101EA00085E08093670620936B0683E80E94000F0D
:101EB00080934C0681E080935A061092660608953E
:101EC00085FD03C0982F9F7304C0982F91959F7133
:101ED0009195E0E2F1E080E02491921724F0291737
:101EE0003CF4815008958F5F31968031A9F780E0EE
:101EF00008958091580690915906809362019093BD
:101F00006301EDE4F6E0A4E6B1E081918D9386E013
:101F1000E535F807D1F780915B0690915C068093D8
:101F20006001909361019091480180915A068295D9
:101F3000880F80769F79892B8093480190916F015B
:101F400080916A068F70907F892B80936F019091AA
:101F50006E0180916606880F880F880F8870977FC2
:101F6000892B80936E0190916F0180916706829515
:101F7000807F9F70892B80936F01909148018091A1
:101F800065068F71907E892B8093480180914C0665
:101F90000E94600F909145018F70907F892B8093F4
:101FA00045010895CF93DF93EB019091760694302D
:101FB00009F4E4C08E3431F0893541F4888180938E
:101FC0006B06E0C0888180936306DCC020916C06BC
:101FD0002F3011F481E8D7C08B3009F4C1C08C30A8
:101FE00070F4823009F47BC0833018F48823B1F197
:101FF00015C0833009F484C0843081F45CC083351B
:1020000011F1843528F48F3459F0803539F410C03B
:10201000873509F458C0803F09F47FC084EFB3C00E
:10202000988190936A0680916F019F70807F53C062
:102030008881998180935806909359068093620114
:10204000909363019FC08881998180935B069093F0
:102050005C06809360019093610194C0992309F01C
:102060008DC080E098EFAFEFB7E0088004C0B69570
:10207000A795979587950A94D2F781709070892BD0
:1020800009F47EC0283031F088E00E94C90A883007
:10209000D9F726E1988190936506809148019F7158
:1020A000807E982B90934801283009F46BC086E11C
:1020B0000E94C90A67C0992309F060C088818823FB
:1020C00009F460C05DC098819093670680916F01AC
:1020D0009295907F8F70982B90936F0153C0888159
:1020E00080934C060E94000F80934C060E94600F64
:1020F000909145018F70907F892B8093450142C05C
:10210000888180935A06909148018295880F807645
:102110009F79892B8093480135C0888180934D0633
:10212000898180934E068A8180934F068B818093AC
:1021300050068C81809351068D81809352068E814A
:10214000809353068F8180935406EDE4F6E0A4E675
:10215000B1E081918D9386E0E535F807D1F712C0A3
:1021600088818093660690916E01880F880F880F92
:102170008870977F892B80936E0104C086E803C026
:1021800088EE01C080E0DF91CF9108950F931F93F7
:10219000CF93DF93082F809139018D7F8093390190
:1021A00080EF90E00E945905809139018E7F8093E5
:1021B000390181E090E00E945905809139018160E8
:1021C0008093390110E084E690E00E9459058091E7
:1021D00041011A3011F485E84DC08F71883011F03B
:1021E0001F5FF1CF80936C0680916E0180628093B7
:1021F0006E0180914C01806880934C018CE4809347
:102200004E0186E00E94C90A10924E01C0E0D0E063
:1022100010E080914601CC0FDD1FCC0FDD1F90E058
:102220008076907025E0969587952A95E1F7C82BE2
:10223000D92B1F5F183069F783E00E94C90A80918B
:102240004F0110934F0180E480934F0180E8809309
:102250004F018CE480934E01CE010E94453400234F
:1022600011F00E94230F0E94790F109276061092AF
:102270005D0680E0DF91CF911F910F9108950E943C
:10228000C610882361F085E808958EE596E060E049
:1022900070E00E94840A009711F00E94BA098091B0
:1022A0006206882391F788E080934F0180E4809351
:1022B0004F0184E080934F0180E880934F010E949A
:1022C000403480936D0180916E019770887F982BC8
:1022D00090936E0180E00E9481120E94721280E051
:1022E00008950F931F93CF93DF930E94C404882314
:1022F00009F0CDC0809139018160809339018091CE
:1023000039018D7F809339018CE791E00E94590556
:10231000809139018E7F8093390181E090E00E94A5
:1023200059058091390181608093390110E084E67C
:1023300090E00E945905809141011A3009F4A7C02C
:102340008F71883011F01F5FF2CF80936C068091FF
:102350005C01833809F09BC0A0C0CDE4D6E00E94A8
:102360004034899386E0C535D807C9F780914D067A
:1023700030914E0640914F06609150067091510683
:10238000F0915206B091530650915406082F015017
:1023900091E0081708F090E0832F815021E0831727
:1023A00008F020E0192F180F91E0181708F090E0BE
:1023B000292B842F815031E0841708F030E0A22FC0
:1023C000A80F91E0A81708F090E0392B862F8150D4
:1023D00021E0861708F020E0E32FE80F91E0E817EE
:1023E00008F090E0292B872F815031E0871708F003
:1023F00030E0622F680F91E0681708F090E0392B09
:102400008F2F815021E08F1708F020E0432F480FD5
:1024100091E0481708F090E0292B8B2F815091E034
:102420008B1708F090E0322F380F21E0381708F0B2
:1024300020E0922B5195591779F43F3F69F44F3FB3
:1024400059F46F3F49F4EF3F39F4AF3F29F41F3F90
:1024500019F40E3F08F081CF8AE692E10E944C0306
:1024600082E692E10E9447038EE592E10E945603C4
:102470000E94C9098AE90E94C2099093EE058093DF
:10248000ED058EE596E00E94E80980E001C085E850
:10249000DF91CF911F910F91089580E090E060E06F
:1024A00070E048E050E02DE436E00E945E0481E0F8
:1024B0000E94C610882309F459CFE9CF81E08093A8
:1024C000750608951F931FB7F8940E94820D1FBFD1
:1024D0001F9108951F931FB7F8940E94210D1FBFED
:1024E0001F91089580916C068F3011F082E8089555
:1024F00088E00E94C90A883011F085E8089580E0DC
:102500000895882311F088EE089580916C068F302D
:1025100011F481E8089580917606882371F4109271
:102520005D0688E00E94C90A8830D9F78FE00E94D2
:10253000C90A8F3011F480E0089586E80895982F35
:1025400080917606882311F086E80895983039F452
:1025500088E00E94C90A10925D0688E00895809183
:10256000ED059091EE05892B29F086E10E94C90ABC
:1025700086E0089581E080935D0686E00895CF931C
:10258000DF93DC019C9111962C9111978091770635
:10259000882321F4CD010E94BA091AC0E92FF22F35
:1025A0009F012F5F3F4F4AEF56E088E0EA01099014
:1025B000AE01E90109929E018150C1F780910507A2
:1025C000818783E1808382E197E0BD010E94EF096A
:1025D000DF91CF910895DC01ED91FC91119784E199
:1025E000808363835283418382E197E0BD010E942F
:1025F000EF0908950F931F93DF93CF9300D0CDB7CA
:10260000DEB7A0919B06B0919C06ED91FC911197CD
:1026100084E180838BEE83830FEF1FEF12830183AE
:1026200082E197E0BD010E94EF0910928A061A83A9
:10263000098380E5BE016F5F7F4F0E947025109374
:10264000D2060093D1061092DF061092E006109297
:10265000E1061092E2061092E3061092E406109250
:10266000E5061092E6060E94B8230F900F90CF91D6
:10267000DF911F910F910895EF92FF920F931F9397
:10268000E090DB06F090DC0680E061E040E020E0D6
:1026900030E000E010E00E94D51C8823A9F4A0914E
:1026A0009B06B0919C06ED91FC91119784E180838B
:1026B00081EE83838FEF9FEF9283818382E197E0A6
:1026C000BD010E94EF0919C0A70160E070E084E03D
:1026D000440F551F661F771F8A95D1F780E020E0D1
:1026E00030E00AEF12E1EE24FF240E9497078823CE
:1026F00021F080E090E00E94FA121F910F91FF906C
:10270000EF900895FF920F931F93DF93CF9300D024
:10271000CDB7DEB7F09007070E94BA09FF20B1F5E8
:1027200083E565E077E00E947025209105073091F0
:1027300006078091FA068093DF068091FB0680935E
:10274000E0068091FC068093E1068091FD0680936F
:10275000E2068091FE068093E3068091FF06809357
:10276000E406809100078093E5068091010780933D
:10277000E60681E080930E0710928A068091950606
:10278000833031F582E08093950622C010928A064C
:102790000FEF1FEF1A83098380E5BE016F5F7F4F44
:1027A0000E9470251093D2060093D1061092DF0686
:1027B0001092E0061092E1061092E2061092E306F3
:1027C0001092E4061092E5061092E6062FEF3FEF16
:1027D000E0919B06F0919C06A081B18184E18C93ED
:1027E0001396FC92139712963C932E93119782E1C5
:1027F00097E0BF010E94EF090E94B8230F900F904D
:10280000CF91DF911F910F91FF9008950F931F9328
:10281000DF93CF93CDB7DEB72C970FB6F894DEBF1A
:102820000FBECDBFAC01DE011196FC01808191810C
:102830009C01F9018CE001900D928150E1F7DA01E1
:102840000D911C9180910E078250823020F0CA01B8
:102850000E94BA0956C082E0F8018083D801AC56C4
:10286000BF4FFD0181938A859B8512969C938E9321
:1028700011978C8582839D0128503040D901EDE469
:10288000F6E088E001900D928150E1F7F901389768
:102890009F01BE016E5F7F4F88E0DB010D90BD019F
:1028A000D9010D929D018150C1F7809158069091F8
:1028B0005906929382938091960682938F5F8093BC
:1028C000960683E69CEC929382938BE18293D801E7
:1028D0001896FC93EE93179716961C9289E796E04C
:1028E000BA010E94EF098091980690919906F8012B
:1028F0009583848381E00E948605882311F40E94D9
:102900000D212C960FB6F894DEBF0FBECDBFCF9130
:10291000DF911F910F910895CF92DF92EF92FF9276
:102920001F93DF93CF93CDB7DEB72F970FB6F894F1
:10293000DEBF0FBECDBFAC017C01DE011196FC01F4
:10294000808191819C01F9018FE001900D9281506D
:10295000E1F740939B0650939C068C81823019F4DA
:102960008F8198851AC08F818093DF068885809338
:10297000E00689858093E1068A858093E2068B854F
:102980008093E3068C858093E4068D858093E5062D
:102990008E858093E6068EEF9FEF9093D20680930C
:1029A000D10680E5BE016B5F7F4F0E9470250E94BB
:1029B0009323D701CD90DC9081E0F6018083F282F1
:1029C000E182EA56FF4F80838F8581839F012850E3
:1029D0003040D901EDE4F6E088E001900D9281509D
:1029E000E1F7F9018FEF9FEF929382938C81823010
:1029F00051F48091D1069091D2069293829345E151
:102A000023E238EC11C0F9013A979F014FED56E0EF
:102A100088E0DA010D90AD01D9010D929D01815040
:102A2000C1F74BE123E23CEC8091580690915906A6
:102A3000929382938091960682938F5F80939606FD
:102A4000329322934293D6011896FC93EE931797F4
:102A500084E0BE016D5F7F4F0E947025182F80E0DB
:102A6000BE016E5F7F4F0E947025112371F4882391
:102A700061F4C60162E070E041E00E94160E882316
:102A800021F481E080930F0712C0D701ED91FC91F2
:102A900084E1808381EE83838FEF9FEF9283818334
:102AA00082E197E0B7010E94EF090E94B8232F96B8
:102AB0000FB6F894DEBF0FBECDBFCF91DF911F914F
:102AC000FF90EF90DF90CF900895FC018091F70583
:102AD0008730F0F4A781B08512968C911297869575
:102AE000869583708230A1F4E091F505F091F605AA
:102AF0003297F093F605E093F50516968D919C912B
:102B00001797918380838091F7058F5F8093F705F6
:102B100080E00895FC018091F7058730F0F407808C
:102B2000F085E02D82818695869583708330A9F4A7
:102B30008091F5059091F60508979093F60580939E
:102B4000F505DC01369688E001900D928150E1F7A1
:102B50008091F7058F5F8093F70580E008959F923D
:102B6000AF92BF92CF92DF92EF92FF920F931F939B
:102B7000DF93CF9300D000D0CDB7DEB7FB01A080AC
:102B8000B180D50112967C936E9311978AE08C9355
:102B900078E9C72ED12CCA0CDB1C809197068823BC
:102BA00019F46DE0962E0EC0482F50E0C41AD50AD5
:102BB0005DE0952E980E2DE936E0C601B90150E092
:102BC0000E94503480917D06882309F442C0D0923F
:102BD000F605C092F5051092F7058AE895E19A830B
:102BE000898389E796E07E010894E11CF11CB70116
:102BF0000E948A0A0091F7051092F70585E695E193
:102C00009A83898389E796E0B7010E948A0A209116
:102C1000F705E091F505F091F605319710E0C80150
:102C200034E0880F991F3A95E1F7822B8083000FDB
:102C3000111F000F111F020F111D000F111F009314
:102C4000F705900EE02FF0E0E095F095EC0DFD1DFE
:102C500002C0F6011292DF011E9280910E078330AE
:102C600019F42FEF3FE402C02FEF3FE08091770689
:102C700081113068FD013293229380915B0690911F
:102C80005C062FEF8E3F920799F4FD013A9786E09C
:102C9000980E9F014DE456E088E0DA010D90AD01F9
:102CA000D9010D929D018150C1F720E030EC04C0A4
:102CB0009293829320E030E88091580690915906D3
:102CC000929382938091940682938F5F809394066F
:102CD000329322939292D5011896FC93EE93179714
:102CE000C50162E070E040E00E94160E81E0809332
:102CF0000F070F900F900F900F90CF91DF911F91C2
:102D00000F91FF90EF90DF90CF90BF90AF909F908A
:102D10000895BC0180E00E94AF150895FC01019068
:102D2000F081E02D628173818181448125810E943F
:102D3000D03308950F931F938C01DC01ED91FC912A
:102D400081810E947501C8010E94BA091F910F91EB
:102D500008950F931F938C01DC01ED91FC9181810B
:102D600062810E946002C8010E94BA091F910F91FE
:102D70000895AF92BF92CF92DF92EF920F931F937D
:102D80005C01DC01ED91FC91048115812681378184
:102D9000818162814381E08439966F010E949602AD
:102DA000C5010E94BA091F910F91EF90DF90CF905B
:102DB000BF90AF9008950F931F938C01DC01ED91AC
:102DC000FC9181810E94CF33C8010E94BA091F91F2
:102DD0000F9108950F931F938C01DC01ED91FC91ED
:102DE00081810E940103C8010E94BA091F910F91BD
:102DF00008950F931F938C01DC01ED91FC9181816B
:102E00000E94CE33C8010E94BA091F910F91089504
:102E10000F931F938C01DC01ED91FC912181328194
:102E20004381548165817681878190850E94CD336D
:102E3000C8010E94BA091F910F9108950F931F9323
:102E40008C01DC01ED91FC91818162813396AF01AF
:102E50000E94CC33C8010E94BA091F910F910895B6
:102E6000EF92FF920F937C01DC01ED91FC912181A7
:102E70003281438154816581768187819085018586
:102E80000E94CB33C7010E94BA090F91FF90EF90C7
:102E900008950F931F93DF93CF93CDB7DEB72B9792
:102EA0000FB6F894DEBF0FBECDBF8C01DC01ED91F3
:102EB000FC9182818983838194819B838A839E0193
:102EC0002C5F3F4FAF014B5F5F4F88E0DA010D9001
:102ED000AD01D9010D929D018150C1F78181BE01E3
:102EE0006F5F7F4F0E94CA33C8010E94BA092B96B8
:102EF0000FB6F894DEBF0FBECDBFCF91DF911F910B
:102F00000F9108950F931F93DF93CF93CDB7DEB743
:102F100066970FB6F894DEBF0FBECDBF8C01DC0103
:102F2000ED91FC91818192819B838A838381898346
:102F30009E012C5F3F4FAF014C5F5F4F88E0DA018D
:102F40000D90AD01D9010D929D018150C1F7818194
:102F500092819E878D8784858C879E01215F3F4F5C
:102F6000AF01435F5F4F88E0DA010D90AD01D901F9
:102F70000D929D018150C1F7CE010196BE01645FA3
:102F80007F4F45890E94F200C8010E94BA096696E7
:102F90000FB6F894DEBF0FBECDBFCF91DF911F916A
:102FA0000F910895CF92DF92EF92FF920F936C01F1
:102FB000DC01ED91FC91BF016E5F7F4F2489358963
:102FC000E788F08C8181438906890E94C933C60154
:102FD0000E94BA090F91FF90EF90DF90CF90089573
:102FE000EF92FF920F937C01DC01ED91FC91218126
:102FF0003281438154816581768187819085018505
:103000000E94CD01C7010E94BA090F91FF90EF9075
:1030100008950F931F938C01DC01ED91FC91818148
:10302000928163810E945001C8010E94BA091F91D8
:103030000F9108950F931F938C01DC01ED91FC918A
:10304000818162810E94C833C8010E94BA091F9120
:103050000F9108950F931F938C01DC01ED91FC916A
:10306000818162810E94FA00C8010E94BA091F9101
:103070000F910895CF92DF92EF920F93DF93CF934A
:10308000CDB7DEB766970FB6F894DEBF0FBECDBFE3
:103090006C01DC01ED91FC918181898382819381B6
:1030A0009B838A839E012C5F3F4FAF014C5F5F4F34
:1030B00088E0DA010D90AD01D9010D929D0181509A
:1030C000C1F784858C87858596859E878D879E012F
:1030D000215F3F4FAF01415F5F4F88E0DA010D9004
:1030E000AD01D9010D929D018150C1F7228D338D23
:1030F000CE010196BE01645F7F4F418D0789E08C50
:103100000E941801C6010E94BA0966960FB6F8948B
:10311000DEBF0FBECDBFCF91DF910F91EF90DF905B
:10312000CF900895FC011082618172816115710553
:1031300021F086ED96E00E94EF090895282F8091F6
:1031400005079091060796FF1BC0222359F4209192
:10315000F8063091F9068091580690915906281783
:10316000390759F02091F8063091F9068091D4067C
:103170009091D5062817390719F48EEE0E94F52F85
:1031800008950F931F93CF93DF93282F8091050706
:103190009091060796FFA3C0222359F42091F806C8
:1031A0003091F906809158069091590628173907F1
:1031B00061F02091F8063091F9068091D406909143
:1031C000D5062817390709F08AC02091FA063091F0
:1031D000FB068091D1069091D2062817390709F491
:1031E0007EC09091FA068091DF06981759F590916C
:1031F000FB068091E006981729F59091FC068091D6
:10320000E1069817F9F49091FD068091E20698176F
:10321000C9F49091FE068091E306981799F4909175
:10322000FF068091E406981769F490910007809159
:10323000E506981739F4909101078091E6069817F2
:1032400009F44DC08AE90E94C2098C01009709F473
:1032500046C0DC012D913C9185E0F9018083128309
:103260000183E956FF4F8083AF0148505040FA0177
:10327000ADE4B6E088E00D9001928150E1F7FA01EB
:103280003897EF01AFEDB6E088E00D9009928150DC
:10329000E1F780915806909159069293829380911C
:1032A000960682938F5F8093960683E69CEC9293BA
:1032B000829388E18293D9011896FC93EE93179735
:1032C000C90162E070E041E00E94160E882321F4FB
:1032D00081E080930F0703C0C8010E94BA09DF9103
:1032E000CF911F910F9108950F931F93CF93DF9369
:1032F000EC01E881F981A781B0857C917093EA06A1
:10330000FD01E70FF11D81818093030711964D9117
:103310005C9112975093E8064093E70613968C91C0
:1033200013978093EB068D010C5F1F4F652F6295FD
:10333000669566956370352F36953695337019F41A
:10334000F80120E049C014968D919C9115979093B7
:10335000EE068093ED06FD0136963230E1F41092D0
:10336000EF061092F0061092F1061092F2061092FB
:10337000F3061092F4061092F5061092F6061696D1
:103380008D919C9117979093F0068093EF06FD0125
:10339000389624E021C0333011F022E01DC016968B
:1033A0008C9116978093EF0681818093F00682813D
:1033B0008093F10683818093F20684818093F306E3
:1033C00085818093F40686818093F50687818093BA
:1033D000F606FD013E962AE0662309F447C046FD45
:1033E00008C0819191919093F9068093F8062E5F21
:1033F00008C08091ED069091EE069093F9068093B7
:10340000F8066230C1F41092FA061092FB06109290
:10341000FC061092FD061092FE061092FF06109216
:10342000000710920107808191819093FB068093A1
:10343000FA062E5F1BC06330C9F480818093FA06C0
:1034400081818093FB0682818093FC068381809337
:10345000FD0684818093FE0685818093FF06868128
:1034600080930007878180930107285F972F9550ED
:10347000921B909304076093F7063093EC0643FD8C
:10348000CEC1D801A20FB11D842F87708093E906A9
:10349000833021F48C918093020763C0813009F45A
:1034A00051C0813020F0833009F0B9C15AC08D91EC
:1034B0009C911197909306078093050712968C9123
:1034C000129780930707877011F493E002C0982F3A
:1034D0009C5FFD01E90FF11D808180930807292F72
:1034E0002F5F382F377090E08077907044E095958B
:1034F00087954A95E1F7482F332311F4882389F003
:10350000CD01820F911D90930A0780930907332301
:1035100011F0330F230F442321F0440F440F440FC5
:10352000240F80910407281750F4821B80930B0707
:10353000A20FB11DB0930D07A0930C0774C1109298
:103540000B0771C1992351F0963718F086E78093E5
:103550000407B0930607A093050765C110920407FE
:1035600062C1809102078330E1F0843030F4813011
:10357000C1F0823009F053C107C0883008F453C14C
:10358000883009F04CC112C011968D919C91129710
:10359000909306078093050713968C9180930707F5
:1035A00042C111968C91809305073DC111968D9172
:1035B0009C911297909306078093050713968D911F
:1035C0009C911497909308078093070715968C9108
:1035D00015978093090716968D919C911797909354
:1035E0000B0780930A0754FF1EC118968C91809395
:1035F0000C0719C18091E906833061F480910207BC
:10360000843011F0873031F486ED96E0BE010E94DF
:10361000EF090FC180918A06813009F4EBC0813037
:1036200020F0843008F0FBC0A3C08091930688236B
:1036300009F06AC090910E07933080F1933009F041
:10364000EEC08091E906813009F4E5C0813010F1C7
:10365000833009F0E4C080910207843009F4AFC0E0
:10366000853038F4813009F4A0C0833009F0D7C028
:1036700009C0863009F4AEC0863040F0873009F0CA
:10368000CEC0B0C0CE010E94DF1ED3C08EEE0E941D
:10369000F52FC5C080E00E949E18C1C08091E90648
:1036A000813009F4B8C0813020F0833009F0B7C010
:1036B0000CC080911107882309F4B1C0992309F443
:1036C000AEC080E00E94C118AAC080910207843079
:1036D00009F475C0853038F4813009F466C0833050
:1036E00009F09DC004C0873009F05AC009C0CE015E
:1036F0000E94DF1E80910E07813009F09AC05CC0E5
:10370000923009F08CC06EC0833009F1843019F01A
:10371000823009F084C08091E906882309F07FC0D7
:1037200080910E07833019F481E00E949E188091E9
:103730001107882341F080910E078150823018F4E0
:1037400081E00E94C118CE010E94882872C0809139
:10375000E906833009F063C080910207883009F0E0
:103760005EC082E00E948B06CE010E94722C61C076
:103770000E94F3278091E906813009F44CC0833020
:1037800009F04DC0809102078430C9F0853030F4D3
:10379000813059F0833009F042C00BC08730F1F01E
:1037A000883021F18630D9F515C0CE010E94BF12B4
:1037B00040C0CE010E94DF1E0E94DB243AC08091EF
:1037C0007D06882321F0CE010E94981D32C00E9400
:1037D0007A1C25C0CE010E943B252BC080910E078C
:1037E0008230E9F4CE010E94891623C0CE010E94E6
:1037F0003A301FC08091E906833059F48091020766
:10380000823069F480E00E948B06CE010E94821310
:1038100010C0813021F4CE010E9429210AC0CE01BE
:103820000E94BA0906C080910F07882309F0E2CEF2
:10383000F1CEDF91CF911F910F910895DB01FC0133
:103840008681882399F40780F085E02D8281869512
:1038500086958370823051F440E02D913C918681B1
:1038600097812817390719F441E001C040E0842FFF
:103870000895DB01FC0186818823C9F50780F08566
:10388000E02D8281869586958370833081F520E0D6
:103890009C918681981761F511969C91119787816B
:1038A000981731F512969C9112978085981701F51B
:1038B00013969C91139781859817D1F414969C9137
:1038C000149782859817A1F415969C911597838576
:1038D000981771F416969C9116978485981741F461
:1038E00017969C918585981719F421E001C020E076
:1038F000822F08950F931F93CF93DF938AE90E943D
:10390000C2098C01009709F44BC0DC01CD91DC9118
:103910008CE088831A8309831E82FE01E856FF4FDC
:103920008091F706833089F438979F014AEF56E07B
:1039300088E0DA010D90AD01D9010D929D01815011
:10394000C1F721E03CE04FE009C08091FA06909178
:10395000FB069293829321E038E049E08091F806DB
:103960009091F906929382938091960682938F5F4D
:1039700080939606329322934293F887EF83F8015F
:103980008081918161E070E040E00E94160E882302
:1039900021F481E080930F0703C0C8010E94BA0997
:1039A000DF91CF911F910F9108956F927F929F9217
:1039B000AF92BF92CF92DF92EF92FF920F931F933D
:1039C000CF93DF93D82E962EC42E590138018AE961
:1039D0000E94C2097C01009709F49BC0DC010D9193
:1039E0001C91DD2021F084E0F801808303C08BE08E
:1039F000D8018C93F801F282E182E956FF4F84E00E
:103A0000808320915B0630915C06C9010296029783
:103A100010F0992069F03897EF01ADE4B6E088E046
:103A20000D9009928150E1F762E183E290EC05C0CC
:103A3000329322936CE083E290E8CC2061F02091F5
:103A40005806309159066216730629F06E5F32935C
:103A5000229370E002C0806471E022E0C21641F45B
:103A6000AC015860D5018D919C919293829328C0AE
:103A7000B3E0CB1661F4AC015C6038976A5FEF018C
:103A8000D50188E00D9009928150E1F719C020918D
:103A9000D1063091D2064FEF2E3F340729F0AC010A
:103AA0005860329322930CC0AC015C6038976A5F17
:103AB000EF01AFEDB6E088E00D9009928150E1F79B
:103AC0003297772339F08091580690915906918367
:103AD000808302C0718260828091960682938F5F9C
:103AE00080939606529342936293D8011896FC9362
:103AF000EE931797C80162E070E041E00E94160E55
:103B0000882321F481E080930F0704C0C7010E943D
:103B1000BA0980E0DF91CF911F910F91FF90EF9054
:103B2000DF90CF90BF90AF909F907F906F9008955F
:103B3000EF92FF920F931F93DF93CF9300D000D0AB
:103B4000CDB7DEB70E94BA0980910E07823008F423
:103B500053C08091F706823019F48EE19CE105C0D4
:103B6000833009F049C089E39CE19A8389838AEF15
:103B700096E09C838B8389E796E07E010894E11CA4
:103B8000F11CB7010E948A0ADC01009781F00D91B7
:103B90001C911197F801878190852091F80630914A
:103BA000F906FC01848195812817390719F00E94D4
:103BB0007A1C22C081E0F8018683B283A18389E761
:103BC00096E0B7010E948A0A892B41F0D801179626
:103BD000ED91FC911897818180618183C80161E03A
:103BE00070E040E00E94160E882321F481E080936B
:103BF0000F0702C0F80116820F900F900F900F90E0
:103C0000CF91DF911F910F91FF90EF900895EF9268
:103C1000FF920F931F93CF93DF937C01E801DC01A8
:103C2000ED91FC9186E18083618342833483238319
:103C3000CF010596423069F41582168217821086EC
:103C400011861286138614868881998196838583CE
:103C500007C0DC01F80188E001900D928150E1F786
:103C600082E197E0B7010E94EF09DF91CF911F91A8
:103C70000F91FF90EF9008950F931F93DF93CF93D1
:103C8000CDB7DEB728970FB6F894DEBF0FBECDBF15
:103C9000DC01ED91FC91119719821A821B821C8222
:103CA0001D821E821F8218860780F085E02D4281CA
:103CB000469546954370842F8250823080F48681E9
:103CC000898387818A8380858B8381858C838285A4
:103CD0008D8383858E8384858F8385858887809176
:103CE0000E07833049F420915806309159068E0111
:103CF0000F5F1F4FCD0156C0823009F03FC04230E8
:103D000051F4268137818091D1069091D2062817EF
:103D1000390759F533C0433041F596818091DF066C
:103D2000981719F597818091E0069817F1F490851E
:103D30008091E1069817C9F491858091E206981761
:103D4000A1F492858091E306981779F49385809188
:103D5000E406981751F494858091E506981729F4A4
:103D600095858091E606981749F020915806309184
:103D70005906CD018E010F5F1F4F14C080915B0665
:103D800090915C0602962091580630915906029750
:103D900028F4CD0143E00DE416E004C0CD0142E07B
:103DA0000BE516E00E94071E28960FB6F894DEBFBA
:103DB0000FBECDBFCF91DF911F910F910895CF938B
:103DC000DF939C01FC01C081D181FE0185E18193DB
:103DD000AAEFB6E088E00D9001928150E1F7809162
:103DE0000507898782E197E0B9010E94EF091092E7
:103DF000DF061092E0061092E1061092E2061092A1
:103E0000E3061092E4061092E5061092E6068FEFA4
:103E10009FEF9093D2068093D106DF91CF910895C2
:103E2000EF92FF920F931F93DF93CF93CDB7DEB73F
:103E30002E970FB6F894DEBF0FBECDBF8C01DC010C
:103E4000ED90FC90DE011196F7018EE001900D924D
:103E50008150E1F7F7011283018383E08083EA5602
:103E6000FF4F80838D85818338979F014DE456E015
:103E700088E0DA010D90AD01D9010D929D018150CC
:103E8000C1F78A81823031F48D819E819293829331
:103E900033E10FC038979F01AE014B5F5F4F88E061
:103EA000DA010D90AD01D9010D929D018150C1F74C
:103EB00039E18091580690915906929382938091AE
:103EC000960682938F5F809396062A81922F990F90
:103ED000990F80E08366906C929382933293D7011E
:103EE0001896FC93EE93179716961C9280910E07E6
:103EF0008250823008F060C08E85882309F45CC04F
:103F00008A818230D1F48D818B3409F041C08E8159
:103F10008823F1F58F818823D9F588858823C1F519
:103F200089858823A9F58A85882391F58B8588233F
:103F300079F58C85882361F55BC0833009F058C022
:103F40009D818091DF06981719F59E818091E0068A
:103F50009817F1F49F818091E1069817C9F498852C
:103F60008091E2069817A1F499858091E30698174D
:103F700079F49A858091E406981751F49B85809195
:103F8000E506981729F49C858091E606981781F13B
:103F900089E796E0B8010E94EF0980919806909118
:103FA0009906F7019583848381E00E948605882322
:103FB000F9F40E940D211CC00E949323D8018D9119
:103FC0009C9162E070E041E00E94160E882321F48B
:103FD00081E080930F070CC02B813C81C80161EE0A
:103FE0004A818E010B5F1F4F0E94071E0E94B8235B
:103FF0002E960FB6F894DEBF0FBECDBFCF91DF91E6
:104000001F910F91FF90EF900895DC01ED91FC91CD
:104010001197E081E43278F4F0E0EE0FFF1FE05DED
:10402000FE4F259134912115310519F0F9010995BB
:1040300008950E94BA0908951F9380910F0788235D
:1040400081F480919206882361F08EE896E060E02A
:1040500070E00E94840A009721F00E94052011E080
:1040600001C010E08091DA06882359F086ED96E0D1
:1040700060E070E00E94840A009719F00E94052019
:1040800011E0812F1F910895FC018681882329F476
:104090008481958101979583848380E00895FC0154
:1040A0008681882311F020E006C020E0848195817C
:1040B000892B09F421E0822F0895FB0120E0DC0127
:1040C00013969C918081981709F421E0822F08951E
:1040D000DC01ED91FC91119780E180834183628343
:1040E00082E197E0BD010E94EF090895EF92FF92EF
:1040F0000F931F93DF93CF9300D000D00F92CDB7D3
:10410000DEB77C01FC0100811181F801918182E11F
:10411000808399838DE590E29B838A83CE0101960B
:104120009D838C8389E796E0BE016E5F7F4F0E947E
:10413000840A009729F00E94BA09F801128203C08C
:1041400087EEF801828382E197E0B7010E94EF09D0
:104150000F900F900F900F900F90CF91DF911F91C4
:104160000F91FF90EF900895FF920F931F93DF93AD
:10417000CF9300D000D0CDB7DEB784E490E29A832D
:10418000898389E796E08E010F5F1F4FB8010E9477
:104190008A0A8FE490E29A838983F02E012F10E13E
:1041A00089E796E06F2D702F0E94840ADC0100974A
:1041B00021F19C9111962C911197E92FF22F80817A
:1041C000833049F08D3061F0823051F780EFBD01CE
:1041D0000E94C323E5CFCD0160EF0E943C1EE0CFDB
:1041E0008381E92FF22F1083818380EF828382E124
:1041F00097E0BD010E94EF09D3CF80917D0688230F
:1042000011F00E940D210F900F900F900F90CF9101
:10421000DF911F910F91FF900895EF92FF920F93FE
:104220001F9381E040E050EE61E070E020E030E07C
:1042300004EB10E2EE24FF240E949707882321F06C
:1042400080E090E00E94B4201F910F91FF90EF90CA
:1042500008950F931F93DF93CF93CDB7DEB72897C1
:104260000FB6F894DEBF0FBECDBFAC01DC019C9150
:1042700011962C9180910407882321F4CA010E9491
:10428000BA0913C1E92FF22F8091EB06808F20919C
:10429000F70621838091F8069091F9069383828333
:1042A000822F8250823010F5148215821682178276
:1042B0001086118612861386223039F48091FA0610
:1042C0009091FB06958384831BC02330C9F49F0122
:1042D0002C5F3F4F6AEF76E088E0DB010D90BD0177
:1042E000D9010D929D018150C1F70AC0138212823B
:1042F0001482158216821782108611861286138602
:10430000208D80917806281761F594818091800630
:10431000981739F5958180918106981711F5968146
:10432000809182069817E9F4978180918306981707
:10433000C1F4908580918406981799F491858091B5
:104340008506981771F4928580918606981749F42E
:10435000938580918706981721F4CA010E94BA09B3
:104360005AC020937806848180938006858180934B
:10437000810686818093820687818093830680856B
:104380008093840681858093850682858093860646
:104390008385809387062091EC0624871786108AF0
:1043A000118A128A138A148A158A168A8091ED0658
:1043B0009091EE0696878587233079F49F01215FDF
:1043C0003F4F6FEE76E088E0DB010D90BD01D90133
:1043D0000D929D018150C1F70BC0223039F48091BC
:1043E000EF069091F006908B878702C0168615869F
:1043F00080910307878B80910407818F8091050747
:1044000090910607938F828F81E1808382E197E00C
:10441000BA010E94EF098091E70684FF46C08091AF
:104420000E07833009F443C08091F706823071F49F
:104430008091FA069091FB069A8389830091F80691
:104440001091F90680E060E042E021C0833019F568
:104450008091FA0689838091FB068A838091FC060D
:104460008B838091FD068C838091FE068D838091E5
:10447000FF068E83809100078F83809101078887D4
:104480000091F8061091F90680E060E043E09E019B
:104490002F5F3F4F07C080E060E040E020E030E069
:1044A00000E010E00E94D51C02C00E94B8232896AC
:1044B0000FB6F894DEBF0FBECDBFCF91DF911F9135
:1044C0000F910895CF92DF92EF92FF920F931F9377
:1044D000DF93CF93CDB7DEB762970FB6F894DEBF08
:1044E0000FBECDBF8C01DE011196FC018081918150
:1044F0009C01F90182E101900D928150E1F78F85D5
:1045000082FD11C080918A06882321F48091930650
:10451000882349F09E85D801ED91FC9180E180834C
:10452000918381EEAEC0F801E080F1808DE0D7018B
:104530008C938E8513968C93139716961C9288896C
:1045400045E0D42ED80EE8E9F0E0E81BF109EE0DC5
:10455000FF1D9A81923051F437E0D32ED80E80910E
:104560005B0690915C069293829312C0933081F423
:1045700038972DE0D22ED80E9F014DE456E088E00A
:10458000DA010D90AD01D9010D929D018150C1F765
:1045900020915806309159068C819D812817390742
:1045A00049F48A81882331F08B81882319F040E413
:1045B00050E009C08A81882321F0B2E0DB0E3293FB
:1045C000229340E050E08B81882311F1823039F44E
:1045D0006D2D6E5F8E819F819293829312C038976A
:1045E0006D2D685F9F0196E0C92ED12CCC0EDD1E8B
:1045F00088E0D6010D906D01D9010D929D01815089
:10460000C1F782E0D82ED60E8C819D819293829341
:104610008091960682938F5F80939606BA016160BF
:104620008F8580FF02C0BA0161628889873608F0F1
:1046300070618B81382F330F330F20E04A81942F24
:104640009295990F990F907C80E0282B392B262B7F
:10465000372B329322933296D7FC0BC03397D082FC
:10466000D7011896FC93EE9317978F8582FD10C0A3
:1046700028C09E85D801ED91FC9180E180839183D3
:1046800085EE828382E197E0B8010E94EF093CC089
:1046900080910E0782508230A0F489E796E0B8013D
:1046A0000E94EF098091980690919906F7019583F1
:1046B000848381E00E948605882331F50E940D21C4
:1046C00023C00E949323D70112961C930E93119737
:1046D000C70162E070E041E00E94160E882321F4D9
:1046E00081E080930F0710C09E85D801ED91FC9169
:1046F00080E18083918381EE828382E197E0B8013B
:104700000E94EF090E94B82362960FB6F894DEBFAC
:104710000FBECDBFCF91DF911F910F91FF90EF9012
:10472000DF90CF90089580911007813051F40E945E
:104730007212853831F081E090E00E9422051092DB
:104740001007089580911007882389F480E090E095
:104750000E94220580E00E948112882321F481E0DA
:1047600080931007089581E090E00E94220508954B
:1047700080917E06882331F48091D306882311F43A
:104780000E94A2230895DF93CF93CDB7DEB7289779
:104790000FB6F894DEBF0FBECDBF482F9B01DB01E3
:1047A000ED91FC910780F085E02DDE0111963696A3
:1047B00088E001900D928150E1F7D901ED91FC91D3
:1047C0008CE1808380915806909159069283818371
:1047D00093E0938380914D06848380914E06858378
:1047E00080914F0686838091500687838091510681
:1047F00080878091520681878091530682878091BD
:10480000540683879487898185878A8186878B81EF
:1048100087878C81808B8D81818B8E81828B8F812C
:10482000838B8885848B458B82E197E0B9010E9458
:10483000EF0928960FB6F894DEBF0FBECDBFCF911B
:10484000DF9108950F931F93182F10920F07109266
:104850000E07109210071092930610929506109270
:104860008A06109278068FEF8093800680938106E7
:1048700080938206809383068093840680938506C6
:1048800080938606809387061092D30688E00E9464
:104890009F120FB7F89480E00E948B0681E00E947F
:1048A0008B0682E00E948B0683E00E948B060FBF7E
:1048B000112309F440C01092110782EC97E0909305
:1048C0008D0680938C0680E098E79093DC068093B9
:1048D000DB061092890610927706109297060E94C6
:1048E00040348093940684EF91E0909399068093EE
:1048F000980681E080938B0686E080937F06109275
:10490000DF061092E0061092E1061092E206109285
:10491000E3061092E4061092E5061092E6068FEF89
:104920009FEF9093D2068093D1060E9440348093EB
:10493000960610927E061F910F9108950F931F9374
:10494000CF93DF93EC01088119810E949323F80132
:10495000018180E090E00E94220580E0011181E069
:104960000E943F11182F81E090E00E942205802FC5
:104970000E9422240E94B8238EE896E00E94900AAA
:1049800086ED96E00E94900A82E197E00E94900AEC
:1049900089E796E00E94900AE881F981118380E21C
:1049A000808382E197E0BE010E94EF09DF91CF9101
:1049B0001F910F910895DF93CF9300D000D0CDB712
:1049C000DEB70E9493238FEF9FEF9A8389839C83A6
:1049D0008B8383E5BE016F5F7F4F0E94702580E56A
:1049E000BE016D5F7F4F0E94702581E00E942224EE
:1049F0000E94B8230F900F900F900F90CF91DF91EE
:104A000008950E9471118823B9F40E9456098823E1
:104A100099F081E00E9422240E94B8238EE896E05B
:104A20000E94E80986ED96E00E94E80989E796E091
:104A30000E94E80980E0089585E80895FF920F93A9
:104A40001F93182FF92E409158065091590689E06E
:104A5000612F792F20916506009157060E946F30D3
:104A6000882329F481EE612F7F2D0E94C3231F919B
:104A70000F91FF900895CF93DF93EC01E881F981C6
:104A80008AE18193AAEFB6E088E00D90019281500F
:104A9000E1F782E197E0BE010E94EF09DF91CF913B
:104AA0000895E82F853419F4809197060895883089
:104AB00030F4E82FF0E0E858FE4F849108958054D8
:104AC000803228F4F0E0E05CFE4F84910895E03FEE
:104AD00010F480E00895F0E0E055FF4F84910895D0
:104AE0001F93CF93DF93182FEB0180911007813034
:104AF00051F40E949323812FBE010E94D20F182FE0
:104B00000E94B82304C0812F0E94D20F182F812F3A
:104B1000DF91CF911F9108950F931F93CF93DF9350
:104B20008C01FC01C081D181BE016D5F7F4F898105
:104B30008B3409F4A4C08C3478F5863009F475C040
:104B4000873098F4823009F4D0C0833038F4882359
:104B500009F4BBC0813009F048C0BAC0843009F400
:104B60005CC0853008F05CC0C3C0853409F469C0FE
:104B7000863448F4813409F461C0823409F45BC09E
:104B8000873099F555C0893409F468C08A3408F033
:104B90006DC0863451F55FC0853509F462C0863535
:104BA000A0F48F3409F476C0803530F48C3409F4E5
:104BB0006BC08E34D1F46BC0823509F473C0833579
:104BC00009F473C0803589F468C08935D9F08A3515
:104BD00028F4873579F0883580F409C08D35D1F017
:104BE000803F09F469C08A3581F094EF85C08091D7
:104BF000110780C0809167067DC080918C069091DE
:104C00008D0657C080916B0675C08091DB06909130
:104C1000DC064FC0809189066DC0809157066AC03E
:104C2000809155069091560644C080916D0662C0F1
:104C3000809164065FC080918B065CC0809177068E
:104C400059C0409197062DE936E0CB01B90150E0FB
:104C50000E94503450C0809197064CC080919406B9
:104C600049C0809198069091990623C0DB01EFED31
:104C7000F6E088E001900D928150E1F73CC0809110
:104C8000D1069091D20615C08091960633C08091CE
:104C9000630630C080916A062DC0809158069091BD
:104CA000590607C080917E0625C080915B069091D1
:104CB0005C069C838B831FC0DB01EDE4F6E088E09B
:104CC00001900D928150E1F716C08091650612C0E7
:104CD0008091710690917206A0917306B09174064E
:104CE0008B839C83AD83BE8306C080914C0602C03B
:104CF00080915A068B8390E089818A838EE1888334
:104D0000998382E197E0B8010E94EF09DF91CF918A
:104D10001F910F910895FF920F931F93CF93DF93ED
:104D2000182FEB01F42E8B3409F49BC08C3440F522
:104D3000833409F4B1C0843478F4853038F4823097
:104D400008F0AAC0882309F4A7C03EC0813409F442
:104D500053C08234C9F548C0863409F45AC0873438
:104D600030F4843409F444C0853471F549C0893481
:104D700009F453C08A3408F05BC0873429F58CC02D
:104D8000853509F44EC0863570F4813530F48E34A3
:104D900008F082C08C34C1F46BC0823509F46CC059
:104DA000823590F079C08835A9F0893528F48635A8
:104DB00069F0873549F470C08A3579F08A3508F48E
:104DC0006BC0803F09F468C004EFC7C0888180933E
:104DD0001107C2C088819981BBC088819981909355
:104DE000DC068093DB06B8C0888180938B06B4C054
:104DF000888180937F06B0C0888180937706ACC09D
:104E00002DE936E040919706C90150E00E945034E8
:104E1000A3C08881809397069FC088818093940661
:104E20009BC088819981909399068093980694C03D
:104E300088818093DF0689818093E0068A81809350
:104E4000E1068B818093E2068C818093E3068D815D
:104E50008093E4068E818093E5068F818093E60639
:104E60007BC0888199819093D2068093D10674C0CB
:104E700088818093960670C06881611161E06093BB
:104E80007E06662331F00E94932386E00E949F12E3
:104E900063C00E94B82360C0812FBE010E94D20F60
:104EA000082F813871F40E947212812FBE010E9476
:104EB000D20F082F882309F050C081E08093F805B5
:104EC00003C0882309F049C080916306282F30E091
:104ED00080916706482F50E060916A06CA01861BE0
:104EE0009109281739070CF4C901A82F281B31098B
:104EF00081E090E002C0880F991F4A95E2F7019780
:104F0000289FA001299F500D389F500D112420E0AB
:104F100030E070E0E1E0F0E00DC0C901860F971FBE
:104F2000EF0102C0CC0FDD1F8A95E2F74C0F5D1F29
:104F30002F5F3F4F2A1788F384E190E09C01429F46
:104F4000C001439F900D529F900D1124865F9E4F8C
:104F500090938D0680938C0600E0FF2049F08091AD
:104F6000F805882329F080E00E9481121092F8054C
:104F7000802FDF91CF911F910F91FF900895EF92B5
:104F8000FF920F931F937C01FC0100811181B801F6
:104F90006E5F7F4FF801818141E00E948B26F8010E
:104FA000918192839FE19083818382E197E0B701B1
:104FB0000E94EF091F910F91FF90EF900895CF93FA
:104FC000DF93EC01E881F98183E2808361836623CA
:104FD00011F00E94B82382E197E0BE010E94EF0920
:104FE000DF91CF9108958091E9068823E1F080E078
:104FF0000E948B068091E906813031F4809104078C
:10500000882311F060E001C06BEE80918A06823047
:1050100031F480919B0690919C060E94DF271092AC
:105020000F0710928A06089580918A06823039F41B
:1050300080919B0690919C066BEE0E94DF27109258
:105040008A0610920F070895CF92DF92EF92FF9297
:105050000F931F93DF93CF93CDB7DEB728970FB68B
:10506000F894DEBF0FBECDBFD82EC92E80918A0620
:105070008823D1F580910E078330B1F1809193069A
:10508000882391F50E949323ED2CFC2CD701ED9100
:10509000FC9181819F012C5F3F4F823031F48481EC
:1050A00095819A83898342E00DC0AE014F5F5F4FC7
:1050B00088E0D9010D909D01DA010D92AD0181507A
:1050C000C1F743E00281138181E060E09E012F5F20
:1050D0003F4F0E94D51C882329F0D0929B06C09296
:1050E0009C0607C0C70102C08D2D9C2D61EE0E9459
:1050F000DF2728960FB6F894DEBF0FBECDBFCF9145
:10510000DF911F910F91FF90EF90DF90CF90089566
:105110005F926F927F928F929F92AF92BF92CF9247
:10512000DF92EF92FF920F931F93DF93CF93CDB750
:10513000DEB761970FB6F894DEBF0FBECDBFBC01DE
:1051400040919306423011F0443069F480918B060F
:10515000882349F0E0919B06F0919C0620813181E3
:10516000D901199604C020E030E0A0E0B0E05091F1
:10517000F70659830091F8061091F9061B830A83FC
:10518000523069F41E821F82188619861A861B8681
:105190008091FA069091FB069D838C8318C08091C4
:1051A000FA068C838091FB068D838091FC068E83AA
:1051B0008091FD068F838091FE0688878091FF068F
:1051C0008987809100078A87809101078B8790905B
:1051D00065069C86B0905706BD8680910507909124
:1051E00006079F878E87188A8091070787FF02C06E
:1051F00081E0888B80910307898B423019F044301D
:1052000009F06FC080918B06882309F46AC0F90108
:10521000F084EC81FD815C806D807E808F80A8842D
:10522000C984DA84EB8440E049C011968D919C9149
:1052300012970817190709F03FC08C915817E1F52C
:105240001B968C911B979816B9F51C968C911C9700
:10525000B81691F5523041F413968D919C911497A4
:10526000E817F90749F53DC013968C9113978515FA
:1052700019F514968C9114978615F1F415968C9166
:1052800015978715C9F416968C9116978815A1F471
:1052900017968C9117978A1579F418968C91189710
:1052A0008C1551F419968C9119978D1529F41A962D
:1052B0008C911A978E15A9F04F5F51964F1508F4EF
:1052C000B4CF59C0FD01DE01119681E10D9001922C
:1052D0008150E1F7D90118968C9118978F5F189635
:1052E0008C939091080780910B07882321F480917B
:1052F0008B068823E1F5DB01ED91FC9187E180834A
:105300008091EB0681839F012E5F3F4FAE014F5F7F
:105310005F4F81E1DA010D90AD01D9010D929D0140
:105320008150C1F780910807838B892F877059F4CA
:10533000892F90E08077907024E0959587952A9545
:10534000E1F7882331F08091090790910A07958B46
:10535000848B80910B07868B80910C0790910D07B1
:10536000908F878B82E197E00E94EF0909C0CB0103
:105370000E94BA0905C0E4E0EF1508F4B2CFA2CF4D
:1053800061960FB6F894DEBF0FBECDBFCF91DF910F
:105390001F910F91FF90EF90DF90CF90BF90AF9053
:1053A0009F908F907F906F905F900895FB0140E0F9
:1053B000208131812817390709F441E0842F0895AD
:1053C000EF92FF920F931F93DF93CF9300D000D003
:1053D000CDB7DEB7F82E8B0110920F0780919306A0
:1053E000823029F4FB018081873059F406C0833074
:1053F00041F4FB018081863021F48F2D0E94D22E52
:105400002CC1F8018081883009F419C1893098F4E1
:10541000833009F445C0843038F4813009F468C021
:10542000823009F018C1E4C0843009F490C085309E
:1054300009F011C1FBC08B3009F489C08C3038F4FD
:10544000893009F4ECC08A3009F005C1FFC08C3006
:1054500009F4FCC08D3009F0FEC0F8018681882374
:10546000B9F01682FF2021F0F7E8FF1609F0F3C02B
:1054700086ED99E29A838983F801818192819C83E8
:105480008B8389E796E0BE016F5F7F4F0E94840A9D
:10549000F801818192816F2D43810E946820DBC0D9
:1054A000F80186818823B1F01682FF2019F0F7E811
:1054B000FF16B1F486ED99E29A838983F801818120
:1054C00092819C838B8389E796E0BE016F5F7F4F5B
:1054D0000E94840AF801818192816F2D0E943C1EF6
:1054E00080910E07813009F0B6C00E94DB24B3C062
:1054F000F9EEFF1619F091EEF91649F4F8018181E1
:1055000092816F2D4FEF5FEF0E94EB12A4C080934A
:105510008A064091DB065091DC0660E070E094E082
:10552000440F551F661F771F9A95D1F780E020E042
:1055300030E00CE313E1EE24FF240E949707882358
:1055400009F48BC080E090E00E943C1386C0F80113
:10555000818192810E94BA0980918A06813009F482
:105560007CC0F80180818430C1F4F7E8FF1699F01F
:10557000E0919B06F0919C060190F081E02D83E282
:105580008083F18260919B0670919C0682E197E096
:105590000E94EF0960C082E009C089EEF81609F4A4
:1055A0005AC091EEF91609F456C083E080938A063A
:1055B00040918C0650918D0660E070E084E0440FCD
:1055C000551F661F771F8A95D1F780E020E030E0F5
:1055D00004E118E2EE24FF240E94970791E09093E3
:1055E0000F078823D1F180E090E00E94142835C095
:1055F000F8011682FF2019F0F7E8FF1661F586ED35
:1056000099E29A838983F801818192819C838B83BB
:1056100089E796E0BE016F5F7F4F0E94840AF80120
:10562000618172818F2D0E94C32315C0F801818191
:1056300092810E94BA098EEE0E94F52F0CC0F801EB
:10564000618172818F2D0E942D2F05C0F80181810B
:1056500092810E94BA090E94B8230F900F900F9078
:105660000F90CF91DF911F910F91FF90EF900895D0
:10567000EF92FF920F931F931092D30680917E06B4
:105680008823C9F4809110078823A9F488E00E9438
:105690009F12883071F083E040E850E060E070E0F5
:1056A00020E030E008E31BE2EE24FF240E9497078D
:1056B00002C00E94B8231F910F91FF90EF900895B0
:1056C000DF92EF92FF920F931F93CF93DF93EC0142
:1056D000E881F981E680F78000851185E114F10405
:1056E0000105110539F480E090E00E94382BE88133
:1056F000F98147C080918A068823F1F5809193064D
:105700008823D1F50E94932386E00E949F12D82E11
:1057100081E08093D30683E00E948605882319F0F8
:1057200083E00E948B0684E0EE0CFF1C001F111F1B
:105730008A95D1F783E0B801A70120E030E008E3C3
:105740001BE2EE24FF240E949707882381F0E88162
:10575000F98181E2808388EE818382E197E0BE0156
:105760000E94EF0980E090E00E94382B12C0E8818F
:10577000F98186E0D81629F081E2808382EF818367
:1057800003C081E28083118282E197E0BE010E9422
:10579000EF09DF91CF911F910F91FF90EF90DF9074
:1057A0000895BC0182E197E00E94EF09809188068C
:1057B0008093FF0584E06FEF75E00E947025809173
:1057C0009A068093FE0580E06EEF75E00E947025DA
:1057D000109293060E94B8230895CF93DF93E0912F
:1057E000DD06F091DE06C081D181DE01A956BF4FF2
:1057F000FA83E983882339F087E088838C9323E058
:1058000038E04AE013C086E088838C9318979D01A6
:105810004DE456E088E0FA010190AF01F9010192F0
:105820009F018150C1F723E438EC42E1FD018FEF85
:105830009FEF929382933297918380831597809103
:1058400096068C938F5F809396063E932E93FD0170
:105850004293F887EF83CE0162E070E040E00E945F
:10586000160E882311F080E003C081E080930F07BB
:10587000DF91CF9108951F93DF93CF930F92CDB710
:10588000DEB710919306123069F01330A1F0113099
:1058900021F58823E9F410930F07809100060E94F8
:1058A000AA0E1BC08823A1F481E00E94ED2B88235F
:1058B000A1F4198308C0882359F40E94ED2B882392
:1058C00061F482E08983CE0101960E947F2D05C09C
:1058D0008091FE058F5F8093FE050F90CF91DF9141
:1058E0001F9108950F931F938C018091DD06909175
:1058F000DE060E94BA091092DE061092DD06A09123
:105900009B06B0919C06ED91FC9111978BE18083F1
:10591000118283E082831482158216821782108698
:1059200082E197E0BD010E94EF09109293060E9468
:10593000B823C8010E94BA0980E565E077E00E94BB
:10594000702580910A0790910B078F5F9F4F29F078
:1059500083E56AE077E00E947025809107079091C7
:1059600008079093D2068093D1068091E706909124
:10597000E80694FF05C084E06CE077E00E947025A3
:1059800080E069E077E00E9470250E943B2C1F9127
:105990000F910895EF92FF921F93CF93DF93182FEB
:1059A0007B01FB01C081D18184E06FEF75E00E9433
:1059B00070254091930650918B062091FE0551C0B1
:1059C000423011F0443031F4552321F08885853080
:1059D00008F04AC0133021F48885882309F072C08A
:1059E000322F3F5F8C819D81AE81BF81022E04C02A
:1059F000B695A795979587950A94D2F78170907080
:105A0000892B71F12093FE05113021F482E08093FF
:105A1000930604C0133011F41093930680E06EEFE8
:105A200075E00E947025182F8823B1F08091DD0663
:105A30009091DE060E94BA091092DE061092DD06F1
:105A40000E94B8238AEE8983188682E197E0B70125
:105A50000E94EF0910929306812F0E943B2C49C0AF
:105A6000232F2B3108F4ACCF2093FE05113039F0F1
:105A7000113018F01330E9F527C0198237C0809132
:105A8000DD069091DE060E94BA091092DE061092A1
:105A9000DD0680918B06882339F08885853010F0EB
:105AA0008AEF05C0882311F0198202C08AEE89832B
:105AB00080E564ED76E00E94702580919B069091D0
:105AC0009C0615C02093FE058091DD069091DE06B0
:105AD0000E94BA091092DE061092DD06888588239E
