:100000000C94D1000C94F0000C94F0000C94F000CF
:100010000C94F0000C94F0000C94101E0C94F00062
:100020000C94F0000C94F0000C94F0000C94F00090
:100030000C94F0000C94F0000C94F0000C94F00080
:100040000C94F0000C94F0000C94F0000C94F00070
:100050000C94F0000C94F0000C94F0000C94F00060
:100060000C94F0000C947B170C94F0000C94A717E0
:100070000C94F0000C94F0000C94F0000C94F00040
:100080000C94F0000C94F0000C94F0000C94F00030
:100090000C94F0000C94F0000C94F0000C94F00020
:1000A0000C94F0000C94F0000C94F0000C94F00010
:1000B0000C94F0000C94F0000C94F0000C94F00000
:1000C0000C94F0000C94F0000C94F0000C94F000F0
:1000D0000C94F0000C94F0000C94F0000C94F000E0
:1000E0000C94F0000C94BC180C94C6180C94911845
:1000F0000C9431180C945C180C94D0180C940618BD
:100100000C9487180C94A21D0C94CB1D0C94F00039
:100110000C94F0000C94F0000C94E4180C94DA1891
:1001200004030302020100FFFEFDFCFBF9F7F4EFFC
:10013000D42E722797282F389D39DF33043E8F3B0A
:10014000AC3BFF3A1F42AD4400001C46783E000025
:10015000262CC02B382C552C462C122DD82C6C2C30
:10016000000000003A2D752D882CB22D292D972DD9
:100170005B2D682DA52D4E2D010401010102010109
:100180000101010101010101040108020101010154
:100190000201010201020101020102020101010149
:1001A000080011241FBECFEFD1E4DEBFCDBF1DE09C
:1001B000A0E0B2E0E6EDFCEB00E00BBF02C0079070
:1001C0000D92A03DB107D9F729E1A0EDBDE001C036
:1001D0001D92A93AB207E1F70E940F540C94695E90
:1001E0000C940000EF92FF920F931F9362E080E067
:1001F00090E00E94E91DE12CF12C02EF10E020E0DC
:1002000040E251EA67E070E085E00E94221C1F9105
:100210000F91FF90EF900895EF92FF920F931F932D
:10022000CF93DF9300D0CDB7DEB79091C412811188
:1002300041C0992321F088E295E00E942B5B8091D8
:100240007702909178022091C412892B99F422238D
:1002500041F084E395E09F938F930E94135B0F908E
:100260000F9019821A82BE016F5F7F4F83E50E9453
:10027000E9492DC0222341F085E695E09F938F93B5
:100280000E94135B0F900F9001E124E040E058EFD3
:100290006FEF77E081E00E945D4AE12CF12C02EFE4
:1002A00010E020E040E251EA67E070E085E00E9463
:1002B000221C0DC0992341F086E895E09F938F930F
:1002C0000E94135B0F900F9081E00E94BB490F903A
:1002D0000F90DF91CF911F910F91FF90EF900895B4
:1002E000CF92DF92EF920F93CF93DF939091C3124F
:1002F0009F5F9093C3129091C4128111E0C0992323
:1003000021F084EA95E00E942B5BE60120E0BBC06F
:100310003B85343109F0B5C04C85413109F0B1C09D
:1003200089819A818E3B9A4509F0ABC08D859E8567
:1003300097FFA7C08091C4128823B1F01F924F93FA
:100340001F923F938AE58F938EEB8F9384EB95E01A
:100350009F938F930E94135B8DB79EB708960FB63D
:10036000F8949EBF0FBE8DBF98818091C4129230C9
:10037000C9F4882381F08091B6128F938091B512D1
:100380008F9381EE95E09F938F930E94135B0F9064
:100390000F900F900F908B819C819093B612809359
:1003A000B51257C0933009F041C0882331F18091D4
:1003B000BE128F938091BD128F938091BC128F9348
:1003C0008091BB128F938091BA128F938091B91252
:1003D0008F938091B8128F938091B7128F9381E0A1
:1003E00096E09F938F930E94135B8DB79EB70A96FA
:1003F0000FB6F8949EBF0FBE8DBF7B816C815D816F
:100400004E813F81288599858A857093B7126093C4
:10041000B8125093B9124093BA123093BB12209382
:10042000BC129093BD128093BE1213C0882341F07A
:1004300086E895E09F938F930E94135B0F900F9037
:1004400081E0DF91CF910F91EF90DF90CF900C94EE
:10045000BB498091C412882341F082E196E09F93CA
:100460008F930E94135B0F900F9020E8AE016C8574
:100470008B85DF91CF910F91EF90DF90CF900C940F
:10048000AB4865962F5F2E1143CF9091C312809198
:10049000C412933058F6882341F08DE296E09F9382
:1004A0008F930E94135B0F900F9001E124E040E0D6
:1004B00058EF6FEF77E081E00E945D4A17C08A3EF7
:1004C00089F4992341F088E696E09F938F930E94E8
:1004D000135B0F900F908091C312833030F38091A3
:1004E000C412A4CF992309F4ABCFA2CFDF91CF914F
:1004F0000F91EF90DF90CF9008958091C412611119
:1005000015C0882321F085EA96E00E942B5B85E0E8
:100510000E946F1B60E080E090E00E94E91D83E094
:1005200090E09093C6128093C5120895882341F0FD
:1005300086E895E09F938F930E94135B0F900F9036
:1005400081E00C94BB490895611110C08091C412E0
:10055000882321F08EEC96E00E942B5B81E0809353
:10056000161761E080E090E00C94E91D0895AF92C9
:10057000CF92EF920F93CF93DF931F92CDB7DEB759
:10058000811143C08091C412633589F4882341F0FE
:1005900086EE96E09F938F930E94135B0F900F90CF
:1005A00081E08983BE016F5F7F4F81E412C06134B7
:1005B00099F4882341F089E297E09F938F930E94FA
:1005C000135B0F900F9081E08983BE016F5F7F4FB7
:1005D00082E50E94E94928C06235B9F4882341F0D8
:1005E0008AE697E09F938F930E94135B0F900F9082
:1005F000A12CC12CEE24E3940FE02FE041E164E153
:100600008EEB9AE50E94954A0FC08091C412882310
:1006100041F086E895E09F938F930E94135B0F90C3
:100620000F9081E00E94BB490F90DF91CF910F9115
:10063000EF90CF90AF9008959091C41281112BC08C
:100640009923D1F01F921F921F9281E18F931F92E5
:1006500084E18F938AE58F938EEB8F9382EA97E004
:100660009F938F930E94135B8DB79EB70A960FB628
:10067000F8949EBF0FBE8DBF85E00E946F1B60E0A7
:1006800080E090E00E94E91D82E090E09093C61225
:100690008093C5120895992341F086E895E09F93D1
:1006A0008F930E94135B0F900F9081E00C94BB49D5
:1006B0002F923F924F925F926F927F928F929F9272
:1006C000AF92BF92CF92DF92EF92FF920F931F9360
:1006D000CF93DF9300D000D01F92CDB7DEB7722E3C
:1006E000632E49835A83562E472E382E292E809109
:1006F000C412882379F13F932F9349815A81832D26
:1007000000E10E947F583F932F93272D362D49817A
:100710005A81652D742D832D922D00E20E947F5801
:100720003F932F93272D362D49815A81652D742DA6
:10073000832D922D00E30E947F583F932F9383E0F7
:1007400098E09F938F930E94135B0FB6F894DEBFDF
:100750000FBECDBF8091C412811108C06FEC862EF0
:1007600062E1962EF4011C821B8271C085E498E040
:100770000E942B5B8FEC92E19C838B83812C912CCC
:100780005AE5A52E58E0B52EAB81BC811296FC919E
:1007900012971396EC9113971496DC901497159674
:1007A000EC9015971696FC90169717961C91179734
:1007B0001896CC9018971996BC91BD83EF93FF9330
:1007C0002F2F3E2F4D2D5E2D6F2D712F8C2D9D8146
:1007D00000E10E947F583F932F932F2F3E2F4D2DE6
:1007E0005E2D6F2D712F8C2D9D8100E20E947F5810
:1007F0003F932F932F2F3E2F4D2D5E2D6F2D712F59
:100800008C2D9D8100E30E947F583F932F93EB81B5
:10081000FC8181818F9380818F939F928F92BF9271
:10082000AF920E94135BFFEF8F1A9F0A2B813C81CE
:10083000265F3F4F3C832B830FB6F894DEBF0FBE7D
:10084000CDBF94E68916910409F09ECF87CF8081B1
:100850009181892B41F122813381448155816681C7
:10086000778180859185A72CB62CC980DA80E52C0C
:10087000F42C032D122D0E94AC58A9F48091C412BF
:10088000882321F08AE898E00E942B5B8AE0AB8104
:10089000BC818A9FF0018B9FF00D1124E153FD4E26
:1008A000008111815CC02B813C812F5F3F4F3C83D5
:1008B0002B833A962436310551F6E12CF12C8091A8
:1008C000C412882321F086E998E00E942B5BD401B2
:1008D0008D919C9187010F5F1F4F892BB9F48AE09E
:1008E0008E9DD0018F9DB00D1124A153BD4EFD01F1
:1008F0000193119312967C926182B981B2832A810D
:100900002383548245823682278229C078013AE0C7
:10091000830E911C0436110591F626C01F930F9388
:1009200082EA98E09F938F930E94135B0F900F9041
:100930000F900F90E12C08C083EC98E00E942B5B95
:10094000EE24E3940FEF1FEF272D362D49815A81B6
:10095000652D742D832D922D0E94EF480AC0809141
:10096000C412882339F3DACF8091C412882341F36B
:10097000E3CF0F900F900F900F900F90DF91CF91DA
:100980001F910F91FF90EF90DF90CF90BF90AF90AD
:100990009F908F907F906F905F904F903F902F909F
:1009A00008957F928F929F92AF92BF92CF92DF92E3
:1009B000EF92FF920F931F93CF93DF93CDB7DEB7E4
:1009C0002F970FB6F894DEBF0FBECDBF142F49018D
:1009D000AC86BD86CE86DF8660E080E090E00E9437
:1009E000E91DCE010C960E94DB1ACC84DD84EE84D6
:1009F000FF848091C7129091C812A091C912B09142
:100A0000CA12C092C712D092C812E092C912F092D4
:100A1000CA12C81AD90AEA0AFB0AC114D10421E091
:100A2000E206F10428F0CC24CA94DC2CE12CF12C51
:100A3000F40191818091C412913F09F46DC0923FFD
:100A400009F4D1C0903F09F035C1882331F069ED38
:100A500078E0CE0101960E94C15ABD2D80E090E061
:100A6000412F50E05A01F4E0AF1AB1089A01235027
:100A700031094250510947C060911A17A09140179F
:100A8000709141178A159B0569F4EA2FF72FE60F3D
:100A9000F11DE60FF11D0190F081E02DE80FF91F27
:100AA000C08230C08217930769F4EA2FF72FE60F50
:100AB000F11DE60FF11D0190F081E02DE80FF91F07
:100AC000B08320C08417950769F4EA2FF72FE60F4B
:100AD000F11DE60FF11D0190F081E02DE80FF91FE7
:100AE000008310C0F401E80FF91F7080EA2FF72F80
:100AF000E60FF11DE60FF11D0190F081E02DE80FEA
:100B0000F91F70820196811708F4B6CF80911A17E9
:100B10008F5F80931A17D6C0882331F063EE78E098
:100B2000CE0101960E94C15ABD2D80E090E0412F78
:100B300050E05A0124E0A21AB1089A012350310969
:100B40004250510947C060913E17A091171770910C
:100B500018178A159B0569F4EA2FF72FE60FF11D88
:100B6000E60FF11D0190F081E02DE80FF91FC08222
:100B700030C08217930769F4EA2FF72FE60FF11DB3
:100B8000E60FF11D0190F081E02DE80FF91FB08311
:100B900020C08417950769F4EA2FF72FE60FF11D9F
:100BA000E60FF11D0190F081E02DE80FF91F0083A1
:100BB00010C0F401E80FF91F7080EA2FF72FE60F3D
:100BC000F11DE60FF11D0190F081E02DE80FF91FF6
:100BD00070820196811708F4B6CF80913E178F5F1F
:100BE00080933E176FC0882331F06EEE78E0CE011F
:100BF00001960E94C15ABD2D80E090E0412F50E047
:100C00005A01E4E0AE1AB1089A012350310942506A
:100C1000510947C060914317A0910C1770910D17AF
:100C20008A159B0569F4EA2FF72FE60FF11DE60FF1
:100C3000F11D0190F081E02DE80FF91FC08230C056
:100C40008217930769F4EA2FF72FE60FF11DE60FDD
:100C5000F11D0190F081E02DE80FF91FB08320C055
:100C60008417950769F4EA2FF72FE60FF11DE60FB9
:100C7000F11D0190F081E02DE80FF91F008310C0F5
:100C8000F401E80FF91F7080EA2FF72FE60FF11D2E
:100C9000E60FF11D0190F081E02DE80FF91F708241
:100CA0000196811708F4B6CF809143178F5F809328
:100CB000431708C0882331F066EF78E0CE01019633
:100CC0000E94C15A8091C412882309F454C0FF9233
:100CD000EF92DF92CF921F920F931F921F93CE013C
:100CE00001969F938F93F40181811F928F938EEFD2
:100CF00098E09F938F930E94135BB82C0FB6F894E3
:100D0000DEBF0FBECDBF74017EE5C72E79E0D72EC2
:100D100017C0F70181917F011F928F93DF92CF92CD
:100D20000E94135B07700F900F900F900F90073089
:100D300019F48AE090E002C080E290E00E94255B16
:100D40000E2D0B19011728F3809143171F928F93D3
:100D500080913E171F928F9380911A171F928F9345
:100D600085E699E09F938F930E94135B0FB6F894EA
:100D7000DEBF0FBECDBF61E080E090E00E94E91DC4
:100D80002F960FB6F894DEBF0FBECDBFDF91CF9187
:100D90001F910F91FF90EF90DF90CF90BF90AF9099
:100DA0009F908F907F900895EF92FF920F931F93E3
:100DB000CF93DF93CDB7DEB72C970FB6F894DEBF95
:100DC0000FBECDBF182F86E00E946F1B8091C4120A
:100DD0008823E1F0111103C06DE879E007C01130FC
:100DE00019F466E979E002C062EA79E0CE01019681
:100DF0000E94C15A9F938F9329EA39E03F932F9322
:100E00000E94135B0F900F900F900F90111131C043
:100E10000E94A11460934018709341188093421867
:100E2000909343182091C412222381F09F938F93B3
:100E30007F936F9384ED99E09F938F930E94135B50
:100E40000F900F900F900F900F900F9060E074E054
:100E500081E00E946814EE24E394F12C04ED16E086
:100E600020E04CE150E260E070E086E00E94221C4D
:100E70002FC0113029F50E94A1146093441870937B
:100E8000451880934618909347182091C412222346
:100E900081F09F938F937F936F9385EE99E09F935B
:100EA0008F930E94135B0F900F900F900F900F90F5
:100EB0000F908BE090E09093C6128093C51208C00B
:100EC0008091C412882321F085EF99E00E942B5B6A
:100ED0002C960FB6F894DEBF0FBECDBFDF91CF9139
:100EE0001F910F91FF90EF9008955498EDE7F0E077
:100EF0008081816080830895A8EDB6E1E7E4F7E1A1
:100F000080E090E021E08D939D9321938A569F4F3E
:100F1000803639E09307B9F70895BF92CF92DF92F8
:100F2000EF92FF920F931F93CF93DF938091C412A0
:100F3000882341F087E09AE09F938F930E94135B90
:100F40000F900F9097E4E92E97E1F92EC8EDD6E1C6
:100F500000E010E0BB24B394CC24C394D12CF7015F
:100F60008081882371F0888199818F3FF3E09F070A
:100F700010F4019603C0F7011082019799838883CA
:100F800009C088819981009709F0F7CFF701B082F5
:100F9000D982C8828091770290917802029759F4A1
:100FA000F801E854F94E88819981918380838EE11C
:100FB00090E00E94F41A8091770290917802019754
:100FC00039F4F801E45EF84E888199819183808339
:100FD000FFEFEF1AFF0A22960E5F1F4F0032110536
:100FE00009F0BDCF87E090E09093C6128093C512C0
:100FF0008091C412882369F08EE295E0DF91CF9151
:101000001F910F91FF90EF90DF90CF90BF900C94C5
:101010002B5BDF91CF911F910F91FF90EF90DF90AD
:10102000CF90BF9008958091C412882341F088E149
:101030009AE09F938F930E94135B0F900F9081E033
:10104000089586EA0E94F418882321F00E943F192F
:1010500080E008958DE20E9447198111F7CF88E062
:101060000E9447198111F2CF0E943F1981E0089533
:101070001F93CF93DF938091C412882341F08DE2B8
:101080009AE09F938F930E94135B0F900F9084B10F
:10109000876084B9239885B1896085B982E58CBD64
:1010A0008DB581608DBD0E94191480EF9AE00E9479
:1010B000F41ACAE4D8E111E0812F0E942314899325
:1010C0009993019649F48091C412882389F086E4AB
:1010D0009AE00E942B5B0CC01F5F183069F780916B
:1010E000C412882339F08EE295E00E942B5B02C087
:1010F00080E001C081E0DF91CF911F910895EF92D0
:10110000FF920F931F93CF93DF93CDB7DEB72C974A
:101110000FB6F894DEBF0FBECDBFE82E8B018091D5
:10112000C4128823D9F0E11003C06DE879E002C051
:1011300066E979E0CE0101960E94C15A1F930F9390
:101140009F938F9322E63AE03F932F930E94135B85
:101150000F900F900F900F900F900F90B8018E2D61
:101160000E946814F12C04ED16E020E04CE150E2FE
:1011700060E070E086E00E94221C2C960FB6F89486
:10118000DEBF0FBECDBFDF91CF911F910F91FF90BA
:10119000EF9008958091C412882341F08DE99AE080
:1011A0009F938F930E94135B0F900F90E7E5F7E1F9
:1011B000119288E1EF31F807D9F71092441780981F
:1011C00080917E00816080937E0081E880937A0028
:1011D0008091C412882321F08EE295E00C942B5B61
:1011E00008950F931F93CF93DF9300D000D0CDB716
:1011F000DEB78091C412882341F08AEC9AE09F9375
:101200008F930E94135B0F900F9080E480937C007B
:1012100080917A00806480937A0080917A0084FFC4
:10122000FCCF80917A00806180937A008091780071
:10123000909179009C838B838B819C81883E934025
:1012400008F04BC08B819C818D35934008F449C0D8
:101250006B817C816C55734080E090E00E94FF516F
:1012600020E030E04CE053E40E94825020E030E087
:1012700048EC52E40E949D4F0E94B84D162F6B819E
:101280007C816C55734080E090E00E94FF5120E02B
:1012900030E04CE053E40E94825020E030E040E730
:1012A00051E40E949D4F0E94B84D062F6B817C81B6
:1012B0006C55734080E090E00E94FF5120E030E0E8
:1012C0004CE053E40E94825020E030E04FE753E4CA
:1012D0000E949D4F0E94B84D07C06FEF0FE014E6CB
:1012E00003C060E000E010E020914417822F90E0FE
:1012F000FC01E95AF84E6083873C91051CF010927E
:10130000441703C02F5F209344171A821982E7E520
:10131000F7E189819A812191820F911D9A838983B6
:1013200088E1EF31F807A9F760931F188091C41284
:10133000882399F08B819C811F920F931F921F939A
:101340009F938F9385EE9AE09F938F930E94135BF8
:101350000FB6F894DEBF0FBECDBF0F900F900F9069
:101360000F90DF91CF911F910F910895CF93DF934D
:10137000EC018091C412882341F08EE09BE09F93A2
:101380008F930E94135B0F900F902097A1F58CE331
:101390000E94F418882321F00E943F1980E034C095
:1013A00080E00E9447198111F7CF80E70E9447191A
:1013B0008111F2CF8CE30E943D198111EDCF81E0C4
:1013C0000E9447198111E8CF80EE0E9447198111D0
:1013D000E3CF8CE30E943D198111DECF82E00E94B1
:1013E00047198111D9CF82E00E9447198111D4CFCA
:1013F0000E943F1902C0219719F481E08093E00D0B
:10140000109219178091E00DDF91CF9108958CE330
:101410000E94F418882321F00E943F1980E008956B
:1014200082E00E9447198111F7CF0E94471981116C
:10143000F3CF0E943F1981E008950F931F93CF933C
:10144000DF93EC018091C412882321F086E19BE0B8
:101450000E942B5BC230D10509F4DFC0C330D10537
:1014600009F419C2219709F092C2E0914017F09156
:1014700041170190F081E02D81E48083E0914017D5
:10148000F09141170190F081E02D80EF8183E09190
:101490004017F09141170190F081E02D8AE5868B8D
:1014A000ACE1B7E182E090E02C911296E091401718
:1014B000F09141170190F081E02DE80FF91F208392
:1014C00001968F30910581F7E0914017F091411717
:1014D000A081B1818091231790E08370992720919A
:1014E0001D172295220F220F207C282B80911F1779
:1014F00090E0837099278295807F282B8091211717
:1015000090E083709927880F880F282B1F962C93C3
:10151000A081B18180912B1790E083709927209151
:1015200025172295220F220F207C282B8091271728
:1015300090E0837099278295807F282B80912917CE
:1015400090E083709927880F880F282B50962C9352
:10155000A081B1818091331790E083709927209109
:101560002D172295220F220F207C282B80912F17D8
:1015700090E0837099278295807F282B8091311786
:1015800090E083709927880F880F282B51962C9311
:101590000190F081E02D89B180958770880F880FC8
:1015A000880F909135179295990F990F907C892B00
:1015B000828B8091C412882349F1C0E0D0E00BEF08
:1015C00014E0E0914017F09141170190F081E02D77
:1015D000EC0FFD1F80811F928F931F930F930E942A
:1015E000135BCE01877099270F900F900F900F908B
:1015F000873021F48AE090E00E94255B2196C73174
:10160000D105F9F68AE090E00E94255B83E090E046
:101610009093C6128093C512BAC1E0911717F0914A
:1016200018170190F081E02D81E48083E091171775
:10163000F09118170190F081E02D81EF8183E09106
:101640001717F09118170190F081E02D8AE581A716
:10165000A8EBB6E182E090E02C911296E09117178A
:10166000F09118170190F081E02DE80FF91F208309
:1016700001968E30910581F7E0911717F0911817B8
:10168000A081B1818091BF1690E08370992720914D
:10169000B9162295220F220F207C282B8091BB1691
:1016A00090E0837099278295807F282B8091BD16CA
:1016B00090E083709927880F880F282B1E962C9313
:1016C000A081B1818091C71690E083709927209105
:1016D000C1162295220F220F207C282B8091C31641
:1016E00090E0837099278295807F282B8091C51682
:1016F00090E083709927880F880F282B1F962C93D2
:10170000A081B1818091CF1690E0837099272091BC
:10171000C9162295220F220F207C282B8091CB16F0
:1017200090E0837099278295807F282B8091CD1639
:1017300090E083709927880F880F282B50962C9360
:10174000A081B1818091F8163091F91651968C9351
:10175000A081B1818091FA162091FB1652968C934C
:10176000A081B1818091FC169091FD1653968C93C7
:10177000A081B1814091FE168091FF1654964C9342
:10178000A081B18155963C93A081B18156962C934E
:10179000A081B18157969C93A081B18158968C937A
:1017A000A081B181809100172091011759968C93E7
:1017B000A081B18180910217909103175A968C9362
:1017C000A081B18130910417809105175B963C93FD
:1017D000A081B1815C962C93A081B1815D969C9390
:1017E000A081B1815E968C93A081B1818091061712
:1017F000209107175F968C93A081B1818091081783
:101800009091091790968C93A081B18130910A171D
:1018100080910B1791963C93A081B18192962C9365
:10182000A081B18193969C93A081B18194968C9371
:101830000190F081E02D15A28091C412882309F453
:10184000A6C0C0E0D0E00BEF14E0E0911717F091D4
:1018500018170190F081E02DEC0FFD1F80811F9281
:101860008F931F930F930E94135BCE01877099276C
:101870000F900F900F900F90873021F48AE090E046
:101880000E94255B2196CA32D105F9F68AE090E0E4
:101890000E94255B7CC0E0910C17F0910D17019020
:1018A000F081E02D81E48083E0910C17F0910D1719
:1018B0000190F081E02D82EF8183E0910C17F0918F
:1018C0000D17A081B1818AE51E968C93A081B1810C
:1018D00080910E1712968C93A081B18180910F1781
:1018E00013968C93A081B18190911017809111175C
:1018F00014969C93A081B18115968C93A081B1819F
:101900008091121716968C93A081B1818091131744
:1019100017968C93A081B18190911417809115171F
:1019200018969C93A081B18119968C930190F081B7
:10193000E02D80911F188F7082878091C4128823B8
:1019400031F1C0E0D0E00BEF14E0E0910C17F09122
:101950000D170190F081E02DEC0FFD1F80811F928B
:101960008F931F930F930E94135BCE01877099276B
:101970000F900F900F900F90873021F48AE090E045
:101980000E94255B2196CF30D105F9F67FCF80915B
:10199000C412882341F08FE39BE0DF91CF911F9128
:1019A0000F910C942B5BDF91CF911F910F910895B4
:1019B000CF92DF92EF92FF920F931F93CF93DF931B
:1019C000CDB7DEB72F970FB6F894DEBF0FBECDBFF1
:1019D0008C01CE010C960E94BE1A6C857D858E8589
:1019E0009F85C090CB12D090CC12E090CD12F09099
:1019F000CE126C197D098E099F09653F21E072079F
:101A00008105910508F476C02091C4122223B9F013
:101A100028EE33E040E050E00E94E8577F936F9358
:101A20005F934F933F932F9386E49BE09F938F9315
:101A30000E94135B0FB6F894DEBF0FBECDBF8C853E
:101A40009D85AE85BF858093CB129093CC12A093D9
:101A5000CD12B093CE1282E089838EEB9AE59B8300
:101A60008A838091B5129091B6129D838C830E94D7
:101A7000BF4B81113AC000000000000000000000D0
:101A80000000000000000000000000000000000056
:101A90000000000000002AC060E080E090E00E94AA
:101AA000E91D0230110569F00330110589F001309C
:101AB000110501F5EE24E39400E02DE332E047E167
:101AC0000DC0EE24E39400E023E132E04AE206C0D8
:101AD000EE24E39400E024E032E04FE0BE016F5FCB
:101AE0007F4F82E00E942E4805C081E010921617B9
:101AF0008111D2CF2F960FB6F894DEBF0FBECDBFA7
:101B0000DF91CF911F910F91FF90EF90DF90CF90D9
:101B1000089580ED0E94F418882321F00E943F1957
:101B200080E008958EE30E9447198111F7CF81E08C
:101B30000E9447198111F2CF0E943F1981E0089558
:101B4000BF92CF92DF92EF92FF920F931F93CF93AA
:101B5000DF93182F062FB42E842F90E00E941F5978
:101B6000EC01009789F1812F0E94F418882329F055
:101B70000E943F19C0E0D0E027C0802F0E94471983
:101B80008111F6CF812F81600E943D198111F0CF24
:101B90007E0100E010E0CB2CD12C81E0C81AD108E6
:101BA0000FC00C151D051CF00E94621902C00E9496
:101BB0005819F70180830F5F1F4FFFEFEF1AFF0ADD
:101BC0000B1578F30E943F19CE01DF91CF911F9141
:101BD0000F91FF90EF90DF90CF90BF9008950F93FB
:101BE0001F93CF93DF938C018091C412882321F03F
:101BF00081E79BE00E942B5B0115110509F045C0B0
:101C000080ED0E94F418813019F40E943F194DC0F4
:101C10008BE10E9447198130C1F381ED0E943D198B
:101C2000813099F31092EC0D28C0833039F40E9472
:101C300058198093ED0D0E94621906C00E94581930
:101C40008093ED0D0E9458198093EE0D4091ED0D9B
:101C5000D42F50E0C52F2091EC0DE22FF0E0EE0FD5
:101C6000FF1FE850F94E8091EE0DAE01482BCA01DE
:101C7000918380832F5F2093EC0D8091EC0D843055
:101C8000A0F281E08093EF0D48C00130110509F00A
:101C900044C046E063E480ED0E94A00DFC019093F7
:101CA000F10D8093F00D009711F480E038C0908121
:101CB00080E02181822B9093FD168093FC16928107
:101CC00080E02381822B9093FB168093FA169481F7
:101CD00080E02581822B9093FF168093FE16CF0122
:101CE0000E94BA59C1E0C093EF0D42E061E480ED7B
:101CF0000E94A00D9093F10D8093F00D0097A9F232
:101D0000FC01308120E04181242B3093F91620938F
:101D1000F8160E94BA59C093EF0D8091EF0DDF9134
:101D2000CF911F910F9108950F931F93CF93DF933E
:101D30008C018091C412882321F08DE89BE00E94E1
:101D40002B5B0115110509F046C08CE30E94F418C5
:101D5000882319F00E943F196EC083E00E94471942
:101D60008111F8CF8DE30E943D198111F3CF1092BC
:101D7000E10D2CC0823039F40E9458198093E20D95
:101D80000E94621906C00E9458198093E20D0E94B9
:101D900058198093E30D2091E20DD22F30E0C32F2C
:101DA0008091E30D9E01282BC9019093E50D80934E
:101DB000E40D2091E10DE22FF0E0EE0FFF1FE05067
:101DC000F94E918380832F5F2093E10D8091E10D87
:101DD000833080F22AC00130110551F546E064E0FD
:101DE00088E10E94A00DFC019093E80D8093E70D1F
:101DF000009709F1908180E02181822B9093011757
:101E000080930017928180E02381822B90930317A7
:101E100080930217948180E02581822B909305178F
:101E200080930417CF010E94BA5981E08093E60D98
:101E30008091E60D01C080E0DF91CF911F910F915D
:101E400008950F931F93CF93DF938C018091C41259
:101E5000882341F087EA9BE09F938F930E94135B56
:101E60000F900F900115110509F046C086EA0E94F7
:101E7000F418882319F00E943F196EC082E30E9473
:101E800047198111F8CF87EA0E943D198111F3CFDC
:101E90001092D80D2CC0823039F40E9458198093CA
:101EA000D90D0E94621906C00E9458198093D90D5D
:101EB0000E9458198093DA0D2091DA0DD22F30E06C
:101EC000C32F8091D90D9E01282BC9019093DC0D61
:101ED0008093DB0D2091D80DE22FF0E0EE0FFF1F75
:101EE000EA5FF84E918380832F5F2093D80D809115
:101EF000D80D833080F22AC00130110551F546E03B
:101F00006BE380ED0E94A00DFC019093DF0D8093A8
:101F1000DE0D009709F1908180E02181822B909362
:101F2000091780930817928180E02381822B909378
:101F3000071780930617948180E02581822B909368
:101F40000B1780930A17CF010E94BA5981E0809342
:101F5000DD0D8091DD0D01C080E0DF91CF911F91FB
:101F60000F910895CF92DF92FF920F931F93CF931B
:101F7000DF931F92CDB7DEB7142FF52E022F6983A2
:101F80000E94F418698181110FC0862F0E944719A1
:101F900081110AC0C12EDF2C0BC0F60181916F01A7
:101FA0000E944719882321F00E943F1980E007C052
:101FB0008C2D811B801788F30E943F1981E00F90C0
:101FC000DF91CF911F910F91FF90DF90CF900895F7
:101FD000CF93DF93EC018091C412882341F088EC09
:101FE0009BE09F938F930E94135B0F900F9020971D
:101FF00099F580ED0E94F418882319F00E943F198A
:1020000043C085E10E9447198111F8CF82E30E9405
:1020100047198111F3CF80ED0E943D198111EECF58
:1020200086E10E9447198111E9CF8CE10E9447198E
:102030008111E4CF80ED0E943D198111DFCF8EE345
:102040000E9447198111DACF80E40E94471981115B
:10205000D5CF0E943F1910C0219789F44091EA0D15
:102060005091EB0D88E1FA01808321E06BE180ED76
:102070000E94B20F882341F081E08093E90D109215
:102080001B178091E90D01C080E0DF91CF91089589
:102090001F93CF93DF93EC018091C412882341F00A
:1020A00084ED9BE09F938F930E94135B0F900F90A2
:1020B000209721F586EA0E94F418882319F00E94DF
:1020C0003F192CC08CE20E9447198111F8CF8BE098
:1020D0000E9447198111F3CF86EA0E943D198111B0
:1020E000EECF81E30E9447198111E9CF89E00E9478
:1020F00047198111E4CF0E943F191BC02197E1F4D9
:10210000C091D60DD091D70D18E0188321E0AE0113
:1021100069E180ED0E94B20F811102C080E010C021
:10212000188321E0AE016CE180ED0E94B20F88239C
:10213000A9F381E08093D50D10923F178091D50DC2
:10214000DF91CF911F910895CF93DF93EC018091A0
:10215000C412882361F0DF93CF9384EE9BE09F93BA
:102160008F930E94135B0F900F900F900F90C130D0
:10217000D10591F020F1229781F58FEF9FEF909399
:102180000117809300179093031780930217909381
:1021900005178093041721C08FEF9FEF9093F916D6
:1021A0008093F8169093FB168093FA169093FD1681
:1021B0008093FC169093FF168093FE160EC08FEF4F
:1021C0009FEF9093071780930617909309178093BA
:1021D000081790930B1780930A17DF91CF910895FA
:1021E000CF93DF93EC018091C412882341F026E065
:1021F0003CE03F932F930E94135B0F900F90CD2BE9
:1022000071F40E942108811102C080E009C00E947F
:10221000890D8823D1F3DF91CF910C94070A81E0D7
:10222000DF91CF91089599278130910599F08230FF
:102230009105E1F0892B29F580914517909146177A
:102240000E94E80F811102C00C943F1981E0809335
:102250001B17089580914517909146170E94B60963
:10226000882391F381E08093191708958091451791
:10227000909146170E944810882331F381E08093A3
:102280003F1708958091C412882341F087E19CE0B4
:102290009F938F930E94135B0F900F9084B3887F5E
:1022A00084BB5E9883B3876083BB569A8198809184
:1022B0007E00826080937E0082E880937A00809125
:1022C000C412882321F08EE295E00C942B5B0895D4
:1022D0000F931F93CF93DF938091C412882341F013
:1022E00087E09AE09F938F930E94135B0F900F906B
:1022F00084B3887F84BB5E98C0E2D8E1FE0120E011
:1023000031E4283018F424BB5E9804C0822F877013
:1023100084BB5E9A30937C0080917A0080648093C5
:102320007A0080917A0084FFFCCF80917A008061EE
:1023300080937A00809178009091790081939193B5
:102340002F5F2031F1F68091C4128823D9F082E307
:102350009CE00E942B5B0DEF14E08881998122960E
:102360009F938F931F930F930E94135B0F900F9077
:102370000F900F9088E1C034D80779F78AE090E099
:102380000E94255B85E090E09093C6128093C51271
:10239000DF91CF911F910F910895CF93DF93EC01BF
:1023A0008091C412882341F08CE49CE09F938F932A
:1023B0000E94135B0F900F90C130D10519F0229746
:1023C00081F518C0A7E6B2E0CCE1D7E1ED91F0E0ED
:1023D000EE0FFF1FE05EF74E808191818993999304
:1023E00082E0A737B80791F780911A178F5F809323
:1023F0001A1717C0A7E5B2E0C8EBD6E1ED91F0E0FF
:10240000EE0FFF1FE05EF74E8081918189939993D3
:1024100082E0A736B80791F780913E178F5F8093CF
:102420003E178091C412882331F08EE295E0DF914F
:10243000CF910C942B5BDF91CF9108950F931F9355
:10244000CF93DF938C01C091C512D091C612C330D7
:10245000D10508F4CDC0C730D10531F138F4C3300F
:10246000D10561F0259709F0BCC012C0CB30D10571
:1024700009F498C02D9709F0B4C09FC062E080E0D5
:1024800090E00E94E91DD093C612C093C512A9C066
:1024900086E090E09093C6128093C512C8010E9416
:1024A000CD1187E090E099C08130910529F082300C
:1024B000910509F096C009C08EE090E09093C61295
:1024C0008093C51281E090E084C0809142178823F8
:1024D00009F45AC08091D30D909155028917A8F044
:1024E00088E090E09093C6128093C51280914517C2
:1024F000909146170E94EF0D811104C081E090E099
:102500000E94A4101092D30D03C08F5F8093D30D4F
:102510008091D20D909154028917A8F088E090E044
:102520009093C6128093C5128091451790914617DB
:102530000E94940E811104C082E090E00E94A410D9
:102540001092D20D03C08F5F8093D20D8091D40D75
:10255000909156028917A8F088E090E09093C612F7
:102560008093C51280914517909146170E94210FC4
:10257000811104C080E090E00E94A4101092D40D5C
:1025800003C08F5F8093D40D8EE090E09093C612CD
:102590008093C5128091161781110E94F10882E084
:1025A00090E017C08CE090E09093C6128093C51223
:1025B0000E94CF148DE090E010C08EE090E09093E8
:1025C000C6128093C5128091161781110E94F108DE
:1025D000C8010E941D0A83E090E09093C612809388
:1025E000C512C801DF91CF911F910F910C94D80CA7
:1025F000DF91CF911F910F910895CF93DF93809139
:10260000C412882341F08DE59CE09F938F930E9434
:10261000135B0F900F90C091F20DD091F30D81E0FC
:10262000888321E0AE016BE680ED0E94B20F882323
:1026300009F472C08091C412882341F08CE79CE0B9
:102640009F938F930E94135B0F900F908EE088836F
:1026500021E0AE016CE180ED0E94B20F882309F405
:102660005BC044E06DE080ED0E94A00D9093F50DFD
:102670008093F40D009709F44FC00E94BA598091DD
:10268000C412882341F086E99CE09F938F930E94B7
:10269000135B0F900F9082E0888321E0AE0167E327
:1026A00080ED0E94B20F8823B9F1188221E0AE01BB
:1026B0006AE088E10E94B20F882371F180E4888388
:1026C00021E0AE016CE088E10E94B20F882321F185
:1026D0008FE0888321E0AE016AE088E10E94B20FBA
:1026E0008823D1F084EF91E00E94F41A46E063E081
:1026F00088E10E94A00D9093F50D8093F40D009752
:1027000059F00E94BA59188221E0AE016CE088E1CC
:10271000DF91CF910C94B20F80E0DF91CF910895BB
:10272000CF93DF93EC018091C412882361F0DF9393
:10273000CF9386EC9CE09F938F930E94135B0F9046
:102740000F900F900F90E8EFF6E11192119287E150
:10275000EC30F807D1F70E94EE18209731F5809100
:102760004517909146170E944810811103C00E949E
:102770003F192DC080914517909146170E94E80F90
:102780008823A9F380914517909146170E94B609B6
:10279000882369F38091C412811101C004C08EE2C4
:1027A00095E00E942B5B81E026C02197E1F78091A4
:1027B000C412882341F086EE9CE09F938F930E9481
:1027C000135B0F900F900E94FD12811102C080E0F8
:1027D00012C081E090E00E9448108823C1F381E09C
:1027E00090E00E94E80F882391F381E090E0DF9170
:1027F000CF910C94B609DF91CF9108958091C412C6
:10280000882341F08BEF9CE09F938F930E94135B92
:102810000F900F908AB1887F8AB98BB1887F8BB96E
:102820008091C412882321F08EE295E00C942B5BFA
:10283000089528988EE18EBD0DB407FEFDCF289A2D
:1028400080E090E008951092F70D1092F60D84301C
:1028500099F030F4823061F068F48130A9F506C057
:10286000863071F058F0873079F50CC082EA0BC0E1
:1028700084EA09C086EA07C088EA05C08AEA03C07C
:102880008CEA01C08EEA8093F80D28988091F80DAB
:102890008EBD0DB407FEFDCF1EBC0DB407FEFDCFEF
:1028A0002EB5922F80E09093F70D8093F60D1EBC0D
:1028B0000DB407FEFDCF2EB5822B9093F70D8093BC
:1028C000F60D289A9C0102C02FEF3FEFC901089531
:1028D0002898611594E07907E9F040F4611591E0DA
:1028E000790761F06115724039F50EC0611598E005
:1028F0007907B1F061157041F9F418C0811102C077
:1029000080E419C080E517C0811102C082E413C0C1
:1029100082E511C0811102C084E40DC084E50BC0C2
:10292000811102C086E407C086E505C0811102C09E
:1029300088E401C088E58EBD0DB407FEFDCF289A5E
:1029400008950F931F9328981EBC0DB407FEFDCF6A
:102950001EBC0DB407FEFDCF0EB510E020E030E048
:102960009801112700271EBC0DB407FEFDCF8EB5C0
:1029700090E0A0E0B0E0BA2FA92F982F88271EBCC6
:102980000DB407FEFDCF4EB5042B289A082B192B4A
:102990002A2B3B2BB801C9011F910F9108952F924B
:1029A0003F924F925F926F927F928F929F92AF92DF
:1029B000BF92CF92DF92EF92FF920F931F93CF932C
:1029C000DF93CDB7DEB76C970FB6F894DEBF0FBEBE
:1029D000CDBF8091C412882309F447C08091471865
:1029E0008F93809146188F93809145188F93809193
:1029F00044188F93809143188F93809142188F933E
:102A0000809141188F93809140188F938091551831
:102A10008F93809154188F93809153188F93809146
:102A200052188F93809151188F93809150188F93E3
:102A300080914F188F9380914E188F9380914D18ED
:102A40008F9380914C188F9380914B188F93809126
:102A50004A188F9385E19DE09F938F930E94135BAB
:102A60000FB6F894DEBF0FBECDBF80915218909183
:102A700053189C0140E050E060E070E080E090E09E
:102A800008E00E94615849015A0140904418509052
:102A900045186090461870904718481859086A08F9
:102AA0007B084092010E5092020E6092030E7092CB
:102AB000040E53014201BB0C8808982C54018982F2
:102AC0009A82AB82BC8280915418909155184C0127
:102AD000A12CB12CC12CD12C76018B8B9C8AAD8A78
:102AE000BE8ACF8AD88EE98EFA8E52016301E980C0
:102AF000FE2C0E2D1E2D9C0140E050E060E070E0A9
:102B000080E090E00E940A5807E10E947058490155
:102B10005A01950184010053184F2F4F3F4F0D83E9
:102B20001E832F8338870093121710931317209357
:102B300014173093151780914C1890914D189C01E3
:102B400040E050E060E070E080E090E000E10E9452
:102B500061582C873B87942E852E362E272E898709
:102B60009A87409150185091511852016301E980A1
:102B7000FE2C0E2D1E2D9A0140E050E060E070E02A
:102B800080E090E00E940A5807E00E9470585901C6
:102B90006A017B018C012C853B85492D582D632DC5
:102BA000722D89859A850E948E5829873A874B878E
:102BB0005C871B018B8F9C8F2093150E3093160E14
:102BC0004093170E5093180E6093190E30921A0E00
:102BD00080931B0E90931C0E80914A1890914B1875
:102BE0009C0140E050E060E070E080E090E00FE0A9
:102BF0000E946158922E832E4D875E876F87788B57
:102C0000898B9A8B40914E1850914F185201630155
:102C1000E980FE2C0E2D1E2D9A0140E050E060E070
:102C200070E080E090E00E940A5808E00E9470582E
:102C300059016A017B018C0120930D0EB0920E0E9A
:102C400040930F0ED092100E6093110EF092120E60
:102C50008093130E1093140E292D382D4D855E850B
:102C60006F85788989899A890E948E588C01209372
:102C70001D0E30931E0E40931F0E5093200E609336
:102C8000210E7093220E8093230E1093240E8091B8
:102C9000401890914118A0914218B09143184C01EE
:102CA0005D01C12CD12C76018B8B9C8AAD8ABE8AAA
:102CB000CF8AD88EE98EFA8E59016A017B01940180
:102CC0004D895E8960E070E080E090E00E940A58E3
:102CD00005E10E9470582093F90D3093FA0D40934E
:102CE000FB0D5093FC0D6093FD0D7093FE0D8093D2
:102CF000FF0D9093000EA984BA84CB84DC8471010B
:102D00000B8D1C8D0E94A3582093050E3093060E48
:102D10004093070E5093080E6093090E70930A0EAD
:102D200080930B0E90930C0E0FE00E947058C90117
:102D300020930E1790930F1740931017509311176D
:102D40002091C4122223B9F05F934F939F938F93E6
:102D500098849F92AF80AF92BE80BF92CD80CF9279
:102D60008DEA9DE09F938F930E94135B0FB6F894BA
:102D7000DEBF0FBECDBF6C960FB6F894DEBF0FBEA0
:102D8000CDBFDF91CF911F910F91FF90EF90DF901A
:102D9000CF90BF90AF909F908F907F906F905F90FB
:102DA0004F903F902F9008950F931F938B019C019C
:102DB000775F824C9F4F42E0660F771F881F991FF5
:102DC0004A95D1F7A9019801E3E0220F331F441F70
:102DD000551FEA95D1F70E94E857215031093093E9
:102DE000C5002093C40082E08093C00086E08093F9
:102DF000C20088ED8093C1001F910F91089520912A
:102E0000C1002F7B2093C10030916C1840916D1848
:102E1000232F431710F0275F01C02150241B621796
:102E200008F4262FFC01822F11C090916D1841915A
:102E3000A92FB0E0A85AB74E4C93993019F41092CC
:102E40006D1803C09F5F90936D1881508111EDCF75
:102E50008091701881110AC0E32FF0E0E85AF74E14
:102E600080818093C60081E0809370188091C100BA
:102E700080648093C100822F0895DC0180917118D5
:102E80008823B9F19091C1009F779093C1008A3057
:102E900050F080916F1880936E188AE080937118BB
:102EA0006A3028F405C0861718F4682F01C06AE05C
:102EB000962F16C0E0916E18F0E0E85AF74E828522
:102EC0008D9380916E188F5F80936E18209171188A
:102ED00021502093711891508A3011F410926E187D
:102EE0009111E8CF8091C10080688093C100862F46
:102EF000089580E008951F920F920FB60F9211244B
:102F00000BB60F928F939F93EF93FF9380916F185F
:102F1000909171189F5F909371189091C600E82F5F
:102F2000F0E0E85AF74E9287893019F410926F1842
:102F300003C08F5F80936F18FF91EF919F918F91E6
:102F40000F900BBE0F900FBE0F901F9018951F9201
:102F50000F920FB60F9211240BB60F928F93EF932F
:102F6000FF9380916C18893019F410926C1803C08B
:102F70008F5F80936C18E0916C1880916D18E81742
:102F800039F0F0E0E85AF74E80818093C60002C025
:102F900010927018FF91EF918F910F900BBE0F90D0
:102FA0000FBE0F901F901895811108C060E074E863
:102FB00083E090E00E94D41680E0089585E80895AB
:102FC0009B01811104C0642FC9010C94FF1680E09D
:102FD00008959B01811104C0642FC9010C943D1711
:102FE00080E008959093260E8093250E0895909387
:102FF000280E8093270E089590932A0E8093290E11
:10300000089590932C0E80932B0E08951F920F928B
:103010000FB60F9211240BB60F922F933F934F933D
:103020005F936F937F938F939F93AF93BF93EF9330
:10303000FF93E091250EF091260E0995FF91EF91F7
:10304000BF91AF919F918F917F916F915F914F91C0
:103050003F912F910F900BBE0F900FBE0F901F90BE
:1030600018951F920F920FB60F9211240BB60F9264
:103070002F933F934F935F936F937F938F939F9380
:10308000AF93BF93EF93FF93E091270EF091280E3B
:103090000995FF91EF91BF91AF919F918F917F9192
:1030A0006F915F914F913F912F910F900BBE0F90B9
:1030B0000FBE0F901F9018951F920F920FB60F9290
:1030C00011240BB60F922F933F934F935F936F93FF
:1030D0007F938F939F93AF93BF93EF93FF93E09171
:1030E000290EF0912A0E0995FF91EF91BF91AF91B2
:1030F0009F918F917F916F915F914F913F912F9110
:103100000F900BBE0F900FBE0F901F9018951F923F
:103110000F920FB60F9211240F900FBE0F901F90B9
:1031200018951F920F920FB60F9211240BB60F92A3
:103130002F933F934F935F936F937F938F939F93BF
:10314000AF93BF93EF93FF93E0912B0EF0912C0E72
:103150000995FF91EF91BF91AF919F918F917F91D1
:103160006F915F914F913F912F910F900BBE0F90F8
:103170000FBE0F901F9018951F920F920FB60F92CF
:1031800011240F900FBE0F901F9018951F920F9251
:103190000FB60F9211240F900FBE0F901F9018952D
:1031A0001F920F920FB60F9211240F900FBE0F9027
:1031B0001F9018951F920F920FB60F9211240F9027
:1031C0000FBE0F901F9018951F920F920FB60F927F
:1031D00011240F900FBE0F901F9018951092B900F8
:1031E00088E48093B800089594EA9093BC0090918D
:1031F000BC0097FFFCCF9091B900987F983021F0E8
:10320000903111F081E008958093BB0084E88093B1
:10321000BC008091BC0087FFFCCF8091B900887F03
:10322000883111F0803471F780E0089524EA34E8A1
:1032300044E92093BC009091BC0097FFFCCF909193
:10324000B900987F983011F0903199F78093BB00C6
:103250003093BC009091BC0097FFFCCF9091B900D7
:10326000987F903211F0983539F44093BC009091DA
:10327000BC0094FDFCCFDDCF08950C94F41884E9D4
:103280008093BC008091BC0084FDFCCF08958093A6
:10329000BB0084E88093BC008091BC0087FFFCCF1A
:1032A0009091B900987F81E0983209F480E0089508
:1032B00084EC8093BC008091BC0087FFFCCF8091A0
:1032C000BB00089584E88093BC008091BC0087FF18
:1032D000FCCF8091BB00089584B714BEA89588E107
:1032E0000FB6F89480936000109260000FBE0E94A9
:1032F000E1190E948C1A0E94001E80E008950C942F
:103300006B1DEF92FF920F931F93CF93DF93811169
:1033100019C0CA01860F971F81309041A8F4890116
:10332000040F151FE9017B01E21AF30A06C0CE0162
:103330008E0D9F1D0E945F5D8993C017D107B9F75D
:1033400080E003C088EE01C085E8DF91CF911F9136
:103350000F91FF90EF900895EF92FF920F931F93BC
:10336000CF93DF93EC017B01E80EF91E81E0E816B4
:1033700080E1F80698F48A010CC0CE010E945F5DDE
:10338000F80161918F01861719F0CE010E94675DE7
:103390002196CE15DF0589F780E001C085E8DF9131
:1033A000CF911F910F91FF90EF9008951EB88FEF6E
:1033B0008DB98FEF9FEF0E94F41A8EB180958EB970
:1033C000F8CF8FB7F894E0E0F0E099E090935700E1
:1033D000E4918FBFEF70E23011F48FE001C080E024
:1033E00090E020E80FB6F89420936100809361008C
:1033F0000FBE80E1809335018093340180933301C7
:103400008093320108950F931F93E0912F0E89E06E
:10341000E89FF0011124EE58F74E80819181A2813E
:10342000B3812091300E222309F465C0B093F800D7
:10343000A093F7009093F6008093F5002091DF00B1
:1034400020FD08C021E02093E0002091DF002160F2
:103450002093DF00F091E100E091E2003091E30081
:103460002091E4004F2F5E2F632F722F4F5F5F4F2D
:103470006F4F7F4F8A019B01082719272A273B2777
:10348000002711272227387F012B022B032B31F431
:1034900084179507A607B707A0F137C08C019D01D7
:1034A00037707770401751076207730750F12DC0CE
:1034B0004091310E5091320E6091330E7091340E66
:1034C0004F5F5F4F6F4F7F4F481759076A077B0762
:1034D00001F5F091E100E091E2003091E3002091EC
:1034E000E4008F2F9E2FA32FB22F84179507A607D6
:1034F000B70779F706C08091DF008E7F8093DF00E9
:1035000008C081E08093CC1804C020915D01283070
:1035100078F21F910F9108951092300E1092CC18EE
:103520008FEF80932F0E80932D0E80932E0EEAE75F
:10353000F8E19FEF8FEF9083DF0114971D921C92AB
:10354000399628E1E43DF207A9F790E29093B6009E
:1035500098EA9093DC009FE09093F4008093F3004E
:103560008093F2008093F10082E08093E0008091EC
:10357000DF0082608093DF00089508952091DE00CF
:1035800020FDFCCFF091E100E091E2003091E300FA
:103590002091E4004F2F5E2F632F722F24E0440F01
:1035A000551F661F771F2A95D1F7FC014083518371
:1035B000628373830895F091E900E091EA0030910D
:1035C000EB002091EC004F2F5E2F632F722F34E021
:1035D000440F551F661F771F3A95D1F7FC014083B2
:1035E00051836283738308958436910520F44FB725
:1035F000F89451E01CC040E050E019C097FF03C0B0
:103600002FEF3FE701C09C01821B930B220F331F5A
:1036100031952195310930932501209324016ABB0E
:1036200070932101D09BFECF1092210102C061E076
:1036300072E0009719F751114FBF089599E0899FE3
:10364000F0011124EE58F74E81E024813581232BBF
:1036500009F480E00895CF93CFB7F8948091CC1807
:103660008823D1F11092CC189091300E9923A1F1BA
:1036700020912D0E80912F0E2F3F49F420912E0E78
:103680002F3F29F480932E0E80932D0E0BC0E091D6
:103690002E0E29E0E29FF0011124EE58F74E8087AC
:1036A00080932E0EA0912F0E89E08A9FD0011124C5
:1036B000AE58B74E18962C9120932F0EE0912E0EF7
:1036C0008E9FF0011124EE58F74E8FEF80879150B6
:1036D0009093300E0E94031ACFBFCF9108950F939D
:1036E0001F93CF93DF93082F8A3008F092C01FB743
:1036F000F8940E942B1B8091300E882309F48DC012
:1037000040912F0E542F942F39E001C0922F0913AE
:1037100032C0202F30E004130FC089E0829FD00117
:10372000839FB00D1124AE58B74E18968C9180939C
:103730002F0E0E94031A10C0A9E0A29FE001A39FD0
:10374000D00D1124CE58D74E8885A59FD0011124C5
:10375000AE58B74E18968C9389E0089FD00111247B
:10376000AE58B74E8FEF18968C938091300E8150E3
:103770008093300E58C0399FD0011124AE58B74EF7
:1037800018962C918150592F09F0C0CF46C00813CC
:1037900030C0202F30E0091315C080912E0E081381
:1037A00004C08FEF80932E0E0AC089E0829FD00163
:1037B000839FB00D1124AE58B74E18968C9180930C
:1037C0002D0E31C0A9E0A29FE001A39FD00D1124CE
:1037D000CE58D74E8885A49FD0011124AE58B74E3D
:1037E00018968C9380912E0E08131DC040932E0EB8
:1037F0001AC0289FD0011124AE58B74E482F1896F2
:103800008C918F3F21F680E01FBF882321F080E05C
:1038100014C08AE812C089E810C090912D0E492F7B
:10382000892F29E0EECF89E0089FF0011124EE589E
:10383000F74E1582148281E0E7CFDF91CF911F917F
:103840000F9108952F923F924F925F926F927F92C5
:103850008F929F92AF92BF92CF92DF92EF92FF92A0
:103860000F931F93CF93DF93CDB7DEB727970FB694
:10387000F894DEBF0FBECDBF17018A3008F0EFC04D
:103880000115110509F4EFC0482E512C5F824E82BC
:1038900039E0839FF0011124EE58F74E0480F58142
:1038A000E02DEF2B09F0DDC06A017B01A4E0F69466
:1038B000E794D794C794AA95D1F7222321F0213019
:1038C00009F0D1C020C0B701A601485051096109D3
:1038D0007109483F5F4F6F4F774010F08BE8E2C0AF
:1038E000E091E1003091E2002091E3009091E4004A
:1038F0004E2F532F622F792FC40ED51EE61EF71EB2
:10390000EFE0FE221EC0E091E1003091E200209144
:10391000E3009091E4004E2F532F622F792F260160
:103920003701441A550A660A770AB301A2017F706B
:103930004850510961097109483F5F4F6F4F774007
:1039400068F6BFB6F8948D830E942B1BA0912F0EB2
:103950008D81AF3F79F08090300EBA2F9A2FA12C35
:10396000F9E09F2EA7019601577029833A834B8374
:103970005C8356C080932F0E89E04E815F81849FC7
:10398000F001859FF00D1124EE58F74EA0874BC033
:103990009F3F09F444C0292F30E0929EF001939E8E
:1039A000F00D1124EE58F74E4081518162817381F0
:1039B00026013701442655266626772644245524B9
:1039C0006624E8EF7E22452846284728A1F44C15B6
:1039D0005D056E057F0508F448C029E04E805F80D4
:1039E000249DF001259DF00D1124EE58F74E90878F
:1039F000A9130FC00BC0777049805A806B807C8000
:103A0000441655066606770680F1E7CF80932F0EA1
:103A10000AC02B9FF0011124EE58F74E41C0A39429
:103A2000A810B6CF2CC089E06E807F80869DF00103
:103A3000879DF00D1124EE58F74EC082D182E282AC
:103A4000F38215830483378226828091300E8F5F44
:103A50008093300E0E94031ABFBE80E023C08AE824
:103A600021C088E81FC088EE1DC0929EF001939E81
:103A7000F00D1124EE58F74EB92F9085D0CF99E074
:103A80009B9FF0011124EE58F74E80878E809F8017
:103A9000989DF001999DF00D1124EE58F74E8FEF8F
:103AA0008087C1CF27960FB6F894DEBF0FBECDBF7B
:103AB000DF91CF911F910F91FF90EF90DF90CF900A
:103AC000BF90AF909F908F907F906F905F904F903E
:103AD0003F902F900895CF93DF930E942B1BC9E056
:103AE000DFEF29C03FB7F894A0912D0ECA9FD001F7
:103AF0001124AE58B74E18962C9118971496ED9144
:103B0000FC91159716968D919C9117971896DC93BA
:103B1000189715961C921E92149717961C921E9237
:103B2000169720932D0E2F3F11F420932E0E3FBF9A
:103B3000309709F0099580912D0E8F3F99F6DF910E
:103B4000CF9108951F920F920FB60F9211242F93C9
:103B50003F938F939F933091E1002091E2009091E9
:103B6000E3008091E4003093310E2093320E909365
:103B7000330E8093340E8091300E882319F081E04B
:103B80008093CC189F918F913F912F910F900FBEF2
:103B90000F901F9018951F920F920FB60F9211243D
:103BA0008F938FEF8093E4008093E3008093E20093
:103BB0008093E1008F910F900FBE0F901F9018958A
:103BC00081E00895749A6C9A749A6C9A749A6C9ABB
:103BD0000895613021F028F0623049F404C07498EF
:103BE0000895749A08958EB190E189278EB9089549
:103BF000759A6D9808958CB185FB882780F9089592
:103C0000089590E29CBBED9A93B7917F982B93BF58
:103C100083B7816083BF889583B78E7F83BF089504
:103C20001F920F920FB60F921124ED980F900FBEB6
:103C30000F901F901895EF92FF920F931F93CF93C1
:103C4000DF9385E39EE00E94C91E9AE3E92E9EE081
:103C5000F92E00E712E1C0E0D0E0F801F182E08245
:103C6000BE01660F771F660F771F60597D4E85E393
:103C70009EE00E94D01E2196FAE9EF0EF11C0C5F27
:103C80001F4FC730D10549F7DF91CF911F910F9199
:103C9000FF90EF90089560E070E085E39EE00C9463
:103CA000EB1E009729F0BC0185E39EE00C94D01E2A
:103CB00008959F92AF92BF92CF92DF92EF92FF92C0
:103CC0000F931F93CF93DF938C015B016A019FB623
:103CD000F894DC0114968C91811103C0C0E0D0E00F
:103CE0004AC0F801C081D18141155105B1F07E0172
:103CF00011C0D60112966D917C911397ED91FC91B4
:103D000088819981099581110BC09A818B817E01EF
:103D1000C92FD82F209769F7E1CF2097F9F27E01BC
:103D2000AB2849F5F801208131818A819B81C21736
:103D3000D30719F49183808305C0D70113969C9310
:103D40008E931297F80182819381C817D90711F4D5
:103D5000F382E282D80114968C91149781501496C4
:103D60008C9314978D919C911197892B21F4139624
:103D70001C921E9212979FBECE01DF91CF911F9190
:103D80000F91FF90EF90DF90CF90BF90AF909F90FA
:103D90000895FC0111821082138212821482089508
:103DA000FC019FB7F8948481811103C07183608303
:103DB00006C0A281B38113967C936E93129773838E
:103DC0006283DB0113961C921E92129784818F5F8F
:103DD00084839FBF0895AB0160E070E00C94591E8E
:103DE000AB0161E070E00C94591ECF93DF93EC01BE
:103DF0000BC060E070E0CE010E94EB1E009711F452
:103E00001C8205C00E94511E8C818111F2CFDF916E
:103E1000CF910895CF93809141018F71883089F4BB
:103E200081E080934F0189E080934201C3E080915B
:103E30004F0180FD06C08EE690E00E94F41AC1504A
:103E4000B1F7CF910895DF92EF92FF920F931F93F6
:103E5000CF93DF93CDB7DEB728970FB6F894DEBFC8
:103E60000FBECDBFF82E8091F6188F3009F046C0F6
:103E7000809139018D7F809339018E010B5F1F4F37
:103E8000C8010E94BE1AD02EE12E209141012F714F
:103E9000283021F1CE0101960E94BE1A49815A8133
:103EA0006B817C810D811E812F813885401B510BD8
:103EB000620B730B493E53406105710530F320914D
:103EC00039012260209339018D2D9E2D0E94BE1A4A
:103ED000209139012D7F20933901D7CF8FEF809327
:103EE0004F018CE480934E0188E0F81619F083E0CE
:103EF000F81204C088E08093F618FEC088E0F81637
:103F000009F453C08F1560F084E0F81609F463C01B
:103F100086E0F81609F46CC083E0F812E6C045C0EC
:103F20008FE0F81671F08F1520F089E0F812DDC0EF
:103F300042C086E1F81609F46BC089E1F812D5C0D9
:103F400094C083E0809342010E94A95A80936D013E
:103F500080916E01292F30E027703327887F822BD4
:103F600080936E018FEF80934F0180E880934E0124
:103F70000000000000000000000000000000000041
:103F80000000000000000000000000000000000031
:103F90008091390182608093390183E290E00E9430
:103FA000F41AF092F6188FE0A7C08091F6188830C6
:103FB00009F49BC088C08091F618883099F020F4ED
:103FC000863009F092C005C0863119F0893109F0B8
:103FD0008CC089E073C08091F618883019F0893060
:103FE00021F483C00E940A1F80C0F09242017DC06C
:103FF0008091F618893051F020F4883009F075C0AE
:1040000060C0863119F0893109F06FC086E056C072
:104010008091F618883009F454C020F4863009F0F5
:1040200064C007C0893019F0893109F05EC086E1AB
:1040300045C089E0809342010000000000000000BC
:104040000000000000000000000000000000000070
:104050000000000000000000809141018F718093FA
:10406000F618893009F048C02EC08091F6188830C3
:1040700041F120F4863009F038C005C0893019F1CB
:10408000863109F032C089E08093420100000000CF
:104090000000000000000000000000000000000020
:1040A00000000000000000000000000080914101BD
:1040B0008F718093F6188930F9F489E18093420179
:1040C00004C00E940A1FF09242010000000000009C
:1040D00000000000000000000000000000000000E0
:1040E00000000000000000000000809141018F717D
:1040F0008093F6188F31C9F328960FB6F894DEBF77
:104100000FBECDBFDF91CF911F910F91FF90EF9028
:10411000DF9008958091CD188823E1F08091FA18FE
:10412000811118C080918C1290918D12892B39F4D5
:104130008AE90E944B1E90938D1280938C1280917D
:104140008C1290918D12892B29F01092CD1886E156
:104150000E94231F8091D218882351F060E070E004
:104160008EEC98E10E94EB1E009711F00E94352121
:104170008091FA18823019F0853029F402C00C942D
:1041800076210C9427230895CF92DF92EF92FF922D
:104190000F931F93CF93DF93E0918C12F0918D12C8
:1041A000309709F459C000811181C0904701D09027
:1041B0007B01D7FC51C08D2D8E5FCAE9D0E0C81BB2
:1041C000D109C00FD11FED2CF12CC7010196AC0114
:1041D00060E871E0CE010E94B85ADA92F801D48703
:1041E000C387CE0DDF1DCA8280914C018F778093EB
:1041F0004C0182E090E00E94F41A80914C018068AA
:1042000080934C0183E880935C018091D518909154
:10421000D618A091D718B091D818F8018783908745
:10422000A187B28760918C1270918D128EEC98E10B
:104230000E94D01E8AE90E944B1E90938D1280939B
:104240008C12892B31F489E00E94231F81E0809336
:10425000CD1880E480934F01DF91CF911F910F9192
:10426000FF90EF90DF90CF900895CF93DF939C0164
:10427000FC01C081D181AB85BC85EC91E093F7183E
:10428000F0E03196EA0FFB1F408161818091F118C7
:1042900081111EC06D3318F4662319F003C06CE35E
:1042A00001C061E042954695469543708FEF489F67
:1042B000A0011124649FC001659F900D112464EB3F
:1042C00070E00E94C0576F3F710509F030F406C0DE
:1042D0006D3318F4660F660F01C06FEF60833A8389
:1042E0002983CE01DF91CF910C940C311092FA18F2
:1042F0004091F118E091F818F091F918208130E020
:10430000411108C0275F3F4F65E0220F331F6A95B8
:10431000E1F71AC0423041F4205F3F4F54E0220FD2
:10432000331F5A95E1F710C0403141F4225E3F4FF0
:1043300093E0220F331F9A95E1F706C0265C3F4FAA
:10434000220F331F220F331FE091D318F091D4189E
:10435000A385B48511968C9185FF1AC0442339F04A
:10436000423041F0403149F488EE90E008C080E6E8
:1043700091E005C080E191E002C084ED90E0280F5B
:10438000391F411103C020543F4F02C0205E3F4FF0
:1043900087819085A185B285821B930BA109B10904
:1043A00087839087A187B287A0918E12A83028F4C6
:1043B000B0E0AD57BD4F8C9101C085E8BF010C94B2
:1043C000BF40CF93DF93EC01662381F020916C0115
:1043D0008091F51830E1839FC00111242F70282BA4
:1043E00020936C01C230D105F0F409C080916C01BA
:1043F0008F7080936C01C230D105A8F410C08091F9
:104400006C012091ED1830E0220F331F2E703327FE
:10441000817F822B80936C0110926F011CC0809170
:104420006C018E6016C08091F41820E1829FC0015B
:1044300011249091EE18982B90936F0180916C014C
:104440002091ED1830E0220F331F2E703327817F2B
:10445000822B80936C0183E880935C0189E10E9448
:10446000231F8931D9F7219751F48091F7188331AF
:1044700018F080E492E005C080E890E002C089E096
:1044800090E00E94F41ACFB7F894809139018260CD
:1044900080933901809139018D7F80933901E091BA
:1044A000F818F091F918808190E00197AC01BF01F4
:1044B00080E891E00E94B85A81E08093FA18CFBF5B
:1044C000DF91CF910895FC01CB012091FA182111C1
:1044D00011C0F093D418E093D3182385348530931A
:1044E000F9182093F818232B39F0642F0E94E1214A
:1044F00080E0089586E8089588EE0895CF93C091EE
:10450000FA18C13009F58091D3189091D418079604
:104510000E94DB1A80914201829586958770809374
:104520008E1282E08093FA1880918C1290918D12F5
:10453000892B31F489E00E94231FC093CD1804C059
:1045400086E1CF910C94231FCF910895809147016C
:1045500090918F12981710F480938F12809190127F
:1045600090919112A0919212B09193120197A1098A
:10457000B1098093901290939112A0939212B093EC
:104580009312892B8A2B8B2B21F08FEF809347017D
:10459000089585E08093FA180895CF93DF93D82F7C
:1045A0008091FA18882339F08091F6188F3009F03D
:1045B0004AC081E849C084E00E94231F90915501C0
:1045C000906890935501C0E1C0934F0186EA92E252
:1045D0000E94FC17C0934E0186E00E94231F863084
:1045E00051F0809155018F77809355018CE4809331
:1045F0004E0185E829C084E08093FA1810928F124A
:1046000040EC53E060E070E004C0440F551F661FAB
:10461000771FDA95D2F740545C4F6F4F7F4F83E09E
:1046200076956795579547958A95D1F7409390125F
:104630005093911260939212709393128FEF809324
:10464000470180E001C086E8DF91CF910895809115
:1046500055018F77809355018CE480934E01109221
:10466000FA1886E10E94231F80918F12883320F070
:104670008FEF80938F120AC02FEF829FC001112409
:1046800067E370E00E94C05760938F1280918F1291
:104690000C948445982F85FD02C09F7303C09195AB
:1046A0009F719195E0E2F1E0E491E9170CF405C007
:1046B000EFE2F1E0E4919E176CF4E03E44F0E0326A
:1046C00044F48E2FE7FF06C08F71806203C080E242
:1046D00001C08FE180680895982F85FD02C09F7307
:1046E00003C091959F71919520E030E0822FF901F0
:1046F000E05EFE4FE4919E1724F0E91744F48150E8
:1047000008952F5F3F4F2031310581F780E00895F4
:104710002AE031E03093EA182093E9189AE0909368
:10472000F21892E09093F318823091F018F48823F5
:1047300031F034C0803189F0813181F520C0809121
:104740004C018C7F80934C01809157018B7F0EC070
:1047500080914C018C7F816004C080914C018C7FE2
:10476000826080934C01809157018460809357014F
:1047700080915501807F8093550181E0089580915B
:104780004C01836080934C01809157018460809339
:10479000570180915501807F8160EDCF80E00895C1
:1047A00084E08093ED1823E02093EE188FEF9FEFC5
:1047B0009093E8188093E7189093E6188093E51893
:1047C0008BE08093EC181092F11880E098EFAFEF37
:1047D000B7E08093E1189093E218A093E318B093A8
:1047E000E4188AE091E09093EA188093E9188AE04F
:1047F0008093F21882E08093F31885E08093F41898
:104800002093F51884E80E944A238093F01881E0F1
:104810008093EB181092EF1808958091E718809319
:1048200062018091E81880936301E4E6F1E0A9ED6C
:10483000B8E18D918193EC3631E0F307D1F78091A7
:10484000E518809360018091E618809361012091C2
:1048500048018091EB1830E2839FC00111248076DB
:1048600099272F79282B2093480190916F018091EF
:10487000EE188F70907F892B80936F0180916E016D
:104880009091EF1890FB83F980936E0120916F0156
:104890008091F41830E1839FC00111242F70282BE0
:1048A00020936F018091F1180E9488239091480114
:1048B0008091EC188F71907E892B809348018091B4
:1048C000F0180E946C23909145018F70907F892B86
:1048D0008093450183E880935C0108951F93CF93F3
:1048E000DF93EB019091FA18943009F4FEC08E34F6
:1048F00031F0893541F488818093F518EDC08881C5
:104900008093ED18E9C02091F6182F3009F4E9C022
:104910008B3009F4D8C070F4823009F492C018F4D6
:104920008823C9F1E0C0833009F49AC0843009F0CB
:10493000DAC05EC0833521F130F48F3459F0803510
:1049400009F0D1C012C0873509F46DC0803F09F06D
:10495000CAC096C088818093EE1890916F018F70C5
:10496000907F892B80936F01B7C098818981909344
:10497000E7188093E8189093620180936301ACC0BC
:10498000988189819093E5188093E618909360014F
:1049900080936101A1C09111A8C080E098EFAFEFB2
:1049A000B7E0088004C0B695A795979587950A94B7
:1049B000D2F780FD02C088EE99C0283039F088E037
:1049C0000E94231F8830D9F726E101C028E08881A2
:1049D0008093EC18909148018F71907E892B809381
:1049E0004801283009F478C086E10E94231F74C072
:1049F00091117BC0283039F088E00E94231F883055
:104A0000D9F716E101C018E0C8818C2F0E948823D5
:104A1000D82F183019F086E10E94231FDD2359F2A8
:104A2000C093F11859C088818093F41820916F01C8
:104A300030E1839FC00111242F70282B20936F0138
:104A40004BC088810E944A238093F0180E946C23F7
:104A5000909145018F70907F892B809345013CC0D8
:104A600088818093EB182091480130E2839FC00138
:104A70001124807699272F79282B209348012CC068
:104A800088818093D91889818093DA188A818093EC
:104A9000DB188B818093DC188C818093DD188D81ED
:104AA0008093DE188E818093DF188F818093E018C9
:104AB000E4E6F1E0A9EDB8E18D918193EC3681E077
:104AC000F807D1F709C098819093EF1880916E0193
:104AD00090FB83F980936E0183E880935C0180E012
:104AE00005C081E803C084EF01C086E8DF91CF9163
:104AF0001F910895CF93809139018D7F8093390163
:104B000080EF90E00E94F41A809139018E7F8093AB
:104B1000390181E090E00E94F41A809139018160AE
:104B200080933901CBE084E690E00E94F41A8091F2
:104B300041018F71C15031F08830A9F78093F61888
:104B400080E001C085E8CF910895CF93DF930E9464
:104B5000A95A80936D01CEE6D1E08881292F30E0FB
:104B600027703327887F822B888380E00E94E82685
:104B70000E940627888180628883ECE4F1E08081CE
:104B8000806880838CE480934E01DF91CF910895FB
:104B9000CF93DF9386E00E94231F8630D9F7809160
:104BA00055018F778093550110924E0128E0C0E0A7
:104BB000D0E030914601CE01880F991F880F991FD0
:104BC0003076C32FD0E055E0D595C7955A95E1F7DB
:104BD000C82BD92B000000000000000000000000DE
:104BE00000000000000000000000000000000000C5
:104BF000000000002150E9F683E00E94231F8FEFA0
:104C000080934F018CE480934E01CE01DF91CF91D0
:104C10000C94AD5ACF93C82F0E947A2581112DC0D4
:104C20000E94C8250E94A525C1110E94D0230E9480
:104C30000D241092FA181092CD180AC060E070E0AE
:104C40008EEC98E10E94EB1E009711F00E94511E1D
:104C50008091D2188111F2CF8C2F0E94B54B88E041
:104C600080934F0180E480934F0184E080934F0153
:104C700080E880934F0180E001C085E8CF910895DE
:104C8000CF93DF930E946C1981118AC08091390102
:104C9000816080933901809139018D7F8093390142
:104CA0008CE791E00E94F41A809139018E7F809305
:104CB000390181E090E00E94F41A8091390181600D
:104CC00080933901CBE084E690E00E94F41A809151
:104CD00041018F71C15009F463C08830A1F78093FE
:104CE000F61880915C01833809F05AC04BC00E94CD
:104CF000C8250E94A5250E94D0230E940D24109251
:104D0000FA181092CD1809C0C9EDD8E10E94A95A2D
:104D1000899388E1C13ED807C9F72091D91830910D
:104D2000DA184091DB185091DC186091DD18709111
:104D3000DE188091DF189091E018AFEF0E9497582D
:104D4000ADEF0E94B55809F0F8F684ED96E20E94A6
:104D5000F7178CED96E20E94F21784EE96E20E941D
:104D600001180E941B1E8AE90E944B1E90938D120F
:104D700080938C128EEC98E10E94C91E0E94AB4B6E
:104D800080E00FC029ED38E148E050E060E070E0DD
:104D900080E00E9481190E947A25811101C0A7CF6D
:104DA00085E8DF91CF910895CF93CFB7F8940E9413
:104DB000C420CFBFCF910895CF93CFB7F8940E946E
:104DC0007E22CFBFCF91089585ED98E10C94DB1A38
:104DD000811116C08091F6188F30A1F08091FA18D9
:104DE000811112C01092CD1888E00E94231F8830D4
:104DF000D9F78FE00E94231F8F3031F480E00895AF
:104E000088EE089581E8089586E808958091F6185F
:104E10008F3039F488E00E94231F883021F480E02D
:104E2000089582E8089585E808959091FA189111FF
:104E300017C0883031F40E94231F1092CD1888E0EB
:104E4000089580918C1290918D12892B21F086E12A
:104E50000E94231F03C081E08093CD1886E008954F
:104E600086E80895DC01ED91FC9124E120836383C1
:104E700052834183BC018AE999E10C94D01E0F93BF
:104E80001F93CF93DF9300D0CDB7DEB74FEF5FEF27
:104E90006BEE80911319909114190E943227109291
:104EA0000A190FEF1FEF1A830983BE016F5F7F4F4F
:104EB00080E50E94213E1093541900935319E9E4B0
:104EC000F9E11082118212821382148215821682F5
:104ED00017820E94C93A0F900F90DF91CF911F91D6
:104EE0000F910895DF92EF92FF920F931F93CF934C
:104EF000DF93CDB7DEB72F970FB6F894DEBF0FBEA6
:104F0000CDBF7C01DC01ED91FC918FE0DE011196BB
:104F100001900D928A95E1F7F0921419E09213191D
:104F20008C81823019F48F8198851AC08F8180938B
:104F30004919888580934A19898580934B198A85F8
:104F400080934C198B8580934D198C8580934E19D5
:104F50008D8580934F198E85809350198EEF9FEF2A
:104F60009093541980935319BE016B5F7F4F80E576
:104F70000E94213E0E94F13AF7010081118181E0F7
:104F8000D8018C931296FC92EE921197F801EA5692
:104F9000FF4F8083F801E956FF4F8F858083F8012A
:104FA000E257FF4F8091D91880838091DA1881836E
:104FB0008091DB1882838091DC1883838091DD18D7
:104FC00084838091DE1885838091DF1886838091A9
:104FD000E0188783F801E457FF4F8FEF9FEF91832D
:104FE00080838C81F801823061F4E657FF4F809115
:104FF0005319909154199183808383E298EC45E191
:105000001DC0EC57FF4F80914919808380914A1948
:10501000818380914B19828380914C198383809185
:105020004D19848380914E19858380914F19868311
:1050300080915019878383E29CEC4BE12091E71823
:105040003091E818DF0112972D933C9320915F195E
:10505000DF0113972C932F5F20935F19DF011597C2
:105060008D939C9336974083D8011C96FC93EE93C6
:105070001B97BE016D5F7F4F84E00E94213ED82EBA
:10508000BE016E5F7F4F80E00E94213ED1100EC0B6
:1050900081110CC041E062E070E0C8010E9463220F
:1050A000811104C081E08093981908C04FEF5FEF31
:1050B00061EEC7010E9432270E94C93A2F960FB6AF
:1050C000F894DEBF0FBECDBFDF91CF911F910F913E
:1050D000FF90EF90DF900895DC01ED91FC9120911D
:1050E0005919211102C00C94511EB0917F19A09141
:1050F00080197091811960918219509183194091A2
:1051000084193091851920918619B183A283738304
:105110006483558346833783208720918E192187A6
:1051200023E12083BC018AE999E10C94D01EEF921F
:10513000FF920F931F93CF93DF93FC01C081D18126
:10514000F9800A811B81BC81AD817E816F81588588
:1051500029853A85EB84409197194250423040F0BE
:10516000DF91CF911F910F91FF90EF900C94511E02
:1051700042E04883FE01EC56FF4F4083FE01EB56B0
:10518000FF4F31832083FE01E956FF4FE082FE018D
:10519000E457FF4F2091D91820832091DA182183FA
:1051A0002091DB1822832091DC1823832091DD18C5
:1051B00024832091DE1825832091DF1826832091F7
:1051C000E0182783FE01EC57FF4FF0820183128322
:1051D000B383A483758366835783FE01EE57FF4F25
:1051E0002091E7183091E8183183208320915F19CE
:1051F000FE01EF57FF4F20832F5F20935F19FE01C1
:10520000E158FF4F23E63CEC31832083FE01E25856
:10521000FF4F2BE12083FC87EB871E82BC018CEFC4
:1052200098E10E94D01E80915119909152199D834E
:105230008C8381E00E941E1B811108C0DF91CF91F9
:105240001F910F91FF90EF900C94BF37DF91CF919A
:105250001F910F91FF90EF900895FF920F931F936E
:10526000CF93DF9300D0CDB7DEB7F09090190E94B6
:10527000511EF11036C06EE879E183E50E94213EAF
:1052800040918E1950918F1980917F1980934919FF
:105290008091801980934A198091811980934B19CC
:1052A0008091821980934C198091831980934D19B4
:1052B0008091841980934E198091851980934F199C
:1052C000809186198093501981E0809397191092EC
:1052D0000A1980911119833031F582E080931119F8
:1052E00022C010920A190FEF1FEF1A830983BE0123
:1052F0006F5F7F4F80E50E94213E10935419009309
:1053000053191092491910924A1910924B19109280
:105310004C1910924D1910924E1910924F1910926B
:1053200050194FEF5FEF6F2D809113199091141961
:105330000E9432270E94C93A0F900F90DF91CF91BF
:105340001F910F91FF900895EF92FF920F931F937B
:10535000CF93DF93C0915719D091581900E010E016
:1053600020E030E040E061E080E00E94783181118F
:105370000FC04FEF5FEF61EE8091131990911419F8
:10538000DF91CF911F910F91FF90EF900C943227F6
:10539000AE0160E070E084E0440F551F661F771F88
:1053A0008A95D1F7E12CF12C0FE317E220E080E0A1
:1053B0000E94221C882351F080E090E0DF91CF9181
:1053C0001F910F91FF90EF900C943F27DF91CF91A9
:1053D0001F910F91FF90EF900895CF93FC012091C2
:1053E0006C1940916D19542F5295569556955370DE
:1053F00046954695437009F441C080819181909310
:105400007319809372194230C9F410927419109272
:1054100075191092761910927719109278191092C6
:10542000791910927A1910927B1982819381909345
:10543000751980937419349684E021C0433019F0B3
:10544000329682E01CC0C281B381A48175816681DD
:10545000378190858185C0937419B0937519A09395
:10546000761970937719609378193093791990931E
:105470007A1980937B193A968AE001C080E055231F
:1054800009F447C026FD08C02191319130937E195F
:1054900020937D198E5F08C0209172193091731985
:1054A00030937E1920937D195230C1F410927F19E8
:1054B00010928019109281191092821910928319FA
:1054C00010928419109285191092861920813181C9
:1054D0003093801920937F198E5F1BC05330C9F41D
:1054E000C081B181A28173816481358126819781D8
:1054F000C0937F19B0938019A0938119709382197A
:105500006093831930938419209385199093861999
:10551000885F90916F199550981B90938D195093B7
:105520007C1940937119CF910895209196122730DC
:10553000E8F4FC01A385B48512968C9112978695A8
:1055400086958370823091F4E0919412F0919512D7
:105550003297F0939512E093941216968D919C9148
:105560001797918380832F5F2093961280E0089590
:10557000209196122730E8F4DC011B96ED91FC9106
:105580001C978281869586958370833091F4A091D3
:105590009412B09195121897B0939512A09394120B
:1055A000369688E001900D928A95E1F72F5F20935F
:1055B000961280E00895DF92EF92FF920F931F936F
:1055C000CF93DF9300D000D01F92CDB7DEB7DB01C1
:1055D000ED90FC90F701728361838AE080838701FC
:1055E00008561F4F40915A19442371F0041B1109AA
:1055F000242F235F85E199E150E0BC01C8012D8390
:105600000E94B85A2D8101C02DE080910019882395
:1056100009F441C0109395120093941210929612BF
:1056200088EB9AE29A838983BE016F5F7F4F8CEF8C
:1056300098E12D830E94F01ED0909612109296123F
:1056400045E95AE25A834983BE016F5F7F4F8CEF71
:1056500098E10E94F01EE0919612A0919412B091F0
:10566000951211978D2D90E0AC0194E0440F551FD9
:105670009A95E1F74E2B4C93F4E0DF9EE00D112458
:10568000EE0FE09396122D812E0FF0E0E095F0954D
:10569000E00FF11F02C0F8011292DF0111971C9276
:1056A00080919719833019F08FEF9FE002C08FEF40
:1056B0009FE43091591931119068DF0113978D9350
:1056C0009C938091E5189091E6188E3F3FEF9307E9
:1056D000E9F43B972A5FA091D9187091DA1860918C
:1056E000DB185091DC184091DD183091DE18909154
:1056F000DF188091E018A083718362835383448311
:1057000035839683878380E090EC05C0359791833D
:10571000808380E090E84091E7185091E818DF011D
:1057200012974D935C9330915B19DF0113973C9373
:105730003F5F30935B19DF0115978D939C933697EC
:105740002083D7011C96FC93EE931B9740E062E008
:1057500070E0C7010E94632281E0809398190F9046
:105760000F900F900F900F90DF91CF911F910F919D
:10577000FF90EF90DF900895BC0180E00C94DB2A4D
:105780008F929F92AF92BF92CF92DF92EF920F9340
:10579000CF93DF93CDB7DEB766970FB6F894DEBF31
:1057A0000FBECDBF4C01DC01ED91FC9181818C8756
:1057B000828193819E878D8774816581568147811F
:1057C00030852185928583857F87688B598B4A8BAD
:1057D0003B8B2C8B9D8B8E8B8485898385859685D1
:1057E0009B838A8387858C8380898D8381898E833F
:1057F00082898F83838988878489898785898A8735
:1058000086898B87A18CB28CC38CD48C268D378DE6
:10581000E08C0789458DBE016F5F7F4FCE010C96EE
:105820000E94D104C4010E94511E66960FB6F894DE
:10583000DEBF0FBECDBFDF91CF910F91EF90DF9014
:10584000CF90BF90AF909F908F900895CF93DF93AC
:10585000EC01E881F981238134814581568162819F
:1058600081810E94A402CE01DF91CF910C94511E40
:10587000CF93DF93EC01E881F981628181810E94FD
:10588000044BCE01DF91CF910C94511ECF93DF9347
:10589000EC01E881F9816381818192810E947D021E
:1058A000CE01DF91CF910C94511E0F93CF93DF93D4
:1058B000EC01E881F9812181328143815481658144
:1058C00076810185878190850E945803CE01DF9102
:1058D000CF910F910C94511EEF92FF920F93CF93A3
:1058E000DF93EC01E881F981E38CF48C208D318D1C
:1058F000BF016E5F7F4F028D478981810E94054BFA
:10590000CE01DF91CF910F91FF90EF900C94511E3B
:105910000F931F93CF93DF93CDB7DEB766970FB684
:10592000F894DEBF0FBECDBF8C01DC01ED91FC9180
:10593000818192819E878D8723812C87B481A58167
:10594000768167815085418532852385BF87A88B05
:10595000798B6A8B5B8B4C8B3D8B2E8B9B838A83E5
:105960008485898385858C8386858D8387858E83D1
:1059700080898F83818988878289898783898A87BB
:1059800084898B874589BE016F5F7F4FCE010C965E
:105990000E94A302C8010E94511E66960FB6F89499
:1059A000DEBF0FBECDBFDF91CF911F910F91089544
:1059B0000F931F93CF93DF93CDB7DEB72B970FB61F
:1059C000F894DEBF0FBECDBF8C01DC01ED91FC91E0
:1059D00082818983838194819B838A837581668197
:1059E0005781408531852285938584857C836D83AD
:1059F0005E834F83388729879A878B87BE016F5FC5
:105A00007F4F81810E94064BC8010E94511E2B9638
:105A10000FB6F894DEBF0FBECDBFDF91CF911F91BF
:105A20000F9108950F93CF93DF93EC01E881F981F3
:105A3000218132814381548165817681018587810D
:105A400090850E94074BCE01DF91CF910F910C946E
:105A5000511ECF93DF93EC01E881F981AF014D5FD7
:105A60005F4F628181810E94084BCE01DF91CF910F
:105A70000C94511ECF93DF93EC01E881F9812181D1
:105A800032814381548165817681878190850E942E
:105A9000094BCE01DF91CF910C94511ECF93DF9330
:105AA000EC01E881F98181810E940A4BCE01DF91EE
:105AB000CF910C94511ECF93DF93EC01E881F981D3
:105AC00081810E940C01CE01DF91CF910C94511E77
:105AD000CF93DF93EC01E881F98181810E940B4B28
