:100000000C9441050C9460050C9460050C946005FB
:100010000C9460050C9460050C9491220C9460057E
:100020000C9460050C9460050C9460050C946005BC
:100030000C9460050C9460050C9460050C946005AC
:100040000C9460050C9460050C9460050C9460059C
:100050000C9460050C9460050C9460050C9460058C
:100060000C9460050C94ED1B0C9460050C94191C09
:100070000C9460050C9460050C9460050C9460056C
:100080000C9460050C9460050C9460050C9460055C
:100090000C9460050C9460050C9460050C9460054C
:1000A0000C9460050C9460050C9460050C9460053C
:1000B0000C9460050C9460050C9460050C9460052C
:1000C0000C9460050C9460050C9460050C9460051C
:1000D0000C9460050C9460050C9460050C9460050C
:1000E0000C9460050C942E1D0C94381D0C94031D6B
:1000F0000C94A31C0C94CE1C0C94421D0C94781CE4
:100100000C94F91C0C9423220C944C220C94600542
:100110000C9460050C9460050C94561D0C944C1DB9
:10012000417373657274696F6E204661696C6564B2
:10013000206F6E2046696C652025732C206C696EDB
:10014000652025642C2065787072657373696F6E05
:100150002025730A0022436F7272757074656420E3
:10016000717565756522203D3D2030002274616CFB
:100170005F7374617465206973206E6F74206861A9
:100180006E646C656422203D3D20300022737461F2
:100190007465207472616E736974696F6E206E6F1E
:1001A000742068616E646C656422203D3D203000DF
:1001B000227374617465207472616E736974696FFF
:1001C0006E206E6F742068616E646C656422203DE1
:1001D0003D203000227374617465207472616E7307
:1001E0006974696F6E206E6F742068616E646C65EF
:1001F0006422203D3D2030002273746174652074B8
:1002000072616E736974696F6E206E6F74206861BD
:100210006E646C656422203D3D203000227472784B
:1002200020636F6D6D616E64206E6F742068616E07
:10023000646C656422203D3D20300022504C4C20EF
:10024000737769746368206661696C656422203D18
:100250003D2030002253776974636820504C4C5F16
:100260004F4E206661696C65642C20626563617520
:10027000736520747278206973206E6F7420696EC4
:10028000205452585F4F464622203D3D20300022E8
:100290006E6F2074616C5F72785F627566666572FE
:1002A00020617661696C61626C6522203D3D203081
:1002B0000022556E65787065637465642074616CA6
:1002C0005F74785F737461746522203D3D20300057
:1002D0002254414C2069732054414C5F425553597C
:1002E00022203D3D20300004030302020100FFFEF6
:1002F000FDFCFBF9F7F4EF2254414C2069732062B6
:1003000075737922203D3D2030004D41435F5355A8
:100310004343455353203D3D207365745F737461BF
:10032000747573004D41435F535543434553532008
:100330003D3D20737461747573004D41435F5355A7
:100340004343455353203D3D207374617475735F7F
:100350003200224D414320697320616C72656164F3
:1003600079206275737922203D3D2030004D414354
:100370005F53554343455353203D3D207365745FA0
:10038000737461747573004D41435F535543434526
:100390005353203D3D207365745F737461747573AE
:1003A000004D41435F53554343455353203D3D204A
:1003B00074696D65725F737461747573004D414348
:1003C0005F53554343455353203D3D207365745F50
:1003D00073746174757300224D4143206973206109
:1003E0006C7265616479206275737922203D3D20CD
:1003F000300022556E737570706F72746564204D95
:100400004143206672616D6520696E20737461746A
:1004100065204D41435F4558504C494349545F5016
:100420004F4C4C206F72204D41435F504F4C4C5FFE
:10043000494D504C4943495422203D3D2030002233
:10044000545F506F6C6C5F576169745F54696D6580
:1004500020746D7220647572696E67206173736FAA
:1004600063696174696F6E2072756E6E696E672262
:10047000203D3D2030002252656365697665642029
:100480006672616D6520696E20756E737570706F30
:1004900072746564204D414320706F6C6C207374DE
:1004A00061746522203D3D20300022556E737570C9
:1004B000706F72746564204D414320636F6D6D6190
:1004C0006E6420696E2070617273655F4D50445593
:1004D00022203D3D20300022556E657870656374A2
:1004E00065642054414C206461746120696E6469C4
:1004F000636174696F6E22203D3D203000224D41C2
:100500004320697320616C72656164792062757340
:100510007922203D3D20300022556E65787065635C
:100520007465642054414C206461746120696E6478
:1005300069636174696F6E207768696C65206368B0
:1005400065636B696E67206D61635F7363616E5F86
:10055000737461746522203D3D203000224E756C1D
:100560006C206672616D652046726F6D2054414C3F
:1005700022203D3D203000224D41432069732061FF
:100580006C7265616479206275737922203D3D202B
:100590003000224E6569746865722050414E2063B8
:1005A0006F6F7264696E61746F72206E6F72206318
:1005B0006F6F7264696E61746F7222203D3D2030EE
:1005C0000022556E657870656374656420616464AB
:1005D00072657373696E67206D6F646522203D3D9F
:1005E000203000224D414320697320616C726561A7
:1005F0006479206275737922203D3D203000224DC0
:10060000414320697320616C726561647920627571
:10061000737922203D3D203000224D4143206973F3
:1006200020616C7265616479206275737922203D66
:100630003D2030002934572CB02D3E3EB93FA9391A
:100640003844C341E0411B41A948994B0000544D37
:10065000AC4400006E31083180319D318E315A3208
:100660002032B431000000008232BD32D031FA3283
:100670007132DF32A332B032ED32963222446973E6
:1006800070617463682068616E646C657220756E59
:10069000617661696C61626C6522203D3D203000AD
:1006A000224D414320697320616C72656164792039
:1006B0006275737922203D3D2030007472616E7343
:1006C0005F6672616D652D3E696E64697265637403
:1006D0005F696E5F7472616E736974203D3D206660
:1006E000616C73650022556E6B6E6F776E2062755C
:1006F000665F707472207479706522203D3D2030F1
:100700000022496E646972656374206461746120BB
:1007100070657273697374656E63652074696D6565
:1007200072207374617274206661696C6564222042
:100730003D3D2030004D41435F53554343455353A6
:10074000203D3D207365745F737461747573004D53
:1007500041435F53554343455353203D3D2073650B
:10076000745F737461747573000104010101020107
:10077000010101010101010101040108020101015E
:100780000102010102010201010201020201010153
:100790000108224D414320776173206E6F742062FF
:1007A00075737922203D3D203000224672616D65CF
:1007B000207265737020746D722072756E6E696E32
:1007C0006722203D3D203000224D41432077617358
:1007D000206E6F74206275737922203D3D203000B9
:1007E000224D414320776173206E6F7420627573D0
:1007F0007922203D3D2030004D41435F5355434316
:10080000455353203D3D2073746174757300224D30
:10081000414320697320616C72656164792062755F
:10082000737922203D3D20300022556E6B6E6F772C
:100830006E206D6573736167652074797065222021
:100840003D3D2030004D41435F5355434345535395
:10085000203D3D2074696D65725F737461747573BA
:1008600000224D414320697320616C726561647997
:10087000206275737922203D3D2030004D41435F59
:1008800053554343455353203D3D2074696D657274
:100890005F737461747573004D41435F53554343F7
:1008A000455353203D3D207365745F7374617475C7
:1008B00073004D41435F53554343455353203D3DE2
:1008C000207365745F73746174757300224D4143C6
:1008D00020697320616C7265616479206275737937
:1008E00022203D3D2030004D41435F535543434559
:1008F0005353203D3D207365745F73746174757349
:10090000004D41435F53554343455353203D3D20E4
:100910007365745F737461747573004D41435F5305
:10092000554343455353203D3D207365745F7374B5
:100930006174757300224D414320776173206E6F9F
:1009400074206275737922203D3D2030004D414373
:100950005F53554343455353203D3D207365745FBA
:10096000737461747573004D41435F535543434540
:100970005353203D3D207365745F737461747573C8
:10098000004D41435F53554343455353203D3D2064
:100990007365745F737461747573004D41435F5385
:1009A000554343455353203D3D207365745F737435
:1009B00061747573004D41435F5355434345535331
:1009C000203D3D206368616E6E656C5F7061676598
:1009D0005F7365745F737461747573004D41435F39
:1009E00053554343455353203D3D206368616E6E2C
:1009F000656C5F7365745F737461747573004D41EA
:100A0000435F53554343455353203D3D2073657425
:100A10005F737461747573004D41435F5355434375
:100A2000455353203D3D207365745F737461747545
:100A300073004D41435F53554343455353203D3D60
:100A4000207365745F737461747573004D41435F07
:100A500053554343455353203D3D207365745F73A5
:100A6000746174757300224D414320697320616C79
:100A70007265616479206275737922203D3D203072
:100A8000000011241FBECFEFD1E4DEBFCDBF13E1C4
:100A9000A0E0B2E0E4E6FCEC00E00BBF02C007908F
:100AA0000D92A034B107D9F720E2A0E4B3E101C070
:100AB0001D92A831B207E1F70E949D5B0C9430664D
:100AC0000C94000085E00C94F01FEF92FF920F93BE
:100AD0001F9362E080E090E00E946A22E12CF12CFA
:100AE00005E615E020E040E251EA67E070E085E0CD
:100AF0000E94A3201F910F91FF90EF900895EF9215
:100B0000FF920F931F93CF93DF9300D0CDB7DEB743
:100B100090913319811141C0992321F08EEE94E018
:100B20000E94F262809145139091461320913319EF
:100B3000892B99F4222341F08AEF94E09F938F93BD
:100B40000E94B6620F900F9019821A82BE016F5FE9
:100B50007F4F83E50E9477512DC0222341F08BE225
:100B600095E09F938F930E94B6620F900F9000E0E4
:100B700024E040E058EF6FEF77E081E00E94EB5116
:100B8000E12CF12C05E615E020E040E251EA67E0B7
:100B900070E085E00E94A3200DC0992341F08CE411
:100BA00095E09F938F930E94B6620F900F9081E023
:100BB0000E9449510F900F90DF91CF911F910F919B
:100BC000FF90EF900895CF92DF92EF920F93CF9323
:100BD000DF93909132199F5F90933219909133195E
:100BE0008111DFC0992321F08AE695E00E94F2622C
:100BF000E60120E0BAC03B85343109F0B4C08C85F1
:100C00008111B1C089819A818E3B9A4509F0ABC0B0
:100C10008D859E8597FFA7C0809133198823B1F0F9
:100C20001F921F921F923F938AE58F938EEB8F93B3
:100C30008AE795E09F938F930E94B6628DB79EB727
:100C400008960FB6F8949EBF0FBE8DBF9881809115
:100C500033199230C9F4882381F0809125198F933C
:100C6000809124198F9387EA95E09F938F930E9438
:100C7000B6620F900F900F900F908B819C81909394
:100C800025198093241957C0933009F041C0882357
:100C900031F180912D198F9380912C198F93809130
:100CA0002B198F9380912A198F93809129198F93F3
:100CB000809128198F93809127198F9380912619FD
:100CC0008F9387EC95E09F938F930E94B6628DB7C8
:100CD0009EB70A960FB6F8949EBF0FBE8DBF7B815C
:100CE0006C815D814E813F81288599858A857093CD
:100CF0002619609327195093281940932919309386
:100D00002A1920932B1990932C1980932D1913C015
:100D1000882341F08CE495E09F938F930E94B66204
:100D20000F900F9081E0DF91CF910F91EF90DF90C6
:100D3000CF900C94495180913319882341F088ED6C
:100D400095E09F938F930E94B6620F900F9020E8DA
:100D5000AE016C858B85DF91CF910F91EF90DF9085
:100D6000CF900C94395065962F5F2E1144CF9091FF
:100D7000321980913319933058F6882341F083EF6C
:100D800095E09F938F930E94B6620F900F9000E0C2
:100D900024E040E058EF6FEF77E081E00E94EB51F4
:100DA00017C08A3E89F4992341F08EE296E09F9322
:100DB0008F930E94B6620F900F908091321983300A
:100DC00030F380913319A4CF992309F4ABCFA2CF8C
:100DD000DF91CF910F91EF90DF90CF9008958091A8
:100DE0003319611115C0882321F08BE696E00E942B
:100DF000F26285E00E94F01F60E080E090E00E94D7
:100E00006A2283E090E09093351980933419089515
:100E1000882341F08CE495E09F938F930E94B66203
:100E20000F900F9081E00C9449510895611110C00A
:100E300080913319882321F084E996E00E94F262C0
:100E400081E08093851D61E080E090E00C946A224F
:100E50000895AF92CF92EF920F93CF93DF931F92AB
:100E6000CDB7DEB7811143C080913319633589F462
:100E7000882341F08CEA96E09F938F930E94B6629C
:100E80000F900F9081E08983BE016F5F7F4F81E4F7
:100E900012C0613499F4882341F08FEE96E09F935D
:100EA0008F930E94B6620F900F9081E08983BE01FC
:100EB0006F5F7F4F82E50E94775128C06235B9F499
:100EC000882341F080E397E09F938F930E94B6625E
:100ED0000F900F90A12CC12CEE24E3940FE02FE093
:100EE00040E064E18EEB9AE50E9423520FC08091AE
:100EF0003319882341F08CE495E09F938F930E94EF
:100F0000B6620F900F9081E00E9449510F90DF91DF
:100F1000CF910F91EF90CF90AF90089590913319AA
:100F200081112AC09923C9F01F921F921F921F920C
:100F30001F9284E18F938AE58F938EEB8F9388E6DF
:100F400097E09F938F930E94B6628DB79EB70A96E3
:100F50000FB6F8949EBF0FBE8DBF85E00E94F01FB4
:100F600060E080E090E00E946A2282E090E090934E
:100F70003519809334190895992341F08CE495E054
:100F80009F938F930E94B6620F900F9081E00C9414
:100F900049512F923F924F925F926F927F928F9220
:100FA0009F92AF92BF92CF92DF92EF92FF920F93F8
:100FB0001F93CF93DF9300D000D01F92CDB7DEB741
:100FC000722E632E49835A83562E472E382E292E91
:100FD00080913319882379F13F932F9349815A8166
:100FE000832D00E10E9412603F932F93272D362D11
:100FF00049815A81652D742D832D922D00E20E9426
:1010000012603F932F93272D362D49815A81652DEC
:10101000742D832D922D00E30E9412603F932F9335
:1010200089EC97E09F938F930E94B6620FB6F89475
:10103000DEBF0FBECDBF80913319811108C06EE3B2
:10104000862E69E1962EF4011C821B8271C08BE012
:1010500098E00E94F2628EE399E19C838B83812C5D
:10106000912C50E2A52E58E0B52EAB81BC81129692
:10107000FC9112971396EC9113971496DC901497A9
:101080001596EC9015971696FC90169717961C914E
:1010900017971896CC9018971996BC91BD83EF932B
:1010A000FF932F2F3E2F4D2D5E2D6F2D712F8C2DE9
:1010B0009D8100E10E9412603F932F932F2F3E2FBE
:1010C0004D2D5E2D6F2D712F8C2D9D8100E20E9484
:1010D00012603F932F932F2F3E2F4D2D5E2D6F2D9E
:1010E000712F8C2D9D8100E30E9412603F932F93FE
:1010F000EB81FC8181818F9380818F939F928F926E
:10110000BF92AF920E94B662FFEF8F1A9F0A2B81A7
:101110003C81265F3F4F3C832B830FB6F894DEBFA4
:101120000FBECDBF94E68916910409F09ECF87CFFC
:1011300080819181892B41F12281338144815581C4
:101140006681778180859185A72CB62CC980DA804D
:10115000E52CF42C032D122D0E943F60A9F4809100
:101160003319882321F080E598E00E94F2628AE03A
:10117000AB81BC818A9FF0018B9FF00D1124E25C52
:10118000F64E008111815CC02B813C812F5F3F4F67
:101190003C832B833A962436310551F6E12CF12C11
:1011A00080913319882321F08CE598E00E94F26247
:1011B000D4018D919C9187010F5F1F4F892BB9F44A
:1011C0008AE08E9DD0018F9DB00D1124A25CB64E99
:1011D000FD010193119312967C926182B981B283D1
:1011E0002A812383548245823682278229C078014E
:1011F0003AE0830E911C0436110591F626C01F9328
:101200000F9388E698E09F938F930E94B6620F90A9
:101210000F900F900F90E12C08C089E898E00E9491
:10122000F262EE24E3940FEF1FEF272D362D498154
:101230005A81652D742D832D922D0E947D500AC0F8
:1012400080913319882339F3DACF809133198823B9
:1012500041F3E3CF0F900F900F900F900F90DF911D
:10126000CF911F910F91FF90EF90DF90CF90BF90A3
:10127000AF909F908F907F906F905F904F903F9036
:101280002F9008957F928F929F92AF92BF92CF92AC
:10129000DF92EF92FF920F931F93CF93DF93CDB71F
:1012A000DEB72F970FB6F894DEBF0FBECDBF142F59
:1012B0004901AC86BD86CE86DF86CE010C960E94A3
:1012C0004D1FCC84DD84EE84FF848091361990918B
:1012D0003719A0913819B0913919C0923619D092A6
:1012E0003719E0923819F0923919C81AD90AEA0A5E
:1012F000FB0AC114D10421E0E206F10428F0CC2459
:10130000CA94DC2CE12CF12CF401918180913319E9
:10131000913F09F46DC0923F09F4D1C0903F09F0AC
:1013200035C1882331F06FE978E0CE0101960E9443
:101330006462BD2D80E090E0412F50E05A01F4E05E
:10134000AF1AB1089A01235031094250510947C0E0
:101350006091891DA091AF1D7091B01D8A159B05EC
:1013600069F4EA2FF72FE60FF11DE60FF11D01904A
:10137000F081E02DE80FF91FC08230C0821793077B
:1013800069F4EA2FF72FE60FF11DE60FF11D01902A
:10139000F081E02DE80FF91FB08320C08417950776
:1013A00069F4EA2FF72FE60FF11DE60FF11D01900A
:1013B000F081E02DE80FF91F008310C0F401E80F61
:1013C000F91F7080EA2FF72FE60FF11DE60FF11DD0
:1013D0000190F081E02DE80FF91F708201968117CE
:1013E00008F4B6CF8091891D8F5F8093891DD6C088
:1013F000882331F069EA78E0CE0101960E946462A8
:10140000BD2D80E090E0412F50E05A0124E0A21A67
:10141000B1089A01235031094250510947C06091E7
:10142000AD1DA091861D7091871D8A159B0569F4DD
:10143000EA2FF72FE60FF11DE60FF11D0190F08165
:10144000E02DE80FF91FC08230C08217930769F4BE
:10145000EA2FF72FE60FF11DE60FF11D0190F08145
:10146000E02DE80FF91FB08320C08417950769F4B9
:10147000EA2FF72FE60FF11DE60FF11D0190F08125
:10148000E02DE80FF91F008310C0F401E80FF91FE9
:101490007080EA2FF72FE60FF11DE60FF11D019086
:1014A000F081E02DE80FF91F70820196811708F492
:1014B000B6CF8091AD1D8F5F8093AD1D6FC0882327
:1014C00031F064EB78E0CE0101960E946462BD2D9C
:1014D00080E090E0412F50E05A01E4E0AE1AB108FC
:1014E0009A01235031094250510947C06091B21D01
:1014F000A0917B1D70917C1D8A159B0569F4EA2FD4
:10150000F72FE60FF11DE60FF11D0190F081E02DA0
:10151000E80FF91FC08230C08217930769F4EA2FE1
:10152000F72FE60FF11DE60FF11D0190F081E02D80
:10153000E80FF91FB08320C08417950769F4EA2FDC
:10154000F72FE60FF11DE60FF11D0190F081E02D60
:10155000E80FF91F008310C0F401E80FF91F708035
:10156000EA2FF72FE60FF11DE60FF11D0190F08134
:10157000E02DE80FF91F70820196811708F4B6CFAD
:101580008091B21D8F5F8093B21D08C0882331F017
:101590006CEB78E0CE0101960E9464628091331971
:1015A000882309F454C0FF92EF92DF92CF921F92EA
:1015B0000F931F921F93CE0101969F938F93F40177
:1015C00081811F928F9384EC98E09F938F930E9468
:1015D000B662B82C0FB6F894DEBF0FBECDBF740153
:1015E00074E2C72E79E0D72E17C0F70181917F01F1
:1015F0001F928F93DF92CF920E94B66207700F9076
:101600000F900F900F90073019F48AE090E002C01D
:1016100080E290E00E94EC620E2D0B19011728F376
:101620008091B21D1F928F938091AD1D1F928F9359
:101630008091891D1F928F938BE299E09F938F93E6
:101640000E94B6620FB6F894DEBF0FBECDBFE12C8C
:10165000F12C02E615E020E048EE53E060E070E097
:1016600085E00E94A3202F960FB6F894DEBF0FBE30
:10167000CDBFDF91CF911F910F91FF90EF90DF9041
:10168000CF90BF90AF909F908F907F900895EF92F2
:10169000FF920F931F93CF93DF93CDB7DEB72C97B5
:1016A0000FB6F894DEBF0FBECDBF182F86E00E94A4
:1016B000F01F809133198823E1F0111103C063E515
:1016C00079E007C0113019F46CE579E002C068E6F2
:1016D00079E0CE0101960E9464629F938F932FE67A
:1016E00039E03F932F930E94B6620F900F900F90B6
:1016F0000F90111131C00E9413196093AF1E7093A7
:10170000B01E8093B11E9093B21E209133192223F4
:1017100081F09F938F937F936F938AE999E09F93D2
:101720008F930E94B6620F900F900F900F900F90C2
:101730000F9060E074E081E00E94DA18EE24E394F8
:10174000F12C07E41BE020E04CE150E260E070E0A7
:1017500086E00E94A3202FC0113029F50E941319A2
:101760006093B31E7093B41E8093B51E9093B61E03
:1017700020913319222381F09F938F937F936F934E
:101780008BEA99E09F938F930E94B6620F900F901F
:101790000F900F900F900F908BE090E09093351981
:1017A0008093341908C080913319882321F08BEB82
:1017B00099E00E94F2622C960FB6F894DEBF0FBE3D
:1017C000CDBFDF91CF911F910F91FF90EF900895C2
:1017D0005498EDE7F0E08081816080830895A7E46C
:1017E000BDE1E6EBFDE180E090E021E08D939D938B
:1017F00021938A569F4F803639E09307B9F70895B1
:10180000BF92CF92DF92EF92FF920F931F93CF93ED
:10181000DF9380913319882341F08DEC99E09F93F9
:101820008F930E94B6620F900F9096EBE92E9DE188
:10183000F92EC7E4DDE100E010E0BB24B394CC2432
:10184000C394D12CF7018081882371F0888199811C
:101850008F3FF3E09F0710F4019603C0F701108259
:1018600001979983888309C088819981009709F03D
:10187000F7CFF701B082D982C88280914513909149
:101880004613029759F4F801E95DF24E8881998177
:10189000918380838EE190E00E94661F80914513C2
:1018A00090914613019739F4F801E557F24E88817B
:1018B000998191838083FFEFEF1AFF0A22960E5FD2
:1018C0001F4F0032110509F0BDCF87E090E09093E3
:1018D00035198093341980913319882369F084EF86
:1018E00094E0DF91CF911F910F91FF90EF90DF90E7
:1018F000CF90BF900C94F262DF91CF911F910F9126
:10190000FF90EF90DF90CF90BF90089580913319B2
:10191000882341F08EED99E09F938F930E94B662E9
:101920000F900F9081E0089586EA0E94661D88233B
:1019300021F00E94B11D80E008958DE20E94B91D42
:101940008111F7CF88E00E94B91D8111F2CF0E946A
:10195000B11D81E008951F93CF93DF9380913319D8
:10196000882341F083EF99E09F938F930E94B662A2
:101970000F900F9084B1876084B9239885B18960F6
:1019800085B982E58CBD8DB581608DBD0E948B18B7
:1019900080EF9AE00E94661FC9EBDEE111E0812F23
:1019A0000E94951889939993019649F4809133196F
:1019B000882389F08CE09AE00E94F2620CC01F5FDD
:1019C000183069F780913319882339F084EF94E057
:1019D0000E94F26202C080E001C081E0DF91CF91FD
:1019E0001F910895EF92FF920F931F93CF93DF9370
:1019F000CDB7DEB72C970FB6F894DEBF0FBECDBFC4
:101A0000E82E8B01809133198823D9F0E11003C0AF
:101A100063E579E002C06CE579E0CE0101960E94B1
:101A200064621F930F939F938F9328E23AE03F9352
:101A30002F930E94B6620F900F900F900F900F900F
:101A40000F90B8018E2D0E94DA18F12C07E41BE0EC
:101A500020E04CE150E260E070E086E00E94A320CC
:101A60002C960FB6F894DEBF0FBECDBFDF91CF919D
:101A70001F910F91FF90EF90089580913319882363
:101A800041F083E69AE09F938F930E94B6620F9095
:101A90000F90E6ECFDE111928EE1EE38F807D9F7F0
:101AA0001092B31D809880917E00816080937E00AB
:101AB00081E880937A0080913319882321F084EFA4
:101AC00094E00C94F26208950F931F93CF93DF93E9
:101AD00000D000D0CDB7DEB780913319882341F014
:101AE00080E99AE09F938F930E94B6620F900F90C7
:101AF00080E480937C0080917A00806480937A00F7
:101B000080917A0084FFFCCF80917A00806180937D
:101B10007A0080917800909179009C838B838B81EF
:101B20009C81883E934008F04BC08B819C818D3511
:101B3000934008F449C06B817C816C55734080E010
:101B400090E00E948D5920E030E04CE053E40E9488
:101B5000105820E030E048EC52E40E942B570E94DD
:101B60004655162F6B817C816C55734080E090E068
:101B70000E948D5920E030E04CE053E40E94105860
:101B800020E030E040E751E40E942B570E94465588
:101B9000062F6B817C816C55734080E090E00E9441
:101BA0008D5920E030E04CE053E40E94105820E0D2
:101BB00030E04FE753E40E942B570E94465507C080
:101BC0006FEF0FE014E603C060E000E010E020914A
:101BD000B31D822F90E0FC01EA53F24E6083873CF4
:101BE00091051CF01092B31D03C02F5F2093B31D0D
:101BF0001A821982E6ECFDE189819A812191820F96
:101C0000911D9A8389838EE1EE38F807A9F76093D6
:101C10008E1E80913319882399F08B819C811F92AD
:101C20000F931F921F939F938F938BEA9AE09F933A
:101C30008F930E94B6620FB6F894DEBF0FBECDBF81
:101C40000F900F900F900F90DF91CF911F910F91F8
:101C50000895CF93DF93EC0180913319882341F0ED
:101C600084ED9AE09F938F930E94B6620F900F903D
:101C70002097A1F58CE30E94661D882321F00E9425
:101C8000B11D80E034C080E00E94B91D8111F7CF02
:101C900080E70E94B91D8111F2CF8CE30E94AF1D35
:101CA0008111EDCF81E00E94B91D8111E8CF80EE56
:101CB0000E94B91D8111E3CF8CE30E94AF1D8111F9
:101CC000DECF82E00E94B91D8111D9CF82E00E944F
:101CD000B91D8111D4CF0E94B11D02C0219719F402
:101CE00081E0809352131092881D80915213DF91EE
:101CF000CF9108958CE30E94661D882321F00E94F5
:101D0000B11D80E0089582E00E94B91D8111F7CFD6
:101D10000E94B91D8111F3CF0E94B11D81E0089589
:101D20000F931F93CF93DF93EC0180913319882396
:101D300021F08CED9AE00E94F262C230D10509F4E4
:101D4000DEC0C330D10509F418C2219709F091C251
:101D5000E091AF1DF091B01D0190F081E02D81E484
:101D60008083E091AF1DF091B01D0190F081E02DD6
:101D700080EF8183E091AF1DF091B01D0190F08163
:101D8000E02D8AE5868BABE8BDE182E090E02C9106
:101D90001296E091AF1DF091B01D0190F081E02D01
:101DA000E80FF91F208301968F30910581F7E091AC
:101DB000AF1DF091B01DA081B1818091921D90E086
:101DC0008370992720918C1D2295220F220F207C51
:101DD000282B80918E1D90E0837099278295807FBB
:101DE000282B8091901D90E083709927880F880F91
:101DF000282B1F962C93A081B18180919A1D90E091
:101E0000837099272091941D2295220F220F207C08
:101E1000282B8091961D90E0837099278295807F72
:101E2000282B8091981D90E083709927880F880F48
:101E3000282B50962C93A081B1818091A21D90E017
:101E40008370992720919C1D2295220F220F207CC0
:101E5000282B80919E1D90E0837099278295807F2A
:101E6000282B8091A01D90E083709927880F880F00
:101E7000282B51962C930190F081E02D8091A41D88
:101E80008295880F880F807C489902C098E001C035
:101E900090E0892B828B80913319882349F1C0E02F
:101EA000D0E001EC14E0E091AF1DF091B01D019085
:101EB000F081E02DEC0FFD1F80811F928F931F9307
:101EC0000F930E94B662CE01877099270F900F90F2
:101ED0000F900F90873021F48AE090E00E94EC622E
:101EE0002196C731D105F9F68AE090E00E94EC62B4
:101EF00083E090E09093351980933419BAC1E09152
:101F0000861DF091871D0190F081E02D81E4808392
:101F1000E091861DF091871D0190F081E02D81EF09
:101F20008183E091861DF091871D0190F081E02D65
:101F30008AE581A7A7E2BDE182E090E02C911296AC
:101F4000E091861DF091871D0190F081E02DE80F52
:101F5000F91F208301968E30910581F7E091861D4F
:101F6000F091871DA081B18180912E1D90E083703A
:101F700099272091281D2295220F220F207C282BA3
:101F800080912A1D90E0837099278295807F282B6D
:101F900080912C1D90E083709927880F880F282B43
:101FA0001E962C93A081B1818091361D90E08370A4
:101FB00099272091301D2295220F220F207C282B5B
:101FC0008091321D90E0837099278295807F282B25
:101FD0008091341D90E083709927880F880F282BFB
:101FE0001F962C93A081B18180913E1D90E083705B
:101FF00099272091381D2295220F220F207C282B13
:1020000080913A1D90E0837099278295807F282BDC
:1020100080913C1D90E083709927880F880F282BB2
:1020200050962C93A081B1818091671D3091681DDD
:1020300051968C93A081B1818091691D20916A1D78
:1020400052968C93A081B18180916B1D90916C1DF3
:1020500053968C93A081B18140916D1D80916E1D2E
:1020600054964C93A081B18155963C93A081B18147
:1020700056962C93A081B18157969C93A081B181F3
:1020800058968C93A081B18180916F1D2091701D15
:1020900059968C93A081B1818091711D9091721D90
:1020A0005A968C93A081B1813091731D8091741DDB
:1020B0005B963C93A081B1815C962C93A081B18109
:1020C0005D969C93A081B1815E968C93A081B18135
:1020D0008091751D2091761D5F968C93A081B181B2
:1020E0008091771D9091781D90968C93A081B181FD
:1020F0003091791D80917A1D91963C93A081B18198
:1021000092962C93A081B18193969C93A081B181EA
:1021100094968C930190F081E02D15A28091331953
:10212000882309F4A6C0C0E0D0E001EC14E0E091FF
:10213000861DF091871D0190F081E02DEC0FFD1FB1
:1021400080811F928F931F930F930E94B662CE01DE
:10215000877099270F900F900F900F90873021F480
:102160008AE090E00E94EC622196CA32D105F9F62D
:102170008AE090E00E94EC627CC0E0917B1DF091CF
:102180007C1D0190F081E02D81E48083E0917B1D36
:10219000F0917C1D0190F081E02D82EF8183E09130
:1021A0007B1DF0917C1DA081B1818AE51E968C93E8
:1021B000A081B18180917D1D12968C93A081B18107
:1021C00080917E1D13968C93A081B18190917F1D8B
:1021D0008091801D14969C93A081B18115968C935B
:1021E000A081B1818091811D16968C93A081B181CF
:1021F0008091821D17968C93A081B1819091831D4F
:102200008091841D18969C93A081B18119968C931E
:102210000190F081E02D80918E1E8F7082878091D9
:102220003319882331F1C0E0D0E001EC14E0E091F3
:102230007B1DF0917C1D0190F081E02DEC0FFD1FC6
:1022400080811F928F931F930F930E94B662CE01DD
:10225000877099270F900F900F900F90873021F47F
:102260008AE090E00E94EC622196CF30D105F9F629
:102270007FCF80913319882341F085E09BE0DF9187
:10228000CF911F910F910C94F262DF91CF911F912A
:102290000F910895CF92DF92EF92FF920F931F93C9
:1022A000CF93DF93CDB7DEB72F970FB6F894DEBF8D
:1022B0000FBECDBF8C01CE010C960E94301F6C85E5
:1022C0007D858E859F85C0903A19D0903B19E0900E
:1022D0003C19F0903D196C197D098E099F096134F4
:1022E00022E472072FE08207910508F469C020916B
:1022F00033192223B9F028EE33E040E050E00E9489
:102300007B5F7F936F935F934F933F932F938CE00B
:102310009BE09F938F930E94B6620FB6F894DEBF46
:102320000FBECDBF8C859D85AE85BF8580933A1944
:1023300090933B19A0933C19B0933D1982E0898397
:102340008EEB9AE59B838A838091241990912519BD
:102350009D838C831092851D60E080E090E00E9458
:102360006A220230110589F003301105C9F00130ED
:10237000110531F5E091AF1DF091B01D2081318143
:10238000EE24E39400E047E115C0E091861DF09152
:10239000871D20813181EE24E39400E04AE20AC0E7
:1023A000E0917B1DF0917C1D20813181EE24E3942E
:1023B00000E04FE0BE016F5F7F4F82E00E94BC4FA4
:1023C0002F960FB6F894DEBF0FBECDBFDF91CF9131
:1023D0001F910F91FF90EF90DF90CF90089580EDC7
:1023E0000E94661D882321F00E94B11D80E008959F
:1023F0008EE30E94B91D8111F7CF81E00E94B91DC3
:102400008111F2CF0E94B11D81E00895BF92CF9259
:10241000DF92EF92FF920F931F93CF93DF93182FCA
:10242000062FB42E842F90E00E94B260EC0100973A
:1024300089F1812F0E94661D882329F00E94B11D19
:10244000C0E0D0E027C0802F0E94B91D8111F6CFD7
:10245000812F81600E94AF1D8111F0CF7E0100E0CD
:1024600010E0CB2CD12C81E0C81AD1080FC00C157C
:102470001D051CF00E94D41D02C00E94CA1DF70158
:1024800080830F5F1F4FFFEFEF1AFF0A0B1578F3E2
:102490000E94B11DCE01DF91CF911F910F91FF904E
:1024A000EF90DF90CF90BF9008950F931F93CF933D
:1024B000DF938C0180913319882321F087E39BE01F
:1024C0000E94F2620115110509F045C080ED0E94DD
:1024D000661D813019F40E94B11D4DC08BE10E9430
:1024E000B91D8130C1F381ED0E94AF1D813099F398
:1024F00010925E1328C0833039F40E94CA1D809365
:102500005F130E94D41D06C00E94CA1D80935F13F2
:102510000E94CA1D8093601340915F13D42F50E036
:10252000C52F20915E13E22FF0E0EE0FFF1FE95957
:10253000F24E80916013AE01482BCA0191838083D3
:102540002F5F20935E1380915E138430A0F281E0B0
:102550008093611348C00130110509F044C046E082
:1025600063E480ED0E940612FC0190936313809354
:102570006213009711F480E038C0908180E02181DF
:10258000822B90936C1D80936B1D928180E0238140
:10259000822B90936A1D8093691D948180E0258130
:1025A000822B90936E1D80936D1DCF010E944D6113
:1025B000C1E0C093611342E061E480ED0E94061225
:1025C00090936313809362130097A9F2FC0130810A
:1025D00020E04181242B3093681D2093671D0E94C9
:1025E0004D61C093611380916113DF91CF911F9171
:1025F0000F9108950F931F93CF93DF938C018091D8
:102600003319882321F083E59BE00E94F2620115D3
:10261000110509F046C08CE30E94661D882319F05D
:102620000E94B11D6EC083E00E94B91D8111F8CFD8
:102630008DE30E94AF1D8111F3CF109253132CC074
:10264000823039F40E94CA1D809354130E94D41D15
:1026500006C00E94CA1D809354130E94CA1D809315
:10266000551320915413D22F30E0C32F809155136E
:102670009E01282BC90190935713809356132091E4
:102680005313E22FF0E0EE0FFF1FE159F24E91835A
:1026900080832F5F2093531380915313833080F2F4
:1026A0002AC00130110551F546E064E088E10E943E
:1026B0000612FC0190935A1380935913009709F165
:1026C000908180E02181822B9093701D80936F1DFB
:1026D000928180E02381822B9093721D8093711DE3
:1026E000948180E02581822B9093741D8093731DCB
:1026F000CF010E944D6181E080935813809158135F
:1027000001C080E0DF91CF911F910F9108950F9349
:102710001F93CF93DF938C0180913319882341F06D
:102720008DE69BE09F938F930E94B6620F900F906F
:102730000115110509F046C086EA0E94661D88232E
:1027400019F00E94B11D6EC082E30E94B91D811173
:10275000F8CF87EA0E94AF1D8111F3CF10924A1380
:102760002CC0823039F40E94CA1D80934B130E9402
:10277000D41D06C00E94CA1D80934B130E94CA1D1F
:1027800080934C1320914C13D22F30E0C32F8091B3
:102790004B139E01282BC90190934E1380934D1328
:1027A00020914A13E22FF0E0EE0FFF1FEB58F24E9C
:1027B000918380832F5F20934A1380914A13833043
:1027C00080F22AC00130110551F546E06BE380ED3F
:1027D0000E940612FC0190935113809350130097AE
:1027E00009F1908180E02181822B9093781D809364
:1027F000771D928180E02381822B9093761D8093B8
:10280000751D948180E02581822B90937A1D8093A1
:10281000791DCF010E944D6181E080934F1380911B
:102820004F1301C080E0DF91CF911F910F91089568
:10283000CF92DF92FF920F931F93CF93DF931F925C
:10284000CDB7DEB7142FF52E022F69830E94661DC7
:10285000698181110FC0862F0E94B91D81110AC0A4
:10286000C12EDF2C0BC0F60181916F010E94B91DB2
:10287000882321F00E94B11D80E007C08C2D811BB0
:10288000801788F30E94B11D81E00F90DF91CF91F6
:102890001F910F91FF90DF90CF900895CF93DF931A
:1028A000EC0180913319882341F08EE89BE09F93DF
:1028B0008F930E94B6620F900F90209799F580ED4C
:1028C0000E94661D882319F00E94B11D43C085E156
:1028D0000E94B91D8111F8CF82E30E94B91D8111B8
:1028E000F3CF80ED0E94AF1D8111EECF86E10E94F3
:1028F000B91D8111E9CF8CE10E94B91D8111E4CF8E
:1029000080ED0E94AF1D8111DFCF8EE30E94B91DC3
:102910008111DACF80E40E94B91D8111D5CF0E94C8
:10292000B11D10C0219789F440915C1350915D1343
:1029300088E1FA01808321E06BE180ED0E941814A8
:10294000882341F081E080935B1310928A1D80916F
:102950005B1301C080E0DF91CF9108951F93CF9367
:10296000DF93EC0180913319882341F08AE99BE0E1
:102970009F938F930E94B6620F900F90209721F53E
:1029800086EA0E94661D882319F00E94B11D2CC0A2
:102990008CE20E94B91D8111F8CF8BE00E94B91D15
:1029A0008111F3CF86EA0E94AF1D8111EECF81E342
:1029B0000E94B91D8111E9CF89E00E94B91D8111E2
:1029C000E4CF0E94B11D1BC02197E1F4C0914813D0
:1029D000D091491318E0188321E0AE0169E180ED40
:1029E0000E941814811102C080E010C0188321E0F9
:1029F000AE016CE180ED0E9418148823A9F381E0F8
:102A0000809347131092AE1D80914713DF91CF91B1
:102A10001F910895CF93DF93EC01809133198823A0
:102A200061F0DF93CF938AEA9BE09F938F930E949C
:102A3000B6620F900F900F900F90C130D10591F0BA
:102A400020F1229781F58FEF9FEF9093701D809377
:102A50006F1D9093721D8093711D9093741D8093D0
:102A6000731D21C08FEF9FEF9093681D8093671DAA
:102A700090936A1D8093691D90936C1D80936B1DCC
:102A800090936E1D80936D1D0EC08FEF9FEF9093FE
:102A9000761D8093751D9093781D8093771D90937C
:102AA0007A1D8093791DDF91CF910895CF93DF93A5
:102AB000EC0180913319882341F02CEC3BE03F93EB
:102AC0002F930E94B6620F900F90CD2B71F40E944D
:102AD000940C811102C080E009C00E94EF1188238C
:102AE000D1F3DF91CF910C947A0E81E0DF91CF91F9
:102AF000089599278130910599F082309105E1F090
:102B0000892B29F58091B41D9091B51D0E944E141A
:102B1000811102C00C94B11D81E080938A1D08953B
:102B20008091B41D9091B51D0E94290E882391F3C8
:102B300081E08093881D08958091B41D9091B51D0A
:102B40000E94AE14882331F381E08093AE1D089576
:102B500080913319882341F08DED9BE09F938F93F3
:102B60000E94B6620F900F9084B3887F84BB5E98FA
:102B700083B3876083BB569A819880917E00826080
:102B800080937E0082E880937A00809133198823B5
:102B900021F084EF94E00C94F26208950F931F9358
:102BA000CF93DF9380913319882341F08DEC99E026
:102BB0009F938F930E94B6620F900F9084B3887F8B
:102BC00084BB5E98CFE8DEE1FE0120E031E42830EE
:102BD00018F424BB5E9804C0822F877084BB5E9A71
:102BE00030937C0080917A00806480937A00809199
:102BF0007A0084FFFCCF80917A00806180937A0014
:102C00008091780090917900819391932F5F20318A
:102C1000F1F6809133198823D9F088EF9BE00E9468
:102C2000F26203EC14E08881998122969F938F933E
:102C30001F930F930E94B6620F900F900F900F900A
:102C40008EE1CF3AD80779F78AE090E00E94EC62F3
:102C500085E090E09093351980933419DF91CF91FE
:102C60001F910F910895CF93DF93EC018091331959
:102C7000882341F082E19CE09F938F930E94B6628B
:102C80000F900F90C130D10519F0229781F518C02F
:102C9000A7E1B2E0CBE8DDE1ED91F0E0EE0FFF1F40
:102CA000E157F14E808191818993999382E0A73217
:102CB000B80791F78091891D8F5F8093891D17C098
:102CC000A7E0B2E0C7E2DDE1ED91F0E0EE0FFF1F1B
:102CD000E157F14E808191818993999382E0A731E8
:102CE000B80791F78091AD1D8F5F8093AD1D8091E6
:102CF0003319882331F084EF94E0DF91CF910C9465
:102D0000F262DF91CF910895CF93DF93EC01809130
:102D10003419909135198330910508F4E1C087305A
:102D20009105E1F138F48330910561F0059709F0E0
:102D3000D2C028C08B30910509F4AEC00D9709F0C0
:102D4000CAC0B5C0CE010197029760F41092261D4B
:102D500084E090E09093351980933419CE010E945D
:102D6000CE15B9C0C330D10509F0B5C08AE090E0F6
:102D7000909335198093341960E074E080E00E94EC
:102D8000F20CA9C086E090E0909335198093341935
:102D9000CE010E94331687E090E099C0C130D10582
:102DA00029F0C230D10509F096C009C08EE090E04C
:102DB000909335198093341981E090E084C080911C
:102DC000B11D882309F45AC08091431390910502E4
:102DD0008917A8F088E090E0909335198093341912
:102DE0008091B41D9091B51D0E945512811104C0AF
:102DF00081E090E00E940A151092431303C08F5F98
:102E00008093431380914213909104028917A8F094
:102E100088E090E090933519809334198091B41D27
:102E20009091B51D0E94FA12811104C082E090E0D9
:102E30000E940A151092421303C08F5F80934213C1
:102E400080914413909106028917A8F088E090E0E1
:102E500090933519809334198091B41D9091B51DCC
:102E60000E948713811104C080E090E00E940A153F
:102E70001092441303C08F5F809344138EE090E060
:102E800090933519809334198091851D81110E948A
:102E9000640D82E090E017C08CE090E090933519CB
:102EA000809334190E9441198DE090E010C08EE0AB
:102EB00090E090933519809334198091851D81118C
:102EC0000E94640DCE010E94900E83E090E09093EA
:102ED000351980933419CE01DF91CF910C944A11AA
:102EE000DF91CF910895CF93DF9380913319882399
:102EF00041F083E29CE09F938F930E94B6620F9013
:102F00000F90C0916413D091651381E0888321E014
:102F1000AE016BE680ED0E941814882309F472C09C
:102F200080913319882341F082E49CE09F938F9332
:102F30000E94B6620F900F908EE0888321E0AE0170
:102F40006CE180ED0E941814882309F45BC044E012
:102F50006DE080ED0E9406129093671380936613D4
:102F6000009709F44FC00E944D6180913319882366
:102F700041F08CE59CE09F938F930E94B6620F9086
:102F80000F9082E0888321E0AE0167E380ED0E942C
:102F900018148823B9F1188221E0AE016AE088E1B3
:102FA0000E941814882371F180E4888321E0AE0127
:102FB0006CE088E10E941814882321F18FE0888357
:102FC00021E0AE016AE088E10E9418148823D1F064
:102FD00084EF91E00E94661F46E063E088E10E9472
:102FE00006129093671380936613009759F00E941E
:102FF0004D61188221E0AE016CE088E1DF91CF9154
:103000000C94181480E0DF91CF910895CF93DF9353
:10301000EC0180913319882361F0DF93CF938CE822
:103020009CE09F938F930E94B6620F900F900F9039
:103030000F90E7E6FDE1119211928DE1EB37F80771
:10304000D1F70E94601D209731F58091B41D9091B9
:10305000B51D0E94AE14811103C00E94B11D2DC088
:103060008091B41D9091B51D0E944E148823A9F340
:103070008091B41D9091B51D0E94290E882369F39B
:1030800080913319811101C004C084EF94E00E9443
:10309000F26281E026C02197E1F7809133198823FD
:1030A00041F08CEA9CE09F938F930E94B6620F9050
:1030B0000F900E947317811102C080E012C081E05E
:1030C00090E00E94AE148823C1F381E090E00E945A
:1030D0004E14882391F381E090E0DF91CF910C941E
:1030E000290EDF91CF91089580913319882341F003
:1030F00081EC9CE09F938F930E94B6620F900F909B
:103100005098589880913319882321F084EF94E0E7
:103110000C94F262089528988EE18EBD0DB407FEDE
:10312000FDCF289A80E090E00895109269131092E4
:103130006813843099F030F4823061F068F48130A3
:10314000A9F506C0863071F058F0873079F50CC0CB
:1031500082EA0BC084EA09C086EA07C088EA05C093
:103160008AEA03C08CEA01C08EEA80936A13289829
:1031700080916A138EBD0DB407FEFDCF1EBC0DB449
:1031800007FEFDCF2EB5922F80E0909369138093B8
:1031900068131EBC0DB407FEFDCF2EB5822B909395
:1031A000691380936813289A9C0102C02FEF3FEFA8
:1031B000C90108952898611594E07907E9F040F471
:1031C000611591E0790761F06115724039F50EC023
:1031D000611598E07907B1F061157041F9F418C0F4
:1031E000811102C080E419C080E517C0811102C0BE
:1031F00082E413C082E511C0811102C084E40DC0D5
:1032000084E50BC0811102C086E407C086E505C0D5
:10321000811102C088E401C088E58EBD0DB407FEAF
:10322000FDCF289A08950F931F9328981EBC0DB4C4
:1032300007FEFDCF1EBC0DB407FEFDCF0EB510E09E
:1032400020E030E09801112700271EBC0DB407FED6
:10325000FDCF8EB590E0A0E0B0E0BA2FA92F982F57
:1032600088271EBC0DB407FEFDCF4EB5042B289A4F
:10327000082B192B2A2B3B2BB801C9011F910F9149
:1032800008952F923F924F925F926F927F928F920A
:103290009F92AF92BF92CF92DF92EF92FF920F93E5
:1032A0001F93CF93DF93CDB7DEB76C970FB6F8942B
:1032B000DEBF0FBECDBF80913319882309F447C00C
:1032C0008091B61E8F938091B51E8F938091B41E0E
:1032D0008F938091B31E8F938091B21E8F938091B4
:1032E000B11E8F938091B01E8F938091AF1E8F93EC
:1032F0008091C41E8F938091C31E8F938091C21EB4
:103300008F938091C11E8F938091C01E8F93809167
:10331000BF1E8F938091BE1E8F938091BD1E8F9391
:103320008091BC1E8F938091BB1E8F938091BA1E9B
:103330008F938091B91E8F938BED9CE09F938F9319
:103340000E94B6620FB6F894DEBF0FBECDBF80916B
:10335000C11E9091C21E9C0140E050E060E070E010
:1033600080E090E008E00E94F45F49015A0140903B
:10337000B31E5090B41E6090B51E7090B61E4818D3
:1033800059086A087B084092731350927413609234
:1033900075137092761353014201BB0C8808982C68
:1033A000540189829A82AB82BC828091C31E909123
:1033B000C41E4C01A12CB12CC12CD12C76018B8BBD
:1033C0009C8AAD8ABE8ACF8AD88EE98EFA8E520147
:1033D0006301E980FE2C0E2D1E2D9C0140E050E083
:1033E00060E070E080E090E00E949D5F07E10E9455
:1033F000036049015A01950184010053184F2F4F72
:103400003F4F0D831E832F8338870093811D1093B8
:10341000821D2093831D3093841D8091BB1E90914B
:10342000BC1E9C0140E050E060E070E080E090E075
:1034300000E10E94F45F2C873B87942E852E362E68
:10344000272E89879A874091BF1E5091C01E520136
:103450006301E980FE2C0E2D1E2D9A0140E050E004
:1034600060E070E080E090E00E949D5F07E00E94D5
:10347000036059016A017B018C012C853B85492D34
:10348000582D632D722D89859A850E942160298788
:103490003A874B875C871B018B8F9C8F2093871308
:1034A000309388134093891350938A1360938B133E
:1034B00030928C1380938D1390938E138091B91E4C
:1034C0009091BA1E9C0140E050E060E070E080E026
:1034D00090E00FE00E94F45F922E832E4D875E876E
:1034E0006F87788B898B9A8B4091BD1E5091BE1E41
:1034F00052016301E980FE2C0E2D1E2D9A0140E041
:1035000050E060E070E080E090E00E949D5F08E0A5
:103510000E94036059016A017B018C0120937F1393
:10352000B092801340938113D092821360938313DF
:10353000F09284138093851310938613292D382DD0
:103540004D855E856F85788989899A890E94216079
:103550008C0120938F1330939013409391135093C9
:103560009213609393137093941380939513109315
:1035700096138091AF1E9091B01EA091B11EB09194
:10358000B21E4C015D01C12CD12C76018B8B9C8A23
:10359000AD8ABE8ACF8AD88EE98EFA8E59016A0129
:1035A0007B0194014D895E8960E070E080E090E0ED
:1035B0000E949D5F05E10E94036020936B1330938E
:1035C0006C1340936D1350936E1360936F1370934D
:1035D00070138093711390937213A984BA84CB846F
:1035E000DC8471010B8D1C8D0E9436602093771353
:1035F000309378134093791350937A1360937B132D
:1036000070937C1380937D1390937E130FE00E9440
:103610000360C90120937D1D90937E1D40937F1D03
:103620005093801D209133192223B9F05F934F935B
:103630009F938F9398849F92AF80AF92BE80BF92EA
:10364000CD80CF9283E79DE09F938F930E94B662D7
:103650000FB6F894DEBF0FBECDBF6C960FB6F894D0
:10366000DEBF0FBECDBFDF91CF911F910F91FF90B5
:10367000EF90DF90CF90BF90AF909F908F907F9012
:103680006F905F904F903F902F9008950F931F93EE
:103690008B019C01775F824C9F4F42E0660F771F42
:1036A000881F991F4A95D1F7A9019801E3E0220FDD
:1036B000331F441F551FEA95D1F70E947B5F2150AD
:1036C00031093093C5002093C40082E08093C0008C
:1036D00086E08093C20088ED8093C1001F910F9116
:1036E00008952091C1002F7B2093C1003091DB1EF3
:1036F0004091DC1E232F431710F0275F01C021509B
:10370000241B621708F4262FFC01822F11C0909110
:10371000DC1E4191A92FB0E0A953B14E4C939930D2
:1037200019F41092DC1E03C09F5F9093DC1E815041
:103730008111EDCF8091DF1E81110AC0E32FF0E0EF
:10374000E953F14E80818093C60081E08093DF1EB3
:103750008091C10080648093C100822F0895DC01B4
:103760008091E01E8823B9F19091C1009F779093DA
:10377000C1008A3050F08091DE1E8093DD1E8AE009
:103780008093E01E6A3028F405C0861718F4682F6D
:1037900001C06AE0962F16C0E091DD1EF0E0E9530B
:1037A000F14E82858D938091DD1E8F5F8093DD1EAB
:1037B0002091E01E21502093E01E91508A3011F498
:1037C0001092DD1E9111E8CF8091C1008068809336
:1037D000C100862F089580E008951F920F920FB6C2
:1037E0000F9211240BB60F928F939F93EF93FF9339
:1037F0008091DE1E9091E01E9F5F9093E01E90915D
:10380000C600E82FF0E0E953F14E9287893019F4B1
:103810001092DE1E03C08F5F8093DE1EFF91EF913A
:103820009F918F910F900BBE0F900FBE0F901F9026
:1038300018951F920F920FB60F9211240BB60F928C
:103840008F93EF93FF938091DB1E893019F41092D0
:10385000DB1E03C08F5F8093DB1EE091DB1E809137
:10386000DC1EE81739F0F0E0E953F14E80818093D7
:10387000C60002C01092DF1EFF91EF918F910F9052
:103880000BBE0F900FBE0F901F901895811108C0AE
:1038900060E074E883E090E00E94461B80E00895B9
:1038A00085E808959B01811104C0642FC9010C941F
:1038B000711B80E008959B01811104C0642FC90130
:1038C0000C94AF1B80E00895909398138093971306
:1038D000089590939A1380939913089590939C134D
:1038E00080939B13089590939E1380939D13089546
:1038F0001F920F920FB60F9211240BB60F922F93B7
:103900003F934F935F936F937F938F939F93AF9367
:10391000BF93EF93FF93E0919713F091981309955C
:10392000FF91EF91BF91AF919F918F917F916F9197
:103930005F914F913F912F910F900BBE0F900FBE53
:103940000F901F9018951F920F920FB60F9211248F
:103950000BB60F922F933F934F935F936F937F9389
:103960008F939F93AF93BF93EF93FF93E09199133E
:10397000F0919A130995FF91EF91BF91AF919F91AB
:103980008F917F916F915F914F913F912F910F9008
:103990000BBE0F900FBE0F901F9018951F920F92A5
:1039A0000FB60F9211240BB60F922F933F934F93A4
:1039B0005F936F937F938F939F93AF93BF93EF9397
:1039C000FF93E0919B13F0919C130995FF91EF9168
:1039D000BF91AF919F918F917F916F915F914F9127
:1039E0003F912F910F900BBE0F900FBE0F901F9025
:1039F00018951F920F920FB60F9211240F900FBEC1
:103A00000F901F9018951F920F920FB60F921124CE
:103A10000BB60F922F933F934F935F936F937F93C8
:103A20008F939F93AF93BF93EF93FF93E0919D1379
:103A3000F0919E130995FF91EF91BF91AF919F91E6
:103A40008F917F916F915F914F913F912F910F9047
:103A50000BBE0F900FBE0F901F9018951F920F92E4
:103A60000FB60F9211240F900FBE0F901F90189554
:103A70001F920F920FB60F9211240F900FBE0F904E
:103A80001F9018951F920F920FB60F9211240F904E
:103A90000FBE0F901F9018951F920F920FB60F92A6
:103AA00011240F900FBE0F901F9018951F920F9228
:103AB0000FB60F9211240F900FBE0F901F90189504
:103AC0001092B90088E48093B800089594EA909326
:103AD000BC009091BC0097FFFCCF9091B900987FFB
:103AE000983021F0903111F081E008958093BB006F
:103AF00084E88093BC008091BC0087FFFCCF80915C
:103B0000B900887F883111F0803471F780E0089522
:103B100024EA34E844E92093BC009091BC0097FF6C
:103B2000FCCF9091B900987F983011F0903199F7BF
:103B30008093BB003093BC009091BC0097FFFCCFFA
:103B40009091B900987F903211F0983539F44093F4
:103B5000BC009091BC0094FDFCCFDDCF08950C9487
:103B6000661D84E98093BC008091BC0084FDFCCF7D
:103B700008958093BB0084E88093BC008091BC00D2
:103B800087FFFCCF9091B900987F81E0983209F4CB
:103B900080E0089584EC8093BC008091BC0087FF96
:103BA000FCCF8091BB00089584E88093BC00809195
:103BB000BC0087FFFCCF8091BB00089584B714BE82
:103BC000A89588E10FB6F894809360001092600089
:103BD0000FBE0E94531E0E94FE1E0E94812280E0A2
:103BE00008950C94EC21EF92FF920F931F93CF93C3
:103BF000DF93811119C0CA01860F971F8130904150
:103C0000A8F48901040F151FE9017B01E21AF30AE8
:103C100006C0CE018E0D9F1D0E9426658993C01798
:103C2000D107B9F780E003C088EE01C085E8DF91D5
:103C3000CF911F910F91FF90EF900895EF92FF9217
:103C40000F931F93CF93DF93EC017B01E80EF91ED6
:103C500081E0E81680E1F80698F48A010CC0CE01F4
:103C60000E942665F80161918F01861719F0CE0137
:103C70000E942E652196CE15DF0589F780E001C0F0
:103C800085E8DF91CF911F910F91FF90EF900895FC
:103C90001EB88FEF8DB98FEF9FEF0E94661F8EB118
:103CA00080958EB9F8CF8FB7F894E0E0F0E099E016
:103CB00090935700E4918FBFEF70E23011F48FE0E2
:103CC00001C080E090E020E80FB6F89420936100F6
:103CD000809361000FBE80E18093350180933401B1
:103CE000809333018093320108950F931F93E091E5
:103CF000A11389E0E89FF0011124EF51F14E80817A
:103D00009181A281B3812091A213222309F465C07D
:103D1000B093F800A093F7009093F6008093F5001D
:103D20002091DF0020FD08C021E02093E0002091D9
:103D3000DF0021602093DF00F091E100E091E200DC
:103D40003091E3002091E4004F2F5E2F632F722FFC
:103D50004F5F5F4F6F4F7F4F8A019B0108271927E5
:103D60002A273B27002711272227387F012B022BE8
:103D7000032B31F484179507A607B707A0F137C0C6
:103D80008C019D01377077704017510762077307E8
:103D900050F12DC04091A3135091A4136091A5132D
:103DA0007091A6134F5F5F4F6F4F7F4F48175907B2
:103DB0006A077B0701F5F091E100E091E2003091A4
:103DC000E3002091E4008F2F9E2FA32FB22F8417A2
:103DD0009507A607B70779F706C08091DF008E7FA9
:103DE0008093DF0008C081E080933B1F04C02091D6
:103DF0005D01283078F21F910F9108951092A2135F
:103E000010923B1F8FEF8093A11380939F13809399
:103E1000A013E9EEFEE19FEF8FEF9083DF0114978F
:103E20001D921C9239962FE1E334F207A9F790E234
:103E30009093B60098EA9093DC009FE09093F40092
:103E40008093F3008093F2008093F10082E08093EE
:103E5000E0008091DF0082608093DF000895089584
:103E60002091DE0020FDFCCFF091E100E091E20026
:103E70003091E3002091E4004F2F5E2F632F722FCB
:103E800024E0440F551F661F771F2A95D1F7FC01C8
:103E900040835183628373830895F091E900E09138
:103EA000EA003091EB002091EC004F2F5E2F632F42
:103EB000722F34E0440F551F661F771F3A95D1F7D4
:103EC000FC01408351836283738308958436910596
:103ED00020F44FB7F89451E01CC040E050E019C006
:103EE00097FF03C02FEF3FE701C09C01821B930B9C
:103EF000220F331F319521953109309325012093ED
:103F000024016ABB70932101D09BFECF1092210146
:103F100002C061E072E0009719F751114FBF089598
:103F200099E0899FF0011124EF51F14E81E0248145
:103F30003581232B09F480E00895E5EEFEE18081D0
:103F40009181892B39F439968FE1EF33F807B9F76E
:103F500081E0089580E00895CF93CFB7F8948091E1
:103F60003B1F8823D1F110923B1F9091A2139923FC
:103F7000A1F120919F138091A1132F3F49F420912B
:103F8000A0132F3F29F48093A01380939F130BC09D
:103F9000E091A01329E0E29FF0011124EF51F14ECE
:103FA00080878093A013A091A11389E08A9FD001FC
:103FB0001124AF51B14E18962C912093A113E0918A
:103FC000A0138E9FF0011124EF51F14E8FEF8087E7
:103FD00091509093A2130E94751ECFBFCF91089568
:103FE0000F931F93CF93DF93082F8A3008F092C06E
:103FF0001FB7F8940E94AC1F8091A213882309F484
:104000008DC04091A113542F942F39E001C0922FFD
:10401000091332C0202F30E004130FC089E0829FC3
:10402000D001839FB00D1124AF51B14E18968C91E1
:104030008093A1130E94751E10C0A9E0A29FE00109
:10404000A39FD00D1124CF51D14E8885A59FD001BB
:104050001124AF51B14E18968C9389E0089FD0017E
:104060001124AF51B14E8FEF18968C938091A2130B
:1040700081508093A21358C0399FD0011124AF51B1
:10408000B14E18962C918150592F09F0C0CF46C0DF
:10409000081330C0202F30E0091315C08091A01301
:1040A000081304C08FEF8093A0130AC089E0829F99
:1040B000D001839FB00D1124AF51B14E18968C9151
:1040C00080939F1331C0A9E0A29FE001A39FD00D70
:1040D0001124CF51D14E8885A49FD0011124AF5116
:1040E000B14E18968C938091A01308131DC0409375
:1040F000A0131AC0289FD0011124AF51B14E482FF0
:1041000018968C918F3F21F680E01FBF882321F005
:1041100080E014C08AE812C089E810C090919F1313
:10412000492F892F29E0EECF89E0089FF001112463
:10413000EF51F14E1582148281E0E7CFDF91CF91EC
:104140001F910F9108952F923F924F925F926F921D
:104150007F928F929F92AF92BF92CF92DF92EF9217
:10416000FF920F931F93CF93DF93CDB7DEB72797BF
:104170000FB6F894DEBF0FBECDBF17018A3008F02E
:10418000EFC00115110509F4EFC0482E512C5F82D4
:104190004E8239E0839FF0011124EF51F14E0480EB
:1041A000F581E02DEF2B09F0DDC06A017B01A4E071
:1041B000F694E794D794C794AA95D1F7222321F0D7
:1041C000213009F0D1C020C0B701A60148505109E3
:1041D00061097109483F5F4F6F4F774010F08BE8DE
:1041E000E2C0E091E1003091E2002091E300909183
:1041F000E4004E2F532F622F792FC40ED51EE61EDA
:10420000F71EEFE0FE221EC0E091E1003091E200D7
:104210002091E3009091E4004E2F532F622F792FCD
:1042200026013701441A550A660A770AB301A2012A
:104230007F704850510961097109483F5F4F6F4FC6
:10424000774068F6BFB6F8948D830E94AC1FA091AA
:10425000A1138D81AF3F79F08090A213BA2F9A2FCE
:10426000A12CF9E09F2EA7019601577029833A836C
:104270004B835C8356C08093A11389E04E815F819C
:10428000849FF001859FF00D1124EF51F14EA0871E
:104290004BC09F3F09F444C0292F30E0929EF001AB
:1042A000939EF00D1124EF51F14E408151816281B6
:1042B0007381260137014426552666267726442435
:1042C00055246624E8EF7E22452846284728A1F495
:1042D0004C155D056E057F0508F448C029E04E8049
:1042E0005F80249DF001259DF00D1124EF51F14ECA
:1042F0009087A9130FC00BC0777049805A806B80DC
:104300007C80441655066606770680F1E7CF8093D9
:10431000A1130AC02B9FF0011124EF51F14E41C0AF
:10432000A394A810B6CF2CC089E06E807F80869DB4
:10433000F001879DF00D1124EF51F14EC082D18222
:10434000E282F38215830483378226828091A2134E
:104350008F5F8093A2130E94751EBFBE80E023C0B2
:104360008AE821C088E81FC088EE1DC0929EF00137
:10437000939EF00D1124EF51F14EB92F9085D0CFBF
:1043800099E09B9FF0011124EF51F14E80878E80C0
:104390009F80989DF001999DF00D1124EF51F14EF1
:1043A0008FEF8087C1CF27960FB6F894DEBF0FBE80
:1043B000CDBFDF91CF911F910F91FF90EF90DF90D4
:1043C000CF90BF90AF909F908F907F906F905F90B5
:1043D0004F903F902F900895CF93DF930E94AC1F92
:1043E000C9E0DFEF29C03FB7F894A0919F13CA9F9F
:1043F000D0011124AF51B14E18962C9118971496F4
:10440000ED91FC91159716968D919C9117971896A2
:10441000DC93189715961C921E92149717961C926F
:104420001E92169720939F132F3F11F42093A013F1
:104430003FBF309709F0099580919F138F3F99F600
:10444000DF91CF9108951F920F920FB60F92112412
:104450002F933F938F939F933091E1002091E2003F
:104460009091E3008091E4003093A3132093A41370
:104470009093A5138093A6138091A213882319F01B
:1044800081E080933B1F9F918F913F912F910F90DF
:104490000FBE0F901F9018951F920F920FB60F929C
:1044A00011248F938FEF8093E4008093E300809337
:1044B000E2008093E1008F910F900FBE0F901F904C
:1044C000189581E00895749A6C9A749A6C9A749A0B
:1044D0006C9A0895613021F028F0623049F404C0EC
:1044E00074980895749A08958EB190E189278EB9D1
:1044F0000895759A6D9808958CB185FB882780F989
:104500000895089590E29CBBED9A93B7917F982B04
:1045100093BF83B7816083BF889583B78E7F83BF46
:1045200008951F920F920FB60F921124ED980F90DD
:104530000FBE0F901F9018950F931F93CF93DF938B
:1045400000D000D0CDB7DEB78B01811126C087EA3D
:1045500093E12B833C8349835A830E944B62C801B9
:104560000E94526267EA73E1860F971FFC01118275
:104570007F936F933C813F932B812F935A815F935D
:1045800049814F9380E291E09F938F930E94C8628C
:104590000FB6F894DEBF0FBECDBF0F900F900F90F7
:1045A0000F90DF91CF911F910F910895EF92FF929D
:1045B0000F931F93CF93DF9384EA94E10E948423A7
:1045C00099EAE92E94E1F92E0FED18E1C0E0D0E070
:1045D000F801F182E082BE01660F771F660F771F38
:1045E0006152774E84EA94E10E948B232196FAE986
:1045F000EF0EF11C0C5F1F4FC730D10549F7DF915B
:10460000CF911F910F91FF90EF90089560E070E0BF
:1046100084EA94E10C94A623009729F0BC0184EA73
:1046200094E10C948B2308959F92AF92BF92CF9206
:10463000DF92EF92FF920F931F93CF93DF938C0142
:104640005B016A019FB6F894DC0114968C9181118C
:1046500003C0C0E0D0E04AC0F801C081D18141155B
:104660005105B1F07E0111C0D60112966D917C9179
:104670001397ED91FC9188819981099581110BC067
:104680009A818B817E01C92FD82F209769F7E1CFBE
:104690002097F9F27E01AB2849F5F801208131819C
:1046A0008A819B81C217D30719F49183808305C047
:1046B000D70113969C938E931297F8018281938170
:1046C000C817D90711F4F382E282D80114968C91AD
:1046D0001497815014968C9314978D919C911197F7
:1046E000892B21F413961C921E9212979FBECE0125
:1046F000DF91CF911F910F91FF90EF90DF90CF90BE
:10470000BF90AF909F900895FC0111821082138298
:10471000128214820895FC019FB7F894848181115C
:1047200003C07183608306C0A281B38113967C931A
:104730006E93129773836283DB0113961C921E9211
:10474000129784818F5F84839FBF0895AB0160E0DF
:1047500070E00C941423AB0161E070E00C9414231E
:10476000CF93DF93EC0114C060E070E0CE010E94B3
:10477000A623009759F42AE331E045E95DE065E5B9
:1047800071E080E00E949C221C8205C00E940C23E4
:104790008C818111E9CFDF91CF910895CF938091E2
:1047A00041018F71883051F021E232E045EE5DE049
:1047B00064E572E080E0CF910C949C2281E08093CC
:1047C0004F0189E080934201C3E080914F0180FD59
:1047D00012C08EE690E00E94661FC150B1F72BE335
:1047E00032E045EE5DE06BE372E080E00E949C22E7
:1047F000CF910C94481ECF910895DF92EF92FF92D3
:104800000F931F93CF93DF93CDB7DEB728970FB6E3
:10481000F894DEBF0FBECDBFF82E8091651F8F309C
:1048200009F046C0809139018D7F809339018E0156
:104830000B5F1F4FC8010E94301FD02EE12E209128
:1048400041012F71283021F1CE0101960E94301FC5
:1048500049815A816B817C810D811E812F81388530
:10486000401B510B620B730B493E534061057105B0
:1048700030F3209139012260209339018D2D9E2D36
:104880000E94301F209139012D7F20933901D7CF0D
:104890008FEF80934F018CE480934E0188E0F816EF
:1048A00019F083E0F81204C088E08093651F51C1BD
:1048B00088E0F81609F453C08F1560F084E0F8160C
:1048C00009F473C086E0F81609F47CC083E0F8129E
:1048D00030C145C08FE0F81671F08F1520F089E0E7
:1048E000F81227C142C086E1F81609F48EC089E1AA
:1048F000F8121FC1C9C083E0809342010E943C624C
:1049000080936D0180916E01292F30E0277033274D
:10491000887F822B80936E018FEF80934F0180E818
:1049200080934E0100000000000000000000000025
:104930000000000000000000000000000000000077
:10494000000000008091390182608093390183E288
:1049500090E00E94661FF092651F8FE0FAC0809180
:10496000651F883009F4EEC0A9C08091651F8930A9
:1049700009F4E8C040F4863079F010F4815007C0A3
:10498000883061F419C0863139F020F481518230C9
:1049900028F4D8C0893111F489E0B1C029E731E0A9
:1049A00045EE5DE06CE871E0CAC08091651F88301B
:1049B00019F0893021F4C6C00E94CE23C3C0F09202
:1049C0004201C0C08091651F893099F048F486305B
:1049D00009F4B8C010F4815007C0883079F40BC0D6
:1049E000863139F020F48151823040F4ABC08931F6
:1049F00029F486E084C00E94CE2360C029EA31E019
:104A000045EE5DE060EB71E09AC08091651F8930F2
:104A1000B1F040F48630A9F010F4815008C088301D
:104A200061F50BC0863109F48DC020F481518230CC
:104A300020F588C0893109F502C00E94CE2386E1A5
:104A40005EC089E080934201000000000000000089
:104A50000000000000000000000000000000000056
:104A60000000000000000000809141018F718093E0
:104A7000651F893009F06DC021C025ED31E045EE9C
:104A80005DE064ED71E05BC08091651F8930B1F03D
:104A900048F48630B1F010F4815008C0883009F035
:104AA00041C02AC0863169F028F48151823008F073
:104AB00039C048C0893109F035C044C0F092420184
:104AC00020C089E080934201000000000000000047
:104AD00000000000000000000000000000000000D6
:104AE0000000000000000000809141018F71809360
:104AF000651F893071F502C00E94CE2389E1809341
:104B00004201000000000000000000000000000062
:104B10000000000000000000000000000000000095
:104B2000000010C021E032E045EE5DE068EF71E08A
:104B300006C028E032E045EE5DE06CE172E080E026
:104B40000E949C22809141018F718093651F8F315B
:104B5000C9F328960FB6F894DEBF0FBECDBFDF9124
:104B6000CF911F910F91FF90EF90DF90089580916A
:104B70003C1F8823E1F08091691F811118C080914A
:104B8000FB189091FC18892B39F48AE90E940623BE
:104B90009093FC188093FB188091FB189091FC185F
:104BA000892B29F010923C1F86E10E94FD23809101
:104BB000411F882351F060E070E08DE39FE10E9487
:104BC000A623009711F00E947E268091691F8230F3
:104BD00031F090F0843081F0853029F402C00C94DB
:104BE000B5260C94522828EE30E045EE5DE06CE6E8
:104BF00071E080E00C949C220895CF92DF92EF92B6
:104C0000FF920F931F93CF93DF93E091FB18F091E6
:104C1000FC18309789F427E530E049E25EE06FE860
:104C200072E080E0DF91CF911F910F91FF90EF90A4
:104C3000DF90CF900C949C2200811181C09047019D
:104C4000D0907B01D7FC51C08D2D8E5FCAE9D0E09A
:104C5000C81BD109C00FD11FED2CF12CC701019643
:104C6000AC0160E871E0CE010E945B62DA92F8016B
:104C7000D487C387CE0DDF1DCA8280914C018F7708
:104C800080934C0182E090E00E94661F80914C016D
:104C9000806880934C0183E880935C018091441F7D
:104CA0009091451FA091461FB091471FF80187833F
:104CB0009087A187B2876091FB187091FC188DE3F3
:104CC0009FE10E948B238AE90E9406239093FC189F
:104CD0008093FB18892B31F489E00E94FD2381E049
:104CE00080933C1F80E480934F01DF91CF911F910F
:104CF0000F91FF90EF90DF90CF900895CF93DF93C7
:104D00009C01FC01C081D181AB85BC85EC91E09315
:104D1000661FF0E03196EA0FFB1F408161816D3321
:104D200018F4662319F003C06CE301C061E04295FA
:104D30004695469543708FEF489FA0011124649FCC
:104D4000C001659F900D112464EB70E00E94535FD9
:104D50006F3F710511F008F06FEF60833A8329838C
:104D6000CE01DF91CF910C9497361092691FE0919C
:104D7000671FF091681F208130E0275F3F4F85E07B
:104D8000220F331F8A95E1F7E091421FF091431FF4
:104D9000A385B48511968C9185FF02C0205E3D4F9E
:104DA00087819085A185B285821B930BA109B109EA
:104DB00087839087A187B2878091FD18833069F03F
:104DC00028F4882341F0813061F416C0853039F031
:104DD000873039F40FC080E010C081EE0EC089EE3C
:104DE0000CC026EE30E040E75EE061EB72E080E070
:104DF0000E949C2285E801C087E86091421F709163
:104E0000431F0C941947CF93DF93EC01662381F085
:104E100020916C018091641F30E1839FC0011124B7
:104E20002F70282B20936C01C230D105F0F409C0FB
:104E300080916C018F7080936C01C230D105A8F411
:104E400010C080916C0120915C1F30E0220F331F55
:104E50002E703327817F822B80936C0110926F011B
:104E60001CC080916C018E6016C08091631F20E190
:104E7000829FC001112490915D1F982B90936F0128
:104E800080916C0120915C1F30E0220F331F2E7047
:104E90003327817F822B80936C0183E880935C01B0
:104EA00089E10E94FD238931D9F7219751F480913E
:104EB000661F833118F080E492E005C080E890E03E
:104EC00002C089E090E00E94661FCFB7F8948091FD
:104ED0003901826080933901809139018D7F8093FF
:104EE0003901E091671FF091681F808190E0019780
:104EF000AC01BF0180E891E00E945B6281E0809399
:104F0000691FCFBFDF91CF910895FC01CB012091A4
:104F1000691F211111C0F093431FE093421F2385A5
:104F200034853093681F2093671F232B39F0642F3B
:104F30000E94032780E0089586E8089588EE08958A
:104F4000CF93C091691FC13009F58091421F9091A4
:104F5000431F07960E944D1F8091420182958695BE
:104F600087708093FD1882E08093691F8091FB1801
:104F70009091FC18892B31F489E00E94FD23C093A5
:104F80003C1F04C086E1CF910C94FD23CF9108957E
:104F9000809147019091FE18981710F48093FE18A5
:104FA0008091FF1890910019A0910119B0910219F8
:104FB0000197A109B1098093FF1890930019A0935C
:104FC0000119B0930219892B8A2B8B2B21F08FEFBB
:104FD00080934701089585E08093691F0895CF93DA
:104FE000DF93D82F8091691F882381F08091651FFE
:104FF0008F3009F453C02BE530E047EB5EE060ED05
:1050000072E080E00E949C2286E849C084E00E9411
:10501000FD2390915501906890935501C0E1C09394
:105020004F0188EC97E20E946E1CC0934E0186E00F
:105030000E94FD23863051F0809155018F77809337
:1050400055018CE480934E0185E829C084E080936B
:10505000691F1092FE1840EC53E060E070E004C05D
:10506000440F551F661F771FDA95D2F740545C4FE7
:105070006F4F7F4F83E076956795579547958A9553
:10508000D1F74093FF185093001960930119709362
:1050900002198FEF8093470180E001C081E8DF9122
:1050A000CF910895809155018F77809355018CE4BD
:1050B00080934E011092691F86E10E94FD2380912A
:1050C000FE18883320F08FEF8093FE180AC02FEF70
:1050D000829FC001112467E370E00E94535F6093D8
:1050E000FE188091FE180C947C4C982F85FD02C010
:1050F0009F7303C091959F719195E7EEF2E0E49163
:10510000E9170CF405C0E6EFF2E0E4919E176CF4A9
:10511000E03E44F0E03244F48E2FE7FF06C08F718A
:10512000806203C080E201C08FE180680895982FFB
:1051300085FD02C09F7303C091959F71919520E0FA
:1051400030E0822FF901E951FD4FE4919E1724F0E0
:10515000E91744F4815008952F5F3F4F2031310506
:1051600081F780E0089584E080935C1F23E0209322
:105170005D1F8FEF9FEF9093571F8093561F909363
:10518000551F8093541F8BE080935B1F1092601F0C
:1051900080E098EFAFEFB7E08093501F9093511FDE
:1051A000A093521FB093531F8AE091E09093591F30
:1051B0008093581F8AE08093611F82E08093621F72
:1051C00085E08093631F2093641F84E80E94752804
:1051D00080935F1F81E080935A1F10925E1F089595
:1051E0008091561F809362018091571F80936301C5
:1051F000E4E6F1E0A8E4BFE18D918193EC3631E083
:10520000F307D1F78091541F809360018091551F5F
:10521000809361012091480180915A1F30E2839F61
:10522000C0011124807699272F79282B20934801DB
:1052300090916F0180915D1F8F70907F892B80937B
:105240006F0180916E0190915E1F90FB83F98093B6
:105250006E0120916F018091631F30E1839FC00137
:1052600011242F70282B20936F0190914801809179
:105270005B1F8F71907E892B8093480180915F1F07
:105280000E949728909145018F70907F892B809381
:10529000450183E880935C010895CF93DF93EB0190
:1052A0009091691F943051F421E331E04EEF5EE0BC
:1052B00067EF72E080E00E949C22E7C08E3431F0FC
:1052C000893541F488818093641FD6C0888180939A
:1052D0005C1FD2C02091651F2F3009F4D2C08B30E3
:1052E00009F4C1C070F4823009F47BC018F488233B
:1052F000C9F1C9C0833009F483C0843009F0C3C048
:105300005CC0833521F130F48F3459F0803509F0D9
:10531000BAC012C0873509F456C0803F09F0B3C047
:105320007FC0888180935D1F90916F018F70907F07
:10533000892B80936F01A0C0988189819093561F1B
:105340008093571F909362018093630195C0988169
:1053500089819093541F8093551F9093600180938F
:1053600061018AC0911191C080E098EFAFEFB7E082
:10537000088004C0B695A795979587950A94D2F7AB
:1053800080FF85C0283039F088E00E94FD238830F6
:10539000D9F726E101C028E0888180935B1F9091B6
:1053A00048018F71907E892B80934801283009F441
:1053B00063C086E10E94FD235FC0911166C08881B1
:1053C000811165C059C088818093631F20916F014E
:1053D00030E1839FC00111242F70282B20936F018F
:1053E0004BC088810E94752880935F1F0E94972878
:1053F000909145018F70907F892B809345013CC02F
:10540000888180935A1F2091480130E2839FC00118
:105410001124807699272F79282B209348012CC0BE
:1054200088818093481F89818093491F8A81809356
:105430004A1F8B8180934B1F8C8180934C1F8D81E1
:1054400080934D1F8E8180934E1F8F8180934F1FBD
:10545000E4E6F1E0A8E4BFE18D918193EC3681E0D0
:10546000F807D1F709C0988190935E1F80916E0173
:1054700090FB83F980936E0183E880935C0180E068
:1054800007C081E805C084EF03C086E801C088EE4C
:10549000DF91CF910895CF93809139018D7F8093D3
:1054A000390180EF90E00E94661F809139018E7F64
:1054B0008093390181E090E00E94661F809139015C
:1054C000816080933901CBE084E690E00E94661F02
:1054D000809141018F71C15021F40E94481E85E8DE
:1054E00005C0883089F78093651F80E0CF910895CB
:1054F000CF93DF930E943C6280936D01CEE6D1E0B2
:105500008881292F30E027703327887F822B88837A
:1055100080E00E94BD2B0E94DB2B88818062888303
:10552000ECE4F1E08081806880838CE480934E011C
:10553000DF91CF910895CF93DF9386E00E94FD2302
:105540008630D9F7809155018F778093550110925D
:105550004E0128E0C0E0D0E030914601CE01880F36
:10556000991F880F991F3076C32FD0E055E0D5954D
:10557000C7955A95E1F7C82BD92B00000000000011
:10558000000000000000000000000000000000001B
:10559000000000000000000000002150E9F683E058
:1055A0000E94FD238FEF80934F018CE480934E0186
:1055B000CE01DF91CF910C944062CF93C82F0E940F
:1055C0004B2A81112DC00E949B2A0E94782AC1116A
:1055D0000E94B3280E94F0281092691F10923C1F6D
:1055E0000AC060E070E08DE39FE10E94A62300976F
:1055F00011F00E940C238091411F8111F2CF8C2F5A
:105600000E94435388E080934F0180E480934F01D0
:1056100084E080934F0180E880934F0180E001C0D7
:1056200085E8CF910895CF93DF930E94DE1D81110D
:105630008CC080913901816080933901809139015A
:105640008D7F809339018CE791E00E94661F8091E5
:1056500039018E7F8093390181E090E00E94661FBE
:1056600080913901816080933901CBE084E690E03C
:105670000E94661F809141018F71C15019F40E94F0
:10568000481E63C0883091F78093651F80915C014C
:10569000833809F05AC04BC00E949B2A0E94782A86
:1056A0000E94B3280E94F0281092691F10923C1F9C
:1056B00009C0C8E4DFE10E943C6289938FE1C035F4
:1056C000D807C9F72091481F3091491F40914A1FC0
:1056D00050914B1F60914C1F70914D1F80914E1F38
:1056E00090914F1FAFEF0E942A60ADEF0E9448607B
:1056F00009F0F8F689EA9BE20E94691C81EB9BE2C3
:105700000E94641C89EB9BE20E94731C0E94D622BB
:105710008AE90E9406239093FC188093FB188DE37E
:105720009FE10E9484230E94395380E00FC028E447
:105730003FE148E050E060E070E080E00E94F31D4F
:105740000E944B2A811101C0A7CF85E8DF91CF913C
:105750000895CF93CFB7F8940E94FD25CFBFCF9186
:105760000895CF93CFB7F8940E94A027CFBFCF91D1
:10577000089584E49FE10C944D1F811116C080911F
:10578000651F8F30A1F08091691F811112C01092A6
:105790003C1F88E00E94FD238830D9F78FE00E94EB
:1057A000FD238F3031F480E0089588EE089581E87C
:1057B000089586E808958091651F8F3039F488E058
:1057C0000E94FD23883021F480E0089582E8089546
:1057D00085E808959091691F911117C0883031F4C0
:1057E0000E94FD2310923C1F88E008958091FB18D1
:1057F0009091FC18892B21F086E10E94FD2303C0C3
:1058000081E080933C1F86E0089586E80895DC01DE
:10581000ED91FC9124E12083638352834183BC0199
:1058200089E090E20C948B23CF93DF9300D0CDB727
:10583000DEB74FEF5FEF6BEE8091821F9091831F79
:105840000E94072C1092791F8FEF9FEF9A83898314
:10585000BE016F5F7F4F80E50E94554491E081114A
:1058600090E02FE932E046E45FE06DEB73E0892FD2
:105870000E949C228FEF9FEF9093C31F8093C21FC3
:105880001092B81F1092B91F1092BA1F1092BB1F2E
:105890001092BC1F1092BD1F1092BE1F1092BF1F0E
:1058A0000E94E5400F900F90DF91CF910895CF9225
:1058B000DF92EF92FF920F931F93CF93DF93CDB7B9
:1058C000DEB72F970FB6F894DEBF0FBECDBF7C01B9
:1058D000DC01ED91FC918FE0DE01119601900D92BB
:1058E0008A95E1F7F092831FE092821F8C818230CB
:1058F00019F48F8198851AC08F818093B81F88858D
:105900008093B91F89858093BA1F8A858093BB1FB6
:105910008B858093BC1F8C858093BD1F8D85809364
:10592000BE1F8E858093BF1F8EEF9FEF9093C31F86
:105930008093C21FBE016B5F7F4F80E50E9455447C
:1059400091E0811190E029E830E046E45FE06AE010
:1059500073E0892F0E949C220E940D41F701008173
:10596000118181E0D8018C931296FC92EE921197EE
:10597000F801EA56FF4F8083F801E956FF4F8F8503
:105980008083F801E257FF4F8091481F8083809108
:10599000491F818380914A1F828380914B1F83839B
:1059A00080914C1F848380914D1F858380914E1F71
:1059B000868380914F1F8783F801E457FF4F8FEF55
:1059C0009FEF918380838C81F801823061F4E657E8
:1059D000FF4F8091C21F9091C31F9183808383E208
:1059E00098EC45E11DC0EC57FF4F8091B81F8083B4
:1059F0008091B91F81838091BA1F82838091BB1FE0
:105A000083838091BC1F84838091BD1F8583809197
:105A1000BE1F86838091BF1F878383E29CEC4BE18E
:105A20002091561F3091571FDF0112972D933C9301
:105A30002091CE1FDF0113972C932F5F2093CE1F51
:105A4000DF0115978D939C9336974083D8011C9660
:105A5000FC93EE931B97BE016D5F7F4F84E00E9425
:105A60005544CC24C3948111C12C29EF30E046E485
:105A70005FE064E273E08C2D0E949C22BE016E5FA9
:105A80007F4F80E00E945544DD24D3948111D12CB6
:105A900021E031E046E45FE06AE373E08D2D0E948F
:105AA0009C22CC20D9F0DD20C9F041E062E070E01A
:105AB000C8010E948527811111C080910720882389
:105AC00049F024E231E046E45FE062E573E080E023
:105AD0000E949C2281E08093072008C04FEF5FEF77
