:100000000C94BC050C944F140C9482140C94B514ED
:100010000C94DD050C94E8140C94901F0C941B15A3
:100020000C944E150C94DD050C94DD050C94DD0547
:100030000C94DD050C94DD050C94DD050C94DD05B8
:100040000C94DD050C94DD050C94DD050C94DD05A8
:100050000C94DD050C94DD050C94DD050C94DD0598
:100060000C94DD050C94E7180C94DD050C94131921
:100070000C94DD050C94DB130C94DD050C94DD056C
:100080000C94DD050C94DD050C94DD050C94DD0568
:100090000C94DD050C94DD050C94DD050C94DD0558
:1000A0000C94DD050C94DD050C94DD050C94DD0548
:1000B0000C94DD050C94DD050C94DD050C94DD0538
:1000C0000C94DD050C94DD050C94DD050C94DD0528
:1000D0000C94DD050C94DD050C94DD050C94DD0518
:1000E0000C94DD050C944E1A0C94581A0C94231A97
:1000F0000C94A2190C94CD190C94621A0C947719D3
:100100000C94F8190C94191F0C942C1F0C94DD05F9
:100110000C94DD050C94DD050C94761A0C946C1A85
:100120000C94DD050C94DD050C94DD050C94DD05C7
:100130000C94DD05417373657274696F6E204661BE
:10014000696C6564206F6E2046696C652025732C90
:10015000206C696E652025642C206578707265734B
:1001600073696F6E2025730A0022436F7272757077
:1001700074656420717565756522203D3D203000F1
:100180002274616C5F7374617465206973206E6F93
:10019000742068616E646C656422203D3D203000EF
:1001A000227374617465207472616E736974696F0F
:1001B0006E206E6F742068616E646C656422203DF1
:1001C0003D203000227374617465207472616E7317
:1001D0006974696F6E206E6F742068616E646C65FF
:1001E0006422203D3D2030002273746174652074C8
:1001F00072616E736974696F6E206E6F74206861CE
:100200006E646C656422203D3D2030002273746171
:100210007465207472616E736974696F6E206E6F9D
:10022000742068616E646C656422203D3D2030005E
:100230002274727820636F6D6D616E64206E6F74CE
:100240002068616E646C656422203D3D2030002290
:1002500053776974636820504C4C5F4F4E20666141
:10026000696C65642C2062656361757365207472C6
:1002700078206973206E6F7420696E205452585F25
:100280004F464622203D3D203000226E6F20746193
:100290006C5F72785F62756666657220617661690F
:1002A0006C61626C6522203D3D20300022556E65F8
:1002B000787065637465642074616C5F74785F73D3
:1002C0007461746522203D3D2030002254414C2051
:1002D00069732054414C5F4255535922203D3D20C3
:1002E000300004030302020100FFFEFDFCFBF9F7EE
:1002F000F4EF2254414C20697320627573792220F7
:100300003D3D2030004D41435F53554343455353DA
:10031000203D3D207365745F737461747573004D87
:1003200041435F53554343455353203D3D20737430
:1003300061747573004D41435F53554343455353B7
:10034000203D3D207374617475735F3200224D410E
:100350004320697320616C726561647920627573F2
:100360007922203D3D2030004D41435F53554343AA
:10037000455353203D3D207365745F7374617475FC
:1003800073004D41435F53554343455353203D3D17
:10039000207365745F737461747573004D41435FBE
:1003A00053554343455353203D3D2074696D657259
:1003B0005F737461747573004D41435F53554343DC
:1003C000455353203D3D207365745F7374617475AC
:1003D0007300224D414320697320616C7265616432
:1003E00079206275737922203D3D20300022556EC0
:1003F000737570706F72746564204D41432066722E
:10040000616D6520696E207374617465204D414390
:100410005F4558504C494349545F504F4C4C206FF6
:1004200072204D41435F504F4C4C5F494D504C49F9
:1004300043495422203D3D20300022545F506F6CD0
:100440006C5F576169745F54696D6520746D7220CB
:10045000647572696E67206173736F636961746933
:100460006F6E2072756E6E696E6722203D3D203082
:1004700000225265636569766564206672616D6508
:1004800020696E20756E737570706F72746564206C
:100490004D414320706F6C6C207374617465222031
:1004A0003D3D20300022556E737570706F7274651B
:1004B00064204D414320636F6D6D616E6420696EF1
:1004C0002070617273655F4D50445522203D3D2080
:1004D000300022556E657870656374656420544100
:1004E0004C206461746120696E6469636174696F32
:1004F0006E22203D3D203000224D41432069732073
:10050000616C7265616479206275737922203D3D6A
:1005100020300022556E65787065637465642054E0
:10052000414C206461746120696E6469636174691F
:100530006F6E207768696C6520636865636B696EB0
:1005400067206D61635F7363616E5F73746174656F
:1005500022203D3D203000224E756C6C2066726179
:100560006D652046726F6D2054414C22203D3D2028
:100570003000224D414320697320616C72656164D3
:1005800079206275737922203D3D203000224E652E
:1005900069746865722050414E20636F6F726469A0
:1005A0006E61746F72206E6F7220636F6F72646918
:1005B0006E61746F7222203D3D20300022556E65C1
:1005C00078706563746564206164647265737369CF
:1005D0006E67206D6F646522203D3D203000224D06
:1005E000414320697320616C726561647920627592
:1005F000737922203D3D203000224D414320697314
:1006000020616C7265616479206275737922203D86
:100610003D203000224D414320697320616C72659A
:10062000616479206275737922203D3D203000029B
:10063000312429882A2C3BC83C83364C41D23EEFDA
:100640003E2A3EBC45AC480000764ABF4100004708
:100650002EE12D592E762E672E332FF92E8D2E005A
:100660000000005B2F962FA92ED32F4A2FB82F7C86
:100670002F892FC62F6F2F224469737061746368AE
:100680002068616E646C657220756E617661696C5C
:1006900061626C6522203D3D203000224D414320A7
:1006A000697320616C726561647920627573792267
:1006B000203D3D2030007472616E735F6672616D23
:1006C000652D3E696E6469726563745F696E5F74FF
:1006D00072616E736974203D3D2066616C736500C4
:1006E00022556E6B6E6F776E206275665F707472E6
:1006F000207479706522203D3D20300022496E64CF
:1007000069726563742064617461207065727369D5
:100710007374656E63652074696D657220737461AE
:100720007274206661696C656422203D3D20300052
:100730004D41435F53554343455353203D3D207343
:1007400065745F737461747573004D41435F5355F5
:100750004343455353203D3D207365745F7374617B
:10076000747573000104010101020101010101011D
:10077000010101010401080201010101020101025C
:1007800001020101020102020101010108224D41A1
:100790004320776173206E6F742062757379222015
:1007A0003D3D203000224672616D65207265737098
:1007B00020746D722072756E6E696E6722203D3DE9
:1007C000203000224D414320776173206E6F7420EA
:1007D0006275737922203D3D203000224D41432037
:1007E000776173206E6F74206275737922203D3DAE
:1007F0002030004D41435F53554343455353203D03
:100800003D2073746174757300224D4143206973F8
:1008100020616C7265616479206275737922203D74
:100820003D20300022556E6B6E6F776E206D6573C4
:1008300073616765207479706522203D3D2030002A
:100840004D41435F53554343455353203D3D207431
:10085000696D65725F73746174757300224D4143F5
:1008600020697320616C72656164792062757379A7
:1008700022203D3D2030004D41435F5355434345C9
:100880005353203D3D2074696D65725F73746174CC
:100890007573004D41435F53554343455353203DCA
:1008A0003D207365745F737461747573004D4143CB
:1008B0005F53554343455353203D3D207365745F5B
:1008C00073746174757300224D4143206973206114
:1008D0006C7265616479206275737922203D3D20D8
:1008E00030004D41435F53554343455353203D3DF5
:1008F000207365745F737461747573004D41435F59
:1009000053554343455353203D3D207365745F73F6
:100910007461747573004D41435F535543434553B0
:1009200053203D3D207365745F737461747573006B
:10093000224D414320776173206E6F74206275737E
:100940007922203D3D2030004D41435F53554343C4
:10095000455353203D3D207365745F737461747516
:1009600073004D41435F53554343455353203D3D31
:10097000207365745F737461747573004D41435FD8
:1009800053554343455353203D3D207365745F7376
:100990007461747573004D41435F53554343455330
:1009A00053203D3D207365745F73746174757300EB
:1009B0004D41435F53554343455353203D3D2063D1
:1009C00068616E6E656C5F706167655F7365745FAB
:1009D000737461747573004D41435F5355434345D0
:1009E0005353203D3D206368616E6E656C5F736597
:1009F000745F737461747573004D41435F53554365
:100A000043455353203D3D207365745F7374617497
:100A10007573004D41435F53554343455353203D48
:100A20003D207365745F737461747573004D414349
:100A30005F53554343455353203D3D207365745FD9
:100A4000737461747573004D41435F53554343455F
:100A50005353203D3D207365745F737461747573E7
:100A600000224D414320697320616C726561647995
:100A7000206275737922203D3D2030000C94B754DC
:100A80000C94EF3E0C9478240C9412390C94073992
:100A90000C94C62F0C947C2F0C94AC480C946F2FA4
:100AA0000C942C3B0C94DF050C94672E0C94852839
:100AB0000C94962F0C945B2F0C94D23E0C94680AE5
:100AC0000C94592E0C94BF410C9455520C949F33A6
:100AD0000C94AC2B0C9424290C9408440C941148CD
:100AE0000C94A92E0C9481520C944C410C944A2FD6
:100AF0000C94B53A0C94472E0C94F9500C94792828
:100B00000C9402310C94764A0C94A92C0C94E12D8F
:100B10000C94B82F0C94F84F0C94D44F0C941D39AE
:100B20000C948D2E0C9484330C9439540C94C83C42
:100B30000C9481280C942A3E0C9491450C94B1524B
:100B40000C9483360C94BC450C94CC2C0C94F92E4C
:100B50000C9496530C9471280C9468540C94332F75
:100B60000C941A420C94892F0C94882A0C94D32F3D
:100B70000C94E0280C94762E11241FBECFEFD1E800
:100B8000DEBFCDBF00E00CBF11E1A0E0B2E0E8ECB9
:100B9000FFEB00E00BBF02C007900D92A236B10739
:100BA000D9F722E2A2E6B1E101C01D92AB38B2074B
:100BB000E1F70E94C1560C94E25F0C940000EF92A2
:100BC000FF920F931F9362E081E090E00E944A1F22
:100BD000E12CF12C0FED15E020E040E251EA67E056
:100BE00070E085E00E94991D1F910F91FF90EF909A
:100BF0000895EF92FF920F931F93CF93DF931F926D
:100C00001F92CDB7DEB790913317811141C0992360
:100C100021F085E294E00E946A5B80912802909125
:100C2000290220913317892B99F4222341F081E383
:100C300094E09F938F930E942E5B0F900F901982E8
:100C40001A82BE016F5F7F4F83E50E94B04E2DC0B8
:100C5000222341F082E694E09F938F930E942E5BC3
:100C60000F900F9000E024E040E058EF6FEF77E046
:100C700081E00E94254FE12CF12C0FED15E020E0E2
:100C800040E251EA67E070E085E00E94991D0DC0E6
:100C9000992341F083E894E09F938F930E942E5B09
:100CA0000F900F9081E00E94824E0F900F90DF9185
:100CB000CF911F910F91FF90EF900895CF92DF9207
:100CC000EF920F93CF93DF93909132179F5F9093A2
:100CD0003217909133178111DFC0992321F081EAF7
:100CE00094E00E946A5BE60120E0BAC03B853431A3
:100CF00009F0B4C08C858111B1C089819A818E3B85
:100D00009A4509F0ABC08D859E8597FFA7C080915D
:100D100033178823B1F01F921F921F923F938AE5E9
:100D20008F938EEB8F9381EB94E09F938F930E9430
:100D30002E5B8DB79EB708960FB6F8949EBF0FBE78
:100D40008DBF9881809133179230C9F4882381F048
:100D5000809125178F93809124178F938EED94E0C7
:100D60009F938F930E942E5B0F900F900F900F9088
:100D70008B819C81909325178093241757C09330C3
:100D800009F041C0882331F180912D178F93809114
:100D90002C178F9380912B178F9380912A178F9305
:100DA000809129178F93809128178F93809127170F
:100DB0008F93809126178F938EEF94E09F938F935C
:100DC0000E942E5B8DB79EB70A960FB6F8949EBF11
:100DD0000FBE8DBF7B816C815D814E813F812885F7
:100DE00099858A8570932617609327175093281743
:100DF0004093291730932A1720932B1790932C1781
:100E000080932D1713C0882341F083E894E09F93CB
:100E10008F930E942E5B0F900F9081E0DF91CF9116
:100E20000F91EF90DF90CF900C94824E809133170A
:100E3000882341F08FE095E09F938F930E942E5B73
:100E40000F900F9020E8AE016C858B85DF91CF91DC
:100E50000F91EF90DF90CF900C94724D65962F5FBD
:100E60002E1144CF9091321780913317933058F65A
:100E7000882341F08AE295E09F938F930E942E5B36
:100E80000F900F9000E024E040E058EF6FEF77E024
:100E900081E00E94254F17C08A3E89F4992341F0D2
:100EA00085E695E09F938F930E942E5B0F900F90A5
:100EB00080913217833030F380913317A4CF992378
:100EC00009F4ABCFA2CFDF91CF910F91EF90DF90DC
:100ED000CF90089580913317611115C0882321F0B8
:100EE00082EA95E00E946A5B85E00E94E61C60E071
:100EF00081E090E00E944A1F83E090E090933517D4
:100F0000809334170895882341F083E894E09F93F9
:100F10008F930E942E5B0F900F9081E00C94824E75
:100F20000895611108C080913317882321F08BEC5C
:100F300095E00E946A5B61E082E090E00C944A1FB9
:100F4000AF92CF92EF920F93CF93DF931F92CDB7D3
:100F5000DEB7811143C080913317633589F488234C
:100F600041F083EE95E09F938F930E942E5B0F904C
:100F70000F9081E08983BE016F5F7F4F81E412C0D3
:100F8000613499F4882341F086E296E09F938F9331
:100F90000E942E5B0F900F9081E08983BE016F5FEE
:100FA0007F4F82E50E94B04E28C06235B9F4882395
:100FB00041F087E696E09F938F930E942E5B0F90FF
:100FC0000F90A12CC12CEE24E3940FE02FE040E021
:100FD00064E18EEB9AE50E945D4F0FC0809133175C
:100FE000882341F083E894E09F938F930E942E5BC7
:100FF0000F900F9081E00E94824E0F90DF91CF9171
:101000000F91EF90CF90AF90089590913317811189
:101010002AC09923C9F01F921F921F921F921F92FC
:1010200084E18F938AE58F938EEB8F938FE996E01F
:101030009F938F930E942E5B8DB79EB70A960FB633
:10104000F8949EBF0FBE8DBF85E00E94E61C60E055
:1010500081E090E00E944A1F82E090E09093351773
:10106000809334170895992341F083E894E09F9387
:101070008F930E942E5B0F900F9081E00C94824E14
:101080002F923F924F925F926F927F928F929F9298
:10109000AF92BF92CF92DF92EF92FF920F931F9386
:1010A000CF93DF93922E832E742E652E562E472ECD
:1010B000382E292E80913317882341F080E097E065
:1010C0009F938F930E942E5B0F900F90AEE3B7E13A
:1010D000FD01C081D1812097A1F02281338144811B
:1010E00055816681778180859185A92CB82CC72C84
:1010F000D62CE52CF42C032D122D0E94F15909F465
:1011000043C03A968BE1E632F80719F780E090E0A9
:101110002D913C911197EC012196232BA9F42AE003
:10112000289FD001299FB00D1124A25CB84EFD016B
:10113000C193D19312969C9281827282638254826F
:1011400045823682278220C0CE011A96C436D10548
:10115000F9F61FC081E297E00E946A5BE12C8E01E4
:1011600008C08AE397E00E946A5BEE24E3940FEFE5
:101170001FEF292D382D472D562D652D742D832DCC
:10118000922D0E94B74D0AC080913317882331F306
:10119000E1CF80913317882341F3E3CFDF91CF91E3
:1011A0001F910F91FF90EF90DF90CF90BF90AF9085
:1011B0009F908F907F906F905F904F903F902F9077
:1011C00008957F928F929F92AF92BF92CF92DF92BB
:1011D000EF92FF920F931F93CF93DF93CDB7DEB7BC
:1011E0002F970FB6F894DEBF0FBECDBF142F490165
:1011F000AC86BD86CE86DF8660E082E090E00E940D
:101200004A1FCE010C960E94431CCC84DD84EE84E0
:10121000FF848091361790913717A0913817B091BD
:101220003917C0923617D0923717E0923817F092DC
:101230003917C81AD90AEA0AFB0AC114D10461E0B5
:10124000E606F10428F0CC24CA94DC2CE12CF12C25
:10125000F401918180913317913F09F445C0923F89
:1012600009F481C0903F09F0BDC0882331F060E5EA
:1012700077E0CE0101960E94DC5A2091701E7D2CF1
:10128000F7E22F9F900111242E56304E80E090E01F
:10129000412F50E05A0164E0A61AB108BA01635028
:1012A00071094250510918C0F901E80FF91F8A1558
:1012B0009B0511F4C0820FC08617970711F4708246
:1012C0000AC08417950711F4008305C0D401A80F44
:1012D000B91FAC91A0830196811730F38091701EE5
:1012E0008F5F8093701E86C0882331F06AE577E0B7
:1012F000CE0101960E94DC5A2091901F7D2C87E23E
:10130000289F900111242651334E80E090E0412F18
:1013100050E05A01E4E0AE1AB108BA016350710915
:101320004250510918C0F901E80FF91F8A159B05B1
:1013300011F4C0820FC08617970711F470820AC09B
:101340008417950711F4008305C0D401A80FB91FB5
:10135000AC91A0830196811730F38091901F8F5F2D
:101360008093901F47C0882331F065E677E0CE0177
:1013700001960E94DC5A209119217D2CF7E22F9FC3
:1013800090011124245A344E80E090E0412F50E027
:101390005A0164E0A61AB108BA01635071094250BB
:1013A000510918C0F901E80FF91F8A159B0511F4BE
:1013B000C0820FC08617970711F470820AC0841785
:1013C000950711F4008305C0D401A80FB91FAC9193
:1013D000A0830196811730F3809119218F5F80934C
:1013E000192108C0882331F06DE677E0CE0101961F
:1013F0000E94DC5A80913317882309F450C0FF9271
:10140000EF92DF92CF921F920F931F921F93CE0104
:1014100001969F938F9385E797E09F938F930E9408
:101420002E5BB82C0FB6F894DEBF0FBECDBF740193
:1014300059ECC52E57E0D52E17C0F70181917F01D9
:101440001F928F93DF92CF920E942E5B07700F90B6
:101450000F900F900F90073019F48AE090E002C0CF
:1014600080E290E00E94645B0E2D0B19011728F3B7
:10147000809119211F928F938091901F1F928F93BB
:101480008091701E1F928F9380ED97E09F938F93B2
:101490000E942E5B0FB6F894DEBF0FBECDBF61E099
:1014A00082E090E00E944A1F2F960FB6F894DEBFAC
:1014B0000FBECDBFDF91CF911F910F91FF90EF90A5
:1014C000DF90CF90BF90AF909F908F907F900895C6
:1014D000EF92FF920F931F93CF93DF93CDB7DEB7B9
:1014E0002C970FB6F894DEBF0FBECDBF182F86E045
:1014F0000E94E61C809133178823E1F0111103C08C
:1015000068EF77E007C0113019F461E078E002C0BD
:101510006DE078E0CE0101960E94DC5A9F938F9394
:1015200024E138E03F932F930E942E5B0F900F90A1
:101530000F900F90111145C020910002809162110F
:1015400090916311222311F00A9601C00A9790939B
:101550006311809362118091621190916311AA27A7
:1015600097FDA095BA2F865E9D45A547BF4F8093F6
:101570003C2190933D21A0933E21B0933F212091A7
:101580003317222381F0BF93AF939F938F938FE301
:1015900098E09F938F930E942E5B0F900F900F9077
:1015A0000F900F900F90EE24E394F12C08E61AE0D0
:1015B00020E04CE150E260E070E086E00E94991D7E
:1015C00059C0113009F04EC0809100022091621183
:1015D00030916311882341F0211580E138070CF424
:1015E0000CC01092000204C0213080EF38071CF0BC
:1015F0002150310904C0109300022F5F3F4F3093F8
:101600006311209362118091621190916311AA2756
:1016100097FDA095BA2F825C9E43AD47BF4F809344
:10162000402190934121A0934221B09343212BE08C
:1016300030E030933517209334172091331722234D
:10164000C9F0BF93AF939F938F9380E598E09F93EA
:101650008F930E942E5B0F900F900F900F900F9022
:101660000F9008C080913317882321F080E698E01E
:101670000E946A5B2C960FB6F894DEBF0FBECDBFFA
:10168000DF91CF911F910F91FF90EF90089580917E
:101690003317882341F082E798E09F938F930E944D
:1016A0002E5B0F900F9080916A1190916B11ECE17D
:1016B000F1E28193919321E2EC33F207D1F720918B
:1016C0000402222341F08F3F23E0920710F4019699
:1016D00003C010920402019790936B1180936A11DA
:1016E00085E090E0909335178093341780913317FD
:1016F000882321F08BE294E00C946A5B089580913A
:101700003317882341F083E898E09F938F930E94DA
:101710002E5B0F900F9081E00895809133178823FE
:1017200041F088E998E09F938F930E942E5B0F9081
:101730000F9080916811909169118093481B90934C
:10174000491B80934A1B90934B1B80934C1B909397
:101750004D1B20910302222341F08F3F23E092078B
:101760000CF40AC01092030202C097FD02C0019758
:1017700004C021E0209303020196909369118093A5
:10178000681180913317882321F08BE294E00E9446
:101790006A5B81E080930702089580913317882364
:1017A00041F082EB98E09F938F930E942E5B0F9005
:1017B0000F90809166119091671180934E1B9093CA
:1017C0004F1B8093501B9093511B8093521B9093FF
:1017D000531B8093541B9093551B2091020222238C
:1017E00059F08F3F2FE7920711F0019610C0109229
:1017F00002028EEF9FE70BC0811520E8920711F0DF
:10180000019705C081E08093020281E090E8909307
:1018100067118093661180913317882321F08BE242
:1018200094E00E946A5B81E08093060208958091B3
:101830003317882341F088EC98E09F938F930E94A0
:101840002E5B0F900F9080916411909165118093A1
:10185000561B9093571B8093581B9093591B809352
:101860005A1B90935B1B20910102222341F08F3F72
:1018700027E092070CF40AC01092010202C097FD03
:1018800002C0019704C021E02093010201969093C9
:1018900065118093641180913317882321F08BE2C6
:1018A00094E00E946A5B81E0809305020895809134
:1018B0003317882341F08CED98E09F938F930E941B
:1018C0002E5B0F900F9010924521109244218FEBC8
:1018D0009CE990934721809346218CE390E9909373
:1018E00049218093482185E19BE590934B2180938A
:1018F0004A2182EF9AE590934D2180934C2188EB09
:1019000092E890934F2180934E2188E99EE6909330
:10191000512180935021109253211092522181E045
:10192000089580913317882341F085EF98E09F93C5
:101930008F930E942E5B0F900F9086EA0E94861A6A
:10194000882321F00E94D11A80E008958CE20E9441
:10195000D91A8111F7CF8DE00E94D91A8111F2CFE7
:1019600088E00E94D91A8111EDCF86EA0E94CF1A31
:101970008111E8CF81E30E94D91A8111E3CF89E078
:101980000E94D91A8111DECF0E94D11A81E00895F8
:10199000BF92CF92DF92EF92FF920F931F93CF935C
:1019A000DF9380913317882341F085E099E09F937E
:1019B0008F930E942E5B0F900F9086EA0E94861AEA
:1019C000882321F00E94D11A80E02EC082E30E9479
:1019D000D91A8111F7CF87EA0E94CF1A8111F2CF6D
:1019E000C8E4DBE1B12C82E0B8120AC00E94EA1A16
:1019F000C82ED12C0E94F41A182F00E0C80109C08B
:101A00000E94EA1AC82ED12C0E94EA1AF82EE12C64
:101A1000C7018C299D2989939993B39483E0B812C7
:101A2000E2CF1092070281E0DF91CF911F910F91D9
:101A3000FF90EF90DF90CF90BF9008951F93CF93CA
:101A4000DF9380913317882341F08CED98E09F93CA
:101A50008F930E942E5B0F900F9084B1866084B9A3
:101A600084B1867F84B985B1896085B982E58CBDF2
:101A70008DB581608DBD289A209A0E9481158FEBCB
:101A80009BE20197F1F700C00000C6E4D1E211E04B
:101A9000812F0E948B1589939993019649F4809127
:101AA0003317882389F086E299E00E946A5B0CC0B4
:101AB0001F5F183069F780913317882339F08BE264
:101AC00094E00E946A5B02C080E001C081E0DF9187
:101AD000CF911F910895EF92FF920F931F93CF9391
:101AE000DF93CDB7DEB72C970FB6F894DEBF0FBEED
:101AF000CDBFE82E162F072F809133178823D9F0FA
:101B0000E11003C068EF77E002C061E078E0CE0149
:101B100001960E94DC5A0F931F939F938F9322E4A8
:101B200039E03F932F930E942E5B0F900F900F9000
:101B30000F900F900F90F12C08E61AE020E04CE196
:101B400050E260E070E086E00E94991D2C960FB68E
:101B5000F894DEBF0FBECDBFDF91CF911F910F91E3
:101B6000FF90EF90089580913317882341F08DE71F
:101B700099E09F938F930E942E5B0F900F900E948D
:101B80003D50BC0180E090E00E94B15420E030E480
:101B900043E855E40E94905320E030E040E851E4EF
:101BA0000E94AB520E94C65060931A218091331755
:101BB000882361F01F926F9388E999E09F938F9338
:101BC0000E942E5B0F900F900F900F9008958091C0
:101BD0003317882341F08BEA99E09F938F930E94FB
:101BE0002E5B0F900F908CE30E94861A882321F0C1
:101BF0000E94D11A80E0089582E00E94D91A8111D2
:101C0000F7CF0E94D91A8111F3CF0E94D11A81E037
:101C10000895BF92CF92DF92EF92FF920F931F939E
:101C2000CF93DF9380913317882321F083EB99E0E2
:101C30000E946A5B8CE30E94861A882321F00E942E
:101C4000D11A80E02EC083E00E94D91A8111F7CF0B
:101C50008DE30E94CF1A8111F2CFC6E5DBE1B12CF2
:101C600082E0B8120AC00E94EA1AC82ED12C0E9443
:101C7000F41A182F00E0C80109C00E94EA1AC82E01
:101C8000D12C0E94EA1AF82EE12CC7018C299D293B
:101C900089939993B39483E0B812E2CF109205022E
:101CA00081E0DF91CF911F910F91FF90EF90DF9036
:101CB000CF90BF900895FF920F931F93CF93DF9320
:101CC000EC0180913317882321F08DEC99E00E947C
:101CD0006A5BC230D10509F4C7C0C330D10509F42D
:101CE000BDC1219709F009C281E48093921F80EF62
:101CF0008093931F8AE58093A81FE1E7FEE1A4E9A2
:101D0000BFE1808132968D938EE1EB38F807C9F7F9
:101D10008091781E90E0837099272091721E229501
:101D2000220F220F207C282B8091741E90E083705C
:101D300099278295807F282B8091761E90E0837072
:101D40009927880F880F282B2093A11F8091801E30
:101D500090E08370992720917A1E2295220F220FFE
:101D6000207C282B80917C1E90E08370992782959F
:101D7000807F282B80917E1E90E083709927880FAA
:101D8000880F282B2093A21F8091881E90E08370DB
:101D900099272091821E2295220F220F207C282B2A
:101DA0008091841E90E0837099278295807F282BF4
:101DB0008091861E90E083709927880F880F282BCA
:101DC0002093A31F80918A1E8295880F880F807CA4
:101DD0008093A41F9091471B992329F080628093E0
:101DE000A41F1092471B8091911F882339F0809186
:101DF000A41F80618093A41F1092911F80911B21CA
:101E0000882339F08091A41F88608093A41F1092CA
:101E10001B2180913317882301F1C2E9DFE1F12C06
:101E200008EF13E089911F928F931F930F930E94E5
:101E30002E5B8F2D87700F900F900F900F90873033
:101E400021F48AE090E00E94645BF39487E1F81249
:101E5000E9CF8AE090E00E94645B83E090E0909399
:101E600035178093341749C181E48093EA1C81EFD0
:101E70008093EB1C8AE58093101DE7E2FBE1ACEE5A
:101E8000BCE1808132968D938BE1EF33F807C9F77F
:101E900080912E1B90E0837099272091281B22951A
:101EA000220F220F207C282B80912A1B90E0837028
:101EB00099278295807F282B80912C1B90E083703E
:101EC0009927880F880F282B2093F81C8091361BA8
:101ED00090E0837099272091301B2295220F220FCA
:101EE000207C282B8091321B90E08370992782956B
:101EF000807F282B8091341B90E083709927880F76
:101F0000880F282B2093F91C80913E1B90E0837052
:101F100099272091381B2295220F220F207C282BF5
:101F200080913A1B90E0837099278295807F282BBF
:101F300080913C1B90E083709927880F880F282B95
:101F40002093FA1C8091481B3091491B8093FB1C05
:101F500080914A1B40914B1B8093FC1C80914C1B31
:101F600020914D1B8093FD1C842F90E08770992752
:101F7000880F880F3295330F307E832B8093FE1CA1
:101F80002295220F207E2093FF1C90914E1B809162
:101F90004F1B9093001D8093041D9091501B8091C6
:101FA000511B9093011D8093051D9091521B8091B0
:101FB000531B9093021D8093061D9091541B80919A
:101FC000551B9093031D8093071D8091561B3091E4
:101FD000571B8093081D8091581B4091591B80937B
:101FE000091D80915A1B20915B1B80930A1D842F31
:101FF00090E08F7099273295307F382B30930B1DEE
:102000002295207F80911A218F70282B20930C1D00
:1020100080913317882309F470C0CAEEDCE1F12CFB
:1020200008EF13E089911F928F931F930F930E94E3
:102030002E5B8F2D87700F900F900F900F90873031
:1020400021F48AE090E00E94645BF39487E2F81246
:10205000E9CF8AE090E00E94645B4FC081E4809306
:102060005C1B82EF80935D1B8AE580936A1B309135
:10207000E21C2091E31C9091E41C8091E51C3093BC
:102080005E1B20935F1B9093601B8093611B3091BC
:10209000E61C2091E71C9091E81C8091E91C30938C
:1020A000621B2093631B9093641B8093651B80913C
:1020B0001A218F708093661B809133178823E9F073
:1020C000CCE5DBE1F12C08EF13E089911F928F93AF
:1020D0001F930F930E942E5B8F2D87700F900F9090
:1020E0000F900F90873021F48AE090E00E94645BAB
:1020F000F3948FE0F812E9CFACCF809133178823A7
:1021000049F08CEB9AE0DF91CF911F910F91FF90F6
:102110000C946A5BDF91CF911F910F91FF9008950E
:10212000CF92DF92EF92FF920F931F93CF93DF93A3
:10213000CDB7DEB72F970FB6F894DEBF0FBECDBF79
:102140008C01CE010C960E94261C6C857D858E85A7
:102150009F85C0903A17D0903B17E0903C17F090C5
:102160003D176C197D098E099F09613221EA7207BA
:1021700027E08207910508F465C0209133172223D8
:10218000B9F028EE33E040E050E00E943C597F93E4
:102190006F935F934F933F932F9386EF99E09F93B5
:1021A0008F930E942E5B0FB6F894DEBF0FBECDBF9B
:1021B0008C859D85AE85BF8580933A1790933B179C
:1021C000A0933C17B0933D1782E089838EEB9AE58C
:1021D0009B838A8380912417909125179D838C83FC
:1021E0000230110591F003301105D9F001301105CD
:1021F00049F560E082E090E00E944A1FEE24E394FB
:1022000000E022E93FE147E117C060E082E090E0B2
:102210000E944A1FEE24E39400E02AEE3CE147E2EC
:102220000BC060E082E090E00E944A1FEE24E3943D
:1022300000E02CE53BE14FE0BE016F5F7F4F82E0A5
:102240000E94F64C2F960FB6F894DEBF0FBECDBF9E
:10225000DF91CF911F910F91FF90EF90DF90CF9082
:10226000089580913317882341F081E29AE09F938B
:102270008F930E942E5B0F900F9080ED0E94861A24
:10228000882321F00E94D11A80E0089585E10E9400
:10229000D91A8111F7CF87E00E94D91A8111F2CFA4
:1022A00089E10E94D91A8111EDCF80ED0E94CF1AE9
:1022B0008111E8CF8EE30E94D91A8111E3CF81E02A
:1022C0000E94D91A8111DECF0E94D11A81E00895AF
:1022D000BF92CF92DF92EF92FF920F931F93CF9313
:1022E000DF9380913317882321F08DE29AE00E94DA
:1022F0006A5B80ED0E94861A882321F00E94D11A21
:1023000080E02EC08BE10E94D91A8111F7CF81EDB8
:102310000E94CF1A8111F2CFC6E5DBE1B12C83E038
:10232000B8120AC00E94EA1AC82ED12C0E94F41AD0
:10233000182F00E0C80109C00E94EA1AC82ED12C4B
:102340000E94EA1AF82EE12CC7018C299D29899355
:102350009993B39484E0B812E2CF1092060281E020
:10236000DF91CF911F910F91FF90EF90DF90CF9071
:10237000BF900895CF93DF93EC01809133178823AA
:1023800061F0DF93CF9389E49AE09F938F930E944B
:102390002E5B0F900F900F900F90C130D10591F0F0
:1023A00020F1229781F58FEF9FEF9093571B809339
:1023B000561B9093591B8093581B90935B1B8093E3
:1023C0005A1B21C08FEF9FEF90934F1B80934E1BA2
:1023D0009093511B8093501B9093531B8093521BDF
:1023E0009093551B8093541B0EC08FEF9FEF9093DB
:1023F000491B8093481B90934B1B80934A1B9093DF
:102400004D1B80934C1BDF91CF9108958091331722
:10241000882341F083E898E09F938F930E942E5B7E
:102420000F900F90E8E4FBE1119211928BE1EC35F3
:10243000F807D1F78091BC0085608093BC00809143
:102440006A00836F80936A008DB3806D8DBB0E949C
:10245000910C811101C009C00E943111811101C08C
:1024600004C00E94E70D81110FC08091BC008A7FDB
:102470008093BC0080916A008C7080936A008DB359
:102480008F728DBB80E0089580913317882321F0EF
:102490008BE294E00E946A5B81E00895809133179B
:1024A000882341F08BE69AE09F938F930E942E5BE6
:1024B0000F900F9084B3887F84BB5E9883B387604E
:1024C00083BB569A819880917E00826080937E00C3
:1024D00080913317882321F08BE294E00C946A5B9F
:1024E000089580913317882341F082E798E09F9305
:1024F0008F930E942E5B0F900F908091261B94B3B8
:10250000883018F4982B94BB09C0976094BB9BB19A
:102510008870880F880F880F892B8BB980913317AB
:10252000882369F0ECE1F1E280E090E09C01326008
:1025300021933193019680319105C1F7089581E887
:1025400080937C0080917A00806480937A00089563
:10255000CF93DF93EC0180913317882341F086E815
:102560009AE09F938F930E942E5B0F900F90C13043
:10257000D10519F0229781F518C0A8E1B2E0C1E7B2
:10258000DEE1ED91F0E0EE0FFF1FE45EFE4D808195
:1025900091818993999382E0A832B80791F780914D
:1025A000701E8F5F8093701E17C0A8E0B2E0C7E274
:1025B000DBE1ED91F0E0EE0FFF1FE45EFE4D808168
:1025C00091818993999382E0A831B80791F780911E
:1025D000901F8F5F8093901F80913317882331F075
:1025E0008BE294E0DF91CF910C946A5BDF91CF9105
:1025F0000895CF93DF93EC018091341790913517B4
:102600008330910508F4B5C087309105D9F138F4CD
:102610008330910561F0059709F0A6C027C08B3083
:10262000910509F485C00D9709F09EC08CC0CE01BC
:102630000197029758F41092261B84E090E0909343
:102640003517809334170E94470B8EC0C330D105D5
:1026500009F08AC08AE090E0909335178093341790
:1026600060E074E080E00E946B0D7EC086E090E048
:102670009093351780933417CE010E94A81287E0FB
:1026800090E06EC0C130D10529F0C230D10509F00B
:102690006BC009C08EE090E090933517809334179B
:1026A00081E090E059C0809118218823B1F1809198
:1026B0000702882371F088E090E0909335178093AB
:1026C00034170E948D0B811104C080E090E00E94BD
:1026D000BA1180910602882371F088E090E090930F
:1026E0003517809334170E94CD0B811104C081E00F
:1026F00090E00E94BA1180910502882371F088E071
:1027000090E090933517809334170E94170C811135
:1027100004C082E090E00E94BA118EE090E09093B5
:102720003517809334170E94B30D82E090E014C0F7
:102730008CE090E090933517809334170E943B16FD
:102740008DE090E00DC08EE090E09093351780937F
:1027500034170E94B30DCE010E945B0E83E090E01F
:102760009093351780933417CE01DF91CF910C945D
:102770009010DF91CF91089580913317882341F015
:1027800087E99AE09F938F930E942E5B0F900F90A2
:10279000589A509A809169008F63809369008DB335
:1027A00087608DBB80913317882321F08BE294E002
:1027B0000C946A5B08951F920F920FB60F9211242A
:1027C0000BB60F922F933F934F935F936F937F932B
:1027D0008F939F93AF93BF93EF93FF93F894809160
:1027E000341790913517209133170497C1F52223A0
:1027F00071F08091261B1F928F9381EB9AE09F933B
:102800008F930E942E5B0F900F900F900F9020914E
:10281000261BE22FF0E080917A00806180937A009D
:102820008091780090917900EE0FFF1FE45EFE4DDD
:10283000937091838083822F8F5F8093261B8031DA
:1028400048F481E880937C0080917A0080648093D2
:102850007A0011C01092261B85E090E008C0222368
:1028600021F083EC9AE00E946A5B8FE090E0909305
:102870003517809334177894FF91EF91BF91AF9102
:102880009F918F917F916F915F914F913F912F9188
:102890000F900BBE0F900FBE0F901F9018951F92B8
:1028A0000F920FB60F9211240BB60F922F933F93F6
:1028B0004F935F936F937F938F939F93AF93BF9348
:1028C000EF93FF93F89480913317882321F083EFDF
:1028D0009AE00E946A5B81E08093471B7894FF91A5
:1028E000EF91BF91AF919F918F917F916F915F9188
:1028F0004F913F912F910F900BBE0F900FBE0F90F5
:102900001F9018951F920F920FB60F9211240BB6BD
:102910000F922F933F934F935F936F937F938F9378
:102920009F93AF93BF93EF93FF93F89480913317E6
:10293000882321F08BE09BE00E946A5B81E080931A
:10294000911F7894FF91EF91BF91AF919F918F91DB
:102950007F916F915F914F913F912F910F900BBE9F
:102960000F900FBE0F901F9018951F920F920FB6E9
:102970000F9211240BB60F922F933F934F935F93B7
:102980006F937F938F939F93AF93BF93EF93FF9337
:10299000F89480913317882321F083E29BE00E9412
:1029A0006A5B81E080931B217894FF91EF91BF9146
:1029B000AF919F918F917F916F915F914F913F91D7
:1029C0002F910F900BBE0F900FBE0F901F90189578
:1029D0001F920F920FB60F9211240BB60F922F93E6
:1029E0003F934F935F936F937F938F939F93AF9397
:1029F000BF93EF93FF93F89480913317882321F0CE
:102A00008BE39BE00E946A5B81E0809307027894ED
:102A1000FF91EF91BF91AF919F918F917F916F91B6
:102A20005F914F913F912F910F900BBE0F900FBE72
:102A30000F901F9018951F920F920FB60F921124AE
:102A40000BB60F922F933F934F935F936F937F93A8
:102A50008F939F93AF93BF93EF93FF93F8948091DD
:102A60003317882321F084E59BE00E946A5B81E0B4
:102A7000809306027894FF91EF91BF91AF919F915F
:102A80008F917F916F915F914F913F912F910F9017
:102A90000BBE0F900FBE0F901F9018951F920F92B4
:102AA0000FB60F9211240BB60F922F933F934F93B3
:102AB0005F936F937F938F939F93AF93BF93EF93A6
:102AC000FF93F89480913317882321F089E69BE0E7
:102AD0000E946A5B81E0809305027894FF91EF91F8
:102AE000BF91AF919F918F917F916F915F914F9126
:102AF0003F912F910F900BBE0F900FBE0F901F9024
:102B0000189528988EE18EBD0DB407FEFDCF289A4A
:102B100080E090E0089510926D1110926C11843055
:102B2000B1F030F4823069F078F48130C9F506C034
:102B3000863099F078F0873099F512C0289882EAAB
:102B400011C0289884EA0EC0289886EA0BC02898FD
:102B500088EA08C028988AEA05C028988CEA02C04A
:102B600028988EEA8EBD0DB407FEFDCF1EBC0DB4B5
:102B700007FEFDCF8EB510926C1180936D111EBCB7
:102B80000DB407FEFDCF2EB580916C1190916D11A3
:102B9000822B90936D1180936C11289A9C0102C036
:102BA0002FEF3FEFC90108952898611594E0790748
:102BB000E9F040F4611591E0790761F06115724028
:102BC00039F50EC0611598E07907B1F061157041D3
:102BD000F9F418C0811102C080E419C080E517C063
:102BE000811102C082E413C082E511C0811102C0CC
:102BF00084E40DC084E50BC0811102C086E407C0E7
:102C000086E505C0811102C088E401C088E58EBD5B
:102C10000DB407FEFDCF289A08950F931F932898AF
:102C20001EBC0DB407FEFDCF1EBC0DB407FEFDCFCC
:102C30000EB510E020E030E09801112700271EBCFF
:102C40000DB407FEFDCF8EB590E0A0E0B0E0BA2F46
:102C5000A92F982F88271EBC0DB407FEFDCF4EB5B7
:102C6000042B289A082B192B2A2B3B2BB801C901BE
:102C70001F910F9108952F923F924F925F926F9202
:102C80007F928F929F92AF92BF92CF92DF92EF92FC
:102C9000FF920F931F93CF93DF93CDB7DEB76C975F
:102CA0000FB6F894DEBF0FBECDBF809133178823D7
:102CB00009F447C0809143218F93809142218F93E3
:102CC000809141218F93809140218F9380913F216A
:102CD0008F9380913E218F9380913D218F9380919E
:102CE0003C218F93809151218F93809150218F931C
:102CF00080914F218F9380914E218F9380914D2110
:102D00008F9380914C218F9380914B218F93809151
:102D10004A218F93809149218F93809148218F93ED
:102D2000809147218F93809146218F938CE79BE080
:102D30009F938F930E942E5B0FB6F894DEBF0FBE59
:102D4000CDBF80914E2190914F219C0140E050E0F9
:102D500060E070E080E090E008E00E94B559490131
:102D60005A01409040215090412160904221709042
:102D70004321481859086A087B08409276115092FE
:102D80007711609278117092791153014201BB0C56
:102D90008808982C540189829A82AB82BC828091E7
:102DA0005021909151214C01A12CB12CC12CD12C3E
:102DB00076018B8B9C8AAD8ABE8ACF8AD88EE98EAB
:102DC000FA8E52016301E980FE2C0E2D1E2D9C010E
:102DD00040E050E060E070E080E090E00E945E59EA
:102DE00007E10E94C45949015A0195018401005329
:102DF000184F2F4F3F4F0D831E832F83388700932B
:102E0000E61C1093E71C2093E81C3093E91C80918A
:102E10004821909149219C0140E050E060E070E041
:102E200080E090E000E10E94B5592C873B87942E0A
:102E3000852E362E272E89879A8740914C215091D6
:102E40004D2152016301E980FE2C0E2D1E2D9A01A9
:102E500040E050E060E070E080E090E00E945E5969
:102E600007E00E94C45959016A017B018C012C853D
:102E70003B85492D582D632D722D89859A850E9499
:102E8000D35929873A874B875C871B018B8F9C8F8F
:102E900020938A1130938B1140938C1150938D1194
:102EA00060938E1130928F118093901190939111B5
:102EB00080914621909147219C0140E050E060E0E4
:102EC00070E080E090E00FE00E94B559922E832ED2
:102ED0004D875E876F87788B898B9A8B40914A21CB
:102EE00050914B2152016301E980FE2C0E2D1E2DC5
:102EF0009A0140E050E060E070E080E090E00E94E5
:102F00005E5908E00E94C45959016A017B018C0195
:102F100020938211B092831140938411D092851135
:102F200060938611F0928711809388111093891114
:102F3000292D382D4D855E856F85788989899A89F7
:102F40000E94D3598C012093921130939311409396
:102F500094115093951160939611709397118093EB
:102F600098111093991180913C2190913D21A0914D
:102F70003E21B0913F214C015D01C12CD12C760145
:102F80008B8B9C8AAD8ABE8ACF8AD88EE98EFA8EC8
:102F900059016A017B0194014D895E8960E070E00E
:102FA00080E090E00E945E5905E10E94C4592093A0
:102FB0006E1130936F1140937011509371116093A3
:102FC0007211709373118093741190937511A98489
:102FD000BA84CB84DC8471010B8D1C8D0E94E8596E
:102FE00020937A1130937B1140937C1150937D1183
:102FF00060937E1170937F11809380119093811163
:103000000FE00E94C459C9012093E21C9093E31C75
:103010004093E41C5093E51C209133172223B9F010
:103020005F934F939F938F9398849F92AF80AF92BB
:10303000BE80BF92CD80CF9284E19CE09F938F931E
:103040000E942E5B0FB6F894DEBF0FBECDBF6C960C
:103050000FB6F894DEBF0FBECDBFDF91CF911F91A9
:103060000F91FF90EF90DF90CF90BF90AF909F9027
:103070008F907F906F905F904F903F902F9008952A
:103080000F931F938B019C01775F824C9F4F42E00F
:10309000660F771F881F991F4A95D1F7A9019801DC
:1030A000E3E0220F331F441F551FEA95D1F70E941A
:1030B0003C59215031093093C5002093C40082E06F
:1030C0008093C00086E08093C20088ED8093C100A9
:1030D0001F910F9108952091C1002F7B2093C10073
:1030E0003091682140916921232F431710F0275F09
:1030F00001C02150241B621708F4262FFC01822FE7
:1031000011C0909169214191A92FB0E0AC5ABE4DF8
:103110004C93993019F41092692103C09F5F9093EA
:10312000692181508111EDCF80916C2181110AC0FC
:10313000E32FF0E0EC5AFE4D80818093C60081E0E1
:1031400080936C218091C10080648093C100822FA4
:103150000895DC0180916D218823B9F19091C1001F
:103160009F779093C1008A3050F080916B218093BB
:103170006A218AE080936D216A3028F405C08617A1
:1031800018F4682F01C06AE0962F16C0E0916A21FA
:10319000F0E0EC5AFE4D82858D9380916A218F5F1D
:1031A00080936A2120916D21215020936D219150AF
:1031B0008A3011F410926A219111E8CF8091C100F8
:1031C00080688093C100862F089580E008951F9243
:1031D0000F920FB60F9211240BB60F928F939F93FD
:1031E000EF93FF9380916B2190916D219F5F90935E
:1031F0006D219091C600E82FF0E0EC5AFE4D9287C9
:10320000893019F410926B2103C08F5F80936B217A
:10321000FF91EF919F918F910F900BBE0F900FBE7A
:103220000F901F9018951F920F920FB60F921124B6
:103230000BB60F928F93EF93FF93809168218930A3
:1032400019F41092682103C08F5F80936821E09188
:10325000682180916921E81739F0F0E0EC5AFE4DC1
:1032600080818093C60002C010926C21FF91EF9183
:103270008F910F900BBE0F900FBE0F901F9018955F
:10328000811108C060E074E883E090E00E9440187B
:1032900080E0089585E808959B01811104C0642FA2
:1032A000C9010C946B1880E008959B01811104C042
:1032B000642FC9010C94A91880E0089590939B1184
:1032C00080939A11089590939D1180939C11089575
:1032D00090939F1180939E1108959093A1118093D4
:1032E000A01108959093A3118093A21108951F92A5
:1032F0000F920FB60F9211240BB60F922F933F939C
:103300004F935F936F937F938F939F93AF93BF93ED
:10331000EF93FF93E0919A11F0919B111995FF9112
:10332000EF91BF91AF919F918F917F916F915F913D
:103330004F913F912F910F900BBE0F900FBE0F90AA
:103340001F9018951F920F920FB60F9211240BB673
:103350000F922F933F934F935F936F937F938F932E
:103360009F93AF93BF93EF93FF93E0919C11F091E4
:103370009D111995FF91EF91BF91AF919F918F9101
:103380007F916F915F914F913F912F910F900BBE65
:103390000F900FBE0F901F9018951F920F920FB6AF
:1033A0000F9211240BB60F922F933F934F935F937D
:1033B0006F937F938F939F93AF93BF93EF93FF93FD
:1033C000E0919E11F0919F111995FF91EF91BF919E
:1033D000AF919F918F917F916F915F914F913F91AD
:1033E0002F910F900BBE0F900FBE0F901F9018954E
:1033F0001F920F920FB60F9211240BB60F922F93BC
:103400003F934F935F936F937F938F939F93AF936C
:10341000BF93EF93FF93E091A211F091A31119953F
:10342000FF91EF91BF91AF919F918F917F916F919C
:103430005F914F913F912F910F900BBE0F900FBE58
:103440000F901F9018951F920F920FB60F92112494
:103450000BB60F922F933F934F935F936F937F938E
:103460008F939F93AF93BF93EF93FF93E091A0113E
:10347000F091A1111995FF91EF91BF91AF919F919B
:103480008F917F916F915F914F913F912F910F900D
:103490000BBE0F900FBE0F901F9018951F920F92AA
:1034A0000FB60F9211240F900FBE0F901F9018951A
:1034B0001F920F920FB60F9211240F900FBE0F9014
:1034C0001F9018951F920F920FB60F9211240F9014
:1034D0000FBE0F901F9018951F920F920FB60F926C
:1034E00011240F900FBE0F901F9018951F920F92EE
:1034F0000FB60F9211240F900FBE0F901F901895CA
:103500001092B90088E48093B800089594EA9093EB
:10351000BC009091BC0097FFFCCF9091B900987FC0
:10352000983021F0903111F081E008958093BB0034
:1035300084E88093BC008091BC0087FFFCCF809121
:10354000B900887F883111F0803471F780E00895E8
:1035500024EA34E844E92093BC009091BC0097FF32
:10356000FCCF9091B900987F983011F0903199F785
:103570008093BB003093BC009091BC0097FFFCCFC0
:103580009091B900987F903211F0983539F44093BA
:10359000BC009091BC0094FDFCCFDDCF08950C944D
:1035A000861A84E98093BC008091BC0084FDFCCF26
:1035B00008958093BB0084E88093BC008091BC0098
:1035C00087FFFCCF9091B900987F81E0983209F491
:1035D00080E0089584EC8093BC008091BC0087FF5C
:1035E000FCCF8091BB00089584E88093BC0080915B
:1035F000BC0087FFFCCF8091BB00089584B714BE48
:10360000A89588E10FB6F89480936000109260004E
:103610000FBE0E94731B0E94F41B0E94801F80E05B
:1036200008950C94E21EEF92FF920F931F93CF9395
:10363000DF93811119C0CA01860F971F8130904214
:10364000A8F48901040F151FE9017B01E21AF30AAE
:1036500006C0CE018E0D9F1D0E949E5D8993C017EE
:10366000D107B9F780E003C088EE01C085E8DF919B
:10367000CF911F910F91FF90EF900895EF92FF92DD
:103680000F931F93CF93DF93EC017B01E80EF91E9C
:1036900081E0E81680E2F80698F48A010CC0CE01B9
:1036A0000E949E5DF80161918F01861719F0CE018D
:1036B0000E94A65D2196CE15DF0589F780E001C046
:1036C00085E8DF91CF911F910F91FF90EF900895C2
:1036D0008FEF85B984B98FEF9FEF0E945C1C85B195
:1036E000809585B9F8CF8FB7F894E0E0F0E099E0E5
:1036F00090935700E4918FBFEF70E23011F48FE0A8
:1037000001C080E090E020E80FB6F89420936100BB
:10371000809361000FBE80E1809335018093340176
:10372000809333018093320108950F931F93E091AA
:10373000A61189E0E89FF0011124E259FE4D808135
:103740009181A281B3812091A711222309F440C065
:10375000B093F800A093F7009093F6008093F500E3
:103760002091DF0020FD08C021E02093E00020919F
:10377000DF0021602093DF00F091E100E091E200A2
:103780003091E3002091E4004F2F5E2F632F722FC2
:103790004F5F5F4F6F4F7F4F8A019B0108271927AB
:1037A0002A273B27002711272227387F012B022BAE
:1037B000032B31F484179507A607B70778F011C0DB
:1037C000B7707770481759076A077B0738F009C048
:1037D0008091DF008E7F8093DF0003C081E08093C3
:1037E000AD211F910F9108951092A7111092AD2154
:1037F0008FEF8093A6118093A4118093A511E6E723
:10380000F1E29FEF8FEF9083DF0114971D921C92DE
:10381000399621E2E53BF207A9F790E29093B600D2
:1038200098EA9093DC009FE09093F4008093F3007B
:103830008093F2008093F10082E08093E000809119
:10384000DF0082608093DF00089508952091DE00FC
:1038500020FDFCCFF091E100E091E2003091E30027
:103860002091E4004F2F5E2F632F722F24E0440F2E
:10387000551F661F771F2A95D1F7FC01408351839E
:10388000628373830895F091E900E091EA0030913A
:10389000EB002091EC004F2F5E2F632F722F34E04E
:1038A000440F551F661F771F3A95D1F7FC014083DF
:1038B00051836283738308958436910520F44FB752
:1038C000F89451E01CC040E050E019C097FF03C0DD
:1038D0002FEF3FE701C09C01821B930B220F331F88
:1038E00031952195310930932501209324016ABB3C
:1038F00070932101D09BFECF1092210102C061E0A4
:1039000072E0009719F751114FBF089599E0899F10
:10391000F0011124E259FE4D81E024813581232BF1
:1039200009F480E00895E2E7F1E280819181892B3A
:1039300039F4399681E2E13BF807B9F781E008955F
:1039400080E00895CF93CFB7F8948091AD2188237C
:10395000D1F11092AD219091A7119923A1F120915D
:10396000A4118091A6112F3F49F42091A5112F3F5A
:1039700029F48093A5118093A4110BC0E091A511A7
:1039800029E0E29FF0011124E259FE4D80878093E7
:10399000A511A091A61189E08A9FD0011124A259F6
:1039A000BE4D18962C912093A611E091A5118E9FE3
:1039B000F0011124E259FE4D8FEF808791509093D2
:1039C000A7110E94951BCFBFCF9108950F931F930E
:1039D000CF93DF93082F873008F092C01FB7F89479
:1039E0000E94A21C8091A711882309F48DC04091E8
:1039F000A611542F942F39E001C0922F091332C021
:103A0000202F30E004130FC089E0829FD001839FF4
:103A1000B00D1124A259BE4D18968C918093A61119
:103A20000E94951B10C0A9E0A29FE001A39FD00DAA
:103A30001124C259DE4D8885A59FD0011124A259B9
:103A4000BE4D18968C9389E0089FD0011124A2598D
:103A5000BE4D8FEF18968C938091A7118150809363
:103A6000A71158C0399FD0011124A259BE4D1896F4
:103A70002C918150592F09F0C0CF46C0081330C097
:103A8000202F30E0091315C08091A511081304C040
:103A90008FEF8093A5110AC089E0829FD001839F98
:103AA000B00D1124A259BE4D18968C918093A4118B
:103AB00031C0A9E0A29FE001A39FD00D1124C259FB
:103AC000DE4D8885A49FD0011124A259BE4D1896C1
:103AD0008C938091A51108131DC04093A5111AC0A5
:103AE000289FD0011124A259BE4D482F18968C91C1
:103AF0008F3F21F680E01FBF882321F080E014C0B3
:103B00008AE812C089E810C09091A411492F892F2A
:103B100029E0EECF89E0089FF0011124E259FE4D23
:103B20001582148281E0E7CFDF91CF911F910F9131
:103B300008952F923F924F925F926F927F928F9251
:103B40009F92AF92BF92CF92DF92EF92FF920F932C
:103B50001F93CF93DF93CDB7DEB727970FB6F894B7
:103B6000DEBF0FBECDBF1701873008F0EFC00115D3
:103B7000110509F4EFC0482E512C5F824E8239E0C6
:103B8000839FF0011124E259FE4D0480F581E02D60
:103B9000EF2B09F0DDC06A017B01A4E0F694E79405
:103BA000D794C794AA95D1F7222321F0213009F0A8
:103BB000D1C020C0B701A60148505109610971095F
:103BC000483F5F4F6F4F774010F08BE8E2C0E091C5
:103BD000E1003091E2002091E3009091E4004E2F4B
:103BE000532F622F792FC40ED51EE61EF71EEFE06D
:103BF000FE221EC0E091E1003091E2002091E3003E
:103C00009091E4004E2F532F622F792F2601370118
:103C1000441A550A660A770AB301A2017F70485018
:103C2000510961097109483F5F4F6F4F774068F64E
:103C3000BFB6F8948D830E94A21CA091A6118D811D
:103C4000AF3F79F08090A711BA2F9A2FA12CF9E0FD
:103C50009F2EA7019601577029833A834B835C837B
:103C600056C08093A61189E04E815F81849FF00148
:103C7000859FF00D1124E259FE4DA0874BC09F3F58
:103C800009F444C0292F30E0929EF001939EF00D7C
:103C90001124E259FE4D40815181628173812601D8
:103CA0003701442655266626772644245524662463
:103CB000E8EF7E22452846284728A1F44C155D05EB
:103CC0006E057F0508F448C029E04E805F80249D82
:103CD000F001259DF00D1124E259FE4D9087A913A6
:103CE0000FC00BC0777049805A806B807C8044166F
:103CF00055066606770680F1E7CF8093A6110AC0C5
:103D00002B9FF0011124E259FE4D41C0A394A8104D
:103D1000B6CF2CC089E06E807F80869DF001879DA4
:103D2000F00D1124E259FE4DC082D182E282F3826D
:103D300015830483378226828091A7118F5F809339
:103D4000A7110E94951BBFBE80E023C08AE821C056
:103D500088E81FC088EE1DC0929EF001939EF00D72
:103D60001124E259FE4DB92F9085D0CF99E09B9F49
:103D7000F0011124E259FE4D80878E809F80989D2E
:103D8000F001999DF00D1124E259FE4D8FEF8087CF
:103D9000C1CF27960FB6F894DEBF0FBECDBFDF911F
:103DA000CF911F910F91FF90EF90DF90CF90BF9038
:103DB000AF909F908F907F906F905F904F903F90CB
:103DC0002F900895CF93DF930E94A21CC9E0DFEFEC
:103DD00029C03FB7F894A091A411CA9FD001112423
:103DE000A259BE4D18962C9118971496ED91FC91FE
:103DF000159716968D919C9117971896DC931897A6
:103E000015961C921E92149717961C921E92169746
:103E10002093A4112F3F11F42093A5113FBF309799
:103E200009F019958091A4118F3F99F6DF91CF91F8
:103E300008951F920F920FB60F9211248F938091C5
:103E4000A711882319F081E08093AD218F910F9005
:103E50000FBE0F901F9018951F920F920FB60F92E2
:103E600011248F938FEF8093E4008093E30080937D
:103E7000E2008093E1008F910F900FBE0F901F9092
:103E8000189581E008952E9A269A2B9A239A2D9AB6
:103E9000259A08958130910579F00297D1F061302B
:103EA00031F018F0623019F504C02E9808952E9A5A
:103EB000089585B190E419C0613031F018F0623096
:103EC000B1F404C02B9808952B9A089585B198E019
:103ED0000CC0613031F018F0623049F404C02D9804
:103EE00008952D9A089585B190E2892785B908959E
:103EF000759A6D9808958CB185FB882780F908958F
:103F0000089590E29CBBED9A93B7917F982B93BF55
:103F100083B7816083BF889583B78E7F83BF089501
:103F20001F920F920FB60F921124ED980F900FBEB3
:103F30000F901F9018950F931F93CF93DF9300D08E
:103F40001F92CDB7DEB78B01811126C088EA91E1BF
:103F50002B833C8349835A830E94C35AC8010E9421
:103F6000CA5A68EA71E1860F971FFC0111827F939C
:103F70006F933C813F932B812F935A815F934981AB
:103F80004F9384E391E09F938F930E94405B0FB621
:103F9000F894DEBF0FBECDBF0F900F900F900F9023
:103FA000DF91CF911F910F910895EF92FF920F93A0
:103FB0001F93CF93DF9385EA92E10E9483209AEAD0
:103FC000E92E92E1F92E00EE16E1C0E0D0E0F80112
:103FD000F182E082BE01660F771F660F771F605285
:103FE000794E85EA92E10E948A202196FAE9EF0E45
:103FF000F11C0C5F1F4FC730D10549F7DF91CF91FE
:104000001F910F91FF90EF90089560E070E085EAB6
:1040100092E10C94A520009729F0BC0185EA92E179
:104020000C948A2008959F92AF92BF92CF92DF9214
:10403000EF92FF920F931F93CF93DF938C015B015D
:104040006A019FB6F894DC0114968C91811103C02B
:10405000C0E0D0E04AC0F801C081D18141155105CE
:10406000B1F07E0111C0D60112966D917C9113972B
:10407000ED91FC9188819981199581110BC09A81EC
:104080008B817E01C92FD82F209769F7E1CF209728
:10409000F9F27E01AB2849F5F801208131818A814E
:1040A0009B81C217D30719F49183808305C0D70180
:1040B00013969C938E931297F80182819381C8176F
:1040C000D90711F4F382E282D80114968C911497E7
:1040D000815014968C9314978D919C911197892BF4
:1040E00021F413961C921E9212979FBECE01DF916F
:1040F000CF911F910F91FF90EF90DF90CF90BF90E5
:10410000AF909F900895FC01118210821382128259
:1041100014820895FC019FB7F8948481811103C033
:104120007183608306C0A281B38113967C936E93E2
:10413000129773836283DB0113961C921E9212976F
:1041400084818F5F84839FBF0895AB0160E070E03E
:104150000C941320AB0161E070E00C941320CF931A
:10416000DF93EC0114C060E070E0CE010E94A52056
:10417000009759F42AE331E046E35CE069E671E038
:1041800080E00E949B1F1C8205C00E940B208C8136
:104190008111E9CFDF91CF910895CF9380914101B3
:1041A0008F71883051F023E232E040E85CE06FE448
:1041B00072E080E0CF910C949B1F81E080934F01CF
:1041C00089E080934201C3E080914F0180FD06C0E9
:1041D0008EE690E00E945C1CC150B1F7CF9108952B
:1041E000CF93C82F8091D7218F3031F51092DB21EA
:1041F00085E898E20E9472199FB7F89478948091AC
:1042000039018D7F809339018091DB218823E1F38F
:104210009FBF8FEF80934F018CE480934E0180917C
:104220004D01846080934D01C83011F0C33021F4FA
:1042300088E08093D7214FC1C83009F452C050F4B0
:10424000C43009F474C0C63009F47EC0C33009F02C
:1042500032C147C0CF3061F020F4C93009F02BC122
:1042600046C0C63109F493C0C93109F024C1CEC09B
:1042700083E08093420180914D018B7F80934D01BB
:104280000E94B45A80936D0180916E01292F30E015
:1042900027703327887F822B80936E018FEF809366
:1042A0004F0180E880934E010000000000000000F4
:1042B00000000000000000000000000000000000FE
:1042C00000000000000000008091390182608093AE
:1042D000390183E290E00E945C1CC093D7218FE0FB
:1042E000FAC08091D721883009F4EEC0A9C080912E
:1042F000D721893009F4E8C040F4863079F010F411
:10430000815007C0883061F419C0863139F020F43B
:104310008151823028F4D8C0893111F489E0B1C0CC
:104320002BE731E040E85CE060EA71E0CAC08091D0
:10433000D721883019F0893021F4C6C00E94CD20E1
:10434000C3C0C0934201C0C08091D721893099F089
:1043500048F4863009F4B8C010F4815007C08830A2
:1043600079F40BC0863139F020F48151823040F469
:10437000ABC0893129F486E084C00E94CD2060C0A2
:104380002BEA31E040E85CE064EC71E09AC0809197
:10439000D7218930B1F040F48630A9F010F4815073
:1043A00008C0883061F50BC0863109F48DC020F457
:1043B0008151823020F588C0893109F502C00E9400
:1043C000CD2086E15EC089E08093420100000000BC
:1043D00000000000000000000000000000000000DD
:1043E000000000000000000000000000809141017A
:1043F0008F718093D721893009F06DC021C027EDDE
:1044000031E040E85CE068EE71E05BC08091D7216C
:104410008930B1F048F48630B1F010F4815008C012
:10442000883009F041C02AC0863169F028F48151F2
:10443000823008F039C048C0893109F035C044C025
:10444000C093420120C089E0809342010000000037
:10445000000000000000000000000000000000005C
:1044600000000000000000000000000080914101F9
:104470008F718093D721893071F502C00E94CD20C1
:1044800089E180934201000000000000000000006C
:10449000000000000000000000000000000000001C
:1044A00000000000000010C023E032E040E85CE0C3
:1044B0006CE072E006C02AE032E040E85CE060E3D5
:1044C00072E080E00E949B1F809141018F71809378
:1044D000D7218F31C9F3CF9108958091AE218823E0
:1044E000E1F08091DC21811118C08091FC1690913F
:1044F000FD16892B39F48AE90E9405209093FD1658
:104500008093FC168091FC169091FD16892B29F062
:104510001092AE2186E10E94F0208091B321882381
:1045200051F060E070E08FEA91E20E94A5200097D0
:1045300011F00E9431238091DC21823031F090F023
:10454000843081F0853029F402C00C9468230C94E7
:1045500002252BEE30E040E85CE060E871E080E0AE
:104560000C949B1F0895CF92DF92EF92FF920F93CE
:104570001F93CF93DF93E091FC16F091FD163097D7
:1045800089F427E530E04EEB5CE06AE872E080E019
:10459000DF91CF911F910F91FF90EF90DF90CF901F
:1045A0000C949B1F00811181C0904701D0907B012A
:1045B000D7FC4EC08D2D8E5FCAE9D0E0C81BD10953
:1045C000C00FD11FED2CF12CC7010196AC0160E8A2
:1045D00071E0CE010E94D35ADA92F801D487C387E2
:1045E000CE0DDF1DCA8280914C018F7780934C01E4
:1045F00082E090E00E945C1C80914C018068809376
:104600004C018091B6219091B721A091B821B09131
:10461000B921F80187839087A187B2876091FC1642
:104620007091FD168FEA91E20E948A208AE90E9429
:1046300005209093FD168093FC16892B31F489E0B8
:104640000E94F02081E08093AE2180E480934F01AE
:10465000DF91CF911F910F91FF90EF90DF90CF905E
:104660000895CF93DF939C01FC01C081D181AB857C
:10467000BC85EC91E093D821F0E03196EA0FFB1F66
:10468000408161816D3318F4662319F003C06CE337
:1046900001C061E042954695469543708FEF489F73
:1046A000A0011124649FC001659F900D112464EB4B
:1046B00070E00E9428596F3F710511F008F06FEF0C
:1046C00060833A832983CE01DF91CF910C947033BC
:1046D0001092DC21E091D921F091DA21208130E0A3
:1046E000275F3F4F85E0220F331F8A95E1F7E09166
:1046F000B421F091B521A385B48511968C9185FFE5
:1047000002C0205E3D4F87819085A185B285821BC6
:10471000930BA109B10987839087A187B287809104
:10472000FE16833069F028F4882341F0813061F46B
:1047300016C0853039F0873039F40FC080E010C0E2
:1047400081EE0EC089EE0CC029EE30E04FEF5CE048
:104750006CEA72E080E00E949B1F85E801C087E858
:104760006091B4217091B5210C942C44CF93DF93C8
:10477000EC01662381F020916C018091D62130E11B
:10478000839FC00111242F70282B20936C01C2300D
:10479000D105F0F409C080916C018F7080936C0199
:1047A000C230D105A8F410C080916C012091CE21B7
:1047B00030E0220F331F2E703327817F822B8093AE
:1047C0006C0110926F011CC080916C018E6016C04C
:1047D0008091D52120E1829FC00111249091CF21A9
:1047E000982B90936F0180916C012091CE2130E045
:1047F000220F331F2E703327817F822B80936C0111
:1048000089E10E94F0208931D9F7219751F48091F4
:10481000D821833118F080E492E005C080E890E070
:1048200002C089E090E00E945C1CCFB7F8948091B0
:104830003901826080933901809139018D7F8093A5
:104840003901E091D921F091DA21808190E001973E
:10485000AC01BF0180E891E00E94D35A81E08093CF
:10486000DC21CFBFDF91CF910895FC01CB012091D6
:10487000DC21211111C0F093B521E093B4212385EF
:1048800034853093DA212093D921232B39F0642FFA
:104890000E94B62380E0089586E8089588EE089582
:1048A000CF93C091DC21C13009F58091B421909162
:1048B000B52107960E94431C8091420182958695FE
:1048C00087708093FE1682E08093DC218091FC1635
:1048D0009091FD16892B31F489E00E94F020C0935D
:1048E000AE2104C086E1CF910C94F020CF910895C1
:1048F000809147019091FF16981710F48093FF164E
:104900008091001790910117A0910217B0910317A1
:104910000197A109B1098093001790930117A09303
:104920000217B0930317892B8A2B8B2B21F08FEF63
:1049300080934701089585E08093DC210895CF930B
:10494000DF93D82F8091DC21882381F08091D721BB
:104950008F3009F453C02BE530E040E45DE06BECB0
:1049600072E080E00E949B1F86E849C084E00E94BC
:10497000F02090915501906890935501C0E1C0934B
:104980004F0188E794E20E946819C0934E0186E0C7
:104990000E94F020863051F0809155018F778093EE
:1049A00055018CE480934E0185E829C084E0809312
:1049B000DC211092FF1640EC53E060E070E004C090
:1049C000440F551F661F771FDA95D2F740545C4F8E
:1049D0006F4F7F4F83E076956795579547958A95FA
:1049E000D1F740930017509301176093021770930B
:1049F00003178FEF8093470180E001C081E8DF91CA
:104A0000CF910895809155018F77809355018CE463
:104A100080934E011092DC2186E10E94F02080916B
:104A2000FF16883320F08FEF8093FF160AC02FEF18
:104A3000829FC001112467E370E00E9428596093AF
:104A4000FF168091FF160C949E49982F85FD02C099
:104A50009F7303C091959F719195E2EEF2E0E4910E
:104A6000E9170CF405C0E1EFF2E0E4919E176CF455
:104A7000E03E44F0E03244F48E2FE7FF06C08F7131
:104A8000806203C080E201C08FE180680895982FA2
:104A900085FD02C09F7303C091959F71919520E0A1
:104AA00030E0822FF901EE51FD4FE4919E1724F082
:104AB000E91744F4815008952F5F3F4F20313105AD
:104AC00081F780E0089584E08093CE2123E0209355
:104AD000CF218FEF9FEF9093C9218093C8219093AE
:104AE000C7218093C6218BE08093CD211092D221E3
:104AF00080E098EFAFEFB7E08093C2219093C3219D
:104B0000A093C421B093C5218AE091E09093CB217A
:104B10008093CA218AE08093D32182E08093D421BC
:104B200085E08093D5212093D62184E80E94252515
:104B30008093D12181E08093CC211092D0210895DF
:104B40008091C821809362018091C9218093630183
:104B5000E4E6F1E0AAEBB1E28D918193EC3631E02D
:104B6000F307D1F78091C621809360018091C7211E
:104B700080936101209148018091CC2130E2839F94
:104B8000C0011124807699272F79282B2093480182
:104B900090916F018091CF218F70907F892B8093AE
:104BA0006F0180916E019091D02190FB83F98093E9
:104BB0006E0120916F018091D52130E1839FC0016A
:104BC00011242F70282B20936F0190914801809120
:104BD000CD218F71907E892B809348018091D121C6
:104BE0000E944725909145018F70907F892B80937B
:104BF00045010895CF93DF93EB019091DC21943030
:104C000051F42FE231E041E85DE062EF72E080E0D4
:104C10000E949B1FF5C08E3431F0893541F48881A4
:104C20008093D621E7C088818093CE21E3C0209174
:104C3000D7212F3009F4E0C08B3009F4D2C078F4CA
:104C4000823009F48CC020F4882309F441C0D6C016
:104C5000833009F493C0843009F0D0C066C0833536
:104C600061F130F48F3459F0803509F0C7C01AC0B3
:104C7000873509F460C0803F09F0C0C08FC09881BB
:104C80009093CF218091D521891710F48093CF2163
:104C900090916F018091CF218F70907F892B8093AD
:104CA0006F01A8C0988189819093C8218093C92100
:104CB00090936201809363019DC098818981909354
:104CC000C6218093C721909360018093610192C0B7
:104CD000911196C080E098EFAFEFB7E0088004C074
:104CE000B695A795979587950A94D2F780FD02C04F
:104CF00088EE87C0283039F088E00E94F0208830A4
:104D0000D9F726E101C028E088818093CD219091D8
:104D100048018F71907E892B80934801283009F4D7
:104D200069C086E10E94F02065C0911169C0888148
:104D30008111DECF66C088818093D5219091CF21EB
:104D4000891710F48093CF2120916F0130E1839F68
:104D5000C00111242F70282B20936F014BC0888134
:104D60000E9425258093D1210E94472590914501DD
:104D70008F70907F892B809345013CC08881809300
:104D8000CC212091480130E2839FC001112480761C
:104D900099272F79282B209348012CC08881809354
:104DA000BA2189818093BB218A818093BC218B8128
:104DB0008093BD218C818093BE218D818093BF2102
:104DC0008E818093C0218F818093C121E4E6F1E040
:104DD000AAEBB1E28D918193EC3681E0F807D1F72F
:104DE00009C098819093D02180916E0190FB83F946
:104DF00080936E0180E005C081E803C084EF01C0AC
:104E000086E8DF91CF910895CF93809139018D7F0E
:104E10008093390180EF90E00E945C1C8091390101
:104E20008E7F8093390181E090E00E945C1C80912C
:104E30003901816080933901CBE084E690E00E94E3
:104E40005C1C809141018F71C15021F40E94681B4C
:104E500085E805C0883089F78093D72180E0CF911D
:104E600008950E94B45A80936D01EEE6F1E08081CE
:104E7000292F30E027703327887F822B8083808121
:104E800080628083ECE4F1E08081806880838CE440
:104E900080934E018FEF80935601EDE4F1E0808125
:104EA0008C7F8083AAE4B1E08C91807F83608C93B7
:104EB0008081886080838081846080830895CF931F
:104EC000DF9386E00E94F0208630D9F7809155016B
:104ED0008F778093550110924E0128E0C0E0D0E01A
:104EE00030914601CE01880F991F880F991F3076A7
:104EF000C32FD0E055E0D595C7955A95E1F7C82B5B
:104F0000D92B00000000000000000000000000009D
:104F10000000000000000000000000000000000091
:104F200000002150E9F683E00E94F0208FEF80938B
:104F30004F018CE480934E01CE01DF91CF910C9410
:104F4000B85ACF93C82F0E94042781112FC00E9406
:104F50005F270E943127C1110E9463250E94A0256E
:104F60001092DC211092AE210AC060E070E08FEA5E
:104F700091E20E94A520009711F00E940B208091E1
:104F8000B3218111F2CF88E080934F0180E48093B8
:104F90004F0184E080934F0180E880934F0180E0CF
:104FA0000E9489280E94A72880E001C085E8CF914F
:104FB0000895CF93DF930E94FE1A81118EC08091D5
:104FC0003901816080933901809139018D7F80930F
:104FD00039018CE791E00E945C1C809139018E7F41
:104FE0008093390181E090E00E945C1C809139013E
:104FF000816080933901CBE084E690E00E945C1CE4
:10500000809141018F71C15019F40E94681B65C0E5
:10501000883091F78093D72180915C01843909F021
:105020005CC04DC00E945F270E9431270E9463250B
:105030000E94A0251092DC211092AE2109C0CAEB7B
:10504000D1E20E94B45A899381E2C23CD807C9F7E1
:105050002091BA213091BB214091BC215091BD21BA
:105060006091BE217091BF218091C0219091C1219A
:10507000AFEF0E94DC59ADEF0E94FA5909F0F8F643
:1050800081E798E20E94631989E798E20E945E191D
:1050900085E898E20E94721981E898E20E946D19F1
:1050A0000E94D51F8AE90E9405209093FD168093E7
:1050B000FC168FEA91E20E94832080E00FC02AEB69
:1050C00031E248E050E060E070E080E00E94131BB5
:1050D0000E940427811101C0A5CF85E8DF91CF91FF
:1050E0000895CF93CFB7F8940E94B322CFBFCF914A
:1050F0000895CF93CFB7F8940E945024CFBFCF919B
:10510000089586EB91E20C94431C81E08093DB21AF
:105110000895811116C08091D7218F30A1F0809120
:10512000DC21811112C01092AE2188E00E94F02093
:105130008830D9F78FE00E94F0208F3031F480E082
:10514000089588EE089581E8089586E8089580918D
:10515000D7218F3039F488E00E94F020883021F484
:1051600080E0089582E8089585E808959091DC2113
:10517000911117C0883031F40E94F0201092AE21B6
:1051800088E008958091FC169091FD16892B21F0FE
:1051900086E10E94F02003C081E08093AE2186E08A
:1051A000089586E80895DC01ED91FC9124E12083C7
:1051B000638352834183BC018CE792E20C948A2082
:1051C000CF93DF931F921F92CDB7DEB74FEF5FEF04
:1051D0006BEE8091F5219091F6210E94D3281092D8
:1051E000EC218FEF9FEF9A838983BE016F5F7F4F22
:1051F00080E50E94694191E0811190E02FE932E061
:1052000043EC5DE068EB73E0892F0E949B1F8FEFFA
:105210009FEF909336228093352210922B2210928A
:105220002C2210922D2210922E2210922F221092B8
:10523000302210923122109232220E94F43D0F90BF
:105240000F90DF91CF910895CF92DF92EF92FF926E
:105250000F931F93CF93DF93CDB7DEB72F970FB682
:10526000F894DEBF0FBECDBF7C01DC01ED91FC9157
:105270008FE0DE01119601900D928A95E1F7F09290
:10528000F621E092F5218C81982F9250923038F0DF
:105290004FEF5FEF68EEC7010E94D328FFC0823056
:1052A00019F48F8198851AC08F8180932B2288856D
:1052B00080932C22898580932D228A8580932E22AB
:1052C0008B8580932F228C85809330228D858093CF
:1052D00031228E85809332228EEF9FEF909336227B
:1052E00080933522BE016B5F7F4F80E50E9469414C
:1052F00091E0811190E029E830E043EC5DE065E069
:1053000073E0892F0E949B1F0E941C3EF7010081C1
:10531000118181E0D8018C931296FC92EE92119744
:10532000F801EA56FF4F8083F801E956FF4F8F8559
:105330008083F801E257FF4F8091BA2180838091EA
:10534000BB2181838091BC2182838091BD21838395
:105350008091BE2184838091BF2185838091C0216B
:1053600086838091C1218783F801E457FF4F8FEF37
:105370009FEF918380838C81F801823061F4E6573E
:10538000FF4F80913522909136229183808383E272
:1053900098EC45E11DC0EC57FF4F80912B22808394
:1053A00080912C22818380912D22828380912E22D4
:1053B000838380912F228483809130228583809102
:1053C0003122868380913222878383E29CEC4BE1F9
:1053D0002091C8213091C921DF0112972D933C9370
:1053E00020914122DF0113972C932F5F20934122BC
:1053F000DF0115978D939C9336974083D8011C96B7
:10540000FC93EE931B97BE016D5F7F4F84E00E947B
:105410006941CC24C3948111C12C29EF30E043ECC5
:105420005DE06FE173E08C2D0E949B1FBE016E5FFB
:105430007F4F80E00E946941DD24D3948111D12CFB
:1054400021E031E043EC5DE065E373E08D2D0E94E7
:105450009B1FCC20D9F0DD20C9F041E062E070E074
:10546000C8010E943524811111C080917A228823BD
:1054700049F024E231E043EC5DE06DE473E080E06C
:105480000E949B1F81E080937A2208C04FEF5FEF5C
:1054900061EEC7010E94D3280E94F43D2F960FB6FB
:1054A000F894DEBF0FBECDBFDF91CF911F910F915A
:1054B000FF90EF90DF90CF900895DC01ED91FC918B
:1054C00020913B22211102C00C940B20B09161224B
:1054D000A0916222709163226091642250916522B2
:1054E000409166223091672220916822B183A28385
:1054F000738364835583468337832087209170228A
:10550000218723E12083BC018CE792E20C948A205E
:10551000EF92FF920F931F93CF93DF93FC01C08113
:10552000D181F9800A811B81BC81AD817E816F812F
:10553000588529853A85EB84409179224250423042
:1055400040F0DF91CF911F910F91FF90EF900C945D
:105550000B2042E04883FE01EC56FF4F4083FE01E2
:10556000EB56FF4F31832083FE01E956FF4FE08267
:10557000FE01E457FF4F2091BA2120832091BB21E7
:1055800021832091BC2122832091BD21238320915E
:10559000BE2124832091BF2125832091C021268311
:1055A0002091C1212783FE01EC57FF4FF082018338
:1055B0001283B383A483758366835783FE01EE57FA
:1055C000FF4F2091C8213091C92131832083209140
:1055D0004122FE01EF57FF4F20832F5F209341228E
:1055E000FE01E158FF4F23E63CEC31832083FE01AE
:1055F000E258FF4F2BE12083FC87EB871E82BC0122
:105600008EED91E20E948A20809133229091342283
:105610009D838C8381E00E94861C811108C0DF91EC
:10562000CF911F910F91FF90EF900C948D3ADF91E5
:10563000CF911F910F91FF90EF9008951F93CF93FB
:10564000DF931F921F92CDB7DEB7109172220E9496
:105650000B20111142C060E772E283E50E946941AC
:1056600091E0811190E02CE032E043EC5DE068E6EF
:1056700073E0892F0E949B1F4091702250917122EC
:105680008091612280932B228091622280932C2230
:105690008091632280932D228091642280932E2218
:1056A0008091652280932F22809166228093302200
:1056B00080916722809331228091682280933222E8
:1056C00081E0809379221092EC218091F321833044
:1056D000A1F582E08093F32130C01092EC218FEF8E
:1056E0009FEF9A838983BE016F5F7F4F80E50E94A1
:1056F000694191E0811190E028E232E043EC5DE005
:1057000062E873E0892F0E949B1F8FEF9FEF9093B9
:1057100036228093352210922B2210922C22109246
:105720002D2210922E2210922F22109230221092AF
:105730003122109232224FEF5FEF612F8091F521DD
:105740009091F6210E94D3280E94F43D0F900F9073
:10575000DF91CF911F910895EF92FF920F931F93C6
:10576000CF93DF93C0913922D0913A2200E010E02C
:1057700020E030E040E061E080E00E94E43381110D
:105780000FC04FEF5FEF61EE8091F5219091F62110
:10579000DF91CF911F910F91FF90EF900C94D32840
:1057A000AE0160E070E084E0440F551F661F771F74
:1057B0008A95D1F7E12CF12C00EE18E220E080E090
:1057C0000E94991DC82F81E0C11180E023E732E0DB
:1057D00043EC5DE06CE973E00E949B1FCC2351F029
:1057E00080E090E0DF91CF911F910F91FF90EF90BB
:1057F0000C94E028DF91CF911F910F91FF90EF90D3
:105800000895CF93FC0120914E2240914F22542FB6
:10581000529556955695537046954695437009F4A2
:1058200041C08081918190935522809354224230CF
:10583000C9F41092562210925722109258221092B8
:10584000592210925A2210925B2210925C221092DE
:105850005D228281938190935722809356223496C1
:1058600084E021C0433019F0329682E01CC0C2812E
:10587000B381A48175816681378190858185C093CC
:105880005622B0935722A0935822709359226093C6
:105890005A2230935B2290935C2280935D223A9649
:1058A0008AE001C080E0552309F447C026FD08C006
:1058B000219131913093602220935F228E5F08C046
:1058C00020915422309155223093602220935F2200
:1058D0005230C1F41092612210926222109263221F
:1058E0001092642210926522109266221092672212
:1058F00010926822208131813093622220936122AC
:105900008E5F1BC05330C9F4C081B181A281738105
:105910006481358126819781C0936122B093622290
:10592000A093632270936422609365223093662271
:105930002093672290936822885F9091512295501E
:10594000981B90936F2250935E2240935322CF91E5
:105950000895209106172730E8F4FC01A385B4854B
:1059600012968C911297869586958370823091F469
:10597000E0910417F09105173297F0930517E09323
:10598000041716968D919C911797918380832F5FB2
:105990002093061780E00895209106172730E8F439
:1059A000DC011B96ED91FC911C9782818695869572
:1059B0008370833091F4A0910417B0910517189764
:1059C000B0930517A0930417369688E001900D92C6
:1059D0008A95E1F72F5F2093061780E00895DF9204
:1059E000EF92FF920F931F93CF93DF9300D01F92FC
:1059F0001F92CDB7DEB7DB01ED90FC90F70172830B
:105A000061838AE08083870108561F4F40913C22C2
:105A1000442371F0041B1109242F235F87EF91E2C7
:105A200050E0BC01C8012D830E94D35A2D8101C0D2
:105A30002DE08091E221882309F441C010930517DD
:105A400000930417109206178CEC9CE29A838983CA
:105A5000BE016F5F7F4F8EED91E22D830E94AA20E1
:105A6000D09006171092061749EA5CE25A834983E0
:105A7000BE016F5F7F4F8EED91E20E94AA20E09100
:105A80000617A0910417B091051711978D2D90E07E
:105A9000AC0194E0440F551F9A95E1F74E2B4C93BF
:105AA000F4E0DF9EE00D1124EE0FE09306172D8148
:105AB0002E0FF0E0E095F095E00FF11F02C0F80125
:105AC0001292DF0111971C9280917922833019F094
:105AD0008FEF9FE002C08FEF9FE430913B223111A6
