:100000000C94A8010C94C9010C94C9010C94C90169
:100010000C94C9010C94C9010C94691E0C94C9017B
:100020000C94C9010C94C9010C94C9010C94C90128
:100030000C94C9010C94C9010C94C9010C94C90118
:100040000C94C9010C94C9010C94C9010C94C90108
:100050000C94C9010C94C9010C94C9010C94C901F8
:100060000C94C9010C94E2170C94C9010C940E185D
:100070000C94C9010C94C9010C94C9010C94C901D8
:100080000C94C9010C94C9010C94C9010C94C901C8
:100090000C94C9010C94C9010C94C9010C94C901B8
:1000A0000C94C9010C94C9010C94C9010C94C901A8
:1000B0000C94C9010C94C9010C94C9010C94C90198
:1000C0000C94C9010C94C9010C94C9010C94C90188
:1000D0000C94C9010C94C9010C94C9010C94C90178
:1000E0000C94C9010C9449190C9453190C941E19C1
:1000F0000C949D180C94C8180C945D190C947218EB
:100100000C94F3180C94F21D0C94051E0C94C90168
:100110000C94C9010C94C9010C9471190C946719C1
:100120000C94C9010C94C9010C94C9010C94C90127
:100130000C94C901C414C614C814CA14CC14CE1427
:10014000D014DF1FF61F812004208120D81FE61F56
:1001500081208120812081208120A21F8120812077
:10016000812081208120812016208120812044202F
:100170004C40C94032407D40D940EB40EB40E1402B
:10018000D340E7407D40E7401A400C94C9400C94AE
:10019000CC140C94EF3A0C949B2B0C94CC3F0C9405
:1001A0006F2C0C94E1400C9474350C941E2C0C9420
:1001B000BB2C0C947E2B0C94A21F0C94132E0C942D
:1001C000E61F0C946F300C94C4140C94C8140C9457
:1001D0008A350C94EB2C0C9497380C9444200C9496
:1001E00027450C941A400C94942C0C94E7400C94E2
:1001F000393D0C94D0140C94CE140C94B22B0C9466
:10020000DC290C94EB400C94582C0C947F350C9406
:100210006C2B0C94A12C0C9416200C942A260C9474
:1002200036260C94B9430C9481200C9425370C94F9
:1002300004200C94FF290C9432260C9405410C9454
:100240001C330C94DF1F0C94D9400C947D400C940B
:1002500091260C94683A0C94DD2C0C94D3400C94A9
:10026000FD490C948C2B0C9455220C9430410C9429
:10027000D81F0C94C5260C94E0380C94063E0C94C0
:1002800022260C94CB010C94C6140C94AE2C0C9426
:10029000062B0C9473070C94204A0C94E3270C94BF
:1002A0002A430C94E2280C94CA140C9432400C9407
:1002B000AB3D0C94F61F0C944C400C94CE2B0C943C
:1002C000D23A0C94802C0C9454300C94F82C0403E7
:1002D0000302020100FFFEFDFCFBF9F7F4EF132E11
:1002E000C526E3272537E0381C33393DD23AEF3AAB
:1002F000683A3041B94300002745AB3D00006C2B04
:10030000062B7E2B9B2B8C2B582C1E2CB22B0000EB
:100310000000802CBB2CCE2BF82C6F2CDD2CA12CBC
:10032000AE2CEB2C942C0801010101010101010408
:1003300001080201010101020101020102010102A1
:100340000102020101010101040101010201010098
:1003500011241FBECFEFD1E8DEBFCDBF00E00CBF40
:100360001DE0A0E0B2E0E6E7F1EB00E00BBF02C069
:1003700007900D92A639B107D9F729E1A6E9BDE0AA
:1003800001C01D92A037B207E1F70E948C4C0C947B
:10039000B9580C940000EF92FF920F931F9362E004
:1003A00081E090E00E94231EE12CF12C0BEC11E087
:1003B00020E040E251EA67E070E085E00E94041C22
:1003C0001F910F91FF90EF900895EF92FF920F937E
:1003D0001F93CF93DF931F921F92CDB7DEB79091FB
:1003E0008A12811141C0992321F08EEE94E00E947F
:1003F000805580919B0D90919C0D20918A12892BA4
:1004000099F4222341F08AEF94E09F938F930E9406
:1004100068550F900F9019821A82BE016F5F7F4F4F
:1004200083E50E94E2482DC0222341F08BE295E053
:100430009F938F930E9468550F900F9000E024E0E7
:1004400040E058EF6FEF77E081E00E944E49E12CE9
:10045000F12C0BEC11E020E040E251EA67E070E0A3
:1004600085E00E94041C0DC0992341F08CE495E0C6
:100470009F938F930E9468550F900F9081E00E9488
:10048000B4480F900F90DF91CF911F910F91FF9083
:10049000EF900895CF92DF92EF920F93CF93DF9377
:1004A000E601909189129F5F9093891290918A1230
:1004B0008111E5C0992321F08AE695E00E948055DC
:1004C00020E02E1509F48DC03B85343109F0BAC007
:1004D0008C858111B7C089819A818E3B9A4509F03C
:1004E000B1C08D859E8597FFADC080918A1288230B
:1004F000B1F01F921F921F923F938AE58F938EEB6C
:100500008F938AE795E09F938F930E9468558DB7EC
:100510009EB708960FB6F8949EBF0FBE8DBF988108
:1005200080918A129230C9F4882381F080917C12E4
:100530008F9380917B128F9387EA95E09F938F939F
:100540000E9468550F900F900F900F908B819C81A7
:1005500090937C1280937B125DC0933009F047C06A
:10056000882331F1809184128F93809183128F932D
:10057000809182128F93809181128F93809180124B
:100580008F9380917F128F9380917E128F938091B1
:100590007D128F9387EC95E09F938F930E9468550F
:1005A0008DB79EB70A960FB6F8949EBF0FBE8DBF4B
:1005B0007B816C815D814E813F81288599858A850B
:1005C00070937D1260937E1250937F12409380123D
:1005D000309381122093821290938312809384121D
:1005E00019C09091891280918A12933070F18823FA
:1005F00041F08CE495E09F938F930E9468550F9093
:100600000F9081E0DF91CF910F91EF90DF90CF902D
:100610000C94B44880918A12882341F088ED95E0CB
:100620009F938F930E9468550F900F9020E8AE0122
:100630006C858B85DF91CF910F91EF90DF90CF90FC
:100640000C94A44765962F5F3CCF882341F083EF3D
:1006500095E09F938F930E9468550F900F9000E054
:1006600024E040E058EF6FEF77E081E00E944E49D0
:10067000DF91CF910F91EF90DF90CF9008958A3E58
:1006800089F4992341F08EE296E09F938F930E9424
:1006900068550F900F9080918912833000F38091FC
:1006A0008A12A5CF992309F4ACCFA3CF80918A12E7
:1006B000611115C0882321F08BE696E00E948055D9
:1006C00085E00E94401D60E081E090E00E94231ED2
:1006D00083E090E090938C1280938B12089588238E
:1006E00041F08CE495E09F938F930E9468550F90A2
:1006F0000F9081E00C94B4480895611110C080916E
:100700008A12882321F084E996E00E94805581E0D6
:100710008093DC1661E082E090E00C94231E089543
:10072000AF92CF92EF920F93CF93DF931F92CDB7FB
:10073000DEB790918A12811141C0633589F4992303
:1007400041F08CEA96E09F938F930E9468550F903A
:100750000F9081E08983BE016F5F7F4F81E412C0FB
:10076000613499F4992341F08FEE96E09F938F9333
:100770000E9468550F900F9081E08983BE016F5FE2
:100780007F4F82E50E94E24826C06235B9F4992382
:1007900041F080E397E09F938F930E9468550F90FC
:1007A0000F90A12CC12CEE24E3940FE02FE040E049
:1007B00064E18EEB9AE50E9486490DC0992341F0D1
:1007C0008CE495E09F938F930E9468550F900F9053
:1007D00081E00E94B4480F90DF91CF910F91EF908C
:1007E000CF90AF90089590918A1281112AC09923D9
:1007F000C9F01F921F921F921F921F9284E18F9344
:100800008AE58F938EEB8F9388E697E09F938F9383
:100810000E9468558DB79EB70A960FB6F8949EBF92
:100820000FBE8DBF85E00E94401D60E081E090E03A
:100830000E94231E82E090E090938C1280938B1292
:100840000895992341F08CE495E09F938F930E9443
:1008500068550F900F9081E00C94B4482F923F920E
:100860004F925F926F927F928F929F92AF92BF92C0
:10087000CF92DF92EF92FF920F931F93CF93DF936C
:10088000922E832E742E652E562E472E382E292E0C
:1008900080918A12882381F13F932F93832D00E169
:1008A0000E9442513F932F93292D382D472D562DCD
:1008B000652D742D832D922D00E20E9442513F93AD
:1008C0002F93292D382D472D562D652D742D832DD1
:1008D000922D00E30E9442513F932F9389EC97E0C1
:1008E0009F938F930E9468558DB79EB70A960FB657
:1008F000F8949EBF0FBE8DBF80918A12811105C0F2
:10090000E5E9F2E1C0E0D0E057C08BE098E00E945A
:100910008055C5E9D2E1E12CF12CFA81EB81BC8054
:10092000CD80DE801F81B885A985EF93FF932F2F9F
:100930003E2F4B2D5C2D6D2D712F8B2F9A2F00E1AB
:100940000E9442513F932F932F2F3E2F4B2D5C2D12
:100950006D2D712F8B2F9A2F00E20E9442513F93F1
:100960002F932F2F3E2F4B2D5C2D6D2D712F8B2F05
:100970009A2F00E30E9442513F932F9389818F93D6
:1009800088818F93FF92EF92A0E2B8E0BF93AF937C
:100990000E946855FFEFEF1AFF0A2A968DB79EB79F
:1009A0000E960FB6F8949EBF0FBE8DBF94E6E91663
:1009B000F10409F0B2CFA4CF80819181892B31F16C
:1009C000228133814481558166817781808591853B
:1009D000A92CB82CC72CD62CE52CF42C032D122DC9
:1009E0000E947C5199F480918A12882321F080E53D
:1009F00098E00E9480558AE08C9FF0018D9FF00D59
:100A00001124EB56FD4E0081118135C021963A9696
:100A1000C436D10589F605E912E1C0E0D0E0809145
:100A20008A12882321F08CE598E00E948055D80135
:100A30002D913C91CE010196232BB1F48C018AE0DB
:100A40008C9FD0018D9FB00D1124AB56BD4EFD0182
:100A50000193119312969C928182728263825482D6
:100A600045823682278207C0EC01065F1F4F84361D
:100A70009105A9F612C080918A12882361F01F9314
:100A80000F9388E698E09F938F930E9468550F908C
:100A90000F900F900F90E12C0CC080918A12882348
:100AA00021F089E898E00E948055EE24E3940FEF4E
:100AB0001FEF292D382D472D562D652D742D832D93
:100AC000922D0E94E947DF91CF911F910F91FF90E6
:100AD000EF90DF90CF90BF90AF909F908F907F90DE
:100AE0006F905F904F903F902F9008957F928F92DC
:100AF0009F92AF92BF92CF92DF92EF92FF920F93AD
:100B00001F93CF93DF93CDB7DEB72F970FB6F8942F
:100B1000DEBF0FBECDBF142F4901AC86BD86CE8689
:100B2000DF8660E082E090E00E94231ECE010C96FA
:100B30000E943E1BCC84DD84EE84FF8480918D1264
:100B400090918E12A0918F12B0919012C0928D123E
:100B5000D0928E12E0928F12F0929012C81AD90A97
:100B6000EA0AFB0AC114D10421E0E206F10428F0EC
:100B7000CC24CA94DC2CE12CF12CF40191818091DD
:100B80008A12913F09F46BC0923F09F4CDC0903FA7
:100B900009F02FC1882331F06FE978E0CE0101968A
:100BA0000E941655BD2D80E090E0412F50E05A0183
:100BB000F4E0AF1AB1089A012350310942505109AB
:100BC0006091E016811708F046C0A0910617709159
:100BD00007178A159B0569F4EA2FF72FE60FF11D19
:100BE000E60FF11D0190F081E02DE80FF91FC082A2
:100BF00030C08217930769F4EA2FF72FE60FF11D33
:100C0000E60FF11D0190F081E02DE80FF91FB08390
:100C100020C08417950769F4EA2FF72FE60FF11D1E
:100C2000E60FF11D0190F081E02DE80FF91F008320
:100C300010C0F401E80FF91F7080EA2FF72FE60FBC
:100C4000F11DE60FF11D0190F081E02DE80FF91F75
:100C500070820196B5CF6F5F6093E016D2C0882393
:100C600031F069EA78E0CE0101960E941655BD2D5B
:100C700080E090E0412F50E05A0124E0A21AB10830
:100C80009A0123503109425051096091041781178C
:100C900008F046C0A091DD167091DE168A159B05FE
:100CA00069F4EA2FF72FE60FF11DE60FF11D019011
:100CB000F081E02DE80FF91FC08230C08217930742
:100CC00069F4EA2FF72FE60FF11DE60FF11D0190F1
:100CD000F081E02DE80FF91FB08320C0841795073D
:100CE00069F4EA2FF72FE60FF11DE60FF11D0190D1
:100CF000F081E02DE80FF91F008310C0F401E80F28
:100D0000F91F7080EA2FF72FE60FF11DE60FF11D96
:100D10000190F081E02DE80FF91F70820196B5CFA8
:100D20006F5F609304176DC0882331F064EB78E047
:100D3000CE0101960E941655BD2D80E090E0412F16
:100D400050E05A01E4E0AE1AB1089A01235031098B
:100D50004250510960910917811708F046C0A091CF
:100D6000D2167091D3168A159B0569F4EA2FF72FD6
:100D7000E60FF11DE60FF11D0190F081E02DE80F67
:100D8000F91FC08230C08217930769F4EA2FF72F4A
:100D9000E60FF11DE60FF11D0190F081E02DE80F47
:100DA000F91FB08320C08417950769F4EA2FF72F45
:100DB000E60FF11DE60FF11D0190F081E02DE80F27
:100DC000F91F008310C0F401E80FF91F7080EA2FAB
:100DD000F72FE60FF11DE60FF11D0190F081E02DD8
:100DE000E80FF91F70820196B5CF6F5F6093091706
:100DF00008C0882331F06CEB78E0CE0101960E94A8
:100E0000165580918A12882309F454C0FF92EF92FC
:100E1000DF92CF921F920F931F921F93CE010196E4
:100E20009F938F93F40181811F928F9384EC98E0BC
:100E30009F938F930E946855B82C0FB6F894DEBF2D
:100E40000FBECDBF740194E2C92E99E0D92E0E2DAC
:100E50000B190117C0F4F70181917F011F928F9345
:100E6000DF92CF920E94685507700F900F900F90FD
:100E70000F90073019F48AE090E002C080E290E021
:100E80000E947A55E4CF809109171F928F93809129
:100E900004171F928F938091E0161F928F938BE21D
:100EA00099E09F938F930E9468550FB6F894DEBF28
:100EB0000FBECDBF61E082E090E00E94231E2F961E
:100EC0000FB6F894DEBF0FBECDBFDF91CF911F915B
:100ED0000F91FF90EF90DF90CF90BF90AF909F90D9
:100EE0008F907F900895EF92FF920F931F93CF936F
:100EF000DF93CDB7DEB72C970FB6F894DEBF0FBEE9
:100F0000CDBF182F86E00E94401D80918A12882351
:100F1000E1F0111103C063E579E007C0113019F465
:100F20006CE579E002C068E679E0CE0101960E94A6
:100F300016559F938F932FE639E03F932F930E948E
:100F400068550F900F900F900F90111131C00E94B3
:100F500032156093061870930718809308189093C1
:100F6000091820918A12222381F09F938F937F93F7
:100F70006F938AE999E09F938F930E9468550F9031
:100F80000F900F900F900F900F9060E074E081E051
:100F90000E94F914EE24E394F12C03E717E020E01B
:100FA0004CE150E260E070E086E00E94041C2FC03B
:100FB000113029F50E94321560930A1870930B18AE
:100FC00080930C1890930D1820918A12222381F09F
:100FD0009F938F937F936F938BEA99E09F938F9367
:100FE0000E9468550F900F900F900F900F900F90E8
:100FF0008BE090E090938C1280938B1208C08091CC
:101000008A12882321F08BEB99E00E9480552C9660
:101010000FB6F894DEBF0FBECDBFDF91CF911F9109
:101020000F91FF90EF9008955498EDE7F0E08081E4
:10103000816080830895AEE9B6E1EDE0F7E180E0FC
:1010400090E021E08D939D9321938A569F4F8036A7
:1010500039E09307B9F70895BF92CF92DF92EF92EC
:10106000FF920F931F93CF93DF9380918A1288236F
:1010700041F08DEC99E09F938F930E9468550F90FB
:101080000F909DE0E92E97E1F92ECEE9D6E100E040
:1010900010E0BB24B394CC24C394D12CF7018081FD
:1010A000882371F0888199818F3FF3E09F0710F4C6
:1010B000019603C0F701108201979983888308C0C5
:1010C000888199810097C1F7F701B082D982C882DF
:1010D00080919B0D90919C0D029759F48881998184
:1010E000F801E258F94E918380838EE190E00E94EE
:1010F000571B80919B0D90919C0D019739F488812D
:101100009981F801EE51F94E91838083FFEFEF1A38
:10111000FF0A22960E5F1F4F0032110509F0BECF65
:1011200087E090E090938C1280938B1280918A12CA
:10113000882369F084EF94E0DF91CF911F910F91A4
:10114000FF90EF90DF90CF90BF900C948055DF918F
:10115000CF911F910F91FF90EF90DF90CF90BF90B4
:10116000089580918A12882341F08EED99E09F9333
:101170008F930E9468550F900F9081E0089586EA42
:101180000E948119882321F00E94CC1980E00895E3
:101190008DE20E94D4198111F7CF88E00E94D41902
:1011A0008111F2CF0E94CC1981E008951F93CF9353
:1011B000DF9380918A12882341F083EF99E09F9317
:1011C0008F930E9468550F900F9084B1876084B907
:1011D000239885B1896085B982E58CBD8DB5816024
:1011E0008DBD0E94AC1480EF9AE00E94571BC0E1B5
:1011F000D8E111E0812F0E94B6148993999301964A
:1012000049F480918A12882389F08CE09AE00E9448
:1012100080550CC01F5F183069F780918A128823AF
:1012200039F084EF94E00E94805502C080E001C054
:1012300081E0DF91CF911F910895EF92FF920F937C
:101240001F93CF93DF93CDB7DEB72C970FB6F894EB
:10125000DEBF0FBECDBFE82E162FF72E80918A126B
:101260008823D9F0E11003C063E579E002C06CE5A2
:1012700079E0CE0101960E941655FF921F939F932D
:101280008F9328E23AE03F932F930E9468550F9086
:101290000F900F900F900F900F90612F7F2D8E2D3C
:1012A0000E94F914F12C03E717E020E04CE150E232
:1012B00060E070E086E00E94041C2C960FB6F89463
:1012C000DEBF0FBECDBFDF91CF911F910F91FF9079
:1012D000EF90089580918A12882341F083E69AE086
:1012E0009F938F930E9468550F900F90EDE1F7E167
:1012F000119287E1E53EF807D9F710920A17809816
:1013000080917E00816080937E0081E880937A00E6
:1013100080918A12882321F084EF94E00C94805508
:1013200008950F931F93CF93DF9300D01F92CDB7F3
:10133000DEB780918A12882341F080E99AE09F937A
:101340008F930E9468550F900F9080E480937C00EB
:1013500080917A00806480937A0080917A0084FF83
:10136000FCCF80917A00806180937A008091780030
:10137000909179009C838B838B819C81883E9340E4
:1013800008F04BC08B819C81893F924008F449C092
:101390006B817C81685F724080E090E00E9499528E
:1013A00020E030E040E753E40E94055220E030E0C6
:1013B00048EC52E40E9427530E946D52162F6B8115
:1013C0007C81685F724080E090E00E94995220E04A
:1013D00030E040E753E40E94055220E030E040E76F
:1013E00051E40E9427530E946D52062F6B817C812D
:1013F000685F724080E090E00E94995220E030E007
:1014000040E753E40E94055220E030E04FE753E408
:101410000E9427530E946D5207C06FEF0FE014E641
:1014200003C060E000E010E020910A17822F90E0F6
:10143000FC01E35EF84E6083873C91051CF010923E
:101440000A1703C02F5F20930A171A821982EDE151
:10145000F7E189819A812191820F911D9A83898375
:1014600087E1E53EF807A9F76093E51780918A12B6
:10147000882399F08B819C811F920F931F921F9359
:101480009F938F938BEA9AE09F938F930E94685566
:101490000FB6F894DEBF0FBECDBF0F900F900F9028
:1014A0000F90DF91CF911F910F910895CF93DF930C
:1014B000EC0180918A12882341F084ED9AE09F9399
:1014C0008F930E9468550F900F902097A1F58CE3A1
:1014D0000E948119882321F00E94CC1980E034C039
:1014E00080E00E94D4198111F7CF80E70E94D419BF
:1014F0008111F2CF8CE30E94CA198111EDCF81E0F6
:101500000E94D4198111E8CF80EE0E94D419811174
:10151000E3CF8CE30E94CA198111DECF82E00E94E2
:10152000D4198111D9CF82E00E94D4198111D4CF6E
:101530000E94CC1902C0219719F481E08093B20D6A
:101540001092DF168091B20DDF91CF9108958CE358
:101550000E948119882321F00E94CC1980E008950F
:1015600082E00E94D4198111F7CF0E94D419811111
:10157000F3CF0E94CC1981E008950F931F93CF936E
:10158000DF93EC0180918A12882321F08CED9AE0A0
:101590000E948055C230D10509F4CBC0C330D105BB
:1015A00009F4F2C1219709F06AC2E0910617F0919F
:1015B00007170190F081E02D81E48083E091061708
:1015C000F09107170190F081E02D80EF8183E09189
:1015D0000617F09107170190F081E02D8AE5868BC0
:1015E000A2EEB6E182E090E02C911296E09106170F
:1015F000F09107170190F081E02DE80FF91F20838B
:1016000001968F30910581F7E0910617F091071749
:10161000A081B1818091E91683709091E316929533
:10162000990F990F907C892B9091E5169370929564
:10163000907F892B9091E7169370990F990F892BC2
:101640001F968C93A081B1818091F1168370909147
:10165000EB169295990F990F907C892B9091ED162E
:1016600093709295907F892B9091EF169370990FBC
:10167000990F892B50968C93A081B1818091F91696
:1016800083709091F3169295990F990F907C892B06
:101690009091F51693709295907F892B9091F71603
:1016A0009370990F990F892B51968C930190F0812B
:1016B000E02D8091FB168295880F880F807C4899D9
:1016C00002C098E001C090E0892B828B80918A1241
:1016D000882341F1C0E0D0E001EC14E0E09106176E
:1016E000F09107170190F081E02DEC0FFD1F808134
:1016F0001F928F931F930F930E9468550F900F9026
:101700000F900F908C2F8770873021F48AE090E043
:101710000E947A552196C731D10501F78AE090E001
:101720000E947A5583E090E090938C1280938B1204
:10173000A6C1E091DD16F091DE160190F081E02D5A
:1017400081E48083E091DD16F091DE160190F08156
:10175000E02D81EF8183E091DD16F091DE1601909E
:10176000F081E02D8AE581A7AEE7B6E182E090E066
:101770002C911296E091DD16F091DE160190F08129
:10178000E02DE80FF91F208301968E30910581F737
:10179000E091DD16F091DE16A081B1818091851671
:1017A000837090917F169295990F990F907C892B59
:1017B0009091811693709295907F892B90918316CA
:1017C0009370990F990F892B1E968C93A081B181EC
:1017D00080918D168370909187169295990F990F2D
:1017E000907C892B9091891693709295907F892B8C
:1017F00090918B169370990F990F892B1F968C934C
:10180000A081B18180919516837090918F169295E9
:10181000990F990F907C892B9091911693709295C6
:10182000907F892B909193169370990F990F892B24
:1018300050968C93A081B1818091BE163091BF16D5
:1018400051968C93A081B1818091C0162091C116D0
:1018500052968C93A081B1818091C2169091C3164B
:1018600053968C93A081B1814091C4168091C51686
:1018700054964C93A081B18155963C93A081B1813F
:1018800056962C93A081B18157969C93A081B181EB
:1018900058968C93A081B1818091C6162091C7166D
:1018A00059968C93A081B1818091C8169091C916E8
:1018B0005A968C93A081B1813091CA168091CB1633
:1018C0005B963C93A081B1815C962C93A081B18101
:1018D0005D969C93A081B1815E968C93A081B1812D
:1018E0008091CC162091CD165F968C93A081B1810A
:1018F0008091CE169091CF1690968C93A081B18155
:101900003091D0168091D11691963C93A081B181EF
:1019100092962C93A081B18193969C93A081B181E2
:1019200094968C930190F081E02D15A280918A12FB
:10193000882309F4A4C0C0E0D0E001EC14E0E091F9
:10194000DD16F091DE160190F081E02DEC0FFD1F09
:1019500080811F928F931F930F930E9468550F9061
:101960000F900F900F908C2F8770873021F48AE0B2
:1019700090E00E947A552196CA32D10501F78AE09B
:1019800090E00E947A557BC0E091D216F091D31678
:101990000190F081E02D81E48083E091D216F091F6
:1019A000D3160190F081E02D82EF8183E091D21671
:1019B000F091D316A081B1818AE51E968C93A08107
:1019C000B1818091D41612968C93A081B1818091BF
:1019D000D51613968C93A081B1818091D61614965A
:1019E0008C93A081B1818091D71615968C93A0819C
:1019F000B1818091D81616968C93A081B181809187
:101A0000D91617968C93A081B1818091DA16189619
:101A10008C93A081B1818091DB1619968C930190F3
:101A2000F081E02D8091E5178F70828780918A1276
:101A3000882329F1C0E0D0E001EC14E0E091D21657
:101A4000F091D3160190F081E02DEC0FFD1F808105
:101A50001F928F931F930F930E9468550F900F90C2
:101A60000F900F908C2F8770873021F48AE090E0E0
:101A70000E947A552196CF30D10501F780CF809111
:101A80008A12882341F085E09BE0DF91CF911F917E
:101A90000F910C948055DF91CF911F910F91089574
:101AA000CF92DF92EF92FF920F931F93CF93DF932A
:101AB000CDB7DEB72F970FB6F894DEBF0FBECDBF00
:101AC0008C01CE010C960E94211B6C857D858E8534
:101AD0009F85C0909112D0909212E0909312F09056
:101AE00094126C197D098E099F09693823E17207E8
:101AF0008105910508F481C020918A122223B9F052
:101B000028EE33E040E050E00E946C507F936F93EA
:101B10005F934F933F932F938CE09BE09F938F9322
:101B20000E9468550FB6F894DEBF0FBECDBF8C85FE
:101B30009D85AE85BF858093911290939212A0935C
:101B40009312B093941282E089838EEB9AE59B8383
:101B50008A8380917B1290917C129D838C830E945A
:101B6000AA4A811111C0000000000000000000001E
:101B70000000000000000000000000000000000065
:101B800000000000000001C081E01092DC168823F4
:101B9000A1F160E082E090E00E94231E0230110576
:101BA00089F003301105C9F00130110531F5E091DC
:101BB0000617F091071720813181EE24E39400E0AD
:101BC00047E115C0E091DD16F091DE1620813181EC
:101BD000EE24E39400E04AE20AC0E091D216F091CC
:101BE000D31620813181EE24E39400E04FE0BE0162
:101BF0006F5F7F4F82E00E942B472F960FB6F894BD
:101C0000DEBF0FBECDBFDF91CF911F910F91FF902F
:101C1000EF90DF90CF90089580ED0E948119882386
:101C200021F00E94CC1980E008958EE30E94D4191F
:101C30008111F7CF81E00E94D4198111F2CF0E9467
:101C4000CC1981E00895BF92CF92DF92EF92FF927C
:101C50000F931F93CF93DF93182F062FB42EC42E0C
:101C6000D12CC6010E948A53EC01009779F1812F93
:101C70000E948119882319F00E94CC1927C0802F57
:101C80000E94D4198111F8CF812F81600E94CA1956
:101C90008111F2CF7E0100E010E081E0C81AD10886
:101CA0000B1580F40C151D051CF00E94EF1902C0E5
:101CB0000E94E519F70180830F5F1F4FFFEFEF1AB6
:101CC000FF0AEECF0E94CC19CE0102C080E090E066
:101CD000DF91CF911F910F91FF90EF90DF90CF9008
:101CE000BF900895CF93DF93EC0180918A128823EF
:101CF00041F087E39BE09F938F930E9468550F907C
:101D00000F90209709F044C086EA0E948119882329
:101D100019F00E94CC1971C082E30E94D41981117C
:101D2000F8CF87EA0E94CA198111F3CF1092BA0D39
:101D30008091BA0D833008F05AC0823039F40E9485
:101D4000E5198093B90D0E94EF1906C00E94E519AC
:101D50008093B90D0E94E5198093B80D8091B80D5C
:101D600090E0982F88272091B90D822B9093B70D82
:101D70008093B60D2091BA0DE22FF0E0EE0FFF1F19
:101D8000E453F94E918380832F5F2093BA0DD0CF17
:101D9000219781F546E06BE380ED0E94230EFC0164
:101DA0009093B40D8093B30D009739F1808190E04A
:101DB000982F88272181822B9093CF168093CE165F
:101DC000828190E0982F88272381822B9093CD16D3
:101DD0008093CC16848190E0982F88272581822BD0
:101DE0009093D1168093D016CF010E94225481E0A7
:101DF0008093B50D8091B50D01C080E0DF91CF914A
:101E00000895CF93DF93EC0180918A12882321F00B
:101E100088E59BE00E948055209709F044C08CE340
:101E20000E948119882319F00E94CC1971C083E0A7
:101E30000E94D4198111F8CF8DE30E94CA19811133
:101E4000F3CF1092B10D8091B10D833008F05AC0DC
:101E5000823039F40E94E5198093B00D0E94EF1989
:101E600006C00E94E5198093B00D0E94E519809389
:101E7000AF0D8091B00D90E0982F88272091AF0D85
:101E8000822B9093AE0D8093AD0D2091B10DE22F7A
:101E9000F0E0EE0FFF1FEA53F94E918380832F5F2E
:101EA0002093B10DD0CF219781F546E064E088E121
:101EB0000E94230EFC019093AB0D8093AA0D009716
:101EC00039F1808190E0982F88272181822B90938F
:101ED000C7168093C616828190E0982F88272381A9
:101EE000822B9093C9168093C816848190E0982F16
:101EF00088272581822B9093CB168093CA16CF0119
:101F00000E94225481E08093AC0D8091AC0D01C001
:101F100080E0DF91CF910895CF93DF93EC01809122
:101F20008A12882321F082E79BE00E948055209747
:101F300009F043C080ED0E948119813019F40E949C
:101F4000CC194AC08BE10E94D4198130C1F381EDD4
:101F50000E94CA19813099F31092A60D8091A60DA6
:101F6000843038F5833039F40E94E5198093A50D4B
:101F70000E94EF1906C00E94E5198093A50D0E94EA
:101F8000E5198093A40D8091A50D90E0982F8827E6
:101F90002091A60DE22FF0E0EE0FFF1FE254F94E64
:101FA0003091A40D832B918380832F5F2093A60D06
:101FB000D5CF81E08093A30D4FC0219709F04CC08D
:101FC00046E063E480ED0E94230EFC019093A20D95
:101FD0008093A10D009711F480E040C0808190E0D3
:101FE000982F88272181822B9093C3168093C21645
:101FF000828190E0982F88272381822B9093C116AD
:102000008093C016848190E0982F88272581822BA9
:102010009093C5168093C416CF010E942254C1E04C
:10202000C093A30D42E061E480ED0E94230E9093E3
:10203000A20D8093A10D009779F2FC01208130E080
:10204000322F22274181242B3093BF162093BE16B6
:102050000E942254C093A30D8091A30DDF91CF91D4
:102060000895CF92DF92EF92FF920F931F93CF9339
:10207000DF931F92CDB7DEB7142FF52E022F6983A1
:102080000E9481196981811113C0862F0E94D41981
:1020900081110EC0E12EC12EDF2C8C2D8E198017E0
:1020A00058F4F60181916F010E94D4198823A9F395
:1020B0000E94CC1980E003C00E94CC1981E00F90EF
:1020C000DF91CF911F910F91FF90EF90DF90CF9014
:1020D00008951F93CF93DF93EC0180918A12882398
:1020E00041F08EE89BE09F938F930E9468550F907C
:1020F0000F90209721F586EA0E948119882319F014
:102100000E94CC192CC08CE20E94D4198111F8CF06
:102110008BE00E94D4198111F3CF86EA0E94CA197C
:102120008111EECF81E30E94D4198111E9CF89E0BA
:102130000E94D4198111E4CF0E94CC191BC02197B1
:10214000E1F4C091BB0DD091BC0D18E0188321E0E3
:10215000AE0169E180ED0E943110811102C080E082
:1021600010C0188321E0AE016CE180ED0E943110B7
:102170008823A9F381E08093BD0D1092051780910B
:10218000BD0DDF91CF911F910895CF93DF93EC01A7
:1021900080918A12882341F08EE99BE09F938F9370
:1021A0000E9468550F900F902097A1F580ED0E9436
:1021B0008119882321F00E94CC1980E042C085E17A
:1021C0000E94D4198111F7CF82E30E94D4198111A2
:1021D000F2CF80ED0E94CA198111EDCF86E10E94F5
:1021E000D4198111E8CF8CE10E94D4198111E3CF79
:1021F00080ED0E94CA198111DECF8EE30E94D419AE
:102200008111D9CF80E40E94D4198111D4CF0E94CA
:10221000CC1910C0219789F44091A70D5091A80DB9
:1022200088E1FA01808321E06BE180ED0E943110AA
:10223000882339F081E08093A90D1092E1168091F6
:10224000A90DDF91CF910895CF93DF93EC01809199
:102250008A12882361F0DF93CF938AEA9BE09F93F1
:102260008F930E9468550F900F900F900F90C13080
:10227000D10591F020F1229781F58FEF9FEF909398
:10228000C7168093C6169093C9168093C81690936C
:10229000CB168093CA1621C08FEF9FEF9093BF1685
:1022A0008093BE169093C1168093C0169093C31668
:1022B0008093C2169093C5168093C4160EC08FEFFC
:1022C0009FEF9093CD168093CC169093CF1680936A
:1022D000CE169093D1168093D016DF91CF910895AA
:1022E000CF93DF93EC0180918A12882341F02CEC8C
:1022F0003BE03F932F930E9468550F900F90CD2B9A
:1023000071F40E94BF08811102C080E009C00E94E0
:102310000C0E8823D1F3DF91CF910C94A70A81E0B2
:10232000DF91CF91089599278130910599F08230FE
:102330009105E1F0892B29F580910B1790910C17ED
:102340000E94C510811102C00C94CC1981E08093C9
:10235000E116089580910B1790910C170E94560A70
:10236000882391F381E08093DF16089580910B1705
:1023700090910C170E946910882331F381E08093BB
:102380000517089580918A12882341F08DED9BE016
:102390009F938F930E9468550F900F9084B3887F0E
:1023A00084BB5E9883B3876083BB569A8198809183
:1023B0007E00826080937E0082E880937A00809124
:1023C0008A12882321F084EF94E00C9480550895BC
:1023D0000F931F93CF93DF9380918A12882341F04C
:1023E0008DEC99E09F938F930E9468550F900F900A
:1023F00084B3887F84BB5E98E6EEF7E120E031E4A9
:10240000283018F424BB5E9804C0822F877084BBE8
:102410005E9A30937C0080917A00806480937A0089
:1024200080917A0084FFFCCF80917A008061809354
:102430007A008091780090917900819391932F5F39
:102440002031F1F680918A128823E9F088EF9BE031
:102450000E948055C6EED7E103EC14E08881998193
:1024600022969F938F931F930F930E9468550F900E
:102470000F900F900F9088E1C630D80779F78AE067
:1024800090E00E947A5585E090E090938C128093C2
:102490008B12DF91CF911F910F910895CF93DF930E
:1024A000EC0180918A12882341F082E19CE09F93A5
:1024B0008F930E9468550F900F90C130D10539F06D
:1024C000229781F5A7E0B2E0CEE7D6E118C0A7E1F8
:1024D000B2E0C2EED6E1ED91F0E0EE0FFF1FEA515F
:1024E000F84E808191818993999382E0A732B80751
:1024F00091F78091E0168F5F8093E01613C0ED9105
:10250000F0E0EE0FFF1FEA51F84E80819181899330
:10251000999382E0A731B80791F7809104178F5FF4
:102520008093041780918A12882331F084EF94E01D
:10253000DF91CF910C948055DF91CF910895CF9387
:10254000DF93EC0180918B1290918C128330910576
:1025500008F4E5C08730910509F440C090F4833059
:102560009105B9F0059709F0D5C086E090E0909309
:102570008C1280938B12CE010E944E1287E090E065
:10258000C5C08B30910509F4A6C00D9709F4AEC003
:10259000C1C062E081E090E00E94231ECE0101975D
:1025A000029760F410927D1684E090E090938C1274
:1025B00080938B12CE010E94E811ACC0C330D105CC
:1025C00009F0A8C08AE090E090938C1280938B125F
:1025D00060E074E080E00E941D099CC0C130D1051C
:1025E00021F0C230D10551F095C08EE090E090937B
:1025F0008C1280938B1281E090E084C08091081748
:10260000882309F45AC08091990D90910502891789
:10261000A8F088E090E090938C1280938B128091C8
:102620000B1790910C170E948C0F811104C081E050
:1026300090E00E9424111092990D03C08F5F809347
:10264000990D8091980D909104028917A8F088E067
:1026500090E090938C1280938B1280910B17909145
:102660000C170E94010F811104C082E090E00E94CB
:1026700024111092980D03C08F5F8093980D809164
:102680009A0D909106028917A8F088E090E0909347
:102690008C1280938B1280910B1790910C170E94D3
:1026A000720E811104C080E090E00E94241110920B
:1026B0009A0D03C08F5F80939A0D8EE090E0909307
:1026C0008C1280938B128091DC1681110E949109EB
:1026D00082E090E017C08CE090E090938C128093A1
:1026E0008B120E9466158DE090E010C08EE090E0A5
:1026F00090938C1280938B128091DC1681110E9432
:102700009109CE010E94BD0A83E090E090938C1263
:1027100080938B12CE01DF91CF910C94500DDF91FD
:10272000CF910895CF93DF9380918A12882341F04F
:1027300083E29CE09F938F930E9468550F900F90C7
:10274000C0919F0DD091A00D81E0888321E0AE0162
:102750006BE680ED0E943110882309F472C08091ED
:102760008A12882341F082E49CE09F938F930E9419
:1027700068550F900F908EE0888321E0AE016CE1E8
:1027800080ED0E943110882309F45BC044E06DE0C5
:1027900080ED0E94230E90939E0D80939D0D0097D7
:1027A00009F44FC00E94225480918A12882341F07C
:1027B0008CE59CE09F938F930E9468550F900F903B
:1027C00082E0888321E0AE0167E380ED0E94311052
:1027D0008823B9F1188221E0AE016AE088E10E9405
:1027E0003110882371F180E4888321E0AE016CE030
:1027F00088E10E943110882321F18FE0888321E055
:10280000AE016AE088E10E9431108823D1F084EFA4
:1028100091E00E94571B46E063E088E10E94230E8E
:1028200090939E0D80939D0D009759F00E94225425
:10283000188221E0AE016CE088E1DF91CF910C9429
:10284000311080E0DF91CF910895CF93DF93EC01B9
:1028500080918A12882361F0DF93CF938CE89CE00B
:102860009F938F930E9468550F900F900F900F9039
:10287000EEEBF6E11192119286E1E23DF807D1F715
:102880000E947B19209739F580910B1790910C17B6
:102890000E946910811103C00E94CC192EC0809142
:1028A0000B1790910C170E94C5108823A9F38091F3
:1028B0000B1790910C170E94560AC82F882361F3BA
:1028C00080918A12811102C0C1E02BC084EF94E094
:1028D0000E94805526C02197B9F780918A128823DB
:1028E00041F08CEA9CE09F938F930E9468550F9073
:1028F0000F900E949213811102C0C0E012C081E0CB
:1029000090E00E9469108823C1F381E090E00E946A
:10291000C510882391F381E090E0DF91CF910C9472
:10292000560A8C2FDF91CF91089580918A128823C7
:1029300041F081EC9CE09F938F930E9468550F902B
:102940000F905098589880918A12882321F084EF34
:1029500094E00C948055089528988EE18EBD0DB4B6
:1029600007FEFDCF289A80E090E008951092EC0DCC
:102970001092EB0D90E0FC013197E730F105B0F5D6
:10298000E656FF4F0C948E5082EA0BC084EA09C0D1
:1029900086EA07C088EA05C08AEA03C08CEA01C05B
:1029A0008EEA8093EA0D28988091EA0D8EBD0DB4D1
:1029B00007FEFDCF1EBC0DB407FEFDCF8EB590E027
:1029C000982F88279093EC0D8093EB0D1EBC0DB4CF
:1029D00007FEFDCF2EB5822B9093EC0D8093EB0D6F
:1029E000289A8091EB0D9091EC0D08958FEF9FEF59
:1029F00008952898611594E07907E9F040F461158D
:102A000091E0790761F06115724079F026C0611597
:102A100098E07907B1F061157041C9F01EC08111CD
:102A200002C080E419C080E517C0811102C082E4B1
:102A300013C082E511C0811102C084E40DC084E599
:102A40000BC0811102C086E407C086E505C0811174
:102A500002C088E401C088E58EBD0DB407FEFDCF3D
:102A6000289A0895EF92FF920F931F9328981EBC07
:102A70000DB407FEFDCF1EBC0DB407FEFDCF4EB555
:102A800050E060E070E0BA01552744271EBC0DB449
:102A900007FEFDCF8EB590E0A0E0B0E0BA2FA92FE1
:102AA000982F88271EBC0DB407FEFDCF2EB57A01E6
:102AB0008B01E82AF92A0A2B1B2BC801B701289A97
:102AC000622B1F910F91FF90EF9008952F923F92EC
:102AD0004F925F926F927F928F929F92AF92BF922E
:102AE000CF92DF92EF92FF920F931F93CF93DF93DA
:102AF000CDB7DEB767970FB6F894DEBF0FBECDBF78
:102B000080918A12882309F447C080910D188F9311
:102B100080910C188F9380910B188F9380910A18D5
:102B20008F93809109188F93809108188F938091CB
:102B300007188F93809106188F9380911B188F939D
:102B400080911A188F93809119188F93809118187B
:102B50008F93809117188F93809116188F9380917F
:102B600015188F93809114188F93809113188F9359
:102B7000809112188F93809111188F938091101863
:102B80008F938BED9CE09F938F930E9468550FB6B7
:102B9000F894DEBF0FBECDBF809118189091191820
:102BA0009C0140E050E060E070E080E090E008E0F0
:102BB0000E94275149015A0140900A1850900B1861
:102BC00060900C1870900D18481859086A087B0816
:102BD0004092DE0D5092DF0D6092E00D7092E10D9B
:102BE00020911A1830911B1840E050E0C301B20147
:102BF0000E94ED5007E10E94405149015A01D50160
:102C0000C4018053984FAF4FBF4F89879A87AB87D6
:102C1000BC878093D8169093D916A093DA16B093F8
:102C2000DB16E0911618F09117188090121890900A
:102C30001318940140E050E060E070E080E090E024
:102C400000E10E942751D22EE32E1A014B018D87FD
:102C500099839F0140E050E0C301B2010E94ED5012
:102C600007E00E9440515901C42EF52FE62FF72EA0
:102C70008C012D2D3E2DA101B4018D859981DF2E72
:102C8000EE2E0E945E51322E832E942E5F8B6E8B21
:102C90007D878E87292E2093C60D3093C70D4093D4
:102CA000C80D5093C90D6093CA0D7093CB0D8093DE
:102CB000CC0D2092CD0D40911018509111189A0111
:102CC00040E050E060E070E080E090E00FE00E94C3
:102CD000275129833F87488B598B6A8B7B8B8C8B41
:102CE0009D8B209114183091151840E050E0C301DD
:102CF000B2010E94ED5008E00E94405159016A0162
:102D00007B018C012093CE0DB092CF0D4093D00D5E
:102D1000D092D10D6093D20DF092D30D8093D40D4B
:102D20001093D50D29813F85488959896A897B8906
:102D30008C899D890E945E512093BE0D3093BF0DFA
:102D40004093C00D5093C10D6093C20D7093C30D9D
:102D50008093C40D9093C50D4090061850900718AD
:102D6000609008187090091863015201E12CF12C51
:102D700087014982BA82CB82DC82ED82FE820F8398
:102D8000188759016A017B018C0129813A814B81A5
:102D90005C8160E070E080E090E00E94945005E18A
:102DA0000E9440512093E20D3093E30D4093E40DD7
:102DB0005093E50D6093E60D7093E70D8093E80D59
:102DC0009093E90DA32CB82CC92CDF88EE88FD84E4
:102DD0000E85122D0E9473512093D60D3093D70D7E
:102DE0004093D80D5093D90D6093DA0D7093DB0D9D
:102DF0008093DC0D9093DD0D0FE00E944051C901DE
:102E00002093D4169093D5164093D6165093D71688
:102E100020918A122223B9F05F934F939F938F934F
:102E2000BC84BF92CB84CF92DA84DF92E984EF92A4
:102E300083E79DE09F938F930E9468550FB6F894A7
:102E4000DEBF0FBECDBF67960FB6F894DEBF0FBED4
:102E5000CDBFDF91CF911F910F91FF90EF90DF9049
:102E6000CF90BF90AF909F908F907F906F905F902A
:102E70004F903F902F9008950F931F938B019C01CB
:102E8000775F824C9F4F42E0660F771F881F991F24
:102E90004A95D1F7A9019801E3E0220F331F441F9F
:102EA000551FEA95D1F70E946C502150310930939B
:102EB000C5002093C40082E08093C00086E0809328
:102EC000C20088ED8093C1001F910F910895209159
:102ED000C1002F7B2093C1003091321840913318EC
:102EE000431710F029E001C02FEF230F241B6217B6
:102EF00008F4262FFC01822F882391F0909133183B
:102F00004191A92FB0E0A25EB74E4C93993019F4CD
:102F10001092331803C09F5F909333188150ECCF09
:102F20008091361881110AC0E32FF0E0E25EF74E7F
:102F300080818093C60081E0809336188091C10023
:102F400080648093C100822F0895DC01809137183E
:102F50008823B1F19091C1009F779093C1008A308E
:102F600058F080913518809334188AE08093371890
:102F70006A3028F06AE003C0861708F4682F962F9D
:102F80009923B9F0E0913418F0E0E25EF74E8285C3
:102F90008D93809134188F5F809334182091371867
:102FA00021502093371891508A3051F710923418DD
:102FB000E7CF8091C10080688093C100862F08957B
:102FC00080E008951F920F920FB60F9211240BB656
:102FD0000F928F939F93EF93FF9380913518909169
:102FE00037189F5F909337189091C600E82FF0E054
:102FF000E25EF74E9287893019F41092351803C0BB
:103000008F5F80933518FF91EF919F918F910F9073
:103010000BBE0F900FBE0F901F9018951F920F922E
:103020000FB60F9211240BB60F928F93EF93FF936D
:1030300080913218893019F41092321803C08F5FD2
:1030400080933218E091321880913318E81739F0E4
:10305000F0E0E25EF74E80818093C60002C01092DD
:103060003618FF91EF918F910F900BBE0F900FBE0E
:103070000F901F901895811108C060E074E883E0FC
:1030800090E00E943C1780E0089585E808959B0138
:10309000811104C0642FC9010C94671780E0089562
:1030A0009B01811104C0642FC9010C94A51780E015
:1030B00008959093F60D8093F50D08959093F40D77
:1030C0008093F30D08959093F20D8093F10D089580
:1030D0009093EE0D8093ED0D08959093F00D8093F5
:1030E000EF0D08951F920F920FB60F9211240BB699
:1030F0000F922F933F934F935F936F937F938F9391
:103100009F93AF93BF93EF93FF93E091F50DF091F1
:10311000F60D1995FF91EF91BF91AF919F918F910E
:103120007F916F915F914F913F912F910F900BBEC7
:103130000F900FBE0F901F9018951F920F920FB611
:103140000F9211240BB60F922F933F934F935F93DF
:103150006F937F938F939F93AF93BF93EF93FF935F
:10316000E091F30DF091F40D1995FF91EF91BF915E
:10317000AF919F918F917F916F915F914F913F910F
:103180002F910F900BBE0F900FBE0F901F901895B0
:103190001F920F920FB60F9211240BB60F922F931E
:1031A0003F934F935F936F937F938F939F93AF93CF
:1031B000BF93EF93FF93E091F10DF091F20D19950C
:1031C000FF91EF91BF91AF919F918F917F916F91FF
:1031D0005F914F913F912F910F900BBE0F900FBEBB
:1031E0000F901F9018951F920F920FB60F921124F7
:1031F0000BB60F922F933F934F935F936F937F93F1
:103200008F939F93AF93BF93EF93FF93E091EF0D55
:10321000F091F00D1995FF91EF91BF91AF919F91B2
:103220008F917F916F915F914F913F912F910F906F
:103230000BBE0F900FBE0F901F9018951F920F920C
:103240000FB60F9211240BB60F922F933F934F930B
:103250005F936F937F938F939F93AF93BF93EF93FE
:10326000FF93E091ED0DF091EE0D1995FF91EF9127
:10327000BF91AF919F918F917F916F915F914F918E
:103280003F912F910F900BBE0F900FBE0F901F908C
:1032900018951F920F920FB60F9211240F900FBE28
:1032A0000F901F9018951F920F920FB60F92112436
:1032B0000F900FBE0F901F9018951F920F920FB690
:1032C0000F9211240F900FBE0F901F9018951F9210
:1032D0000F920FB60F9211240F900FBE0F901F90F8
:1032E00018951F920F920FB60F9211240F900FBED8
:1032F0000F901F9018951092B90088E48093B80041
:10330000089594EA9093BC009091BC0097FFFCCF85
:103310009091B900987F983021F0903111F081E0C0
:1033200008958093BB0084E88093BC008091BC002A
:1033300087FFFCCF8091B900887F883111F08034FD
:1033400071F780E0089524EA34E844E92093BC0052
:103350009091BC0097FFFCCF9091B900987F983076
:1033600011F0903199F78093BB003093BC0090919D
:10337000BC0097FFFCCF9091B900987F903211F07C
:10338000983539F44093BC009091BC0094FDFCCF7B
:10339000DDCF08950C94811984E98093BC0080915D
:1033A000BC0084FDFCCF08958093BB0084E880932B
:1033B000BC008091BC0087FFFCCF9091B900987F42
:1033C00081E0983209F480E0089584EC8093BC0099
:1033D0008091BC0087FFFCCF8091BB00089584E8FA
:1033E0008093BC008091BC0087FFFCCF8091BB0024
:1033F000089584B714BEA89588E10FB6F894809319
:103400006000109260000FBE0E946E1A0E94EF1AB8
:103410000E94591E80E008950C94CD1BEF92FF92FC
:103420000F931F93CF93DF93811119C0CB01840FAA
:10343000951F81309042A8F48901040F151FE901FE
:103440007B01E21AF30AC017D10739F0CE018E0DC5
:103450009F1D0E94A8578993F6CF80E003C088EE95
:1034600001C085E8DF91CF911F910F91FF90EF9000
:103470000895EF92FF920F931F93CF93DF93EC0188
:103480007B01E80EF91E81E0E81680E2F80698F468
:103490008A01CE15DF0569F0CE010E94A857F80118
:1034A00061918F01861719F0CE010E94B0572196C5
:1034B000F0CF80E001C085E8DF91CF911F910F919F
:1034C000FF90EF9008958FEF85B984B98FEF9FEF4C
:1034D0000E94571B85B1809585B9F8CF8FB7F894B6
:1034E000E0E0F0E099E090935700E4918FBFEF7037
:1034F000E23011F48FE001C080E090E020E80FB6E8
:10350000F89420936100809361000FBE80E1809366
:103510003501809334018093330180933201089503
:103520000F931F93E091F90D89E0E89FF0011124BA
:10353000E85CF74E80819181A281B3812091FA0DE0
:10354000222309F440C0B093F800A093F7009093B1
:10355000F6008093F5002091DF0020FD08C021E0F7
:103560002093E0002091DF0021602093DF00F091A4
:10357000E100E091E2003091E3002091E4004F2F60
:103580005E2F632F722F4F5F5F4F6F4F7F4F8A0108
:103590009B01082719272A273B27002711272227C5
:1035A000387F012B022B032B31F484179507A607D4
:1035B000B70778F011C0B7707770481759076A07D6
:1035C0007B0738F009C08091DF008E7F8093DF0099
:1035D00003C081E0809392181F910F91089510927B
:1035E000FA0D109292188FEF8093F90D8093F80DD9
:1035F0008093F70DE0E4F8E19FEF8FEF9083DF0118
:1036000014971D921C92399628E1EA39F207A9F71E
:1036100090E29093B60098EA9093DC009FE090933C
:10362000F4008093F3008093F2008093F10082E035
:103630008093E0008091DF0082608093DF00089536
:1036400008952091DE0020FDFCCFF091E100E09193
:10365000E2003091E3002091E4004F2F5E2F632FB2
:10366000722F24E0440F551F661F771F2A95D1F74C
:10367000FC0140835183628373830895F091E900D4
:10368000E091EA003091EB002091EC004F2F5E2F8B
:10369000632F722F34E0440F551F661F771F3A9532
:1036A000D1F7FC014083518362837383089584368C
:1036B000910520F44FB7F89451E002C040E050E08B
:1036C00061E072E00097C9F097FF03C02FEF3FE77A
:1036D00001C09C01821B930B220F331F3195219552
:1036E000310930932501209324016ABB7093210195
:1036F000D09BFECF10922101E5CF51114FBF08950D
:1037000099E0899FF0011124E85CF74E81E0248163
:103710003581232B09F480E00895CF93CFB7F89437
:10372000809192188823B1F1109292188091FA0D2D
:10373000882381F19091F80DE091F70DA091F90D9A
:103740009F3F39F4EF3F29F4A093F70DA093F80DB4
:1037500009C099E0E99FF0011124E85CF74EA087C9
:10376000A093F70D99E09A9FD0011124A85CB74E61
:1037700018962C912093F90DE091F70D9E9FF00182
:103780001124E85CF74E9FEF908781508093FA0DEB
:103790000E94901ACFBFCF910895CF93DF930E94DC
:1037A0008D1BC9E0DFEF8091F80D8F3F51F13FB7DE
:1037B000F894A091F80DCA9FD0011124A85CB74ECF
:1037C00018962C9118971496ED91FC9115971696D2
:1037D0008D919C9117971896DC93189715961C92CB
:1037E0001E92149717961C921E9216972093F80D0E
:1037F0002F3F11F42093F70D3FBF3097A1F2199599
:10380000D2CFDF91CF9108952F923F924F925F9246
:103810006F927F928F929F92AF92BF92CF92DF92E0
:10382000EF92FF920F931F93CF93DF9300D000D0BE
:10383000CDB7DEB71801FB82EA828A3008F0DDC01E
:103840000115110509F4DDC0082F10E01E830D835A
:1038500019E0819FF0011124E85CF74E0480F581A6
:10386000E02DEF2B09F0CBC06A017B01F4E0F69468
:10387000E794D794C794FA95D1F7222319F0213011
:1038800009F1BFC0B701A60148505109610971098A
:10389000483F5F4F6F4F774010F08BE8D8C0E09102
:1038A000E1003091E2002091E3009091E4004E2F7E
:1038B000532F622F792FC40ED51EE61EF71E3FE050
:1038C000F3221EC0E091E1003091E2002091E3007C
:1038D0009091E4004E2F532F622F792F970186018C
:1038E000041B150B260B370BB901A8017F7048503C
:1038F000510961097109483F5F4F6F4F774068F682
:103900002FB72983F8948C830E948D1BA091F90D09
:103910006090FA0D8C81AF3F41F0BA2F9A2F712C35
:103920004601570137E0B32211C08093F90D89E0B9
:103930004D815E81849FF001859FF00D1124E85C2C
:10394000F74EA0873DC09F3F21F473947610FBCFC4
:103950006BC0492E512C59E0549DF001559DF00D3E
:103960001124E85CF74E4081518162817381970197
:103970008601042715272627372700271127222706
:10398000387F012B022B032B31F44C155D056E059E
:103990007F05C8F106C0777084169506A606B7069F
:1039A00090F129E00D811E81209FF001219FF00DF3
:1039B0001124E85CF74E9087A91330C08093F90D6D
:1039C00089E00D811E81809FF001819FF00D1124FF
:1039D000E85CF74EC082D182E282F3823582248293
:1039E0002A813B813783268363946092FA0D0E947B
:1039F000901A39813FBF80E02AC08AE828C088E851
:103A000026C088EE24C049E0449DF001459DF00D9C
:103A10001124E85CF74EB92F908597CF2B9FF001CA
:103A20001124E85CF74E11C099E09B9FF00111242E
:103A3000E85CF74E80872D813E81929FF001939F35
:103A4000F00D1124E85CF74E8FEF8087B9CF2696F2
:103A50000FB6F894DEBF0FBECDBFDF91CF911F919F
:103A60000F91FF90EF90DF90CF90BF90AF909F901D
:103A70008F907F906F905F904F903F902F90089520
:103A8000FF920F931F93CF93DF93082F8A3008F094
:103A90004FC01FB7F8940E948D1BF090FA0DFF20C5
:103AA00009F448C09091F90D2F2D392F892F59E035
:103AB000081332C0C02FD0E009130FC089E08C9FDB
:103AC000D0018D9FB00D1124A85CB74E18968C9133
:103AD0008093F90D0E94901A10C0A9E0AC9FF001EC
:103AE000AD9FF00D1124E85CF74E8085A39FD001B7
:103AF0001124A85CB74E18968C9389E08C9FD00156
:103B00008D9FB00D1124A85CB74E8FEF18968C9343
:103B1000FA94F092FA0D56C0589FD0011124A85C77
:103B2000B74E18964C91215029F0382F842FC0CFD2
:103B30008AE852C09091F80D492F892F29E08F3FD4
:103B4000C9F108132EC0202F30E08091F70D091322
:103B500013C0081304C08FEF8093F70D0AC089E0EB
:103B6000829FD001839FB00D1124A85CB74E189698
:103B70008C918093F80D26C0A9E0A29FE001A39F3D
:103B8000D00D1124C85CD74E9885A49FD001112474
:103B9000A85CB74E18969C93081314C04093F70D79
:103BA00011C0289FD0011124A85CB74E482F189649
:103BB0008C91C5CF80E01FBF882311F080E00CC03E
:103BC00089E80AC089E0089FF0011124E85CF74EFB
:103BD0001582148281E0EFCFDF91CF911F910F9179
:103BE000FF9008951F920F920FB60F9211248F939A
:103BF0008091FA0D882319F081E0809392188F91BB
:103C00000F900FBE0F901F9018951F920F920FB636
:103C10000F9211248F938FEF8093E4008093E30041
:103C20008093E2008093E1008F910F900FBE0F9080
:103C30001F90189581E008952D9A259A2C9A249A20
:103C40002E9A269A08958130910579F00297D1F045
:103C5000613031F018F0623029F008952D98089500
:103C60002D9A089585B190E219C0613031F018F0B5
:103C7000623029F008952C9808952C9A089585B102
:103C800090E10CC0613031F018F0623029F00895F5
:103C90002E9808952E9A089585B190E4892785B9C4
:103CA0000895759A6D9808958CB185FB882780F9E1
:103CB0000895089590E29CBBED9A93B7917F982B5D
:103CC00093BF83B7816083BF889583B78E7F83BF9F
:103CD00008951F920F920FB60F921124ED980F9036
:103CE0000FBE0F901F9018950F931F93CF93DF93E4
:103CF0008BEF9DE00E94121FCCE1DEE000E01EE0B1
:103D0000F801D183C083B8018BEF9DE00E94191F99
:103D1000C656DF4F0C5F1F4FF2E1C235DF0781F758
:103D2000DF91CF911F910F91089560E070E08BEFCC
:103D30009DE00C94341F009729F0BC018BEF9DE0AF
:103D40000C94191F08959F92AF92BF92CF92DF9269
:103D5000EF92FF920F931F93CF93DF938C015B0140
:103D60006A019FB6F894DC0114968C91811103C00E
:103D7000C0E0D0E049C0F801E080F1804115510574
:103D8000A1F0E7012097A1F3D60112966D917C91E5
:103D90001397ED91FC91888199811995811109C042
:103DA0007E010A80DB81C02DEDCFE114F10401F327
:103DB000E701AB2849F5F801208131818A819B8197
:103DC000C217D30719F49183808305C0D7011396D6
:103DD0009C938E931297F80182819381C817D9071B
:103DE00011F4F382E282D80114968C9114978150D9
:103DF00014968C9314978D919C911197892B21F493
:103E000013961C921E9212979FBECE01DF91CF9106
:103E10001F910F91FF90EF90DF90CF90BF90AF90E8
:103E20009F900895FC0111821082138212821482E5
:103E30000895FC019FB7F8948481811103C07183B8
:103E4000608306C0A281B38113967C936E93129710
:103E500073836283DB0113961C921E9212978481F6
:103E60008F5F84839FBF0895AB0160E070E00C9486
:103E7000A31EAB0161E070E00C94A31ECF93DF930F
:103E8000EC018C81882361F060E070E0CE010E943B
:103E9000341F009711F41C8203C00E949B1EF1CFB7
:103EA000DF91CF910895CF93809141018F71883038
:103EB00089F481E080934F0189E080934201C3E05F
:103EC00080914F0180FD06C08EE690E00E94571B56
:103ED000C150B1F7CF910895CF93C82F8091BC18EE
:103EE0008F3021F51092C01886E396E20E946D187B
:103EF0009FB7F8947894809139018D7F8093390130
:103F00008091C0188823E1F39FBF8FEF80934F010A
:103F10008CE480934E0180914D01846080934D012B
:103F2000C83011F0C33011F488E03FC08C2F90E00E
:103F3000FC013397E731F10508F0E3C0EF55FF4F7F
:103F40000C948E5083E08093420180914D018B7FD1
:103F500080934D010E94FE5480936D0180916E010B
:103F60009770887F982B90936E018FEF80934F010D
:103F700080E880934E010000000000000000000077
:103F80000000000000000000000000000000000031
:103F900000000000000080913901826080933901A7
:103FA00083E290E00E94571B8FE08093BC18B0C062
:103FB0008091BC18883009F4A4C088E090C080913A
:103FC000BC18883009F49DC083E089C08091BC187A
:103FD0008830B9F020F4863009F093C005C08631EE
:103FE00019F0893109F08DC089E079C08091BC1841
:103FF000883039F0893009F484C084E0809342012C
:1040000080C00E94531F7DC08091BC18893061F030
:1040100030F4883009F075C00E94531F05C0863106
:1040200019F0893109F06DC086E059C08091BC1843
:10403000883051F018F4863051F063C0893011F1A6
:10404000893109F05EC01EC00E94531F1BC089E069
:10405000809342010000000000000000000000000A
:104060000000000000000000000000000000000050
:1040700000000000809141018F718093BC1889304D
:1040800009F046C086E12BC08091BC18883021F130
:1040900018F4863031F035C0893001F1863109F0ED
:1040A00030C089E080934201000000000000000061
:1040B0000000000000000000000000000000000000
:1040C0000000000000000000809141018F7180938A
:1040D000BC188930E9F402C00E94531F89E1809323
:1040E000420100000000000000000000000000008D
:1040F00000000000000000000000000000000000C0
:104100000000809141018F718093BC188F31C9F3F9
:10411000CF910895809193188823E1F08091C11880
:10412000811118C08091521290915312892B39F449
:104130008AE90E94951E90935312809352128091A7
:10414000521290915312892B29F01092931886E104
:104150000E946C1F80919818882351F060E070E0F5
:1041600084E998E10E94341F009711F00E943121E8
:104170008091C118823019F0853019F008950C949F
:1041800067210C94D622CF92DF92EF92FF920F9389
:104190001F93CF93DF93E0915212F0915312309717
:1041A00009F456C000811181C0904701D0907B0175
:1041B000D7FC4EC082E08D0DCAE9D0E0C81BD10902
:1041C000C00FD11FED2CF12CA7014F5F5F4F60E8AE
:1041D00071E0CE010E940D55DA92F801D487C387B1
:1041E000CE0DDF1DCA8280914C018F7780934C01E8
:1041F00082E090E00E94571B80914C018068809380
:104200004C0180919B1890919C18A0919D18B091A1
:104210009E18F80187839087A187B2876091521218
:104220007091531284E998E10E94191F8AE90E9453
:10423000951E9093531280935212892B31F489E08A
:104240000E946C1F81E08093931880E480934F015B
:10425000DF91CF911F910F91FF90EF90DF90CF9062
:104260000895CF93DF939C01FC01C081D181AB8580
:10427000BC85EC91E093BD18F0E03196EA0FFB1F8E
:10428000408161816D3320F4611103C061E001C0A0
:104290006CE342954695469543708FEF489FA00189
:1042A0001124649FC001659F900D112464EB70E0A0
:1042B0000E9444506F3F710511F008F06FEF60836A
:1042C0003A832983CE01DF91CF910C94483010922C
:1042D000C118E091BE18F091BF18208130E0275F2F
:1042E0003F4F85E0220F331F8A95E1F7E09199183F
:1042F000F0919A18A385B48511968C9185FF02C020
:10430000205E3D4F87819085A185B285821B930BEE
:10431000A109B10987839087A187B287A091541220
:10432000A83028F4B0E0AF5CBD4F8C9101C085E8A7
:10433000BF010C94F03FCF93DF93EC016623E1F0D3
:1043400020916C018091BB1830E1839FC001112442
:104350002F70282B20936C01C230D105C8F49091A6
:104360006C018091B318880F8E70917F892B809398
:104370006C0110926F0121C080916C018F7080934D
:104380006C01C230D10520F480916C018E6013C0A5
:104390008091BA18E0E18E9FC00111249091B41869
:1043A000982B90936F0190916C018091B318880FB6
:1043B0008E70917F892B80936C0189E10E946C1F24
:1043C0008931D9F7219751F48091BD18833118F0C4
:1043D00080E492E005C080E890E002C089E090E0CF
:1043E0000E94571BCFB7F894809139018260809367
:1043F0003901809139018D7F809339016091BE1818
:104400007091BF18FB01408150E04150510980E894
:1044100091E00E940D5581E08093C118CFBFDF91DC
:10442000CF910895FC01CB012091C118211111C039
:10443000F0939A18E0939918238534853093BF1828
:104440002093BE18232B39F0642F0E949B2180E01B
:10445000089586E8089588EE0895CF93C091C11815
:10446000C13009F58091991890919A1807960E9489
:104470003E1B8091420182958695877080935412ED
:1044800082E08093C1188091521290915312892B2F
:1044900031F489E00E946C1FC093931804C086E138
:1044A000CF910C946C1FCF9108958091470190910A
:1044B0005912981710F480935912809155129091C7
:1044C0005612A0915712B09158120197A109B10943
:1044D0008093551290935612A0935712B09358128E
:1044E000892B8A2B8B2B21F08FEF80934701089526
:1044F00085E08093C1180895CF93DF93D82F8091E2
:10450000C118882339F08091BC188F3009F04AC057
:1045100081E849C084E00E946C1F90915501906829
:1045200090935501C0E1C0934F0185E592E20E944E
:104530006318C0934E0186E00E946C1F863051F0D4
:10454000809155018F77809355018CE480934E01C3
:1045500085E829C084E08093C1181092591240EC7C
:1045600053E060E070E004C0440F551F661F771FE2
:10457000DA95D2F740545C4F6F4F7F4F83E07695CA
:104580006795579547958A95D1F740935512509363
:10459000561260935712709358128FEF8093470111
:1045A00080E001C086E8DF91CF91089580915501A8
:1045B0008F77809355018CE480934E011092C1183F
:1045C00086E10E946C1F80915912883320F08FEF92
:1045D000809359120AC02FEF829FC001112467E314
:1045E00070E00E94445060935912809159120C94CB
:1045F0008F44982F85FD02C09F7303C091959F71D2
:104600009195EEECF2E0249129172CF0EDEDF2E01B
:10461000249192176CF48491803E3CF080323CF4FB
:1046200087FF06C08F71806203C080E201C08FE106
:104630008068089585FD02C08F7303C081958F71D6
:104640008195EEECF2E090E0249182172CF028178F
:104650004CF48FEF890F08959F5F31969031A1F749
:1046600080E00895892F089584E08093B31823E0B3
:104670002093B4188FEF9FEF9093AE188093AD18EE
:104680009093AC188093AB188BE08093B218109283
:10469000B71880E098EFAFEFB7E08093A71890933A
:1046A000A818A093A918B093AA188AE091E0909353
:1046B000B0188093AF188AE08093B81882E0809396
:1046C000B91885E08093BA182093BB1884E80E943B
:1046D000F9228093B61881E08093B1181092B51832
:1046E00008958091AD18809362018091AE188093F7
:1046F0006301E4E6F1E0AFE9B8E18D918193EC3636
:1047000031E0F307D1F78091AB188093600180917D
:10471000AC1880936101209148018091B11830E27A
:10472000839FC001112480762F79822B80934801CA
:1047300090916F018091B4188F70907F892B809336
:104740006F0180916E019091B51890FB83F9809371
:104750006E0120916F018091BA1830E1839FC001F2
:1047600011242F70282B20936F0190914801809184
:10477000B2188F71907E892B809348018091B61872
:104780000E941A23909145018F70907F892B80930E
:1047900045010895CF93DF93EB019091C1189430B8
:1047A00009F4E9C08E3431F0893541F48881809371
:1047B000BB18DBC088818093B318D7C02091BC1888
:1047C0002F3009F4D4C08B3009F4C6C078F482309D
:1047D00009F49BC020F4882309F455C0CAC0833073
:1047E00009F4A4C0843009F47CC0C3C0833509F443
:1047F0003FC080F48F3489F1803509F0BAC09881C8
:1048000089819093AD188093AE1890936201809344
:104810006301ABC0873509F46AC0803F09F0A9C0C5
:10482000888180939F1889818093A0188A818093C2
:10483000A1188B818093A2188C818093A3188D81FD
:104840008093A4188E818093A5188F818093A618D9
:10485000E4E6F1E0AFE9B8E178C088818093B4186C
:1048600090916F018F70907F892B80936F017DC035
:10487000988189819093AB188093AC1890936001D4
:104880008093610172C0911176C080E098EFAFEF24
:10489000B7E0088004C0B695A795979587950A94C8
:1048A000D2F780FD02C088EE67C0283031F088E082
:1048B0000E946C1F8830D9F702C028E001C026E1B1
:1048C00088818093B218909148018F71907E892BD6
:1048D00080934801283009F448C086E10E946C1F8B
:1048E00044C0911148C088818111DDCF45C08881C5
:1048F0008093BA1820916F0130E1839FC001112489
:104900002F70282B20936F0130C088818093B618B8
:104910000E94F9228093B6180E941A2390914501B3
:104920008F70907F892B809345011FC08881809371
:10493000B1182091480130E2839FC0011124807694
:104940002F79822B8093480110C08D918193EC3692
:1049500081E0F807D1F709C098819093B51880914C
:104960006E0190FB83F980936E0180E005C081E8C1
:1049700003C084EF01C086E8DF91CF910895CF9303
:10498000DF9386E00E946C1F8630D9F78091550135
:104990008F778093550110924E0128E0C0E0D0E05F
:1049A00030914601CE01880F991F880F991F3076EC
:1049B000C32FD0E055E0D595C7955A95E1F7C82BA0
:1049C000D92B0000000000000000000000000000E3
:1049D00000000000000000000000000000000000D7
:1049E00000002150E9F683E00E946C1F8FEF809356
:1049F0004F018CE480934E01CE01DF91CF910C9456
:104A00000255CF93DF93D82F909139019D7F9093DA
:104A1000390180EF90E00E94571B909139019E7FF1
:104A20009093390181E090E00E94571B90913901E9
:104A3000916090933901CBE084E690E00E94571B8F
:104A4000909141019F71C15009F441C09830A1F784
:104A50009093BC180E94BF240E94FE5480936D0165
:104A600020916E019770287F922B90936E01909108
:104A70006E01906290936E0190914C0190689093BA
:104A80004C018CE480934E018FEF809356019091FE
:104A90004D019C7F90934D0190914A01907F9360CE
:104AA00090934A0190914D01986090934D0190919F
:104AB0004D01946090934D01D1110E9434230E94C6
:104AC00071231092C1181092931880E001C085E8FC
:104AD000DF91CF910895CF93DF930E94F91981114F
:104AE0003CC0809139018160809339018091390106
:104AF0008D7F809339018CE791E00E94571B809154
:104B000039018E7F8093390181E090E00E94571B2C
:104B100080913901816080933901CBE084E690E097
:104B20000E94571B809141018F71C150B1F08830B4
:104B3000A9F78093BC1880915C01843971F42FE946
:104B400038E148E050E060E070E080E00E940E1A3A
:104B500081E00E940125882349F085E842C00E9437
:104B6000FE54899388E1C73AD807C9F720919F1866
:104B70003091A0184091A1185091A2186091A318EB
:104B80007091A4188091A5189091A618AFEF0E947B
:104B90006751ADEF0E94855121F018F0CFE9D8E1BF
:104BA000DECF82E296E20E945E188AE296E20E94DE
:104BB000591886E396E20E946D1882E396E20E94FD
:104BC00068180E94741E8AE90E94951E90935312E1
:104BD0008093521284E998E10E94121F0E94964A23
:104BE00080E0DF91CF910895CF93C82F0E940125D7
:104BF000811125C080919818882359F060E070E0F9
:104C000084E998E10E94341F0097A1F30E949B1E43
:104C1000F1CF8C2F0E94A04A88E080934F0180E45E
:104C200080934F0184E080934F0180E880934F018F
:104C300080E00E943A260E94582680E001C085E864
:104C4000CF910895CF93CFB7F8940E94C320CFBFE0
:104C5000CF910895CF93CFB7F8940E942D22CFBF64
:104C6000CF9108958BE998E10C943E1B81E08093ED
:104C7000C0180895811116C08091BC188F30A1F022
:104C80008091C118811112C01092931888E00E947F
:104C90006C1F8830D9F78FE00E946C1F8F3031F481
:104CA00080E0089588EE089581E8089586E80895E3
:104CB0008091BC188F3039F488E00E946C1F8830D6
:104CC00021F480E0089582E8089585E808959091A0
:104CD000C118911117C0883031F40E946C1F1092D6
:104CE000931888E008958091521290915312892B65
:104CF00021F086E10E946C1F03C081E0809393182D
:104D000086E0089586E80895DC01ED91FC9124E1A8
:104D10002083638352834183BC0181E699E10C9433
:104D2000191F0F931F93CF93DF931F921F92CDB73D
:104D3000DEB74FEF5FEF6BEE8091DA189091DB18E2
:104D40000E9484261092D1180FEF1FEF1A83098357
:104D5000BE016F5F7F4F80E50E94563D10931B1987
:104D600000931A19E0E1F9E1108211821282138294
:104D700014821582168217820E940C3A0F900F90AF
:104D8000DF91CF911F910F910895DF92EF92FF92E3
:104D90000F931F93CF93DF93CDB7DEB72F970FB647
:104DA000F894DEBF0FBECDBF7C01DC01ED91FC911C
:104DB0008FE0DE01119601900D928A95E1F7F09255
:104DC000DB18E092DA188C81823019F48F81988593
:104DD0001AC08F8180931019888580931119898555
:104DE000809312198A85809313198B8580931419E7
:104DF0008C85809315198D85809316198E858093E7
:104E000017198EEF9FEF90931B1980931A19BE010B
:104E10006B5F7F4F80E50E94563D0E94343AF70158
:104E20000081118181E0D8018C931296FC92EE9260
:104E30001197F801EA56FF4F808331968F85808362
:104E4000399780919F1880838091A01881838091E9
:104E5000A11882838091A21883838091A3188483F0
:104E60008091A41885838091A51886838091A618C7
:104E7000878332978FEF9FEF918380838C8182307D
:104E800059F4329780911A1990911B19918380835C
:104E900083E298EC45E11EC0F801EC57FF4F80918A
:104EA0001019808380911119818380911219828356
:104EB000809113198383809114198483809115192B
:104EC000858380911619868380911719878383E2E1
:104ED0009CEC4BE12091AD183091AE18DF01129798
:104EE00011963C932E932091261931E0320F309386
:104EF000261911972C9312978D939C933697408384
:104F0000D8011C96FC93EE931B97BE016D5F7F4FFB
:104F100084E00E94563DD82EBE016E5F7F4F80E038
:104F20000E94563DD1100EC081110CC041E062E0DC
:104F300070E0C8010E941222811104C081E08093B8
:104F40005F1908C04FEF5FEF61EEC7010E94842632
:104F50000E940C3A2F960FB6F894DEBF0FBECDBF5D
:104F6000DF91CF911F910F91FF90EF90DF90089507
:104F7000DC01ED91FC9120912019211102C00C94CB
:104F80009B1EB0914619A0914719709148196091E4
:104F9000491950914A1940914B1930914C1920915F
:104FA0004D19B183A283738364835583468337830A
:104FB000208720915519218723E12083BC0181E6B8
:104FC00099E10C94191FEF92FF920F931F93CF93C7
:104FD000DF93FC01C081D181F9800A811B81BC81F2
:104FE000AD817E816F81588529853A85EB8440911A
:104FF0005E194250423040F0DF91CF911F910F91E6
:10500000FF90EF900C949B1E42E04883FE01EC560B
:10501000FF4F40833196318320833296E0823B9765
:1050200020919F1820832091A01821832091A118FE
:1050300022832091A21823832091A31824832091F6
:10504000A41825832091A51826832091A6182783CC
:105050003897F08201831283B383A48375836683B8
:10506000578332972091AD183091AE183183208349
:105070002091261931E0320F309326193197208381
:10508000329723E63CEC3183208331972BE1208358
:10509000FC87EB871E82BC0183EC98E10E94191FFC
:1050A00080911819909119199D838C8381E00E9439
:1050B000801B811108C0DF91CF911F910F91FF904C
:1050C000EF900C940637DF91CF911F910F91FF90D5
:1050D000EF900895FF920F931F93CF93DF931F924A
:1050E0001F92CDB7DEB7F09057190E949B1EF110AA
:1050F00036C065E579E183E50E94563D409155193A
:105100005091561980914619809310198091471932
:10511000809311198091481980931219809149192F
:105120008093131980914A198093141980914B1917
:105130008093151980914C198093161980914D19FF
:105140008093171981E080935E191092D118809195
:10515000D818833031F582E08093D81822C010929D
:10516000D1180FEF1FEF1A830983BE016F5F7F4FC6
:1051700080E50E94563D10931B1900931A19109256
:1051800010191092111910921219109213191092ED
:1051900014191092151910921619109217194FEF31
:1051A0005FEF6F2D8091DA189091DB180E948426B2
:1051B0000E940C3A0F900F90DF91CF911F910F91A9
:1051C000FF900895EF92FF920F931F93CF93DF9379
:1051D000C0911E19D0911F1900E010E020E030E0CE
:1051E00040E061E080E00E94B43081110FC04FEFD9
:1051F0005FEF61EE8091DA189091DB18DF91CF912B
:105200001F910F91FF90EF900C948426AE0160E007
:1052100070E084E0440F551F661F771F8A95D1F711
:10522000E12CF12C01E916E220E080E00E94041C50
:10523000882351F080E090E0DF91CF911F910F9192
:10524000FF90EF900C949126DF91CF911F910F91D9
:10525000FF90EF9008950F931F93CF93DF93FC017E
:105260002091331930913419A90144E0549F412D04
:1052700055271124742F632F66956695637009F482
:1052800041C08081918190933A198093391962309D
:10529000C9F410923B1910923C1910923D191092CA
:1052A0003E1910923F191092401910924119109214
:1052B00042198281938190933C1980933B193496D3
:1052C00084E021C0633019F0329682E01CC0028174
:1052D0001381D481C581B681A78190858185009392
:1052E0003B1910933C19D0933D19C0933E19B093CC
:1052F0003F19A093401990934119809342193A960F
:105300008AE001C080E0772309F447C026FD08C089
:105310002191319130934519209344198E5F08C033
:105320002091391930913A19309345192093441935
:105330007230C1F410924619109247191092481910
:105340001092491910924A1910924B1910924C1947
:1053500010924D19208131813093471920934619BD
:105360008E5F1BC07330C9F4D081C181B281A3812B
:105370007481358126819781D0934619C09347194E
:10538000B0934819A093491970934A1930934B1957
:1053900020934C1990934D19885F90913619955030
:1053A000981B909354194093431960933819DF91D7
:1053B000CF911F910F91089520915A122730E8F450
:1053C000FC01A385B48512968C91129786958695DB
:1053D0008370823091F4E0915B12F0915C1232970D
:1053E000F0935C12E0935B1216968D919C91179747
:1053F000918380832F5F20935A1280E0089520913B
:105400005A122730E8F4DC011B96ED91FC911C97B1
:105410008281869586958370833091F4A0915B128A
:10542000B0915C121897B0935C12A0935B12369601
:1054300088E001900D928A95E1F72F5F20935A1230
:1054400080E00895DF92EF92FF920F931F93CF9326
:10545000DF9300D01F921F92CDB7DEB7DB01ED9036
:10546000FC90F701728361838AE08083870108568C
:105470001F4F20912119222369F0422F50E0041B75
:10548000150B235F6CED78E1C8012D830E940D554B
:105490002D8101C02DE08091C718882309F441C0F7
:1054A00010935C1200935B1210925A128FEF99E2E4
:1054B0009A838983BE016F5F7F4F83EC98E12D83D0
:1054C0000E94391FD0905A1210925A124CED59E294
:1054D0005A834983BE016F5F7F4F83EC98E10E943E
:1054E000391FE0915A12A0915B12B0915C12119792
:1054F0008D2D90E0AC0194E0440F551F9A95E1F793
:105500004E2B4C93F4E0DF9EE00D1124EE0FE09360
:105510005A122D812E0FF0E0E095F095E00FF11F6B
:1055200002C0F8011292DF0111971C9280915E195E
:10553000833019F08FEF9FE002C08FEF9FE430912E
:10554000201931119068DF0113978D939C938091FE
:10555000AB189091AC188E3F3FEF9307E9F43B975F
:105560002A5FA0919F187091A0186091A118509186
:10557000A2184091A3183091A4189091A518809179
:10558000A618A083718362835383448335839683F3
:10559000878380E090EC05C035979183808380E01D
:1055A00090E84091AD185091AE18DF011297119616
:1055B0005C934E933091221941E0430F409322199E
:1055C00011973C9312978D939C9336972083D70124
:1055D0001C96FC93EE931B9740E062E070E0C701DD
:1055E0000E94122281E080935F190F900F900F901C
:1055F0000F900F90DF91CF911F910F91FF90EF903F
:10560000DF900895BC0180E00C94222A8F929F9233
:10561000AF92BF92CF92DF92EF920F93CF93DF932F
:10562000CDB7DEB766970FB6F894DEBF0FBECDBF1D
:105630004C01DC01ED91FC9181818C878281938109
:105640009E878D877481658156814781308521854C
:10565000928583857F87688B598B4A8B3B8B2C8BFC
:105660009D8B8E8B84858983858596859B838A8394
:1056700087858C8380898D8381898E8382898F83BE
:10568000838988878489898785898A8786898B87A2
:10569000A18CB28CC38CD48C268D378DE08C07897D
:1056A000458DBE016F5F7F4FCE010C960E9476053F
:1056B000C4010E949B1E66960FB6F894DEBF0FBE13
:1056C000CDBFDF91CF910F91EF90DF90CF90BF9042
:1056D000AF909F908F900895CF93DF93EC01E88176
:1056E000F9812381348145815681628181810E94C3
:1056F0007D03CE01DF91CF910C949B1ECF93DF935E
:10570000EC01E881F981628181810E94F449CE0136
:10571000DF91CF910C949B1ECF93DF93EC01E88136
:10572000F9816381818192810E945603CE01DF91CC
:10573000CF910C949B1E0F93CF93DF93EC01E881E4
:10574000F98121813281438154816581768101858E
:10575000878190850E942E04CE01DF91CF910F9119
:105760000C949B1EEF92FF920F93CF93DF93EC016B
:10577000E881F981E38CF48C208D318DBF016E5F5F
:105780007F4F028D478981810E94F549CE01DF91CB
:10579000CF910F91FF90EF900C949B1E0F931F934E
:1057A000CF93DF93CDB7DEB766970FB6F894DEBF21
:1057B0000FBECDBF8C01DC01ED91FC918181928106
:1057C0009E878D8723812C87B481A581768167810F
:1057D0005085418532852385BF87A88B798B6A8B5D
:1057E0005B8B4C8B3D8B2E8B9B838A83848589833B
:1057F00085858C8386858D8387858E8380898F833D
:10580000818988878289898783898A8784898B8728
:105810004589BE016F5F7F4FCE010C960E947C03CD
:10582000C8010E949B1E66960FB6F894DEBF0FBE9D
:10583000CDBFDF91CF911F910F9108950F931F93CB
:10584000CF93DF93CDB7DEB72B970FB6F894DEBFBB
:105850000FBECDBF8C01DC01ED91FC91828189836B
:10586000838194819B838A8375816681578140857A
:1058700031852285938584857C836D835E834F8308
:10588000388729879A878B87BE016F5F7F4F818119
:105890000E94F649C8010E949B1E2B960FB6F894F1
:1058A000DEBF0FBECDBFDF91CF911F910F91089545
:1058B0000F93CF93DF93EC01E881F981218132814D
:1058C00043815481658176810185878190850E941D
:1058D000F749CE01DF91CF910F910C949B1ECF938E
:1058E000DF93EC01E881F981AF014D5F5F4F628189
:1058F00081810E94F849CE01DF91CF910C949B1ECB
:10590000CF93DF93EC01E881F981218132814381DA
:10591000548165817681878190850E94F949CE0105
:10592000DF91CF910C949B1ECF93DF93EC01E88124
:10593000F98181810E94FA49CE01DF91CF910C94C7
:105940009B1ECF93DF93EC01E881F98181810E9456
:10595000E501CE01DF91CF910C949B1ECF93DF9395
:10596000EC01E881F98181810E94FB49CE01DF9140
:10597000CF910C949B1ECF92DF92EF920F931F93C7
:10598000CF93DF93EC01E881F9816F0189E0C80EC4
:10599000D11C0481158126813781E0844381628195
:1059A00081810E944A02CE01DF91CF911F910F9118
:1059B000EF90DF90CF900C949B1ECF93DF93EC0180
:1059C000E881F981628181810E949003CE01DF919B
:1059D000CF910C949B1ECF93DF93EC01E881F9816A
:1059E00081810E94F303CE01DF91CF910C949B1E25
:1059F000DC01ED91FC91628173812581448181817B
:105A00000C94FC49209155193091561936FF17C056
:105A10002091441930914519811107C08091AD182A
:105A20009091AE182817390739F080912A19909172
:105A30002B192817390719F48EEE0C94CF450895C9
:105A4000AF92BF92CF92DF92EF92FF920F931F938C
:105A5000CF93DF93209155193091561936FFD8C056
:105A60002091441930914519811107C08091AD18DA
:105A70009091AE182817390741F080912A1990911A
:105A80002B192817390709F0C3C020914619309106
:105A9000471980911A1990911B192817390709F491
:105AA000B7C020914619309147194091481950913B
:105AB000491960914A1970914B19A0901019B09032
:105AC0001119C0901219D0901319E0901419F09088
:105AD0001519009116191091171980914C19909170
