:100000000C94A7000C94C6000C94C6000C94C60077
:100010000C94C6000C94C6000C9429030C94C600E2
:100020000C94C6000C94C6000C94C6000C94C60038
:100030000C94C6000C94C6000C94C6000C94C60028
:100040000C94C6000C9462070C94C6000C94C60075
:100050000C9431070C94C6000C94C6000C94C60096
:100060000C94C6000C94C6000C94C6000C94C600F8
:100070000C94C6000C94C6000C94C6000C94C600E8
:100080000C94C6000C94C6000C94C6000C94C600D8
:100090000C94C6000C94C6000C94C6000C94C600C8
:1000A0000C94C6000C94C6000C94C6000C94C600B8
:1000B0000C94C6000C94C6000C94C6000C94C600A8
:1000C0000C94C6000C94C6000C94C60003020201F6
:1000D000010000FFFEFDFCFBF9F7F4EFF819101525
:1000E0008A14E522F920931F4228A1250F262125F5
:1000F000E32B652E0000D62FA7280000AE18BE18EF
:100100009E1874188D18B417CD17561800000000EB
:100110008C173D1706181217A2172D176E175F17A9
:100120001E177D17010401010102010101010101F6
:1001300001010101040108020101010102010102A2
:100140000102010102010202010101010800112462
:100150001FBECFEFD1E2DEBFCDBF12E0A0E0B2E024
:10016000E2E9FAE600E00BBF02C007900D92A4306E
:10017000B107D9F717E0A4E0B2E001C01D92AD319C
:10018000B107E1F70E94FC020C9447350C94000083
:10019000089582E090E061E070E00E943C080895DC
:1001A000EF92FF920F931F93662399F482E090E001
:1001B00060E070E00E943C0887E040E251EA67E0BE
:1001C00070E020E030E009EC10E0EE24FF240E9413
:1001D00007061F910F91FF90EF900895EF92FF9205
:1001E0000F931F9382E090E060E070E00E943C0873
:1001F00087E040E251EA67E070E020E030E009EC9F
:1002000010E0EE24FF240E9407061F910F91FF903B
:10021000EF900895EF92FF920F931F9381E090E08B
:1002200062E070E00E943C0887E040E251EA67E04B
:1002300070E020E030E00AE011E0EE24FF240E94AC
:1002400007061F910F91FF90EF900895EF92FF9294
:100250000F931F936623B9F487E00E94F80481E0AE
:1002600090E060E070E00E943C0886E040E854E8DE
:100270006EE170E020E030E00BE511E0EE24FF24B9
:100280000E94070603C081E00E9484321F910F91F3
:10029000FF90EF900895882351F487E00E94F804BE
:1002A00081E090E060E070E00E943C08089581E009
:1002B0000E9484320895EF92FF920F931F93DF9371
:1002C000CF93CDB7DEB72C970FB6F894DEBF0FBE35
:1002D000CDBF82E08A838EEB9AEB9C838B838091E7
:1002E0000502909106029E838D830E94BC3489830F
:1002F000009104020F5F0093040282E0BE016E5F72
:100300007F4F41E09E012F5F3F4FEE24E3940E9418
:10031000983386E040E854E86EE170E020E030E099
:100320000BE511E0EE24FF240E9407062C960FB681
:10033000F894DEBF0FBECDBFCF91DF911F910F911B
:10034000FF90EF900895EF92FF920F931F937C011F
:10035000E0911002F0911102309709F180911202A0
:100360008217E9F4809113028317C9F48091140273
:100370008417A9F480911502851789F480911602DB
:10038000861769F480911702871749F48091180243
:100390008E1529F4809119028F1509F45DC0009122
:1003A0001A0210911B020115110501F180911C0226
:1003B0008217E1F480911D028317C1F480911E021F
:1003C0008417A1F480911F02851781F48091200287
:1003D000861761F480912102871741F480912202EF
:1003E0008E1521F4809123028F15B9F1EF2B19F4AA
:1003F000A0E0B0E004C0012B49F5A1E0B0E08D0120
:100400000F5F1F4FFD01EE0FFF1FCD01880F991FDA
:10041000880F991F880F991FE80FF91FE05FFD4FA4
:1004200011830083FD01EE0FFF1FEE0FFF1FEA0F88
:10043000FB1FEE0FFF1FEE5EFD4F208331834283D3
:10044000538364837583E682F78207C0C7010FEF89
:100450001FEFEE24E39403C08F01C701EE240E9436
:100460000C331F910F91FF90EF900895AF92CF92B0
:10047000EF920F93DF93CF930F92CDB7DEB7882320
:1004800001F5633521F481E0898381E405C061349D
:1004900049F481E0898382E5BE016F5F7F4F0E944E
:1004A000FB3312C0623569F48EEB9AEB64E140E0F5
:1004B0002FE00FE0EE24E394CC24AA240E94D43150
:1004C00003C081E00E9484320F90CF91DF910F91A1
:1004D000EF90CF90AF900895CF92DF92EF920F936D
:1004E000DF93CF9300D0CDB7DEB740910F024F5FBF
:1004F00040930F028823C1F5F60120E032C08385C6
:10050000843169F58485882351F5818192818E5BE0
:100510009A4B29F58585968597FF21C08081823089
:1005200039F483819481909306028093050210C070
:10053000833089F527E032E0AF014D5F5F4F88E0FF
:10054000DA010D90AD01D9010D929D018150C1F7E5
:1005500083856485AF0120E80E9449331FC07196EE
:100560002F5F2E1560F202C08A3EA9F4433050F48A
:1005700081E040E058EF6FEF77E024E000E00E9478
:1005800007320CC019821A8283E5BE016F5F7F4F6C
:100590000E94FB3303C081E00E9484320F900F90D1
:1005A000CF91DF910F91EF90DF90CF900895EF9270
:1005B000FF920F931F938823B9F481E040E058EF36
:1005C0006FEF77E024E000E00E94073287E040E22E
:1005D00051EA67E070E020E030E00AE011E0EE244C
:1005E000FF240E94070603C081E00E9484321F910D
:1005F0000F91FF90EF9008950E943D34882311F0F1
:100600000E9454030E94350880E090E060E070E0B2
:100610000E943C0881E090E061E070E00E943C08AC
:1006200082E090E061E070E00E943C08789481E014
:100630000E9484320E942734FDCF9093250280933C
:100640002402EAE6F0E080818C60808380E28CBB4B
:1006500008951F920F920FB60F920BB60F921124AE
:100660002F933F934F935F936F937F938F939F93BA
:10067000AF93BF93EF93FF93E0912402F091250293
:100680000995FF91EF91BF91AF919F918F917F91CC
:100690006F915F914F913F912F910F900BBE0F90F3
:1006A0000FBE0F901F90189515B88FEF84B98FEF7C
:1006B0009FEF0E94030485B1809585B9F8CFCF9252
:1006C000DF92EF92FF920F931F93CF93DF937B0103
:1006D0008A016901892B11F088EE19C0CA01860FC1
:1006E000971F8150904110F085E811C0C0E0D0E024
:1006F0000AC0CE018E0D9F1D0E94D534F601EC0F6D
:10070000FD1F80832196C017D10798F380E0DF9109
:10071000CF911F910F91FF90EF90DF90CF900895B0
:10072000CF92DF92EF92FF920F931F93CF93DF93BD
:100730008C017B016A01CB01800F911F8150904198
:1007400010F085E816C0C0E0D0E00FC0C8010E94DC
:10075000D534F601EC0FFD1F6081861719F0C80132
:100760000E94DD340F5F1F4F2196CE15DF0570F319
:1007700080E0DF91CF911F910F91FF90EF90DF907C
:10078000CF9008950E94CE05089580E090E020E883
:100790000FB6F89420936100809361000FBE0E9411
:1007A0001A080E9490080E94750780E008958091C1
:1007B00081008770809381008091810082608093A6
:1007C00081000895FC012091070630910806C901B7
:1007D000A0E0B0E0BC0155274427809184009091AF
:1007E0008500A0E0B0E0482B592B6A2B7B2B809131
:1007F0000706909108062817390729F74083518387
:100800006283738308954FB7F8948630910518F189
:100810002091840030918500280F391F8091840039
:10082000909185008217930740F480918400909105
:10083000850082179307C8F30EC0809184009091C1
:10084000850028173907C8F38091840090918500AE
:1008500082179307C8F34FBF089520E090E0FC0192
:1008600053E0EE0FFF1F5A95E1F7E80FF91FE75F1E
:10087000F94F84819581892B09F021E0822F089519
:10088000DF92EF92FF920F931F93DFB6F89480915F
:1008900028028F3F09F453C090E0FC01A3E0EE0F63
:1008A000FF1FAA95E1F7E80FF91FE75FF94FE08016
:1008B000F180028113812091070630910806C8015A
:1008C000AA27BB272817390751F4F0928900E09234
:1008D000880082E086BB80916F00826003C08091B7
:1008E0006F008D7F80936F006091070670910806FE
:1008F0009B0140E050E08091840090918500A90127
:1009000033272227A0E0B0E0282B392B4A2B5B2B82
:1009100080910706909108066817790729F72E1924
:100920003F09400B510B2F5F3F4F4F4F5F4F2F5FE2
:100930003F4F4F4F5F4718F481E080932702DFBE9F
:100940001F910F91FF90EF90DF9008958091270203
:10095000882309F44CC010922702309126023323D9
:1009600009F445C0809129028F3F59F480912A02F1
:100970008F3F39F48091280280932A0280932902C4
:1009800012C02091280280912A0290E0FC0143E0ED
:10099000EE0FFF1F4A95E1F7E80FF91FE75FF94FE8
:1009A000208720932A028091280290E0FC0123E016
:1009B000EE0FFF1F2A95E1F7E80FF91FE75FF94FE8
:1009C00080858093280280912A0290E0FC01B3E0A8
:1009D000EE0FFF1FBA95E1F7E80FF91FE75FF94F38
:1009E0008FEF80873150309326020E944004089593
:1009F000FF920F931F93182F883010F08AE8C5C01C
:100A0000FFB6F8940E94A60400912602002309F480
:100A1000C0C040912802242F842F302F1217F1F5E7
:100A2000212F30E0141781F4F90163E0EE0FFF1F6E
:100A30006A95E1F7E20FF31FE75FF94F8085809336
:100A400028020E94400418C090E0DC0153E0AA0F85
:100A5000BB1F5A95E1F7A80FB91FA75FB94FF9015E
:100A600043E0EE0FFF1F4A95E1F7E20FF31FE75F48
:100A7000F94F808518968C93812F90E0FC0123E03C
:100A8000EE0FFF1F2A95E1F7E80FF91FE75FF94F17
:100A90008FEF808701500093260262C0822F90E082
:100AA000FC01B3E0EE0FFF1FBA95E1F7E80FF91F65
:100AB000E75FF94F50853150822F09F46AC0252F26
:100AC000ADCF1217D1F520912A021317B1F41217E6
:100AD00021F48FEF80932A020DC0812F90E0FC015A
:100AE000A3E0EE0FFF1FAA95E1F7E80FF91FE75FFC
:100AF000F94F80858093290233C0842F90E0DC0178
:100B0000E3E0AA0FBB1FEA95E1F7A80FB91FA75FA3
:100B1000B94F812F90E0FC0173E0EE0FFF1F7A9533
:100B2000E1F7E80FF91FE75FF94F808518968C937E
:100B30001217B1F440932A0213C0822F90E0FC01F7
:100B400063E0EE0FFF1F6A95E1F7E80FF91FE75F1B
:100B5000F94F422F20852F3F09F0B3CF80E00FC01F
:100B6000812F90E0FC0153E0EE0FFF1F5A95E1F753
:100B7000E80FF91FE75FF94F1582148281E0FFBE8D
:100B8000882311F489E801C080E01F910F91FF9044
:100B9000089530912902232F432FDDCF1F931FB7D4
:100BA000F8940E94A6041FBF1FEF25C06FB7F894EA
:100BB000822F90E0FC0173E0EE0FFF1F7A95E1F7C2
:100BC000E80FF91FE75FF94F208544815581868141
:100BD0009781108715821482178216822F3F09F49D
:100BE0003FEF6FBF4115510551F030932A0220931A
:100BF0002902FA01099530912A02209129022F3FFA
:100C0000A9F630932A02209329021F9108952F926A
:100C10003F924F925F927F928F929F92AF92BF923C
:100C2000CF92DF92EF92FF920F931F93CF93DF93B8
:100C3000782E5A016B01490197E0292E281610F4ED
:100C40008AE8E2C00115110509F4DBC0C82FD0E025
:100C5000FE0183E0EE0FFF1F8A95E1F7EC0FFD1F09
:100C6000E75FF94F84819581892B11F088E8CCC02A
:100C700060910706709108069B0140E050E080916A
:100C8000840090918500A90133272227A0E0B0E0DD
:100C9000282B392B4A2B5B2B809107069091080655
:100CA0006817790729F78114910431F061E08616FD
:100CB000910409F0A6C011C0D601C501805890402A
:100CC000A040B04080589F4FAF4FBF4708F09BC037
:100CD000A20EB31EC41ED51E10C0D601C501805879
:100CE0009040A040B040821B930BA40BB50B8058E2
:100CF0009F4FAF4FBF4708F086C09FB6F8940E9441
:100D0000A604509128025F3F31F060912602452FE2
:100D1000252F30E054C070922802FE01A3E0EE0FB0
:100D2000FF1FAA95E1F7EC0FFD1FE75FF94F508712
:100D300031C02F3F09F43EC0822F90E0FC0173E0E8
:100D4000EE0FFF1F7A95E1F7E80FF91FE75FF94F04
:100D500080819181A281B38115012601281A390A67
:100D60004A0A5B0AD201C1018F5F9F4FAF4FBF4755
:100D700010F4808521C0FE0133E0EE0FFF1F3A958D
:100D8000E1F7EC0FFD1FE75FF94F2087521721F4C1
:100D90007092280291E017C0842F90E0FC0123E0BC
:100DA000EE0FFF1F2A95E1F7E80FF91FE75FF94FF4
:100DB000708655C08FEF242F3F5F422F282F3617A4
:100DC00008F4B7CF33C0FE0183E0EE0FFF1F8A9512
:100DD000E1F7EC0FFD1FE75FF94FA082B182C282FD
:100DE000D38215830483F782E682809126028F5F87
:100DF00080932602992311F00E9440049FBE80E058
:100E000003C088EE01C08BE8DF91CF911F910F9155
:100E1000FF90EF90DF90CF90BF90AF909F908F901A
:100E20007F905F904F903F902F900895842F90E097
:100E3000FC01B3E0EE0FFF1FBA95E1F7E80FF91FD1
:100E4000E75FF94F7086FE01A3E0EE0FFF1FAA9542
:100E5000E1F7EC0FFD1FE75FF94F8FEF808790E020
:100E6000B2CF1F920F920FB60F920BB60F921124B2
:100E70002F933F934F935F936F937F938F939F93A2
:100E8000AF93BF93EF93FF9380910706909108066D
:100E9000019690930806809307060E944004FF91F4
:100EA000EF91BF91AF919F918F917F916F915F91E2
:100EB0004F913F912F910F900BBE0F900FBE0F904F
:100EC0001F9018951F920F920FB60F9211248F93B7
:100ED00080912602882319F081E0809327028F9168
:100EE0000F900FBE0F901F9018951092260210922F
:100EF000270210920806109207068FEF80932802AF
:100F00008093290280932A02EDE0F6E08483118227
:100F10001082399696E0E535F907C1F70E9421085D
:100F20000895FC01809107069091080620918600A3
:100F300030918700A0E0B0E0DC019927882740E0ED
:100F400050E0822B932BA42BB52B80839183A2831B
:100F5000B3830895CF92DF92EF92FF920F931F9386
:100F6000DFB6F894E090B100F0908100009180002D
:100F70001092B1001092810010928000E0E06FEFBB
:100F80007FEF40E050E01FEFF1E0A0E2CA2EA4E2C4
:100F9000B4EF16BB17BB1092B200109285001092EE
:100FA0008400F0938100F093B100C092B600B89B2A
:100FB000FECF109281001092B100209184003091F8
:100FC00085002115310511F480E024C084EF25321D
:100FD000380720F4CD01821B930B03C0C901845252
:100FE000944F8617970718F4E0916600BC012552CC
:100FF000344F20F4809166008F5F03C080916600BB
:101000008150809366004F5F5F4F4436510509F071
:10101000C0CF81E0E092B100F092810000938000A7
:10102000DFBEE09366001F910F91FF90EF90DF907D
:10103000CF900895209A219A0F9A229A249A239861
:101040000895E1E8F0E0808187708083808182608C
:10105000808382E086BB84E086BB88E086BBEFE6C7
:10106000F0E080818160808308952D982E982F98DC
:10107000259A269A279A08958130910519F00297AA
:1010800019F404C036E003C035E001C037E0611553
:101090007105B9F06130710551F495B102C0660F68
:1010A000771F3A95E2F7862F809589231FC085B177
:1010B00090E0032E02C0959587950A94E2F780FD93
:1010C0000BC025B181E090E002C0880F991F3A95CE
:1010D000E2F7282B25B9089525B181E090E002C000
:1010E000880F991F3A95E2F78095822385B9089574
:1010F000769A779A6E986F980895019711F487E021
:1011000001C086E02CB130E002C0359527958A9564
:10111000E2F721703070C901089580E090E00895F1
:1011200080E58CBD81E08DBD8CB58C7F8CBD289A0F
:1011300008959DB3ED98806C28988EBD0DB407FE80
:10114000FDCF6EBD0DB407FEFDCF289A9DBB08955F
:101150009DB3ED98806828988EBD0DB407FEFDCF35
:101160001EBC0DB407FEFDCF8EB5289A9DBB089519
:10117000FC01289880E28EBD0DB407FEFDCF1EBC99
:10118000613089F0DF01262F0DB407FEFDCF8EB54B
:101190001EBC8D9321502230B8F76250862F90E00C
:1011A0000196E80FF91F0DB407FEFDCF8EB58083C1
:1011B000289A0895FC01289880E68EBD0DB407FE9C
:1011C000FDCF819161500DB407FEFDCF8EBD66232A
:1011D000C1F70DB407FEFDCF289A0895FF920F9333
:1011E0001F93062FF42E0E94A808082310E002C0C7
:1011F00015950795FA94E2F7802F1F910F91FF90B4
:101200000895DF92EF92FF920F931F93D82EF62E40
:10121000E42E022F0E94A80810E002C0000F111F48
:10122000EA94E2F76F2D6023F094F8226F298D2D58
:101230000E9499081F910F91FF90EF90DF90089501
:10124000BC01009721F08FED95E00E9455090895AB
:101250008FED95E060E070E00E94EA0908950F9339
:101260001F93CF93DF938FED95E00E944E09C7EC5B
:10127000D5E00BE212E0198308838FED95E0BE0103
:101280000E945509249606561F4F85E0CF3DD8078A
:1012900091F7DF91CF911F910F910895FC01118279
:1012A00010821382128214820895CF93DF93DC019F
:1012B000EB019FB7F89414968C911497882321F42E
:1012C00011967C936E9306C01296ED91FC91139744
:1012D000738362831396DC93CE9312971B821A82D8
:1012E00014968C9114978F5F14968C939FBFDF9107
:1012F000CF9108959F92AF92BF92CF92DF92EF92DB
:10130000FF920F931F93CF93DF938C015B016A01D0
:101310009FB6F894DC0114968C91882319F4C0E0F0
:10132000D0E04AC0F801C081D18141155105B1F02A
:101330007E0111C0D60112966D917C911397ED91AB
:10134000FC91888199810995882359F47E018A81CD
:101350009B819C01E901209769F72EC0209761F1DC
:101360007E01AB2849F5F801808191812A813B817A
:10137000C817D90719F43183208305C0D701139604
:101380003C932E931297F80182819381C817D90755
:1013900011F4F382E282D80114968C911497815053
:1013A00014968C9314978D919C911197892B21F40D
:1013B00013961C921E9212979FBECE01DF91CF9181
:1013C0001F910F91FF90EF90DF90CF90BF90AF9063
:1013D0009F900895AB0160E070E00E947A09089543
:1013E000AB0161E070E00E947A090895CF93DF932A
:1013F000EC010BC0CE0160E070E00E94EA090097AA
:1014000011F41C8205C00E9420098C81882391F769
:10141000DF91CF9108950F931F93DF93CF93CDB7B3
:10142000DEB728970FB6F894DEBF0FBECDBF81E0C0
:101430006FE140E00E94EE08883099F5ED988EE06B
:1014400061E00E9499088FE00E94A80882E069E0AC
:101450000E949908CE0101960E94E2038E010B5F63
:101460001F4F8FE00E94A80880FD14C0C8010E9491
:10147000E2038D819E81AF81B88529813A814B81BC
:101480005C81821B930BA40BB50B89509740A04045
:10149000B04038F380E28CBB8EE068E00E9499088F
:1014A000ED9A28960FB6F894DEBF0FBECDBFCF9150
:1014B000DF911F910F9108951F93CF93DF93EC015C
:1014C00080917106909172060F97B9F42C9881E083
:1014D0006FE140E00E94EE088830C9F7C830D105BE
:1014E00019F0C330D10549F488E090E0909372067A
:1014F0008093710628E030E0FFC181E06FE140E0B9
:101500000E94EE088093710610927206C930D105D0
:1015100009F475C0CA30D10560F4C630D10509F4AC
:10152000E8C0C830D10509F43DC0239709F0D6C101
:1015300049C0C631D10509F42EC1C731D10520F407
:101540002A9709F0CBC176C0C931D10509F475C11C
:101550006A9709F0C3C182E063E00E9499080E9483
:10156000BC34682F192F8DE20E9499088EE267E043
:1015700040E0212F0E94010900000000000000004F
:1015800000000000000000002C9A83E290E00E941E
:1015900003048FE090E090937206809371062FE031
:1015A00030E0AAC1883009F499C182E068E00E9465
:1015B000990800000000000000000000000000008A
:1015C00000008CC1883009F489C1893159F482E066
:1015D00063E00E9499082C9A82E090E00E94030444
:1015E0002C987CC182E063E00E9499080000000012
:1015F0000000000000000000000000006FC1883003
:1016000009F474C0893020F4863009F067C105C040
:10161000863119F0893109F061C182E069E00E94E8
:101620009908000000000000000000000000000019
:10163000000054C1883009F459C0893040F4823028
:1016400039F1863061F0813009F048C108C082313B
:1016500009F432C0863119F0813109F03FC11DB360
:10166000ED9882E063E00E94990882E069E00E94C0
:1016700099088FE00E94A80880E28CBB1DBB000087
:10168000000000000000000000000000000026C173
:101690001DB3ED9882E063E00E94990882E069E062
:1016A0000E9499081DBB000000000000000000001F
:1016B00000000000000012C11DB3ED9882E063E05D
:1016C0000E9499082C9882E090E00E9403042C9AD2
:1016D00082E069E00E9499081DBB00000000000044
:1016E00000000000000000000000F8C00E940B0A8B
:1016F000F5C0893061F08A3020F4883009F0EEC0FE
:1017000013C0863101F1893109F0E8C01CC082E0C4
:1017100066E00E9499080000000000000000000040
:10172000000000000000DAC00E940B0A82E066E0C0
:101730000E94990800000000000000000000000066
:1017400000000000CBC082E069E00E949908000020
:10175000000000000000000000000000000081E028
:101760006FE140E00E94EE08282F30E030937206CF
:10177000209371062930310509F0BEC082E066E091
:101780000E94990800000000000000000000000016
:1017900000000000A3C08830C9F0893020F48630F2
:1017A00009F09CC022C0893021F0893109F096C02F
:1017B0001CC082E066E10E94990800000000000061
:1017C0000000000000000000000088C00E940B0A1A
:1017D00082E066E10E94990800000000000000001D
:1017E000000000000000000079C082E069E00E9473
:1017F0009908000000000000000000000000000048
:10180000000081E06FE140E00E94EE08282F30E008
:1018100030937206209371062930310509F06CC0AF
:1018200082E066E10E9499080000000000000000CC
:10183000000000000000000051C0883009F440C0E2
:10184000893020F4863009F049C013C0893021F076
:10185000863109F043C00DC082E069E10E94990819
:101860000000000000000000000000000000000078
:1018700035C082E069E00E94990800000000000085
:101880000000000000000000000081E06FE140E087
:101890000E94EE08282F30E03093720620937106E4
:1018A0002930310549F582E069E10E94990800007C
:1018B00000000000000000000000000000000EC05A
:1018C0000E940B0A82E069E10E9499080000000072
:1018D00000000000000000000000000081E06FE157
:1018E00040E00E94EE08282F30E0309372062093EB
:1018F00071062F31310591F3C901DF91CF911F910D
:101900000895809162068823F9F080917B0690917A
:101910007C06892BC9F48091E4059091E505892B1B
:1019200039F48AE90E9428099093E5058093E4053B
:101930008091E4059091E505892B31F010926206C3
:1019400086E190E00E945C0A80916706882351F04E
:1019500083E696E060E070E00E94EA09009711F0EB
:101960000E94BF0C80917B0690917C06009731F01D
:101970008F708250823010F40E940E0E0895EF9204
:10198000FF920F931F93CF93DF937C01DC010D91A6
:101990001C91D8011796ED91FC9118978081809346
:1019A0007406C82FD0E02196CE0FDF1F98812981C1
:1019B000203210F02FE103C0222309F421E0929598
:1019C0009695969593708FEF989FC001112430E003
:1019D000FC01E29FC001E39F900DF29F900D112446
:1019E0006DE570E00E944D346F3F710511F008F015
:1019F0006FEF6883D8011296FC92EE921197C8019E
:101A00000E941619DF91CF911F910F91FF90EF90D7
:101A10000895DF92EF92FF920F931F93DF93CF937E
:101A20000F92CDB7DEB7E091E405F091E505309770
:101A3000C9F1E080F18087E00E94A808D82ECE018D
:101A4000019661E00E94B808698167FD2BC06D5F57
:101A50000AE910E0061B11090E0D1F1D6150C80197
:101A60000E94B808F701108707838981080F111DAC
:101A7000F801D2826091E4057091E50583E696E075
:101A80000E9455098AE90E9428099093E5058093F0
:101A9000E405892B39F489E090E00E945C0A81E03A
:101AA000809362060F90CF91DF911F910F91FF906D
:101AB000EF90DF90089520917B0630917C062230D4
:101AC0003105A9F5882349F582E060EE45E00E94E2
:101AD000EE088330B1F0843028F4882361F081303F
:101AE000E1F403C08530C9F412C080917B06909167
:101AF0007C06806117C080917B0690917C06806295
:101B000011C080917B0690917C0680630BC0809110
:101B10007B0690917C06806405C080917B06909145
:101B20007C06806590937C0680937B060895233025
:101B3000310531F483E290E090937C0680937B063C
:101B400008950F931F93CF93DF938C01EB014423F0
:101B500059F08CE260EF44E0209170060E94010988
:101B6000C230D10528F50AC06230710538F08CE228
:101B700060EF44E020E00E9401091AC089E090E093
:101B80000E945C0A0997D1F783E090E090937C066D
:101B900080937B062197C1F480917406833118F0FD
:101BA00080E492E002C080E890E00E9403040CC050
:101BB00089E190E00E945C0A4997D1F782E090E0C9
:101BC00090937C0680937B06ED982C9A2C98F801D4
:101BD00060816150C8010E94DA08ED9ADF91CF91CF
:101BE0001F910F910895FC0180917B0690917C06D6
:101BF000892B11F086E80895F0936E06E0936D0648
:101C0000878190859093760680937506009711F4EE
:101C100088EE08950E94A10D80E0089580917B06D2
:101C200090917C069C01207F30708F709070823084
:101C3000910521F0039709F059C04AC020333105BE
:101C400039F12133310540F42031310569F020327A
:101C5000310509F04BC012C02034310519F120358F
:101C6000310509F043C028C010927C0610927B0613
:101C700060916D0670916E0687E827C010927C0611
:101C800010927B0660916D0670916E0680E01DC01B
:101C900010927C0610927B0660916D0670916E0624
:101CA00081EE13C010927C0610927B0660916D0647
:101CB00070916E0689EE09C010927C0610927B0628
:101CC00060916D0670916E0685E80E94632A089502
:101CD0002032310559F410927C0610927B066091F7
:101CE0006D0670916E0680E00E94632A0895EF925F
:101CF000FF920F931F9387E060E00E94990881E0B4
:101D000040E950E060E070E020E030E006EE1EE0E8
:101D1000EE24FF240E940706882389F71F910F9164
:101D2000FF90EF900895EF92FF920F931F93182F5B
:101D300080917B0690917C06009731F0049711F01A
:101D400086E83FC081E83DC0ED988FE00E94A8087A
:101D500086E090E00E945C0A8630910511F0ED9AD1
:101D60002FC090937C0680937B061092E60540EC92
:101D700053E060E070E004C0440F551F661F771FFA
:101D80001A95D2F740545C4F6F4F7F4F84E0440F59
:101D9000551F661F771F8A95D1F780E020E030E05D
:101DA00003EF1EE0EE24FF240E940706882321F49F
:101DB0000E94770E80E005C010927C0610927B0690
:101DC00085E81F910F91FF90EF90089587E00E94A2
:101DD000A808982F8091E605891710F49093E605DE
:101DE0000E94770E089581E00E94F8048AE090E056
:101DF0000E945C0A8FE00E94A80880E28CBBED9AEA
:101E000010927C0610927B0686E190E00E945C0AAC
:101E10009091E605993320F08FEF8093E6050AC094
:101E20008FEF989FC001112468E370E00E944D3449
:101E30006093E6058091E6050E942F2E0895282FD5
:101E400085FD03C0982F9F7304C0982F91959F71B3
:101E50009195ECECF0E08491891734F03F968491F1
:101E6000981714F0822F0CC0803E3CF080323CF476
:101E700087FF06C08F71806203C080E201C08FE1DE
:101E80008068089584E08093680623E020936F06BD
:101E90008FEF9FEF90935E0680935D0690936106AF
:101EA000809360068BE080936A0680E098EFAFEF46
:101EB000B7E08093770690937806A0937906B09365
:101EC0007A0610925C068AE091E090935B0680931C
:101ED0005A068AE08093730682E08093690685E063
:101EE00080936C062093700683E80E941F0F8093F6
:101EF000510681E080935F0610926B06089585FD80
:101F000003C0982F9F7304C0982F91959F7191954E
:101F1000ECECF0E080E02491921724F029173CF4D7
:101F2000815008958F5F31968031A9F780E0089540
:101F30001F93CF93DF9382E260915D060E94990820
:101F400083E260915E060E949908C2E5D6E014E241
:101F5000812F69910E9499081F5F1C32C9F780E2A6
:101F6000609160060E94990881E2609161060E947A
:101F70009908809151060E947F0F282F85E06FE01D
:101F800040E00E94010988E060E645E020915F069C
:101F90000E94010988E06FE140E020916A060E94FA
:101FA00001098EE260EC46E020916F060E94010973
:101FB000DF91CF911F9108950F931F93CF93DF93DC
:101FC000EB0120917B0630917C062630310509F427
:101FD000DEC08E3431F0893541F4888180937006FB
:101FE000DAC0888180936806D6C04091710650910E
:101FF00072064F30510511F481E8CEC08B3009F4E0
:10200000BDC08C3070F4823009F480C0833018F485
:102010008823E9F115C0833009F486C0843081F447
:1020200069C0833521F1843528F48F3459F0803527
:1020300039F40FC0873509F465C0803F09F47BC0CF
:1020400084EFAAC0288120936F068EE260EC46E000
:102050009BC088819981682F80935D0690935E066E
:1020600082E20E94990883E260915E060DC0888139
:102070009981682F809360069093610680E20E94A8
:10208000990881E2609161060E94990884C0232B1F
:1020900009F07DC080E098EFAFEFB7E0088004C0A2
:1020A000B695A795979587950A94D2F78170907009
:1020B000892B09F46EC04830510519F408E010E08E
:1020C00008C088E090E00E945C0A0897D1F706E11A
:1020D00010E0288120936A0688E06FE140E00E94CA
:1020E00001090830110509F456C086E190E00E940C
:1020F0005C0A51C0232B09F04AC08881882309F467
:102100004AC047C0888180936C0645C0888180930F
:1021100051060E941F0F809351060E947F0F282FA7
:1021200085E06FE040E030C0288120935F0688E0C2
:1021300060E645E029C088818093520689818093BA
:1021400053068A81809354068B81809355068C8137
:10215000809356068D81809357068E818093580612
:102160008F8180935906C2E5D6E014E2812F6991F0
:102170000E9499081F5F1C32C9F70DC02881209367
:102180006B068EE268E043E00E94010904C086E825
:1021900003C088EE01C080E0DF91CF911F910F91C5
:1021A00008950F931F93082F2C9880E793E00E94C7
:1021B0000304179886E090E00E940304179A10E049
:1021C00081E06FE140E00E94EE081F5F1B3F11F4C9
:1021D00085E83BC08830A1F788E090E090937206D4
:1021E0008093710683E061E00E9499088EE260E2CC
:1021F00045E021E00E94010985E060E847E021E038
:102200000E9401098EE068E00E9499080E94BC3497
:10221000682F192F8DE20E9499088EE267E040E056
:10222000212F0E94010980E00E94F7120E94E11212
:10223000002311F00E94420F0E94980F10927C061A
:1022400010927B061092620680E01F910F91089514
:102250001F930E94D110882311F085E820C01FB77A
:10226000F89480E00E94F80481E00E94F8041FBF07
:102270000AC083E696E060E070E00E94EA090097F9
:1022800011F00E94200980916706882391F781EC64
:1022900092E10E941D0380E28CBBED9A80E01F91C9
:1022A0000895EF92FF920F931F93CF93DF930E94B5
:1022B000C503882309F05DC1179A2C9884EF91E03B
:1022C0000E940304179886E090E00E940304179A86
:1022D00010E004C01F5F1F3F09F44BC18DE10E9455
:1022E000A8088230B9F78CE10E94A808823091F7E3
:1022F00068E00E94990810E081E06FE140E00E94F0
:10230000EE08115009F435C18830B1F788E090E04B
:10231000909372068093710680E090E060E070E038
:1023200048E050E022E536E00E945F0370915206DB
:10233000E09153064091540660915506F09156067F
:10234000B09157060091580650915906E72EEA942D
:1023500091E0E71608F090E08E2F815021E08E1773
:1023600008F020E0F92EF80E91E0F81608F090E061
:10237000292B842F815031E0841708F030E0122F90
:10238000180F91E0181708F090E0392B862F815034
:1023900021E0861708F020E0A32FA80F91E0A817EE
:1023A00008F090E0292B8F2F815031E08F1708F033
:1023B00030E0622F680F91E0681708F090E0392B49
:1023C0008B2F815021E08B1708F020E0432F480F1E
:1023D00091E0481708F090E0292B802F815091E080
:1023E000801708F090E0322F380F21E0381708F0FE
:1023F00020E0922B5195591709F09BC03F3F09F0FF
:1024000098C04F3F09F095C06F3F09F092C0AF3FB1
:1024100009F08FC01F3F09F08CC08FEFF81609F04C
:1024200088C08DEF8E1508F084C00E948D080E9430
:10243000C134C2E5D6E00E94BC34899386E0CA3537
:10244000D807C9F78091520630915306409154063F
:102450006091550670915606F0915706B091580656
:1024600050915906082F015091E0081708F090E0AC
:10247000832F815021E0831708F020E0192F180FD7
:1024800091E0181708F090E0292B842F815031E05B
:10249000841708F030E0A22FA80F91E0A81708F0E9
:1024A00090E0392B862F815021E0861708F020E03C
:1024B000E32FE80F91E0E81708F090E0292B872F31
:1024C000815031E0871708F030E0622F680F91E00B
:1024D000681708F090E0392B8F2F815021E08F177B
:1024E00008F020E0432F480F91E0481708F090E0F3
:1024F000292B8B2F815091E08B1708F090E0322F21
:10250000380F21E0381708F020E0922B5195591729
:10251000A1F43F3F91F44F3F81F46F3F71F4EF3FDF
:1025200061F4AF3F51F41F3F41F40E3F08F081CFFB
:1025300004C0872F9E2F0E94C13481E00E94D110D9
:102540008823B9F48FE00E94A80881EC92E10E94F0
:102550001D03ED9A0E942F098AE90E942809909391
:10256000E5058093E40583E696E00E944E0980E04D
:1025700001C085E8DF91CF911F910F91FF90EF90FF
:102580000895CF93DF938FE00E94A808C82F83FFA0
:1025900015C080917B0690917C060297029760F4AB
:1025A00086E190E00E945C0AC6FF02C081E001C0A3
:1025B00080E00E945B0D02C00E94090DDF91CF9167
:1025C000089580917106909172060F9711F082E83C
:1025D000089588E090E00E945C0A089711F085E871
:1025E000089581E090E00E94D70380E00895882359
:1025F00011F088EE089580917106909172060F9700
:1026000011F481E8089580917B0690917C06892BD6
:10261000A1F41092620688E090E00E945C0A08979C
:10262000D1F780E090E00E94D7038AE190E00E9419
:102630005C0A0F9711F480E0089586E80895282F2A
:1026400080917B0690917C06892B11F086E8089595
:10265000283041F488E090E00E945C0A1092620603
:1026600088E008958091E4059091E505892B31F08B
:1026700086E190E00E945C0A86E0089581E0809304
:10268000620686E00895CF93DF93DC019C9111965A
:102690002C91119780917D06882321F4CD010E9411
:1026A00020091AC0E92FF22F9F012F5F3F4F40E012
:1026B00057E088E0EA010990AE01E90109929E0124
:1026C0008150C1F780910B07818783E1808388E186
:1026D00097E0BD010E945509DF91CF910895DC017B
:1026E000ED91FC91119784E1808363835283418350
:1026F00088E197E0BD010E94550908950F931F934B
:10270000DF93CF9300D0CDB7DEB7A091A106B091F3
:10271000A206ED91FC91119784E180838BEE838377
:102720000FEF1FEF1283018388E197E0BD010E9444
:102730005509109290061A83098380E5BE016F5FE8
:102740007F4F0E94F3251093D8060093D70610926E
:10275000E5061092E6061092E7061092E80610923F
:10276000E9061092EA061092EB061092EC060E941F
:102770003B240F900F90CF91DF911F910F910895FF
:10278000EF92FF920F931F93E090E106F090E20624
:1027900080E061E040E020E030E000E010E00E94F6
:1027A000581D8823A9F4A091A106B091A206ED912D
:1027B000FC91119784E1808381EE83838FEF9FEFFB
:1027C0009283818388E197E0BD010E94550919C079
:1027D000A70160E070E084E0440F551F661F771F7B
:1027E0008A95D1F782E020E030E00EE713E1EE2495
:1027F000FF240E940706882321F080E090E00E94D9
:102800007E131F910F91FF90EF900895FF920F9309
:102810001F93DF93CF9300D0CDB7DEB7F0900D07B5
:102820000E942009FF20B1F583E56BE077E00E946C
:10283000F32520910B0730910C07809100078093BE
:10284000E506809101078093E60680910207809358
:10285000E706809103078093E80680910407809340
:10286000E906809105078093EA0680910607809328
:10287000EB06809107078093EC0681E080931407B4
:102880001092900680919B06833031F582E0809310
:102890009B0622C0109290060FEF1FEF1A83098348
:1028A00080E5BE016F5F7F4F0E94F3251093D8062D
:1028B0000093D7061092E5061092E6061092E706FE
:1028C0001092E8061092E9061092EA061092EB06C2
:1028D0001092EC062FEF3FEFE091A106F091A206D7
:1028E000A081B18184E18C931396FC921397129688
:1028F0003C932E93119788E197E0BF010E94550900
:102900000E943B240F900F90CF91DF911F910F9168
:10291000FF9008950F931F93DF93CF93CDB7DEB74A
:102920002C970FB6F894DEBF0FBECDBFAC01DE0111
:102930001196FC01808191819C01F9018CE001904C
:102940000D928150E1F7DA010D911C9180911407ED
:102950008250823020F0CA010E94200956C082E0D5
:10296000F8018083D801AC56BF4FFD0181938A8561
:102970009B8512969C938E9311978C8582839D01E3
:1029800028503040D901E2E5F6E088E001900D9250
:102990008150E1F7F90138979F01BE016E5F7F4FCB
:1029A00088E0DB010D90BD01D9010D929D018150A0
:1029B000C1F780915D0690915E069293829380911B
:1029C0009C0682938F5F80939C0683E69CEC929397
:1029D00082938BE18293D8011896FC93EE9317971C
:1029E00016961C928FE796E0BA010E9455098091D5
:1029F0009E0690919F06F8019583848383E00E9450
:102A00002D04882311F40E9490212C960FB6F8947F
:102A1000DEBF0FBECDBFCF91DF911F910F91089503
:102A2000CF92DF92EF92FF921F93DF93CF93CDB7B8
:102A3000DEB72F970FB6F894DEBF0FBECDBFAC0147
:102A40007C01DE011196FC01808191819C01F901DC
:102A50008FE001900D928150E1F74093A1065093D1
:102A6000A2068C81823019F48F8198851AC08F81DB
:102A70008093E50688858093E60689858093E7063E
:102A80008A858093E8068B858093E9068C85809300
:102A9000EA068D858093EB068E858093EC068EEF9B
:102AA0009FEF9093D8068093D70680E5BE016B5FB9
:102AB0007F4F0E94F3250E941624D701CD90DC9011
:102AC00081E0F6018083F282E182EA56FF4F808343
:102AD0008F8581839F0128503040D901E2E5F6E0DF
:102AE00088E001900D928150E1F7F9018FEF9FEF9F
:102AF000929382938C81823051F48091D706909189
:102B0000D8069293829345E123E238EC11C0F90193
:102B10003A979F0145EE56E088E0DA010D90AD014D
:102B2000D9010D929D018150C1F74BE123E23CECAC
:102B300080915D0690915E069293829380919C06AF
:102B400082938F5F80939C06329322934293D601A7
:102B50001896FC93EE93179784E0BE016D5F7F4F4C
:102B60000E94F325182F80E0BE016E5F7F4F0E9408
:102B7000F325112371F4882361F4C60162E070E04B
:102B800041E00E94F30D882321F481E08093150732
:102B900012C0D701ED91FC9184E1808381EE8383A3
:102BA0008FEF9FEF9283818388E197E0B7010E94C6
:102BB00055090E943B242F960FB6F894DEBF0FBE36
:102BC000CDBFCF91DF911F91FF90EF90DF90CF901D
:102BD0000895FC018091E9058730F0F4A781B08564
:102BE00012968C9112978695869583708230A1F407
:102BF000E091E705F091E8053297F093E805E0935E
:102C0000E70516968D919C9117979183808380910B
:102C1000E9058F5F8093E90580E00895FC018091CC
:102C2000E9058730F0F40780F085E02D82818695F4
:102C3000869583708330A9F48091E7059091E8052B
:102C400008979093E8058093E705DC01369688E0C5
:102C500001900D928150E1F78091E9058F5F80939B
:102C6000E90580E008959F92AF92BF92CF92DF92E4
:102C7000EF92FF920F931F93DF93CF9300D000D07A
:102C8000CDB7DEB7FB01A080B180D50112967C9351
:102C90006E9311978AE08C9378E9C72ED12CCA0CD9
:102CA000DB1C80919D06882319F46DE0962E0EC0E2
:102CB000482F50E0C41AD50A5DE0952E980E23EAFD
:102CC00036E0C601B90150E00E94CC348091830601
:102CD000882309F442C0D092E805C092E70510921B
:102CE000E9058EE096E19A8389838FE796E07E017D
:102CF0000894E11CF11CB7010E94F0090091E9055C
:102D00001092E90589EE95E19A8389838FE796E031
:102D1000B7010E94F0092091E905E091E705F091E3
:102D2000E805319710E0C80134E0880F991F3A9503
:102D3000E1F7822B8083000F111F000F111F020F7C
:102D4000111D000F111F0093E905900EE02FF0E018
:102D5000E095F095EC0DFD1D02C0F6011292DF0129
:102D60001E9280911407833019F42FEF3FE402C0C4
:102D70002FEF3FE080917D0681113068FD01329395
:102D8000229380916006909161062FEF8E3F92070B
:102D900099F4FD013A9786E0980E9F0142E556E0CE
:102DA00088E0DA010D90AD01D9010D929D018150AD
:102DB000C1F720E030EC04C09293829320E030E829
:102DC00080915D0690915E069293829380919A061F
:102DD00082938F5F80939A06329322939292D501C9
:102DE0001896FC93EE931797C50162E070E040E0FF
:102DF0000E94F30D81E0809315070F900F900F90C4
:102E00000F90CF91DF911F910F91FF90EF90DF9086
:102E1000CF90BF90AF909F900895BC0180E00E943A
:102E200033160895FC010190F081E02D62817381D9
:102E30008181448125810E944C3408950F931F9312
:102E40008C01DC01ED91FC9181810E944B01C80154
:102E50000E9420091F910F9108950F931F938C01D9
:102E6000DC01ED91FC91818162810E943602C801F2
:102E70000E9420091F910F910895AF92BF92CF92A7
:102E8000DF92EF920F931F935C01DC01ED91FC91B7
:102E90000481158126813781818162814381E084AB
:102EA00039966F010E946C02C5010E9420091F9192
:102EB0000F91EF90DF90CF90BF90AF9008950F9358
:102EC0001F938C01DC01ED91FC9181810E944B34B8
:102ED000C8010E9420091F910F9108950F931F931D
:102EE0008C01DC01ED91FC9181810E94D702C80127
:102EF0000E9420091F910F9108950F931F938C0139
:102F0000DC01ED91FC9181810E944A34C8010E944C
:102F100020091F910F9108950F931F938C01DC01DD
:102F2000ED91FC91218132814381548165817681CB
:102F3000878190850E944934C8010E9420091F9111
:102F40000F9108950F931F938C01DC01ED91FC917B
:102F5000818162813396AF010E944834C8010E948A
:102F600020091F910F910895EF92FF920F937C011A
:102F7000DC01ED91FC912181328143815481658195
:102F800076818781908501850E944734C7010E9420
:102F900020090F91FF90EF9008950F931F93DF93F7
:102FA000CF93CDB7DEB72B970FB6F894DEBF0FBE29
:102FB000CDBF8C01DC01ED91FC91828189838381FD
:102FC00094819B838A839E012C5F3F4FAF014B5FAF
:102FD0005F4F88E0DA010D90AD01D9010D929D019E
:102FE0008150C1F78181BE016F5F7F4F0E944634DF
:102FF000C8010E9420092B960FB6F894DEBF0FBEC1
:10300000CDBFCF91DF911F910F9108950F931F9323
:10301000DF93CF93CDB7DEB766970FB6F894DEBFD8
:103020000FBECDBF8C01DC01ED91FC9181819281BD
:103030009B838A83838189839E012C5F3F4FAF01ED
:103040004C5F5F4F88E0DA010D90AD01D9010D9220
:103050009D018150C1F7818192819E878D878485F2
:103060008C879E01215F3F4FAF01435F5F4F88E038
:10307000DA010D90AD01D9010D929D018150C1F78A
:10308000CE010196BE01645F7F4F45890E94C80052
:10309000C8010E94200966960FB6F894DEBF0FBEE5
:1030A000CDBFCF91DF911F910F910895CF92DF9205
:1030B000EF92FF920F936C01DC01ED91FC91BF0147
:1030C0006E5F7F4F24893589E788F08C8181438941
:1030D00006890E944534C6010E9420090F91FF9085
:1030E000EF90DF90CF900895EF92FF920F937C01C5
:1030F000DC01ED91FC912181328143815481658114
:1031000076818781908501850E94A301C7010E9475
:1031100020090F91FF90EF9008950F931F938C015A
:10312000DC01ED91FC918181928163810E942601F5
:10313000C8010E9420091F910F9108950F931F93BA
:103140008C01DC01ED91FC91818162810E9444340B
:10315000C8010E9420091F910F9108950F931F939A
:103160008C01DC01ED91FC91818162810E94D00093
:10317000C8010E9420091F910F910895CF92DF92FC
:10318000EF920F93DF93CF93CDB7DEB766970FB66D
:10319000F894DEBF0FBECDBF6C01DC01ED91FC9158
:1031A00081818983828193819B838A839E012C5FA5
:1031B0003F4FAF014C5F5F4F88E0DA010D90AD01EA
:1031C000D9010D929D018150C1F784858C87858539
:1031D00096859E878D879E01215F3F4FAF01415F9E
:1031E0005F4F88E0DA010D90AD01D9010D929D018C
:1031F0008150C1F7228D338DCE010196BE01645FEF
:103200007F4F418D0789E08C0E94EE00C6010E942D
:10321000200966960FB6F894DEBF0FBECDBFCF91E2
:10322000DF910F91EF90DF90CF900895FC01108215
:10323000618172816115710521F08CED96E00E942B
:1032400055090895282F80910B0790910C0796FF40
:103250001BC0222359F42091FE063091FF06809175
:103260005D0690915E062817390759F02091FE06F9
:103270003091FF068091DA069091DB062817390716
:1032800019F48EEE0E94713008950F931F93CF931F
:10329000DF93282F80910B0790910C0796FFA3C016
:1032A000222359F42091FE063091FF0680915D069D
:1032B00090915E062817390761F02091FE06309143
:1032C000FF068091DA069091DB062817390709F08E
:1032D0008AC020910007309101078091D706909114
:1032E000D8062817390709F47EC09091000780910D
:1032F000E506981759F5909101078091E606981711
:1033000029F5909102078091E7069817F9F49091BA
:1033100003078091E8069817C9F4909104078091FB
:10332000E906981799F4909105078091EA06981795
:1033300069F4909106078091EB06981739F4909103
:1033400007078091EC06981709F44DC08AE90E949E
:1033500028098C01009709F446C0DC012D913C91AD
:1033600085E0F901808312830183E956FF4F808352
:10337000AF0148505040FA01A2E5B6E088E00D9058
:1033800001928150E1F7FA013897EF01A5EEB6E01E
:1033900088E00D9009928150E1F780915D0690914F
:1033A0005E069293829380919C0682938F5F8093B6
:1033B0009C0683E69CEC9293829388E18293D901E8
:1033C0001896FC93EE931797C90162E070E041E014
:1033D0000E94F30D882321F481E08093150703C038
:1033E000C8010E942009DF91CF911F910F9108958C
:1033F0000F931F93CF93DF93EC01E881F981A781AD
:10340000B0857C917093F006FD01E70FF11D81817D
:103410008093090711964D915C9112975093EE0697
:103420004093ED0613968C9113978093F1068D01CE
:103430000C5F1F4F652F6295669566956370352FFB
:1034400036953695337019F4F80120E049C014968A
:103450008D919C9115979093F4068093F306FD014E
:1034600036963230E1F41092F5061092F60610927C
:10347000F7061092F8061092F9061092FA061092CA
:10348000FB061092FC0616968D919C9117979093CF
:10349000F6068093F506FD01389624E021C033300E
:1034A00011F022E01DC016968C9116978093F506B8
:1034B00081818093F60682818093F70683818093D1
:1034C000F80684818093F90685818093FA068681C7
:1034D0008093FB0687818093FC06FD013E962AE0DF
:1034E000662309F447C046FD08C0819191919093ED
:1034F000FF068093FE062E5F08C08091F306909130
:10350000F4069093FF068093FE066230C1F4109299
:103510000007109201071092020710920307109201
:103520000407109205071092060710920707808182
:10353000918190930107809300072E5F1BC0633039
:10354000C9F4808180930007818180930107828183
:10355000809302078381809303078481809304070B
:1035600085818093050786818093060787818093F4
:103570000707285F972F9550921B90930A07609337
:10358000FD063093F20643FDCDC1D801A20FB11D57
:10359000842F87708093EF06833021F48C91809381
:1035A000080763C0813009F451C0813020F08330B6
:1035B00009F0B8C15AC08D919C91119790930C0756
:1035C00080930B0712968C91129780930D0787704A
:1035D00011F493E002C0982F9C5FFD01E90FF11DEB
:1035E000808180930E07292F2F5F382F377090E04E
:1035F0008077907044E0959587954A95E1F7482F3C
:10360000332311F4882389F0CD01820F911D90930B
:10361000100780930F07332311F0330F230F442338
:1036200021F0440F440F440F240F80910A072817FC
:1036300050F4821B80931107A20FB11DB0931307A2
:10364000A093120773C11092110770C1992351F012
:10365000963718F086E780930A07B0930C07A0937B
:103660000B0764C110920A0761C18091080783307B
:10367000E1F0843030F48130C1F0823009F052C181
:1036800007C0883008F452C1883009F04BC112C01D
:1036900011968D919C91129790930C0780930B0734
:1036A00013968C9180930D0741C111968C91809354
:1036B0000B073CC111968D919C91129790930C072A
:1036C00080930B0713968D919C91149790930E07FE
:1036D00080930D0715968C91159780930F0716967A
:1036E0008D919C911797909311078093100754FF29
:1036F0001DC118968C918093120718C18091EF0616
:10370000833061F480910807843011F0873031F400
:103710008CED96E0BE010E9455090EC18091900685
:10372000813009F4EBC0813020F0843008F0FAC019
:10373000A3C080919906882309F06AC0909114076C
:10374000933080F1933009F0EDC08091EF06813025
:1037500009F4E4C0813010F1833009F0E3C08091B6
:103760000807843009F4AFC0853038F4813009F49B
:10377000A0C0833009F0D6C009C0863009F4AEC0BD
:10378000863040F0873009F0CDC0B0C0CE010E9435
:10379000621FD2C08EEE0E947130C4C080E00E94D1
:1037A0002219C0C08091EF06813009F4B7C0813082
:1037B00020F0833009F0B6C00CC080911707882331
:1037C00009F4B0C0992309F4ADC080E00E94451906
:1037D000A9C080910807843009F475C0853038F499
:1037E000813009F466C0833009F09CC004C0873082
:1037F00009F05AC009C0CE010E94621F80911407CF
:10380000813009F099C05CC0923009F08BC06EC065
:10381000833009F1843019F0823009F083C080913F
:10382000EF06882309F07EC080911407833019F4D5
:1038300081E00E94221980911707882341F080912E
:1038400014078150823018F481E00E944519CE019E
:103850000E940B2971C08091EF06833009F062C08D
:1038600080910807883009F05DC084E00E94F80468
:10387000CE010E94EE2C60C00E9476288091EF0657
:10388000813009F44BC0833009F04CC080910807A7
:103890008430C9F0853030F4813059F0833009F03C
:1038A00041C00BC08730F1F0883021F18630D1F56E
:1038B00015C0CE010E9443133FC0CE010E94621F7B
:1038C0000E945E2539C080918306882321F0CE01B5
:1038D0000E941B1E31C00E94FD1C24C0CE010E940C
:1038E000BE252AC0809114078230E1F4CE010E94E7
:1038F0000D1722C0CE010E94B6301EC08091EF0687
:10390000833051F480910807823061F40E94F804FA
:10391000CE010E94061410C0813021F4CE010E9415
:10392000AC210AC0CE010E94200906C08091150773
:10393000882309F0E3CEF2CEDF91CF911F910F9152
:103940000895DB01FC018681882399F40780F085C6
:10395000E02D8281869586958370823051F440E017
:103960002D913C91868197812817390719F441E000
:1039700001C040E0842F0895DB01FC01868188238B
:10398000C9F50780F085E02D828186958695837044
:10399000833081F520E09C918681981761F511961E
:1039A0009C9111978781981731F512969C911297E7
:1039B0008085981701F513969C9113978185981728
:1039C000D1F414969C91149782859817A1F41596BA
:1039D0009C9115978385981771F416969C9116976C
:1039E0008485981741F417969C918585981719F44A
:1039F00021E001C020E0822F08950F931F93CF9301
:103A0000DF938AE90E9428098C01009709F44BC0D2
:103A1000DC01CD91DC918CE088831A8309831E82BE
:103A2000FE01E856FF4F8091FD06833089F43897F8
:103A30009F0140E057E088E0DA010D90AD01D90127
:103A40000D929D018150C1F721E03CE04FE009C09B
:103A500080910007909101079293829321E038E0D2
:103A600049E08091FE069091FF06929382938091A7
:103A70009C0682938F5F80939C063293229342939D
:103A8000F887EF83F8018081918161E070E040E088
:103A90000E94F30D882321F481E08093150703C071
:103AA000C8010E942009DF91CF911F910F910895C5
:103AB0006F927F929F92AF92BF92CF92DF92EF92DE
:103AC000FF920F931F93CF93DF93D82E962EC42E81
:103AD000590138018AE90E9428097C01009709F4FC
:103AE0009BC0DC010D911C91DD2021F084E0F801E8
:103AF000808303C08BE0D8018C93F801F282E182CD
:103B0000E956FF4F84E08083209160063091610682
:103B1000C9010296029710F0992069F03897EF01D9
:103B2000A2E5B6E088E00D9009928150E1F762E1EC
:103B300083E290EC05C0329322936CE083E290E83C
:103B4000CC2061F020915D0630915E06621673060E
:103B500029F06E5F3293229370E002C0806471E0BE
:103B600022E0C21641F4AC015860D5018D919C91C0
:103B70009293829328C0B3E0CB1661F4AC015C60F1
:103B800038976A5FEF01D50188E00D900992815066
:103B9000E1F719C02091D7063091D8064FEF2E3F9C
:103BA000340729F0AC015860329322930CC0AC0169
:103BB0005C6038976A5FEF01A5EEB6E088E00D9093
:103BC00009928150E1F73297772339F080915D06B1
:103BD00090915E069183808302C0718260828091A1
:103BE0009C0682938F5F80939C06529342936293CC
:103BF000D8011896FC93EE931797C80162E070E025
:103C000041E00E94F30D882321F481E080931507A1
:103C100004C0C7010E94200980E0DF91CF911F916D
:103C20000F91FF90EF90DF90CF90BF90AF909F905B
:103C30007F906F900895EF92FF920F931F93DF9301
:103C4000CF9300D000D0CDB7DEB70E94200980917D
:103C50001407823008F453C08091FD06823019F4B5
:103C600081EA9CE105C0833009F049C08CEB9CE1FE
:103C70009A83898380E097E09C838B838FE796E02B
:103C80007E010894E11CF11CB7010E94F009DC01DF
:103C9000009781F00D911C911197F8018781908513
:103CA0002091FE063091FF06FC0184819581281742
:103CB000390719F00E94FD1C22C081E0F8018683BB
:103CC000B283A1838FE796E0B7010E94F009892BA8
:103CD00041F0D8011796ED91FC9118978181806190
:103CE0008183C80161E070E040E00E94F30D882309
:103CF00021F481E08093150702C0F80116820F902D
:103D00000F900F900F90CF91DF911F910F91FF9027
:103D1000EF900895EF92FF920F931F93CF93DF934D
:103D20007C01E801DC01ED91FC9186E180836183F7
:103D3000428334832383CF010596423069F4158290
:103D40001682178210861186128613861486888141
:103D500099819683858307C0DC01F80188E0019092
:103D60000D928150E1F788E197E0B7010E94550973
:103D7000DF91CF911F910F91FF90EF9008950F93D6
:103D80001F93DF93CF93CDB7DEB728970FB6F89484
:103D9000DEBF0FBECDBFDC01ED91FC911197198202
:103DA0001A821B821C821D821E821F821886078037
:103DB000F085E02D4281469546954370842F8250D0
:103DC000823080F48681898387818A8380858B8392
:103DD00081858C8382858D8383858E8384858F8383
:103DE0008585888780911407833049F420915D068A
:103DF00030915E068E010F5F1F4FCD0156C082309D
:103E000009F03FC0423051F4268137818091D706B6
:103E10009091D8062817390759F533C0433041F53A
:103E200096818091E506981719F597818091E606AD
:103E30009817F1F490858091E7069817C9F4918559
:103E40008091E8069817A1F492858091E906981769
:103E500079F493858091EA06981751F494858091BE
:103E6000EB06981729F495858091EC06981749F090
:103E700020915D0630915E06CD018E010F5F1F4FD0
:103E800014C08091600690916106029620915D06B3
:103E900030915E06029728F4CD0143E002E516E07A
:103EA00004C0CD0142E000E616E00E948A1E28967A
:103EB0000FB6F894DEBF0FBECDBFCF91DF911F913B
:103EC0000F910895CF93DF939C01FC01C081D181B4
:103ED000FE0185E18193A0E0B7E088E00D900192BA
:103EE0008150E1F780910B07898788E197E0B9015C
:103EF0000E9455091092E5061092E6061092E70618
:103F00001092E8061092E9061092EA061092EB066B
:103F10001092EC068FEF9FEF9093D8068093D70610
:103F2000DF91CF910895EF92FF920F931F93DF934C
:103F3000CF93CDB7DEB72E970FB6F894DEBF0FBE86
:103F4000CDBF8C01DC01ED90FC90DE011196F701F4
:103F50008EE001900D928150E1F7F7011283018309
:103F600083E08083EA56FF4F80838D858183389775
:103F70009F0142E556E088E0DA010D90AD01D901DC
:103F80000D929D018150C1F78A81823031F48D817B
:103F90009E819293829333E10FC038979F01AE01C7
:103FA0004B5F5F4F88E0DA010D90AD01D9010D92B2
:103FB0009D018150C1F739E180915D0690915E06C7
:103FC0009293829380919C0682938F5F80939C064C
:103FD0002A81922F990F990F80E08366906C9293BB
:103FE00082933293D7011896FC93EE931797169607
:103FF0001C92809114078250823008F060C08E8538
:10400000882309F45CC08A818230D1F48D818B349D
:1040100009F041C08E818823F1F58F818823D9F57D
:1040200088858823C1F589858823A9F58A85882311
:1040300091F58B85882379F58C85882361F55BC0A4
:10404000833009F058C09D818091E506981719F5D5
:104050009E818091E6069817F1F49F818091E70692
:104060009817C9F498858091E8069817A1F4998566
:104070008091E906981779F49A858091EA06981755
:1040800051F49B858091EB06981729F49C858091CB
:10409000EC06981781F18FE796E0B8010E94550968
:1040A00080919E0690919F06F7019583848383E01B
:1040B0000E942D048823F9F40E9490211CC00E94C4
:1040C0001624D8018D919C9162E070E041E00E943D
:1040D000F30D882321F481E0809315070CC02B8118
:1040E0003C81C80161EE4A818E010B5F1F4F0E9427
:1040F0008A1E0E943B242E960FB6F894DEBF0FBE98
:10410000CDBFCF91DF911F910F91FF90EF90089558
:10411000DC01ED91FC911197E081E43278F4F0E05C
:10412000EE0FFF1FE452FF4F259134912115310509
:1041300019F0F901099508950E94200908951F9327
:1041400080911507882381F480919806882361F077
:1041500084E996E060E070E00E94EA09009721F0AF
:104160000E94882011E001C010E08091E0068823C1
:1041700059F08CED96E060E070E00E94EA0900974B
:1041800019F00E94882011E0812F1F910895FC01F1
:104190008681882329F4848195810197958384837E
:1041A00080E00895FC018681882311F020E006C09C
:1041B00020E084819581892B09F421E0822F0895E4
:1041C000FB0120E0DC0113969C918081981709F493
:1041D00021E0822F0895DC01ED91FC91119780E19F
:1041E00080834183628388E197E0BD010E94550985
:1041F0000895EF92FF920F931F93DF93CF9300D018
:1042000000D00F92CDB7DEB77C01FC010081118197
:10421000F801918182E18083998380EE90E29B8313
:104220008A83CE0101969D838C838FE796E0BE0141
:104230006E5F7F4F0E94EA09009729F00E942009D3
:10424000F801128203C087EEF801828388E197E0CB
:10425000B7010E9455090F900F900F900F900F908B
:10426000CF91DF911F910F91FF90EF900895FF92F2
:104270000F931F93DF93CF9300D000D0CDB7DEB75D
:1042800087EC90E29A8389838FE796E08E010F5F37
:104290001F4FB8010E94F00982ED90E29A83898352
:1042A000F02E012F10E18FE796E06F2D702F0E9406
:1042B000EA09DC01009721F19C9111962C9111974C
:1042C000E92FF22F8081833049F08D3061F0823008
:1042D00051F780EFBD010E944624E5CFCD0160EF8C
:1042E0000E94BF1EE0CF8381E92FF22F10838183CC
:1042F00080EF828388E197E0BD010E945509D3CF0A
:1043000080918306882311F00E9490210F900F90D6
:104310000F900F90CF91DF911F910F91FF90089513
:10432000EF92FF920F931F9383E040E050EE61E025
:1043300070E020E030E007E311E2EE24FF240E9469
:104340000706882321F080E090E00E9437211F912A
:104350000F91FF90EF9008950F931F93DF93CF93EA
:10436000CDB7DEB728970FB6F894DEBF0FBECDBF2E
:10437000AC01DC019C9111962C9180910A07882355
:1043800021F4CA010E94200913C1E92FF22F809164
:10439000F106808F2091FD0621838091FE06909189
:1043A000FF0693838283822F8250823010F514821D
:1043B0001582168217821086118612861386223085
:1043C00039F48091000790910107958384831BC085
:1043D0002330C9F49F012C5F3F4F60E077E088E015
:1043E000DB010D90BD01D9010D929D018150C1F7F6
:1043F0000AC01382128214821582168217821086D6
:10440000118612861386208D80917E06281761F50D
:10441000948180918606981739F595818091870659
:10442000981711F59681809188069817E9F497817D
:10443000809189069817C1F4908580918A06981713
:1044400099F4918580918B06981771F492858091EB
:104450008C06981749F4938580918D06981721F45E
:10446000CA010E9420095AC020937E06848180934D
:10447000860685818093870686818093880687815A
:1044800080938906808580938A06818580938B0638
:10449000828580938C06838580938D062091F20619
:1044A00024871786108A118A128A138A148A158A19
:1044B000168A8091F3069091F406968785872330BB
:1044C00079F49F01215F3F4F65EF76E088E0DB01E3
:1044D0000D90BD01D9010D929D018150C1F70BC016
:1044E000223039F48091F5069091F606908B8787FB
:1044F00002C01686158680910907878B80910A076E
:10450000818F80910B0790910C07938F828F81E1AF
:10451000808388E197E0BA010E9455098091ED06F9
:1045200084FF46C080911407833009F443C0809112
:10453000FD06823071F480910007909101079A8303
:1045400089830091FE061091FF0680E060E042E062
:1045500021C0833019F5809100078983809101077C
:104560008A83809102078B83809103078C838091DB
:1045700004078D83809105078E83809106078F83C2
:104580008091070788870091FE061091FF0680E062
:1045900060E043E09E012F5F3F4F07C080E060E096
:1045A00040E020E030E000E010E00E94581D02C032
:1045B0000E943B2428960FB6F894DEBF0FBECDBFF5
:1045C000CF91DF911F910F910895CF92DF92EF92DB
:1045D000FF920F931F93DF93CF93CDB7DEB7629710
:1045E0000FB6F894DEBF0FBECDBF8C01DE01119671
:1045F000FC01808191819C01F90182E101900D9281
:104600008150E1F78F8582FD11C08091900688234B
:1046100021F480919906882349F09E85D801ED9177
:10462000FC9180E18083918381EEAEC0F801E0804F
:10463000F1808DE0D7018C938E8513968C93139720
:1046400016961C92888945E0D42ED80EE8E9F0E051
:10465000E81BF109EE0DFF1D9A81923051F437E00D
:10466000D32ED80E8091600690916106929382932A
:1046700012C0933081F438972DE0D22ED80E9F01CE
:1046800042E556E088E0DA010D90AD01D9010D92C6
:104690009D018150C1F720915D0630915E068C81AD
:1046A0009D812817390749F48A81882331F08B814D
:1046B000882319F040E450E009C08A81882321F062
:1046C000B2E0DB0E3293229340E050E08B818823EE
:1046D00011F1823039F46D2D6E5F8E819F8192933E
:1046E000829312C038976D2D685F9F0196E0C92EA6
:1046F000D12CCC0EDD1E88E0D6010D906D01D901C4
:104700000D929D018150C1F782E0D82ED60E8C818A
:104710009D819293829380919C0682938F5F809378
:104720009C06BA0161608F8580FF02C0BA01616298
:104730008889873608F070618B81382F330F330FEB
:1047400020E04A81942F9295990F990F907C80E0F8
:10475000282B392B262B372B329322933296D7FCDA
:104760000BC03397D082D7011896FC93EE9317971E
:104770008F8582FD10C028C09E85D801ED91FC91E7
:1047800080E18083918385EE828388E197E0B801A0
:104790000E9455093CC08091140782508230A0F4D9
:1047A0008FE796E0B8010E94550980919E0690918E
:1047B0009F06F7019583848383E00E942D0488235C
:1047C00031F50E94902123C00E941624D701129631
:1047D0001C930E931197C70162E070E041E00E94C4
:1047E000F30D882321F481E08093150710C09E8586
:1047F000D801ED91FC9180E18083918381EE8283E9
:1048000088E197E0B8010E9455090E943B24629616
:104810000FB6F894DEBF0FBECDBFCF91DF911F91D1
:104820000F91FF90EF90DF90CF9008958091160741
:10483000813051F40E94E112853831F081E090E03E
:104840000E94D703109216070895809116078823B7
:1048500089F480E090E00E94D70380E00E94F71284
:10486000882321F481E080931607089581E090E089
:104870000E94D703089580918406882331F48091A3
:10488000D906882311F40E9425240895DF93CF933D
:10489000CDB7DEB728970FB6F894DEBF0FBECDBFF9
:1048A000482F9B01DB01ED91FC910780F085E02D05
:1048B000DE011196369688E001900D928150E1F765
:1048C000D901ED91FC918CE1808380915D069091FE
:1048D0005E069283818393E0938380915206848362
:1048E0008091530685838091540686838091550676
:1048F00087838091560680878091570681878091B3
:104900005806828780915906838794878981858795
:104910008A8186878B8187878C81808B8D81818B33
:104920008E81828B8F81838B8885848B458B88E1F8
:1049300097E0B9010E94550928960FB6F894DEBF9A
:104940000FBECDBFCF91DF9108950F931F93182F06
:1049500010921507109214071092160710929906DC
:1049600010929B061092900610927E068FEF809315
:1049700086068093870680938806809389068093B5
:104980008A0680938B0680938C0680938D06109206
:10499000D90688E00E941F130FB7F89482E00E94A6
:1049A000F80483E00E94F80484E00E94F80485E0A3
:1049B0000E94F8040FBF112309F440C0109217079A
:1049C00082EC97E0909393068093920680E098E7BC
:1049D0009093E2068093E10610928F0610927D0676
:1049E00010929D060E94BC3480939A0684EF91E059
:1049F00090939F0680939E0681E08093910686E0C7
:104A0000809385061092E5061092E6061092E7065E
:104A10001092E8061092E9061092EA061092EB0650
:104A20001092EC068FEF9FEF9093D8068093D706F5
:104A30000E94BC3480939C06109284061F910F91B3
:104A400008950F931F93CF93DF93EC010881198191
:104A50000E941624F801018180E090E00E94D703B3
:104A600080E0011181E00E942811182F81E090E080
:104A70000E94D703802F0E94A5240E943B2484E932
:104A800096E00E94F6098CED96E00E94F60988E116
:104A900097E00E94F6098FE796E00E94F609E88108
:104AA000F981118380E2808388E197E0BE010E9452
:104AB0005509DF91CF911F910F910895DF93CF9307
:104AC00000D000D0CDB7DEB70E9416248FEF9FEF45
:104AD0009A8389839C838B8383E5BE016F5F7F4FBD
:104AE0000E94F32580E5BE016D5F7F4F0E94F32594
:104AF00081E00E94A5240E943B240F900F900F900C
:104B00000F90CF91DF9108950E9451118823B9F43D
:104B10000E94AA07882399F081E00E94A5240E94A0
:104B20003B2484E996E00E944E098CED96E00E94B9
:104B30004E098FE796E00E944E0980E0089585E8CF
:104B40000895FF920F931F93182FF92E40915D0641
:104B500050915E0689E0612F792F20916A060091BD
:104B60005C060E94EB30882329F481EE612F7F2DB3
:104B70000E9446241F910F91FF900895CF93DF93D9
:104B8000EC01E881F9818AE18193A0E0B7E088E057
:104B90000D9001928150E1F788E197E0BE010E94FB
:104BA0005509DF91CF910895E82F853419F480914C
:104BB0009D060895883030F4E82FF0E0EC5DFE4F5C
:104BC000849108958054803228F4F0E0E451FF4F3E
:104BD00084910895E03F10F480E00895F0E0E45AF5
:104BE000FF4F849108951F93CF93DF93182FEB010C
:104BF00080911607813051F40E941624812FBE0146
:104C00000E94DC0F182F0E943B2404C0812F0E94B9
:104C1000DC0F182F812FDF91CF911F9108950F93F3
:104C20001F93CF93DF938C01FC01C081D181BE0122
:104C30006D5F7F4F89818B3409F4A4C08C3478F583
:104C4000863009F475C0873098F4823009F4D0C0FA
:104C5000833038F4882309F4BBC0813009F048C0A0
:104C6000BAC0843009F45CC0853008F05CC0C3C0B1
:104C7000853409F469C0863448F4813409F461C08C
:104C8000823409F45BC0873099F555C0893409F442
:104C900068C08A3408F06DC0863451F55FC0853530
:104CA00009F462C08635A0F48F3409F476C08035EB
:104CB00030F48C3409F46BC08E34D1F46BC082357F
:104CC00009F473C0833509F473C0803589F468C072
:104CD0008935D9F08A3528F4873579F0883580F41C
:104CE00009C08D35D1F0803F09F469C08A3581F063
:104CF00094EF85C08091170780C080916C067DC0BD
:104D0000809192069091930657C08091700675C06D
:104D10008091E1069091E2064FC080918F066DC0B0
:104D200080915C066AC080915A0690915B0644C0EF
:104D30008091730662C0809169065FC08091910680
:104D40005CC080917D0659C040919D0623EA36E003
:104D5000CB01B90150E00E94CC3450C080919D0637
:104D60004CC080919A0649C080919E0690919F0602
:104D700023C0DB01E5EEF6E088E001900D92815062
:104D8000E1F73CC08091D7069091D80615C080917C
:104D90009C0633C08091680630C080916F062DC09C
:104DA00080915D0690915E0607C08091840625C0C3
:104DB00080916006909161069C838B831FC0DB010C
:104DC000E2E5F6E088E001900D928150E1F716C02F
:104DD00080916A0612C08091770690917806A09122
:104DE0007906B0917A068B839C83AD83BE8306C01F
:104DF0008091510602C080915F068B8390E089818B
:104E00008A838EE18883998388E197E0B8010E94C4
:104E10005509DF91CF911F910F910895FF920F9344
:104E20001F93CF93DF93182FEB01F42E8B3409F4EB
:104E30009BC08C3440F5833409F4B1C0843478F4D9
:104E4000853038F4823008F0AAC0882309F4A7C05E
:104E50003EC0813409F453C08234C9F548C0863459
:104E600009F45AC0873430F4843409F444C08534DA
:104E700071F549C0893409F453C08A3408F05BC025
:104E8000873429F58CC0853509F44EC0863570F419
:104E9000813530F48E3408F082C08C34C1F46BC09C
:104EA000823509F46CC0823590F079C08835A9F05C
:104EB000893528F4863569F0873549F470C08A351C
:104EC00079F08A3508F46BC0803F09F468C004EFBC
:104ED000C7C0888180931707C2C088819981BBC0F1
:104EE000888199819093E2068093E106B8C0888119
:104EF00080939106B4C0888180938506B0C0888174
:104F000080937D06ACC023EA36E040919D06C9013E
:104F100050E00E94CC34A3C0888180939D069FC03E
:104F2000888180939A069BC08881998190939F067F
:104F300080939E0694C088818093E5068981809342
:104F4000E6068A818093E7068B818093E8068C8150
:104F50008093E9068D818093EA068E818093EB062B
:104F60008F818093EC067BC0888199819093D806CD
:104F70008093D70674C0888180939C0670C0688136
:104F8000611161E060938406662331F00E9416246B
:104F900086E00E941F1363C00E943B2460C0812FE3
:104FA000BE010E94DC0F082F813871F40E94E112CB
:104FB000812FBE010E94DC0F082F882309F050C00A
:104FC00081E08093EA0503C0882309F049C08091FD
:104FD0006806282F30E080916C06482F50E06091E1
:104FE0006F06CA01861B9109281739070CF4C901FD
:104FF000A82F281B310981E090E002C0880F991F7B
:105000004A95E2F70197289FA001299F500D389FEC
:10501000500D112420E030E070E0E1E0F0E00DC040
:10502000C901860F971FEF0102C0CC0FDD1F8A95C3
:10503000E2F74C0F5D1F2F5F3F4F2A1788F384E183
:1050400090E09C01429FC001439F900D529F900DA4
:105050001124865F9E4F909393068093920600E002
:10506000FF2049F08091EA05882329F080E00E9422
:10507000F7121092EA05802FDF91CF911F910F91C7
:10508000FF900895EF92FF920F931F937C01FC0114
:1050900000811181B8016E5F7F4FF801818141E08D
:1050A0000E940E27F801918192839FE19083818372
:1050B00088E197E0B7010E9455091F910F91FF9079
:1050C000EF900895CF93DF93EC01E881F98183E2BB
:1050D00080836183662311F00E943B2488E197E07E
:1050E000BE010E945509DF91CF9108958091EF068E
:1050F0008823E1F082E00E94F8048091EF0681307D
:1051000031F480910A07882311F060E001C06BEE52
:1051100080919006823031F48091A1069091A20690
:105120000E946228109215071092900608958091AF
:105130009006823039F48091A1069091A2066BEE20
:105140000E94622810929006109215070895CF923F
:10515000DF92EF92FF920F931F93DF93CF93CDB720
:10516000DEB728970FB6F894DEBF0FBECDBFD82E9E
:10517000C92E809190068823D1F580911407833041
:10518000B1F180919906882391F50E941624ED2CA7
:10519000FC2CD701ED91FC9181819F012C5F3F4F49
:1051A000823031F4848195819A83898342E00DC0F5
:1051B000AE014F5F5F4F88E0D9010D909D01DA018C
:1051C0000D92AD018150C1F743E00281138181E06E
:1051D00060E09E012F5F3F4F0E94581D882329F0F9
:1051E000D092A106C092A20607C0C70102C08D2DB1
:1051F0009C2D61EE0E94622828960FB6F894DEBFBF
:105200000FBECDBFCF91DF911F910F91FF90EF9017
:10521000DF90CF9008955F926F927F928F929F92CE
:10522000AF92BF92CF92DF92EF92FF920F931F93B4
:10523000DF93CF93CDB7DEB761970FB6F894DEBF9B
:105240000FBECDBFBC0140919906423011F04430F1
:1052500069F480919106882349F0E091A106F091CC
:10526000A20620813181D901199604C0A0E0B0E0E6
:1052700020E030E05091FD0659830091FE06109128
:10528000FF061B830A83523069F41E821F82188630
:1052900019861A861B8680910007909101079D83CD
:1052A0008C8318C0809100078C83809101078D83C7
:1052B000809102078E83809103078F83809104077A
:1052C0008887809105078987809106078A87809162
:1052D00007078B8790906A069C86B0905C06BD8617
:1052E00080910B0790910C079F878E87188A809179
:1052F0000D0787FF02C081E0888B80910907898BA9
:10530000423019F0443009F06FC080919106882333
:1053100009F46AC0F901F084EC81FD815C806D8044
:105320007E808F80A884C984DA84EB8440E049C001
:1053300011968D919C9112970817190709F03FC09B
:105340008C915817E1F51B968C911B979816B9F51F
:105350001C968C911C97B81691F5523041F4139617
:105360008D919C911497E817F90749F53DC0139664
:105370008C911397851519F514968C9114978615B1
:10538000F1F415968C9115978715C9F416968C91A2
:1053900016978815A1F417968C9117978A1579F4AA
:1053A00018968C9118978C1551F419968C91199721
:1053B0008D1529F41A968C911A978E15A9F04F5FC6
:1053C00051964F1508F4B4CF59C0FD01DE01119676
:1053D00081E10D9001928150E1F7D90118968C91ED
:1053E00018978F5F18968C9390910E0780911107F4
:1053F000882321F4809191068823E1F5DB01ED916A
:10540000FC9187E180838091F10681839F012E5F6B
:105410003F4FAE014F5F5F4F81E1DA010D90AD016B
:10542000D9010D929D018150C1F780910E07838BA8
:10543000892F877059F4892F90E08077907024E04D
:10544000959587952A95E1F7882331F080910F078C
:1054500090911007958B848B80911107868B80919A
:10546000120790911307908F878B88E197E00E9435
:10547000550909C0CB010E94200905C0E4E0EF15E1
:1054800008F4B2CFA2CF61960FB6F894DEBF0FBE7C
:10549000CDBFCF91DF911F910F91FF90EF90DF90E3
:1054A000CF90BF90AF909F908F907F906F905F90C4
:1054B0000895FB0140E0208131812817390709F464
:1054C00041E0842F0895EF92FF920F931F93DF9393
:1054D000CF9300D000D0CDB7DEB7F82E8B0110925D
:1054E000150780919906823029F4FB01808187306D
:1054F00059F406C0833041F4FB018081863021F4E9
:105500008F2D0E944E2F2CC1F8018081883009F424
:1055100019C1893098F4833009F445C0843038F4D7
:10552000813009F468C0823009F018C1E4C08430C9
:1055300009F490C0853009F011C1FBC08B3009F42B
:1055400089C08C3038F4893009F4ECC08A3009F015
:1055500005C1FFC08C3009F4FCC08D3009F0FEC0DD
:10556000F80186818823B9F01682FF2021F0F7E840
:10557000FF1609F0F3C089E59AE29A838983F8015E
:10558000818192819C838B838FE796E0BE016F5F60
:105590007F4F0E94EA09F801818192816F2D43813A
:1055A0000E94EB20DBC0F80186818823B1F01682CF
:1055B000FF2019F0F7E8FF16B1F489E59AE29A8323
:1055C0008983F801818192819C838B838FE796E0A8
:1055D000BE016F5F7F4F0E94EA09F80181819281CD
:1055E0006F2D0E94BF1E80911407813009F0B6C054
:1055F0000E945E25B3C0F9EEFF1619F091EEF91680
:1056000049F4F801818192816F2D4FEF5FEF0E9485
:105610006F13A4C0809390064091E1065091E2067A
:1056200060E070E094E0440F551F661F771F9A9565
:10563000D1F782E020E030E000EC13E1EE24FF241B
:105640000E940706882309F48BC080E090E00E9446
:10565000C01386C0F801818192810E942009809147
:105660009006813009F47CC0F80180818430C1F457
:10567000F7E8FF1699F0E091A106F091A2060190DB
:10568000F081E02D83E28083F1826091A106709128
:10569000A20688E197E00E94550960C082E009C037
:1056A00089EEF81609F45AC091EEF91609F456C0BD
:1056B00083E080939006409192065091930660E0BB
:1056C00070E084E0440F551F661F771F8A95D1F75D
:1056D00082E020E030E007E918E2EE24FF240E9497
:1056E000070691E0909315078823D1F180E090E0C0
:1056F0000E94972835C0F8011682FF2019F0F7E8BC
:10570000FF1661F589E59AE29A838983F801818120
:1057100092819C838B838FE796E0BE016F5F7F4F02
:105720000E94EA09F801618172818F2D0E9446244E
:1057300015C0F801818192810E9420098EEE0E949D
:1057400071300CC0F801618172818F2D0E94A92FE8
:1057500005C0F801818192810E9420090E943B24AA
:105760000F900F900F900F90CF91DF911F910F919D
:10577000FF90EF900895EF92FF920F931F93109276
:10578000D906809184068823C9F48091160788235E
:10579000A9F488E00E941F13883071F085E040E88A
:1057A00050E060E070E020E030E00BEB1BE2EE2424
:1057B000FF240E94070602C00E943B241F910F9104
:1057C000FF90EF900895DF92EF92FF920F931F9357
:1057D000CF93DF93EC01E881F981E680F7800085C3
:1057E0001185E114F1040105110539F480E090E020
:1057F0000E94BB2BE881F98147C0809190068823E5
:10580000F1F5809199068823D1F50E94162486E04F
:105810000E941F13D82E81E08093D90685E00E9454
:105820002D04882319F085E00E94F80484E0EE0C32
:10583000FF1C001F111F8A95D1F785E0B801A70151
:1058400020E030E00BEB1BE2EE24FF240E94070671
:10585000882381F0E881F98181E2808388EE818369
:1058600088E197E0BE010E94550980E090E00E9427
:10587000BB2B12C0E881F98186E0D81629F081E2BD
:10588000808382EF818303C081E28083118288E17B
:1058900097E0BE010E945509DF91CF911F910F91B2
:1058A000FF90EF90DF900895BC0188E197E00E949F
:1058B000550980918E068093F10584E061EF75E0D3
:1058C0000E94F3258091A0068093F00580E060EFB0
:1058D00075E00E94F325109299060E943B240895DA
:1058E000CF93DF93E091E306F091E406C081D1818C
:1058F000DE01A956BF4FFA83E983882339F087E098
:1059000088838C934AE023E038E013C086E08883E4
:105910008C9318979D0142E556E088E0FA010190CA
:10592000AF01F90101929F018150C1F742E123E4E7
:1059300038ECFD018FEF9FEF929382933297918322
:105940008083159780919C068C938F5F80939C0633
:105950003E932E93FD014293F887EF83CE0160E0E2
:1059600070E040E00E94F30D882311F080E003C056
:1059700081E080931507DF91CF910895DF93CF9356
:105980000F92CDB7DEB790919906923069F09330BF
:1059900079F09130F9F48823C1F490931507809140
:1059A000F2050E94930E16C0882379F481E002C0AC
:1059B000882359F40E94702C882361F484E0898341
:1059C000CE0101960E94FB2D05C08091F0058F5FEE
:1059D0008093F0050F90CF91DF9108950F931F935F
:1059E0008C018091E3069091E4060E9420091092B8
:1059F000E4061092E306A091A106B091A206ED91F3
:105A0000FC9111978BE18083118283E08283148261
:105A1000158216821782108688E197E0BD010E94E8
:105A20005509109299060E943B24C8010E94200942
:105A300080E56BE077E00E94F3258091100790915C
:105A400011078F5F9F4F29F083E560E177E00E94A7
:105A5000F32580910D0790910E079093D8068093BF
:105A6000D7068091ED069091EE0694FF05C084E084
:105A700062E177E00E94F32580E06FE077E00E942A
:105A8000F3250E94BE2C1F910F910895EF92FF9273
:105A90001F93CF93DF93182F7B01FB01C081D1812E
:105AA00084E061EF75E00E94F325409199065091E2
:105AB00091062091F00551C0423011F0443031F48C
:105AC000552321F08885853008F04AC0133021F431
:105AD0008885882309F072C0322F3F5F8C819D81B9
